{
	"data": {
		"bytecode": {
			"linkReferences": {},
			"object": "6080604052348015600e575f80fd5b50606a80601a5f395ff3fe6080604052348015600e575f80fd5b50600436106026575f3560e01c80637eed017214602a575b5f80fd5b60306032565b005b56fea26469706673582212204387ec9d038146e958652ed6bf32b75a2fbc47c1bcfe03bca3ccc4c2c042c24864736f6c63430008140033",
			"opcodes": "PUSH1 0x80 PUSH1 0x40 MSTORE CALLVALUE DUP1 ISZERO PUSH1 0xE JUMPI PUSH0 DUP1 REVERT JUMPDEST POP PUSH1 0x6A DUP1 PUSH1 0x1A PUSH0 CODECOPY PUSH0 RETURN INVALID PUSH1 0x80 PUSH1 0x40 MSTORE CALLVALUE DUP1 ISZERO PUSH1 0xE JUMPI PUSH0 DUP1 REVERT JUMPDEST POP PUSH1 0x4 CALLDATASIZE LT PUSH1 0x26 JUMPI PUSH0 CALLDATALOAD PUSH1 0xE0 SHR DUP1 PUSH4 0x7EED0172 EQ PUSH1 0x2A JUMPI JUMPDEST PUSH0 DUP1 REVERT JUMPDEST PUSH1 0x30 PUSH1 0x32 JUMP JUMPDEST STOP JUMPDEST JUMP INVALID LOG2 PUSH5 0x6970667358 0x22 SLT KECCAK256 NUMBER DUP8 0xEC SWAP14 SUB DUP2 CHAINID 0xE9 PC PUSH6 0x2ED6BF32B75A 0x2F 0xBC SELFBALANCE 0xC1 0xBC INVALID SUB 0xBC LOG3 0xCC 0xC4 0xC2 0xC0 TIMESTAMP 0xC2 BASEFEE PUSH5 0x736F6C6343 STOP ADDMOD EQ STOP CALLER "
		},
		"gasEstimates": {
			"creation": {
				"codeDepositCost": "21200",
				"executionCost": "73",
				"totalCost": "21273"
			},
			"external": {
				"myFunc()": "121"
			}
		},
		"methodIdentifiers": {
			"myFunc()": "7eed0172"
		}
	},
	"abi": [
		{
			"inputs": [],
			"name": "MyError",
			"type": "error"
		},
		{
			"anonymous": false,
			"inputs": [],
			"name": "MyEvent",
			"type": "event"
		},
		{
			"inputs": [],
			"name": "myFunc",
			"outputs": [],
			"stateMutability": "nonpayable",
			"type": "function"
		}
	]
}