{
	"contracts/ownable_commented.sol": {
		"Ownable": {
			"abi": [
				{
					"inputs": [],
					"stateMutability": "nonpayable",
					"type": "constructor"
				},
				{
					"inputs": [
						{
							"internalType": "address",
							"name": "notOwnerAddress",
							"type": "address"
						},
						{
							"internalType": "address",
							"name": "ownerAddress",
							"type": "address"
						}
					],
					"name": "notOwner",
					"type": "error"
				},
				{
					"inputs": [
						{
							"internalType": "address",
							"name": "ownerAddress",
							"type": "address"
						}
					],
					"name": "transferIsAlreadyOwner",
					"type": "error"
				},
				{
					"anonymous": false,
					"inputs": [
						{
							"indexed": false,
							"internalType": "address",
							"name": "previousOwner",
							"type": "address"
						},
						{
							"indexed": false,
							"internalType": "address",
							"name": "newOwner",
							"type": "address"
						}
					],
					"name": "onTransferOwnership",
					"type": "event"
				},
				{
					"inputs": [
						{
							"internalType": "address",
							"name": "inAddress",
							"type": "address"
						}
					],
					"name": "isOwner",
					"outputs": [
						{
							"internalType": "bool",
							"name": "",
							"type": "bool"
						}
					],
					"stateMutability": "view",
					"type": "function"
				},
				{
					"inputs": [],
					"name": "owner",
					"outputs": [
						{
							"internalType": "address",
							"name": "",
							"type": "address"
						}
					],
					"stateMutability": "view",
					"type": "function"
				},
				{
					"inputs": [],
					"name": "renounceOwnership",
					"outputs": [],
					"stateMutability": "nonpayable",
					"type": "function"
				},
				{
					"inputs": [
						{
							"internalType": "address",
							"name": "newOwner",
							"type": "address"
						}
					],
					"name": "transferOwnership",
					"outputs": [],
					"stateMutability": "nonpayable",
					"type": "function"
				}
			],
			"devdoc": {
				"details": "https://docs.openzeppelin.com/contracts/2.x/api/ownership This is a snippet for an ownable contract, that orients itself at the open zeppelin contract This is not the OpenZeppelin Ownable contract",
				"errors": {
					"notOwner(address,address)": [
						{
							"details": "This error gets thrown when an address is not the Owner"
						}
					],
					"transferIsAlreadyOwner(address)": [
						{
							"details": "This error gets thrown when an address of an owner transfer is the same as the owner"
						}
					]
				},
				"events": {
					"onTransferOwnership(address,address)": {
						"details": "This event gets called when the ownership is transferred"
					}
				},
				"kind": "dev",
				"methods": {
					"isOwner(address)": {
						"details": "Returns true if an address is the Owner"
					},
					"renounceOwnership()": {
						"details": "A function to renounce the ownership"
					},
					"transferOwnership(address)": {
						"details": "A function to transfer the ownership"
					}
				},
				"stateVariables": {
					"owner": {
						"details": "The owner address"
					}
				},
				"version": 1
			},
			"evm": {
				"assembly": "    /* \"contracts/ownable_commented.sol\":326:2502  contract Ownable {... */\n  mstore(0x40, 0x80)\n    /* \"contracts/ownable_commented.sol\":2383:2500  constructor() {... */\n  callvalue\n  dup1\n  iszero\n  tag_1\n  jumpi\n  0x00\n  dup1\n  revert\ntag_1:\n  pop\n    /* \"contracts/ownable_commented.sol\":2483:2493  msg.sender */\n  caller\n    /* \"contracts/ownable_commented.sol\":2475:2480  owner */\n  0x00\n  dup1\n    /* \"contracts/ownable_commented.sol\":2475:2493  owner = msg.sender */\n  0x0100\n  exp\n  dup2\n  sload\n  dup2\n  0xffffffffffffffffffffffffffffffffffffffff\n  mul\n  not\n  and\n  swap1\n  dup4\n  0xffffffffffffffffffffffffffffffffffffffff\n  and\n  mul\n  or\n  swap1\n  sstore\n  pop\n    /* \"contracts/ownable_commented.sol\":326:2502  contract Ownable {... */\n  dataSize(sub_0)\n  dup1\n  dataOffset(sub_0)\n  0x00\n  codecopy\n  0x00\n  return\nstop\n\nsub_0: assembly {\n        /* \"contracts/ownable_commented.sol\":326:2502  contract Ownable {... */\n      mstore(0x40, 0x80)\n      callvalue\n      dup1\n      iszero\n      tag_1\n      jumpi\n      0x00\n      dup1\n      revert\n    tag_1:\n      pop\n      jumpi(tag_2, lt(calldatasize, 0x04))\n      shr(0xe0, calldataload(0x00))\n      dup1\n      0x2f54bf6e\n      eq\n      tag_3\n      jumpi\n      dup1\n      0x715018a6\n      eq\n      tag_4\n      jumpi\n      dup1\n      0x8da5cb5b\n      eq\n      tag_5\n      jumpi\n      dup1\n      0xf2fde38b\n      eq\n      tag_6\n      jumpi\n    tag_2:\n      0x00\n      dup1\n      revert\n        /* \"contracts/ownable_commented.sol\":1540:1645  function isOwner(address inAddress) public view returns (bool) {... */\n    tag_3:\n      tag_7\n      0x04\n      dup1\n      calldatasize\n      sub\n      dup2\n      add\n      swap1\n      tag_8\n      swap2\n      swap1\n      tag_9\n      jump\t// in\n    tag_8:\n      tag_10\n      jump\t// in\n    tag_7:\n      mload(0x40)\n      tag_11\n      swap2\n      swap1\n      tag_12\n      jump\t// in\n    tag_11:\n      mload(0x40)\n      dup1\n      swap2\n      sub\n      swap1\n      return\n        /* \"contracts/ownable_commented.sol\":2089:2377  function renounceOwnership() public onlyOwner {... */\n    tag_4:\n      tag_13\n      tag_14\n      jump\t// in\n    tag_13:\n      stop\n        /* \"contracts/ownable_commented.sol\":395:415  address public owner */\n    tag_5:\n      tag_15\n      tag_16\n      jump\t// in\n    tag_15:\n      mload(0x40)\n      tag_17\n      swap2\n      swap1\n      tag_18\n      jump\t// in\n    tag_17:\n      mload(0x40)\n      dup1\n      swap2\n      sub\n      swap1\n      return\n        /* \"contracts/ownable_commented.sol\":1716:2018  function transferOwnership(address newOwner) public onlyOwner {... */\n    tag_6:\n      tag_19\n      0x04\n      dup1\n      calldatasize\n      sub\n      dup2\n      add\n      swap1\n      tag_20\n      swap2\n      swap1\n      tag_9\n      jump\t// in\n    tag_20:\n      tag_21\n      jump\t// in\n    tag_19:\n      stop\n        /* \"contracts/ownable_commented.sol\":1540:1645  function isOwner(address inAddress) public view returns (bool) {... */\n    tag_10:\n        /* \"contracts/ownable_commented.sol\":1597:1601  bool */\n      0x00\n        /* \"contracts/ownable_commented.sol\":1633:1638  owner */\n      dup1\n      0x00\n      swap1\n      sload\n      swap1\n      0x0100\n      exp\n      swap1\n      div\n      0xffffffffffffffffffffffffffffffffffffffff\n      and\n        /* \"contracts/ownable_commented.sol\":1620:1638  inAddress == owner */\n      0xffffffffffffffffffffffffffffffffffffffff\n      and\n        /* \"contracts/ownable_commented.sol\":1620:1629  inAddress */\n      dup3\n        /* \"contracts/ownable_commented.sol\":1620:1638  inAddress == owner */\n      0xffffffffffffffffffffffffffffffffffffffff\n      and\n      eq\n        /* \"contracts/ownable_commented.sol\":1613:1638  return inAddress == owner */\n      swap1\n      pop\n        /* \"contracts/ownable_commented.sol\":1540:1645  function isOwner(address inAddress) public view returns (bool) {... */\n      swap2\n      swap1\n      pop\n      jump\t// out\n        /* \"contracts/ownable_commented.sol\":2089:2377  function renounceOwnership() public onlyOwner {... */\n    tag_14:\n        /* \"contracts/ownable_commented.sol\":1064:1084  _isOwner(msg.sender) */\n      tag_24\n        /* \"contracts/ownable_commented.sol\":1073:1083  msg.sender */\n      caller\n        /* \"contracts/ownable_commented.sol\":1064:1072  _isOwner */\n      tag_25\n        /* \"contracts/ownable_commented.sol\":1064:1084  _isOwner(msg.sender) */\n      jump\t// in\n    tag_24:\n        /* \"contracts/ownable_commented.sol\":1059:1224  if (!_isOwner(msg.sender)) {... */\n      tag_26\n      jumpi\n        /* \"contracts/ownable_commented.sol\":1151:1161  msg.sender */\n      caller\n        /* \"contracts/ownable_commented.sol\":1193:1198  owner */\n      0x00\n      dup1\n      sload\n      swap1\n      0x0100\n      exp\n      swap1\n      div\n      0xffffffffffffffffffffffffffffffffffffffff\n      and\n        /* \"contracts/ownable_commented.sol\":1107:1213  notOwner({... */\n      mload(0x40)\n      0x983eefdf00000000000000000000000000000000000000000000000000000000\n      dup2\n      mstore\n      0x04\n      add\n      tag_27\n      swap3\n      swap2\n      swap1\n      tag_28\n      jump\t// in\n    tag_27:\n      mload(0x40)\n      dup1\n      swap2\n      sub\n      swap1\n      revert\n        /* \"contracts/ownable_commented.sol\":1059:1224  if (!_isOwner(msg.sender)) {... */\n    tag_26:\n        /* \"contracts/ownable_commented.sol\":2150:2201  isOwner(0x0000000000000000000000000000000000000000) */\n      tag_30\n        /* \"contracts/ownable_commented.sol\":2158:2200  0x0000000000000000000000000000000000000000 */\n      0x00\n        /* \"contracts/ownable_commented.sol\":2150:2157  isOwner */\n      tag_10\n        /* \"contracts/ownable_commented.sol\":2150:2201  isOwner(0x0000000000000000000000000000000000000000) */\n      jump\t// in\n    tag_30:\n        /* \"contracts/ownable_commented.sol\":2145:2371  if (!isOwner(0x0000000000000000000000000000000000000000)) {... */\n      tag_31\n      jumpi\n        /* \"contracts/ownable_commented.sol\":2217:2278  transferOwnership(0x0000000000000000000000000000000000000000) */\n      tag_32\n        /* \"contracts/ownable_commented.sol\":2235:2277  0x0000000000000000000000000000000000000000 */\n      0x00\n        /* \"contracts/ownable_commented.sol\":2217:2234  transferOwnership */\n      tag_21\n        /* \"contracts/ownable_commented.sol\":2217:2278  transferOwnership(0x0000000000000000000000000000000000000000) */\n      jump\t// in\n    tag_32:\n        /* \"contracts/ownable_commented.sol\":2145:2371  if (!isOwner(0x0000000000000000000000000000000000000000)) {... */\n      jump(tag_33)\n    tag_31:\n        /* \"contracts/ownable_commented.sol\":2309:2360  revert(\"The ownership has already been renounced.\") */\n      mload(0x40)\n      0x08c379a000000000000000000000000000000000000000000000000000000000\n      dup2\n      mstore\n      0x04\n      add\n      tag_34\n      swap1\n      tag_35\n      jump\t// in\n    tag_34:\n      mload(0x40)\n      dup1\n      swap2\n      sub\n      swap1\n      revert\n        /* \"contracts/ownable_commented.sol\":2145:2371  if (!isOwner(0x0000000000000000000000000000000000000000)) {... */\n    tag_33:\n        /* \"contracts/ownable_commented.sol\":2089:2377  function renounceOwnership() public onlyOwner {... */\n      jump\t// out\n        /* \"contracts/ownable_commented.sol\":395:415  address public owner */\n    tag_16:\n      0x00\n      dup1\n      sload\n      swap1\n      0x0100\n      exp\n      swap1\n      div\n      0xffffffffffffffffffffffffffffffffffffffff\n      and\n      dup2\n      jump\t// out\n        /* \"contracts/ownable_commented.sol\":1716:2018  function transferOwnership(address newOwner) public onlyOwner {... */\n    tag_21:\n        /* \"contracts/ownable_commented.sol\":1064:1084  _isOwner(msg.sender) */\n      tag_37\n        /* \"contracts/ownable_commented.sol\":1073:1083  msg.sender */\n      caller\n        /* \"contracts/ownable_commented.sol\":1064:1072  _isOwner */\n      tag_25\n        /* \"contracts/ownable_commented.sol\":1064:1084  _isOwner(msg.sender) */\n      jump\t// in\n    tag_37:\n        /* \"contracts/ownable_commented.sol\":1059:1224  if (!_isOwner(msg.sender)) {... */\n      tag_38\n      jumpi\n        /* \"contracts/ownable_commented.sol\":1151:1161  msg.sender */\n      caller\n        /* \"contracts/ownable_commented.sol\":1193:1198  owner */\n      0x00\n      dup1\n      sload\n      swap1\n      0x0100\n      exp\n      swap1\n      div\n      0xffffffffffffffffffffffffffffffffffffffff\n      and\n        /* \"contracts/ownable_commented.sol\":1107:1213  notOwner({... */\n      mload(0x40)\n      0x983eefdf00000000000000000000000000000000000000000000000000000000\n      dup2\n      mstore\n      0x04\n      add\n      tag_39\n      swap3\n      swap2\n      swap1\n      tag_28\n      jump\t// in\n    tag_39:\n      mload(0x40)\n      dup1\n      swap2\n      sub\n      swap1\n      revert\n        /* \"contracts/ownable_commented.sol\":1059:1224  if (!_isOwner(msg.sender)) {... */\n    tag_38:\n        /* \"contracts/ownable_commented.sol\":1792:1810  _isOwner(newOwner) */\n      tag_41\n        /* \"contracts/ownable_commented.sol\":1801:1809  newOwner */\n      dup2\n        /* \"contracts/ownable_commented.sol\":1792:1800  _isOwner */\n      tag_25\n        /* \"contracts/ownable_commented.sol\":1792:1810  _isOwner(newOwner) */\n      jump\t// in\n    tag_41:\n        /* \"contracts/ownable_commented.sol\":1788:1891  if (_isOwner(newOwner)) {... */\n      iszero\n      tag_42\n      jumpi\n        /* \"contracts/ownable_commented.sol\":1872:1877  owner */\n      0x00\n      dup1\n      sload\n      swap1\n      0x0100\n      exp\n      swap1\n      div\n      0xffffffffffffffffffffffffffffffffffffffff\n      and\n        /* \"contracts/ownable_commented.sol\":1833:1880  transferIsAlreadyOwner({ ownerAddress: owner }) */\n      mload(0x40)\n      0x0a4e29c400000000000000000000000000000000000000000000000000000000\n      dup2\n      mstore\n      0x04\n      add\n      tag_43\n      swap2\n      swap1\n      tag_18\n      jump\t// in\n    tag_43:\n      mload(0x40)\n      dup1\n      swap2\n      sub\n      swap1\n      revert\n        /* \"contracts/ownable_commented.sol\":1788:1891  if (_isOwner(newOwner)) {... */\n    tag_42:\n        /* \"contracts/ownable_commented.sol\":1900:1921  address previousOwner */\n      0x00\n        /* \"contracts/ownable_commented.sol\":1924:1929  owner */\n      dup1\n      0x00\n      swap1\n      sload\n      swap1\n      0x0100\n      exp\n      swap1\n      div\n      0xffffffffffffffffffffffffffffffffffffffff\n      and\n        /* \"contracts/ownable_commented.sol\":1900:1929  address previousOwner = owner */\n      swap1\n      pop\n        /* \"contracts/ownable_commented.sol\":1947:1955  newOwner */\n      dup2\n        /* \"contracts/ownable_commented.sol\":1939:1944  owner */\n      0x00\n      dup1\n        /* \"contracts/ownable_commented.sol\":1939:1955  owner = newOwner */\n      0x0100\n      exp\n      dup2\n      sload\n      dup2\n      0xffffffffffffffffffffffffffffffffffffffff\n      mul\n      not\n      and\n      swap1\n      dup4\n      0xffffffffffffffffffffffffffffffffffffffff\n      and\n      mul\n      or\n      swap1\n      sstore\n      pop\n        /* \"contracts/ownable_commented.sol\":1970:2011  onTransferOwnership(previousOwner, owner) */\n      0x4153d7514911f7e2c139015099f1a2bdae47cb491bc80a1b7b2489d26b0131fe\n        /* \"contracts/ownable_commented.sol\":1990:2003  previousOwner */\n      dup2\n        /* \"contracts/ownable_commented.sol\":2005:2010  owner */\n      0x00\n      dup1\n      sload\n      swap1\n      0x0100\n      exp\n      swap1\n      div\n      0xffffffffffffffffffffffffffffffffffffffff\n      and\n        /* \"contracts/ownable_commented.sol\":1970:2011  onTransferOwnership(previousOwner, owner) */\n      mload(0x40)\n      tag_44\n      swap3\n      swap2\n      swap1\n      tag_28\n      jump\t// in\n    tag_44:\n      mload(0x40)\n      dup1\n      swap2\n      sub\n      swap1\n      log1\n        /* \"contracts/ownable_commented.sol\":1778:2018  {... */\n      pop\n        /* \"contracts/ownable_commented.sol\":1716:2018  function transferOwnership(address newOwner) public onlyOwner {... */\n      pop\n      jump\t// out\n        /* \"contracts/ownable_commented.sol\":1358:1466  function _isOwner(address inAddress) internal view returns (bool) {... */\n    tag_25:\n        /* \"contracts/ownable_commented.sol\":1418:1422  bool */\n      0x00\n        /* \"contracts/ownable_commented.sol\":1454:1459  owner */\n      dup1\n      0x00\n      swap1\n      sload\n      swap1\n      0x0100\n      exp\n      swap1\n      div\n      0xffffffffffffffffffffffffffffffffffffffff\n      and\n        /* \"contracts/ownable_commented.sol\":1441:1459  inAddress == owner */\n      0xffffffffffffffffffffffffffffffffffffffff\n      and\n        /* \"contracts/ownable_commented.sol\":1441:1450  inAddress */\n      dup3\n        /* \"contracts/ownable_commented.sol\":1441:1459  inAddress == owner */\n      0xffffffffffffffffffffffffffffffffffffffff\n      and\n      eq\n        /* \"contracts/ownable_commented.sol\":1434:1459  return inAddress == owner */\n      swap1\n      pop\n        /* \"contracts/ownable_commented.sol\":1358:1466  function _isOwner(address inAddress) internal view returns (bool) {... */\n      swap2\n      swap1\n      pop\n      jump\t// out\n        /* \"#utility.yul\":88:205   */\n    tag_47:\n        /* \"#utility.yul\":197:198   */\n      0x00\n        /* \"#utility.yul\":194:195   */\n      dup1\n        /* \"#utility.yul\":187:199   */\n      revert\n        /* \"#utility.yul\":334:460   */\n    tag_49:\n        /* \"#utility.yul\":371:378   */\n      0x00\n        /* \"#utility.yul\":411:453   */\n      0xffffffffffffffffffffffffffffffffffffffff\n        /* \"#utility.yul\":404:409   */\n      dup3\n        /* \"#utility.yul\":400:454   */\n      and\n        /* \"#utility.yul\":389:454   */\n      swap1\n      pop\n        /* \"#utility.yul\":334:460   */\n      swap2\n      swap1\n      pop\n      jump\t// out\n        /* \"#utility.yul\":466:562   */\n    tag_50:\n        /* \"#utility.yul\":503:510   */\n      0x00\n        /* \"#utility.yul\":532:556   */\n      tag_65\n        /* \"#utility.yul\":550:555   */\n      dup3\n        /* \"#utility.yul\":532:556   */\n      tag_49\n      jump\t// in\n    tag_65:\n        /* \"#utility.yul\":521:556   */\n      swap1\n      pop\n        /* \"#utility.yul\":466:562   */\n      swap2\n      swap1\n      pop\n      jump\t// out\n        /* \"#utility.yul\":568:690   */\n    tag_51:\n        /* \"#utility.yul\":641:665   */\n      tag_67\n        /* \"#utility.yul\":659:664   */\n      dup2\n        /* \"#utility.yul\":641:665   */\n      tag_50\n      jump\t// in\n    tag_67:\n        /* \"#utility.yul\":634:639   */\n      dup2\n        /* \"#utility.yul\":631:666   */\n      eq\n        /* \"#utility.yul\":621:684   */\n      tag_68\n      jumpi\n        /* \"#utility.yul\":680:681   */\n      0x00\n        /* \"#utility.yul\":677:678   */\n      dup1\n        /* \"#utility.yul\":670:682   */\n      revert\n        /* \"#utility.yul\":621:684   */\n    tag_68:\n        /* \"#utility.yul\":568:690   */\n      pop\n      jump\t// out\n        /* \"#utility.yul\":696:835   */\n    tag_52:\n        /* \"#utility.yul\":742:747   */\n      0x00\n        /* \"#utility.yul\":780:786   */\n      dup2\n        /* \"#utility.yul\":767:787   */\n      calldataload\n        /* \"#utility.yul\":758:787   */\n      swap1\n      pop\n        /* \"#utility.yul\":796:829   */\n      tag_70\n        /* \"#utility.yul\":823:828   */\n      dup2\n        /* \"#utility.yul\":796:829   */\n      tag_51\n      jump\t// in\n    tag_70:\n        /* \"#utility.yul\":696:835   */\n      swap3\n      swap2\n      pop\n      pop\n      jump\t// out\n        /* \"#utility.yul\":841:1170   */\n    tag_9:\n        /* \"#utility.yul\":900:906   */\n      0x00\n        /* \"#utility.yul\":949:951   */\n      0x20\n        /* \"#utility.yul\":937:946   */\n      dup3\n        /* \"#utility.yul\":928:935   */\n      dup5\n        /* \"#utility.yul\":924:947   */\n      sub\n        /* \"#utility.yul\":920:952   */\n      slt\n        /* \"#utility.yul\":917:1036   */\n      iszero\n      tag_72\n      jumpi\n        /* \"#utility.yul\":955:1034   */\n      tag_73\n      tag_47\n      jump\t// in\n    tag_73:\n        /* \"#utility.yul\":917:1036   */\n    tag_72:\n        /* \"#utility.yul\":1075:1076   */\n      0x00\n        /* \"#utility.yul\":1100:1153   */\n      tag_74\n        /* \"#utility.yul\":1145:1152   */\n      dup5\n        /* \"#utility.yul\":1136:1142   */\n      dup3\n        /* \"#utility.yul\":1125:1134   */\n      dup6\n        /* \"#utility.yul\":1121:1143   */\n      add\n        /* \"#utility.yul\":1100:1153   */\n      tag_52\n      jump\t// in\n    tag_74:\n        /* \"#utility.yul\":1090:1153   */\n      swap2\n      pop\n        /* \"#utility.yul\":1046:1163   */\n      pop\n        /* \"#utility.yul\":841:1170   */\n      swap3\n      swap2\n      pop\n      pop\n      jump\t// out\n        /* \"#utility.yul\":1176:1266   */\n    tag_53:\n        /* \"#utility.yul\":1210:1217   */\n      0x00\n        /* \"#utility.yul\":1253:1258   */\n      dup2\n        /* \"#utility.yul\":1246:1259   */\n      iszero\n        /* \"#utility.yul\":1239:1260   */\n      iszero\n        /* \"#utility.yul\":1228:1260   */\n      swap1\n      pop\n        /* \"#utility.yul\":1176:1266   */\n      swap2\n      swap1\n      pop\n      jump\t// out\n        /* \"#utility.yul\":1272:1381   */\n    tag_54:\n        /* \"#utility.yul\":1353:1374   */\n      tag_77\n        /* \"#utility.yul\":1368:1373   */\n      dup2\n        /* \"#utility.yul\":1353:1374   */\n      tag_53\n      jump\t// in\n    tag_77:\n        /* \"#utility.yul\":1348:1351   */\n      dup3\n        /* \"#utility.yul\":1341:1375   */\n      mstore\n        /* \"#utility.yul\":1272:1381   */\n      pop\n      pop\n      jump\t// out\n        /* \"#utility.yul\":1387:1597   */\n    tag_12:\n        /* \"#utility.yul\":1474:1478   */\n      0x00\n        /* \"#utility.yul\":1512:1514   */\n      0x20\n        /* \"#utility.yul\":1501:1510   */\n      dup3\n        /* \"#utility.yul\":1497:1515   */\n      add\n        /* \"#utility.yul\":1489:1515   */\n      swap1\n      pop\n        /* \"#utility.yul\":1525:1590   */\n      tag_79\n        /* \"#utility.yul\":1587:1588   */\n      0x00\n        /* \"#utility.yul\":1576:1585   */\n      dup4\n        /* \"#utility.yul\":1572:1589   */\n      add\n        /* \"#utility.yul\":1563:1569   */\n      dup5\n        /* \"#utility.yul\":1525:1590   */\n      tag_54\n      jump\t// in\n    tag_79:\n        /* \"#utility.yul\":1387:1597   */\n      swap3\n      swap2\n      pop\n      pop\n      jump\t// out\n        /* \"#utility.yul\":1603:1721   */\n    tag_55:\n        /* \"#utility.yul\":1690:1714   */\n      tag_81\n        /* \"#utility.yul\":1708:1713   */\n      dup2\n        /* \"#utility.yul\":1690:1714   */\n      tag_50\n      jump\t// in\n    tag_81:\n        /* \"#utility.yul\":1685:1688   */\n      dup3\n        /* \"#utility.yul\":1678:1715   */\n      mstore\n        /* \"#utility.yul\":1603:1721   */\n      pop\n      pop\n      jump\t// out\n        /* \"#utility.yul\":1727:1949   */\n    tag_18:\n        /* \"#utility.yul\":1820:1824   */\n      0x00\n        /* \"#utility.yul\":1858:1860   */\n      0x20\n        /* \"#utility.yul\":1847:1856   */\n      dup3\n        /* \"#utility.yul\":1843:1861   */\n      add\n        /* \"#utility.yul\":1835:1861   */\n      swap1\n      pop\n        /* \"#utility.yul\":1871:1942   */\n      tag_83\n        /* \"#utility.yul\":1939:1940   */\n      0x00\n        /* \"#utility.yul\":1928:1937   */\n      dup4\n        /* \"#utility.yul\":1924:1941   */\n      add\n        /* \"#utility.yul\":1915:1921   */\n      dup5\n        /* \"#utility.yul\":1871:1942   */\n      tag_55\n      jump\t// in\n    tag_83:\n        /* \"#utility.yul\":1727:1949   */\n      swap3\n      swap2\n      pop\n      pop\n      jump\t// out\n        /* \"#utility.yul\":1955:2287   */\n    tag_28:\n        /* \"#utility.yul\":2076:2080   */\n      0x00\n        /* \"#utility.yul\":2114:2116   */\n      0x40\n        /* \"#utility.yul\":2103:2112   */\n      dup3\n        /* \"#utility.yul\":2099:2117   */\n      add\n        /* \"#utility.yul\":2091:2117   */\n      swap1\n      pop\n        /* \"#utility.yul\":2127:2198   */\n      tag_85\n        /* \"#utility.yul\":2195:2196   */\n      0x00\n        /* \"#utility.yul\":2184:2193   */\n      dup4\n        /* \"#utility.yul\":2180:2197   */\n      add\n        /* \"#utility.yul\":2171:2177   */\n      dup6\n        /* \"#utility.yul\":2127:2198   */\n      tag_55\n      jump\t// in\n    tag_85:\n        /* \"#utility.yul\":2208:2280   */\n      tag_86\n        /* \"#utility.yul\":2276:2278   */\n      0x20\n        /* \"#utility.yul\":2265:2274   */\n      dup4\n        /* \"#utility.yul\":2261:2279   */\n      add\n        /* \"#utility.yul\":2252:2258   */\n      dup5\n        /* \"#utility.yul\":2208:2280   */\n      tag_55\n      jump\t// in\n    tag_86:\n        /* \"#utility.yul\":1955:2287   */\n      swap4\n      swap3\n      pop\n      pop\n      pop\n      jump\t// out\n        /* \"#utility.yul\":2293:2462   */\n    tag_56:\n        /* \"#utility.yul\":2377:2388   */\n      0x00\n        /* \"#utility.yul\":2411:2417   */\n      dup3\n        /* \"#utility.yul\":2406:2409   */\n      dup3\n        /* \"#utility.yul\":2399:2418   */\n      mstore\n        /* \"#utility.yul\":2451:2455   */\n      0x20\n        /* \"#utility.yul\":2446:2449   */\n      dup3\n        /* \"#utility.yul\":2442:2456   */\n      add\n        /* \"#utility.yul\":2427:2456   */\n      swap1\n      pop\n        /* \"#utility.yul\":2293:2462   */\n      swap3\n      swap2\n      pop\n      pop\n      jump\t// out\n        /* \"#utility.yul\":2468:2696   */\n    tag_57:\n        /* \"#utility.yul\":2608:2642   */\n      0x546865206f776e6572736869702068617320616c7265616479206265656e2072\n        /* \"#utility.yul\":2604:2605   */\n      0x00\n        /* \"#utility.yul\":2596:2602   */\n      dup3\n        /* \"#utility.yul\":2592:2606   */\n      add\n        /* \"#utility.yul\":2585:2643   */\n      mstore\n        /* \"#utility.yul\":2677:2688   */\n      0x656e6f756e6365642e0000000000000000000000000000000000000000000000\n        /* \"#utility.yul\":2672:2674   */\n      0x20\n        /* \"#utility.yul\":2664:2670   */\n      dup3\n        /* \"#utility.yul\":2660:2675   */\n      add\n        /* \"#utility.yul\":2653:2689   */\n      mstore\n        /* \"#utility.yul\":2468:2696   */\n      pop\n      jump\t// out\n        /* \"#utility.yul\":2702:3068   */\n    tag_58:\n        /* \"#utility.yul\":2844:2847   */\n      0x00\n        /* \"#utility.yul\":2865:2932   */\n      tag_90\n        /* \"#utility.yul\":2929:2931   */\n      0x29\n        /* \"#utility.yul\":2924:2927   */\n      dup4\n        /* \"#utility.yul\":2865:2932   */\n      tag_56\n      jump\t// in\n    tag_90:\n        /* \"#utility.yul\":2858:2932   */\n      swap2\n      pop\n        /* \"#utility.yul\":2941:3034   */\n      tag_91\n        /* \"#utility.yul\":3030:3033   */\n      dup3\n        /* \"#utility.yul\":2941:3034   */\n      tag_57\n      jump\t// in\n    tag_91:\n        /* \"#utility.yul\":3059:3061   */\n      0x40\n        /* \"#utility.yul\":3054:3057   */\n      dup3\n        /* \"#utility.yul\":3050:3062   */\n      add\n        /* \"#utility.yul\":3043:3062   */\n      swap1\n      pop\n        /* \"#utility.yul\":2702:3068   */\n      swap2\n      swap1\n      pop\n      jump\t// out\n        /* \"#utility.yul\":3074:3493   */\n    tag_35:\n        /* \"#utility.yul\":3240:3244   */\n      0x00\n        /* \"#utility.yul\":3278:3280   */\n      0x20\n        /* \"#utility.yul\":3267:3276   */\n      dup3\n        /* \"#utility.yul\":3263:3281   */\n      add\n        /* \"#utility.yul\":3255:3281   */\n      swap1\n      pop\n        /* \"#utility.yul\":3327:3336   */\n      dup2\n        /* \"#utility.yul\":3321:3325   */\n      dup2\n        /* \"#utility.yul\":3317:3337   */\n      sub\n        /* \"#utility.yul\":3313:3314   */\n      0x00\n        /* \"#utility.yul\":3302:3311   */\n      dup4\n        /* \"#utility.yul\":3298:3315   */\n      add\n        /* \"#utility.yul\":3291:3338   */\n      mstore\n        /* \"#utility.yul\":3355:3486   */\n      tag_93\n        /* \"#utility.yul\":3481:3485   */\n      dup2\n        /* \"#utility.yul\":3355:3486   */\n      tag_58\n      jump\t// in\n    tag_93:\n        /* \"#utility.yul\":3347:3486   */\n      swap1\n      pop\n        /* \"#utility.yul\":3074:3493   */\n      swap2\n      swap1\n      pop\n      jump\t// out\n\n    auxdata: 0xa26469706673582212206c858962bd06bf820aae0188d4afd65063bab417ee9cb81f91cf0e6b308cb33764736f6c63430008120033\n}\n",
				"bytecode": {
					"linkReferences": {},
					"object": "608060405234801561001057600080fd5b50336000806101000a81548173ffffffffffffffffffffffffffffffffffffffff021916908373ffffffffffffffffffffffffffffffffffffffff1602179055506105ed806100606000396000f3fe608060405234801561001057600080fd5b506004361061004c5760003560e01c80632f54bf6e14610051578063715018a6146100815780638da5cb5b1461008b578063f2fde38b146100a9575b600080fd5b61006b6004803603810190610066919061045e565b6100c5565b60405161007891906104a6565b60405180910390f35b61008961011e565b005b6100936101e4565b6040516100a091906104d0565b60405180910390f35b6100c360048036038101906100be919061045e565b610208565b005b60008060009054906101000a900473ffffffffffffffffffffffffffffffffffffffff1673ffffffffffffffffffffffffffffffffffffffff168273ffffffffffffffffffffffffffffffffffffffff16149050919050565b610127336103a2565b61018a573360008054906101000a900473ffffffffffffffffffffffffffffffffffffffff166040517f983eefdf0000000000000000000000000000000000000000000000000000000081526004016101819291906104eb565b60405180910390fd5b61019460006100c5565b6101a7576101a26000610208565b6101e2565b6040517f08c379a00000000000000000000000000000000000000000000000000000000081526004016101d990610597565b60405180910390fd5b565b60008054906101000a900473ffffffffffffffffffffffffffffffffffffffff1681565b610211336103a2565b610274573360008054906101000a900473ffffffffffffffffffffffffffffffffffffffff166040517f983eefdf00000000000000000000000000000000000000000000000000000000815260040161026b9291906104eb565b60405180910390fd5b61027d816103a2565b156102df5760008054906101000a900473ffffffffffffffffffffffffffffffffffffffff166040517f0a4e29c40000000000000000000000000000000000000000000000000000000081526004016102d691906104d0565b60405180910390fd5b60008060009054906101000a900473ffffffffffffffffffffffffffffffffffffffff169050816000806101000a81548173ffffffffffffffffffffffffffffffffffffffff021916908373ffffffffffffffffffffffffffffffffffffffff1602179055507f4153d7514911f7e2c139015099f1a2bdae47cb491bc80a1b7b2489d26b0131fe8160008054906101000a900473ffffffffffffffffffffffffffffffffffffffff166040516103969291906104eb565b60405180910390a15050565b60008060009054906101000a900473ffffffffffffffffffffffffffffffffffffffff1673ffffffffffffffffffffffffffffffffffffffff168273ffffffffffffffffffffffffffffffffffffffff16149050919050565b600080fd5b600073ffffffffffffffffffffffffffffffffffffffff82169050919050565b600061042b82610400565b9050919050565b61043b81610420565b811461044657600080fd5b50565b60008135905061045881610432565b92915050565b600060208284031215610474576104736103fb565b5b600061048284828501610449565b91505092915050565b60008115159050919050565b6104a08161048b565b82525050565b60006020820190506104bb6000830184610497565b92915050565b6104ca81610420565b82525050565b60006020820190506104e560008301846104c1565b92915050565b600060408201905061050060008301856104c1565b61050d60208301846104c1565b9392505050565b600082825260208201905092915050565b7f546865206f776e6572736869702068617320616c7265616479206265656e207260008201527f656e6f756e6365642e0000000000000000000000000000000000000000000000602082015250565b6000610581602983610514565b915061058c82610525565b604082019050919050565b600060208201905081810360008301526105b081610574565b905091905056fea26469706673582212206c858962bd06bf820aae0188d4afd65063bab417ee9cb81f91cf0e6b308cb33764736f6c63430008120033",
					"opcodes": "PUSH1 0x80 PUSH1 0x40 MSTORE CALLVALUE DUP1 ISZERO PUSH2 0x10 JUMPI PUSH1 0x0 DUP1 REVERT JUMPDEST POP CALLER PUSH1 0x0 DUP1 PUSH2 0x100 EXP DUP2 SLOAD DUP2 PUSH20 0xFFFFFFFFFFFFFFFFFFFFFFFFFFFFFFFFFFFFFFFF MUL NOT AND SWAP1 DUP4 PUSH20 0xFFFFFFFFFFFFFFFFFFFFFFFFFFFFFFFFFFFFFFFF AND MUL OR SWAP1 SSTORE POP PUSH2 0x5ED DUP1 PUSH2 0x60 PUSH1 0x0 CODECOPY PUSH1 0x0 RETURN INVALID PUSH1 0x80 PUSH1 0x40 MSTORE CALLVALUE DUP1 ISZERO PUSH2 0x10 JUMPI PUSH1 0x0 DUP1 REVERT JUMPDEST POP PUSH1 0x4 CALLDATASIZE LT PUSH2 0x4C JUMPI PUSH1 0x0 CALLDATALOAD PUSH1 0xE0 SHR DUP1 PUSH4 0x2F54BF6E EQ PUSH2 0x51 JUMPI DUP1 PUSH4 0x715018A6 EQ PUSH2 0x81 JUMPI DUP1 PUSH4 0x8DA5CB5B EQ PUSH2 0x8B JUMPI DUP1 PUSH4 0xF2FDE38B EQ PUSH2 0xA9 JUMPI JUMPDEST PUSH1 0x0 DUP1 REVERT JUMPDEST PUSH2 0x6B PUSH1 0x4 DUP1 CALLDATASIZE SUB DUP2 ADD SWAP1 PUSH2 0x66 SWAP2 SWAP1 PUSH2 0x45E JUMP JUMPDEST PUSH2 0xC5 JUMP JUMPDEST PUSH1 0x40 MLOAD PUSH2 0x78 SWAP2 SWAP1 PUSH2 0x4A6 JUMP JUMPDEST PUSH1 0x40 MLOAD DUP1 SWAP2 SUB SWAP1 RETURN JUMPDEST PUSH2 0x89 PUSH2 0x11E JUMP JUMPDEST STOP JUMPDEST PUSH2 0x93 PUSH2 0x1E4 JUMP JUMPDEST PUSH1 0x40 MLOAD PUSH2 0xA0 SWAP2 SWAP1 PUSH2 0x4D0 JUMP JUMPDEST PUSH1 0x40 MLOAD DUP1 SWAP2 SUB SWAP1 RETURN JUMPDEST PUSH2 0xC3 PUSH1 0x4 DUP1 CALLDATASIZE SUB DUP2 ADD SWAP1 PUSH2 0xBE SWAP2 SWAP1 PUSH2 0x45E JUMP JUMPDEST PUSH2 0x208 JUMP JUMPDEST STOP JUMPDEST PUSH1 0x0 DUP1 PUSH1 0x0 SWAP1 SLOAD SWAP1 PUSH2 0x100 EXP SWAP1 DIV PUSH20 0xFFFFFFFFFFFFFFFFFFFFFFFFFFFFFFFFFFFFFFFF AND PUSH20 0xFFFFFFFFFFFFFFFFFFFFFFFFFFFFFFFFFFFFFFFF AND DUP3 PUSH20 0xFFFFFFFFFFFFFFFFFFFFFFFFFFFFFFFFFFFFFFFF AND EQ SWAP1 POP SWAP2 SWAP1 POP JUMP JUMPDEST PUSH2 0x127 CALLER PUSH2 0x3A2 JUMP JUMPDEST PUSH2 0x18A JUMPI CALLER PUSH1 0x0 DUP1 SLOAD SWAP1 PUSH2 0x100 EXP SWAP1 DIV PUSH20 0xFFFFFFFFFFFFFFFFFFFFFFFFFFFFFFFFFFFFFFFF AND PUSH1 0x40 MLOAD PUSH32 0x983EEFDF00000000000000000000000000000000000000000000000000000000 DUP2 MSTORE PUSH1 0x4 ADD PUSH2 0x181 SWAP3 SWAP2 SWAP1 PUSH2 0x4EB JUMP JUMPDEST PUSH1 0x40 MLOAD DUP1 SWAP2 SUB SWAP1 REVERT JUMPDEST PUSH2 0x194 PUSH1 0x0 PUSH2 0xC5 JUMP JUMPDEST PUSH2 0x1A7 JUMPI PUSH2 0x1A2 PUSH1 0x0 PUSH2 0x208 JUMP JUMPDEST PUSH2 0x1E2 JUMP JUMPDEST PUSH1 0x40 MLOAD PUSH32 0x8C379A000000000000000000000000000000000000000000000000000000000 DUP2 MSTORE PUSH1 0x4 ADD PUSH2 0x1D9 SWAP1 PUSH2 0x597 JUMP JUMPDEST PUSH1 0x40 MLOAD DUP1 SWAP2 SUB SWAP1 REVERT JUMPDEST JUMP JUMPDEST PUSH1 0x0 DUP1 SLOAD SWAP1 PUSH2 0x100 EXP SWAP1 DIV PUSH20 0xFFFFFFFFFFFFFFFFFFFFFFFFFFFFFFFFFFFFFFFF AND DUP2 JUMP JUMPDEST PUSH2 0x211 CALLER PUSH2 0x3A2 JUMP JUMPDEST PUSH2 0x274 JUMPI CALLER PUSH1 0x0 DUP1 SLOAD SWAP1 PUSH2 0x100 EXP SWAP1 DIV PUSH20 0xFFFFFFFFFFFFFFFFFFFFFFFFFFFFFFFFFFFFFFFF AND PUSH1 0x40 MLOAD PUSH32 0x983EEFDF00000000000000000000000000000000000000000000000000000000 DUP2 MSTORE PUSH1 0x4 ADD PUSH2 0x26B SWAP3 SWAP2 SWAP1 PUSH2 0x4EB JUMP JUMPDEST PUSH1 0x40 MLOAD DUP1 SWAP2 SUB SWAP1 REVERT JUMPDEST PUSH2 0x27D DUP2 PUSH2 0x3A2 JUMP JUMPDEST ISZERO PUSH2 0x2DF JUMPI PUSH1 0x0 DUP1 SLOAD SWAP1 PUSH2 0x100 EXP SWAP1 DIV PUSH20 0xFFFFFFFFFFFFFFFFFFFFFFFFFFFFFFFFFFFFFFFF AND PUSH1 0x40 MLOAD PUSH32 0xA4E29C400000000000000000000000000000000000000000000000000000000 DUP2 MSTORE PUSH1 0x4 ADD PUSH2 0x2D6 SWAP2 SWAP1 PUSH2 0x4D0 JUMP JUMPDEST PUSH1 0x40 MLOAD DUP1 SWAP2 SUB SWAP1 REVERT JUMPDEST PUSH1 0x0 DUP1 PUSH1 0x0 SWAP1 SLOAD SWAP1 PUSH2 0x100 EXP SWAP1 DIV PUSH20 0xFFFFFFFFFFFFFFFFFFFFFFFFFFFFFFFFFFFFFFFF AND SWAP1 POP DUP2 PUSH1 0x0 DUP1 PUSH2 0x100 EXP DUP2 SLOAD DUP2 PUSH20 0xFFFFFFFFFFFFFFFFFFFFFFFFFFFFFFFFFFFFFFFF MUL NOT AND SWAP1 DUP4 PUSH20 0xFFFFFFFFFFFFFFFFFFFFFFFFFFFFFFFFFFFFFFFF AND MUL OR SWAP1 SSTORE POP PUSH32 0x4153D7514911F7E2C139015099F1A2BDAE47CB491BC80A1B7B2489D26B0131FE DUP2 PUSH1 0x0 DUP1 SLOAD SWAP1 PUSH2 0x100 EXP SWAP1 DIV PUSH20 0xFFFFFFFFFFFFFFFFFFFFFFFFFFFFFFFFFFFFFFFF AND PUSH1 0x40 MLOAD PUSH2 0x396 SWAP3 SWAP2 SWAP1 PUSH2 0x4EB JUMP JUMPDEST PUSH1 0x40 MLOAD DUP1 SWAP2 SUB SWAP1 LOG1 POP POP JUMP JUMPDEST PUSH1 0x0 DUP1 PUSH1 0x0 SWAP1 SLOAD SWAP1 PUSH2 0x100 EXP SWAP1 DIV PUSH20 0xFFFFFFFFFFFFFFFFFFFFFFFFFFFFFFFFFFFFFFFF AND PUSH20 0xFFFFFFFFFFFFFFFFFFFFFFFFFFFFFFFFFFFFFFFF AND DUP3 PUSH20 0xFFFFFFFFFFFFFFFFFFFFFFFFFFFFFFFFFFFFFFFF AND EQ SWAP1 POP SWAP2 SWAP1 POP JUMP JUMPDEST PUSH1 0x0 DUP1 REVERT JUMPDEST PUSH1 0x0 PUSH20 0xFFFFFFFFFFFFFFFFFFFFFFFFFFFFFFFFFFFFFFFF DUP3 AND SWAP1 POP SWAP2 SWAP1 POP JUMP JUMPDEST PUSH1 0x0 PUSH2 0x42B DUP3 PUSH2 0x400 JUMP JUMPDEST SWAP1 POP SWAP2 SWAP1 POP JUMP JUMPDEST PUSH2 0x43B DUP2 PUSH2 0x420 JUMP JUMPDEST DUP2 EQ PUSH2 0x446 JUMPI PUSH1 0x0 DUP1 REVERT JUMPDEST POP JUMP JUMPDEST PUSH1 0x0 DUP2 CALLDATALOAD SWAP1 POP PUSH2 0x458 DUP2 PUSH2 0x432 JUMP JUMPDEST SWAP3 SWAP2 POP POP JUMP JUMPDEST PUSH1 0x0 PUSH1 0x20 DUP3 DUP5 SUB SLT ISZERO PUSH2 0x474 JUMPI PUSH2 0x473 PUSH2 0x3FB JUMP JUMPDEST JUMPDEST PUSH1 0x0 PUSH2 0x482 DUP5 DUP3 DUP6 ADD PUSH2 0x449 JUMP JUMPDEST SWAP2 POP POP SWAP3 SWAP2 POP POP JUMP JUMPDEST PUSH1 0x0 DUP2 ISZERO ISZERO SWAP1 POP SWAP2 SWAP1 POP JUMP JUMPDEST PUSH2 0x4A0 DUP2 PUSH2 0x48B JUMP JUMPDEST DUP3 MSTORE POP POP JUMP JUMPDEST PUSH1 0x0 PUSH1 0x20 DUP3 ADD SWAP1 POP PUSH2 0x4BB PUSH1 0x0 DUP4 ADD DUP5 PUSH2 0x497 JUMP JUMPDEST SWAP3 SWAP2 POP POP JUMP JUMPDEST PUSH2 0x4CA DUP2 PUSH2 0x420 JUMP JUMPDEST DUP3 MSTORE POP POP JUMP JUMPDEST PUSH1 0x0 PUSH1 0x20 DUP3 ADD SWAP1 POP PUSH2 0x4E5 PUSH1 0x0 DUP4 ADD DUP5 PUSH2 0x4C1 JUMP JUMPDEST SWAP3 SWAP2 POP POP JUMP JUMPDEST PUSH1 0x0 PUSH1 0x40 DUP3 ADD SWAP1 POP PUSH2 0x500 PUSH1 0x0 DUP4 ADD DUP6 PUSH2 0x4C1 JUMP JUMPDEST PUSH2 0x50D PUSH1 0x20 DUP4 ADD DUP5 PUSH2 0x4C1 JUMP JUMPDEST SWAP4 SWAP3 POP POP POP JUMP JUMPDEST PUSH1 0x0 DUP3 DUP3 MSTORE PUSH1 0x20 DUP3 ADD SWAP1 POP SWAP3 SWAP2 POP POP JUMP JUMPDEST PUSH32 0x546865206F776E6572736869702068617320616C7265616479206265656E2072 PUSH1 0x0 DUP3 ADD MSTORE PUSH32 0x656E6F756E6365642E0000000000000000000000000000000000000000000000 PUSH1 0x20 DUP3 ADD MSTORE POP JUMP JUMPDEST PUSH1 0x0 PUSH2 0x581 PUSH1 0x29 DUP4 PUSH2 0x514 JUMP JUMPDEST SWAP2 POP PUSH2 0x58C DUP3 PUSH2 0x525 JUMP JUMPDEST PUSH1 0x40 DUP3 ADD SWAP1 POP SWAP2 SWAP1 POP JUMP JUMPDEST PUSH1 0x0 PUSH1 0x20 DUP3 ADD SWAP1 POP DUP2 DUP2 SUB PUSH1 0x0 DUP4 ADD MSTORE PUSH2 0x5B0 DUP2 PUSH2 0x574 JUMP JUMPDEST SWAP1 POP SWAP2 SWAP1 POP JUMP INVALID LOG2 PUSH5 0x6970667358 0x22 SLT KECCAK256 PUSH13 0x858962BD06BF820AAE0188D4AF 0xD6 POP PUSH4 0xBAB417EE SWAP13 0xB8 0x1F SWAP2 0xCF 0xE PUSH12 0x308CB33764736F6C63430008 SLT STOP CALLER "
				},
				"gasEstimates": {
					"creation": {
						"codeDepositCost": "303400",
						"executionCost": "24609",
						"totalCost": "328009"
					},
					"external": {
						"isOwner(address)": "2789",
						"owner()": "2533",
						"renounceOwnership()": "infinite",
						"transferOwnership(address)": "infinite"
					},
					"internal": {
						"_isOwner(address)": "2182"
					}
				},
				"methodIdentifiers": {
					"isOwner(address)": "2f54bf6e",
					"owner()": "8da5cb5b",
					"renounceOwnership()": "715018a6",
					"transferOwnership(address)": "f2fde38b"
				}
			},
			"storageLayout": {
				"storage": [
					{
						"astId": 5,
						"contract": "contracts/ownable_commented.sol:Ownable",
						"label": "owner",
						"offset": 0,
						"slot": "0",
						"type": "t_address"
					}
				],
				"types": {
					"t_address": {
						"encoding": "inplace",
						"label": "address",
						"numberOfBytes": "20"
					}
				}
			},
			"userdoc": {
				"kind": "user",
				"methods": {},
				"version": 1
			}
		}
	}
}