{
	"data": {
		"bytecode": {
			"linkReferences": {},
			"object": "60806040526040518060400160405280600e81526020017f4269616f71696e672050616e6461000000000000000000000000000000000000815250600190816200004a919062000c2c565b506040518060400160405280600681526020017f2450414e444100000000000000000000000000000000000000000000000000008152506002908162000091919062000c2c565b506009600a620000a2919062000ea3565b64174876e800620000b4919062000ef4565b600355606460038054620000c9919062000ef4565b620000d5919062000f6e565b600455606460038054620000ea919062000ef4565b620000f6919062000f6e565b600555600354600755600f600c55600f600d556001600e556001600f556003601055600360115560016012556001601355601254600e54600c546010546200013f919062000fa6565b6200014b919062000fa6565b62000157919062000fa6565b601455601354600f54600d5460115462000172919062000fa6565b6200017e919062000fa6565b6200018a919062000fa6565b60155560646016556064601a556064601b556001601d60146101000a81548160ff0219169083151502179055506001601d60156101000a81548160ff0219169083151502179055506127106019600354620001e6919062000ef4565b620001f2919062000f6e565b601e55612710601960035462000209919062000ef4565b62000215919062000f6e565b601f55601e546020556000602160016101000a81548160ff0219169083151502179055506000602160026101000a81548160ff0219169083151502179055503480156200026157600080fd5b50600062000274620009aa60201b60201c565b9050806000806101000a81548173ffffffffffffffffffffffffffffffffffffffff021916908373ffffffffffffffffffffffffffffffffffffffff1602179055508073ffffffffffffffffffffffffffffffffffffffff16600073ffffffffffffffffffffffffffffffffffffffff167f8be0079c531659141344cd1fd0a4f28419497f9722a3daafe3b4186f6b6457e060405160405180910390a3507310ed43c718714eb63d5aa57b78b54704e256024e601c60006101000a81548173ffffffffffffffffffffffffffffffffffffffff021916908373ffffffffffffffffffffffffffffffffffffffff160217905550601c60009054906101000a900473ffffffffffffffffffffffffffffffffffffffff1673ffffffffffffffffffffffffffffffffffffffff1663c45a01556040518163ffffffff1660e01b8152600401602060405180830381865afa158015620003d5573d6000803e3d6000fd5b505050506040513d601f19601f82011682018060405250810190620003fb91906200104b565b73ffffffffffffffffffffffffffffffffffffffff1663c9c6539673bb4cdb9cbd36b01bd1cbaebf2de08d9173bc095c306040518363ffffffff1660e01b81526004016200044b9291906200108e565b6020604051808303816000875af11580156200046b573d6000803e3d6000fd5b505050506040513d601f19601f820116820180604052508101906200049191906200104b565b601d60006101000a81548173ffffffffffffffffffffffffffffffffffffffff021916908373ffffffffffffffffffffffffffffffffffffffff1602179055507fffffffffffffffffffffffffffffffffffffffffffffffffffffffffffffffff600860003073ffffffffffffffffffffffffffffffffffffffff1673ffffffffffffffffffffffffffffffffffffffff1681526020019081526020016000206000601c60009054906101000a900473ffffffffffffffffffffffffffffffffffffffff1673ffffffffffffffffffffffffffffffffffffffff1673ffffffffffffffffffffffffffffffffffffffff168152602001908152602001600020819055507fffffffffffffffffffffffffffffffffffffffffffffffffffffffffffffffff600860003073ffffffffffffffffffffffffffffffffffffffff1673ffffffffffffffffffffffffffffffffffffffff16815260200190815260200160002060003373ffffffffffffffffffffffffffffffffffffffff1673ffffffffffffffffffffffffffffffffffffffff168152602001908152602001600020819055506001600b60003073ffffffffffffffffffffffffffffffffffffffff1673ffffffffffffffffffffffffffffffffffffffff16815260200190815260200160002060006101000a81548160ff0219169083151502179055506001600b6000601c60009054906101000a900473ffffffffffffffffffffffffffffffffffffffff1673ffffffffffffffffffffffffffffffffffffffff1673ffffffffffffffffffffffffffffffffffffffff16815260200190815260200160002060006101000a81548160ff0219169083151502179055506001600b6000601d60009054906101000a900473ffffffffffffffffffffffffffffffffffffffff1673ffffffffffffffffffffffffffffffffffffffff1673ffffffffffffffffffffffffffffffffffffffff16815260200190815260200160002060006101000a81548160ff0219169083151502179055506001600b60003373ffffffffffffffffffffffffffffffffffffffff1673ffffffffffffffffffffffffffffffffffffffff16815260200190815260200160002060006101000a81548160ff0219169083151502179055506001600960003373ffffffffffffffffffffffffffffffffffffffff1673ffffffffffffffffffffffffffffffffffffffff16815260200190815260200160002060006101000a81548160ff02191690831515021790555033601760006101000a81548173ffffffffffffffffffffffffffffffffffffffff021916908373ffffffffffffffffffffffffffffffffffffffff16021790555033601960006101000a81548173ffffffffffffffffffffffffffffffffffffffff021916908373ffffffffffffffffffffffffffffffffffffffff16021790555033601860006101000a81548173ffffffffffffffffffffffffffffffffffffffff021916908373ffffffffffffffffffffffffffffffffffffffff160217905550600354600660003373ffffffffffffffffffffffffffffffffffffffff1673ffffffffffffffffffffffffffffffffffffffff168152602001908152602001600020819055503373ffffffffffffffffffffffffffffffffffffffff16600073ffffffffffffffffffffffffffffffffffffffff167fddf252ad1be2c89b69c2b068fc378daa952ba7f163c4a11628f55a4df523b3ef6003546040516200099c9190620010cc565b60405180910390a3620010e9565b600033905090565b600081519050919050565b7f4e487b7100000000000000000000000000000000000000000000000000000000600052604160045260246000fd5b7f4e487b7100000000000000000000000000000000000000000000000000000000600052602260045260246000fd5b6000600282049050600182168062000a3457607f821691505b60208210810362000a4a5762000a49620009ec565b5b50919050565b60008190508160005260206000209050919050565b60006020601f8301049050919050565b600082821b905092915050565b60006008830262000ab47fffffffffffffffffffffffffffffffffffffffffffffffffffffffffffffffff8262000a75565b62000ac0868362000a75565b95508019841693508086168417925050509392505050565b6000819050919050565b6000819050919050565b600062000b0d62000b0762000b018462000ad8565b62000ae2565b62000ad8565b9050919050565b6000819050919050565b62000b298362000aec565b62000b4162000b388262000b14565b84845462000a82565b825550505050565b600090565b62000b5862000b49565b62000b6581848462000b1e565b505050565b5b8181101562000b8d5762000b8160008262000b4e565b60018101905062000b6b565b5050565b601f82111562000bdc5762000ba68162000a50565b62000bb18462000a65565b8101602085101562000bc1578190505b62000bd962000bd08562000a65565b83018262000b6a565b50505b505050565b600082821c905092915050565b600062000c016000198460080262000be1565b1980831691505092915050565b600062000c1c838362000bee565b9150826002028217905092915050565b62000c3782620009b2565b67ffffffffffffffff81111562000c535762000c52620009bd565b5b62000c5f825462000a1b565b62000c6c82828562000b91565b600060209050601f83116001811462000ca4576000841562000c8f578287015190505b62000c9b858262000c0e565b86555062000d0b565b601f19841662000cb48662000a50565b60005b8281101562000cde5784890151825560018201915060208501945060208101905062000cb7565b8683101562000cfe578489015162000cfa601f89168262000bee565b8355505b6001600288020188555050505b505050505050565b7f4e487b7100000000000000000000000000000000000000000000000000000000600052601160045260246000fd5b60008160011c9050919050565b6000808291508390505b600185111562000da15780860481111562000d795762000d7862000d13565b5b600185161562000d895780820291505b808102905062000d998562000d42565b945062000d59565b94509492505050565b60008262000dbc576001905062000e8f565b8162000dcc576000905062000e8f565b816001811462000de5576002811462000df05762000e26565b600191505062000e8f565b60ff84111562000e055762000e0462000d13565b5b8360020a91508482111562000e1f5762000e1e62000d13565b5b5062000e8f565b5060208310610133831016604e8410600b841016171562000e605782820a90508381111562000e5a5762000e5962000d13565b5b62000e8f565b62000e6f848484600162000d4f565b9250905081840481111562000e895762000e8862000d13565b5b81810290505b9392505050565b600060ff82169050919050565b600062000eb08262000ad8565b915062000ebd8362000e96565b925062000eec7fffffffffffffffffffffffffffffffffffffffffffffffffffffffffffffffff848462000daa565b905092915050565b600062000f018262000ad8565b915062000f0e8362000ad8565b925082820262000f1e8162000ad8565b9150828204841483151762000f385762000f3762000d13565b5b5092915050565b7f4e487b7100000000000000000000000000000000000000000000000000000000600052601260045260246000fd5b600062000f7b8262000ad8565b915062000f888362000ad8565b92508262000f9b5762000f9a62000f3f565b5b828204905092915050565b600062000fb38262000ad8565b915062000fc08362000ad8565b925082820190508082111562000fdb5762000fda62000d13565b5b92915050565b600080fd5b600073ffffffffffffffffffffffffffffffffffffffff82169050919050565b6000620010138262000fe6565b9050919050565b620010258162001006565b81146200103157600080fd5b50565b60008151905062001045816200101a565b92915050565b60006020828403121562001064576200106362000fe1565b5b6000620010748482850162001034565b91505092915050565b620010888162001006565b82525050565b6000604082019050620010a560008301856200107d565b620010b460208301846200107d565b9392505050565b620010c68162000ad8565b82525050565b6000602082019050620010e36000830184620010bb565b92915050565b6150ba80620010f96000396000f3fe60806040526004361061028c5760003560e01c8063715018a61161015a578063b0f7ec38116100c1578063d7c010321161007a578063d7c01032146109eb578063dd62ed3e14610a14578063ec610dc014610a51578063f2fde38b14610a7a578063f84ba65d14610aa3578063f887ea4014610acc57610293565b8063b0f7ec38146108d6578063b93bdb5f14610901578063bbc572a614610931578063c3717a9a1461095c578063d51ed1c814610985578063d735dc92146109c257610293565b80638f9a55c0116101135780638f9a55c0146107c457806395d89b41146107ef5780639c82a18a1461081a578063a3895fff14610845578063a8aa1b311461086e578063a9059cbb1461089957610293565b8063715018a6146106da57806377a40178146106f157806379afb0641461071a5780637d1db4a514610743578063893d20e81461076e5780638da5cb5b1461079957610293565b8063364333f4116101fe578063571ac8b0116101b7578063571ac8b0146105b35780635cbd616a146105f0578063613f930f1461061b5780636308fb981461064b578063658d4b7f1461067457806370a082311461069d57610293565b8063364333f4146104cb57806339137f8b146104e2578063400343e7146104f957806345ce53651461052257806351fb012d1461055f5780635353a2d81461058a57610293565b8063178002871161025057806317800287146103a557806318160ddd146103d057806323b872dd146103fb5780632b112e49146104385780632d83811914610463578063313ce567146104a057610293565b80630445b6671461029857806306fdde03146102c3578063095ea7b3146102ee5780630cfc15f91461032b5780631161ae391461036857610293565b3661029357005b600080fd5b3480156102a457600080fd5b506102ad610af7565b6040516102ba9190613816565b60405180910390f35b3480156102cf57600080fd5b506102d8610afd565b6040516102e591906138c1565b60405180910390f35b3480156102fa57600080fd5b5061031560048036038101906103109190613981565b610b8f565b60405161032291906139dc565b60405180910390f35b34801561033757600080fd5b50610352600480360381019061034d91906139f7565b610c81565b60405161035f9190613816565b60405180910390f35b34801561037457600080fd5b5061038f600480360381019061038a9190613a24565b610c99565b60405161039c91906139dc565b60405180910390f35b3480156103b157600080fd5b506103ba610cae565b6040516103c79190613816565b60405180910390f35b3480156103dc57600080fd5b506103e5610cb4565b6040516103f29190613816565b60405180910390f35b34801561040757600080fd5b50610422600480360381019061041d9190613a64565b610cbe565b60405161042f91906139dc565b60405180910390f35b34801561044457600080fd5b5061044d610ebe565b60405161045a9190613816565b60405180910390f35b34801561046f57600080fd5b5061048a60048036038101906104859190613ab7565b610eff565b6040516104979190613816565b60405180910390f35b3480156104ac57600080fd5b506104b5610f31565b6040516104c29190613b00565b60405180910390f35b3480156104d757600080fd5b506104e0610f3a565b005b3480156104ee57600080fd5b506104f7611018565b005b34801561050557600080fd5b50610520600480360381019061051b9190613b1b565b6110ca565b005b34801561052e57600080fd5b5061054960048036038101906105449190613ab7565b6112b7565b6040516105569190613816565b60405180910390f35b34801561056b57600080fd5b506105746112e9565b60405161058191906139dc565b60405180910390f35b34801561059657600080fd5b506105b160048036038101906105ac9190613d06565b6112fc565b005b3480156105bf57600080fd5b506105da60048036038101906105d591906139f7565b6113a4565b6040516105e791906139dc565b60405180910390f35b3480156105fc57600080fd5b506106056113d7565b60405161061291906139dc565b60405180910390f35b34801561062757600080fd5b506106306113ea565b60405161064296959493929190613d4f565b60405180910390f35b34801561065757600080fd5b50610672600480360381019061066d9190613ddc565b611419565b005b34801561068057600080fd5b5061069b60048036038101906106969190613e43565b6114ff565b005b3480156106a957600080fd5b506106c460048036038101906106bf91906139f7565b6115ef565b6040516106d19190613816565b60405180910390f35b3480156106e657600080fd5b506106ef611640565b005b3480156106fd57600080fd5b5061071860048036038101906107139190613ab7565b611793565b005b34801561072657600080fd5b50610741600480360381019061073c9190613e83565b611890565b005b34801561074f57600080fd5b50610758611965565b6040516107659190613816565b60405180910390f35b34801561077a57600080fd5b5061078361196b565b6040516107909190613ebf565b60405180910390f35b3480156107a557600080fd5b506107ae61197a565b6040516107bb9190613ebf565b60405180910390f35b3480156107d057600080fd5b506107d96119a3565b6040516107e69190613816565b60405180910390f35b3480156107fb57600080fd5b506108046119a9565b60405161081191906138c1565b60405180910390f35b34801561082657600080fd5b5061082f611a3b565b60405161083c9190613816565b60405180910390f35b34801561085157600080fd5b5061086c60048036038101906108679190613d06565b611a45565b005b34801561087a57600080fd5b50610883611aed565b6040516108909190613ebf565b60405180910390f35b3480156108a557600080fd5b506108c060048036038101906108bb9190613981565b611b13565b6040516108cd91906139dc565b60405180910390f35b3480156108e257600080fd5b506108eb611b28565b6040516108f891906139dc565b60405180910390f35b34801561090d57600080fd5b50610916611b3b565b60405161092896959493929190613d4f565b60405180910390f35b34801561093d57600080fd5b50610946611b6a565b6040516109539190613816565b60405180910390f35b34801561096857600080fd5b50610983600480360381019061097e9190613ab7565b611b74565b005b34801561099157600080fd5b506109ac60048036038101906109a79190613ab7565b611c71565b6040516109b99190613816565b60405180910390f35b3480156109ce57600080fd5b506109e960048036038101906109e49190613f90565b611ce3565b005b3480156109f757600080fd5b50610a126004803603810190610a0d9190614011565b611f11565b005b348015610a2057600080fd5b50610a3b6004803603810190610a369190614064565b61206e565b604051610a489190613816565b60405180910390f35b348015610a5d57600080fd5b50610a786004803603810190610a739190614167565b6120f5565b005b348015610a8657600080fd5b50610aa16004803603810190610a9c91906139f7565b612262565b005b348015610aaf57600080fd5b50610aca6004803603810190610ac59190613e43565b612423565b005b348015610ad857600080fd5b50610ae1612513565b604051610aee9190614222565b60405180910390f35b60205481565b606060018054610b0c9061426c565b80601f0160208091040260200160405190810160405280929190818152602001828054610b389061426c565b8015610b855780601f10610b5a57610100808354040283529160200191610b85565b820191906000526020600020905b815481529060010190602001808311610b6857829003601f168201915b5050505050905090565b600081600860003373ffffffffffffffffffffffffffffffffffffffff1673ffffffffffffffffffffffffffffffffffffffff16815260200190815260200160002060008573ffffffffffffffffffffffffffffffffffffffff1673ffffffffffffffffffffffffffffffffffffffff168152602001908152602001600020819055508273ffffffffffffffffffffffffffffffffffffffff163373ffffffffffffffffffffffffffffffffffffffff167f8c5be1e5ebec7d5bd14f71427d1e84f3dd0314c0f7b2291e5b200ac8c7c3b92584604051610c6f9190613816565b60405180910390a36001905092915050565b60066020528060005260406000206000915090505481565b600082610ca583611c71565b11905092915050565b60075481565b6000600354905090565b60007fffffffffffffffffffffffffffffffffffffffffffffffffffffffffffffffff600860008673ffffffffffffffffffffffffffffffffffffffff1673ffffffffffffffffffffffffffffffffffffffff16815260200190815260200160002060003373ffffffffffffffffffffffffffffffffffffffff1673ffffffffffffffffffffffffffffffffffffffff1681526020019081526020016000205414610eaa57610e29826040518060400160405280601681526020017f496e73756666696369656e7420416c6c6f77616e636500000000000000000000815250600860008873ffffffffffffffffffffffffffffffffffffffff1673ffffffffffffffffffffffffffffffffffffffff16815260200190815260200160002060003373ffffffffffffffffffffffffffffffffffffffff1673ffffffffffffffffffffffffffffffffffffffff168152602001908152602001600020546125399092919063ffffffff16565b600860008673ffffffffffffffffffffffffffffffffffffffff1673ffffffffffffffffffffffffffffffffffffffff16815260200190815260200160002060003373ffffffffffffffffffffffffffffffffffffffff1673ffffffffffffffffffffffffffffffffffffffff168152602001908152602001600020819055505b610eb584848461259d565b90509392505050565b6000610efa610ecd60006115ef565b610eec610edb61dead6115ef565b600354612b2c90919063ffffffff16565b612b2c90919063ffffffff16565b905090565b6000610f2a600754610f1c60035485612b7690919063ffffffff16565b612bf090919063ffffffff16565b9050919050565b60006009905090565b610f42612c3a565b73ffffffffffffffffffffffffffffffffffffffff1660008054906101000a900473ffffffffffffffffffffffffffffffffffffffff1673ffffffffffffffffffffffffffffffffffffffff1614610fcf576040517f08c379a0000000000000000000000000000000000000000000000000000000008152600401610fc6906142e9565b60405180910390fd5b3373ffffffffffffffffffffffffffffffffffffffff166108fc479081150290604051600060405180830381858888f19350505050158015611015573d6000803e3d6000fd5b50565b611020612c3a565b73ffffffffffffffffffffffffffffffffffffffff1660008054906101000a900473ffffffffffffffffffffffffffffffffffffffff1673ffffffffffffffffffffffffffffffffffffffff16146110ad576040517f08c379a00000000000000000000000000000000000000000000000000000000081526004016110a4906142e9565b60405180910390fd5b6001602160026101000a81548160ff021916908315150217905550565b6110d2612c3a565b73ffffffffffffffffffffffffffffffffffffffff1660008054906101000a900473ffffffffffffffffffffffffffffffffffffffff1673ffffffffffffffffffffffffffffffffffffffff161461115f576040517f08c379a0000000000000000000000000000000000000000000000000000000008152600401611156906142e9565b60405180910390fd5b87600c81905550866012819055508560108190555084600e819055506111ba600e546111ac60105461119e601254600c54612c4290919063ffffffff16565b612c4290919063ffffffff16565b612c4290919063ffffffff16565b60148190555083600d81905550826013819055508160118190555080600f8190555061121b600f5461120d6011546111ff601354600d54612c4290919063ffffffff16565b612c4290919063ffffffff16565b612c4290919063ffffffff16565b60158190555060196014541115611267576040517f08c379a000000000000000000000000000000000000000000000000000000000815260040161125e90614355565b60405180910390fd5b601960155411156112ad576040517f08c379a00000000000000000000000000000000000000000000000000000000081526004016112a4906143c1565b60405180910390fd5b5050505050505050565b60006112e26003546112d460075485612b7690919063ffffffff16565b612bf090919063ffffffff16565b9050919050565b602160019054906101000a900460ff1681565b611304612c3a565b73ffffffffffffffffffffffffffffffffffffffff1660008054906101000a900473ffffffffffffffffffffffffffffffffffffffff1673ffffffffffffffffffffffffffffffffffffffff1614611391576040517f08c379a0000000000000000000000000000000000000000000000000000000008152600401611388906142e9565b60405180910390fd5b80600190816113a09190614583565b5050565b60006113d0827fffffffffffffffffffffffffffffffffffffffffffffffffffffffffffffffff610b8f565b9050919050565b602160029054906101000a900460ff1681565b600080600080600080600c54601054600f54601254601454601654955095509550955095509550909192939495565b611421612c3a565b73ffffffffffffffffffffffffffffffffffffffff1660008054906101000a900473ffffffffffffffffffffffffffffffffffffffff1673ffffffffffffffffffffffffffffffffffffffff16146114ae576040517f08c379a00000000000000000000000000000000000000000000000000000000081526004016114a5906142e9565b60405180910390fd5b80601d60156101000a81548160ff02191690831515021790555083601d60146101000a81548160ff02191690831515021790555082601e8190555081601f81905550601e5460208190555050505050565b611507612c3a565b73ffffffffffffffffffffffffffffffffffffffff1660008054906101000a900473ffffffffffffffffffffffffffffffffffffffff1673ffffffffffffffffffffffffffffffffffffffff1614611594576040517f08c379a000000000000000000000000000000000000000000000000000000000815260040161158b906142e9565b60405180910390fd5b80600960008473ffffffffffffffffffffffffffffffffffffffff1673ffffffffffffffffffffffffffffffffffffffff16815260200190815260200160002060006101000a81548160ff0219169083151502179055505050565b6000611639600660008473ffffffffffffffffffffffffffffffffffffffff1673ffffffffffffffffffffffffffffffffffffffff16815260200190815260200160002054610eff565b9050919050565b611648612c3a565b73ffffffffffffffffffffffffffffffffffffffff1660008054906101000a900473ffffffffffffffffffffffffffffffffffffffff1673ffffffffffffffffffffffffffffffffffffffff16146116d5576040517f08c379a00000000000000000000000000000000000000000000000000000000081526004016116cc906142e9565b60405180910390fd5b600073ffffffffffffffffffffffffffffffffffffffff1660008054906101000a900473ffffffffffffffffffffffffffffffffffffffff1673ffffffffffffffffffffffffffffffffffffffff167f8be0079c531659141344cd1fd0a4f28419497f9722a3daafe3b4186f6b6457e060405160405180910390a360008060006101000a81548173ffffffffffffffffffffffffffffffffffffffff021916908373ffffffffffffffffffffffffffffffffffffffff160217905550565b61179b612c3a565b73ffffffffffffffffffffffffffffffffffffffff1660008054906101000a900473ffffffffffffffffffffffffffffffffffffffff1673ffffffffffffffffffffffffffffffffffffffff1614611828576040517f08c379a000000000000000000000000000000000000000000000000000000000815260040161181f906142e9565b60405180910390fd5b600181101561186c576040517f08c379a0000000000000000000000000000000000000000000000000000000008152600401611863906146a1565b60405180910390fd5b6103e88160035461187d91906146f0565b6118879190614761565b60048190555050565b611898612c3a565b73ffffffffffffffffffffffffffffffffffffffff1660008054906101000a900473ffffffffffffffffffffffffffffffffffffffff1673ffffffffffffffffffffffffffffffffffffffff1614611925576040517f08c379a000000000000000000000000000000000000000000000000000000000815260040161191c906142e9565b60405180910390fd5b602160029054906101000a900460ff16158061193f575080155b61194857600080fd5b80602160016101000a81548160ff02191690831515021790555050565b60045481565b600061197561197a565b905090565b60008060009054906101000a900473ffffffffffffffffffffffffffffffffffffffff16905090565b60055481565b6060600280546119b89061426c565b80601f01602080910402602001604051908101604052809291908181526020018280546119e49061426c565b8015611a315780601f10611a0657610100808354040283529160200191611a31565b820191906000526020600020905b815481529060010190602001808311611a1457829003601f168201915b5050505050905090565b6000601454905090565b611a4d612c3a565b73ffffffffffffffffffffffffffffffffffffffff1660008054906101000a900473ffffffffffffffffffffffffffffffffffffffff1673ffffffffffffffffffffffffffffffffffffffff1614611ada576040517f08c379a0000000000000000000000000000000000000000000000000000000008152600401611ad1906142e9565b60405180910390fd5b8060029081611ae99190614583565b5050565b601d60009054906101000a900473ffffffffffffffffffffffffffffffffffffffff1681565b6000611b2033848461259d565b905092915050565b601d60149054906101000a900460ff1681565b600080600080600080600d54601154600f54601354601554601654955095509550955095509550909192939495565b6000601554905090565b611b7c612c3a565b73ffffffffffffffffffffffffffffffffffffffff1660008054906101000a900473ffffffffffffffffffffffffffffffffffffffff1673ffffffffffffffffffffffffffffffffffffffff1614611c09576040517f08c379a0000000000000000000000000000000000000000000000000000000008152600401611c00906142e9565b60405180910390fd5b6001811015611c4d576040517f08c379a0000000000000000000000000000000000000000000000000000000008152600401611c44906147de565b60405180910390fd5b6103e881600354611c5e91906146f0565b611c689190614761565b60058190555050565b6000611cdc611c7e610ebe565b611cce611cbf6002611cb1601d60009054906101000a900473ffffffffffffffffffffffffffffffffffffffff166115ef565b612b7690919063ffffffff16565b85612b7690919063ffffffff16565b612bf090919063ffffffff16565b9050919050565b611ceb612c3a565b73ffffffffffffffffffffffffffffffffffffffff1660008054906101000a900473ffffffffffffffffffffffffffffffffffffffff1673ffffffffffffffffffffffffffffffffffffffff1614611d78576040517f08c379a0000000000000000000000000000000000000000000000000000000008152600401611d6f906142e9565b60405180910390fd5b6101f58484905010611dbf576040517f08c379a0000000000000000000000000000000000000000000000000000000008152600401611db690614870565b60405180910390fd5b818190508484905014611e07576040517f08c379a0000000000000000000000000000000000000000000000000000000008152600401611dfe90614902565b60405180910390fd5b6000805b85859050811015611e5057838382818110611e2957611e28614922565b5b9050602002013582611e3b9190614951565b91508080611e4890614985565b915050611e0b565b5080611e5b336115ef565b1015611e9c576040517f08c379a0000000000000000000000000000000000000000000000000000000008152600401611e9390614a19565b60405180910390fd5b60005b85859050811015611f0957611ef533878784818110611ec157611ec0614922565b5b9050602002016020810190611ed691906139f7565b868685818110611ee957611ee8614922565b5b90506020020135612ca0565b508080611f0190614985565b915050611e9f565b505050505050565b611f19612c3a565b73ffffffffffffffffffffffffffffffffffffffff1660008054906101000a900473ffffffffffffffffffffffffffffffffffffffff1673ffffffffffffffffffffffffffffffffffffffff1614611fa6576040517f08c379a0000000000000000000000000000000000000000000000000000000008152600401611f9d906142e9565b60405180910390fd5b82601860006101000a81548173ffffffffffffffffffffffffffffffffffffffff021916908373ffffffffffffffffffffffffffffffffffffffff16021790555080601760006101000a81548173ffffffffffffffffffffffffffffffffffffffff021916908373ffffffffffffffffffffffffffffffffffffffff16021790555081601960006101000a81548173ffffffffffffffffffffffffffffffffffffffff021916908373ffffffffffffffffffffffffffffffffffffffff160217905550505050565b6000600860008473ffffffffffffffffffffffffffffffffffffffff1673ffffffffffffffffffffffffffffffffffffffff16815260200190815260200160002060008373ffffffffffffffffffffffffffffffffffffffff1673ffffffffffffffffffffffffffffffffffffffff16815260200190815260200160002054905092915050565b6120fd612c3a565b73ffffffffffffffffffffffffffffffffffffffff1660008054906101000a900473ffffffffffffffffffffffffffffffffffffffff1673ffffffffffffffffffffffffffffffffffffffff161461218a576040517f08c379a0000000000000000000000000000000000000000000000000000000008152600401612181906142e9565b60405180910390fd5b6101f58251106121cf576040517f08c379a00000000000000000000000000000000000000000000000000000000081526004016121c690614aab565b60405180910390fd5b60005b825181101561225d5781602260008584815181106121f3576121f2614922565b5b602002602001015173ffffffffffffffffffffffffffffffffffffffff1673ffffffffffffffffffffffffffffffffffffffff16815260200190815260200160002060006101000a81548160ff0219169083151502179055508061225690614985565b90506121d2565b505050565b61226a612c3a565b73ffffffffffffffffffffffffffffffffffffffff1660008054906101000a900473ffffffffffffffffffffffffffffffffffffffff1673ffffffffffffffffffffffffffffffffffffffff16146122f7576040517f08c379a00000000000000000000000000000000000000000000000000000000081526004016122ee906142e9565b60405180910390fd5b600073ffffffffffffffffffffffffffffffffffffffff168173ffffffffffffffffffffffffffffffffffffffff1603612366576040517f08c379a000000000000000000000000000000000000000000000000000000000815260040161235d90614b3d565b60405180910390fd5b8073ffffffffffffffffffffffffffffffffffffffff1660008054906101000a900473ffffffffffffffffffffffffffffffffffffffff1673ffffffffffffffffffffffffffffffffffffffff167f8be0079c531659141344cd1fd0a4f28419497f9722a3daafe3b4186f6b6457e060405160405180910390a3806000806101000a81548173ffffffffffffffffffffffffffffffffffffffff021916908373ffffffffffffffffffffffffffffffffffffffff16021790555050565b61242b612c3a565b73ffffffffffffffffffffffffffffffffffffffff1660008054906101000a900473ffffffffffffffffffffffffffffffffffffffff1673ffffffffffffffffffffffffffffffffffffffff16146124b8576040517f08c379a00000000000000000000000000000000000000000000000000000000081526004016124af906142e9565b60405180910390fd5b80600b60008473ffffffffffffffffffffffffffffffffffffffff1673ffffffffffffffffffffffffffffffffffffffff16815260200190815260200160002060006101000a81548160ff0219169083151502179055505050565b601c60009054906101000a900473ffffffffffffffffffffffffffffffffffffffff1681565b6000838311158290612581576040517f08c379a000000000000000000000000000000000000000000000000000000000815260040161257891906138c1565b60405180910390fd5b50600083856125909190614b5d565b9050809150509392505050565b6000602160019054906101000a900460ff1615806126045750602260008573ffffffffffffffffffffffffffffffffffffffff1673ffffffffffffffffffffffffffffffffffffffff16815260200190815260200160002060009054906101000a900460ff165b612643576040517f08c379a000000000000000000000000000000000000000000000000000000000815260040161263a90614c03565b60405180910390fd5b602160009054906101000a900460ff161561266a57612663848484612ca0565b9050612b25565b601d60009054906101000a900473ffffffffffffffffffffffffffffffffffffffff1673ffffffffffffffffffffffffffffffffffffffff168373ffffffffffffffffffffffffffffffffffffffff16141580156126f6575061dead73ffffffffffffffffffffffffffffffffffffffff168373ffffffffffffffffffffffffffffffffffffffff1614155b80156127505750601860009054906101000a900473ffffffffffffffffffffffffffffffffffffffff1673ffffffffffffffffffffffffffffffffffffffff168373ffffffffffffffffffffffffffffffffffffffff1614155b80156127a65750600b60008473ffffffffffffffffffffffffffffffffffffffff1673ffffffffffffffffffffffffffffffffffffffff16815260200190815260200160002060009054906101000a900460ff16155b1561280457600554826127b8856115ef565b6127c29190614951565b1115612803576040517f08c379a00000000000000000000000000000000000000000000000000000000081526004016127fa90614c6f565b60405180910390fd5b5b600b60008573ffffffffffffffffffffffffffffffffffffffff1673ffffffffffffffffffffffffffffffffffffffff16815260200190815260200160002060009054906101000a900460ff1661289b5760045482111561289a576040517f08c379a000000000000000000000000000000000000000000000000000000000815260040161289190614cdb565b60405180910390fd5b5b6128a3612e80565b156128b1576128b0612f20565b5b60006128bc836112b7565b9050612947816040518060400160405280601481526020017f496e73756666696369656e742042616c616e6365000000000000000000000000815250600660008973ffffffffffffffffffffffffffffffffffffffff1673ffffffffffffffffffffffffffffffffffffffff168152602001908152602001600020546125399092919063ffffffff16565b600660008773ffffffffffffffffffffffffffffffffffffffff1673ffffffffffffffffffffffffffffffffffffffff168152602001908152602001600020819055506000612995866134da565b80156129a657506129a5856134da565b5b6129b05781612a1a565b612a19601d60009054906101000a900473ffffffffffffffffffffffffffffffffffffffff1673ffffffffffffffffffffffffffffffffffffffff168773ffffffffffffffffffffffffffffffffffffffff1614612a0f576000612a12565b60015b8784613531565b5b9050612a6e81600660008873ffffffffffffffffffffffffffffffffffffffff1673ffffffffffffffffffffffffffffffffffffffff16815260200190815260200160002054612c4290919063ffffffff16565b600660008773ffffffffffffffffffffffffffffffffffffffff1673ffffffffffffffffffffffffffffffffffffffff168152602001908152602001600020819055508473ffffffffffffffffffffffffffffffffffffffff168673ffffffffffffffffffffffffffffffffffffffff167fddf252ad1be2c89b69c2b068fc378daa952ba7f163c4a11628f55a4df523b3ef612b0984610eff565b604051612b169190613816565b60405180910390a36001925050505b9392505050565b6000612b6e83836040518060400160405280601e81526020017f536166654d6174683a207375627472616374696f6e206f766572666c6f770000815250612539565b905092915050565b6000808303612b885760009050612bea565b60008284612b9691906146f0565b9050828482612ba59190614761565b14612be5576040517f08c379a0000000000000000000000000000000000000000000000000000000008152600401612bdc90614d6d565b60405180910390fd5b809150505b92915050565b6000612c3283836040518060400160405280601a81526020017f536166654d6174683a206469766973696f6e206279207a65726f00000000000081525061379a565b905092915050565b600033905090565b6000808284612c519190614951565b905083811015612c96576040517f08c379a0000000000000000000000000000000000000000000000000000000008152600401612c8d90614dd9565b60405180910390fd5b8091505092915050565b600080612cac836112b7565b9050612d37816040518060400160405280601481526020017f496e73756666696369656e742042616c616e6365000000000000000000000000815250600660008973ffffffffffffffffffffffffffffffffffffffff1673ffffffffffffffffffffffffffffffffffffffff168152602001908152602001600020546125399092919063ffffffff16565b600660008773ffffffffffffffffffffffffffffffffffffffff1673ffffffffffffffffffffffffffffffffffffffff16815260200190815260200160002081905550612dcc81600660008773ffffffffffffffffffffffffffffffffffffffff1673ffffffffffffffffffffffffffffffffffffffff16815260200190815260200160002054612c4290919063ffffffff16565b600660008673ffffffffffffffffffffffffffffffffffffffff1673ffffffffffffffffffffffffffffffffffffffff168152602001908152602001600020819055508373ffffffffffffffffffffffffffffffffffffffff168573ffffffffffffffffffffffffffffffffffffffff167fddf252ad1be2c89b69c2b068fc378daa952ba7f163c4a11628f55a4df523b3ef85604051612e6c9190613816565b60405180910390a360019150509392505050565b6000601d60009054906101000a900473ffffffffffffffffffffffffffffffffffffffff1673ffffffffffffffffffffffffffffffffffffffff163373ffffffffffffffffffffffffffffffffffffffff1614158015612eed5750602160009054906101000a900460ff16155b8015612f055750601d60149054906101000a900460ff165b8015612f1b5750602054612f18306115ef565b10155b905090565b6001602160006101000a81548160ff0219169083151502179055506000612f4b601a54601b54610c99565b612f5757600d54612f5a565b60005b90506000612f75601354601554612b2c90919063ffffffff16565b90506000612fb36002612fa584612f9787602054612b7690919063ffffffff16565b612bf090919063ffffffff16565b612bf090919063ffffffff16565b90506000612fcc82602054612b2c90919063ffffffff16565b90506000600267ffffffffffffffff811115612feb57612fea613bdb565b5b6040519080825280602002602001820160405280156130195781602001602082028036833780820191505090505b509050308160008151811061303157613030614922565b5b602002602001019073ffffffffffffffffffffffffffffffffffffffff16908173ffffffffffffffffffffffffffffffffffffffff168152505073bb4cdb9cbd36b01bd1cbaebf2de08d9173bc095c8160018151811061309457613093614922565b5b602002602001019073ffffffffffffffffffffffffffffffffffffffff16908173ffffffffffffffffffffffffffffffffffffffff16815250506000479050601c60009054906101000a900473ffffffffffffffffffffffffffffffffffffffff1673ffffffffffffffffffffffffffffffffffffffff1663791ac9478460008530426040518663ffffffff1660e01b8152600401613137959493929190614ef2565b600060405180830381600087803b15801561315157600080fd5b505af1158015613165573d6000803e3d6000fd5b50505050600061317e8247612b2c90919063ffffffff16565b905060006131a861319960028a612bf090919063ffffffff16565b88612b2c90919063ffffffff16565b905060006131e660026131d8846131ca600d5488612b7690919063ffffffff16565b612bf090919063ffffffff16565b612bf090919063ffffffff16565b905060006132118361320360115487612b7690919063ffffffff16565b612bf090919063ffffffff16565b9050600061323c8461322e600f5488612b7690919063ffffffff16565b612bf090919063ffffffff16565b90506000601860009054906101000a900473ffffffffffffffffffffffffffffffffffffffff1673ffffffffffffffffffffffffffffffffffffffff16836175309060405161328a90614f7d565b600060405180830381858888f193505050503d80600081146132c8576040519150601f19603f3d011682016040523d82523d6000602084013e6132cd565b606091505b50509050601960009054906101000a900473ffffffffffffffffffffffffffffffffffffffff1673ffffffffffffffffffffffffffffffffffffffff16826175309060405161331b90614f7d565b600060405180830381858888f193505050503d8060008114613359576040519150601f19603f3d011682016040523d82523d6000602084013e61335e565b606091505b50508091505060008a111561347657601c60009054906101000a900473ffffffffffffffffffffffffffffffffffffffff1673ffffffffffffffffffffffffffffffffffffffff1663f305d71985308d600080601760009054906101000a900473ffffffffffffffffffffffffffffffffffffffff16426040518863ffffffff1660e01b81526004016133f696959493929190614f92565b60606040518083038185885af1158015613414573d6000803e3d6000fd5b50505050506040513d601f19601f820116820180604052508101906134399190615008565b5050507f424db2872186fa7e7afa7a5e902ed3b49a2ef19c2f5431e672462495dd6b4506848b60405161346d92919061505b565b60405180910390a15b601d60159054906101000a900460ff16156134a757601e546020541461349e57601e546134a2565b601f545b6134ab565b6020545b6020819055505050505050505050505050506000602160006101000a81548160ff021916908315150217905550565b6000600960008373ffffffffffffffffffffffffffffffffffffffff1673ffffffffffffffffffffffffffffffffffffffff16815260200190815260200160002060009054906101000a900460ff16159050919050565b60008060011515851515146135735761356e601654613560613551611b6a565b86612b7690919063ffffffff16565b612bf090919063ffffffff16565b6135a2565b6135a1601654613593613584611a3b565b86612b7690919063ffffffff16565b612bf090919063ffffffff16565b5b9050600060011515861515146135e0576135db6015546135cd60135485612b7690919063ffffffff16565b612bf090919063ffffffff16565b61360a565b6136096014546135fb60125485612b7690919063ffffffff16565b612bf090919063ffffffff16565b5b905061362181600754612b2c90919063ffffffff16565b600781905550600061363c8284612b2c90919063ffffffff16565b905061369081600660003073ffffffffffffffffffffffffffffffffffffffff1673ffffffffffffffffffffffffffffffffffffffff16815260200190815260200160002054612c4290919063ffffffff16565b600660003073ffffffffffffffffffffffffffffffffffffffff1673ffffffffffffffffffffffffffffffffffffffff168152602001908152602001600020819055503073ffffffffffffffffffffffffffffffffffffffff168673ffffffffffffffffffffffffffffffffffffffff167fddf252ad1be2c89b69c2b068fc378daa952ba7f163c4a11628f55a4df523b3ef61372b84610eff565b6040516137389190613816565b60405180910390a37fc3b3cc73ac1faef58c428c22be6cb344acfd92a699c8cd758c753af27071b5ac8260075460405161377392919061505b565b60405180910390a161378e8386612b2c90919063ffffffff16565b93505050509392505050565b600080831182906137e1576040517f08c379a00000000000000000000000000000000000000000000000000000000081526004016137d891906138c1565b60405180910390fd5b50600083856137f09190614761565b9050809150509392505050565b6000819050919050565b613810816137fd565b82525050565b600060208201905061382b6000830184613807565b92915050565b600081519050919050565b600082825260208201905092915050565b60005b8381101561386b578082015181840152602081019050613850565b60008484015250505050565b6000601f19601f8301169050919050565b600061389382613831565b61389d818561383c565b93506138ad81856020860161384d565b6138b681613877565b840191505092915050565b600060208201905081810360008301526138db8184613888565b905092915050565b6000604051905090565b600080fd5b600080fd5b600073ffffffffffffffffffffffffffffffffffffffff82169050919050565b6000613922826138f7565b9050919050565b61393281613917565b811461393d57600080fd5b50565b60008135905061394f81613929565b92915050565b61395e816137fd565b811461396957600080fd5b50565b60008135905061397b81613955565b92915050565b60008060408385031215613998576139976138ed565b5b60006139a685828601613940565b92505060206139b78582860161396c565b9150509250929050565b60008115159050919050565b6139d6816139c1565b82525050565b60006020820190506139f160008301846139cd565b92915050565b600060208284031215613a0d57613a0c6138ed565b5b6000613a1b84828501613940565b91505092915050565b60008060408385031215613a3b57613a3a6138ed565b5b6000613a498582860161396c565b9250506020613a5a8582860161396c565b9150509250929050565b600080600060608486031215613a7d57613a7c6138ed565b5b6000613a8b86828701613940565b9350506020613a9c86828701613940565b9250506040613aad8682870161396c565b9150509250925092565b600060208284031215613acd57613acc6138ed565b5b6000613adb8482850161396c565b91505092915050565b600060ff82169050919050565b613afa81613ae4565b82525050565b6000602082019050613b156000830184613af1565b92915050565b600080600080600080600080610100898b031215613b3c57613b3b6138ed565b5b6000613b4a8b828c0161396c565b9850506020613b5b8b828c0161396c565b9750506040613b6c8b828c0161396c565b9650506060613b7d8b828c0161396c565b9550506080613b8e8b828c0161396c565b94505060a0613b9f8b828c0161396c565b93505060c0613bb08b828c0161396c565b92505060e0613bc18b828c0161396c565b9150509295985092959890939650565b600080fd5b600080fd5b7f4e487b7100000000000000000000000000000000000000000000000000000000600052604160045260246000fd5b613c1382613877565b810181811067ffffffffffffffff82111715613c3257613c31613bdb565b5b80604052505050565b6000613c456138e3565b9050613c518282613c0a565b919050565b600067ffffffffffffffff821115613c7157613c70613bdb565b5b613c7a82613877565b9050602081019050919050565b82818337600083830152505050565b6000613ca9613ca484613c56565b613c3b565b905082815260208101848484011115613cc557613cc4613bd6565b5b613cd0848285613c87565b509392505050565b600082601f830112613ced57613cec613bd1565b5b8135613cfd848260208601613c96565b91505092915050565b600060208284031215613d1c57613d1b6138ed565b5b600082013567ffffffffffffffff811115613d3a57613d396138f2565b5b613d4684828501613cd8565b91505092915050565b600060c082019050613d646000830189613807565b613d716020830188613807565b613d7e6040830187613807565b613d8b6060830186613807565b613d986080830185613807565b613da560a0830184613807565b979650505050505050565b613db9816139c1565b8114613dc457600080fd5b50565b600081359050613dd681613db0565b92915050565b60008060008060808587031215613df657613df56138ed565b5b6000613e0487828801613dc7565b9450506020613e158782880161396c565b9350506040613e268782880161396c565b9250506060613e3787828801613dc7565b91505092959194509250565b60008060408385031215613e5a57613e596138ed565b5b6000613e6885828601613940565b9250506020613e7985828601613dc7565b9150509250929050565b600060208284031215613e9957613e986138ed565b5b6000613ea784828501613dc7565b91505092915050565b613eb981613917565b82525050565b6000602082019050613ed46000830184613eb0565b92915050565b600080fd5b600080fd5b60008083601f840112613efa57613ef9613bd1565b5b8235905067ffffffffffffffff811115613f1757613f16613eda565b5b602083019150836020820283011115613f3357613f32613edf565b5b9250929050565b60008083601f840112613f5057613f4f613bd1565b5b8235905067ffffffffffffffff811115613f6d57613f6c613eda565b5b602083019150836020820283011115613f8957613f88613edf565b5b9250929050565b60008060008060408587031215613faa57613fa96138ed565b5b600085013567ffffffffffffffff811115613fc857613fc76138f2565b5b613fd487828801613ee4565b9450945050602085013567ffffffffffffffff811115613ff757613ff66138f2565b5b61400387828801613f3a565b925092505092959194509250565b60008060006060848603121561402a576140296138ed565b5b600061403886828701613940565b935050602061404986828701613940565b925050604061405a86828701613940565b9150509250925092565b6000806040838503121561407b5761407a6138ed565b5b600061408985828601613940565b925050602061409a85828601613940565b9150509250929050565b600067ffffffffffffffff8211156140bf576140be613bdb565b5b602082029050602081019050919050565b60006140e36140de846140a4565b613c3b565b9050808382526020820190506020840283018581111561410657614105613edf565b5b835b8181101561412f578061411b8882613940565b845260208401935050602081019050614108565b5050509392505050565b600082601f83011261414e5761414d613bd1565b5b813561415e8482602086016140d0565b91505092915050565b6000806040838503121561417e5761417d6138ed565b5b600083013567ffffffffffffffff81111561419c5761419b6138f2565b5b6141a885828601614139565b92505060206141b985828601613dc7565b9150509250929050565b6000819050919050565b60006141e86141e36141de846138f7565b6141c3565b6138f7565b9050919050565b60006141fa826141cd565b9050919050565b600061420c826141ef565b9050919050565b61421c81614201565b82525050565b60006020820190506142376000830184614213565b92915050565b7f4e487b7100000000000000000000000000000000000000000000000000000000600052602260045260246000fd5b6000600282049050600182168061428457607f821691505b6020821081036142975761429661423d565b5b50919050565b7f4f776e61626c653a2063616c6c6572206973206e6f7420746865206f776e6572600082015250565b60006142d360208361383c565b91506142de8261429d565b602082019050919050565b60006020820190508181036000830152614302816142c6565b9050919050565b7f43616e6e6f74207365742062757920666565732061626f766520323525000000600082015250565b600061433f601d8361383c565b915061434a82614309565b602082019050919050565b6000602082019050818103600083015261436e81614332565b9050919050565b7f43616e6e6f74207365742073656c6c20666565732061626f7665203235250000600082015250565b60006143ab601e8361383c565b91506143b682614375565b602082019050919050565b600060208201905081810360008301526143da8161439e565b9050919050565b60008190508160005260206000209050919050565b60006020601f8301049050919050565b600082821b905092915050565b6000600883026144437fffffffffffffffffffffffffffffffffffffffffffffffffffffffffffffffff82614406565b61444d8683614406565b95508019841693508086168417925050509392505050565b600061448061447b614476846137fd565b6141c3565b6137fd565b9050919050565b6000819050919050565b61449a83614465565b6144ae6144a682614487565b848454614413565b825550505050565b600090565b6144c36144b6565b6144ce818484614491565b505050565b5b818110156144f2576144e76000826144bb565b6001810190506144d4565b5050565b601f82111561453757614508816143e1565b614511846143f6565b81016020851015614520578190505b61453461452c856143f6565b8301826144d3565b50505b505050565b600082821c905092915050565b600061455a6000198460080261453c565b1980831691505092915050565b60006145738383614549565b9150826002028217905092915050565b61458c82613831565b67ffffffffffffffff8111156145a5576145a4613bdb565b5b6145af825461426c565b6145ba8282856144f6565b600060209050601f8311600181146145ed57600084156145db578287015190505b6145e58582614567565b86555061464d565b601f1984166145fb866143e1565b60005b82811015614623578489015182556001820191506020850194506020810190506145fe565b86831015614640578489015161463c601f891682614549565b8355505b6001600288020188555050505b505050505050565b7f43616e6e6f7420736574206d61782054582062656c6f77202e31250000000000600082015250565b600061468b601b8361383c565b915061469682614655565b602082019050919050565b600060208201905081810360008301526146ba8161467e565b9050919050565b7f4e487b7100000000000000000000000000000000000000000000000000000000600052601160045260246000fd5b60006146fb826137fd565b9150614706836137fd565b9250828202614714816137fd565b9150828204841483151761472b5761472a6146c1565b5b5092915050565b7f4e487b7100000000000000000000000000000000000000000000000000000000600052601260045260246000fd5b600061476c826137fd565b9150614777836137fd565b92508261478757614786614732565b5b828204905092915050565b7f43616e6e6f7420736574206d61782057616c6c65742062656c6f77202e312500600082015250565b60006147c8601f8361383c565b91506147d382614792565b602082019050919050565b600060208201905081810360008301526147f7816147bb565b9050919050565b7f474153204572726f723a206d61782061697264726f70206c696d69742069732060008201527f3530302061646472657373657300000000000000000000000000000000000000602082015250565b600061485a602d8361383c565b9150614865826147fe565b604082019050919050565b600060208201905081810360008301526148898161484d565b9050919050565b7f4d69736d61746368206265747765656e204164647265737320616e6420746f6b60008201527f656e20636f756e74000000000000000000000000000000000000000000000000602082015250565b60006148ec60288361383c565b91506148f782614890565b604082019050919050565b6000602082019050818103600083015261491b816148df565b9050919050565b7f4e487b7100000000000000000000000000000000000000000000000000000000600052603260045260246000fd5b600061495c826137fd565b9150614967836137fd565b925082820190508082111561497f5761497e6146c1565b5b92915050565b6000614990826137fd565b91507fffffffffffffffffffffffffffffffffffffffffffffffffffffffffffffffff82036149c2576149c16146c1565b5b600182019050919050565b7f4e6f7420656e6f75676820746f6b656e7320696e2077616c6c65740000000000600082015250565b6000614a03601b8361383c565b9150614a0e826149cd565b602082019050919050565b60006020820190508181036000830152614a32816149f6565b9050919050565b7f474153204572726f723a206d6178206c696d697420697320353030206164647260008201527f6573736573000000000000000000000000000000000000000000000000000000602082015250565b6000614a9560258361383c565b9150614aa082614a39565b604082019050919050565b60006020820190508181036000830152614ac481614a88565b9050919050565b7f4f776e61626c653a206e6577206f776e657220697320746865207a65726f206160008201527f6464726573730000000000000000000000000000000000000000000000000000602082015250565b6000614b2760268361383c565b9150614b3282614acb565b604082019050919050565b60006020820190508181036000830152614b5681614b1a565b9050919050565b6000614b68826137fd565b9150614b73836137fd565b9250828203905081811115614b8b57614b8a6146c1565b5b92915050565b7f57686974656c69737420656e61626c656420616e642073656e646572206e6f7460008201527f2077686974656c69737465640000000000000000000000000000000000000000602082015250565b6000614bed602c8361383c565b9150614bf882614b91565b604082019050919050565b60006020820190508181036000830152614c1c81614be0565b9050919050565b7f4d61782057616c6c657420457863656564656400000000000000000000000000600082015250565b6000614c5960138361383c565b9150614c6482614c23565b602082019050919050565b60006020820190508181036000830152614c8881614c4c565b9050919050565b7f5472616e73616374696f6e204578636565646564000000000000000000000000600082015250565b6000614cc560148361383c565b9150614cd082614c8f565b602082019050919050565b60006020820190508181036000830152614cf481614cb8565b9050919050565b7f536166654d6174683a206d756c7469706c69636174696f6e206f766572666c6f60008201527f7700000000000000000000000000000000000000000000000000000000000000602082015250565b6000614d5760218361383c565b9150614d6282614cfb565b604082019050919050565b60006020820190508181036000830152614d8681614d4a565b9050919050565b7f536166654d6174683a206164646974696f6e206f766572666c6f770000000000600082015250565b6000614dc3601b8361383c565b9150614dce82614d8d565b602082019050919050565b60006020820190508181036000830152614df281614db6565b9050919050565b6000819050919050565b6000614e1e614e19614e1484614df9565b6141c3565b6137fd565b9050919050565b614e2e81614e03565b82525050565b600081519050919050565b600082825260208201905092915050565b6000819050602082019050919050565b614e6981613917565b82525050565b6000614e7b8383614e60565b60208301905092915050565b6000602082019050919050565b6000614e9f82614e34565b614ea98185614e3f565b9350614eb483614e50565b8060005b83811015614ee5578151614ecc8882614e6f565b9750614ed783614e87565b925050600181019050614eb8565b5085935050505092915050565b600060a082019050614f076000830188613807565b614f146020830187614e25565b8181036040830152614f268186614e94565b9050614f356060830185613eb0565b614f426080830184613807565b9695505050505050565b600081905092915050565b50565b6000614f67600083614f4c565b9150614f7282614f57565b600082019050919050565b6000614f8882614f5a565b9150819050919050565b600060c082019050614fa76000830189613eb0565b614fb46020830188613807565b614fc16040830187614e25565b614fce6060830186614e25565b614fdb6080830185613eb0565b614fe860a0830184613807565b979650505050505050565b60008151905061500281613955565b92915050565b600080600060608486031215615021576150206138ed565b5b600061502f86828701614ff3565b935050602061504086828701614ff3565b925050604061505186828701614ff3565b9150509250925092565b60006040820190506150706000830185613807565b61507d6020830184613807565b939250505056fea26469706673582212206b30d1539eab2a9534d94b6672b33e443d0371c229281fa604e32036b85d0b0564736f6c63430008120033",
			"opcodes": "PUSH1 0x80 PUSH1 0x40 MSTORE PUSH1 0x40 MLOAD DUP1 PUSH1 0x40 ADD PUSH1 0x40 MSTORE DUP1 PUSH1 0xE DUP2 MSTORE PUSH1 0x20 ADD PUSH32 0x4269616F71696E672050616E6461000000000000000000000000000000000000 DUP2 MSTORE POP PUSH1 0x1 SWAP1 DUP2 PUSH3 0x4A SWAP2 SWAP1 PUSH3 0xC2C JUMP JUMPDEST POP PUSH1 0x40 MLOAD DUP1 PUSH1 0x40 ADD PUSH1 0x40 MSTORE DUP1 PUSH1 0x6 DUP2 MSTORE PUSH1 0x20 ADD PUSH32 0x2450414E44410000000000000000000000000000000000000000000000000000 DUP2 MSTORE POP PUSH1 0x2 SWAP1 DUP2 PUSH3 0x91 SWAP2 SWAP1 PUSH3 0xC2C JUMP JUMPDEST POP PUSH1 0x9 PUSH1 0xA PUSH3 0xA2 SWAP2 SWAP1 PUSH3 0xEA3 JUMP JUMPDEST PUSH5 0x174876E800 PUSH3 0xB4 SWAP2 SWAP1 PUSH3 0xEF4 JUMP JUMPDEST PUSH1 0x3 SSTORE PUSH1 0x64 PUSH1 0x3 DUP1 SLOAD PUSH3 0xC9 SWAP2 SWAP1 PUSH3 0xEF4 JUMP JUMPDEST PUSH3 0xD5 SWAP2 SWAP1 PUSH3 0xF6E JUMP JUMPDEST PUSH1 0x4 SSTORE PUSH1 0x64 PUSH1 0x3 DUP1 SLOAD PUSH3 0xEA SWAP2 SWAP1 PUSH3 0xEF4 JUMP JUMPDEST PUSH3 0xF6 SWAP2 SWAP1 PUSH3 0xF6E JUMP JUMPDEST PUSH1 0x5 SSTORE PUSH1 0x3 SLOAD PUSH1 0x7 SSTORE PUSH1 0xF PUSH1 0xC SSTORE PUSH1 0xF PUSH1 0xD SSTORE PUSH1 0x1 PUSH1 0xE SSTORE PUSH1 0x1 PUSH1 0xF SSTORE PUSH1 0x3 PUSH1 0x10 SSTORE PUSH1 0x3 PUSH1 0x11 SSTORE PUSH1 0x1 PUSH1 0x12 SSTORE PUSH1 0x1 PUSH1 0x13 SSTORE PUSH1 0x12 SLOAD PUSH1 0xE SLOAD PUSH1 0xC SLOAD PUSH1 0x10 SLOAD PUSH3 0x13F SWAP2 SWAP1 PUSH3 0xFA6 JUMP JUMPDEST PUSH3 0x14B SWAP2 SWAP1 PUSH3 0xFA6 JUMP JUMPDEST PUSH3 0x157 SWAP2 SWAP1 PUSH3 0xFA6 JUMP JUMPDEST PUSH1 0x14 SSTORE PUSH1 0x13 SLOAD PUSH1 0xF SLOAD PUSH1 0xD SLOAD PUSH1 0x11 SLOAD PUSH3 0x172 SWAP2 SWAP1 PUSH3 0xFA6 JUMP JUMPDEST PUSH3 0x17E SWAP2 SWAP1 PUSH3 0xFA6 JUMP JUMPDEST PUSH3 0x18A SWAP2 SWAP1 PUSH3 0xFA6 JUMP JUMPDEST PUSH1 0x15 SSTORE PUSH1 0x64 PUSH1 0x16 SSTORE PUSH1 0x64 PUSH1 0x1A SSTORE PUSH1 0x64 PUSH1 0x1B SSTORE PUSH1 0x1 PUSH1 0x1D PUSH1 0x14 PUSH2 0x100 EXP DUP2 SLOAD DUP2 PUSH1 0xFF MUL NOT AND SWAP1 DUP4 ISZERO ISZERO MUL OR SWAP1 SSTORE POP PUSH1 0x1 PUSH1 0x1D PUSH1 0x15 PUSH2 0x100 EXP DUP2 SLOAD DUP2 PUSH1 0xFF MUL NOT AND SWAP1 DUP4 ISZERO ISZERO MUL OR SWAP1 SSTORE POP PUSH2 0x2710 PUSH1 0x19 PUSH1 0x3 SLOAD PUSH3 0x1E6 SWAP2 SWAP1 PUSH3 0xEF4 JUMP JUMPDEST PUSH3 0x1F2 SWAP2 SWAP1 PUSH3 0xF6E JUMP JUMPDEST PUSH1 0x1E SSTORE PUSH2 0x2710 PUSH1 0x19 PUSH1 0x3 SLOAD PUSH3 0x209 SWAP2 SWAP1 PUSH3 0xEF4 JUMP JUMPDEST PUSH3 0x215 SWAP2 SWAP1 PUSH3 0xF6E JUMP JUMPDEST PUSH1 0x1F SSTORE PUSH1 0x1E SLOAD PUSH1 0x20 SSTORE PUSH1 0x0 PUSH1 0x21 PUSH1 0x1 PUSH2 0x100 EXP DUP2 SLOAD DUP2 PUSH1 0xFF MUL NOT AND SWAP1 DUP4 ISZERO ISZERO MUL OR SWAP1 SSTORE POP PUSH1 0x0 PUSH1 0x21 PUSH1 0x2 PUSH2 0x100 EXP DUP2 SLOAD DUP2 PUSH1 0xFF MUL NOT AND SWAP1 DUP4 ISZERO ISZERO MUL OR SWAP1 SSTORE POP CALLVALUE DUP1 ISZERO PUSH3 0x261 JUMPI PUSH1 0x0 DUP1 REVERT JUMPDEST POP PUSH1 0x0 PUSH3 0x274 PUSH3 0x9AA PUSH1 0x20 SHL PUSH1 0x20 SHR JUMP JUMPDEST SWAP1 POP DUP1 PUSH1 0x0 DUP1 PUSH2 0x100 EXP DUP2 SLOAD DUP2 PUSH20 0xFFFFFFFFFFFFFFFFFFFFFFFFFFFFFFFFFFFFFFFF MUL NOT AND SWAP1 DUP4 PUSH20 0xFFFFFFFFFFFFFFFFFFFFFFFFFFFFFFFFFFFFFFFF AND MUL OR SWAP1 SSTORE POP DUP1 PUSH20 0xFFFFFFFFFFFFFFFFFFFFFFFFFFFFFFFFFFFFFFFF AND PUSH1 0x0 PUSH20 0xFFFFFFFFFFFFFFFFFFFFFFFFFFFFFFFFFFFFFFFF AND PUSH32 0x8BE0079C531659141344CD1FD0A4F28419497F9722A3DAAFE3B4186F6B6457E0 PUSH1 0x40 MLOAD PUSH1 0x40 MLOAD DUP1 SWAP2 SUB SWAP1 LOG3 POP PUSH20 0x10ED43C718714EB63D5AA57B78B54704E256024E PUSH1 0x1C PUSH1 0x0 PUSH2 0x100 EXP DUP2 SLOAD DUP2 PUSH20 0xFFFFFFFFFFFFFFFFFFFFFFFFFFFFFFFFFFFFFFFF MUL NOT AND SWAP1 DUP4 PUSH20 0xFFFFFFFFFFFFFFFFFFFFFFFFFFFFFFFFFFFFFFFF AND MUL OR SWAP1 SSTORE POP PUSH1 0x1C PUSH1 0x0 SWAP1 SLOAD SWAP1 PUSH2 0x100 EXP SWAP1 DIV PUSH20 0xFFFFFFFFFFFFFFFFFFFFFFFFFFFFFFFFFFFFFFFF AND PUSH20 0xFFFFFFFFFFFFFFFFFFFFFFFFFFFFFFFFFFFFFFFF AND PUSH4 0xC45A0155 PUSH1 0x40 MLOAD DUP2 PUSH4 0xFFFFFFFF AND PUSH1 0xE0 SHL DUP2 MSTORE PUSH1 0x4 ADD PUSH1 0x20 PUSH1 0x40 MLOAD DUP1 DUP4 SUB DUP2 DUP7 GAS STATICCALL ISZERO DUP1 ISZERO PUSH3 0x3D5 JUMPI RETURNDATASIZE PUSH1 0x0 DUP1 RETURNDATACOPY RETURNDATASIZE PUSH1 0x0 REVERT JUMPDEST POP POP POP POP PUSH1 0x40 MLOAD RETURNDATASIZE PUSH1 0x1F NOT PUSH1 0x1F DUP3 ADD AND DUP3 ADD DUP1 PUSH1 0x40 MSTORE POP DUP2 ADD SWAP1 PUSH3 0x3FB SWAP2 SWAP1 PUSH3 0x104B JUMP JUMPDEST PUSH20 0xFFFFFFFFFFFFFFFFFFFFFFFFFFFFFFFFFFFFFFFF AND PUSH4 0xC9C65396 PUSH20 0xBB4CDB9CBD36B01BD1CBAEBF2DE08D9173BC095C ADDRESS PUSH1 0x40 MLOAD DUP4 PUSH4 0xFFFFFFFF AND PUSH1 0xE0 SHL DUP2 MSTORE PUSH1 0x4 ADD PUSH3 0x44B SWAP3 SWAP2 SWAP1 PUSH3 0x108E JUMP JUMPDEST PUSH1 0x20 PUSH1 0x40 MLOAD DUP1 DUP4 SUB DUP2 PUSH1 0x0 DUP8 GAS CALL ISZERO DUP1 ISZERO PUSH3 0x46B JUMPI RETURNDATASIZE PUSH1 0x0 DUP1 RETURNDATACOPY RETURNDATASIZE PUSH1 0x0 REVERT JUMPDEST POP POP POP POP PUSH1 0x40 MLOAD RETURNDATASIZE PUSH1 0x1F NOT PUSH1 0x1F DUP3 ADD AND DUP3 ADD DUP1 PUSH1 0x40 MSTORE POP DUP2 ADD SWAP1 PUSH3 0x491 SWAP2 SWAP1 PUSH3 0x104B JUMP JUMPDEST PUSH1 0x1D PUSH1 0x0 PUSH2 0x100 EXP DUP2 SLOAD DUP2 PUSH20 0xFFFFFFFFFFFFFFFFFFFFFFFFFFFFFFFFFFFFFFFF MUL NOT AND SWAP1 DUP4 PUSH20 0xFFFFFFFFFFFFFFFFFFFFFFFFFFFFFFFFFFFFFFFF AND MUL OR SWAP1 SSTORE POP PUSH32 0xFFFFFFFFFFFFFFFFFFFFFFFFFFFFFFFFFFFFFFFFFFFFFFFFFFFFFFFFFFFFFFFF PUSH1 0x8 PUSH1 0x0 ADDRESS PUSH20 0xFFFFFFFFFFFFFFFFFFFFFFFFFFFFFFFFFFFFFFFF AND PUSH20 0xFFFFFFFFFFFFFFFFFFFFFFFFFFFFFFFFFFFFFFFF AND DUP2 MSTORE PUSH1 0x20 ADD SWAP1 DUP2 MSTORE PUSH1 0x20 ADD PUSH1 0x0 KECCAK256 PUSH1 0x0 PUSH1 0x1C PUSH1 0x0 SWAP1 SLOAD SWAP1 PUSH2 0x100 EXP SWAP1 DIV PUSH20 0xFFFFFFFFFFFFFFFFFFFFFFFFFFFFFFFFFFFFFFFF AND PUSH20 0xFFFFFFFFFFFFFFFFFFFFFFFFFFFFFFFFFFFFFFFF AND PUSH20 0xFFFFFFFFFFFFFFFFFFFFFFFFFFFFFFFFFFFFFFFF AND DUP2 MSTORE PUSH1 0x20 ADD SWAP1 DUP2 MSTORE PUSH1 0x20 ADD PUSH1 0x0 KECCAK256 DUP2 SWAP1 SSTORE POP PUSH32 0xFFFFFFFFFFFFFFFFFFFFFFFFFFFFFFFFFFFFFFFFFFFFFFFFFFFFFFFFFFFFFFFF PUSH1 0x8 PUSH1 0x0 ADDRESS PUSH20 0xFFFFFFFFFFFFFFFFFFFFFFFFFFFFFFFFFFFFFFFF AND PUSH20 0xFFFFFFFFFFFFFFFFFFFFFFFFFFFFFFFFFFFFFFFF AND DUP2 MSTORE PUSH1 0x20 ADD SWAP1 DUP2 MSTORE PUSH1 0x20 ADD PUSH1 0x0 KECCAK256 PUSH1 0x0 CALLER PUSH20 0xFFFFFFFFFFFFFFFFFFFFFFFFFFFFFFFFFFFFFFFF AND PUSH20 0xFFFFFFFFFFFFFFFFFFFFFFFFFFFFFFFFFFFFFFFF AND DUP2 MSTORE PUSH1 0x20 ADD SWAP1 DUP2 MSTORE PUSH1 0x20 ADD PUSH1 0x0 KECCAK256 DUP2 SWAP1 SSTORE POP PUSH1 0x1 PUSH1 0xB PUSH1 0x0 ADDRESS PUSH20 0xFFFFFFFFFFFFFFFFFFFFFFFFFFFFFFFFFFFFFFFF AND PUSH20 0xFFFFFFFFFFFFFFFFFFFFFFFFFFFFFFFFFFFFFFFF AND DUP2 MSTORE PUSH1 0x20 ADD SWAP1 DUP2 MSTORE PUSH1 0x20 ADD PUSH1 0x0 KECCAK256 PUSH1 0x0 PUSH2 0x100 EXP DUP2 SLOAD DUP2 PUSH1 0xFF MUL NOT AND SWAP1 DUP4 ISZERO ISZERO MUL OR SWAP1 SSTORE POP PUSH1 0x1 PUSH1 0xB PUSH1 0x0 PUSH1 0x1C PUSH1 0x0 SWAP1 SLOAD SWAP1 PUSH2 0x100 EXP SWAP1 DIV PUSH20 0xFFFFFFFFFFFFFFFFFFFFFFFFFFFFFFFFFFFFFFFF AND PUSH20 0xFFFFFFFFFFFFFFFFFFFFFFFFFFFFFFFFFFFFFFFF AND PUSH20 0xFFFFFFFFFFFFFFFFFFFFFFFFFFFFFFFFFFFFFFFF AND DUP2 MSTORE PUSH1 0x20 ADD SWAP1 DUP2 MSTORE PUSH1 0x20 ADD PUSH1 0x0 KECCAK256 PUSH1 0x0 PUSH2 0x100 EXP DUP2 SLOAD DUP2 PUSH1 0xFF MUL NOT AND SWAP1 DUP4 ISZERO ISZERO MUL OR SWAP1 SSTORE POP PUSH1 0x1 PUSH1 0xB PUSH1 0x0 PUSH1 0x1D PUSH1 0x0 SWAP1 SLOAD SWAP1 PUSH2 0x100 EXP SWAP1 DIV PUSH20 0xFFFFFFFFFFFFFFFFFFFFFFFFFFFFFFFFFFFFFFFF AND PUSH20 0xFFFFFFFFFFFFFFFFFFFFFFFFFFFFFFFFFFFFFFFF AND PUSH20 0xFFFFFFFFFFFFFFFFFFFFFFFFFFFFFFFFFFFFFFFF AND DUP2 MSTORE PUSH1 0x20 ADD SWAP1 DUP2 MSTORE PUSH1 0x20 ADD PUSH1 0x0 KECCAK256 PUSH1 0x0 PUSH2 0x100 EXP DUP2 SLOAD DUP2 PUSH1 0xFF MUL NOT AND SWAP1 DUP4 ISZERO ISZERO MUL OR SWAP1 SSTORE POP PUSH1 0x1 PUSH1 0xB PUSH1 0x0 CALLER PUSH20 0xFFFFFFFFFFFFFFFFFFFFFFFFFFFFFFFFFFFFFFFF AND PUSH20 0xFFFFFFFFFFFFFFFFFFFFFFFFFFFFFFFFFFFFFFFF AND DUP2 MSTORE PUSH1 0x20 ADD SWAP1 DUP2 MSTORE PUSH1 0x20 ADD PUSH1 0x0 KECCAK256 PUSH1 0x0 PUSH2 0x100 EXP DUP2 SLOAD DUP2 PUSH1 0xFF MUL NOT AND SWAP1 DUP4 ISZERO ISZERO MUL OR SWAP1 SSTORE POP PUSH1 0x1 PUSH1 0x9 PUSH1 0x0 CALLER PUSH20 0xFFFFFFFFFFFFFFFFFFFFFFFFFFFFFFFFFFFFFFFF AND PUSH20 0xFFFFFFFFFFFFFFFFFFFFFFFFFFFFFFFFFFFFFFFF AND DUP2 MSTORE PUSH1 0x20 ADD SWAP1 DUP2 MSTORE PUSH1 0x20 ADD PUSH1 0x0 KECCAK256 PUSH1 0x0 PUSH2 0x100 EXP DUP2 SLOAD DUP2 PUSH1 0xFF MUL NOT AND SWAP1 DUP4 ISZERO ISZERO MUL OR SWAP1 SSTORE POP CALLER PUSH1 0x17 PUSH1 0x0 PUSH2 0x100 EXP DUP2 SLOAD DUP2 PUSH20 0xFFFFFFFFFFFFFFFFFFFFFFFFFFFFFFFFFFFFFFFF MUL NOT AND SWAP1 DUP4 PUSH20 0xFFFFFFFFFFFFFFFFFFFFFFFFFFFFFFFFFFFFFFFF AND MUL OR SWAP1 SSTORE POP CALLER PUSH1 0x19 PUSH1 0x0 PUSH2 0x100 EXP DUP2 SLOAD DUP2 PUSH20 0xFFFFFFFFFFFFFFFFFFFFFFFFFFFFFFFFFFFFFFFF MUL NOT AND SWAP1 DUP4 PUSH20 0xFFFFFFFFFFFFFFFFFFFFFFFFFFFFFFFFFFFFFFFF AND MUL OR SWAP1 SSTORE POP CALLER PUSH1 0x18 PUSH1 0x0 PUSH2 0x100 EXP DUP2 SLOAD DUP2 PUSH20 0xFFFFFFFFFFFFFFFFFFFFFFFFFFFFFFFFFFFFFFFF MUL NOT AND SWAP1 DUP4 PUSH20 0xFFFFFFFFFFFFFFFFFFFFFFFFFFFFFFFFFFFFFFFF AND MUL OR SWAP1 SSTORE POP PUSH1 0x3 SLOAD PUSH1 0x6 PUSH1 0x0 CALLER PUSH20 0xFFFFFFFFFFFFFFFFFFFFFFFFFFFFFFFFFFFFFFFF AND PUSH20 0xFFFFFFFFFFFFFFFFFFFFFFFFFFFFFFFFFFFFFFFF AND DUP2 MSTORE PUSH1 0x20 ADD SWAP1 DUP2 MSTORE PUSH1 0x20 ADD PUSH1 0x0 KECCAK256 DUP2 SWAP1 SSTORE POP CALLER PUSH20 0xFFFFFFFFFFFFFFFFFFFFFFFFFFFFFFFFFFFFFFFF AND PUSH1 0x0 PUSH20 0xFFFFFFFFFFFFFFFFFFFFFFFFFFFFFFFFFFFFFFFF AND PUSH32 0xDDF252AD1BE2C89B69C2B068FC378DAA952BA7F163C4A11628F55A4DF523B3EF PUSH1 0x3 SLOAD PUSH1 0x40 MLOAD PUSH3 0x99C SWAP2 SWAP1 PUSH3 0x10CC JUMP JUMPDEST PUSH1 0x40 MLOAD DUP1 SWAP2 SUB SWAP1 LOG3 PUSH3 0x10E9 JUMP JUMPDEST PUSH1 0x0 CALLER SWAP1 POP SWAP1 JUMP JUMPDEST PUSH1 0x0 DUP2 MLOAD SWAP1 POP SWAP2 SWAP1 POP JUMP JUMPDEST PUSH32 0x4E487B7100000000000000000000000000000000000000000000000000000000 PUSH1 0x0 MSTORE PUSH1 0x41 PUSH1 0x4 MSTORE PUSH1 0x24 PUSH1 0x0 REVERT JUMPDEST PUSH32 0x4E487B7100000000000000000000000000000000000000000000000000000000 PUSH1 0x0 MSTORE PUSH1 0x22 PUSH1 0x4 MSTORE PUSH1 0x24 PUSH1 0x0 REVERT JUMPDEST PUSH1 0x0 PUSH1 0x2 DUP3 DIV SWAP1 POP PUSH1 0x1 DUP3 AND DUP1 PUSH3 0xA34 JUMPI PUSH1 0x7F DUP3 AND SWAP2 POP JUMPDEST PUSH1 0x20 DUP3 LT DUP2 SUB PUSH3 0xA4A JUMPI PUSH3 0xA49 PUSH3 0x9EC JUMP JUMPDEST JUMPDEST POP SWAP2 SWAP1 POP JUMP JUMPDEST PUSH1 0x0 DUP2 SWAP1 POP DUP2 PUSH1 0x0 MSTORE PUSH1 0x20 PUSH1 0x0 KECCAK256 SWAP1 POP SWAP2 SWAP1 POP JUMP JUMPDEST PUSH1 0x0 PUSH1 0x20 PUSH1 0x1F DUP4 ADD DIV SWAP1 POP SWAP2 SWAP1 POP JUMP JUMPDEST PUSH1 0x0 DUP3 DUP3 SHL SWAP1 POP SWAP3 SWAP2 POP POP JUMP JUMPDEST PUSH1 0x0 PUSH1 0x8 DUP4 MUL PUSH3 0xAB4 PUSH32 0xFFFFFFFFFFFFFFFFFFFFFFFFFFFFFFFFFFFFFFFFFFFFFFFFFFFFFFFFFFFFFFFF DUP3 PUSH3 0xA75 JUMP JUMPDEST PUSH3 0xAC0 DUP7 DUP4 PUSH3 0xA75 JUMP JUMPDEST SWAP6 POP DUP1 NOT DUP5 AND SWAP4 POP DUP1 DUP7 AND DUP5 OR SWAP3 POP POP POP SWAP4 SWAP3 POP POP POP JUMP JUMPDEST PUSH1 0x0 DUP2 SWAP1 POP SWAP2 SWAP1 POP JUMP JUMPDEST PUSH1 0x0 DUP2 SWAP1 POP SWAP2 SWAP1 POP JUMP JUMPDEST PUSH1 0x0 PUSH3 0xB0D PUSH3 0xB07 PUSH3 0xB01 DUP5 PUSH3 0xAD8 JUMP JUMPDEST PUSH3 0xAE2 JUMP JUMPDEST PUSH3 0xAD8 JUMP JUMPDEST SWAP1 POP SWAP2 SWAP1 POP JUMP JUMPDEST PUSH1 0x0 DUP2 SWAP1 POP SWAP2 SWAP1 POP JUMP JUMPDEST PUSH3 0xB29 DUP4 PUSH3 0xAEC JUMP JUMPDEST PUSH3 0xB41 PUSH3 0xB38 DUP3 PUSH3 0xB14 JUMP JUMPDEST DUP5 DUP5 SLOAD PUSH3 0xA82 JUMP JUMPDEST DUP3 SSTORE POP POP POP POP JUMP JUMPDEST PUSH1 0x0 SWAP1 JUMP JUMPDEST PUSH3 0xB58 PUSH3 0xB49 JUMP JUMPDEST PUSH3 0xB65 DUP2 DUP5 DUP5 PUSH3 0xB1E JUMP JUMPDEST POP POP POP JUMP JUMPDEST JUMPDEST DUP2 DUP2 LT ISZERO PUSH3 0xB8D JUMPI PUSH3 0xB81 PUSH1 0x0 DUP3 PUSH3 0xB4E JUMP JUMPDEST PUSH1 0x1 DUP2 ADD SWAP1 POP PUSH3 0xB6B JUMP JUMPDEST POP POP JUMP JUMPDEST PUSH1 0x1F DUP3 GT ISZERO PUSH3 0xBDC JUMPI PUSH3 0xBA6 DUP2 PUSH3 0xA50 JUMP JUMPDEST PUSH3 0xBB1 DUP5 PUSH3 0xA65 JUMP JUMPDEST DUP2 ADD PUSH1 0x20 DUP6 LT ISZERO PUSH3 0xBC1 JUMPI DUP2 SWAP1 POP JUMPDEST PUSH3 0xBD9 PUSH3 0xBD0 DUP6 PUSH3 0xA65 JUMP JUMPDEST DUP4 ADD DUP3 PUSH3 0xB6A JUMP JUMPDEST POP POP JUMPDEST POP POP POP JUMP JUMPDEST PUSH1 0x0 DUP3 DUP3 SHR SWAP1 POP SWAP3 SWAP2 POP POP JUMP JUMPDEST PUSH1 0x0 PUSH3 0xC01 PUSH1 0x0 NOT DUP5 PUSH1 0x8 MUL PUSH3 0xBE1 JUMP JUMPDEST NOT DUP1 DUP4 AND SWAP2 POP POP SWAP3 SWAP2 POP POP JUMP JUMPDEST PUSH1 0x0 PUSH3 0xC1C DUP4 DUP4 PUSH3 0xBEE JUMP JUMPDEST SWAP2 POP DUP3 PUSH1 0x2 MUL DUP3 OR SWAP1 POP SWAP3 SWAP2 POP POP JUMP JUMPDEST PUSH3 0xC37 DUP3 PUSH3 0x9B2 JUMP JUMPDEST PUSH8 0xFFFFFFFFFFFFFFFF DUP2 GT ISZERO PUSH3 0xC53 JUMPI PUSH3 0xC52 PUSH3 0x9BD JUMP JUMPDEST JUMPDEST PUSH3 0xC5F DUP3 SLOAD PUSH3 0xA1B JUMP JUMPDEST PUSH3 0xC6C DUP3 DUP3 DUP6 PUSH3 0xB91 JUMP JUMPDEST PUSH1 0x0 PUSH1 0x20 SWAP1 POP PUSH1 0x1F DUP4 GT PUSH1 0x1 DUP2 EQ PUSH3 0xCA4 JUMPI PUSH1 0x0 DUP5 ISZERO PUSH3 0xC8F JUMPI DUP3 DUP8 ADD MLOAD SWAP1 POP JUMPDEST PUSH3 0xC9B DUP6 DUP3 PUSH3 0xC0E JUMP JUMPDEST DUP7 SSTORE POP PUSH3 0xD0B JUMP JUMPDEST PUSH1 0x1F NOT DUP5 AND PUSH3 0xCB4 DUP7 PUSH3 0xA50 JUMP JUMPDEST PUSH1 0x0 JUMPDEST DUP3 DUP2 LT ISZERO PUSH3 0xCDE JUMPI DUP5 DUP10 ADD MLOAD DUP3 SSTORE PUSH1 0x1 DUP3 ADD SWAP2 POP PUSH1 0x20 DUP6 ADD SWAP5 POP PUSH1 0x20 DUP2 ADD SWAP1 POP PUSH3 0xCB7 JUMP JUMPDEST DUP7 DUP4 LT ISZERO PUSH3 0xCFE JUMPI DUP5 DUP10 ADD MLOAD PUSH3 0xCFA PUSH1 0x1F DUP10 AND DUP3 PUSH3 0xBEE JUMP JUMPDEST DUP4 SSTORE POP JUMPDEST PUSH1 0x1 PUSH1 0x2 DUP9 MUL ADD DUP9 SSTORE POP POP POP JUMPDEST POP POP POP POP POP POP JUMP JUMPDEST PUSH32 0x4E487B7100000000000000000000000000000000000000000000000000000000 PUSH1 0x0 MSTORE PUSH1 0x11 PUSH1 0x4 MSTORE PUSH1 0x24 PUSH1 0x0 REVERT JUMPDEST PUSH1 0x0 DUP2 PUSH1 0x1 SHR SWAP1 POP SWAP2 SWAP1 POP JUMP JUMPDEST PUSH1 0x0 DUP1 DUP3 SWAP2 POP DUP4 SWAP1 POP JUMPDEST PUSH1 0x1 DUP6 GT ISZERO PUSH3 0xDA1 JUMPI DUP1 DUP7 DIV DUP2 GT ISZERO PUSH3 0xD79 JUMPI PUSH3 0xD78 PUSH3 0xD13 JUMP JUMPDEST JUMPDEST PUSH1 0x1 DUP6 AND ISZERO PUSH3 0xD89 JUMPI DUP1 DUP3 MUL SWAP2 POP JUMPDEST DUP1 DUP2 MUL SWAP1 POP PUSH3 0xD99 DUP6 PUSH3 0xD42 JUMP JUMPDEST SWAP5 POP PUSH3 0xD59 JUMP JUMPDEST SWAP5 POP SWAP5 SWAP3 POP POP POP JUMP JUMPDEST PUSH1 0x0 DUP3 PUSH3 0xDBC JUMPI PUSH1 0x1 SWAP1 POP PUSH3 0xE8F JUMP JUMPDEST DUP2 PUSH3 0xDCC JUMPI PUSH1 0x0 SWAP1 POP PUSH3 0xE8F JUMP JUMPDEST DUP2 PUSH1 0x1 DUP2 EQ PUSH3 0xDE5 JUMPI PUSH1 0x2 DUP2 EQ PUSH3 0xDF0 JUMPI PUSH3 0xE26 JUMP JUMPDEST PUSH1 0x1 SWAP2 POP POP PUSH3 0xE8F JUMP JUMPDEST PUSH1 0xFF DUP5 GT ISZERO PUSH3 0xE05 JUMPI PUSH3 0xE04 PUSH3 0xD13 JUMP JUMPDEST JUMPDEST DUP4 PUSH1 0x2 EXP SWAP2 POP DUP5 DUP3 GT ISZERO PUSH3 0xE1F JUMPI PUSH3 0xE1E PUSH3 0xD13 JUMP JUMPDEST JUMPDEST POP PUSH3 0xE8F JUMP JUMPDEST POP PUSH1 0x20 DUP4 LT PUSH2 0x133 DUP4 LT AND PUSH1 0x4E DUP5 LT PUSH1 0xB DUP5 LT AND OR ISZERO PUSH3 0xE60 JUMPI DUP3 DUP3 EXP SWAP1 POP DUP4 DUP2 GT ISZERO PUSH3 0xE5A JUMPI PUSH3 0xE59 PUSH3 0xD13 JUMP JUMPDEST JUMPDEST PUSH3 0xE8F JUMP JUMPDEST PUSH3 0xE6F DUP5 DUP5 DUP5 PUSH1 0x1 PUSH3 0xD4F JUMP JUMPDEST SWAP3 POP SWAP1 POP DUP2 DUP5 DIV DUP2 GT ISZERO PUSH3 0xE89 JUMPI PUSH3 0xE88 PUSH3 0xD13 JUMP JUMPDEST JUMPDEST DUP2 DUP2 MUL SWAP1 POP JUMPDEST SWAP4 SWAP3 POP POP POP JUMP JUMPDEST PUSH1 0x0 PUSH1 0xFF DUP3 AND SWAP1 POP SWAP2 SWAP1 POP JUMP JUMPDEST PUSH1 0x0 PUSH3 0xEB0 DUP3 PUSH3 0xAD8 JUMP JUMPDEST SWAP2 POP PUSH3 0xEBD DUP4 PUSH3 0xE96 JUMP JUMPDEST SWAP3 POP PUSH3 0xEEC PUSH32 0xFFFFFFFFFFFFFFFFFFFFFFFFFFFFFFFFFFFFFFFFFFFFFFFFFFFFFFFFFFFFFFFF DUP5 DUP5 PUSH3 0xDAA JUMP JUMPDEST SWAP1 POP SWAP3 SWAP2 POP POP JUMP JUMPDEST PUSH1 0x0 PUSH3 0xF01 DUP3 PUSH3 0xAD8 JUMP JUMPDEST SWAP2 POP PUSH3 0xF0E DUP4 PUSH3 0xAD8 JUMP JUMPDEST SWAP3 POP DUP3 DUP3 MUL PUSH3 0xF1E DUP2 PUSH3 0xAD8 JUMP JUMPDEST SWAP2 POP DUP3 DUP3 DIV DUP5 EQ DUP4 ISZERO OR PUSH3 0xF38 JUMPI PUSH3 0xF37 PUSH3 0xD13 JUMP JUMPDEST JUMPDEST POP SWAP3 SWAP2 POP POP JUMP JUMPDEST PUSH32 0x4E487B7100000000000000000000000000000000000000000000000000000000 PUSH1 0x0 MSTORE PUSH1 0x12 PUSH1 0x4 MSTORE PUSH1 0x24 PUSH1 0x0 REVERT JUMPDEST PUSH1 0x0 PUSH3 0xF7B DUP3 PUSH3 0xAD8 JUMP JUMPDEST SWAP2 POP PUSH3 0xF88 DUP4 PUSH3 0xAD8 JUMP JUMPDEST SWAP3 POP DUP3 PUSH3 0xF9B JUMPI PUSH3 0xF9A PUSH3 0xF3F JUMP JUMPDEST JUMPDEST DUP3 DUP3 DIV SWAP1 POP SWAP3 SWAP2 POP POP JUMP JUMPDEST PUSH1 0x0 PUSH3 0xFB3 DUP3 PUSH3 0xAD8 JUMP JUMPDEST SWAP2 POP PUSH3 0xFC0 DUP4 PUSH3 0xAD8 JUMP JUMPDEST SWAP3 POP DUP3 DUP3 ADD SWAP1 POP DUP1 DUP3 GT ISZERO PUSH3 0xFDB JUMPI PUSH3 0xFDA PUSH3 0xD13 JUMP JUMPDEST JUMPDEST SWAP3 SWAP2 POP POP JUMP JUMPDEST PUSH1 0x0 DUP1 REVERT JUMPDEST PUSH1 0x0 PUSH20 0xFFFFFFFFFFFFFFFFFFFFFFFFFFFFFFFFFFFFFFFF DUP3 AND SWAP1 POP SWAP2 SWAP1 POP JUMP JUMPDEST PUSH1 0x0 PUSH3 0x1013 DUP3 PUSH3 0xFE6 JUMP JUMPDEST SWAP1 POP SWAP2 SWAP1 POP JUMP JUMPDEST PUSH3 0x1025 DUP2 PUSH3 0x1006 JUMP JUMPDEST DUP2 EQ PUSH3 0x1031 JUMPI PUSH1 0x0 DUP1 REVERT JUMPDEST POP JUMP JUMPDEST PUSH1 0x0 DUP2 MLOAD SWAP1 POP PUSH3 0x1045 DUP2 PUSH3 0x101A JUMP JUMPDEST SWAP3 SWAP2 POP POP JUMP JUMPDEST PUSH1 0x0 PUSH1 0x20 DUP3 DUP5 SUB SLT ISZERO PUSH3 0x1064 JUMPI PUSH3 0x1063 PUSH3 0xFE1 JUMP JUMPDEST JUMPDEST PUSH1 0x0 PUSH3 0x1074 DUP5 DUP3 DUP6 ADD PUSH3 0x1034 JUMP JUMPDEST SWAP2 POP POP SWAP3 SWAP2 POP POP JUMP JUMPDEST PUSH3 0x1088 DUP2 PUSH3 0x1006 JUMP JUMPDEST DUP3 MSTORE POP POP JUMP JUMPDEST PUSH1 0x0 PUSH1 0x40 DUP3 ADD SWAP1 POP PUSH3 0x10A5 PUSH1 0x0 DUP4 ADD DUP6 PUSH3 0x107D JUMP JUMPDEST PUSH3 0x10B4 PUSH1 0x20 DUP4 ADD DUP5 PUSH3 0x107D JUMP JUMPDEST SWAP4 SWAP3 POP POP POP JUMP JUMPDEST PUSH3 0x10C6 DUP2 PUSH3 0xAD8 JUMP JUMPDEST DUP3 MSTORE POP POP JUMP JUMPDEST PUSH1 0x0 PUSH1 0x20 DUP3 ADD SWAP1 POP PUSH3 0x10E3 PUSH1 0x0 DUP4 ADD DUP5 PUSH3 0x10BB JUMP JUMPDEST SWAP3 SWAP2 POP POP JUMP JUMPDEST PUSH2 0x50BA DUP1 PUSH3 0x10F9 PUSH1 0x0 CODECOPY PUSH1 0x0 RETURN INVALID PUSH1 0x80 PUSH1 0x40 MSTORE PUSH1 0x4 CALLDATASIZE LT PUSH2 0x28C JUMPI PUSH1 0x0 CALLDATALOAD PUSH1 0xE0 SHR DUP1 PUSH4 0x715018A6 GT PUSH2 0x15A JUMPI DUP1 PUSH4 0xB0F7EC38 GT PUSH2 0xC1 JUMPI DUP1 PUSH4 0xD7C01032 GT PUSH2 0x7A JUMPI DUP1 PUSH4 0xD7C01032 EQ PUSH2 0x9EB JUMPI DUP1 PUSH4 0xDD62ED3E EQ PUSH2 0xA14 JUMPI DUP1 PUSH4 0xEC610DC0 EQ PUSH2 0xA51 JUMPI DUP1 PUSH4 0xF2FDE38B EQ PUSH2 0xA7A JUMPI DUP1 PUSH4 0xF84BA65D EQ PUSH2 0xAA3 JUMPI DUP1 PUSH4 0xF887EA40 EQ PUSH2 0xACC JUMPI PUSH2 0x293 JUMP JUMPDEST DUP1 PUSH4 0xB0F7EC38 EQ PUSH2 0x8D6 JUMPI DUP1 PUSH4 0xB93BDB5F EQ PUSH2 0x901 JUMPI DUP1 PUSH4 0xBBC572A6 EQ PUSH2 0x931 JUMPI DUP1 PUSH4 0xC3717A9A EQ PUSH2 0x95C JUMPI DUP1 PUSH4 0xD51ED1C8 EQ PUSH2 0x985 JUMPI DUP1 PUSH4 0xD735DC92 EQ PUSH2 0x9C2 JUMPI PUSH2 0x293 JUMP JUMPDEST DUP1 PUSH4 0x8F9A55C0 GT PUSH2 0x113 JUMPI DUP1 PUSH4 0x8F9A55C0 EQ PUSH2 0x7C4 JUMPI DUP1 PUSH4 0x95D89B41 EQ PUSH2 0x7EF JUMPI DUP1 PUSH4 0x9C82A18A EQ PUSH2 0x81A JUMPI DUP1 PUSH4 0xA3895FFF EQ PUSH2 0x845 JUMPI DUP1 PUSH4 0xA8AA1B31 EQ PUSH2 0x86E JUMPI DUP1 PUSH4 0xA9059CBB EQ PUSH2 0x899 JUMPI PUSH2 0x293 JUMP JUMPDEST DUP1 PUSH4 0x715018A6 EQ PUSH2 0x6DA JUMPI DUP1 PUSH4 0x77A40178 EQ PUSH2 0x6F1 JUMPI DUP1 PUSH4 0x79AFB064 EQ PUSH2 0x71A JUMPI DUP1 PUSH4 0x7D1DB4A5 EQ PUSH2 0x743 JUMPI DUP1 PUSH4 0x893D20E8 EQ PUSH2 0x76E JUMPI DUP1 PUSH4 0x8DA5CB5B EQ PUSH2 0x799 JUMPI PUSH2 0x293 JUMP JUMPDEST DUP1 PUSH4 0x364333F4 GT PUSH2 0x1FE JUMPI DUP1 PUSH4 0x571AC8B0 GT PUSH2 0x1B7 JUMPI DUP1 PUSH4 0x571AC8B0 EQ PUSH2 0x5B3 JUMPI DUP1 PUSH4 0x5CBD616A EQ PUSH2 0x5F0 JUMPI DUP1 PUSH4 0x613F930F EQ PUSH2 0x61B JUMPI DUP1 PUSH4 0x6308FB98 EQ PUSH2 0x64B JUMPI DUP1 PUSH4 0x658D4B7F EQ PUSH2 0x674 JUMPI DUP1 PUSH4 0x70A08231 EQ PUSH2 0x69D JUMPI PUSH2 0x293 JUMP JUMPDEST DUP1 PUSH4 0x364333F4 EQ PUSH2 0x4CB JUMPI DUP1 PUSH4 0x39137F8B EQ PUSH2 0x4E2 JUMPI DUP1 PUSH4 0x400343E7 EQ PUSH2 0x4F9 JUMPI DUP1 PUSH4 0x45CE5365 EQ PUSH2 0x522 JUMPI DUP1 PUSH4 0x51FB012D EQ PUSH2 0x55F JUMPI DUP1 PUSH4 0x5353A2D8 EQ PUSH2 0x58A JUMPI PUSH2 0x293 JUMP JUMPDEST DUP1 PUSH4 0x17800287 GT PUSH2 0x250 JUMPI DUP1 PUSH4 0x17800287 EQ PUSH2 0x3A5 JUMPI DUP1 PUSH4 0x18160DDD EQ PUSH2 0x3D0 JUMPI DUP1 PUSH4 0x23B872DD EQ PUSH2 0x3FB JUMPI DUP1 PUSH4 0x2B112E49 EQ PUSH2 0x438 JUMPI DUP1 PUSH4 0x2D838119 EQ PUSH2 0x463 JUMPI DUP1 PUSH4 0x313CE567 EQ PUSH2 0x4A0 JUMPI PUSH2 0x293 JUMP JUMPDEST DUP1 PUSH4 0x445B667 EQ PUSH2 0x298 JUMPI DUP1 PUSH4 0x6FDDE03 EQ PUSH2 0x2C3 JUMPI DUP1 PUSH4 0x95EA7B3 EQ PUSH2 0x2EE JUMPI DUP1 PUSH4 0xCFC15F9 EQ PUSH2 0x32B JUMPI DUP1 PUSH4 0x1161AE39 EQ PUSH2 0x368 JUMPI PUSH2 0x293 JUMP JUMPDEST CALLDATASIZE PUSH2 0x293 JUMPI STOP JUMPDEST PUSH1 0x0 DUP1 REVERT JUMPDEST CALLVALUE DUP1 ISZERO PUSH2 0x2A4 JUMPI PUSH1 0x0 DUP1 REVERT JUMPDEST POP PUSH2 0x2AD PUSH2 0xAF7 JUMP JUMPDEST PUSH1 0x40 MLOAD PUSH2 0x2BA SWAP2 SWAP1 PUSH2 0x3816 JUMP JUMPDEST PUSH1 0x40 MLOAD DUP1 SWAP2 SUB SWAP1 RETURN JUMPDEST CALLVALUE DUP1 ISZERO PUSH2 0x2CF JUMPI PUSH1 0x0 DUP1 REVERT JUMPDEST POP PUSH2 0x2D8 PUSH2 0xAFD JUMP JUMPDEST PUSH1 0x40 MLOAD PUSH2 0x2E5 SWAP2 SWAP1 PUSH2 0x38C1 JUMP JUMPDEST PUSH1 0x40 MLOAD DUP1 SWAP2 SUB SWAP1 RETURN JUMPDEST CALLVALUE DUP1 ISZERO PUSH2 0x2FA JUMPI PUSH1 0x0 DUP1 REVERT JUMPDEST POP PUSH2 0x315 PUSH1 0x4 DUP1 CALLDATASIZE SUB DUP2 ADD SWAP1 PUSH2 0x310 SWAP2 SWAP1 PUSH2 0x3981 JUMP JUMPDEST PUSH2 0xB8F JUMP JUMPDEST PUSH1 0x40 MLOAD PUSH2 0x322 SWAP2 SWAP1 PUSH2 0x39DC JUMP JUMPDEST PUSH1 0x40 MLOAD DUP1 SWAP2 SUB SWAP1 RETURN JUMPDEST CALLVALUE DUP1 ISZERO PUSH2 0x337 JUMPI PUSH1 0x0 DUP1 REVERT JUMPDEST POP PUSH2 0x352 PUSH1 0x4 DUP1 CALLDATASIZE SUB DUP2 ADD SWAP1 PUSH2 0x34D SWAP2 SWAP1 PUSH2 0x39F7 JUMP JUMPDEST PUSH2 0xC81 JUMP JUMPDEST PUSH1 0x40 MLOAD PUSH2 0x35F SWAP2 SWAP1 PUSH2 0x3816 JUMP JUMPDEST PUSH1 0x40 MLOAD DUP1 SWAP2 SUB SWAP1 RETURN JUMPDEST CALLVALUE DUP1 ISZERO PUSH2 0x374 JUMPI PUSH1 0x0 DUP1 REVERT JUMPDEST POP PUSH2 0x38F PUSH1 0x4 DUP1 CALLDATASIZE SUB DUP2 ADD SWAP1 PUSH2 0x38A SWAP2 SWAP1 PUSH2 0x3A24 JUMP JUMPDEST PUSH2 0xC99 JUMP JUMPDEST PUSH1 0x40 MLOAD PUSH2 0x39C SWAP2 SWAP1 PUSH2 0x39DC JUMP JUMPDEST PUSH1 0x40 MLOAD DUP1 SWAP2 SUB SWAP1 RETURN JUMPDEST CALLVALUE DUP1 ISZERO PUSH2 0x3B1 JUMPI PUSH1 0x0 DUP1 REVERT JUMPDEST POP PUSH2 0x3BA PUSH2 0xCAE JUMP JUMPDEST PUSH1 0x40 MLOAD PUSH2 0x3C7 SWAP2 SWAP1 PUSH2 0x3816 JUMP JUMPDEST PUSH1 0x40 MLOAD DUP1 SWAP2 SUB SWAP1 RETURN JUMPDEST CALLVALUE DUP1 ISZERO PUSH2 0x3DC JUMPI PUSH1 0x0 DUP1 REVERT JUMPDEST POP PUSH2 0x3E5 PUSH2 0xCB4 JUMP JUMPDEST PUSH1 0x40 MLOAD PUSH2 0x3F2 SWAP2 SWAP1 PUSH2 0x3816 JUMP JUMPDEST PUSH1 0x40 MLOAD DUP1 SWAP2 SUB SWAP1 RETURN JUMPDEST CALLVALUE DUP1 ISZERO PUSH2 0x407 JUMPI PUSH1 0x0 DUP1 REVERT JUMPDEST POP PUSH2 0x422 PUSH1 0x4 DUP1 CALLDATASIZE SUB DUP2 ADD SWAP1 PUSH2 0x41D SWAP2 SWAP1 PUSH2 0x3A64 JUMP JUMPDEST PUSH2 0xCBE JUMP JUMPDEST PUSH1 0x40 MLOAD PUSH2 0x42F SWAP2 SWAP1 PUSH2 0x39DC JUMP JUMPDEST PUSH1 0x40 MLOAD DUP1 SWAP2 SUB SWAP1 RETURN JUMPDEST CALLVALUE DUP1 ISZERO PUSH2 0x444 JUMPI PUSH1 0x0 DUP1 REVERT JUMPDEST POP PUSH2 0x44D PUSH2 0xEBE JUMP JUMPDEST PUSH1 0x40 MLOAD PUSH2 0x45A SWAP2 SWAP1 PUSH2 0x3816 JUMP JUMPDEST PUSH1 0x40 MLOAD DUP1 SWAP2 SUB SWAP1 RETURN JUMPDEST CALLVALUE DUP1 ISZERO PUSH2 0x46F JUMPI PUSH1 0x0 DUP1 REVERT JUMPDEST POP PUSH2 0x48A PUSH1 0x4 DUP1 CALLDATASIZE SUB DUP2 ADD SWAP1 PUSH2 0x485 SWAP2 SWAP1 PUSH2 0x3AB7 JUMP JUMPDEST PUSH2 0xEFF JUMP JUMPDEST PUSH1 0x40 MLOAD PUSH2 0x497 SWAP2 SWAP1 PUSH2 0x3816 JUMP JUMPDEST PUSH1 0x40 MLOAD DUP1 SWAP2 SUB SWAP1 RETURN JUMPDEST CALLVALUE DUP1 ISZERO PUSH2 0x4AC JUMPI PUSH1 0x0 DUP1 REVERT JUMPDEST POP PUSH2 0x4B5 PUSH2 0xF31 JUMP JUMPDEST PUSH1 0x40 MLOAD PUSH2 0x4C2 SWAP2 SWAP1 PUSH2 0x3B00 JUMP JUMPDEST PUSH1 0x40 MLOAD DUP1 SWAP2 SUB SWAP1 RETURN JUMPDEST CALLVALUE DUP1 ISZERO PUSH2 0x4D7 JUMPI PUSH1 0x0 DUP1 REVERT JUMPDEST POP PUSH2 0x4E0 PUSH2 0xF3A JUMP JUMPDEST STOP JUMPDEST CALLVALUE DUP1 ISZERO PUSH2 0x4EE JUMPI PUSH1 0x0 DUP1 REVERT JUMPDEST POP PUSH2 0x4F7 PUSH2 0x1018 JUMP JUMPDEST STOP JUMPDEST CALLVALUE DUP1 ISZERO PUSH2 0x505 JUMPI PUSH1 0x0 DUP1 REVERT JUMPDEST POP PUSH2 0x520 PUSH1 0x4 DUP1 CALLDATASIZE SUB DUP2 ADD SWAP1 PUSH2 0x51B SWAP2 SWAP1 PUSH2 0x3B1B JUMP JUMPDEST PUSH2 0x10CA JUMP JUMPDEST STOP JUMPDEST CALLVALUE DUP1 ISZERO PUSH2 0x52E JUMPI PUSH1 0x0 DUP1 REVERT JUMPDEST POP PUSH2 0x549 PUSH1 0x4 DUP1 CALLDATASIZE SUB DUP2 ADD SWAP1 PUSH2 0x544 SWAP2 SWAP1 PUSH2 0x3AB7 JUMP JUMPDEST PUSH2 0x12B7 JUMP JUMPDEST PUSH1 0x40 MLOAD PUSH2 0x556 SWAP2 SWAP1 PUSH2 0x3816 JUMP JUMPDEST PUSH1 0x40 MLOAD DUP1 SWAP2 SUB SWAP1 RETURN JUMPDEST CALLVALUE DUP1 ISZERO PUSH2 0x56B JUMPI PUSH1 0x0 DUP1 REVERT JUMPDEST POP PUSH2 0x574 PUSH2 0x12E9 JUMP JUMPDEST PUSH1 0x40 MLOAD PUSH2 0x581 SWAP2 SWAP1 PUSH2 0x39DC JUMP JUMPDEST PUSH1 0x40 MLOAD DUP1 SWAP2 SUB SWAP1 RETURN JUMPDEST CALLVALUE DUP1 ISZERO PUSH2 0x596 JUMPI PUSH1 0x0 DUP1 REVERT JUMPDEST POP PUSH2 0x5B1 PUSH1 0x4 DUP1 CALLDATASIZE SUB DUP2 ADD SWAP1 PUSH2 0x5AC SWAP2 SWAP1 PUSH2 0x3D06 JUMP JUMPDEST PUSH2 0x12FC JUMP JUMPDEST STOP JUMPDEST CALLVALUE DUP1 ISZERO PUSH2 0x5BF JUMPI PUSH1 0x0 DUP1 REVERT JUMPDEST POP PUSH2 0x5DA PUSH1 0x4 DUP1 CALLDATASIZE SUB DUP2 ADD SWAP1 PUSH2 0x5D5 SWAP2 SWAP1 PUSH2 0x39F7 JUMP JUMPDEST PUSH2 0x13A4 JUMP JUMPDEST PUSH1 0x40 MLOAD PUSH2 0x5E7 SWAP2 SWAP1 PUSH2 0x39DC JUMP JUMPDEST PUSH1 0x40 MLOAD DUP1 SWAP2 SUB SWAP1 RETURN JUMPDEST CALLVALUE DUP1 ISZERO PUSH2 0x5FC JUMPI PUSH1 0x0 DUP1 REVERT JUMPDEST POP PUSH2 0x605 PUSH2 0x13D7 JUMP JUMPDEST PUSH1 0x40 MLOAD PUSH2 0x612 SWAP2 SWAP1 PUSH2 0x39DC JUMP JUMPDEST PUSH1 0x40 MLOAD DUP1 SWAP2 SUB SWAP1 RETURN JUMPDEST CALLVALUE DUP1 ISZERO PUSH2 0x627 JUMPI PUSH1 0x0 DUP1 REVERT JUMPDEST POP PUSH2 0x630 PUSH2 0x13EA JUMP JUMPDEST PUSH1 0x40 MLOAD PUSH2 0x642 SWAP7 SWAP6 SWAP5 SWAP4 SWAP3 SWAP2 SWAP1 PUSH2 0x3D4F JUMP JUMPDEST PUSH1 0x40 MLOAD DUP1 SWAP2 SUB SWAP1 RETURN JUMPDEST CALLVALUE DUP1 ISZERO PUSH2 0x657 JUMPI PUSH1 0x0 DUP1 REVERT JUMPDEST POP PUSH2 0x672 PUSH1 0x4 DUP1 CALLDATASIZE SUB DUP2 ADD SWAP1 PUSH2 0x66D SWAP2 SWAP1 PUSH2 0x3DDC JUMP JUMPDEST PUSH2 0x1419 JUMP JUMPDEST STOP JUMPDEST CALLVALUE DUP1 ISZERO PUSH2 0x680 JUMPI PUSH1 0x0 DUP1 REVERT JUMPDEST POP PUSH2 0x69B PUSH1 0x4 DUP1 CALLDATASIZE SUB DUP2 ADD SWAP1 PUSH2 0x696 SWAP2 SWAP1 PUSH2 0x3E43 JUMP JUMPDEST PUSH2 0x14FF JUMP JUMPDEST STOP JUMPDEST CALLVALUE DUP1 ISZERO PUSH2 0x6A9 JUMPI PUSH1 0x0 DUP1 REVERT JUMPDEST POP PUSH2 0x6C4 PUSH1 0x4 DUP1 CALLDATASIZE SUB DUP2 ADD SWAP1 PUSH2 0x6BF SWAP2 SWAP1 PUSH2 0x39F7 JUMP JUMPDEST PUSH2 0x15EF JUMP JUMPDEST PUSH1 0x40 MLOAD PUSH2 0x6D1 SWAP2 SWAP1 PUSH2 0x3816 JUMP JUMPDEST PUSH1 0x40 MLOAD DUP1 SWAP2 SUB SWAP1 RETURN JUMPDEST CALLVALUE DUP1 ISZERO PUSH2 0x6E6 JUMPI PUSH1 0x0 DUP1 REVERT JUMPDEST POP PUSH2 0x6EF PUSH2 0x1640 JUMP JUMPDEST STOP JUMPDEST CALLVALUE DUP1 ISZERO PUSH2 0x6FD JUMPI PUSH1 0x0 DUP1 REVERT JUMPDEST POP PUSH2 0x718 PUSH1 0x4 DUP1 CALLDATASIZE SUB DUP2 ADD SWAP1 PUSH2 0x713 SWAP2 SWAP1 PUSH2 0x3AB7 JUMP JUMPDEST PUSH2 0x1793 JUMP JUMPDEST STOP JUMPDEST CALLVALUE DUP1 ISZERO PUSH2 0x726 JUMPI PUSH1 0x0 DUP1 REVERT JUMPDEST POP PUSH2 0x741 PUSH1 0x4 DUP1 CALLDATASIZE SUB DUP2 ADD SWAP1 PUSH2 0x73C SWAP2 SWAP1 PUSH2 0x3E83 JUMP JUMPDEST PUSH2 0x1890 JUMP JUMPDEST STOP JUMPDEST CALLVALUE DUP1 ISZERO PUSH2 0x74F JUMPI PUSH1 0x0 DUP1 REVERT JUMPDEST POP PUSH2 0x758 PUSH2 0x1965 JUMP JUMPDEST PUSH1 0x40 MLOAD PUSH2 0x765 SWAP2 SWAP1 PUSH2 0x3816 JUMP JUMPDEST PUSH1 0x40 MLOAD DUP1 SWAP2 SUB SWAP1 RETURN JUMPDEST CALLVALUE DUP1 ISZERO PUSH2 0x77A JUMPI PUSH1 0x0 DUP1 REVERT JUMPDEST POP PUSH2 0x783 PUSH2 0x196B JUMP JUMPDEST PUSH1 0x40 MLOAD PUSH2 0x790 SWAP2 SWAP1 PUSH2 0x3EBF JUMP JUMPDEST PUSH1 0x40 MLOAD DUP1 SWAP2 SUB SWAP1 RETURN JUMPDEST CALLVALUE DUP1 ISZERO PUSH2 0x7A5 JUMPI PUSH1 0x0 DUP1 REVERT JUMPDEST POP PUSH2 0x7AE PUSH2 0x197A JUMP JUMPDEST PUSH1 0x40 MLOAD PUSH2 0x7BB SWAP2 SWAP1 PUSH2 0x3EBF JUMP JUMPDEST PUSH1 0x40 MLOAD DUP1 SWAP2 SUB SWAP1 RETURN JUMPDEST CALLVALUE DUP1 ISZERO PUSH2 0x7D0 JUMPI PUSH1 0x0 DUP1 REVERT JUMPDEST POP PUSH2 0x7D9 PUSH2 0x19A3 JUMP JUMPDEST PUSH1 0x40 MLOAD PUSH2 0x7E6 SWAP2 SWAP1 PUSH2 0x3816 JUMP JUMPDEST PUSH1 0x40 MLOAD DUP1 SWAP2 SUB SWAP1 RETURN JUMPDEST CALLVALUE DUP1 ISZERO PUSH2 0x7FB JUMPI PUSH1 0x0 DUP1 REVERT JUMPDEST POP PUSH2 0x804 PUSH2 0x19A9 JUMP JUMPDEST PUSH1 0x40 MLOAD PUSH2 0x811 SWAP2 SWAP1 PUSH2 0x38C1 JUMP JUMPDEST PUSH1 0x40 MLOAD DUP1 SWAP2 SUB SWAP1 RETURN JUMPDEST CALLVALUE DUP1 ISZERO PUSH2 0x826 JUMPI PUSH1 0x0 DUP1 REVERT JUMPDEST POP PUSH2 0x82F PUSH2 0x1A3B JUMP JUMPDEST PUSH1 0x40 MLOAD PUSH2 0x83C SWAP2 SWAP1 PUSH2 0x3816 JUMP JUMPDEST PUSH1 0x40 MLOAD DUP1 SWAP2 SUB SWAP1 RETURN JUMPDEST CALLVALUE DUP1 ISZERO PUSH2 0x851 JUMPI PUSH1 0x0 DUP1 REVERT JUMPDEST POP PUSH2 0x86C PUSH1 0x4 DUP1 CALLDATASIZE SUB DUP2 ADD SWAP1 PUSH2 0x867 SWAP2 SWAP1 PUSH2 0x3D06 JUMP JUMPDEST PUSH2 0x1A45 JUMP JUMPDEST STOP JUMPDEST CALLVALUE DUP1 ISZERO PUSH2 0x87A JUMPI PUSH1 0x0 DUP1 REVERT JUMPDEST POP PUSH2 0x883 PUSH2 0x1AED JUMP JUMPDEST PUSH1 0x40 MLOAD PUSH2 0x890 SWAP2 SWAP1 PUSH2 0x3EBF JUMP JUMPDEST PUSH1 0x40 MLOAD DUP1 SWAP2 SUB SWAP1 RETURN JUMPDEST CALLVALUE DUP1 ISZERO PUSH2 0x8A5 JUMPI PUSH1 0x0 DUP1 REVERT JUMPDEST POP PUSH2 0x8C0 PUSH1 0x4 DUP1 CALLDATASIZE SUB DUP2 ADD SWAP1 PUSH2 0x8BB SWAP2 SWAP1 PUSH2 0x3981 JUMP JUMPDEST PUSH2 0x1B13 JUMP JUMPDEST PUSH1 0x40 MLOAD PUSH2 0x8CD SWAP2 SWAP1 PUSH2 0x39DC JUMP JUMPDEST PUSH1 0x40 MLOAD DUP1 SWAP2 SUB SWAP1 RETURN JUMPDEST CALLVALUE DUP1 ISZERO PUSH2 0x8E2 JUMPI PUSH1 0x0 DUP1 REVERT JUMPDEST POP PUSH2 0x8EB PUSH2 0x1B28 JUMP JUMPDEST PUSH1 0x40 MLOAD PUSH2 0x8F8 SWAP2 SWAP1 PUSH2 0x39DC JUMP JUMPDEST PUSH1 0x40 MLOAD DUP1 SWAP2 SUB SWAP1 RETURN JUMPDEST CALLVALUE DUP1 ISZERO PUSH2 0x90D JUMPI PUSH1 0x0 DUP1 REVERT JUMPDEST POP PUSH2 0x916 PUSH2 0x1B3B JUMP JUMPDEST PUSH1 0x40 MLOAD PUSH2 0x928 SWAP7 SWAP6 SWAP5 SWAP4 SWAP3 SWAP2 SWAP1 PUSH2 0x3D4F JUMP JUMPDEST PUSH1 0x40 MLOAD DUP1 SWAP2 SUB SWAP1 RETURN JUMPDEST CALLVALUE DUP1 ISZERO PUSH2 0x93D JUMPI PUSH1 0x0 DUP1 REVERT JUMPDEST POP PUSH2 0x946 PUSH2 0x1B6A JUMP JUMPDEST PUSH1 0x40 MLOAD PUSH2 0x953 SWAP2 SWAP1 PUSH2 0x3816 JUMP JUMPDEST PUSH1 0x40 MLOAD DUP1 SWAP2 SUB SWAP1 RETURN JUMPDEST CALLVALUE DUP1 ISZERO PUSH2 0x968 JUMPI PUSH1 0x0 DUP1 REVERT JUMPDEST POP PUSH2 0x983 PUSH1 0x4 DUP1 CALLDATASIZE SUB DUP2 ADD SWAP1 PUSH2 0x97E SWAP2 SWAP1 PUSH2 0x3AB7 JUMP JUMPDEST PUSH2 0x1B74 JUMP JUMPDEST STOP JUMPDEST CALLVALUE DUP1 ISZERO PUSH2 0x991 JUMPI PUSH1 0x0 DUP1 REVERT JUMPDEST POP PUSH2 0x9AC PUSH1 0x4 DUP1 CALLDATASIZE SUB DUP2 ADD SWAP1 PUSH2 0x9A7 SWAP2 SWAP1 PUSH2 0x3AB7 JUMP JUMPDEST PUSH2 0x1C71 JUMP JUMPDEST PUSH1 0x40 MLOAD PUSH2 0x9B9 SWAP2 SWAP1 PUSH2 0x3816 JUMP JUMPDEST PUSH1 0x40 MLOAD DUP1 SWAP2 SUB SWAP1 RETURN JUMPDEST CALLVALUE DUP1 ISZERO PUSH2 0x9CE JUMPI PUSH1 0x0 DUP1 REVERT JUMPDEST POP PUSH2 0x9E9 PUSH1 0x4 DUP1 CALLDATASIZE SUB DUP2 ADD SWAP1 PUSH2 0x9E4 SWAP2 SWAP1 PUSH2 0x3F90 JUMP JUMPDEST PUSH2 0x1CE3 JUMP JUMPDEST STOP JUMPDEST CALLVALUE DUP1 ISZERO PUSH2 0x9F7 JUMPI PUSH1 0x0 DUP1 REVERT JUMPDEST POP PUSH2 0xA12 PUSH1 0x4 DUP1 CALLDATASIZE SUB DUP2 ADD SWAP1 PUSH2 0xA0D SWAP2 SWAP1 PUSH2 0x4011 JUMP JUMPDEST PUSH2 0x1F11 JUMP JUMPDEST STOP JUMPDEST CALLVALUE DUP1 ISZERO PUSH2 0xA20 JUMPI PUSH1 0x0 DUP1 REVERT JUMPDEST POP PUSH2 0xA3B PUSH1 0x4 DUP1 CALLDATASIZE SUB DUP2 ADD SWAP1 PUSH2 0xA36 SWAP2 SWAP1 PUSH2 0x4064 JUMP JUMPDEST PUSH2 0x206E JUMP JUMPDEST PUSH1 0x40 MLOAD PUSH2 0xA48 SWAP2 SWAP1 PUSH2 0x3816 JUMP JUMPDEST PUSH1 0x40 MLOAD DUP1 SWAP2 SUB SWAP1 RETURN JUMPDEST CALLVALUE DUP1 ISZERO PUSH2 0xA5D JUMPI PUSH1 0x0 DUP1 REVERT JUMPDEST POP PUSH2 0xA78 PUSH1 0x4 DUP1 CALLDATASIZE SUB DUP2 ADD SWAP1 PUSH2 0xA73 SWAP2 SWAP1 PUSH2 0x4167 JUMP JUMPDEST PUSH2 0x20F5 JUMP JUMPDEST STOP JUMPDEST CALLVALUE DUP1 ISZERO PUSH2 0xA86 JUMPI PUSH1 0x0 DUP1 REVERT JUMPDEST POP PUSH2 0xAA1 PUSH1 0x4 DUP1 CALLDATASIZE SUB DUP2 ADD SWAP1 PUSH2 0xA9C SWAP2 SWAP1 PUSH2 0x39F7 JUMP JUMPDEST PUSH2 0x2262 JUMP JUMPDEST STOP JUMPDEST CALLVALUE DUP1 ISZERO PUSH2 0xAAF JUMPI PUSH1 0x0 DUP1 REVERT JUMPDEST POP PUSH2 0xACA PUSH1 0x4 DUP1 CALLDATASIZE SUB DUP2 ADD SWAP1 PUSH2 0xAC5 SWAP2 SWAP1 PUSH2 0x3E43 JUMP JUMPDEST PUSH2 0x2423 JUMP JUMPDEST STOP JUMPDEST CALLVALUE DUP1 ISZERO PUSH2 0xAD8 JUMPI PUSH1 0x0 DUP1 REVERT JUMPDEST POP PUSH2 0xAE1 PUSH2 0x2513 JUMP JUMPDEST PUSH1 0x40 MLOAD PUSH2 0xAEE SWAP2 SWAP1 PUSH2 0x4222 JUMP JUMPDEST PUSH1 0x40 MLOAD DUP1 SWAP2 SUB SWAP1 RETURN JUMPDEST PUSH1 0x20 SLOAD DUP2 JUMP JUMPDEST PUSH1 0x60 PUSH1 0x1 DUP1 SLOAD PUSH2 0xB0C SWAP1 PUSH2 0x426C JUMP JUMPDEST DUP1 PUSH1 0x1F ADD PUSH1 0x20 DUP1 SWAP2 DIV MUL PUSH1 0x20 ADD PUSH1 0x40 MLOAD SWAP1 DUP2 ADD PUSH1 0x40 MSTORE DUP1 SWAP3 SWAP2 SWAP1 DUP2 DUP2 MSTORE PUSH1 0x20 ADD DUP3 DUP1 SLOAD PUSH2 0xB38 SWAP1 PUSH2 0x426C JUMP JUMPDEST DUP1 ISZERO PUSH2 0xB85 JUMPI DUP1 PUSH1 0x1F LT PUSH2 0xB5A JUMPI PUSH2 0x100 DUP1 DUP4 SLOAD DIV MUL DUP4 MSTORE SWAP2 PUSH1 0x20 ADD SWAP2 PUSH2 0xB85 JUMP JUMPDEST DUP3 ADD SWAP2 SWAP1 PUSH1 0x0 MSTORE PUSH1 0x20 PUSH1 0x0 KECCAK256 SWAP1 JUMPDEST DUP2 SLOAD DUP2 MSTORE SWAP1 PUSH1 0x1 ADD SWAP1 PUSH1 0x20 ADD DUP1 DUP4 GT PUSH2 0xB68 JUMPI DUP3 SWAP1 SUB PUSH1 0x1F AND DUP3 ADD SWAP2 JUMPDEST POP POP POP POP POP SWAP1 POP SWAP1 JUMP JUMPDEST PUSH1 0x0 DUP2 PUSH1 0x8 PUSH1 0x0 CALLER PUSH20 0xFFFFFFFFFFFFFFFFFFFFFFFFFFFFFFFFFFFFFFFF AND PUSH20 0xFFFFFFFFFFFFFFFFFFFFFFFFFFFFFFFFFFFFFFFF AND DUP2 MSTORE PUSH1 0x20 ADD SWAP1 DUP2 MSTORE PUSH1 0x20 ADD PUSH1 0x0 KECCAK256 PUSH1 0x0 DUP6 PUSH20 0xFFFFFFFFFFFFFFFFFFFFFFFFFFFFFFFFFFFFFFFF AND PUSH20 0xFFFFFFFFFFFFFFFFFFFFFFFFFFFFFFFFFFFFFFFF AND DUP2 MSTORE PUSH1 0x20 ADD SWAP1 DUP2 MSTORE PUSH1 0x20 ADD PUSH1 0x0 KECCAK256 DUP2 SWAP1 SSTORE POP DUP3 PUSH20 0xFFFFFFFFFFFFFFFFFFFFFFFFFFFFFFFFFFFFFFFF AND CALLER PUSH20 0xFFFFFFFFFFFFFFFFFFFFFFFFFFFFFFFFFFFFFFFF AND PUSH32 0x8C5BE1E5EBEC7D5BD14F71427D1E84F3DD0314C0F7B2291E5B200AC8C7C3B925 DUP5 PUSH1 0x40 MLOAD PUSH2 0xC6F SWAP2 SWAP1 PUSH2 0x3816 JUMP JUMPDEST PUSH1 0x40 MLOAD DUP1 SWAP2 SUB SWAP1 LOG3 PUSH1 0x1 SWAP1 POP SWAP3 SWAP2 POP POP JUMP JUMPDEST PUSH1 0x6 PUSH1 0x20 MSTORE DUP1 PUSH1 0x0 MSTORE PUSH1 0x40 PUSH1 0x0 KECCAK256 PUSH1 0x0 SWAP2 POP SWAP1 POP SLOAD DUP2 JUMP JUMPDEST PUSH1 0x0 DUP3 PUSH2 0xCA5 DUP4 PUSH2 0x1C71 JUMP JUMPDEST GT SWAP1 POP SWAP3 SWAP2 POP POP JUMP JUMPDEST PUSH1 0x7 SLOAD DUP2 JUMP JUMPDEST PUSH1 0x0 PUSH1 0x3 SLOAD SWAP1 POP SWAP1 JUMP JUMPDEST PUSH1 0x0 PUSH32 0xFFFFFFFFFFFFFFFFFFFFFFFFFFFFFFFFFFFFFFFFFFFFFFFFFFFFFFFFFFFFFFFF PUSH1 0x8 PUSH1 0x0 DUP7 PUSH20 0xFFFFFFFFFFFFFFFFFFFFFFFFFFFFFFFFFFFFFFFF AND PUSH20 0xFFFFFFFFFFFFFFFFFFFFFFFFFFFFFFFFFFFFFFFF AND DUP2 MSTORE PUSH1 0x20 ADD SWAP1 DUP2 MSTORE PUSH1 0x20 ADD PUSH1 0x0 KECCAK256 PUSH1 0x0 CALLER PUSH20 0xFFFFFFFFFFFFFFFFFFFFFFFFFFFFFFFFFFFFFFFF AND PUSH20 0xFFFFFFFFFFFFFFFFFFFFFFFFFFFFFFFFFFFFFFFF AND DUP2 MSTORE PUSH1 0x20 ADD SWAP1 DUP2 MSTORE PUSH1 0x20 ADD PUSH1 0x0 KECCAK256 SLOAD EQ PUSH2 0xEAA JUMPI PUSH2 0xE29 DUP3 PUSH1 0x40 MLOAD DUP1 PUSH1 0x40 ADD PUSH1 0x40 MSTORE DUP1 PUSH1 0x16 DUP2 MSTORE PUSH1 0x20 ADD PUSH32 0x496E73756666696369656E7420416C6C6F77616E636500000000000000000000 DUP2 MSTORE POP PUSH1 0x8 PUSH1 0x0 DUP9 PUSH20 0xFFFFFFFFFFFFFFFFFFFFFFFFFFFFFFFFFFFFFFFF AND PUSH20 0xFFFFFFFFFFFFFFFFFFFFFFFFFFFFFFFFFFFFFFFF AND DUP2 MSTORE PUSH1 0x20 ADD SWAP1 DUP2 MSTORE PUSH1 0x20 ADD PUSH1 0x0 KECCAK256 PUSH1 0x0 CALLER PUSH20 0xFFFFFFFFFFFFFFFFFFFFFFFFFFFFFFFFFFFFFFFF AND PUSH20 0xFFFFFFFFFFFFFFFFFFFFFFFFFFFFFFFFFFFFFFFF AND DUP2 MSTORE PUSH1 0x20 ADD SWAP1 DUP2 MSTORE PUSH1 0x20 ADD PUSH1 0x0 KECCAK256 SLOAD PUSH2 0x2539 SWAP1 SWAP3 SWAP2 SWAP1 PUSH4 0xFFFFFFFF AND JUMP JUMPDEST PUSH1 0x8 PUSH1 0x0 DUP7 PUSH20 0xFFFFFFFFFFFFFFFFFFFFFFFFFFFFFFFFFFFFFFFF AND PUSH20 0xFFFFFFFFFFFFFFFFFFFFFFFFFFFFFFFFFFFFFFFF AND DUP2 MSTORE PUSH1 0x20 ADD SWAP1 DUP2 MSTORE PUSH1 0x20 ADD PUSH1 0x0 KECCAK256 PUSH1 0x0 CALLER PUSH20 0xFFFFFFFFFFFFFFFFFFFFFFFFFFFFFFFFFFFFFFFF AND PUSH20 0xFFFFFFFFFFFFFFFFFFFFFFFFFFFFFFFFFFFFFFFF AND DUP2 MSTORE PUSH1 0x20 ADD SWAP1 DUP2 MSTORE PUSH1 0x20 ADD PUSH1 0x0 KECCAK256 DUP2 SWAP1 SSTORE POP JUMPDEST PUSH2 0xEB5 DUP5 DUP5 DUP5 PUSH2 0x259D JUMP JUMPDEST SWAP1 POP SWAP4 SWAP3 POP POP POP JUMP JUMPDEST PUSH1 0x0 PUSH2 0xEFA PUSH2 0xECD PUSH1 0x0 PUSH2 0x15EF JUMP JUMPDEST PUSH2 0xEEC PUSH2 0xEDB PUSH2 0xDEAD PUSH2 0x15EF JUMP JUMPDEST PUSH1 0x3 SLOAD PUSH2 0x2B2C SWAP1 SWAP2 SWAP1 PUSH4 0xFFFFFFFF AND JUMP JUMPDEST PUSH2 0x2B2C SWAP1 SWAP2 SWAP1 PUSH4 0xFFFFFFFF AND JUMP JUMPDEST SWAP1 POP SWAP1 JUMP JUMPDEST PUSH1 0x0 PUSH2 0xF2A PUSH1 0x7 SLOAD PUSH2 0xF1C PUSH1 0x3 SLOAD DUP6 PUSH2 0x2B76 SWAP1 SWAP2 SWAP1 PUSH4 0xFFFFFFFF AND JUMP JUMPDEST PUSH2 0x2BF0 SWAP1 SWAP2 SWAP1 PUSH4 0xFFFFFFFF AND JUMP JUMPDEST SWAP1 POP SWAP2 SWAP1 POP JUMP JUMPDEST PUSH1 0x0 PUSH1 0x9 SWAP1 POP SWAP1 JUMP JUMPDEST PUSH2 0xF42 PUSH2 0x2C3A JUMP JUMPDEST PUSH20 0xFFFFFFFFFFFFFFFFFFFFFFFFFFFFFFFFFFFFFFFF AND PUSH1 0x0 DUP1 SLOAD SWAP1 PUSH2 0x100 EXP SWAP1 DIV PUSH20 0xFFFFFFFFFFFFFFFFFFFFFFFFFFFFFFFFFFFFFFFF AND PUSH20 0xFFFFFFFFFFFFFFFFFFFFFFFFFFFFFFFFFFFFFFFF AND EQ PUSH2 0xFCF JUMPI PUSH1 0x40 MLOAD PUSH32 0x8C379A000000000000000000000000000000000000000000000000000000000 DUP2 MSTORE PUSH1 0x4 ADD PUSH2 0xFC6 SWAP1 PUSH2 0x42E9 JUMP JUMPDEST PUSH1 0x40 MLOAD DUP1 SWAP2 SUB SWAP1 REVERT JUMPDEST CALLER PUSH20 0xFFFFFFFFFFFFFFFFFFFFFFFFFFFFFFFFFFFFFFFF AND PUSH2 0x8FC SELFBALANCE SWAP1 DUP2 ISZERO MUL SWAP1 PUSH1 0x40 MLOAD PUSH1 0x0 PUSH1 0x40 MLOAD DUP1 DUP4 SUB DUP2 DUP6 DUP9 DUP9 CALL SWAP4 POP POP POP POP ISZERO DUP1 ISZERO PUSH2 0x1015 JUMPI RETURNDATASIZE PUSH1 0x0 DUP1 RETURNDATACOPY RETURNDATASIZE PUSH1 0x0 REVERT JUMPDEST POP JUMP JUMPDEST PUSH2 0x1020 PUSH2 0x2C3A JUMP JUMPDEST PUSH20 0xFFFFFFFFFFFFFFFFFFFFFFFFFFFFFFFFFFFFFFFF AND PUSH1 0x0 DUP1 SLOAD SWAP1 PUSH2 0x100 EXP SWAP1 DIV PUSH20 0xFFFFFFFFFFFFFFFFFFFFFFFFFFFFFFFFFFFFFFFF AND PUSH20 0xFFFFFFFFFFFFFFFFFFFFFFFFFFFFFFFFFFFFFFFF AND EQ PUSH2 0x10AD JUMPI PUSH1 0x40 MLOAD PUSH32 0x8C379A000000000000000000000000000000000000000000000000000000000 DUP2 MSTORE PUSH1 0x4 ADD PUSH2 0x10A4 SWAP1 PUSH2 0x42E9 JUMP JUMPDEST PUSH1 0x40 MLOAD DUP1 SWAP2 SUB SWAP1 REVERT JUMPDEST PUSH1 0x1 PUSH1 0x21 PUSH1 0x2 PUSH2 0x100 EXP DUP2 SLOAD DUP2 PUSH1 0xFF MUL NOT AND SWAP1 DUP4 ISZERO ISZERO MUL OR SWAP1 SSTORE POP JUMP JUMPDEST PUSH2 0x10D2 PUSH2 0x2C3A JUMP JUMPDEST PUSH20 0xFFFFFFFFFFFFFFFFFFFFFFFFFFFFFFFFFFFFFFFF AND PUSH1 0x0 DUP1 SLOAD SWAP1 PUSH2 0x100 EXP SWAP1 DIV PUSH20 0xFFFFFFFFFFFFFFFFFFFFFFFFFFFFFFFFFFFFFFFF AND PUSH20 0xFFFFFFFFFFFFFFFFFFFFFFFFFFFFFFFFFFFFFFFF AND EQ PUSH2 0x115F JUMPI PUSH1 0x40 MLOAD PUSH32 0x8C379A000000000000000000000000000000000000000000000000000000000 DUP2 MSTORE PUSH1 0x4 ADD PUSH2 0x1156 SWAP1 PUSH2 0x42E9 JUMP JUMPDEST PUSH1 0x40 MLOAD DUP1 SWAP2 SUB SWAP1 REVERT JUMPDEST DUP8 PUSH1 0xC DUP2 SWAP1 SSTORE POP DUP7 PUSH1 0x12 DUP2 SWAP1 SSTORE POP DUP6 PUSH1 0x10 DUP2 SWAP1 SSTORE POP DUP5 PUSH1 0xE DUP2 SWAP1 SSTORE POP PUSH2 0x11BA PUSH1 0xE SLOAD PUSH2 0x11AC PUSH1 0x10 SLOAD PUSH2 0x119E PUSH1 0x12 SLOAD PUSH1 0xC SLOAD PUSH2 0x2C42 SWAP1 SWAP2 SWAP1 PUSH4 0xFFFFFFFF AND JUMP JUMPDEST PUSH2 0x2C42 SWAP1 SWAP2 SWAP1 PUSH4 0xFFFFFFFF AND JUMP JUMPDEST PUSH2 0x2C42 SWAP1 SWAP2 SWAP1 PUSH4 0xFFFFFFFF AND JUMP JUMPDEST PUSH1 0x14 DUP2 SWAP1 SSTORE POP DUP4 PUSH1 0xD DUP2 SWAP1 SSTORE POP DUP3 PUSH1 0x13 DUP2 SWAP1 SSTORE POP DUP2 PUSH1 0x11 DUP2 SWAP1 SSTORE POP DUP1 PUSH1 0xF DUP2 SWAP1 SSTORE POP PUSH2 0x121B PUSH1 0xF SLOAD PUSH2 0x120D PUSH1 0x11 SLOAD PUSH2 0x11FF PUSH1 0x13 SLOAD PUSH1 0xD SLOAD PUSH2 0x2C42 SWAP1 SWAP2 SWAP1 PUSH4 0xFFFFFFFF AND JUMP JUMPDEST PUSH2 0x2C42 SWAP1 SWAP2 SWAP1 PUSH4 0xFFFFFFFF AND JUMP JUMPDEST PUSH2 0x2C42 SWAP1 SWAP2 SWAP1 PUSH4 0xFFFFFFFF AND JUMP JUMPDEST PUSH1 0x15 DUP2 SWAP1 SSTORE POP PUSH1 0x19 PUSH1 0x14 SLOAD GT ISZERO PUSH2 0x1267 JUMPI PUSH1 0x40 MLOAD PUSH32 0x8C379A000000000000000000000000000000000000000000000000000000000 DUP2 MSTORE PUSH1 0x4 ADD PUSH2 0x125E SWAP1 PUSH2 0x4355 JUMP JUMPDEST PUSH1 0x40 MLOAD DUP1 SWAP2 SUB SWAP1 REVERT JUMPDEST PUSH1 0x19 PUSH1 0x15 SLOAD GT ISZERO PUSH2 0x12AD JUMPI PUSH1 0x40 MLOAD PUSH32 0x8C379A000000000000000000000000000000000000000000000000000000000 DUP2 MSTORE PUSH1 0x4 ADD PUSH2 0x12A4 SWAP1 PUSH2 0x43C1 JUMP JUMPDEST PUSH1 0x40 MLOAD DUP1 SWAP2 SUB SWAP1 REVERT JUMPDEST POP POP POP POP POP POP POP POP JUMP JUMPDEST PUSH1 0x0 PUSH2 0x12E2 PUSH1 0x3 SLOAD PUSH2 0x12D4 PUSH1 0x7 SLOAD DUP6 PUSH2 0x2B76 SWAP1 SWAP2 SWAP1 PUSH4 0xFFFFFFFF AND JUMP JUMPDEST PUSH2 0x2BF0 SWAP1 SWAP2 SWAP1 PUSH4 0xFFFFFFFF AND JUMP JUMPDEST SWAP1 POP SWAP2 SWAP1 POP JUMP JUMPDEST PUSH1 0x21 PUSH1 0x1 SWAP1 SLOAD SWAP1 PUSH2 0x100 EXP SWAP1 DIV PUSH1 0xFF AND DUP2 JUMP JUMPDEST PUSH2 0x1304 PUSH2 0x2C3A JUMP JUMPDEST PUSH20 0xFFFFFFFFFFFFFFFFFFFFFFFFFFFFFFFFFFFFFFFF AND PUSH1 0x0 DUP1 SLOAD SWAP1 PUSH2 0x100 EXP SWAP1 DIV PUSH20 0xFFFFFFFFFFFFFFFFFFFFFFFFFFFFFFFFFFFFFFFF AND PUSH20 0xFFFFFFFFFFFFFFFFFFFFFFFFFFFFFFFFFFFFFFFF AND EQ PUSH2 0x1391 JUMPI PUSH1 0x40 MLOAD PUSH32 0x8C379A000000000000000000000000000000000000000000000000000000000 DUP2 MSTORE PUSH1 0x4 ADD PUSH2 0x1388 SWAP1 PUSH2 0x42E9 JUMP JUMPDEST PUSH1 0x40 MLOAD DUP1 SWAP2 SUB SWAP1 REVERT JUMPDEST DUP1 PUSH1 0x1 SWAP1 DUP2 PUSH2 0x13A0 SWAP2 SWAP1 PUSH2 0x4583 JUMP JUMPDEST POP POP JUMP JUMPDEST PUSH1 0x0 PUSH2 0x13D0 DUP3 PUSH32 0xFFFFFFFFFFFFFFFFFFFFFFFFFFFFFFFFFFFFFFFFFFFFFFFFFFFFFFFFFFFFFFFF PUSH2 0xB8F JUMP JUMPDEST SWAP1 POP SWAP2 SWAP1 POP JUMP JUMPDEST PUSH1 0x21 PUSH1 0x2 SWAP1 SLOAD SWAP1 PUSH2 0x100 EXP SWAP1 DIV PUSH1 0xFF AND DUP2 JUMP JUMPDEST PUSH1 0x0 DUP1 PUSH1 0x0 DUP1 PUSH1 0x0 DUP1 PUSH1 0xC SLOAD PUSH1 0x10 SLOAD PUSH1 0xF SLOAD PUSH1 0x12 SLOAD PUSH1 0x14 SLOAD PUSH1 0x16 SLOAD SWAP6 POP SWAP6 POP SWAP6 POP SWAP6 POP SWAP6 POP SWAP6 POP SWAP1 SWAP2 SWAP3 SWAP4 SWAP5 SWAP6 JUMP JUMPDEST PUSH2 0x1421 PUSH2 0x2C3A JUMP JUMPDEST PUSH20 0xFFFFFFFFFFFFFFFFFFFFFFFFFFFFFFFFFFFFFFFF AND PUSH1 0x0 DUP1 SLOAD SWAP1 PUSH2 0x100 EXP SWAP1 DIV PUSH20 0xFFFFFFFFFFFFFFFFFFFFFFFFFFFFFFFFFFFFFFFF AND PUSH20 0xFFFFFFFFFFFFFFFFFFFFFFFFFFFFFFFFFFFFFFFF AND EQ PUSH2 0x14AE JUMPI PUSH1 0x40 MLOAD PUSH32 0x8C379A000000000000000000000000000000000000000000000000000000000 DUP2 MSTORE PUSH1 0x4 ADD PUSH2 0x14A5 SWAP1 PUSH2 0x42E9 JUMP JUMPDEST PUSH1 0x40 MLOAD DUP1 SWAP2 SUB SWAP1 REVERT JUMPDEST DUP1 PUSH1 0x1D PUSH1 0x15 PUSH2 0x100 EXP DUP2 SLOAD DUP2 PUSH1 0xFF MUL NOT AND SWAP1 DUP4 ISZERO ISZERO MUL OR SWAP1 SSTORE POP DUP4 PUSH1 0x1D PUSH1 0x14 PUSH2 0x100 EXP DUP2 SLOAD DUP2 PUSH1 0xFF MUL NOT AND SWAP1 DUP4 ISZERO ISZERO MUL OR SWAP1 SSTORE POP DUP3 PUSH1 0x1E DUP2 SWAP1 SSTORE POP DUP2 PUSH1 0x1F DUP2 SWAP1 SSTORE POP PUSH1 0x1E SLOAD PUSH1 0x20 DUP2 SWAP1 SSTORE POP POP POP POP POP JUMP JUMPDEST PUSH2 0x1507 PUSH2 0x2C3A JUMP JUMPDEST PUSH20 0xFFFFFFFFFFFFFFFFFFFFFFFFFFFFFFFFFFFFFFFF AND PUSH1 0x0 DUP1 SLOAD SWAP1 PUSH2 0x100 EXP SWAP1 DIV PUSH20 0xFFFFFFFFFFFFFFFFFFFFFFFFFFFFFFFFFFFFFFFF AND PUSH20 0xFFFFFFFFFFFFFFFFFFFFFFFFFFFFFFFFFFFFFFFF AND EQ PUSH2 0x1594 JUMPI PUSH1 0x40 MLOAD PUSH32 0x8C379A000000000000000000000000000000000000000000000000000000000 DUP2 MSTORE PUSH1 0x4 ADD PUSH2 0x158B SWAP1 PUSH2 0x42E9 JUMP JUMPDEST PUSH1 0x40 MLOAD DUP1 SWAP2 SUB SWAP1 REVERT JUMPDEST DUP1 PUSH1 0x9 PUSH1 0x0 DUP5 PUSH20 0xFFFFFFFFFFFFFFFFFFFFFFFFFFFFFFFFFFFFFFFF AND PUSH20 0xFFFFFFFFFFFFFFFFFFFFFFFFFFFFFFFFFFFFFFFF AND DUP2 MSTORE PUSH1 0x20 ADD SWAP1 DUP2 MSTORE PUSH1 0x20 ADD PUSH1 0x0 KECCAK256 PUSH1 0x0 PUSH2 0x100 EXP DUP2 SLOAD DUP2 PUSH1 0xFF MUL NOT AND SWAP1 DUP4 ISZERO ISZERO MUL OR SWAP1 SSTORE POP POP POP JUMP JUMPDEST PUSH1 0x0 PUSH2 0x1639 PUSH1 0x6 PUSH1 0x0 DUP5 PUSH20 0xFFFFFFFFFFFFFFFFFFFFFFFFFFFFFFFFFFFFFFFF AND PUSH20 0xFFFFFFFFFFFFFFFFFFFFFFFFFFFFFFFFFFFFFFFF AND DUP2 MSTORE PUSH1 0x20 ADD SWAP1 DUP2 MSTORE PUSH1 0x20 ADD PUSH1 0x0 KECCAK256 SLOAD PUSH2 0xEFF JUMP JUMPDEST SWAP1 POP SWAP2 SWAP1 POP JUMP JUMPDEST PUSH2 0x1648 PUSH2 0x2C3A JUMP JUMPDEST PUSH20 0xFFFFFFFFFFFFFFFFFFFFFFFFFFFFFFFFFFFFFFFF AND PUSH1 0x0 DUP1 SLOAD SWAP1 PUSH2 0x100 EXP SWAP1 DIV PUSH20 0xFFFFFFFFFFFFFFFFFFFFFFFFFFFFFFFFFFFFFFFF AND PUSH20 0xFFFFFFFFFFFFFFFFFFFFFFFFFFFFFFFFFFFFFFFF AND EQ PUSH2 0x16D5 JUMPI PUSH1 0x40 MLOAD PUSH32 0x8C379A000000000000000000000000000000000000000000000000000000000 DUP2 MSTORE PUSH1 0x4 ADD PUSH2 0x16CC SWAP1 PUSH2 0x42E9 JUMP JUMPDEST PUSH1 0x40 MLOAD DUP1 SWAP2 SUB SWAP1 REVERT JUMPDEST PUSH1 0x0 PUSH20 0xFFFFFFFFFFFFFFFFFFFFFFFFFFFFFFFFFFFFFFFF AND PUSH1 0x0 DUP1 SLOAD SWAP1 PUSH2 0x100 EXP SWAP1 DIV PUSH20 0xFFFFFFFFFFFFFFFFFFFFFFFFFFFFFFFFFFFFFFFF AND PUSH20 0xFFFFFFFFFFFFFFFFFFFFFFFFFFFFFFFFFFFFFFFF AND PUSH32 0x8BE0079C531659141344CD1FD0A4F28419497F9722A3DAAFE3B4186F6B6457E0 PUSH1 0x40 MLOAD PUSH1 0x40 MLOAD DUP1 SWAP2 SUB SWAP1 LOG3 PUSH1 0x0 DUP1 PUSH1 0x0 PUSH2 0x100 EXP DUP2 SLOAD DUP2 PUSH20 0xFFFFFFFFFFFFFFFFFFFFFFFFFFFFFFFFFFFFFFFF MUL NOT AND SWAP1 DUP4 PUSH20 0xFFFFFFFFFFFFFFFFFFFFFFFFFFFFFFFFFFFFFFFF AND MUL OR SWAP1 SSTORE POP JUMP JUMPDEST PUSH2 0x179B PUSH2 0x2C3A JUMP JUMPDEST PUSH20 0xFFFFFFFFFFFFFFFFFFFFFFFFFFFFFFFFFFFFFFFF AND PUSH1 0x0 DUP1 SLOAD SWAP1 PUSH2 0x100 EXP SWAP1 DIV PUSH20 0xFFFFFFFFFFFFFFFFFFFFFFFFFFFFFFFFFFFFFFFF AND PUSH20 0xFFFFFFFFFFFFFFFFFFFFFFFFFFFFFFFFFFFFFFFF AND EQ PUSH2 0x1828 JUMPI PUSH1 0x40 MLOAD PUSH32 0x8C379A000000000000000000000000000000000000000000000000000000000 DUP2 MSTORE PUSH1 0x4 ADD PUSH2 0x181F SWAP1 PUSH2 0x42E9 JUMP JUMPDEST PUSH1 0x40 MLOAD DUP1 SWAP2 SUB SWAP1 REVERT JUMPDEST PUSH1 0x1 DUP2 LT ISZERO PUSH2 0x186C JUMPI PUSH1 0x40 MLOAD PUSH32 0x8C379A000000000000000000000000000000000000000000000000000000000 DUP2 MSTORE PUSH1 0x4 ADD PUSH2 0x1863 SWAP1 PUSH2 0x46A1 JUMP JUMPDEST PUSH1 0x40 MLOAD DUP1 SWAP2 SUB SWAP1 REVERT JUMPDEST PUSH2 0x3E8 DUP2 PUSH1 0x3 SLOAD PUSH2 0x187D SWAP2 SWAP1 PUSH2 0x46F0 JUMP JUMPDEST PUSH2 0x1887 SWAP2 SWAP1 PUSH2 0x4761 JUMP JUMPDEST PUSH1 0x4 DUP2 SWAP1 SSTORE POP POP JUMP JUMPDEST PUSH2 0x1898 PUSH2 0x2C3A JUMP JUMPDEST PUSH20 0xFFFFFFFFFFFFFFFFFFFFFFFFFFFFFFFFFFFFFFFF AND PUSH1 0x0 DUP1 SLOAD SWAP1 PUSH2 0x100 EXP SWAP1 DIV PUSH20 0xFFFFFFFFFFFFFFFFFFFFFFFFFFFFFFFFFFFFFFFF AND PUSH20 0xFFFFFFFFFFFFFFFFFFFFFFFFFFFFFFFFFFFFFFFF AND EQ PUSH2 0x1925 JUMPI PUSH1 0x40 MLOAD PUSH32 0x8C379A000000000000000000000000000000000000000000000000000000000 DUP2 MSTORE PUSH1 0x4 ADD PUSH2 0x191C SWAP1 PUSH2 0x42E9 JUMP JUMPDEST PUSH1 0x40 MLOAD DUP1 SWAP2 SUB SWAP1 REVERT JUMPDEST PUSH1 0x21 PUSH1 0x2 SWAP1 SLOAD SWAP1 PUSH2 0x100 EXP SWAP1 DIV PUSH1 0xFF AND ISZERO DUP1 PUSH2 0x193F JUMPI POP DUP1 ISZERO JUMPDEST PUSH2 0x1948 JUMPI PUSH1 0x0 DUP1 REVERT JUMPDEST DUP1 PUSH1 0x21 PUSH1 0x1 PUSH2 0x100 EXP DUP2 SLOAD DUP2 PUSH1 0xFF MUL NOT AND SWAP1 DUP4 ISZERO ISZERO MUL OR SWAP1 SSTORE POP POP JUMP JUMPDEST PUSH1 0x4 SLOAD DUP2 JUMP JUMPDEST PUSH1 0x0 PUSH2 0x1975 PUSH2 0x197A JUMP JUMPDEST SWAP1 POP SWAP1 JUMP JUMPDEST PUSH1 0x0 DUP1 PUSH1 0x0 SWAP1 SLOAD SWAP1 PUSH2 0x100 EXP SWAP1 DIV PUSH20 0xFFFFFFFFFFFFFFFFFFFFFFFFFFFFFFFFFFFFFFFF AND SWAP1 POP SWAP1 JUMP JUMPDEST PUSH1 0x5 SLOAD DUP2 JUMP JUMPDEST PUSH1 0x60 PUSH1 0x2 DUP1 SLOAD PUSH2 0x19B8 SWAP1 PUSH2 0x426C JUMP JUMPDEST DUP1 PUSH1 0x1F ADD PUSH1 0x20 DUP1 SWAP2 DIV MUL PUSH1 0x20 ADD PUSH1 0x40 MLOAD SWAP1 DUP2 ADD PUSH1 0x40 MSTORE DUP1 SWAP3 SWAP2 SWAP1 DUP2 DUP2 MSTORE PUSH1 0x20 ADD DUP3 DUP1 SLOAD PUSH2 0x19E4 SWAP1 PUSH2 0x426C JUMP JUMPDEST DUP1 ISZERO PUSH2 0x1A31 JUMPI DUP1 PUSH1 0x1F LT PUSH2 0x1A06 JUMPI PUSH2 0x100 DUP1 DUP4 SLOAD DIV MUL DUP4 MSTORE SWAP2 PUSH1 0x20 ADD SWAP2 PUSH2 0x1A31 JUMP JUMPDEST DUP3 ADD SWAP2 SWAP1 PUSH1 0x0 MSTORE PUSH1 0x20 PUSH1 0x0 KECCAK256 SWAP1 JUMPDEST DUP2 SLOAD DUP2 MSTORE SWAP1 PUSH1 0x1 ADD SWAP1 PUSH1 0x20 ADD DUP1 DUP4 GT PUSH2 0x1A14 JUMPI DUP3 SWAP1 SUB PUSH1 0x1F AND DUP3 ADD SWAP2 JUMPDEST POP POP POP POP POP SWAP1 POP SWAP1 JUMP JUMPDEST PUSH1 0x0 PUSH1 0x14 SLOAD SWAP1 POP SWAP1 JUMP JUMPDEST PUSH2 0x1A4D PUSH2 0x2C3A JUMP JUMPDEST PUSH20 0xFFFFFFFFFFFFFFFFFFFFFFFFFFFFFFFFFFFFFFFF AND PUSH1 0x0 DUP1 SLOAD SWAP1 PUSH2 0x100 EXP SWAP1 DIV PUSH20 0xFFFFFFFFFFFFFFFFFFFFFFFFFFFFFFFFFFFFFFFF AND PUSH20 0xFFFFFFFFFFFFFFFFFFFFFFFFFFFFFFFFFFFFFFFF AND EQ PUSH2 0x1ADA JUMPI PUSH1 0x40 MLOAD PUSH32 0x8C379A000000000000000000000000000000000000000000000000000000000 DUP2 MSTORE PUSH1 0x4 ADD PUSH2 0x1AD1 SWAP1 PUSH2 0x42E9 JUMP JUMPDEST PUSH1 0x40 MLOAD DUP1 SWAP2 SUB SWAP1 REVERT JUMPDEST DUP1 PUSH1 0x2 SWAP1 DUP2 PUSH2 0x1AE9 SWAP2 SWAP1 PUSH2 0x4583 JUMP JUMPDEST POP POP JUMP JUMPDEST PUSH1 0x1D PUSH1 0x0 SWAP1 SLOAD SWAP1 PUSH2 0x100 EXP SWAP1 DIV PUSH20 0xFFFFFFFFFFFFFFFFFFFFFFFFFFFFFFFFFFFFFFFF AND DUP2 JUMP JUMPDEST PUSH1 0x0 PUSH2 0x1B20 CALLER DUP5 DUP5 PUSH2 0x259D JUMP JUMPDEST SWAP1 POP SWAP3 SWAP2 POP POP JUMP JUMPDEST PUSH1 0x1D PUSH1 0x14 SWAP1 SLOAD SWAP1 PUSH2 0x100 EXP SWAP1 DIV PUSH1 0xFF AND DUP2 JUMP JUMPDEST PUSH1 0x0 DUP1 PUSH1 0x0 DUP1 PUSH1 0x0 DUP1 PUSH1 0xD SLOAD PUSH1 0x11 SLOAD PUSH1 0xF SLOAD PUSH1 0x13 SLOAD PUSH1 0x15 SLOAD PUSH1 0x16 SLOAD SWAP6 POP SWAP6 POP SWAP6 POP SWAP6 POP SWAP6 POP SWAP6 POP SWAP1 SWAP2 SWAP3 SWAP4 SWAP5 SWAP6 JUMP JUMPDEST PUSH1 0x0 PUSH1 0x15 SLOAD SWAP1 POP SWAP1 JUMP JUMPDEST PUSH2 0x1B7C PUSH2 0x2C3A JUMP JUMPDEST PUSH20 0xFFFFFFFFFFFFFFFFFFFFFFFFFFFFFFFFFFFFFFFF AND PUSH1 0x0 DUP1 SLOAD SWAP1 PUSH2 0x100 EXP SWAP1 DIV PUSH20 0xFFFFFFFFFFFFFFFFFFFFFFFFFFFFFFFFFFFFFFFF AND PUSH20 0xFFFFFFFFFFFFFFFFFFFFFFFFFFFFFFFFFFFFFFFF AND EQ PUSH2 0x1C09 JUMPI PUSH1 0x40 MLOAD PUSH32 0x8C379A000000000000000000000000000000000000000000000000000000000 DUP2 MSTORE PUSH1 0x4 ADD PUSH2 0x1C00 SWAP1 PUSH2 0x42E9 JUMP JUMPDEST PUSH1 0x40 MLOAD DUP1 SWAP2 SUB SWAP1 REVERT JUMPDEST PUSH1 0x1 DUP2 LT ISZERO PUSH2 0x1C4D JUMPI PUSH1 0x40 MLOAD PUSH32 0x8C379A000000000000000000000000000000000000000000000000000000000 DUP2 MSTORE PUSH1 0x4 ADD PUSH2 0x1C44 SWAP1 PUSH2 0x47DE JUMP JUMPDEST PUSH1 0x40 MLOAD DUP1 SWAP2 SUB SWAP1 REVERT JUMPDEST PUSH2 0x3E8 DUP2 PUSH1 0x3 SLOAD PUSH2 0x1C5E SWAP2 SWAP1 PUSH2 0x46F0 JUMP JUMPDEST PUSH2 0x1C68 SWAP2 SWAP1 PUSH2 0x4761 JUMP JUMPDEST PUSH1 0x5 DUP2 SWAP1 SSTORE POP POP JUMP JUMPDEST PUSH1 0x0 PUSH2 0x1CDC PUSH2 0x1C7E PUSH2 0xEBE JUMP JUMPDEST PUSH2 0x1CCE PUSH2 0x1CBF PUSH1 0x2 PUSH2 0x1CB1 PUSH1 0x1D PUSH1 0x0 SWAP1 SLOAD SWAP1 PUSH2 0x100 EXP SWAP1 DIV PUSH20 0xFFFFFFFFFFFFFFFFFFFFFFFFFFFFFFFFFFFFFFFF AND PUSH2 0x15EF JUMP JUMPDEST PUSH2 0x2B76 SWAP1 SWAP2 SWAP1 PUSH4 0xFFFFFFFF AND JUMP JUMPDEST DUP6 PUSH2 0x2B76 SWAP1 SWAP2 SWAP1 PUSH4 0xFFFFFFFF AND JUMP JUMPDEST PUSH2 0x2BF0 SWAP1 SWAP2 SWAP1 PUSH4 0xFFFFFFFF AND JUMP JUMPDEST SWAP1 POP SWAP2 SWAP1 POP JUMP JUMPDEST PUSH2 0x1CEB PUSH2 0x2C3A JUMP JUMPDEST PUSH20 0xFFFFFFFFFFFFFFFFFFFFFFFFFFFFFFFFFFFFFFFF AND PUSH1 0x0 DUP1 SLOAD SWAP1 PUSH2 0x100 EXP SWAP1 DIV PUSH20 0xFFFFFFFFFFFFFFFFFFFFFFFFFFFFFFFFFFFFFFFF AND PUSH20 0xFFFFFFFFFFFFFFFFFFFFFFFFFFFFFFFFFFFFFFFF AND EQ PUSH2 0x1D78 JUMPI PUSH1 0x40 MLOAD PUSH32 0x8C379A000000000000000000000000000000000000000000000000000000000 DUP2 MSTORE PUSH1 0x4 ADD PUSH2 0x1D6F SWAP1 PUSH2 0x42E9 JUMP JUMPDEST PUSH1 0x40 MLOAD DUP1 SWAP2 SUB SWAP1 REVERT JUMPDEST PUSH2 0x1F5 DUP5 DUP5 SWAP1 POP LT PUSH2 0x1DBF JUMPI PUSH1 0x40 MLOAD PUSH32 0x8C379A000000000000000000000000000000000000000000000000000000000 DUP2 MSTORE PUSH1 0x4 ADD PUSH2 0x1DB6 SWAP1 PUSH2 0x4870 JUMP JUMPDEST PUSH1 0x40 MLOAD DUP1 SWAP2 SUB SWAP1 REVERT JUMPDEST DUP2 DUP2 SWAP1 POP DUP5 DUP5 SWAP1 POP EQ PUSH2 0x1E07 JUMPI PUSH1 0x40 MLOAD PUSH32 0x8C379A000000000000000000000000000000000000000000000000000000000 DUP2 MSTORE PUSH1 0x4 ADD PUSH2 0x1DFE SWAP1 PUSH2 0x4902 JUMP JUMPDEST PUSH1 0x40 MLOAD DUP1 SWAP2 SUB SWAP1 REVERT JUMPDEST PUSH1 0x0 DUP1 JUMPDEST DUP6 DUP6 SWAP1 POP DUP2 LT ISZERO PUSH2 0x1E50 JUMPI DUP4 DUP4 DUP3 DUP2 DUP2 LT PUSH2 0x1E29 JUMPI PUSH2 0x1E28 PUSH2 0x4922 JUMP JUMPDEST JUMPDEST SWAP1 POP PUSH1 0x20 MUL ADD CALLDATALOAD DUP3 PUSH2 0x1E3B SWAP2 SWAP1 PUSH2 0x4951 JUMP JUMPDEST SWAP2 POP DUP1 DUP1 PUSH2 0x1E48 SWAP1 PUSH2 0x4985 JUMP JUMPDEST SWAP2 POP POP PUSH2 0x1E0B JUMP JUMPDEST POP DUP1 PUSH2 0x1E5B CALLER PUSH2 0x15EF JUMP JUMPDEST LT ISZERO PUSH2 0x1E9C JUMPI PUSH1 0x40 MLOAD PUSH32 0x8C379A000000000000000000000000000000000000000000000000000000000 DUP2 MSTORE PUSH1 0x4 ADD PUSH2 0x1E93 SWAP1 PUSH2 0x4A19 JUMP JUMPDEST PUSH1 0x40 MLOAD DUP1 SWAP2 SUB SWAP1 REVERT JUMPDEST PUSH1 0x0 JUMPDEST DUP6 DUP6 SWAP1 POP DUP2 LT ISZERO PUSH2 0x1F09 JUMPI PUSH2 0x1EF5 CALLER DUP8 DUP8 DUP5 DUP2 DUP2 LT PUSH2 0x1EC1 JUMPI PUSH2 0x1EC0 PUSH2 0x4922 JUMP JUMPDEST JUMPDEST SWAP1 POP PUSH1 0x20 MUL ADD PUSH1 0x20 DUP2 ADD SWAP1 PUSH2 0x1ED6 SWAP2 SWAP1 PUSH2 0x39F7 JUMP JUMPDEST DUP7 DUP7 DUP6 DUP2 DUP2 LT PUSH2 0x1EE9 JUMPI PUSH2 0x1EE8 PUSH2 0x4922 JUMP JUMPDEST JUMPDEST SWAP1 POP PUSH1 0x20 MUL ADD CALLDATALOAD PUSH2 0x2CA0 JUMP JUMPDEST POP DUP1 DUP1 PUSH2 0x1F01 SWAP1 PUSH2 0x4985 JUMP JUMPDEST SWAP2 POP POP PUSH2 0x1E9F JUMP JUMPDEST POP POP POP POP POP POP JUMP JUMPDEST PUSH2 0x1F19 PUSH2 0x2C3A JUMP JUMPDEST PUSH20 0xFFFFFFFFFFFFFFFFFFFFFFFFFFFFFFFFFFFFFFFF AND PUSH1 0x0 DUP1 SLOAD SWAP1 PUSH2 0x100 EXP SWAP1 DIV PUSH20 0xFFFFFFFFFFFFFFFFFFFFFFFFFFFFFFFFFFFFFFFF AND PUSH20 0xFFFFFFFFFFFFFFFFFFFFFFFFFFFFFFFFFFFFFFFF AND EQ PUSH2 0x1FA6 JUMPI PUSH1 0x40 MLOAD PUSH32 0x8C379A000000000000000000000000000000000000000000000000000000000 DUP2 MSTORE PUSH1 0x4 ADD PUSH2 0x1F9D SWAP1 PUSH2 0x42E9 JUMP JUMPDEST PUSH1 0x40 MLOAD DUP1 SWAP2 SUB SWAP1 REVERT JUMPDEST DUP3 PUSH1 0x18 PUSH1 0x0 PUSH2 0x100 EXP DUP2 SLOAD DUP2 PUSH20 0xFFFFFFFFFFFFFFFFFFFFFFFFFFFFFFFFFFFFFFFF MUL NOT AND SWAP1 DUP4 PUSH20 0xFFFFFFFFFFFFFFFFFFFFFFFFFFFFFFFFFFFFFFFF AND MUL OR SWAP1 SSTORE POP DUP1 PUSH1 0x17 PUSH1 0x0 PUSH2 0x100 EXP DUP2 SLOAD DUP2 PUSH20 0xFFFFFFFFFFFFFFFFFFFFFFFFFFFFFFFFFFFFFFFF MUL NOT AND SWAP1 DUP4 PUSH20 0xFFFFFFFFFFFFFFFFFFFFFFFFFFFFFFFFFFFFFFFF AND MUL OR SWAP1 SSTORE POP DUP2 PUSH1 0x19 PUSH1 0x0 PUSH2 0x100 EXP DUP2 SLOAD DUP2 PUSH20 0xFFFFFFFFFFFFFFFFFFFFFFFFFFFFFFFFFFFFFFFF MUL NOT AND SWAP1 DUP4 PUSH20 0xFFFFFFFFFFFFFFFFFFFFFFFFFFFFFFFFFFFFFFFF AND MUL OR SWAP1 SSTORE POP POP POP POP JUMP JUMPDEST PUSH1 0x0 PUSH1 0x8 PUSH1 0x0 DUP5 PUSH20 0xFFFFFFFFFFFFFFFFFFFFFFFFFFFFFFFFFFFFFFFF AND PUSH20 0xFFFFFFFFFFFFFFFFFFFFFFFFFFFFFFFFFFFFFFFF AND DUP2 MSTORE PUSH1 0x20 ADD SWAP1 DUP2 MSTORE PUSH1 0x20 ADD PUSH1 0x0 KECCAK256 PUSH1 0x0 DUP4 PUSH20 0xFFFFFFFFFFFFFFFFFFFFFFFFFFFFFFFFFFFFFFFF AND PUSH20 0xFFFFFFFFFFFFFFFFFFFFFFFFFFFFFFFFFFFFFFFF AND DUP2 MSTORE PUSH1 0x20 ADD SWAP1 DUP2 MSTORE PUSH1 0x20 ADD PUSH1 0x0 KECCAK256 SLOAD SWAP1 POP SWAP3 SWAP2 POP POP JUMP JUMPDEST PUSH2 0x20FD PUSH2 0x2C3A JUMP JUMPDEST PUSH20 0xFFFFFFFFFFFFFFFFFFFFFFFFFFFFFFFFFFFFFFFF AND PUSH1 0x0 DUP1 SLOAD SWAP1 PUSH2 0x100 EXP SWAP1 DIV PUSH20 0xFFFFFFFFFFFFFFFFFFFFFFFFFFFFFFFFFFFFFFFF AND PUSH20 0xFFFFFFFFFFFFFFFFFFFFFFFFFFFFFFFFFFFFFFFF AND EQ PUSH2 0x218A JUMPI PUSH1 0x40 MLOAD PUSH32 0x8C379A000000000000000000000000000000000000000000000000000000000 DUP2 MSTORE PUSH1 0x4 ADD PUSH2 0x2181 SWAP1 PUSH2 0x42E9 JUMP JUMPDEST PUSH1 0x40 MLOAD DUP1 SWAP2 SUB SWAP1 REVERT JUMPDEST PUSH2 0x1F5 DUP3 MLOAD LT PUSH2 0x21CF JUMPI PUSH1 0x40 MLOAD PUSH32 0x8C379A000000000000000000000000000000000000000000000000000000000 DUP2 MSTORE PUSH1 0x4 ADD PUSH2 0x21C6 SWAP1 PUSH2 0x4AAB JUMP JUMPDEST PUSH1 0x40 MLOAD DUP1 SWAP2 SUB SWAP1 REVERT JUMPDEST PUSH1 0x0 JUMPDEST DUP3 MLOAD DUP2 LT ISZERO PUSH2 0x225D JUMPI DUP2 PUSH1 0x22 PUSH1 0x0 DUP6 DUP5 DUP2 MLOAD DUP2 LT PUSH2 0x21F3 JUMPI PUSH2 0x21F2 PUSH2 0x4922 JUMP JUMPDEST JUMPDEST PUSH1 0x20 MUL PUSH1 0x20 ADD ADD MLOAD PUSH20 0xFFFFFFFFFFFFFFFFFFFFFFFFFFFFFFFFFFFFFFFF AND PUSH20 0xFFFFFFFFFFFFFFFFFFFFFFFFFFFFFFFFFFFFFFFF AND DUP2 MSTORE PUSH1 0x20 ADD SWAP1 DUP2 MSTORE PUSH1 0x20 ADD PUSH1 0x0 KECCAK256 PUSH1 0x0 PUSH2 0x100 EXP DUP2 SLOAD DUP2 PUSH1 0xFF MUL NOT AND SWAP1 DUP4 ISZERO ISZERO MUL OR SWAP1 SSTORE POP DUP1 PUSH2 0x2256 SWAP1 PUSH2 0x4985 JUMP JUMPDEST SWAP1 POP PUSH2 0x21D2 JUMP JUMPDEST POP POP POP JUMP JUMPDEST PUSH2 0x226A PUSH2 0x2C3A JUMP JUMPDEST PUSH20 0xFFFFFFFFFFFFFFFFFFFFFFFFFFFFFFFFFFFFFFFF AND PUSH1 0x0 DUP1 SLOAD SWAP1 PUSH2 0x100 EXP SWAP1 DIV PUSH20 0xFFFFFFFFFFFFFFFFFFFFFFFFFFFFFFFFFFFFFFFF AND PUSH20 0xFFFFFFFFFFFFFFFFFFFFFFFFFFFFFFFFFFFFFFFF AND EQ PUSH2 0x22F7 JUMPI PUSH1 0x40 MLOAD PUSH32 0x8C379A000000000000000000000000000000000000000000000000000000000 DUP2 MSTORE PUSH1 0x4 ADD PUSH2 0x22EE SWAP1 PUSH2 0x42E9 JUMP JUMPDEST PUSH1 0x40 MLOAD DUP1 SWAP2 SUB SWAP1 REVERT JUMPDEST PUSH1 0x0 PUSH20 0xFFFFFFFFFFFFFFFFFFFFFFFFFFFFFFFFFFFFFFFF AND DUP2 PUSH20 0xFFFFFFFFFFFFFFFFFFFFFFFFFFFFFFFFFFFFFFFF AND SUB PUSH2 0x2366 JUMPI PUSH1 0x40 MLOAD PUSH32 0x8C379A000000000000000000000000000000000000000000000000000000000 DUP2 MSTORE PUSH1 0x4 ADD PUSH2 0x235D SWAP1 PUSH2 0x4B3D JUMP JUMPDEST PUSH1 0x40 MLOAD DUP1 SWAP2 SUB SWAP1 REVERT JUMPDEST DUP1 PUSH20 0xFFFFFFFFFFFFFFFFFFFFFFFFFFFFFFFFFFFFFFFF AND PUSH1 0x0 DUP1 SLOAD SWAP1 PUSH2 0x100 EXP SWAP1 DIV PUSH20 0xFFFFFFFFFFFFFFFFFFFFFFFFFFFFFFFFFFFFFFFF AND PUSH20 0xFFFFFFFFFFFFFFFFFFFFFFFFFFFFFFFFFFFFFFFF AND PUSH32 0x8BE0079C531659141344CD1FD0A4F28419497F9722A3DAAFE3B4186F6B6457E0 PUSH1 0x40 MLOAD PUSH1 0x40 MLOAD DUP1 SWAP2 SUB SWAP1 LOG3 DUP1 PUSH1 0x0 DUP1 PUSH2 0x100 EXP DUP2 SLOAD DUP2 PUSH20 0xFFFFFFFFFFFFFFFFFFFFFFFFFFFFFFFFFFFFFFFF MUL NOT AND SWAP1 DUP4 PUSH20 0xFFFFFFFFFFFFFFFFFFFFFFFFFFFFFFFFFFFFFFFF AND MUL OR SWAP1 SSTORE POP POP JUMP JUMPDEST PUSH2 0x242B PUSH2 0x2C3A JUMP JUMPDEST PUSH20 0xFFFFFFFFFFFFFFFFFFFFFFFFFFFFFFFFFFFFFFFF AND PUSH1 0x0 DUP1 SLOAD SWAP1 PUSH2 0x100 EXP SWAP1 DIV PUSH20 0xFFFFFFFFFFFFFFFFFFFFFFFFFFFFFFFFFFFFFFFF AND PUSH20 0xFFFFFFFFFFFFFFFFFFFFFFFFFFFFFFFFFFFFFFFF AND EQ PUSH2 0x24B8 JUMPI PUSH1 0x40 MLOAD PUSH32 0x8C379A000000000000000000000000000000000000000000000000000000000 DUP2 MSTORE PUSH1 0x4 ADD PUSH2 0x24AF SWAP1 PUSH2 0x42E9 JUMP JUMPDEST PUSH1 0x40 MLOAD DUP1 SWAP2 SUB SWAP1 REVERT JUMPDEST DUP1 PUSH1 0xB PUSH1 0x0 DUP5 PUSH20 0xFFFFFFFFFFFFFFFFFFFFFFFFFFFFFFFFFFFFFFFF AND PUSH20 0xFFFFFFFFFFFFFFFFFFFFFFFFFFFFFFFFFFFFFFFF AND DUP2 MSTORE PUSH1 0x20 ADD SWAP1 DUP2 MSTORE PUSH1 0x20 ADD PUSH1 0x0 KECCAK256 PUSH1 0x0 PUSH2 0x100 EXP DUP2 SLOAD DUP2 PUSH1 0xFF MUL NOT AND SWAP1 DUP4 ISZERO ISZERO MUL OR SWAP1 SSTORE POP POP POP JUMP JUMPDEST PUSH1 0x1C PUSH1 0x0 SWAP1 SLOAD SWAP1 PUSH2 0x100 EXP SWAP1 DIV PUSH20 0xFFFFFFFFFFFFFFFFFFFFFFFFFFFFFFFFFFFFFFFF AND DUP2 JUMP JUMPDEST PUSH1 0x0 DUP4 DUP4 GT ISZERO DUP3 SWAP1 PUSH2 0x2581 JUMPI PUSH1 0x40 MLOAD PUSH32 0x8C379A000000000000000000000000000000000000000000000000000000000 DUP2 MSTORE PUSH1 0x4 ADD PUSH2 0x2578 SWAP2 SWAP1 PUSH2 0x38C1 JUMP JUMPDEST PUSH1 0x40 MLOAD DUP1 SWAP2 SUB SWAP1 REVERT JUMPDEST POP PUSH1 0x0 DUP4 DUP6 PUSH2 0x2590 SWAP2 SWAP1 PUSH2 0x4B5D JUMP JUMPDEST SWAP1 POP DUP1 SWAP2 POP POP SWAP4 SWAP3 POP POP POP JUMP JUMPDEST PUSH1 0x0 PUSH1 0x21 PUSH1 0x1 SWAP1 SLOAD SWAP1 PUSH2 0x100 EXP SWAP1 DIV PUSH1 0xFF AND ISZERO DUP1 PUSH2 0x2604 JUMPI POP PUSH1 0x22 PUSH1 0x0 DUP6 PUSH20 0xFFFFFFFFFFFFFFFFFFFFFFFFFFFFFFFFFFFFFFFF AND PUSH20 0xFFFFFFFFFFFFFFFFFFFFFFFFFFFFFFFFFFFFFFFF AND DUP2 MSTORE PUSH1 0x20 ADD SWAP1 DUP2 MSTORE PUSH1 0x20 ADD PUSH1 0x0 KECCAK256 PUSH1 0x0 SWAP1 SLOAD SWAP1 PUSH2 0x100 EXP SWAP1 DIV PUSH1 0xFF AND JUMPDEST PUSH2 0x2643 JUMPI PUSH1 0x40 MLOAD PUSH32 0x8C379A000000000000000000000000000000000000000000000000000000000 DUP2 MSTORE PUSH1 0x4 ADD PUSH2 0x263A SWAP1 PUSH2 0x4C03 JUMP JUMPDEST PUSH1 0x40 MLOAD DUP1 SWAP2 SUB SWAP1 REVERT JUMPDEST PUSH1 0x21 PUSH1 0x0 SWAP1 SLOAD SWAP1 PUSH2 0x100 EXP SWAP1 DIV PUSH1 0xFF AND ISZERO PUSH2 0x266A JUMPI PUSH2 0x2663 DUP5 DUP5 DUP5 PUSH2 0x2CA0 JUMP JUMPDEST SWAP1 POP PUSH2 0x2B25 JUMP JUMPDEST PUSH1 0x1D PUSH1 0x0 SWAP1 SLOAD SWAP1 PUSH2 0x100 EXP SWAP1 DIV PUSH20 0xFFFFFFFFFFFFFFFFFFFFFFFFFFFFFFFFFFFFFFFF AND PUSH20 0xFFFFFFFFFFFFFFFFFFFFFFFFFFFFFFFFFFFFFFFF AND DUP4 PUSH20 0xFFFFFFFFFFFFFFFFFFFFFFFFFFFFFFFFFFFFFFFF AND EQ ISZERO DUP1 ISZERO PUSH2 0x26F6 JUMPI POP PUSH2 0xDEAD PUSH20 0xFFFFFFFFFFFFFFFFFFFFFFFFFFFFFFFFFFFFFFFF AND DUP4 PUSH20 0xFFFFFFFFFFFFFFFFFFFFFFFFFFFFFFFFFFFFFFFF AND EQ ISZERO JUMPDEST DUP1 ISZERO PUSH2 0x2750 JUMPI POP PUSH1 0x18 PUSH1 0x0 SWAP1 SLOAD SWAP1 PUSH2 0x100 EXP SWAP1 DIV PUSH20 0xFFFFFFFFFFFFFFFFFFFFFFFFFFFFFFFFFFFFFFFF AND PUSH20 0xFFFFFFFFFFFFFFFFFFFFFFFFFFFFFFFFFFFFFFFF AND DUP4 PUSH20 0xFFFFFFFFFFFFFFFFFFFFFFFFFFFFFFFFFFFFFFFF AND EQ ISZERO JUMPDEST DUP1 ISZERO PUSH2 0x27A6 JUMPI POP PUSH1 0xB PUSH1 0x0 DUP5 PUSH20 0xFFFFFFFFFFFFFFFFFFFFFFFFFFFFFFFFFFFFFFFF AND PUSH20 0xFFFFFFFFFFFFFFFFFFFFFFFFFFFFFFFFFFFFFFFF AND DUP2 MSTORE PUSH1 0x20 ADD SWAP1 DUP2 MSTORE PUSH1 0x20 ADD PUSH1 0x0 KECCAK256 PUSH1 0x0 SWAP1 SLOAD SWAP1 PUSH2 0x100 EXP SWAP1 DIV PUSH1 0xFF AND ISZERO JUMPDEST ISZERO PUSH2 0x2804 JUMPI PUSH1 0x5 SLOAD DUP3 PUSH2 0x27B8 DUP6 PUSH2 0x15EF JUMP JUMPDEST PUSH2 0x27C2 SWAP2 SWAP1 PUSH2 0x4951 JUMP JUMPDEST GT ISZERO PUSH2 0x2803 JUMPI PUSH1 0x40 MLOAD PUSH32 0x8C379A000000000000000000000000000000000000000000000000000000000 DUP2 MSTORE PUSH1 0x4 ADD PUSH2 0x27FA SWAP1 PUSH2 0x4C6F JUMP JUMPDEST PUSH1 0x40 MLOAD DUP1 SWAP2 SUB SWAP1 REVERT JUMPDEST JUMPDEST PUSH1 0xB PUSH1 0x0 DUP6 PUSH20 0xFFFFFFFFFFFFFFFFFFFFFFFFFFFFFFFFFFFFFFFF AND PUSH20 0xFFFFFFFFFFFFFFFFFFFFFFFFFFFFFFFFFFFFFFFF AND DUP2 MSTORE PUSH1 0x20 ADD SWAP1 DUP2 MSTORE PUSH1 0x20 ADD PUSH1 0x0 KECCAK256 PUSH1 0x0 SWAP1 SLOAD SWAP1 PUSH2 0x100 EXP SWAP1 DIV PUSH1 0xFF AND PUSH2 0x289B JUMPI PUSH1 0x4 SLOAD DUP3 GT ISZERO PUSH2 0x289A JUMPI PUSH1 0x40 MLOAD PUSH32 0x8C379A000000000000000000000000000000000000000000000000000000000 DUP2 MSTORE PUSH1 0x4 ADD PUSH2 0x2891 SWAP1 PUSH2 0x4CDB JUMP JUMPDEST PUSH1 0x40 MLOAD DUP1 SWAP2 SUB SWAP1 REVERT JUMPDEST JUMPDEST PUSH2 0x28A3 PUSH2 0x2E80 JUMP JUMPDEST ISZERO PUSH2 0x28B1 JUMPI PUSH2 0x28B0 PUSH2 0x2F20 JUMP JUMPDEST JUMPDEST PUSH1 0x0 PUSH2 0x28BC DUP4 PUSH2 0x12B7 JUMP JUMPDEST SWAP1 POP PUSH2 0x2947 DUP2 PUSH1 0x40 MLOAD DUP1 PUSH1 0x40 ADD PUSH1 0x40 MSTORE DUP1 PUSH1 0x14 DUP2 MSTORE PUSH1 0x20 ADD PUSH32 0x496E73756666696369656E742042616C616E6365000000000000000000000000 DUP2 MSTORE POP PUSH1 0x6 PUSH1 0x0 DUP10 PUSH20 0xFFFFFFFFFFFFFFFFFFFFFFFFFFFFFFFFFFFFFFFF AND PUSH20 0xFFFFFFFFFFFFFFFFFFFFFFFFFFFFFFFFFFFFFFFF AND DUP2 MSTORE PUSH1 0x20 ADD SWAP1 DUP2 MSTORE PUSH1 0x20 ADD PUSH1 0x0 KECCAK256 SLOAD PUSH2 0x2539 SWAP1 SWAP3 SWAP2 SWAP1 PUSH4 0xFFFFFFFF AND JUMP JUMPDEST PUSH1 0x6 PUSH1 0x0 DUP8 PUSH20 0xFFFFFFFFFFFFFFFFFFFFFFFFFFFFFFFFFFFFFFFF AND PUSH20 0xFFFFFFFFFFFFFFFFFFFFFFFFFFFFFFFFFFFFFFFF AND DUP2 MSTORE PUSH1 0x20 ADD SWAP1 DUP2 MSTORE PUSH1 0x20 ADD PUSH1 0x0 KECCAK256 DUP2 SWAP1 SSTORE POP PUSH1 0x0 PUSH2 0x2995 DUP7 PUSH2 0x34DA JUMP JUMPDEST DUP1 ISZERO PUSH2 0x29A6 JUMPI POP PUSH2 0x29A5 DUP6 PUSH2 0x34DA JUMP JUMPDEST JUMPDEST PUSH2 0x29B0 JUMPI DUP2 PUSH2 0x2A1A JUMP JUMPDEST PUSH2 0x2A19 PUSH1 0x1D PUSH1 0x0 SWAP1 SLOAD SWAP1 PUSH2 0x100 EXP SWAP1 DIV PUSH20 0xFFFFFFFFFFFFFFFFFFFFFFFFFFFFFFFFFFFFFFFF AND PUSH20 0xFFFFFFFFFFFFFFFFFFFFFFFFFFFFFFFFFFFFFFFF AND DUP8 PUSH20 0xFFFFFFFFFFFFFFFFFFFFFFFFFFFFFFFFFFFFFFFF AND EQ PUSH2 0x2A0F JUMPI PUSH1 0x0 PUSH2 0x2A12 JUMP JUMPDEST PUSH1 0x1 JUMPDEST DUP8 DUP5 PUSH2 0x3531 JUMP JUMPDEST JUMPDEST SWAP1 POP PUSH2 0x2A6E DUP2 PUSH1 0x6 PUSH1 0x0 DUP9 PUSH20 0xFFFFFFFFFFFFFFFFFFFFFFFFFFFFFFFFFFFFFFFF AND PUSH20 0xFFFFFFFFFFFFFFFFFFFFFFFFFFFFFFFFFFFFFFFF AND DUP2 MSTORE PUSH1 0x20 ADD SWAP1 DUP2 MSTORE PUSH1 0x20 ADD PUSH1 0x0 KECCAK256 SLOAD PUSH2 0x2C42 SWAP1 SWAP2 SWAP1 PUSH4 0xFFFFFFFF AND JUMP JUMPDEST PUSH1 0x6 PUSH1 0x0 DUP8 PUSH20 0xFFFFFFFFFFFFFFFFFFFFFFFFFFFFFFFFFFFFFFFF AND PUSH20 0xFFFFFFFFFFFFFFFFFFFFFFFFFFFFFFFFFFFFFFFF AND DUP2 MSTORE PUSH1 0x20 ADD SWAP1 DUP2 MSTORE PUSH1 0x20 ADD PUSH1 0x0 KECCAK256 DUP2 SWAP1 SSTORE POP DUP5 PUSH20 0xFFFFFFFFFFFFFFFFFFFFFFFFFFFFFFFFFFFFFFFF AND DUP7 PUSH20 0xFFFFFFFFFFFFFFFFFFFFFFFFFFFFFFFFFFFFFFFF AND PUSH32 0xDDF252AD1BE2C89B69C2B068FC378DAA952BA7F163C4A11628F55A4DF523B3EF PUSH2 0x2B09 DUP5 PUSH2 0xEFF JUMP JUMPDEST PUSH1 0x40 MLOAD PUSH2 0x2B16 SWAP2 SWAP1 PUSH2 0x3816 JUMP JUMPDEST PUSH1 0x40 MLOAD DUP1 SWAP2 SUB SWAP1 LOG3 PUSH1 0x1 SWAP3 POP POP POP JUMPDEST SWAP4 SWAP3 POP POP POP JUMP JUMPDEST PUSH1 0x0 PUSH2 0x2B6E DUP4 DUP4 PUSH1 0x40 MLOAD DUP1 PUSH1 0x40 ADD PUSH1 0x40 MSTORE DUP1 PUSH1 0x1E DUP2 MSTORE PUSH1 0x20 ADD PUSH32 0x536166654D6174683A207375627472616374696F6E206F766572666C6F770000 DUP2 MSTORE POP PUSH2 0x2539 JUMP JUMPDEST SWAP1 POP SWAP3 SWAP2 POP POP JUMP JUMPDEST PUSH1 0x0 DUP1 DUP4 SUB PUSH2 0x2B88 JUMPI PUSH1 0x0 SWAP1 POP PUSH2 0x2BEA JUMP JUMPDEST PUSH1 0x0 DUP3 DUP5 PUSH2 0x2B96 SWAP2 SWAP1 PUSH2 0x46F0 JUMP JUMPDEST SWAP1 POP DUP3 DUP5 DUP3 PUSH2 0x2BA5 SWAP2 SWAP1 PUSH2 0x4761 JUMP JUMPDEST EQ PUSH2 0x2BE5 JUMPI PUSH1 0x40 MLOAD PUSH32 0x8C379A000000000000000000000000000000000000000000000000000000000 DUP2 MSTORE PUSH1 0x4 ADD PUSH2 0x2BDC SWAP1 PUSH2 0x4D6D JUMP JUMPDEST PUSH1 0x40 MLOAD DUP1 SWAP2 SUB SWAP1 REVERT JUMPDEST DUP1 SWAP2 POP POP JUMPDEST SWAP3 SWAP2 POP POP JUMP JUMPDEST PUSH1 0x0 PUSH2 0x2C32 DUP4 DUP4 PUSH1 0x40 MLOAD DUP1 PUSH1 0x40 ADD PUSH1 0x40 MSTORE DUP1 PUSH1 0x1A DUP2 MSTORE PUSH1 0x20 ADD PUSH32 0x536166654D6174683A206469766973696F6E206279207A65726F000000000000 DUP2 MSTORE POP PUSH2 0x379A JUMP JUMPDEST SWAP1 POP SWAP3 SWAP2 POP POP JUMP JUMPDEST PUSH1 0x0 CALLER SWAP1 POP SWAP1 JUMP JUMPDEST PUSH1 0x0 DUP1 DUP3 DUP5 PUSH2 0x2C51 SWAP2 SWAP1 PUSH2 0x4951 JUMP JUMPDEST SWAP1 POP DUP4 DUP2 LT ISZERO PUSH2 0x2C96 JUMPI PUSH1 0x40 MLOAD PUSH32 0x8C379A000000000000000000000000000000000000000000000000000000000 DUP2 MSTORE PUSH1 0x4 ADD PUSH2 0x2C8D SWAP1 PUSH2 0x4DD9 JUMP JUMPDEST PUSH1 0x40 MLOAD DUP1 SWAP2 SUB SWAP1 REVERT JUMPDEST DUP1 SWAP2 POP POP SWAP3 SWAP2 POP POP JUMP JUMPDEST PUSH1 0x0 DUP1 PUSH2 0x2CAC DUP4 PUSH2 0x12B7 JUMP JUMPDEST SWAP1 POP PUSH2 0x2D37 DUP2 PUSH1 0x40 MLOAD DUP1 PUSH1 0x40 ADD PUSH1 0x40 MSTORE DUP1 PUSH1 0x14 DUP2 MSTORE PUSH1 0x20 ADD PUSH32 0x496E73756666696369656E742042616C616E6365000000000000000000000000 DUP2 MSTORE POP PUSH1 0x6 PUSH1 0x0 DUP10 PUSH20 0xFFFFFFFFFFFFFFFFFFFFFFFFFFFFFFFFFFFFFFFF AND PUSH20 0xFFFFFFFFFFFFFFFFFFFFFFFFFFFFFFFFFFFFFFFF AND DUP2 MSTORE PUSH1 0x20 ADD SWAP1 DUP2 MSTORE PUSH1 0x20 ADD PUSH1 0x0 KECCAK256 SLOAD PUSH2 0x2539 SWAP1 SWAP3 SWAP2 SWAP1 PUSH4 0xFFFFFFFF AND JUMP JUMPDEST PUSH1 0x6 PUSH1 0x0 DUP8 PUSH20 0xFFFFFFFFFFFFFFFFFFFFFFFFFFFFFFFFFFFFFFFF AND PUSH20 0xFFFFFFFFFFFFFFFFFFFFFFFFFFFFFFFFFFFFFFFF AND DUP2 MSTORE PUSH1 0x20 ADD SWAP1 DUP2 MSTORE PUSH1 0x20 ADD PUSH1 0x0 KECCAK256 DUP2 SWAP1 SSTORE POP PUSH2 0x2DCC DUP2 PUSH1 0x6 PUSH1 0x0 DUP8 PUSH20 0xFFFFFFFFFFFFFFFFFFFFFFFFFFFFFFFFFFFFFFFF AND PUSH20 0xFFFFFFFFFFFFFFFFFFFFFFFFFFFFFFFFFFFFFFFF AND DUP2 MSTORE PUSH1 0x20 ADD SWAP1 DUP2 MSTORE PUSH1 0x20 ADD PUSH1 0x0 KECCAK256 SLOAD PUSH2 0x2C42 SWAP1 SWAP2 SWAP1 PUSH4 0xFFFFFFFF AND JUMP JUMPDEST PUSH1 0x6 PUSH1 0x0 DUP7 PUSH20 0xFFFFFFFFFFFFFFFFFFFFFFFFFFFFFFFFFFFFFFFF AND PUSH20 0xFFFFFFFFFFFFFFFFFFFFFFFFFFFFFFFFFFFFFFFF AND DUP2 MSTORE PUSH1 0x20 ADD SWAP1 DUP2 MSTORE PUSH1 0x20 ADD PUSH1 0x0 KECCAK256 DUP2 SWAP1 SSTORE POP DUP4 PUSH20 0xFFFFFFFFFFFFFFFFFFFFFFFFFFFFFFFFFFFFFFFF AND DUP6 PUSH20 0xFFFFFFFFFFFFFFFFFFFFFFFFFFFFFFFFFFFFFFFF AND PUSH32 0xDDF252AD1BE2C89B69C2B068FC378DAA952BA7F163C4A11628F55A4DF523B3EF DUP6 PUSH1 0x40 MLOAD PUSH2 0x2E6C SWAP2 SWAP1 PUSH2 0x3816 JUMP JUMPDEST PUSH1 0x40 MLOAD DUP1 SWAP2 SUB SWAP1 LOG3 PUSH1 0x1 SWAP2 POP POP SWAP4 SWAP3 POP POP POP JUMP JUMPDEST PUSH1 0x0 PUSH1 0x1D PUSH1 0x0 SWAP1 SLOAD SWAP1 PUSH2 0x100 EXP SWAP1 DIV PUSH20 0xFFFFFFFFFFFFFFFFFFFFFFFFFFFFFFFFFFFFFFFF AND PUSH20 0xFFFFFFFFFFFFFFFFFFFFFFFFFFFFFFFFFFFFFFFF AND CALLER PUSH20 0xFFFFFFFFFFFFFFFFFFFFFFFFFFFFFFFFFFFFFFFF AND EQ ISZERO DUP1 ISZERO PUSH2 0x2EED JUMPI POP PUSH1 0x21 PUSH1 0x0 SWAP1 SLOAD SWAP1 PUSH2 0x100 EXP SWAP1 DIV PUSH1 0xFF AND ISZERO JUMPDEST DUP1 ISZERO PUSH2 0x2F05 JUMPI POP PUSH1 0x1D PUSH1 0x14 SWAP1 SLOAD SWAP1 PUSH2 0x100 EXP SWAP1 DIV PUSH1 0xFF AND JUMPDEST DUP1 ISZERO PUSH2 0x2F1B JUMPI POP PUSH1 0x20 SLOAD PUSH2 0x2F18 ADDRESS PUSH2 0x15EF JUMP JUMPDEST LT ISZERO JUMPDEST SWAP1 POP SWAP1 JUMP JUMPDEST PUSH1 0x1 PUSH1 0x21 PUSH1 0x0 PUSH2 0x100 EXP DUP2 SLOAD DUP2 PUSH1 0xFF MUL NOT AND SWAP1 DUP4 ISZERO ISZERO MUL OR SWAP1 SSTORE POP PUSH1 0x0 PUSH2 0x2F4B PUSH1 0x1A SLOAD PUSH1 0x1B SLOAD PUSH2 0xC99 JUMP JUMPDEST PUSH2 0x2F57 JUMPI PUSH1 0xD SLOAD PUSH2 0x2F5A JUMP JUMPDEST PUSH1 0x0 JUMPDEST SWAP1 POP PUSH1 0x0 PUSH2 0x2F75 PUSH1 0x13 SLOAD PUSH1 0x15 SLOAD PUSH2 0x2B2C SWAP1 SWAP2 SWAP1 PUSH4 0xFFFFFFFF AND JUMP JUMPDEST SWAP1 POP PUSH1 0x0 PUSH2 0x2FB3 PUSH1 0x2 PUSH2 0x2FA5 DUP5 PUSH2 0x2F97 DUP8 PUSH1 0x20 SLOAD PUSH2 0x2B76 SWAP1 SWAP2 SWAP1 PUSH4 0xFFFFFFFF AND JUMP JUMPDEST PUSH2 0x2BF0 SWAP1 SWAP2 SWAP1 PUSH4 0xFFFFFFFF AND JUMP JUMPDEST PUSH2 0x2BF0 SWAP1 SWAP2 SWAP1 PUSH4 0xFFFFFFFF AND JUMP JUMPDEST SWAP1 POP PUSH1 0x0 PUSH2 0x2FCC DUP3 PUSH1 0x20 SLOAD PUSH2 0x2B2C SWAP1 SWAP2 SWAP1 PUSH4 0xFFFFFFFF AND JUMP JUMPDEST SWAP1 POP PUSH1 0x0 PUSH1 0x2 PUSH8 0xFFFFFFFFFFFFFFFF DUP2 GT ISZERO PUSH2 0x2FEB JUMPI PUSH2 0x2FEA PUSH2 0x3BDB JUMP JUMPDEST JUMPDEST PUSH1 0x40 MLOAD SWAP1 DUP1 DUP3 MSTORE DUP1 PUSH1 0x20 MUL PUSH1 0x20 ADD DUP3 ADD PUSH1 0x40 MSTORE DUP1 ISZERO PUSH2 0x3019 JUMPI DUP2 PUSH1 0x20 ADD PUSH1 0x20 DUP3 MUL DUP1 CALLDATASIZE DUP4 CALLDATACOPY DUP1 DUP3 ADD SWAP2 POP POP SWAP1 POP JUMPDEST POP SWAP1 POP ADDRESS DUP2 PUSH1 0x0 DUP2 MLOAD DUP2 LT PUSH2 0x3031 JUMPI PUSH2 0x3030 PUSH2 0x4922 JUMP JUMPDEST JUMPDEST PUSH1 0x20 MUL PUSH1 0x20 ADD ADD SWAP1 PUSH20 0xFFFFFFFFFFFFFFFFFFFFFFFFFFFFFFFFFFFFFFFF AND SWAP1 DUP2 PUSH20 0xFFFFFFFFFFFFFFFFFFFFFFFFFFFFFFFFFFFFFFFF AND DUP2 MSTORE POP POP PUSH20 0xBB4CDB9CBD36B01BD1CBAEBF2DE08D9173BC095C DUP2 PUSH1 0x1 DUP2 MLOAD DUP2 LT PUSH2 0x3094 JUMPI PUSH2 0x3093 PUSH2 0x4922 JUMP JUMPDEST JUMPDEST PUSH1 0x20 MUL PUSH1 0x20 ADD ADD SWAP1 PUSH20 0xFFFFFFFFFFFFFFFFFFFFFFFFFFFFFFFFFFFFFFFF AND SWAP1 DUP2 PUSH20 0xFFFFFFFFFFFFFFFFFFFFFFFFFFFFFFFFFFFFFFFF AND DUP2 MSTORE POP POP PUSH1 0x0 SELFBALANCE SWAP1 POP PUSH1 0x1C PUSH1 0x0 SWAP1 SLOAD SWAP1 PUSH2 0x100 EXP SWAP1 DIV PUSH20 0xFFFFFFFFFFFFFFFFFFFFFFFFFFFFFFFFFFFFFFFF AND PUSH20 0xFFFFFFFFFFFFFFFFFFFFFFFFFFFFFFFFFFFFFFFF AND PUSH4 0x791AC947 DUP5 PUSH1 0x0 DUP6 ADDRESS TIMESTAMP PUSH1 0x40 MLOAD DUP7 PUSH4 0xFFFFFFFF AND PUSH1 0xE0 SHL DUP2 MSTORE PUSH1 0x4 ADD PUSH2 0x3137 SWAP6 SWAP5 SWAP4 SWAP3 SWAP2 SWAP1 PUSH2 0x4EF2 JUMP JUMPDEST PUSH1 0x0 PUSH1 0x40 MLOAD DUP1 DUP4 SUB DUP2 PUSH1 0x0 DUP8 DUP1 EXTCODESIZE ISZERO DUP1 ISZERO PUSH2 0x3151 JUMPI PUSH1 0x0 DUP1 REVERT JUMPDEST POP GAS CALL ISZERO DUP1 ISZERO PUSH2 0x3165 JUMPI RETURNDATASIZE PUSH1 0x0 DUP1 RETURNDATACOPY RETURNDATASIZE PUSH1 0x0 REVERT JUMPDEST POP POP POP POP PUSH1 0x0 PUSH2 0x317E DUP3 SELFBALANCE PUSH2 0x2B2C SWAP1 SWAP2 SWAP1 PUSH4 0xFFFFFFFF AND JUMP JUMPDEST SWAP1 POP PUSH1 0x0 PUSH2 0x31A8 PUSH2 0x3199 PUSH1 0x2 DUP11 PUSH2 0x2BF0 SWAP1 SWAP2 SWAP1 PUSH4 0xFFFFFFFF AND JUMP JUMPDEST DUP9 PUSH2 0x2B2C SWAP1 SWAP2 SWAP1 PUSH4 0xFFFFFFFF AND JUMP JUMPDEST SWAP1 POP PUSH1 0x0 PUSH2 0x31E6 PUSH1 0x2 PUSH2 0x31D8 DUP5 PUSH2 0x31CA PUSH1 0xD SLOAD DUP9 PUSH2 0x2B76 SWAP1 SWAP2 SWAP1 PUSH4 0xFFFFFFFF AND JUMP JUMPDEST PUSH2 0x2BF0 SWAP1 SWAP2 SWAP1 PUSH4 0xFFFFFFFF AND JUMP JUMPDEST PUSH2 0x2BF0 SWAP1 SWAP2 SWAP1 PUSH4 0xFFFFFFFF AND JUMP JUMPDEST SWAP1 POP PUSH1 0x0 PUSH2 0x3211 DUP4 PUSH2 0x3203 PUSH1 0x11 SLOAD DUP8 PUSH2 0x2B76 SWAP1 SWAP2 SWAP1 PUSH4 0xFFFFFFFF AND JUMP JUMPDEST PUSH2 0x2BF0 SWAP1 SWAP2 SWAP1 PUSH4 0xFFFFFFFF AND JUMP JUMPDEST SWAP1 POP PUSH1 0x0 PUSH2 0x323C DUP5 PUSH2 0x322E PUSH1 0xF SLOAD DUP9 PUSH2 0x2B76 SWAP1 SWAP2 SWAP1 PUSH4 0xFFFFFFFF AND JUMP JUMPDEST PUSH2 0x2BF0 SWAP1 SWAP2 SWAP1 PUSH4 0xFFFFFFFF AND JUMP JUMPDEST SWAP1 POP PUSH1 0x0 PUSH1 0x18 PUSH1 0x0 SWAP1 SLOAD SWAP1 PUSH2 0x100 EXP SWAP1 DIV PUSH20 0xFFFFFFFFFFFFFFFFFFFFFFFFFFFFFFFFFFFFFFFF AND PUSH20 0xFFFFFFFFFFFFFFFFFFFFFFFFFFFFFFFFFFFFFFFF AND DUP4 PUSH2 0x7530 SWAP1 PUSH1 0x40 MLOAD PUSH2 0x328A SWAP1 PUSH2 0x4F7D JUMP JUMPDEST PUSH1 0x0 PUSH1 0x40 MLOAD DUP1 DUP4 SUB DUP2 DUP6 DUP9 DUP9 CALL SWAP4 POP POP POP POP RETURNDATASIZE DUP1 PUSH1 0x0 DUP2 EQ PUSH2 0x32C8 JUMPI PUSH1 0x40 MLOAD SWAP2 POP PUSH1 0x1F NOT PUSH1 0x3F RETURNDATASIZE ADD AND DUP3 ADD PUSH1 0x40 MSTORE RETURNDATASIZE DUP3 MSTORE RETURNDATASIZE PUSH1 0x0 PUSH1 0x20 DUP5 ADD RETURNDATACOPY PUSH2 0x32CD JUMP JUMPDEST PUSH1 0x60 SWAP2 POP JUMPDEST POP POP SWAP1 POP PUSH1 0x19 PUSH1 0x0 SWAP1 SLOAD SWAP1 PUSH2 0x100 EXP SWAP1 DIV PUSH20 0xFFFFFFFFFFFFFFFFFFFFFFFFFFFFFFFFFFFFFFFF AND PUSH20 0xFFFFFFFFFFFFFFFFFFFFFFFFFFFFFFFFFFFFFFFF AND DUP3 PUSH2 0x7530 SWAP1 PUSH1 0x40 MLOAD PUSH2 0x331B SWAP1 PUSH2 0x4F7D JUMP JUMPDEST PUSH1 0x0 PUSH1 0x40 MLOAD DUP1 DUP4 SUB DUP2 DUP6 DUP9 DUP9 CALL SWAP4 POP POP POP POP RETURNDATASIZE DUP1 PUSH1 0x0 DUP2 EQ PUSH2 0x3359 JUMPI PUSH1 0x40 MLOAD SWAP2 POP PUSH1 0x1F NOT PUSH1 0x3F RETURNDATASIZE ADD AND DUP3 ADD PUSH1 0x40 MSTORE RETURNDATASIZE DUP3 MSTORE RETURNDATASIZE PUSH1 0x0 PUSH1 0x20 DUP5 ADD RETURNDATACOPY PUSH2 0x335E JUMP JUMPDEST PUSH1 0x60 SWAP2 POP JUMPDEST POP POP DUP1 SWAP2 POP POP PUSH1 0x0 DUP11 GT ISZERO PUSH2 0x3476 JUMPI PUSH1 0x1C PUSH1 0x0 SWAP1 SLOAD SWAP1 PUSH2 0x100 EXP SWAP1 DIV PUSH20 0xFFFFFFFFFFFFFFFFFFFFFFFFFFFFFFFFFFFFFFFF AND PUSH20 0xFFFFFFFFFFFFFFFFFFFFFFFFFFFFFFFFFFFFFFFF AND PUSH4 0xF305D719 DUP6 ADDRESS DUP14 PUSH1 0x0 DUP1 PUSH1 0x17 PUSH1 0x0 SWAP1 SLOAD SWAP1 PUSH2 0x100 EXP SWAP1 DIV PUSH20 0xFFFFFFFFFFFFFFFFFFFFFFFFFFFFFFFFFFFFFFFF AND TIMESTAMP PUSH1 0x40 MLOAD DUP9 PUSH4 0xFFFFFFFF AND PUSH1 0xE0 SHL DUP2 MSTORE PUSH1 0x4 ADD PUSH2 0x33F6 SWAP7 SWAP6 SWAP5 SWAP4 SWAP3 SWAP2 SWAP1 PUSH2 0x4F92 JUMP JUMPDEST PUSH1 0x60 PUSH1 0x40 MLOAD DUP1 DUP4 SUB DUP2 DUP6 DUP9 GAS CALL ISZERO DUP1 ISZERO PUSH2 0x3414 JUMPI RETURNDATASIZE PUSH1 0x0 DUP1 RETURNDATACOPY RETURNDATASIZE PUSH1 0x0 REVERT JUMPDEST POP POP POP POP POP PUSH1 0x40 MLOAD RETURNDATASIZE PUSH1 0x1F NOT PUSH1 0x1F DUP3 ADD AND DUP3 ADD DUP1 PUSH1 0x40 MSTORE POP DUP2 ADD SWAP1 PUSH2 0x3439 SWAP2 SWAP1 PUSH2 0x5008 JUMP JUMPDEST POP POP POP PUSH32 0x424DB2872186FA7E7AFA7A5E902ED3B49A2EF19C2F5431E672462495DD6B4506 DUP5 DUP12 PUSH1 0x40 MLOAD PUSH2 0x346D SWAP3 SWAP2 SWAP1 PUSH2 0x505B JUMP JUMPDEST PUSH1 0x40 MLOAD DUP1 SWAP2 SUB SWAP1 LOG1 JUMPDEST PUSH1 0x1D PUSH1 0x15 SWAP1 SLOAD SWAP1 PUSH2 0x100 EXP SWAP1 DIV PUSH1 0xFF AND ISZERO PUSH2 0x34A7 JUMPI PUSH1 0x1E SLOAD PUSH1 0x20 SLOAD EQ PUSH2 0x349E JUMPI PUSH1 0x1E SLOAD PUSH2 0x34A2 JUMP JUMPDEST PUSH1 0x1F SLOAD JUMPDEST PUSH2 0x34AB JUMP JUMPDEST PUSH1 0x20 SLOAD JUMPDEST PUSH1 0x20 DUP2 SWAP1 SSTORE POP POP POP POP POP POP POP POP POP POP POP POP POP PUSH1 0x0 PUSH1 0x21 PUSH1 0x0 PUSH2 0x100 EXP DUP2 SLOAD DUP2 PUSH1 0xFF MUL NOT AND SWAP1 DUP4 ISZERO ISZERO MUL OR SWAP1 SSTORE POP JUMP JUMPDEST PUSH1 0x0 PUSH1 0x9 PUSH1 0x0 DUP4 PUSH20 0xFFFFFFFFFFFFFFFFFFFFFFFFFFFFFFFFFFFFFFFF AND PUSH20 0xFFFFFFFFFFFFFFFFFFFFFFFFFFFFFFFFFFFFFFFF AND DUP2 MSTORE PUSH1 0x20 ADD SWAP1 DUP2 MSTORE PUSH1 0x20 ADD PUSH1 0x0 KECCAK256 PUSH1 0x0 SWAP1 SLOAD SWAP1 PUSH2 0x100 EXP SWAP1 DIV PUSH1 0xFF AND ISZERO SWAP1 POP SWAP2 SWAP1 POP JUMP JUMPDEST PUSH1 0x0 DUP1 PUSH1 0x1 ISZERO ISZERO DUP6 ISZERO ISZERO EQ PUSH2 0x3573 JUMPI PUSH2 0x356E PUSH1 0x16 SLOAD PUSH2 0x3560 PUSH2 0x3551 PUSH2 0x1B6A JUMP JUMPDEST DUP7 PUSH2 0x2B76 SWAP1 SWAP2 SWAP1 PUSH4 0xFFFFFFFF AND JUMP JUMPDEST PUSH2 0x2BF0 SWAP1 SWAP2 SWAP1 PUSH4 0xFFFFFFFF AND JUMP JUMPDEST PUSH2 0x35A2 JUMP JUMPDEST PUSH2 0x35A1 PUSH1 0x16 SLOAD PUSH2 0x3593 PUSH2 0x3584 PUSH2 0x1A3B JUMP JUMPDEST DUP7 PUSH2 0x2B76 SWAP1 SWAP2 SWAP1 PUSH4 0xFFFFFFFF AND JUMP JUMPDEST PUSH2 0x2BF0 SWAP1 SWAP2 SWAP1 PUSH4 0xFFFFFFFF AND JUMP JUMPDEST JUMPDEST SWAP1 POP PUSH1 0x0 PUSH1 0x1 ISZERO ISZERO DUP7 ISZERO ISZERO EQ PUSH2 0x35E0 JUMPI PUSH2 0x35DB PUSH1 0x15 SLOAD PUSH2 0x35CD PUSH1 0x13 SLOAD DUP6 PUSH2 0x2B76 SWAP1 SWAP2 SWAP1 PUSH4 0xFFFFFFFF AND JUMP JUMPDEST PUSH2 0x2BF0 SWAP1 SWAP2 SWAP1 PUSH4 0xFFFFFFFF AND JUMP JUMPDEST PUSH2 0x360A JUMP JUMPDEST PUSH2 0x3609 PUSH1 0x14 SLOAD PUSH2 0x35FB PUSH1 0x12 SLOAD DUP6 PUSH2 0x2B76 SWAP1 SWAP2 SWAP1 PUSH4 0xFFFFFFFF AND JUMP JUMPDEST PUSH2 0x2BF0 SWAP1 SWAP2 SWAP1 PUSH4 0xFFFFFFFF AND JUMP JUMPDEST JUMPDEST SWAP1 POP PUSH2 0x3621 DUP2 PUSH1 0x7 SLOAD PUSH2 0x2B2C SWAP1 SWAP2 SWAP1 PUSH4 0xFFFFFFFF AND JUMP JUMPDEST PUSH1 0x7 DUP2 SWAP1 SSTORE POP PUSH1 0x0 PUSH2 0x363C DUP3 DUP5 PUSH2 0x2B2C SWAP1 SWAP2 SWAP1 PUSH4 0xFFFFFFFF AND JUMP JUMPDEST SWAP1 POP PUSH2 0x3690 DUP2 PUSH1 0x6 PUSH1 0x0 ADDRESS PUSH20 0xFFFFFFFFFFFFFFFFFFFFFFFFFFFFFFFFFFFFFFFF AND PUSH20 0xFFFFFFFFFFFFFFFFFFFFFFFFFFFFFFFFFFFFFFFF AND DUP2 MSTORE PUSH1 0x20 ADD SWAP1 DUP2 MSTORE PUSH1 0x20 ADD PUSH1 0x0 KECCAK256 SLOAD PUSH2 0x2C42 SWAP1 SWAP2 SWAP1 PUSH4 0xFFFFFFFF AND JUMP JUMPDEST PUSH1 0x6 PUSH1 0x0 ADDRESS PUSH20 0xFFFFFFFFFFFFFFFFFFFFFFFFFFFFFFFFFFFFFFFF AND PUSH20 0xFFFFFFFFFFFFFFFFFFFFFFFFFFFFFFFFFFFFFFFF AND DUP2 MSTORE PUSH1 0x20 ADD SWAP1 DUP2 MSTORE PUSH1 0x20 ADD PUSH1 0x0 KECCAK256 DUP2 SWAP1 SSTORE POP ADDRESS PUSH20 0xFFFFFFFFFFFFFFFFFFFFFFFFFFFFFFFFFFFFFFFF AND DUP7 PUSH20 0xFFFFFFFFFFFFFFFFFFFFFFFFFFFFFFFFFFFFFFFF AND PUSH32 0xDDF252AD1BE2C89B69C2B068FC378DAA952BA7F163C4A11628F55A4DF523B3EF PUSH2 0x372B DUP5 PUSH2 0xEFF JUMP JUMPDEST PUSH1 0x40 MLOAD PUSH2 0x3738 SWAP2 SWAP1 PUSH2 0x3816 JUMP JUMPDEST PUSH1 0x40 MLOAD DUP1 SWAP2 SUB SWAP1 LOG3 PUSH32 0xC3B3CC73AC1FAEF58C428C22BE6CB344ACFD92A699C8CD758C753AF27071B5AC DUP3 PUSH1 0x7 SLOAD PUSH1 0x40 MLOAD PUSH2 0x3773 SWAP3 SWAP2 SWAP1 PUSH2 0x505B JUMP JUMPDEST PUSH1 0x40 MLOAD DUP1 SWAP2 SUB SWAP1 LOG1 PUSH2 0x378E DUP4 DUP7 PUSH2 0x2B2C SWAP1 SWAP2 SWAP1 PUSH4 0xFFFFFFFF AND JUMP JUMPDEST SWAP4 POP POP POP POP SWAP4 SWAP3 POP POP POP JUMP JUMPDEST PUSH1 0x0 DUP1 DUP4 GT DUP3 SWAP1 PUSH2 0x37E1 JUMPI PUSH1 0x40 MLOAD PUSH32 0x8C379A000000000000000000000000000000000000000000000000000000000 DUP2 MSTORE PUSH1 0x4 ADD PUSH2 0x37D8 SWAP2 SWAP1 PUSH2 0x38C1 JUMP JUMPDEST PUSH1 0x40 MLOAD DUP1 SWAP2 SUB SWAP1 REVERT JUMPDEST POP PUSH1 0x0 DUP4 DUP6 PUSH2 0x37F0 SWAP2 SWAP1 PUSH2 0x4761 JUMP JUMPDEST SWAP1 POP DUP1 SWAP2 POP POP SWAP4 SWAP3 POP POP POP JUMP JUMPDEST PUSH1 0x0 DUP2 SWAP1 POP SWAP2 SWAP1 POP JUMP JUMPDEST PUSH2 0x3810 DUP2 PUSH2 0x37FD JUMP JUMPDEST DUP3 MSTORE POP POP JUMP JUMPDEST PUSH1 0x0 PUSH1 0x20 DUP3 ADD SWAP1 POP PUSH2 0x382B PUSH1 0x0 DUP4 ADD DUP5 PUSH2 0x3807 JUMP JUMPDEST SWAP3 SWAP2 POP POP JUMP JUMPDEST PUSH1 0x0 DUP2 MLOAD SWAP1 POP SWAP2 SWAP1 POP JUMP JUMPDEST PUSH1 0x0 DUP3 DUP3 MSTORE PUSH1 0x20 DUP3 ADD SWAP1 POP SWAP3 SWAP2 POP POP JUMP JUMPDEST PUSH1 0x0 JUMPDEST DUP4 DUP2 LT ISZERO PUSH2 0x386B JUMPI DUP1 DUP3 ADD MLOAD DUP2 DUP5 ADD MSTORE PUSH1 0x20 DUP2 ADD SWAP1 POP PUSH2 0x3850 JUMP JUMPDEST PUSH1 0x0 DUP5 DUP5 ADD MSTORE POP POP POP POP JUMP JUMPDEST PUSH1 0x0 PUSH1 0x1F NOT PUSH1 0x1F DUP4 ADD AND SWAP1 POP SWAP2 SWAP1 POP JUMP JUMPDEST PUSH1 0x0 PUSH2 0x3893 DUP3 PUSH2 0x3831 JUMP JUMPDEST PUSH2 0x389D DUP2 DUP6 PUSH2 0x383C JUMP JUMPDEST SWAP4 POP PUSH2 0x38AD DUP2 DUP6 PUSH1 0x20 DUP7 ADD PUSH2 0x384D JUMP JUMPDEST PUSH2 0x38B6 DUP2 PUSH2 0x3877 JUMP JUMPDEST DUP5 ADD SWAP2 POP POP SWAP3 SWAP2 POP POP JUMP JUMPDEST PUSH1 0x0 PUSH1 0x20 DUP3 ADD SWAP1 POP DUP2 DUP2 SUB PUSH1 0x0 DUP4 ADD MSTORE PUSH2 0x38DB DUP2 DUP5 PUSH2 0x3888 JUMP JUMPDEST SWAP1 POP SWAP3 SWAP2 POP POP JUMP JUMPDEST PUSH1 0x0 PUSH1 0x40 MLOAD SWAP1 POP SWAP1 JUMP JUMPDEST PUSH1 0x0 DUP1 REVERT JUMPDEST PUSH1 0x0 DUP1 REVERT JUMPDEST PUSH1 0x0 PUSH20 0xFFFFFFFFFFFFFFFFFFFFFFFFFFFFFFFFFFFFFFFF DUP3 AND SWAP1 POP SWAP2 SWAP1 POP JUMP JUMPDEST PUSH1 0x0 PUSH2 0x3922 DUP3 PUSH2 0x38F7 JUMP JUMPDEST SWAP1 POP SWAP2 SWAP1 POP JUMP JUMPDEST PUSH2 0x3932 DUP2 PUSH2 0x3917 JUMP JUMPDEST DUP2 EQ PUSH2 0x393D JUMPI PUSH1 0x0 DUP1 REVERT JUMPDEST POP JUMP JUMPDEST PUSH1 0x0 DUP2 CALLDATALOAD SWAP1 POP PUSH2 0x394F DUP2 PUSH2 0x3929 JUMP JUMPDEST SWAP3 SWAP2 POP POP JUMP JUMPDEST PUSH2 0x395E DUP2 PUSH2 0x37FD JUMP JUMPDEST DUP2 EQ PUSH2 0x3969 JUMPI PUSH1 0x0 DUP1 REVERT JUMPDEST POP JUMP JUMPDEST PUSH1 0x0 DUP2 CALLDATALOAD SWAP1 POP PUSH2 0x397B DUP2 PUSH2 0x3955 JUMP JUMPDEST SWAP3 SWAP2 POP POP JUMP JUMPDEST PUSH1 0x0 DUP1 PUSH1 0x40 DUP4 DUP6 SUB SLT ISZERO PUSH2 0x3998 JUMPI PUSH2 0x3997 PUSH2 0x38ED JUMP JUMPDEST JUMPDEST PUSH1 0x0 PUSH2 0x39A6 DUP6 DUP3 DUP7 ADD PUSH2 0x3940 JUMP JUMPDEST SWAP3 POP POP PUSH1 0x20 PUSH2 0x39B7 DUP6 DUP3 DUP7 ADD PUSH2 0x396C JUMP JUMPDEST SWAP2 POP POP SWAP3 POP SWAP3 SWAP1 POP JUMP JUMPDEST PUSH1 0x0 DUP2 ISZERO ISZERO SWAP1 POP SWAP2 SWAP1 POP JUMP JUMPDEST PUSH2 0x39D6 DUP2 PUSH2 0x39C1 JUMP JUMPDEST DUP3 MSTORE POP POP JUMP JUMPDEST PUSH1 0x0 PUSH1 0x20 DUP3 ADD SWAP1 POP PUSH2 0x39F1 PUSH1 0x0 DUP4 ADD DUP5 PUSH2 0x39CD JUMP JUMPDEST SWAP3 SWAP2 POP POP JUMP JUMPDEST PUSH1 0x0 PUSH1 0x20 DUP3 DUP5 SUB SLT ISZERO PUSH2 0x3A0D JUMPI PUSH2 0x3A0C PUSH2 0x38ED JUMP JUMPDEST JUMPDEST PUSH1 0x0 PUSH2 0x3A1B DUP5 DUP3 DUP6 ADD PUSH2 0x3940 JUMP JUMPDEST SWAP2 POP POP SWAP3 SWAP2 POP POP JUMP JUMPDEST PUSH1 0x0 DUP1 PUSH1 0x40 DUP4 DUP6 SUB SLT ISZERO PUSH2 0x3A3B JUMPI PUSH2 0x3A3A PUSH2 0x38ED JUMP JUMPDEST JUMPDEST PUSH1 0x0 PUSH2 0x3A49 DUP6 DUP3 DUP7 ADD PUSH2 0x396C JUMP JUMPDEST SWAP3 POP POP PUSH1 0x20 PUSH2 0x3A5A DUP6 DUP3 DUP7 ADD PUSH2 0x396C JUMP JUMPDEST SWAP2 POP POP SWAP3 POP SWAP3 SWAP1 POP JUMP JUMPDEST PUSH1 0x0 DUP1 PUSH1 0x0 PUSH1 0x60 DUP5 DUP7 SUB SLT ISZERO PUSH2 0x3A7D JUMPI PUSH2 0x3A7C PUSH2 0x38ED JUMP JUMPDEST JUMPDEST PUSH1 0x0 PUSH2 0x3A8B DUP7 DUP3 DUP8 ADD PUSH2 0x3940 JUMP JUMPDEST SWAP4 POP POP PUSH1 0x20 PUSH2 0x3A9C DUP7 DUP3 DUP8 ADD PUSH2 0x3940 JUMP JUMPDEST SWAP3 POP POP PUSH1 0x40 PUSH2 0x3AAD DUP7 DUP3 DUP8 ADD PUSH2 0x396C JUMP JUMPDEST SWAP2 POP POP SWAP3 POP SWAP3 POP SWAP3 JUMP JUMPDEST PUSH1 0x0 PUSH1 0x20 DUP3 DUP5 SUB SLT ISZERO PUSH2 0x3ACD JUMPI PUSH2 0x3ACC PUSH2 0x38ED JUMP JUMPDEST JUMPDEST PUSH1 0x0 PUSH2 0x3ADB DUP5 DUP3 DUP6 ADD PUSH2 0x396C JUMP JUMPDEST SWAP2 POP POP SWAP3 SWAP2 POP POP JUMP JUMPDEST PUSH1 0x0 PUSH1 0xFF DUP3 AND SWAP1 POP SWAP2 SWAP1 POP JUMP JUMPDEST PUSH2 0x3AFA DUP2 PUSH2 0x3AE4 JUMP JUMPDEST DUP3 MSTORE POP POP JUMP JUMPDEST PUSH1 0x0 PUSH1 0x20 DUP3 ADD SWAP1 POP PUSH2 0x3B15 PUSH1 0x0 DUP4 ADD DUP5 PUSH2 0x3AF1 JUMP JUMPDEST SWAP3 SWAP2 POP POP JUMP JUMPDEST PUSH1 0x0 DUP1 PUSH1 0x0 DUP1 PUSH1 0x0 DUP1 PUSH1 0x0 DUP1 PUSH2 0x100 DUP10 DUP12 SUB SLT ISZERO PUSH2 0x3B3C JUMPI PUSH2 0x3B3B PUSH2 0x38ED JUMP JUMPDEST JUMPDEST PUSH1 0x0 PUSH2 0x3B4A DUP12 DUP3 DUP13 ADD PUSH2 0x396C JUMP JUMPDEST SWAP9 POP POP PUSH1 0x20 PUSH2 0x3B5B DUP12 DUP3 DUP13 ADD PUSH2 0x396C JUMP JUMPDEST SWAP8 POP POP PUSH1 0x40 PUSH2 0x3B6C DUP12 DUP3 DUP13 ADD PUSH2 0x396C JUMP JUMPDEST SWAP7 POP POP PUSH1 0x60 PUSH2 0x3B7D DUP12 DUP3 DUP13 ADD PUSH2 0x396C JUMP JUMPDEST SWAP6 POP POP PUSH1 0x80 PUSH2 0x3B8E DUP12 DUP3 DUP13 ADD PUSH2 0x396C JUMP JUMPDEST SWAP5 POP POP PUSH1 0xA0 PUSH2 0x3B9F DUP12 DUP3 DUP13 ADD PUSH2 0x396C JUMP JUMPDEST SWAP4 POP POP PUSH1 0xC0 PUSH2 0x3BB0 DUP12 DUP3 DUP13 ADD PUSH2 0x396C JUMP JUMPDEST SWAP3 POP POP PUSH1 0xE0 PUSH2 0x3BC1 DUP12 DUP3 DUP13 ADD PUSH2 0x396C JUMP JUMPDEST SWAP2 POP POP SWAP3 SWAP6 SWAP9 POP SWAP3 SWAP6 SWAP9 SWAP1 SWAP4 SWAP7 POP JUMP JUMPDEST PUSH1 0x0 DUP1 REVERT JUMPDEST PUSH1 0x0 DUP1 REVERT JUMPDEST PUSH32 0x4E487B7100000000000000000000000000000000000000000000000000000000 PUSH1 0x0 MSTORE PUSH1 0x41 PUSH1 0x4 MSTORE PUSH1 0x24 PUSH1 0x0 REVERT JUMPDEST PUSH2 0x3C13 DUP3 PUSH2 0x3877 JUMP JUMPDEST DUP2 ADD DUP2 DUP2 LT PUSH8 0xFFFFFFFFFFFFFFFF DUP3 GT OR ISZERO PUSH2 0x3C32 JUMPI PUSH2 0x3C31 PUSH2 0x3BDB JUMP JUMPDEST JUMPDEST DUP1 PUSH1 0x40 MSTORE POP POP POP JUMP JUMPDEST PUSH1 0x0 PUSH2 0x3C45 PUSH2 0x38E3 JUMP JUMPDEST SWAP1 POP PUSH2 0x3C51 DUP3 DUP3 PUSH2 0x3C0A JUMP JUMPDEST SWAP2 SWAP1 POP JUMP JUMPDEST PUSH1 0x0 PUSH8 0xFFFFFFFFFFFFFFFF DUP3 GT ISZERO PUSH2 0x3C71 JUMPI PUSH2 0x3C70 PUSH2 0x3BDB JUMP JUMPDEST JUMPDEST PUSH2 0x3C7A DUP3 PUSH2 0x3877 JUMP JUMPDEST SWAP1 POP PUSH1 0x20 DUP2 ADD SWAP1 POP SWAP2 SWAP1 POP JUMP JUMPDEST DUP3 DUP2 DUP4 CALLDATACOPY PUSH1 0x0 DUP4 DUP4 ADD MSTORE POP POP POP JUMP JUMPDEST PUSH1 0x0 PUSH2 0x3CA9 PUSH2 0x3CA4 DUP5 PUSH2 0x3C56 JUMP JUMPDEST PUSH2 0x3C3B JUMP JUMPDEST SWAP1 POP DUP3 DUP2 MSTORE PUSH1 0x20 DUP2 ADD DUP5 DUP5 DUP5 ADD GT ISZERO PUSH2 0x3CC5 JUMPI PUSH2 0x3CC4 PUSH2 0x3BD6 JUMP JUMPDEST JUMPDEST PUSH2 0x3CD0 DUP5 DUP3 DUP6 PUSH2 0x3C87 JUMP JUMPDEST POP SWAP4 SWAP3 POP POP POP JUMP JUMPDEST PUSH1 0x0 DUP3 PUSH1 0x1F DUP4 ADD SLT PUSH2 0x3CED JUMPI PUSH2 0x3CEC PUSH2 0x3BD1 JUMP JUMPDEST JUMPDEST DUP2 CALLDATALOAD PUSH2 0x3CFD DUP5 DUP3 PUSH1 0x20 DUP7 ADD PUSH2 0x3C96 JUMP JUMPDEST SWAP2 POP POP SWAP3 SWAP2 POP POP JUMP JUMPDEST PUSH1 0x0 PUSH1 0x20 DUP3 DUP5 SUB SLT ISZERO PUSH2 0x3D1C JUMPI PUSH2 0x3D1B PUSH2 0x38ED JUMP JUMPDEST JUMPDEST PUSH1 0x0 DUP3 ADD CALLDATALOAD PUSH8 0xFFFFFFFFFFFFFFFF DUP2 GT ISZERO PUSH2 0x3D3A JUMPI PUSH2 0x3D39 PUSH2 0x38F2 JUMP JUMPDEST JUMPDEST PUSH2 0x3D46 DUP5 DUP3 DUP6 ADD PUSH2 0x3CD8 JUMP JUMPDEST SWAP2 POP POP SWAP3 SWAP2 POP POP JUMP JUMPDEST PUSH1 0x0 PUSH1 0xC0 DUP3 ADD SWAP1 POP PUSH2 0x3D64 PUSH1 0x0 DUP4 ADD DUP10 PUSH2 0x3807 JUMP JUMPDEST PUSH2 0x3D71 PUSH1 0x20 DUP4 ADD DUP9 PUSH2 0x3807 JUMP JUMPDEST PUSH2 0x3D7E PUSH1 0x40 DUP4 ADD DUP8 PUSH2 0x3807 JUMP JUMPDEST PUSH2 0x3D8B PUSH1 0x60 DUP4 ADD DUP7 PUSH2 0x3807 JUMP JUMPDEST PUSH2 0x3D98 PUSH1 0x80 DUP4 ADD DUP6 PUSH2 0x3807 JUMP JUMPDEST PUSH2 0x3DA5 PUSH1 0xA0 DUP4 ADD DUP5 PUSH2 0x3807 JUMP JUMPDEST SWAP8 SWAP7 POP POP POP POP POP POP POP JUMP JUMPDEST PUSH2 0x3DB9 DUP2 PUSH2 0x39C1 JUMP JUMPDEST DUP2 EQ PUSH2 0x3DC4 JUMPI PUSH1 0x0 DUP1 REVERT JUMPDEST POP JUMP JUMPDEST PUSH1 0x0 DUP2 CALLDATALOAD SWAP1 POP PUSH2 0x3DD6 DUP2 PUSH2 0x3DB0 JUMP JUMPDEST SWAP3 SWAP2 POP POP JUMP JUMPDEST PUSH1 0x0 DUP1 PUSH1 0x0 DUP1 PUSH1 0x80 DUP6 DUP8 SUB SLT ISZERO PUSH2 0x3DF6 JUMPI PUSH2 0x3DF5 PUSH2 0x38ED JUMP JUMPDEST JUMPDEST PUSH1 0x0 PUSH2 0x3E04 DUP8 DUP3 DUP9 ADD PUSH2 0x3DC7 JUMP JUMPDEST SWAP5 POP POP PUSH1 0x20 PUSH2 0x3E15 DUP8 DUP3 DUP9 ADD PUSH2 0x396C JUMP JUMPDEST SWAP4 POP POP PUSH1 0x40 PUSH2 0x3E26 DUP8 DUP3 DUP9 ADD PUSH2 0x396C JUMP JUMPDEST SWAP3 POP POP PUSH1 0x60 PUSH2 0x3E37 DUP8 DUP3 DUP9 ADD PUSH2 0x3DC7 JUMP JUMPDEST SWAP2 POP POP SWAP3 SWAP6 SWAP2 SWAP5 POP SWAP3 POP JUMP JUMPDEST PUSH1 0x0 DUP1 PUSH1 0x40 DUP4 DUP6 SUB SLT ISZERO PUSH2 0x3E5A JUMPI PUSH2 0x3E59 PUSH2 0x38ED JUMP JUMPDEST JUMPDEST PUSH1 0x0 PUSH2 0x3E68 DUP6 DUP3 DUP7 ADD PUSH2 0x3940 JUMP JUMPDEST SWAP3 POP POP PUSH1 0x20 PUSH2 0x3E79 DUP6 DUP3 DUP7 ADD PUSH2 0x3DC7 JUMP JUMPDEST SWAP2 POP POP SWAP3 POP SWAP3 SWAP1 POP JUMP JUMPDEST PUSH1 0x0 PUSH1 0x20 DUP3 DUP5 SUB SLT ISZERO PUSH2 0x3E99 JUMPI PUSH2 0x3E98 PUSH2 0x38ED JUMP JUMPDEST JUMPDEST PUSH1 0x0 PUSH2 0x3EA7 DUP5 DUP3 DUP6 ADD PUSH2 0x3DC7 JUMP JUMPDEST SWAP2 POP POP SWAP3 SWAP2 POP POP JUMP JUMPDEST PUSH2 0x3EB9 DUP2 PUSH2 0x3917 JUMP JUMPDEST DUP3 MSTORE POP POP JUMP JUMPDEST PUSH1 0x0 PUSH1 0x20 DUP3 ADD SWAP1 POP PUSH2 0x3ED4 PUSH1 0x0 DUP4 ADD DUP5 PUSH2 0x3EB0 JUMP JUMPDEST SWAP3 SWAP2 POP POP JUMP JUMPDEST PUSH1 0x0 DUP1 REVERT JUMPDEST PUSH1 0x0 DUP1 REVERT JUMPDEST PUSH1 0x0 DUP1 DUP4 PUSH1 0x1F DUP5 ADD SLT PUSH2 0x3EFA JUMPI PUSH2 0x3EF9 PUSH2 0x3BD1 JUMP JUMPDEST JUMPDEST DUP3 CALLDATALOAD SWAP1 POP PUSH8 0xFFFFFFFFFFFFFFFF DUP2 GT ISZERO PUSH2 0x3F17 JUMPI PUSH2 0x3F16 PUSH2 0x3EDA JUMP JUMPDEST JUMPDEST PUSH1 0x20 DUP4 ADD SWAP2 POP DUP4 PUSH1 0x20 DUP3 MUL DUP4 ADD GT ISZERO PUSH2 0x3F33 JUMPI PUSH2 0x3F32 PUSH2 0x3EDF JUMP JUMPDEST JUMPDEST SWAP3 POP SWAP3 SWAP1 POP JUMP JUMPDEST PUSH1 0x0 DUP1 DUP4 PUSH1 0x1F DUP5 ADD SLT PUSH2 0x3F50 JUMPI PUSH2 0x3F4F PUSH2 0x3BD1 JUMP JUMPDEST JUMPDEST DUP3 CALLDATALOAD SWAP1 POP PUSH8 0xFFFFFFFFFFFFFFFF DUP2 GT ISZERO PUSH2 0x3F6D JUMPI PUSH2 0x3F6C PUSH2 0x3EDA JUMP JUMPDEST JUMPDEST PUSH1 0x20 DUP4 ADD SWAP2 POP DUP4 PUSH1 0x20 DUP3 MUL DUP4 ADD GT ISZERO PUSH2 0x3F89 JUMPI PUSH2 0x3F88 PUSH2 0x3EDF JUMP JUMPDEST JUMPDEST SWAP3 POP SWAP3 SWAP1 POP JUMP JUMPDEST PUSH1 0x0 DUP1 PUSH1 0x0 DUP1 PUSH1 0x40 DUP6 DUP8 SUB SLT ISZERO PUSH2 0x3FAA JUMPI PUSH2 0x3FA9 PUSH2 0x38ED JUMP JUMPDEST JUMPDEST PUSH1 0x0 DUP6 ADD CALLDATALOAD PUSH8 0xFFFFFFFFFFFFFFFF DUP2 GT ISZERO PUSH2 0x3FC8 JUMPI PUSH2 0x3FC7 PUSH2 0x38F2 JUMP JUMPDEST JUMPDEST PUSH2 0x3FD4 DUP8 DUP3 DUP9 ADD PUSH2 0x3EE4 JUMP JUMPDEST SWAP5 POP SWAP5 POP POP PUSH1 0x20 DUP6 ADD CALLDATALOAD PUSH8 0xFFFFFFFFFFFFFFFF DUP2 GT ISZERO PUSH2 0x3FF7 JUMPI PUSH2 0x3FF6 PUSH2 0x38F2 JUMP JUMPDEST JUMPDEST PUSH2 0x4003 DUP8 DUP3 DUP9 ADD PUSH2 0x3F3A JUMP JUMPDEST SWAP3 POP SWAP3 POP POP SWAP3 SWAP6 SWAP2 SWAP5 POP SWAP3 POP JUMP JUMPDEST PUSH1 0x0 DUP1 PUSH1 0x0 PUSH1 0x60 DUP5 DUP7 SUB SLT ISZERO PUSH2 0x402A JUMPI PUSH2 0x4029 PUSH2 0x38ED JUMP JUMPDEST JUMPDEST PUSH1 0x0 PUSH2 0x4038 DUP7 DUP3 DUP8 ADD PUSH2 0x3940 JUMP JUMPDEST SWAP4 POP POP PUSH1 0x20 PUSH2 0x4049 DUP7 DUP3 DUP8 ADD PUSH2 0x3940 JUMP JUMPDEST SWAP3 POP POP PUSH1 0x40 PUSH2 0x405A DUP7 DUP3 DUP8 ADD PUSH2 0x3940 JUMP JUMPDEST SWAP2 POP POP SWAP3 POP SWAP3 POP SWAP3 JUMP JUMPDEST PUSH1 0x0 DUP1 PUSH1 0x40 DUP4 DUP6 SUB SLT ISZERO PUSH2 0x407B JUMPI PUSH2 0x407A PUSH2 0x38ED JUMP JUMPDEST JUMPDEST PUSH1 0x0 PUSH2 0x4089 DUP6 DUP3 DUP7 ADD PUSH2 0x3940 JUMP JUMPDEST SWAP3 POP POP PUSH1 0x20 PUSH2 0x409A DUP6 DUP3 DUP7 ADD PUSH2 0x3940 JUMP JUMPDEST SWAP2 POP POP SWAP3 POP SWAP3 SWAP1 POP JUMP JUMPDEST PUSH1 0x0 PUSH8 0xFFFFFFFFFFFFFFFF DUP3 GT ISZERO PUSH2 0x40BF JUMPI PUSH2 0x40BE PUSH2 0x3BDB JUMP JUMPDEST JUMPDEST PUSH1 0x20 DUP3 MUL SWAP1 POP PUSH1 0x20 DUP2 ADD SWAP1 POP SWAP2 SWAP1 POP JUMP JUMPDEST PUSH1 0x0 PUSH2 0x40E3 PUSH2 0x40DE DUP5 PUSH2 0x40A4 JUMP JUMPDEST PUSH2 0x3C3B JUMP JUMPDEST SWAP1 POP DUP1 DUP4 DUP3 MSTORE PUSH1 0x20 DUP3 ADD SWAP1 POP PUSH1 0x20 DUP5 MUL DUP4 ADD DUP6 DUP2 GT ISZERO PUSH2 0x4106 JUMPI PUSH2 0x4105 PUSH2 0x3EDF JUMP JUMPDEST JUMPDEST DUP4 JUMPDEST DUP2 DUP2 LT ISZERO PUSH2 0x412F JUMPI DUP1 PUSH2 0x411B DUP9 DUP3 PUSH2 0x3940 JUMP JUMPDEST DUP5 MSTORE PUSH1 0x20 DUP5 ADD SWAP4 POP POP PUSH1 0x20 DUP2 ADD SWAP1 POP PUSH2 0x4108 JUMP JUMPDEST POP POP POP SWAP4 SWAP3 POP POP POP JUMP JUMPDEST PUSH1 0x0 DUP3 PUSH1 0x1F DUP4 ADD SLT PUSH2 0x414E JUMPI PUSH2 0x414D PUSH2 0x3BD1 JUMP JUMPDEST JUMPDEST DUP2 CALLDATALOAD PUSH2 0x415E DUP5 DUP3 PUSH1 0x20 DUP7 ADD PUSH2 0x40D0 JUMP JUMPDEST SWAP2 POP POP SWAP3 SWAP2 POP POP JUMP JUMPDEST PUSH1 0x0 DUP1 PUSH1 0x40 DUP4 DUP6 SUB SLT ISZERO PUSH2 0x417E JUMPI PUSH2 0x417D PUSH2 0x38ED JUMP JUMPDEST JUMPDEST PUSH1 0x0 DUP4 ADD CALLDATALOAD PUSH8 0xFFFFFFFFFFFFFFFF DUP2 GT ISZERO PUSH2 0x419C JUMPI PUSH2 0x419B PUSH2 0x38F2 JUMP JUMPDEST JUMPDEST PUSH2 0x41A8 DUP6 DUP3 DUP7 ADD PUSH2 0x4139 JUMP JUMPDEST SWAP3 POP POP PUSH1 0x20 PUSH2 0x41B9 DUP6 DUP3 DUP7 ADD PUSH2 0x3DC7 JUMP JUMPDEST SWAP2 POP POP SWAP3 POP SWAP3 SWAP1 POP JUMP JUMPDEST PUSH1 0x0 DUP2 SWAP1 POP SWAP2 SWAP1 POP JUMP JUMPDEST PUSH1 0x0 PUSH2 0x41E8 PUSH2 0x41E3 PUSH2 0x41DE DUP5 PUSH2 0x38F7 JUMP JUMPDEST PUSH2 0x41C3 JUMP JUMPDEST PUSH2 0x38F7 JUMP JUMPDEST SWAP1 POP SWAP2 SWAP1 POP JUMP JUMPDEST PUSH1 0x0 PUSH2 0x41FA DUP3 PUSH2 0x41CD JUMP JUMPDEST SWAP1 POP SWAP2 SWAP1 POP JUMP JUMPDEST PUSH1 0x0 PUSH2 0x420C DUP3 PUSH2 0x41EF JUMP JUMPDEST SWAP1 POP SWAP2 SWAP1 POP JUMP JUMPDEST PUSH2 0x421C DUP2 PUSH2 0x4201 JUMP JUMPDEST DUP3 MSTORE POP POP JUMP JUMPDEST PUSH1 0x0 PUSH1 0x20 DUP3 ADD SWAP1 POP PUSH2 0x4237 PUSH1 0x0 DUP4 ADD DUP5 PUSH2 0x4213 JUMP JUMPDEST SWAP3 SWAP2 POP POP JUMP JUMPDEST PUSH32 0x4E487B7100000000000000000000000000000000000000000000000000000000 PUSH1 0x0 MSTORE PUSH1 0x22 PUSH1 0x4 MSTORE PUSH1 0x24 PUSH1 0x0 REVERT JUMPDEST PUSH1 0x0 PUSH1 0x2 DUP3 DIV SWAP1 POP PUSH1 0x1 DUP3 AND DUP1 PUSH2 0x4284 JUMPI PUSH1 0x7F DUP3 AND SWAP2 POP JUMPDEST PUSH1 0x20 DUP3 LT DUP2 SUB PUSH2 0x4297 JUMPI PUSH2 0x4296 PUSH2 0x423D JUMP JUMPDEST JUMPDEST POP SWAP2 SWAP1 POP JUMP JUMPDEST PUSH32 0x4F776E61626C653A2063616C6C6572206973206E6F7420746865206F776E6572 PUSH1 0x0 DUP3 ADD MSTORE POP JUMP JUMPDEST PUSH1 0x0 PUSH2 0x42D3 PUSH1 0x20 DUP4 PUSH2 0x383C JUMP JUMPDEST SWAP2 POP PUSH2 0x42DE DUP3 PUSH2 0x429D JUMP JUMPDEST PUSH1 0x20 DUP3 ADD SWAP1 POP SWAP2 SWAP1 POP JUMP JUMPDEST PUSH1 0x0 PUSH1 0x20 DUP3 ADD SWAP1 POP DUP2 DUP2 SUB PUSH1 0x0 DUP4 ADD MSTORE PUSH2 0x4302 DUP2 PUSH2 0x42C6 JUMP JUMPDEST SWAP1 POP SWAP2 SWAP1 POP JUMP JUMPDEST PUSH32 0x43616E6E6F74207365742062757920666565732061626F766520323525000000 PUSH1 0x0 DUP3 ADD MSTORE POP JUMP JUMPDEST PUSH1 0x0 PUSH2 0x433F PUSH1 0x1D DUP4 PUSH2 0x383C JUMP JUMPDEST SWAP2 POP PUSH2 0x434A DUP3 PUSH2 0x4309 JUMP JUMPDEST PUSH1 0x20 DUP3 ADD SWAP1 POP SWAP2 SWAP1 POP JUMP JUMPDEST PUSH1 0x0 PUSH1 0x20 DUP3 ADD SWAP1 POP DUP2 DUP2 SUB PUSH1 0x0 DUP4 ADD MSTORE PUSH2 0x436E DUP2 PUSH2 0x4332 JUMP JUMPDEST SWAP1 POP SWAP2 SWAP1 POP JUMP JUMPDEST PUSH32 0x43616E6E6F74207365742073656C6C20666565732061626F7665203235250000 PUSH1 0x0 DUP3 ADD MSTORE POP JUMP JUMPDEST PUSH1 0x0 PUSH2 0x43AB PUSH1 0x1E DUP4 PUSH2 0x383C JUMP JUMPDEST SWAP2 POP PUSH2 0x43B6 DUP3 PUSH2 0x4375 JUMP JUMPDEST PUSH1 0x20 DUP3 ADD SWAP1 POP SWAP2 SWAP1 POP JUMP JUMPDEST PUSH1 0x0 PUSH1 0x20 DUP3 ADD SWAP1 POP DUP2 DUP2 SUB PUSH1 0x0 DUP4 ADD MSTORE PUSH2 0x43DA DUP2 PUSH2 0x439E JUMP JUMPDEST SWAP1 POP SWAP2 SWAP1 POP JUMP JUMPDEST PUSH1 0x0 DUP2 SWAP1 POP DUP2 PUSH1 0x0 MSTORE PUSH1 0x20 PUSH1 0x0 KECCAK256 SWAP1 POP SWAP2 SWAP1 POP JUMP JUMPDEST PUSH1 0x0 PUSH1 0x20 PUSH1 0x1F DUP4 ADD DIV SWAP1 POP SWAP2 SWAP1 POP JUMP JUMPDEST PUSH1 0x0 DUP3 DUP3 SHL SWAP1 POP SWAP3 SWAP2 POP POP JUMP JUMPDEST PUSH1 0x0 PUSH1 0x8 DUP4 MUL PUSH2 0x4443 PUSH32 0xFFFFFFFFFFFFFFFFFFFFFFFFFFFFFFFFFFFFFFFFFFFFFFFFFFFFFFFFFFFFFFFF DUP3 PUSH2 0x4406 JUMP JUMPDEST PUSH2 0x444D DUP7 DUP4 PUSH2 0x4406 JUMP JUMPDEST SWAP6 POP DUP1 NOT DUP5 AND SWAP4 POP DUP1 DUP7 AND DUP5 OR SWAP3 POP POP POP SWAP4 SWAP3 POP POP POP JUMP JUMPDEST PUSH1 0x0 PUSH2 0x4480 PUSH2 0x447B PUSH2 0x4476 DUP5 PUSH2 0x37FD JUMP JUMPDEST PUSH2 0x41C3 JUMP JUMPDEST PUSH2 0x37FD JUMP JUMPDEST SWAP1 POP SWAP2 SWAP1 POP JUMP JUMPDEST PUSH1 0x0 DUP2 SWAP1 POP SWAP2 SWAP1 POP JUMP JUMPDEST PUSH2 0x449A DUP4 PUSH2 0x4465 JUMP JUMPDEST PUSH2 0x44AE PUSH2 0x44A6 DUP3 PUSH2 0x4487 JUMP JUMPDEST DUP5 DUP5 SLOAD PUSH2 0x4413 JUMP JUMPDEST DUP3 SSTORE POP POP POP POP JUMP JUMPDEST PUSH1 0x0 SWAP1 JUMP JUMPDEST PUSH2 0x44C3 PUSH2 0x44B6 JUMP JUMPDEST PUSH2 0x44CE DUP2 DUP5 DUP5 PUSH2 0x4491 JUMP JUMPDEST POP POP POP JUMP JUMPDEST JUMPDEST DUP2 DUP2 LT ISZERO PUSH2 0x44F2 JUMPI PUSH2 0x44E7 PUSH1 0x0 DUP3 PUSH2 0x44BB JUMP JUMPDEST PUSH1 0x1 DUP2 ADD SWAP1 POP PUSH2 0x44D4 JUMP JUMPDEST POP POP JUMP JUMPDEST PUSH1 0x1F DUP3 GT ISZERO PUSH2 0x4537 JUMPI PUSH2 0x4508 DUP2 PUSH2 0x43E1 JUMP JUMPDEST PUSH2 0x4511 DUP5 PUSH2 0x43F6 JUMP JUMPDEST DUP2 ADD PUSH1 0x20 DUP6 LT ISZERO PUSH2 0x4520 JUMPI DUP2 SWAP1 POP JUMPDEST PUSH2 0x4534 PUSH2 0x452C DUP6 PUSH2 0x43F6 JUMP JUMPDEST DUP4 ADD DUP3 PUSH2 0x44D3 JUMP JUMPDEST POP POP JUMPDEST POP POP POP JUMP JUMPDEST PUSH1 0x0 DUP3 DUP3 SHR SWAP1 POP SWAP3 SWAP2 POP POP JUMP JUMPDEST PUSH1 0x0 PUSH2 0x455A PUSH1 0x0 NOT DUP5 PUSH1 0x8 MUL PUSH2 0x453C JUMP JUMPDEST NOT DUP1 DUP4 AND SWAP2 POP POP SWAP3 SWAP2 POP POP JUMP JUMPDEST PUSH1 0x0 PUSH2 0x4573 DUP4 DUP4 PUSH2 0x4549 JUMP JUMPDEST SWAP2 POP DUP3 PUSH1 0x2 MUL DUP3 OR SWAP1 POP SWAP3 SWAP2 POP POP JUMP JUMPDEST PUSH2 0x458C DUP3 PUSH2 0x3831 JUMP JUMPDEST PUSH8 0xFFFFFFFFFFFFFFFF DUP2 GT ISZERO PUSH2 0x45A5 JUMPI PUSH2 0x45A4 PUSH2 0x3BDB JUMP JUMPDEST JUMPDEST PUSH2 0x45AF DUP3 SLOAD PUSH2 0x426C JUMP JUMPDEST PUSH2 0x45BA DUP3 DUP3 DUP6 PUSH2 0x44F6 JUMP JUMPDEST PUSH1 0x0 PUSH1 0x20 SWAP1 POP PUSH1 0x1F DUP4 GT PUSH1 0x1 DUP2 EQ PUSH2 0x45ED JUMPI PUSH1 0x0 DUP5 ISZERO PUSH2 0x45DB JUMPI DUP3 DUP8 ADD MLOAD SWAP1 POP JUMPDEST PUSH2 0x45E5 DUP6 DUP3 PUSH2 0x4567 JUMP JUMPDEST DUP7 SSTORE POP PUSH2 0x464D JUMP JUMPDEST PUSH1 0x1F NOT DUP5 AND PUSH2 0x45FB DUP7 PUSH2 0x43E1 JUMP JUMPDEST PUSH1 0x0 JUMPDEST DUP3 DUP2 LT ISZERO PUSH2 0x4623 JUMPI DUP5 DUP10 ADD MLOAD DUP3 SSTORE PUSH1 0x1 DUP3 ADD SWAP2 POP PUSH1 0x20 DUP6 ADD SWAP5 POP PUSH1 0x20 DUP2 ADD SWAP1 POP PUSH2 0x45FE JUMP JUMPDEST DUP7 DUP4 LT ISZERO PUSH2 0x4640 JUMPI DUP5 DUP10 ADD MLOAD PUSH2 0x463C PUSH1 0x1F DUP10 AND DUP3 PUSH2 0x4549 JUMP JUMPDEST DUP4 SSTORE POP JUMPDEST PUSH1 0x1 PUSH1 0x2 DUP9 MUL ADD DUP9 SSTORE POP POP POP JUMPDEST POP POP POP POP POP POP JUMP JUMPDEST PUSH32 0x43616E6E6F7420736574206D61782054582062656C6F77202E31250000000000 PUSH1 0x0 DUP3 ADD MSTORE POP JUMP JUMPDEST PUSH1 0x0 PUSH2 0x468B PUSH1 0x1B DUP4 PUSH2 0x383C JUMP JUMPDEST SWAP2 POP PUSH2 0x4696 DUP3 PUSH2 0x4655 JUMP JUMPDEST PUSH1 0x20 DUP3 ADD SWAP1 POP SWAP2 SWAP1 POP JUMP JUMPDEST PUSH1 0x0 PUSH1 0x20 DUP3 ADD SWAP1 POP DUP2 DUP2 SUB PUSH1 0x0 DUP4 ADD MSTORE PUSH2 0x46BA DUP2 PUSH2 0x467E JUMP JUMPDEST SWAP1 POP SWAP2 SWAP1 POP JUMP JUMPDEST PUSH32 0x4E487B7100000000000000000000000000000000000000000000000000000000 PUSH1 0x0 MSTORE PUSH1 0x11 PUSH1 0x4 MSTORE PUSH1 0x24 PUSH1 0x0 REVERT JUMPDEST PUSH1 0x0 PUSH2 0x46FB DUP3 PUSH2 0x37FD JUMP JUMPDEST SWAP2 POP PUSH2 0x4706 DUP4 PUSH2 0x37FD JUMP JUMPDEST SWAP3 POP DUP3 DUP3 MUL PUSH2 0x4714 DUP2 PUSH2 0x37FD JUMP JUMPDEST SWAP2 POP DUP3 DUP3 DIV DUP5 EQ DUP4 ISZERO OR PUSH2 0x472B JUMPI PUSH2 0x472A PUSH2 0x46C1 JUMP JUMPDEST JUMPDEST POP SWAP3 SWAP2 POP POP JUMP JUMPDEST PUSH32 0x4E487B7100000000000000000000000000000000000000000000000000000000 PUSH1 0x0 MSTORE PUSH1 0x12 PUSH1 0x4 MSTORE PUSH1 0x24 PUSH1 0x0 REVERT JUMPDEST PUSH1 0x0 PUSH2 0x476C DUP3 PUSH2 0x37FD JUMP JUMPDEST SWAP2 POP PUSH2 0x4777 DUP4 PUSH2 0x37FD JUMP JUMPDEST SWAP3 POP DUP3 PUSH2 0x4787 JUMPI PUSH2 0x4786 PUSH2 0x4732 JUMP JUMPDEST JUMPDEST DUP3 DUP3 DIV SWAP1 POP SWAP3 SWAP2 POP POP JUMP JUMPDEST PUSH32 0x43616E6E6F7420736574206D61782057616C6C65742062656C6F77202E312500 PUSH1 0x0 DUP3 ADD MSTORE POP JUMP JUMPDEST PUSH1 0x0 PUSH2 0x47C8 PUSH1 0x1F DUP4 PUSH2 0x383C JUMP JUMPDEST SWAP2 POP PUSH2 0x47D3 DUP3 PUSH2 0x4792 JUMP JUMPDEST PUSH1 0x20 DUP3 ADD SWAP1 POP SWAP2 SWAP1 POP JUMP JUMPDEST PUSH1 0x0 PUSH1 0x20 DUP3 ADD SWAP1 POP DUP2 DUP2 SUB PUSH1 0x0 DUP4 ADD MSTORE PUSH2 0x47F7 DUP2 PUSH2 0x47BB JUMP JUMPDEST SWAP1 POP SWAP2 SWAP1 POP JUMP JUMPDEST PUSH32 0x474153204572726F723A206D61782061697264726F70206C696D697420697320 PUSH1 0x0 DUP3 ADD MSTORE PUSH32 0x3530302061646472657373657300000000000000000000000000000000000000 PUSH1 0x20 DUP3 ADD MSTORE POP JUMP JUMPDEST PUSH1 0x0 PUSH2 0x485A PUSH1 0x2D DUP4 PUSH2 0x383C JUMP JUMPDEST SWAP2 POP PUSH2 0x4865 DUP3 PUSH2 0x47FE JUMP JUMPDEST PUSH1 0x40 DUP3 ADD SWAP1 POP SWAP2 SWAP1 POP JUMP JUMPDEST PUSH1 0x0 PUSH1 0x20 DUP3 ADD SWAP1 POP DUP2 DUP2 SUB PUSH1 0x0 DUP4 ADD MSTORE PUSH2 0x4889 DUP2 PUSH2 0x484D JUMP JUMPDEST SWAP1 POP SWAP2 SWAP1 POP JUMP JUMPDEST PUSH32 0x4D69736D61746368206265747765656E204164647265737320616E6420746F6B PUSH1 0x0 DUP3 ADD MSTORE PUSH32 0x656E20636F756E74000000000000000000000000000000000000000000000000 PUSH1 0x20 DUP3 ADD MSTORE POP JUMP JUMPDEST PUSH1 0x0 PUSH2 0x48EC PUSH1 0x28 DUP4 PUSH2 0x383C JUMP JUMPDEST SWAP2 POP PUSH2 0x48F7 DUP3 PUSH2 0x4890 JUMP JUMPDEST PUSH1 0x40 DUP3 ADD SWAP1 POP SWAP2 SWAP1 POP JUMP JUMPDEST PUSH1 0x0 PUSH1 0x20 DUP3 ADD SWAP1 POP DUP2 DUP2 SUB PUSH1 0x0 DUP4 ADD MSTORE PUSH2 0x491B DUP2 PUSH2 0x48DF JUMP JUMPDEST SWAP1 POP SWAP2 SWAP1 POP JUMP JUMPDEST PUSH32 0x4E487B7100000000000000000000000000000000000000000000000000000000 PUSH1 0x0 MSTORE PUSH1 0x32 PUSH1 0x4 MSTORE PUSH1 0x24 PUSH1 0x0 REVERT JUMPDEST PUSH1 0x0 PUSH2 0x495C DUP3 PUSH2 0x37FD JUMP JUMPDEST SWAP2 POP PUSH2 0x4967 DUP4 PUSH2 0x37FD JUMP JUMPDEST SWAP3 POP DUP3 DUP3 ADD SWAP1 POP DUP1 DUP3 GT ISZERO PUSH2 0x497F JUMPI PUSH2 0x497E PUSH2 0x46C1 JUMP JUMPDEST JUMPDEST SWAP3 SWAP2 POP POP JUMP JUMPDEST PUSH1 0x0 PUSH2 0x4990 DUP3 PUSH2 0x37FD JUMP JUMPDEST SWAP2 POP PUSH32 0xFFFFFFFFFFFFFFFFFFFFFFFFFFFFFFFFFFFFFFFFFFFFFFFFFFFFFFFFFFFFFFFF DUP3 SUB PUSH2 0x49C2 JUMPI PUSH2 0x49C1 PUSH2 0x46C1 JUMP JUMPDEST JUMPDEST PUSH1 0x1 DUP3 ADD SWAP1 POP SWAP2 SWAP1 POP JUMP JUMPDEST PUSH32 0x4E6F7420656E6F75676820746F6B656E7320696E2077616C6C65740000000000 PUSH1 0x0 DUP3 ADD MSTORE POP JUMP JUMPDEST PUSH1 0x0 PUSH2 0x4A03 PUSH1 0x1B DUP4 PUSH2 0x383C JUMP JUMPDEST SWAP2 POP PUSH2 0x4A0E DUP3 PUSH2 0x49CD JUMP JUMPDEST PUSH1 0x20 DUP3 ADD SWAP1 POP SWAP2 SWAP1 POP JUMP JUMPDEST PUSH1 0x0 PUSH1 0x20 DUP3 ADD SWAP1 POP DUP2 DUP2 SUB PUSH1 0x0 DUP4 ADD MSTORE PUSH2 0x4A32 DUP2 PUSH2 0x49F6 JUMP JUMPDEST SWAP1 POP SWAP2 SWAP1 POP JUMP JUMPDEST PUSH32 0x474153204572726F723A206D6178206C696D6974206973203530302061646472 PUSH1 0x0 DUP3 ADD MSTORE PUSH32 0x6573736573000000000000000000000000000000000000000000000000000000 PUSH1 0x20 DUP3 ADD MSTORE POP JUMP JUMPDEST PUSH1 0x0 PUSH2 0x4A95 PUSH1 0x25 DUP4 PUSH2 0x383C JUMP JUMPDEST SWAP2 POP PUSH2 0x4AA0 DUP3 PUSH2 0x4A39 JUMP JUMPDEST PUSH1 0x40 DUP3 ADD SWAP1 POP SWAP2 SWAP1 POP JUMP JUMPDEST PUSH1 0x0 PUSH1 0x20 DUP3 ADD SWAP1 POP DUP2 DUP2 SUB PUSH1 0x0 DUP4 ADD MSTORE PUSH2 0x4AC4 DUP2 PUSH2 0x4A88 JUMP JUMPDEST SWAP1 POP SWAP2 SWAP1 POP JUMP JUMPDEST PUSH32 0x4F776E61626C653A206E6577206F776E657220697320746865207A65726F2061 PUSH1 0x0 DUP3 ADD MSTORE PUSH32 0x6464726573730000000000000000000000000000000000000000000000000000 PUSH1 0x20 DUP3 ADD MSTORE POP JUMP JUMPDEST PUSH1 0x0 PUSH2 0x4B27 PUSH1 0x26 DUP4 PUSH2 0x383C JUMP JUMPDEST SWAP2 POP PUSH2 0x4B32 DUP3 PUSH2 0x4ACB JUMP JUMPDEST PUSH1 0x40 DUP3 ADD SWAP1 POP SWAP2 SWAP1 POP JUMP JUMPDEST PUSH1 0x0 PUSH1 0x20 DUP3 ADD SWAP1 POP DUP2 DUP2 SUB PUSH1 0x0 DUP4 ADD MSTORE PUSH2 0x4B56 DUP2 PUSH2 0x4B1A JUMP JUMPDEST SWAP1 POP SWAP2 SWAP1 POP JUMP JUMPDEST PUSH1 0x0 PUSH2 0x4B68 DUP3 PUSH2 0x37FD JUMP JUMPDEST SWAP2 POP PUSH2 0x4B73 DUP4 PUSH2 0x37FD JUMP JUMPDEST SWAP3 POP DUP3 DUP3 SUB SWAP1 POP DUP2 DUP2 GT ISZERO PUSH2 0x4B8B JUMPI PUSH2 0x4B8A PUSH2 0x46C1 JUMP JUMPDEST JUMPDEST SWAP3 SWAP2 POP POP JUMP JUMPDEST PUSH32 0x57686974656C69737420656E61626C656420616E642073656E646572206E6F74 PUSH1 0x0 DUP3 ADD MSTORE PUSH32 0x2077686974656C69737465640000000000000000000000000000000000000000 PUSH1 0x20 DUP3 ADD MSTORE POP JUMP JUMPDEST PUSH1 0x0 PUSH2 0x4BED PUSH1 0x2C DUP4 PUSH2 0x383C JUMP JUMPDEST SWAP2 POP PUSH2 0x4BF8 DUP3 PUSH2 0x4B91 JUMP JUMPDEST PUSH1 0x40 DUP3 ADD SWAP1 POP SWAP2 SWAP1 POP JUMP JUMPDEST PUSH1 0x0 PUSH1 0x20 DUP3 ADD SWAP1 POP DUP2 DUP2 SUB PUSH1 0x0 DUP4 ADD MSTORE PUSH2 0x4C1C DUP2 PUSH2 0x4BE0 JUMP JUMPDEST SWAP1 POP SWAP2 SWAP1 POP JUMP JUMPDEST PUSH32 0x4D61782057616C6C657420457863656564656400000000000000000000000000 PUSH1 0x0 DUP3 ADD MSTORE POP JUMP JUMPDEST PUSH1 0x0 PUSH2 0x4C59 PUSH1 0x13 DUP4 PUSH2 0x383C JUMP JUMPDEST SWAP2 POP PUSH2 0x4C64 DUP3 PUSH2 0x4C23 JUMP JUMPDEST PUSH1 0x20 DUP3 ADD SWAP1 POP SWAP2 SWAP1 POP JUMP JUMPDEST PUSH1 0x0 PUSH1 0x20 DUP3 ADD SWAP1 POP DUP2 DUP2 SUB PUSH1 0x0 DUP4 ADD MSTORE PUSH2 0x4C88 DUP2 PUSH2 0x4C4C JUMP JUMPDEST SWAP1 POP SWAP2 SWAP1 POP JUMP JUMPDEST PUSH32 0x5472616E73616374696F6E204578636565646564000000000000000000000000 PUSH1 0x0 DUP3 ADD MSTORE POP JUMP JUMPDEST PUSH1 0x0 PUSH2 0x4CC5 PUSH1 0x14 DUP4 PUSH2 0x383C JUMP JUMPDEST SWAP2 POP PUSH2 0x4CD0 DUP3 PUSH2 0x4C8F JUMP JUMPDEST PUSH1 0x20 DUP3 ADD SWAP1 POP SWAP2 SWAP1 POP JUMP JUMPDEST PUSH1 0x0 PUSH1 0x20 DUP3 ADD SWAP1 POP DUP2 DUP2 SUB PUSH1 0x0 DUP4 ADD MSTORE PUSH2 0x4CF4 DUP2 PUSH2 0x4CB8 JUMP JUMPDEST SWAP1 POP SWAP2 SWAP1 POP JUMP JUMPDEST PUSH32 0x536166654D6174683A206D756C7469706C69636174696F6E206F766572666C6F PUSH1 0x0 DUP3 ADD MSTORE PUSH32 0x7700000000000000000000000000000000000000000000000000000000000000 PUSH1 0x20 DUP3 ADD MSTORE POP JUMP JUMPDEST PUSH1 0x0 PUSH2 0x4D57 PUSH1 0x21 DUP4 PUSH2 0x383C JUMP JUMPDEST SWAP2 POP PUSH2 0x4D62 DUP3 PUSH2 0x4CFB JUMP JUMPDEST PUSH1 0x40 DUP3 ADD SWAP1 POP SWAP2 SWAP1 POP JUMP JUMPDEST PUSH1 0x0 PUSH1 0x20 DUP3 ADD SWAP1 POP DUP2 DUP2 SUB PUSH1 0x0 DUP4 ADD MSTORE PUSH2 0x4D86 DUP2 PUSH2 0x4D4A JUMP JUMPDEST SWAP1 POP SWAP2 SWAP1 POP JUMP JUMPDEST PUSH32 0x536166654D6174683A206164646974696F6E206F766572666C6F770000000000 PUSH1 0x0 DUP3 ADD MSTORE POP JUMP JUMPDEST PUSH1 0x0 PUSH2 0x4DC3 PUSH1 0x1B DUP4 PUSH2 0x383C JUMP JUMPDEST SWAP2 POP PUSH2 0x4DCE DUP3 PUSH2 0x4D8D JUMP JUMPDEST PUSH1 0x20 DUP3 ADD SWAP1 POP SWAP2 SWAP1 POP JUMP JUMPDEST PUSH1 0x0 PUSH1 0x20 DUP3 ADD SWAP1 POP DUP2 DUP2 SUB PUSH1 0x0 DUP4 ADD MSTORE PUSH2 0x4DF2 DUP2 PUSH2 0x4DB6 JUMP JUMPDEST SWAP1 POP SWAP2 SWAP1 POP JUMP JUMPDEST PUSH1 0x0 DUP2 SWAP1 POP SWAP2 SWAP1 POP JUMP JUMPDEST PUSH1 0x0 PUSH2 0x4E1E PUSH2 0x4E19 PUSH2 0x4E14 DUP5 PUSH2 0x4DF9 JUMP JUMPDEST PUSH2 0x41C3 JUMP JUMPDEST PUSH2 0x37FD JUMP JUMPDEST SWAP1 POP SWAP2 SWAP1 POP JUMP JUMPDEST PUSH2 0x4E2E DUP2 PUSH2 0x4E03 JUMP JUMPDEST DUP3 MSTORE POP POP JUMP JUMPDEST PUSH1 0x0 DUP2 MLOAD SWAP1 POP SWAP2 SWAP1 POP JUMP JUMPDEST PUSH1 0x0 DUP3 DUP3 MSTORE PUSH1 0x20 DUP3 ADD SWAP1 POP SWAP3 SWAP2 POP POP JUMP JUMPDEST PUSH1 0x0 DUP2 SWAP1 POP PUSH1 0x20 DUP3 ADD SWAP1 POP SWAP2 SWAP1 POP JUMP JUMPDEST PUSH2 0x4E69 DUP2 PUSH2 0x3917 JUMP JUMPDEST DUP3 MSTORE POP POP JUMP JUMPDEST PUSH1 0x0 PUSH2 0x4E7B DUP4 DUP4 PUSH2 0x4E60 JUMP JUMPDEST PUSH1 0x20 DUP4 ADD SWAP1 POP SWAP3 SWAP2 POP POP JUMP JUMPDEST PUSH1 0x0 PUSH1 0x20 DUP3 ADD SWAP1 POP SWAP2 SWAP1 POP JUMP JUMPDEST PUSH1 0x0 PUSH2 0x4E9F DUP3 PUSH2 0x4E34 JUMP JUMPDEST PUSH2 0x4EA9 DUP2 DUP6 PUSH2 0x4E3F JUMP JUMPDEST SWAP4 POP PUSH2 0x4EB4 DUP4 PUSH2 0x4E50 JUMP JUMPDEST DUP1 PUSH1 0x0 JUMPDEST DUP4 DUP2 LT ISZERO PUSH2 0x4EE5 JUMPI DUP2 MLOAD PUSH2 0x4ECC DUP9 DUP3 PUSH2 0x4E6F JUMP JUMPDEST SWAP8 POP PUSH2 0x4ED7 DUP4 PUSH2 0x4E87 JUMP JUMPDEST SWAP3 POP POP PUSH1 0x1 DUP2 ADD SWAP1 POP PUSH2 0x4EB8 JUMP JUMPDEST POP DUP6 SWAP4 POP POP POP POP SWAP3 SWAP2 POP POP JUMP JUMPDEST PUSH1 0x0 PUSH1 0xA0 DUP3 ADD SWAP1 POP PUSH2 0x4F07 PUSH1 0x0 DUP4 ADD DUP9 PUSH2 0x3807 JUMP JUMPDEST PUSH2 0x4F14 PUSH1 0x20 DUP4 ADD DUP8 PUSH2 0x4E25 JUMP JUMPDEST DUP2 DUP2 SUB PUSH1 0x40 DUP4 ADD MSTORE PUSH2 0x4F26 DUP2 DUP7 PUSH2 0x4E94 JUMP JUMPDEST SWAP1 POP PUSH2 0x4F35 PUSH1 0x60 DUP4 ADD DUP6 PUSH2 0x3EB0 JUMP JUMPDEST PUSH2 0x4F42 PUSH1 0x80 DUP4 ADD DUP5 PUSH2 0x3807 JUMP JUMPDEST SWAP7 SWAP6 POP POP POP POP POP POP JUMP JUMPDEST PUSH1 0x0 DUP2 SWAP1 POP SWAP3 SWAP2 POP POP JUMP JUMPDEST POP JUMP JUMPDEST PUSH1 0x0 PUSH2 0x4F67 PUSH1 0x0 DUP4 PUSH2 0x4F4C JUMP JUMPDEST SWAP2 POP PUSH2 0x4F72 DUP3 PUSH2 0x4F57 JUMP JUMPDEST PUSH1 0x0 DUP3 ADD SWAP1 POP SWAP2 SWAP1 POP JUMP JUMPDEST PUSH1 0x0 PUSH2 0x4F88 DUP3 PUSH2 0x4F5A JUMP JUMPDEST SWAP2 POP DUP2 SWAP1 POP SWAP2 SWAP1 POP JUMP JUMPDEST PUSH1 0x0 PUSH1 0xC0 DUP3 ADD SWAP1 POP PUSH2 0x4FA7 PUSH1 0x0 DUP4 ADD DUP10 PUSH2 0x3EB0 JUMP JUMPDEST PUSH2 0x4FB4 PUSH1 0x20 DUP4 ADD DUP9 PUSH2 0x3807 JUMP JUMPDEST PUSH2 0x4FC1 PUSH1 0x40 DUP4 ADD DUP8 PUSH2 0x4E25 JUMP JUMPDEST PUSH2 0x4FCE PUSH1 0x60 DUP4 ADD DUP7 PUSH2 0x4E25 JUMP JUMPDEST PUSH2 0x4FDB PUSH1 0x80 DUP4 ADD DUP6 PUSH2 0x3EB0 JUMP JUMPDEST PUSH2 0x4FE8 PUSH1 0xA0 DUP4 ADD DUP5 PUSH2 0x3807 JUMP JUMPDEST SWAP8 SWAP7 POP POP POP POP POP POP POP JUMP JUMPDEST PUSH1 0x0 DUP2 MLOAD SWAP1 POP PUSH2 0x5002 DUP2 PUSH2 0x3955 JUMP JUMPDEST SWAP3 SWAP2 POP POP JUMP JUMPDEST PUSH1 0x0 DUP1 PUSH1 0x0 PUSH1 0x60 DUP5 DUP7 SUB SLT ISZERO PUSH2 0x5021 JUMPI PUSH2 0x5020 PUSH2 0x38ED JUMP JUMPDEST JUMPDEST PUSH1 0x0 PUSH2 0x502F DUP7 DUP3 DUP8 ADD PUSH2 0x4FF3 JUMP JUMPDEST SWAP4 POP POP PUSH1 0x20 PUSH2 0x5040 DUP7 DUP3 DUP8 ADD PUSH2 0x4FF3 JUMP JUMPDEST SWAP3 POP POP PUSH1 0x40 PUSH2 0x5051 DUP7 DUP3 DUP8 ADD PUSH2 0x4FF3 JUMP JUMPDEST SWAP2 POP POP SWAP3 POP SWAP3 POP SWAP3 JUMP JUMPDEST PUSH1 0x0 PUSH1 0x40 DUP3 ADD SWAP1 POP PUSH2 0x5070 PUSH1 0x0 DUP4 ADD DUP6 PUSH2 0x3807 JUMP JUMPDEST PUSH2 0x507D PUSH1 0x20 DUP4 ADD DUP5 PUSH2 0x3807 JUMP JUMPDEST SWAP4 SWAP3 POP POP POP JUMP INVALID LOG2 PUSH5 0x6970667358 0x22 SLT KECCAK256 PUSH12 0x30D1539EAB2A9534D94B6672 0xB3 RETURNDATACOPY PREVRANDAO RETURNDATASIZE SUB PUSH18 0xC229281FA604E32036B85D0B0564736F6C63 NUMBER STOP ADDMOD SLT STOP CALLER "
		},
		"gasEstimates": {
			"creation": {
				"codeDepositCost": "4133200",
				"executionCost": "infinite",
				"totalCost": "infinite"
			},
			"external": {
				"SetMaxTxPercent_base1000(uint256)": "infinite",
				"SetMaxWalletPercent_base1000(uint256)": "infinite",
				"_maxTxAmount()": "2541",
				"_maxWalletSize()": "2474",
				"_rOwned(address)": "2927",
				"_totalProportion()": "2475",
				"allowance(address,address)": "infinite",
				"approve(address,uint256)": "infinite",
				"approveMax(address)": "24995",
				"balanceOf(address)": "infinite",
				"changeFees(uint256,uint256,uint256,uint256,uint256,uint256,uint256,uint256)": "infinite",
				"changeName(string)": "infinite",
				"changeSymbol(string)": "infinite",
				"claimingFees()": "2566",
				"clearStuckBalance()": "infinite",
				"decimals()": "499",
				"enableWhitelistMode(bool)": "29252",
				"getCirculatingSupply()": "infinite",
				"getLiquidityBacking(uint256)": "infinite",
				"getOwner()": "2691",
				"getTotalFeeBuy()": "2526",
				"getTotalFeeSell()": "2526",
				"isOverLiquified(uint256,uint256)": "infinite",
				"manageWhitelist(address[],bool)": "infinite",
				"multiAirdrop(address[],uint256[])": "infinite",
				"name()": "infinite",
				"owner()": "2678",
				"pair()": "2647",
				"renounceOwnership()": "30337",
				"renounceWhitelist()": "26731",
				"router()": "infinite",
				"setFeeReceivers(address,address,address)": "infinite",
				"setIsFeeExempt(address,bool)": "27326",
				"setIsTxLimitExempt(address,bool)": "27325",
				"setSwapBackSettings(bool,uint256,uint256,bool)": "infinite",
				"swapThreshold()": "2476",
				"symbol()": "infinite",
				"tokenFromReflection(uint256)": "infinite",
				"tokensToProportion(uint256)": "infinite",
				"totalSupply()": "2505",
				"transfer(address,uint256)": "infinite",
				"transferFrom(address,address,uint256)": "infinite",
				"transferOwnership(address)": "30747",
				"viewFeesBuy()": "infinite",
				"viewFeesSell()": "infinite",
				"whitelistEnabled()": "2655",
				"whitelistRenounced()": "2588"
			},
			"internal": {
				"_basicTransfer(address,address,uint256)": "infinite",
				"_transferFrom(address,address,uint256)": "infinite",
				"checkTxLimit(address,uint256)": "infinite",
				"shouldSwapBack()": "infinite",
				"shouldTakeFee(address)": "2263",
				"swapBack()": "infinite",
				"takeFeeInProportions(bool,address,uint256)": "infinite"
			}
		},
		"methodIdentifiers": {
			"SetMaxTxPercent_base1000(uint256)": "77a40178",
			"SetMaxWalletPercent_base1000(uint256)": "c3717a9a",
			"_maxTxAmount()": "7d1db4a5",
			"_maxWalletSize()": "8f9a55c0",
			"_rOwned(address)": "0cfc15f9",
			"_totalProportion()": "17800287",
			"allowance(address,address)": "dd62ed3e",
			"approve(address,uint256)": "095ea7b3",
			"approveMax(address)": "571ac8b0",
			"balanceOf(address)": "70a08231",
			"changeFees(uint256,uint256,uint256,uint256,uint256,uint256,uint256,uint256)": "400343e7",
			"changeName(string)": "5353a2d8",
			"changeSymbol(string)": "a3895fff",
			"claimingFees()": "b0f7ec38",
			"clearStuckBalance()": "364333f4",
			"decimals()": "313ce567",
			"enableWhitelistMode(bool)": "79afb064",
			"getCirculatingSupply()": "2b112e49",
			"getLiquidityBacking(uint256)": "d51ed1c8",
			"getOwner()": "893d20e8",
			"getTotalFeeBuy()": "9c82a18a",
			"getTotalFeeSell()": "bbc572a6",
			"isOverLiquified(uint256,uint256)": "1161ae39",
			"manageWhitelist(address[],bool)": "ec610dc0",
			"multiAirdrop(address[],uint256[])": "d735dc92",
			"name()": "06fdde03",
			"owner()": "8da5cb5b",
			"pair()": "a8aa1b31",
			"renounceOwnership()": "715018a6",
			"renounceWhitelist()": "39137f8b",
			"router()": "f887ea40",
			"setFeeReceivers(address,address,address)": "d7c01032",
			"setIsFeeExempt(address,bool)": "658d4b7f",
			"setIsTxLimitExempt(address,bool)": "f84ba65d",
			"setSwapBackSettings(bool,uint256,uint256,bool)": "6308fb98",
			"swapThreshold()": "0445b667",
			"symbol()": "95d89b41",
			"tokenFromReflection(uint256)": "2d838119",
			"tokensToProportion(uint256)": "45ce5365",
			"totalSupply()": "18160ddd",
			"transfer(address,uint256)": "a9059cbb",
			"transferFrom(address,address,uint256)": "23b872dd",
			"transferOwnership(address)": "f2fde38b",
			"viewFeesBuy()": "613f930f",
			"viewFeesSell()": "b93bdb5f",
			"whitelistEnabled()": "51fb012d",
			"whitelistRenounced()": "5cbd616a"
		}
	},
	"abi": [
		{
			"inputs": [],
			"stateMutability": "nonpayable",
			"type": "constructor"
		},
		{
			"anonymous": false,
			"inputs": [
				{
					"indexed": true,
					"internalType": "address",
					"name": "owner",
					"type": "address"
				},
				{
					"indexed": true,
					"internalType": "address",
					"name": "spender",
					"type": "address"
				},
				{
					"indexed": false,
					"internalType": "uint256",
					"name": "value",
					"type": "uint256"
				}
			],
			"name": "Approval",
			"type": "event"
		},
		{
			"anonymous": false,
			"inputs": [
				{
					"indexed": false,
					"internalType": "uint256",
					"name": "amountBNB",
					"type": "uint256"
				},
				{
					"indexed": false,
					"internalType": "uint256",
					"name": "amountToken",
					"type": "uint256"
				}
			],
			"name": "AutoLiquify",
			"type": "event"
		},
		{
			"anonymous": false,
			"inputs": [
				{
					"indexed": true,
					"internalType": "address",
					"name": "previousOwner",
					"type": "address"
				},
				{
					"indexed": true,
					"internalType": "address",
					"name": "newOwner",
					"type": "address"
				}
			],
			"name": "OwnershipTransferred",
			"type": "event"
		},
		{
			"anonymous": false,
			"inputs": [
				{
					"indexed": false,
					"internalType": "uint256",
					"name": "amountReflected",
					"type": "uint256"
				},
				{
					"indexed": false,
					"internalType": "uint256",
					"name": "newTotalProportion",
					"type": "uint256"
				}
			],
			"name": "Reflect",
			"type": "event"
		},
		{
			"anonymous": false,
			"inputs": [
				{
					"indexed": true,
					"internalType": "address",
					"name": "from",
					"type": "address"
				},
				{
					"indexed": true,
					"internalType": "address",
					"name": "to",
					"type": "address"
				},
				{
					"indexed": false,
					"internalType": "uint256",
					"name": "value",
					"type": "uint256"
				}
			],
			"name": "Transfer",
			"type": "event"
		},
		{
			"inputs": [
				{
					"internalType": "uint256",
					"name": "maxTXPercentage_base1000",
					"type": "uint256"
				}
			],
			"name": "SetMaxTxPercent_base1000",
			"outputs": [],
			"stateMutability": "nonpayable",
			"type": "function"
		},
		{
			"inputs": [
				{
					"internalType": "uint256",
					"name": "maxWallPercent_base1000",
					"type": "uint256"
				}
			],
			"name": "SetMaxWalletPercent_base1000",
			"outputs": [],
			"stateMutability": "nonpayable",
			"type": "function"
		},
		{
			"inputs": [],
			"name": "_maxTxAmount",
			"outputs": [
				{
					"internalType": "uint256",
					"name": "",
					"type": "uint256"
				}
			],
			"stateMutability": "view",
			"type": "function"
		},
		{
			"inputs": [],
			"name": "_maxWalletSize",
			"outputs": [
				{
					"internalType": "uint256",
					"name": "",
					"type": "uint256"
				}
			],
			"stateMutability": "view",
			"type": "function"
		},
		{
			"inputs": [
				{
					"internalType": "address",
					"name": "",
					"type": "address"
				}
			],
			"name": "_rOwned",
			"outputs": [
				{
					"internalType": "uint256",
					"name": "",
					"type": "uint256"
				}
			],
			"stateMutability": "view",
			"type": "function"
		},
		{
			"inputs": [],
			"name": "_totalProportion",
			"outputs": [
				{
					"internalType": "uint256",
					"name": "",
					"type": "uint256"
				}
			],
			"stateMutability": "view",
			"type": "function"
		},
		{
			"inputs": [
				{
					"internalType": "address",
					"name": "holder",
					"type": "address"
				},
				{
					"internalType": "address",
					"name": "spender",
					"type": "address"
				}
			],
			"name": "allowance",
			"outputs": [
				{
					"internalType": "uint256",
					"name": "",
					"type": "uint256"
				}
			],
			"stateMutability": "view",
			"type": "function"
		},
		{
			"inputs": [
				{
					"internalType": "address",
					"name": "spender",
					"type": "address"
				},
				{
					"internalType": "uint256",
					"name": "amount",
					"type": "uint256"
				}
			],
			"name": "approve",
			"outputs": [
				{
					"internalType": "bool",
					"name": "",
					"type": "bool"
				}
			],
			"stateMutability": "nonpayable",
			"type": "function"
		},
		{
			"inputs": [
				{
					"internalType": "address",
					"name": "spender",
					"type": "address"
				}
			],
			"name": "approveMax",
			"outputs": [
				{
					"internalType": "bool",
					"name": "",
					"type": "bool"
				}
			],
			"stateMutability": "nonpayable",
			"type": "function"
		},
		{
			"inputs": [
				{
					"internalType": "address",
					"name": "account",
					"type": "address"
				}
			],
			"name": "balanceOf",
			"outputs": [
				{
					"internalType": "uint256",
					"name": "",
					"type": "uint256"
				}
			],
			"stateMutability": "view",
			"type": "function"
		},
		{
			"inputs": [
				{
					"internalType": "uint256",
					"name": "_liquidityFeeBuy",
					"type": "uint256"
				},
				{
					"internalType": "uint256",
					"name": "_reflectionFeeBuy",
					"type": "uint256"
				},
				{
					"internalType": "uint256",
					"name": "_marketingFeeBuy",
					"type": "uint256"
				},
				{
					"internalType": "uint256",
					"name": "_buybackFeeBuy",
					"type": "uint256"
				},
				{
					"internalType": "uint256",
					"name": "_liquidityFeeSell",
					"type": "uint256"
				},
				{
					"internalType": "uint256",
					"name": "_reflectionFeeSell",
					"type": "uint256"
				},
				{
					"internalType": "uint256",
					"name": "_marketingFeeSell",
					"type": "uint256"
				},
				{
					"internalType": "uint256",
					"name": "_buybackFeeSell",
					"type": "uint256"
				}
			],
			"name": "changeFees",
			"outputs": [],
			"stateMutability": "nonpayable",
			"type": "function"
		},
		{
			"inputs": [
				{
					"internalType": "string",
					"name": "newName",
					"type": "string"
				}
			],
			"name": "changeName",
			"outputs": [],
			"stateMutability": "nonpayable",
			"type": "function"
		},
		{
			"inputs": [
				{
					"internalType": "string",
					"name": "newSymbol",
					"type": "string"
				}
			],
			"name": "changeSymbol",
			"outputs": [],
			"stateMutability": "nonpayable",
			"type": "function"
		},
		{
			"inputs": [],
			"name": "claimingFees",
			"outputs": [
				{
					"internalType": "bool",
					"name": "",
					"type": "bool"
				}
			],
			"stateMutability": "view",
			"type": "function"
		},
		{
			"inputs": [],
			"name": "clearStuckBalance",
			"outputs": [],
			"stateMutability": "nonpayable",
			"type": "function"
		},
		{
			"inputs": [],
			"name": "decimals",
			"outputs": [
				{
					"internalType": "uint8",
					"name": "",
					"type": "uint8"
				}
			],
			"stateMutability": "pure",
			"type": "function"
		},
		{
			"inputs": [
				{
					"internalType": "bool",
					"name": "enableWhitelist",
					"type": "bool"
				}
			],
			"name": "enableWhitelistMode",
			"outputs": [],
			"stateMutability": "nonpayable",
			"type": "function"
		},
		{
			"inputs": [],
			"name": "getCirculatingSupply",
			"outputs": [
				{
					"internalType": "uint256",
					"name": "",
					"type": "uint256"
				}
			],
			"stateMutability": "view",
			"type": "function"
		},
		{
			"inputs": [
				{
					"internalType": "uint256",
					"name": "accuracy",
					"type": "uint256"
				}
			],
			"name": "getLiquidityBacking",
			"outputs": [
				{
					"internalType": "uint256",
					"name": "",
					"type": "uint256"
				}
			],
			"stateMutability": "view",
			"type": "function"
		},
		{
			"inputs": [],
			"name": "getOwner",
			"outputs": [
				{
					"internalType": "address",
					"name": "",
					"type": "address"
				}
			],
			"stateMutability": "view",
			"type": "function"
		},
		{
			"inputs": [],
			"name": "getTotalFeeBuy",
			"outputs": [
				{
					"internalType": "uint256",
					"name": "",
					"type": "uint256"
				}
			],
			"stateMutability": "view",
			"type": "function"
		},
		{
			"inputs": [],
			"name": "getTotalFeeSell",
			"outputs": [
				{
					"internalType": "uint256",
					"name": "",
					"type": "uint256"
				}
			],
			"stateMutability": "view",
			"type": "function"
		},
		{
			"inputs": [
				{
					"internalType": "uint256",
					"name": "target",
					"type": "uint256"
				},
				{
					"internalType": "uint256",
					"name": "accuracy",
					"type": "uint256"
				}
			],
			"name": "isOverLiquified",
			"outputs": [
				{
					"internalType": "bool",
					"name": "",
					"type": "bool"
				}
			],
			"stateMutability": "view",
			"type": "function"
		},
		{
			"inputs": [
				{
					"internalType": "address[]",
					"name": "addresses",
					"type": "address[]"
				},
				{
					"internalType": "bool",
					"name": "whitelisted",
					"type": "bool"
				}
			],
			"name": "manageWhitelist",
			"outputs": [],
			"stateMutability": "nonpayable",
			"type": "function"
		},
		{
			"inputs": [
				{
					"internalType": "address[]",
					"name": "addresses",
					"type": "address[]"
				},
				{
					"internalType": "uint256[]",
					"name": "tokens",
					"type": "uint256[]"
				}
			],
			"name": "multiAirdrop",
			"outputs": [],
			"stateMutability": "nonpayable",
			"type": "function"
		},
		{
			"inputs": [],
			"name": "name",
			"outputs": [
				{
					"internalType": "string",
					"name": "",
					"type": "string"
				}
			],
			"stateMutability": "view",
			"type": "function"
		},
		{
			"inputs": [],
			"name": "owner",
			"outputs": [
				{
					"internalType": "address",
					"name": "",
					"type": "address"
				}
			],
			"stateMutability": "view",
			"type": "function"
		},
		{
			"inputs": [],
			"name": "pair",
			"outputs": [
				{
					"internalType": "address",
					"name": "",
					"type": "address"
				}
			],
			"stateMutability": "view",
			"type": "function"
		},
		{
			"inputs": [],
			"name": "renounceOwnership",
			"outputs": [],
			"stateMutability": "nonpayable",
			"type": "function"
		},
		{
			"inputs": [],
			"name": "renounceWhitelist",
			"outputs": [],
			"stateMutability": "nonpayable",
			"type": "function"
		},
		{
			"inputs": [],
			"name": "router",
			"outputs": [
				{
					"internalType": "contract IDEXRouter",
					"name": "",
					"type": "address"
				}
			],
			"stateMutability": "view",
			"type": "function"
		},
		{
			"inputs": [
				{
					"internalType": "address",
					"name": "_marketingFeeReceiver",
					"type": "address"
				},
				{
					"internalType": "address",
					"name": "_buybackFeeReceiver",
					"type": "address"
				},
				{
					"internalType": "address",
					"name": "_liquidityReceiver",
					"type": "address"
				}
			],
			"name": "setFeeReceivers",
			"outputs": [],
			"stateMutability": "nonpayable",
			"type": "function"
		},
		{
			"inputs": [
				{
					"internalType": "address",
					"name": "holder",
					"type": "address"
				},
				{
					"internalType": "bool",
					"name": "exempt",
					"type": "bool"
				}
			],
			"name": "setIsFeeExempt",
			"outputs": [],
			"stateMutability": "nonpayable",
			"type": "function"
		},
		{
			"inputs": [
				{
					"internalType": "address",
					"name": "holder",
					"type": "address"
				},
				{
					"internalType": "bool",
					"name": "exempt",
					"type": "bool"
				}
			],
			"name": "setIsTxLimitExempt",
			"outputs": [],
			"stateMutability": "nonpayable",
			"type": "function"
		},
		{
			"inputs": [
				{
					"internalType": "bool",
					"name": "_enabled",
					"type": "bool"
				},
				{
					"internalType": "uint256",
					"name": "_amountS",
					"type": "uint256"
				},
				{
					"internalType": "uint256",
					"name": "_amountL",
					"type": "uint256"
				},
				{
					"internalType": "bool",
					"name": "_alternate",
					"type": "bool"
				}
			],
			"name": "setSwapBackSettings",
			"outputs": [],
			"stateMutability": "nonpayable",
			"type": "function"
		},
		{
			"inputs": [],
			"name": "swapThreshold",
			"outputs": [
				{
					"internalType": "uint256",
					"name": "",
					"type": "uint256"
				}
			],
			"stateMutability": "view",
			"type": "function"
		},
		{
			"inputs": [],
			"name": "symbol",
			"outputs": [
				{
					"internalType": "string",
					"name": "",
					"type": "string"
				}
			],
			"stateMutability": "view",
			"type": "function"
		},
		{
			"inputs": [
				{
					"internalType": "uint256",
					"name": "proportion",
					"type": "uint256"
				}
			],
			"name": "tokenFromReflection",
			"outputs": [
				{
					"internalType": "uint256",
					"name": "",
					"type": "uint256"
				}
			],
			"stateMutability": "view",
			"type": "function"
		},
		{
			"inputs": [
				{
					"internalType": "uint256",
					"name": "tokens",
					"type": "uint256"
				}
			],
			"name": "tokensToProportion",
			"outputs": [
				{
					"internalType": "uint256",
					"name": "",
					"type": "uint256"
				}
			],
			"stateMutability": "view",
			"type": "function"
		},
		{
			"inputs": [],
			"name": "totalSupply",
			"outputs": [
				{
					"internalType": "uint256",
					"name": "",
					"type": "uint256"
				}
			],
			"stateMutability": "view",
			"type": "function"
		},
		{
			"inputs": [
				{
					"internalType": "address",
					"name": "recipient",
					"type": "address"
				},
				{
					"internalType": "uint256",
					"name": "amount",
					"type": "uint256"
				}
			],
			"name": "transfer",
			"outputs": [
				{
					"internalType": "bool",
					"name": "",
					"type": "bool"
				}
			],
			"stateMutability": "nonpayable",
			"type": "function"
		},
		{
			"inputs": [
				{
					"internalType": "address",
					"name": "sender",
					"type": "address"
				},
				{
					"internalType": "address",
					"name": "recipient",
					"type": "address"
				},
				{
					"internalType": "uint256",
					"name": "amount",
					"type": "uint256"
				}
			],
			"name": "transferFrom",
			"outputs": [
				{
					"internalType": "bool",
					"name": "",
					"type": "bool"
				}
			],
			"stateMutability": "nonpayable",
			"type": "function"
		},
		{
			"inputs": [
				{
					"internalType": "address",
					"name": "newOwner",
					"type": "address"
				}
			],
			"name": "transferOwnership",
			"outputs": [],
			"stateMutability": "nonpayable",
			"type": "function"
		},
		{
			"inputs": [],
			"name": "viewFeesBuy",
			"outputs": [
				{
					"internalType": "uint256",
					"name": "",
					"type": "uint256"
				},
				{
					"internalType": "uint256",
					"name": "",
					"type": "uint256"
				},
				{
					"internalType": "uint256",
					"name": "",
					"type": "uint256"
				},
				{
					"internalType": "uint256",
					"name": "",
					"type": "uint256"
				},
				{
					"internalType": "uint256",
					"name": "",
					"type": "uint256"
				},
				{
					"internalType": "uint256",
					"name": "",
					"type": "uint256"
				}
			],
			"stateMutability": "view",
			"type": "function"
		},
		{
			"inputs": [],
			"name": "viewFeesSell",
			"outputs": [
				{
					"internalType": "uint256",
					"name": "",
					"type": "uint256"
				},
				{
					"internalType": "uint256",
					"name": "",
					"type": "uint256"
				},
				{
					"internalType": "uint256",
					"name": "",
					"type": "uint256"
				},
				{
					"internalType": "uint256",
					"name": "",
					"type": "uint256"
				},
				{
					"internalType": "uint256",
					"name": "",
					"type": "uint256"
				},
				{
					"internalType": "uint256",
					"name": "",
					"type": "uint256"
				}
			],
			"stateMutability": "view",
			"type": "function"
		},
		{
			"inputs": [],
			"name": "whitelistEnabled",
			"outputs": [
				{
					"internalType": "bool",
					"name": "",
					"type": "bool"
				}
			],
			"stateMutability": "view",
			"type": "function"
		},
		{
			"inputs": [],
			"name": "whitelistRenounced",
			"outputs": [
				{
					"internalType": "bool",
					"name": "",
					"type": "bool"
				}
			],
			"stateMutability": "view",
			"type": "function"
		},
		{
			"stateMutability": "payable",
			"type": "receive"
		}
	]
}