{
	"contracts/samples/transfer_to_contract.sol": {
		"TokenTransfer": {
			"abi": [
				{
					"inputs": [
						{
							"internalType": "address",
							"name": "token",
							"type": "address"
						}
					],
					"stateMutability": "nonpayable",
					"type": "constructor"
				},
				{
					"inputs": [
						{
							"internalType": "uint256",
							"name": "_amount",
							"type": "uint256"
						}
					],
					"name": "depositTokens",
					"outputs": [],
					"stateMutability": "nonpayable",
					"type": "function"
				},
				{
					"inputs": [],
					"name": "getSmartContractBalance",
					"outputs": [
						{
							"internalType": "uint256",
							"name": "",
							"type": "uint256"
						}
					],
					"stateMutability": "view",
					"type": "function"
				},
				{
					"inputs": [
						{
							"internalType": "address",
							"name": "to",
							"type": "address"
						},
						{
							"internalType": "uint256",
							"name": "amount",
							"type": "uint256"
						}
					],
					"name": "stake",
					"outputs": [],
					"stateMutability": "nonpayable",
					"type": "function"
				}
			],
			"devdoc": {
				"details": "This snippet shows how to transfer to and from a smart contract",
				"kind": "dev",
				"methods": {},
				"version": 1
			},
			"evm": {
				"assembly": "    /* \"contracts/samples/transfer_to_contract.sol\":258:1199  contract TokenTransfer {... */\n  mstore(0x40, 0x80)\n    /* \"contracts/samples/transfer_to_contract.sol\":353:421  constructor(address token) {... */\n  callvalue\n  dup1\n  iszero\n  tag_1\n  jumpi\n  0x00\n  dup1\n  revert\ntag_1:\n  pop\n  mload(0x40)\n  sub(codesize, bytecodeSize)\n  dup1\n  bytecodeSize\n  dup4\n  codecopy\n  dup2\n  dup2\n  add\n  0x40\n  mstore\n  dup2\n  add\n  swap1\n  tag_2\n  swap2\n  swap1\n  tag_3\n  jump\t// in\ntag_2:\n    /* \"contracts/samples/transfer_to_contract.sol\":407:412  token */\n  dup1\n    /* \"contracts/samples/transfer_to_contract.sol\":391:397  _token */\n  0x00\n  dup1\n    /* \"contracts/samples/transfer_to_contract.sol\":391:413  _token = IERC20(token) */\n  0x0100\n  exp\n  dup2\n  sload\n  dup2\n  0xffffffffffffffffffffffffffffffffffffffff\n  mul\n  not\n  and\n  swap1\n  dup4\n  0xffffffffffffffffffffffffffffffffffffffff\n  and\n  mul\n  or\n  swap1\n  sstore\n  pop\n    /* \"contracts/samples/transfer_to_contract.sol\":353:421  constructor(address token) {... */\n  pop\n    /* \"contracts/samples/transfer_to_contract.sol\":258:1199  contract TokenTransfer {... */\n  jump(tag_6)\n    /* \"#utility.yul\":88:205   */\ntag_8:\n    /* \"#utility.yul\":197:198   */\n  0x00\n    /* \"#utility.yul\":194:195   */\n  dup1\n    /* \"#utility.yul\":187:199   */\n  revert\n    /* \"#utility.yul\":334:460   */\ntag_10:\n    /* \"#utility.yul\":371:378   */\n  0x00\n    /* \"#utility.yul\":411:453   */\n  0xffffffffffffffffffffffffffffffffffffffff\n    /* \"#utility.yul\":404:409   */\n  dup3\n    /* \"#utility.yul\":400:454   */\n  and\n    /* \"#utility.yul\":389:454   */\n  swap1\n  pop\n    /* \"#utility.yul\":334:460   */\n  swap2\n  swap1\n  pop\n  jump\t// out\n    /* \"#utility.yul\":466:562   */\ntag_11:\n    /* \"#utility.yul\":503:510   */\n  0x00\n    /* \"#utility.yul\":532:556   */\n  tag_20\n    /* \"#utility.yul\":550:555   */\n  dup3\n    /* \"#utility.yul\":532:556   */\n  tag_10\n  jump\t// in\ntag_20:\n    /* \"#utility.yul\":521:556   */\n  swap1\n  pop\n    /* \"#utility.yul\":466:562   */\n  swap2\n  swap1\n  pop\n  jump\t// out\n    /* \"#utility.yul\":568:690   */\ntag_12:\n    /* \"#utility.yul\":641:665   */\n  tag_22\n    /* \"#utility.yul\":659:664   */\n  dup2\n    /* \"#utility.yul\":641:665   */\n  tag_11\n  jump\t// in\ntag_22:\n    /* \"#utility.yul\":634:639   */\n  dup2\n    /* \"#utility.yul\":631:666   */\n  eq\n    /* \"#utility.yul\":621:684   */\n  tag_23\n  jumpi\n    /* \"#utility.yul\":680:681   */\n  0x00\n    /* \"#utility.yul\":677:678   */\n  dup1\n    /* \"#utility.yul\":670:682   */\n  revert\n    /* \"#utility.yul\":621:684   */\ntag_23:\n    /* \"#utility.yul\":568:690   */\n  pop\n  jump\t// out\n    /* \"#utility.yul\":696:839   */\ntag_13:\n    /* \"#utility.yul\":753:758   */\n  0x00\n    /* \"#utility.yul\":784:790   */\n  dup2\n    /* \"#utility.yul\":778:791   */\n  mload\n    /* \"#utility.yul\":769:791   */\n  swap1\n  pop\n    /* \"#utility.yul\":800:833   */\n  tag_25\n    /* \"#utility.yul\":827:832   */\n  dup2\n    /* \"#utility.yul\":800:833   */\n  tag_12\n  jump\t// in\ntag_25:\n    /* \"#utility.yul\":696:839   */\n  swap3\n  swap2\n  pop\n  pop\n  jump\t// out\n    /* \"#utility.yul\":845:1196   */\ntag_3:\n    /* \"#utility.yul\":915:921   */\n  0x00\n    /* \"#utility.yul\":964:966   */\n  0x20\n    /* \"#utility.yul\":952:961   */\n  dup3\n    /* \"#utility.yul\":943:950   */\n  dup5\n    /* \"#utility.yul\":939:962   */\n  sub\n    /* \"#utility.yul\":935:967   */\n  slt\n    /* \"#utility.yul\":932:1051   */\n  iszero\n  tag_27\n  jumpi\n    /* \"#utility.yul\":970:1049   */\n  tag_28\n  tag_8\n  jump\t// in\ntag_28:\n    /* \"#utility.yul\":932:1051   */\ntag_27:\n    /* \"#utility.yul\":1090:1091   */\n  0x00\n    /* \"#utility.yul\":1115:1179   */\n  tag_29\n    /* \"#utility.yul\":1171:1178   */\n  dup5\n    /* \"#utility.yul\":1162:1168   */\n  dup3\n    /* \"#utility.yul\":1151:1160   */\n  dup6\n    /* \"#utility.yul\":1147:1169   */\n  add\n    /* \"#utility.yul\":1115:1179   */\n  tag_13\n  jump\t// in\ntag_29:\n    /* \"#utility.yul\":1105:1179   */\n  swap2\n  pop\n    /* \"#utility.yul\":1061:1189   */\n  pop\n    /* \"#utility.yul\":845:1196   */\n  swap3\n  swap2\n  pop\n  pop\n  jump\t// out\n    /* \"contracts/samples/transfer_to_contract.sol\":258:1199  contract TokenTransfer {... */\ntag_6:\n  dataSize(sub_0)\n  dup1\n  dataOffset(sub_0)\n  0x00\n  codecopy\n  0x00\n  return\nstop\n\nsub_0: assembly {\n        /* \"contracts/samples/transfer_to_contract.sol\":258:1199  contract TokenTransfer {... */\n      mstore(0x40, 0x80)\n      callvalue\n      dup1\n      iszero\n      tag_1\n      jumpi\n      0x00\n      dup1\n      revert\n    tag_1:\n      pop\n      jumpi(tag_2, lt(calldatasize, 0x04))\n      shr(0xe0, calldataload(0x00))\n      dup1\n      0x5145cbc0\n      eq\n      tag_3\n      jumpi\n      dup1\n      0xadc9772e\n      eq\n      tag_4\n      jumpi\n      dup1\n      0xdd49756e\n      eq\n      tag_5\n      jumpi\n    tag_2:\n      0x00\n      dup1\n      revert\n        /* \"contracts/samples/transfer_to_contract.sol\":1070:1190  function getSmartContractBalance() external view returns(uint) {... */\n    tag_3:\n      tag_6\n      tag_7\n      jump\t// in\n    tag_6:\n      mload(0x40)\n      tag_8\n      swap2\n      swap1\n      tag_9\n      jump\t// in\n    tag_8:\n      mload(0x40)\n      dup1\n      swap2\n      sub\n      swap1\n      return\n        /* \"contracts/samples/transfer_to_contract.sol\":902:995  function stake(address to, uint amount) public {... */\n    tag_4:\n      tag_10\n      0x04\n      dup1\n      calldatasize\n      sub\n      dup2\n      add\n      swap1\n      tag_11\n      swap2\n      swap1\n      tag_12\n      jump\t// in\n    tag_11:\n      tag_13\n      jump\t// in\n    tag_10:\n      stop\n        /* \"contracts/samples/transfer_to_contract.sol\":715:857  function depositTokens(uint _amount) public checkAllowance(_amount) {... */\n    tag_5:\n      tag_14\n      0x04\n      dup1\n      calldatasize\n      sub\n      dup2\n      add\n      swap1\n      tag_15\n      swap2\n      swap1\n      tag_16\n      jump\t// in\n    tag_15:\n      tag_17\n      jump\t// in\n    tag_14:\n      stop\n        /* \"contracts/samples/transfer_to_contract.sol\":1070:1190  function getSmartContractBalance() external view returns(uint) {... */\n    tag_7:\n        /* \"contracts/samples/transfer_to_contract.sol\":1127:1131  uint */\n      0x00\n        /* \"contracts/samples/transfer_to_contract.sol\":1151:1157  _token */\n      dup1\n      0x00\n      swap1\n      sload\n      swap1\n      0x0100\n      exp\n      swap1\n      div\n      0xffffffffffffffffffffffffffffffffffffffff\n      and\n        /* \"contracts/samples/transfer_to_contract.sol\":1151:1167  _token.balanceOf */\n      0xffffffffffffffffffffffffffffffffffffffff\n      and\n      0x70a08231\n        /* \"contracts/samples/transfer_to_contract.sol\":1176:1180  this */\n      address\n        /* \"contracts/samples/transfer_to_contract.sol\":1151:1182  _token.balanceOf(address(this)) */\n      mload(0x40)\n      dup3\n      0xffffffff\n      and\n      0xe0\n      shl\n      dup2\n      mstore\n      0x04\n      add\n      tag_19\n      swap2\n      swap1\n      tag_20\n      jump\t// in\n    tag_19:\n      0x20\n      mload(0x40)\n      dup1\n      dup4\n      sub\n      dup2\n      dup7\n      gas\n      staticcall\n      iszero\n      dup1\n      iszero\n      tag_22\n      jumpi\n      returndatasize\n      0x00\n      dup1\n      returndatacopy\n      revert(0x00, returndatasize)\n    tag_22:\n      pop\n      pop\n      pop\n      pop\n      mload(0x40)\n      returndatasize\n      not(0x1f)\n      0x1f\n      dup3\n      add\n      and\n      dup3\n      add\n      dup1\n      0x40\n      mstore\n      pop\n      dup2\n      add\n      swap1\n      tag_23\n      swap2\n      swap1\n      tag_24\n      jump\t// in\n    tag_23:\n        /* \"contracts/samples/transfer_to_contract.sol\":1144:1182  return _token.balanceOf(address(this)) */\n      swap1\n      pop\n        /* \"contracts/samples/transfer_to_contract.sol\":1070:1190  function getSmartContractBalance() external view returns(uint) {... */\n      swap1\n      jump\t// out\n        /* \"contracts/samples/transfer_to_contract.sol\":902:995  function stake(address to, uint amount) public {... */\n    tag_13:\n        /* \"contracts/samples/transfer_to_contract.sol\":960:966  _token */\n      0x00\n      dup1\n      sload\n      swap1\n      0x0100\n      exp\n      swap1\n      div\n      0xffffffffffffffffffffffffffffffffffffffff\n      and\n        /* \"contracts/samples/transfer_to_contract.sol\":960:975  _token.transfer */\n      0xffffffffffffffffffffffffffffffffffffffff\n      and\n      0xa9059cbb\n        /* \"contracts/samples/transfer_to_contract.sol\":976:978  to */\n      dup4\n        /* \"contracts/samples/transfer_to_contract.sol\":980:986  amount */\n      dup4\n        /* \"contracts/samples/transfer_to_contract.sol\":960:987  _token.transfer(to, amount) */\n      mload(0x40)\n      dup4\n      0xffffffff\n      and\n      0xe0\n      shl\n      dup2\n      mstore\n      0x04\n      add\n      tag_26\n      swap3\n      swap2\n      swap1\n      tag_27\n      jump\t// in\n    tag_26:\n      0x20\n      mload(0x40)\n      dup1\n      dup4\n      sub\n      dup2\n      0x00\n      dup8\n      gas\n      call\n      iszero\n      dup1\n      iszero\n      tag_29\n      jumpi\n      returndatasize\n      0x00\n      dup1\n      returndatacopy\n      revert(0x00, returndatasize)\n    tag_29:\n      pop\n      pop\n      pop\n      pop\n      mload(0x40)\n      returndatasize\n      not(0x1f)\n      0x1f\n      dup3\n      add\n      and\n      dup3\n      add\n      dup1\n      0x40\n      mstore\n      pop\n      dup2\n      add\n      swap1\n      tag_30\n      swap2\n      swap1\n      tag_31\n      jump\t// in\n    tag_30:\n      pop\n        /* \"contracts/samples/transfer_to_contract.sol\":902:995  function stake(address to, uint amount) public {... */\n      pop\n      pop\n      jump\t// out\n        /* \"contracts/samples/transfer_to_contract.sol\":715:857  function depositTokens(uint _amount) public checkAllowance(_amount) {... */\n    tag_17:\n        /* \"contracts/samples/transfer_to_contract.sol\":774:781  _amount */\n      dup1\n        /* \"contracts/samples/transfer_to_contract.sol\":574:580  amount */\n      dup1\n        /* \"contracts/samples/transfer_to_contract.sol\":527:533  _token */\n      0x00\n      dup1\n      sload\n      swap1\n      0x0100\n      exp\n      swap1\n      div\n      0xffffffffffffffffffffffffffffffffffffffff\n      and\n        /* \"contracts/samples/transfer_to_contract.sol\":527:543  _token.allowance */\n      0xffffffffffffffffffffffffffffffffffffffff\n      and\n      0xdd62ed3e\n        /* \"contracts/samples/transfer_to_contract.sol\":544:554  msg.sender */\n      caller\n        /* \"contracts/samples/transfer_to_contract.sol\":564:568  this */\n      address\n        /* \"contracts/samples/transfer_to_contract.sol\":527:570  _token.allowance(msg.sender, address(this)) */\n      mload(0x40)\n      dup4\n      0xffffffff\n      and\n      0xe0\n      shl\n      dup2\n      mstore\n      0x04\n      add\n      tag_33\n      swap3\n      swap2\n      swap1\n      tag_34\n      jump\t// in\n    tag_33:\n      0x20\n      mload(0x40)\n      dup1\n      dup4\n      sub\n      dup2\n      dup7\n      gas\n      staticcall\n      iszero\n      dup1\n      iszero\n      tag_36\n      jumpi\n      returndatasize\n      0x00\n      dup1\n      returndatacopy\n      revert(0x00, returndatasize)\n    tag_36:\n      pop\n      pop\n      pop\n      pop\n      mload(0x40)\n      returndatasize\n      not(0x1f)\n      0x1f\n      dup3\n      add\n      and\n      dup3\n      add\n      dup1\n      0x40\n      mstore\n      pop\n      dup2\n      add\n      swap1\n      tag_37\n      swap2\n      swap1\n      tag_24\n      jump\t// in\n    tag_37:\n        /* \"contracts/samples/transfer_to_contract.sol\":527:580  _token.allowance(msg.sender, address(this)) >= amount */\n      lt\n      iszero\n        /* \"contracts/samples/transfer_to_contract.sol\":519:590  require(_token.allowance(msg.sender, address(this)) >= amount, \"Error\") */\n      tag_38\n      jumpi\n      mload(0x40)\n      0x08c379a000000000000000000000000000000000000000000000000000000000\n      dup2\n      mstore\n      0x04\n      add\n      tag_39\n      swap1\n      tag_40\n      jump\t// in\n    tag_39:\n      mload(0x40)\n      dup1\n      swap2\n      sub\n      swap1\n      revert\n    tag_38:\n        /* \"contracts/samples/transfer_to_contract.sol\":794:800  _token */\n      0x00\n      dup1\n      sload\n      swap1\n      0x0100\n      exp\n      swap1\n      div\n      0xffffffffffffffffffffffffffffffffffffffff\n      and\n        /* \"contracts/samples/transfer_to_contract.sol\":794:813  _token.transferFrom */\n      0xffffffffffffffffffffffffffffffffffffffff\n      and\n      0x23b872dd\n        /* \"contracts/samples/transfer_to_contract.sol\":814:824  msg.sender */\n      caller\n        /* \"contracts/samples/transfer_to_contract.sol\":834:838  this */\n      address\n        /* \"contracts/samples/transfer_to_contract.sol\":841:848  _amount */\n      dup6\n        /* \"contracts/samples/transfer_to_contract.sol\":794:849  _token.transferFrom(msg.sender, address(this), _amount) */\n      mload(0x40)\n      dup5\n      0xffffffff\n      and\n      0xe0\n      shl\n      dup2\n      mstore\n      0x04\n      add\n      tag_42\n      swap4\n      swap3\n      swap2\n      swap1\n      tag_43\n      jump\t// in\n    tag_42:\n      0x20\n      mload(0x40)\n      dup1\n      dup4\n      sub\n      dup2\n      0x00\n      dup8\n      gas\n      call\n      iszero\n      dup1\n      iszero\n      tag_45\n      jumpi\n      returndatasize\n      0x00\n      dup1\n      returndatacopy\n      revert(0x00, returndatasize)\n    tag_45:\n      pop\n      pop\n      pop\n      pop\n      mload(0x40)\n      returndatasize\n      not(0x1f)\n      0x1f\n      dup3\n      add\n      and\n      dup3\n      add\n      dup1\n      0x40\n      mstore\n      pop\n      dup2\n      add\n      swap1\n      tag_46\n      swap2\n      swap1\n      tag_31\n      jump\t// in\n    tag_46:\n      pop\n        /* \"contracts/samples/transfer_to_contract.sol\":715:857  function depositTokens(uint _amount) public checkAllowance(_amount) {... */\n      pop\n      pop\n      jump\t// out\n        /* \"#utility.yul\":7:84   */\n    tag_47:\n        /* \"#utility.yul\":44:51   */\n      0x00\n        /* \"#utility.yul\":73:78   */\n      dup2\n        /* \"#utility.yul\":62:78   */\n      swap1\n      pop\n        /* \"#utility.yul\":7:84   */\n      swap2\n      swap1\n      pop\n      jump\t// out\n        /* \"#utility.yul\":90:208   */\n    tag_48:\n        /* \"#utility.yul\":177:201   */\n      tag_69\n        /* \"#utility.yul\":195:200   */\n      dup2\n        /* \"#utility.yul\":177:201   */\n      tag_47\n      jump\t// in\n    tag_69:\n        /* \"#utility.yul\":172:175   */\n      dup3\n        /* \"#utility.yul\":165:202   */\n      mstore\n        /* \"#utility.yul\":90:208   */\n      pop\n      pop\n      jump\t// out\n        /* \"#utility.yul\":214:436   */\n    tag_9:\n        /* \"#utility.yul\":307:311   */\n      0x00\n        /* \"#utility.yul\":345:347   */\n      0x20\n        /* \"#utility.yul\":334:343   */\n      dup3\n        /* \"#utility.yul\":330:348   */\n      add\n        /* \"#utility.yul\":322:348   */\n      swap1\n      pop\n        /* \"#utility.yul\":358:429   */\n      tag_71\n        /* \"#utility.yul\":426:427   */\n      0x00\n        /* \"#utility.yul\":415:424   */\n      dup4\n        /* \"#utility.yul\":411:428   */\n      add\n        /* \"#utility.yul\":402:408   */\n      dup5\n        /* \"#utility.yul\":358:429   */\n      tag_48\n      jump\t// in\n    tag_71:\n        /* \"#utility.yul\":214:436   */\n      swap3\n      swap2\n      pop\n      pop\n      jump\t// out\n        /* \"#utility.yul\":523:640   */\n    tag_50:\n        /* \"#utility.yul\":632:633   */\n      0x00\n        /* \"#utility.yul\":629:630   */\n      dup1\n        /* \"#utility.yul\":622:634   */\n      revert\n        /* \"#utility.yul\":769:895   */\n    tag_52:\n        /* \"#utility.yul\":806:813   */\n      0x00\n        /* \"#utility.yul\":846:888   */\n      0xffffffffffffffffffffffffffffffffffffffff\n        /* \"#utility.yul\":839:844   */\n      dup3\n        /* \"#utility.yul\":835:889   */\n      and\n        /* \"#utility.yul\":824:889   */\n      swap1\n      pop\n        /* \"#utility.yul\":769:895   */\n      swap2\n      swap1\n      pop\n      jump\t// out\n        /* \"#utility.yul\":901:997   */\n    tag_53:\n        /* \"#utility.yul\":938:945   */\n      0x00\n        /* \"#utility.yul\":967:991   */\n      tag_77\n        /* \"#utility.yul\":985:990   */\n      dup3\n        /* \"#utility.yul\":967:991   */\n      tag_52\n      jump\t// in\n    tag_77:\n        /* \"#utility.yul\":956:991   */\n      swap1\n      pop\n        /* \"#utility.yul\":901:997   */\n      swap2\n      swap1\n      pop\n      jump\t// out\n        /* \"#utility.yul\":1003:1125   */\n    tag_54:\n        /* \"#utility.yul\":1076:1100   */\n      tag_79\n        /* \"#utility.yul\":1094:1099   */\n      dup2\n        /* \"#utility.yul\":1076:1100   */\n      tag_53\n      jump\t// in\n    tag_79:\n        /* \"#utility.yul\":1069:1074   */\n      dup2\n        /* \"#utility.yul\":1066:1101   */\n      eq\n        /* \"#utility.yul\":1056:1119   */\n      tag_80\n      jumpi\n        /* \"#utility.yul\":1115:1116   */\n      0x00\n        /* \"#utility.yul\":1112:1113   */\n      dup1\n        /* \"#utility.yul\":1105:1117   */\n      revert\n        /* \"#utility.yul\":1056:1119   */\n    tag_80:\n        /* \"#utility.yul\":1003:1125   */\n      pop\n      jump\t// out\n        /* \"#utility.yul\":1131:1270   */\n    tag_55:\n        /* \"#utility.yul\":1177:1182   */\n      0x00\n        /* \"#utility.yul\":1215:1221   */\n      dup2\n        /* \"#utility.yul\":1202:1222   */\n      calldataload\n        /* \"#utility.yul\":1193:1222   */\n      swap1\n      pop\n        /* \"#utility.yul\":1231:1264   */\n      tag_82\n        /* \"#utility.yul\":1258:1263   */\n      dup2\n        /* \"#utility.yul\":1231:1264   */\n      tag_54\n      jump\t// in\n    tag_82:\n        /* \"#utility.yul\":1131:1270   */\n      swap3\n      swap2\n      pop\n      pop\n      jump\t// out\n        /* \"#utility.yul\":1276:1398   */\n    tag_56:\n        /* \"#utility.yul\":1349:1373   */\n      tag_84\n        /* \"#utility.yul\":1367:1372   */\n      dup2\n        /* \"#utility.yul\":1349:1373   */\n      tag_47\n      jump\t// in\n    tag_84:\n        /* \"#utility.yul\":1342:1347   */\n      dup2\n        /* \"#utility.yul\":1339:1374   */\n      eq\n        /* \"#utility.yul\":1329:1392   */\n      tag_85\n      jumpi\n        /* \"#utility.yul\":1388:1389   */\n      0x00\n        /* \"#utility.yul\":1385:1386   */\n      dup1\n        /* \"#utility.yul\":1378:1390   */\n      revert\n        /* \"#utility.yul\":1329:1392   */\n    tag_85:\n        /* \"#utility.yul\":1276:1398   */\n      pop\n      jump\t// out\n        /* \"#utility.yul\":1404:1543   */\n    tag_57:\n        /* \"#utility.yul\":1450:1455   */\n      0x00\n        /* \"#utility.yul\":1488:1494   */\n      dup2\n        /* \"#utility.yul\":1475:1495   */\n      calldataload\n        /* \"#utility.yul\":1466:1495   */\n      swap1\n      pop\n        /* \"#utility.yul\":1504:1537   */\n      tag_87\n        /* \"#utility.yul\":1531:1536   */\n      dup2\n        /* \"#utility.yul\":1504:1537   */\n      tag_56\n      jump\t// in\n    tag_87:\n        /* \"#utility.yul\":1404:1543   */\n      swap3\n      swap2\n      pop\n      pop\n      jump\t// out\n        /* \"#utility.yul\":1549:2023   */\n    tag_12:\n        /* \"#utility.yul\":1617:1623   */\n      0x00\n        /* \"#utility.yul\":1625:1631   */\n      dup1\n        /* \"#utility.yul\":1674:1676   */\n      0x40\n        /* \"#utility.yul\":1662:1671   */\n      dup4\n        /* \"#utility.yul\":1653:1660   */\n      dup6\n        /* \"#utility.yul\":1649:1672   */\n      sub\n        /* \"#utility.yul\":1645:1677   */\n      slt\n        /* \"#utility.yul\":1642:1761   */\n      iszero\n      tag_89\n      jumpi\n        /* \"#utility.yul\":1680:1759   */\n      tag_90\n      tag_50\n      jump\t// in\n    tag_90:\n        /* \"#utility.yul\":1642:1761   */\n    tag_89:\n        /* \"#utility.yul\":1800:1801   */\n      0x00\n        /* \"#utility.yul\":1825:1878   */\n      tag_91\n        /* \"#utility.yul\":1870:1877   */\n      dup6\n        /* \"#utility.yul\":1861:1867   */\n      dup3\n        /* \"#utility.yul\":1850:1859   */\n      dup7\n        /* \"#utility.yul\":1846:1868   */\n      add\n        /* \"#utility.yul\":1825:1878   */\n      tag_55\n      jump\t// in\n    tag_91:\n        /* \"#utility.yul\":1815:1878   */\n      swap3\n      pop\n        /* \"#utility.yul\":1771:1888   */\n      pop\n        /* \"#utility.yul\":1927:1929   */\n      0x20\n        /* \"#utility.yul\":1953:2006   */\n      tag_92\n        /* \"#utility.yul\":1998:2005   */\n      dup6\n        /* \"#utility.yul\":1989:1995   */\n      dup3\n        /* \"#utility.yul\":1978:1987   */\n      dup7\n        /* \"#utility.yul\":1974:1996   */\n      add\n        /* \"#utility.yul\":1953:2006   */\n      tag_57\n      jump\t// in\n    tag_92:\n        /* \"#utility.yul\":1943:2006   */\n      swap2\n      pop\n        /* \"#utility.yul\":1898:2016   */\n      pop\n        /* \"#utility.yul\":1549:2023   */\n      swap3\n      pop\n      swap3\n      swap1\n      pop\n      jump\t// out\n        /* \"#utility.yul\":2029:2358   */\n    tag_16:\n        /* \"#utility.yul\":2088:2094   */\n      0x00\n        /* \"#utility.yul\":2137:2139   */\n      0x20\n        /* \"#utility.yul\":2125:2134   */\n      dup3\n        /* \"#utility.yul\":2116:2123   */\n      dup5\n        /* \"#utility.yul\":2112:2135   */\n      sub\n        /* \"#utility.yul\":2108:2140   */\n      slt\n        /* \"#utility.yul\":2105:2224   */\n      iszero\n      tag_94\n      jumpi\n        /* \"#utility.yul\":2143:2222   */\n      tag_95\n      tag_50\n      jump\t// in\n    tag_95:\n        /* \"#utility.yul\":2105:2224   */\n    tag_94:\n        /* \"#utility.yul\":2263:2264   */\n      0x00\n        /* \"#utility.yul\":2288:2341   */\n      tag_96\n        /* \"#utility.yul\":2333:2340   */\n      dup5\n        /* \"#utility.yul\":2324:2330   */\n      dup3\n        /* \"#utility.yul\":2313:2322   */\n      dup6\n        /* \"#utility.yul\":2309:2331   */\n      add\n        /* \"#utility.yul\":2288:2341   */\n      tag_57\n      jump\t// in\n    tag_96:\n        /* \"#utility.yul\":2278:2341   */\n      swap2\n      pop\n        /* \"#utility.yul\":2234:2351   */\n      pop\n        /* \"#utility.yul\":2029:2358   */\n      swap3\n      swap2\n      pop\n      pop\n      jump\t// out\n        /* \"#utility.yul\":2364:2482   */\n    tag_58:\n        /* \"#utility.yul\":2451:2475   */\n      tag_98\n        /* \"#utility.yul\":2469:2474   */\n      dup2\n        /* \"#utility.yul\":2451:2475   */\n      tag_53\n      jump\t// in\n    tag_98:\n        /* \"#utility.yul\":2446:2449   */\n      dup3\n        /* \"#utility.yul\":2439:2476   */\n      mstore\n        /* \"#utility.yul\":2364:2482   */\n      pop\n      pop\n      jump\t// out\n        /* \"#utility.yul\":2488:2710   */\n    tag_20:\n        /* \"#utility.yul\":2581:2585   */\n      0x00\n        /* \"#utility.yul\":2619:2621   */\n      0x20\n        /* \"#utility.yul\":2608:2617   */\n      dup3\n        /* \"#utility.yul\":2604:2622   */\n      add\n        /* \"#utility.yul\":2596:2622   */\n      swap1\n      pop\n        /* \"#utility.yul\":2632:2703   */\n      tag_100\n        /* \"#utility.yul\":2700:2701   */\n      0x00\n        /* \"#utility.yul\":2689:2698   */\n      dup4\n        /* \"#utility.yul\":2685:2702   */\n      add\n        /* \"#utility.yul\":2676:2682   */\n      dup5\n        /* \"#utility.yul\":2632:2703   */\n      tag_58\n      jump\t// in\n    tag_100:\n        /* \"#utility.yul\":2488:2710   */\n      swap3\n      swap2\n      pop\n      pop\n      jump\t// out\n        /* \"#utility.yul\":2716:2859   */\n    tag_59:\n        /* \"#utility.yul\":2773:2778   */\n      0x00\n        /* \"#utility.yul\":2804:2810   */\n      dup2\n        /* \"#utility.yul\":2798:2811   */\n      mload\n        /* \"#utility.yul\":2789:2811   */\n      swap1\n      pop\n        /* \"#utility.yul\":2820:2853   */\n      tag_102\n        /* \"#utility.yul\":2847:2852   */\n      dup2\n        /* \"#utility.yul\":2820:2853   */\n      tag_56\n      jump\t// in\n    tag_102:\n        /* \"#utility.yul\":2716:2859   */\n      swap3\n      swap2\n      pop\n      pop\n      jump\t// out\n        /* \"#utility.yul\":2865:3216   */\n    tag_24:\n        /* \"#utility.yul\":2935:2941   */\n      0x00\n        /* \"#utility.yul\":2984:2986   */\n      0x20\n        /* \"#utility.yul\":2972:2981   */\n      dup3\n        /* \"#utility.yul\":2963:2970   */\n      dup5\n        /* \"#utility.yul\":2959:2982   */\n      sub\n        /* \"#utility.yul\":2955:2987   */\n      slt\n        /* \"#utility.yul\":2952:3071   */\n      iszero\n      tag_104\n      jumpi\n        /* \"#utility.yul\":2990:3069   */\n      tag_105\n      tag_50\n      jump\t// in\n    tag_105:\n        /* \"#utility.yul\":2952:3071   */\n    tag_104:\n        /* \"#utility.yul\":3110:3111   */\n      0x00\n        /* \"#utility.yul\":3135:3199   */\n      tag_106\n        /* \"#utility.yul\":3191:3198   */\n      dup5\n        /* \"#utility.yul\":3182:3188   */\n      dup3\n        /* \"#utility.yul\":3171:3180   */\n      dup6\n        /* \"#utility.yul\":3167:3189   */\n      add\n        /* \"#utility.yul\":3135:3199   */\n      tag_59\n      jump\t// in\n    tag_106:\n        /* \"#utility.yul\":3125:3199   */\n      swap2\n      pop\n        /* \"#utility.yul\":3081:3209   */\n      pop\n        /* \"#utility.yul\":2865:3216   */\n      swap3\n      swap2\n      pop\n      pop\n      jump\t// out\n        /* \"#utility.yul\":3222:3554   */\n    tag_27:\n        /* \"#utility.yul\":3343:3347   */\n      0x00\n        /* \"#utility.yul\":3381:3383   */\n      0x40\n        /* \"#utility.yul\":3370:3379   */\n      dup3\n        /* \"#utility.yul\":3366:3384   */\n      add\n        /* \"#utility.yul\":3358:3384   */\n      swap1\n      pop\n        /* \"#utility.yul\":3394:3465   */\n      tag_108\n        /* \"#utility.yul\":3462:3463   */\n      0x00\n        /* \"#utility.yul\":3451:3460   */\n      dup4\n        /* \"#utility.yul\":3447:3464   */\n      add\n        /* \"#utility.yul\":3438:3444   */\n      dup6\n        /* \"#utility.yul\":3394:3465   */\n      tag_58\n      jump\t// in\n    tag_108:\n        /* \"#utility.yul\":3475:3547   */\n      tag_109\n        /* \"#utility.yul\":3543:3545   */\n      0x20\n        /* \"#utility.yul\":3532:3541   */\n      dup4\n        /* \"#utility.yul\":3528:3546   */\n      add\n        /* \"#utility.yul\":3519:3525   */\n      dup5\n        /* \"#utility.yul\":3475:3547   */\n      tag_48\n      jump\t// in\n    tag_109:\n        /* \"#utility.yul\":3222:3554   */\n      swap4\n      swap3\n      pop\n      pop\n      pop\n      jump\t// out\n        /* \"#utility.yul\":3560:3650   */\n    tag_60:\n        /* \"#utility.yul\":3594:3601   */\n      0x00\n        /* \"#utility.yul\":3637:3642   */\n      dup2\n        /* \"#utility.yul\":3630:3643   */\n      iszero\n        /* \"#utility.yul\":3623:3644   */\n      iszero\n        /* \"#utility.yul\":3612:3644   */\n      swap1\n      pop\n        /* \"#utility.yul\":3560:3650   */\n      swap2\n      swap1\n      pop\n      jump\t// out\n        /* \"#utility.yul\":3656:3772   */\n    tag_61:\n        /* \"#utility.yul\":3726:3747   */\n      tag_112\n        /* \"#utility.yul\":3741:3746   */\n      dup2\n        /* \"#utility.yul\":3726:3747   */\n      tag_60\n      jump\t// in\n    tag_112:\n        /* \"#utility.yul\":3719:3724   */\n      dup2\n        /* \"#utility.yul\":3716:3748   */\n      eq\n        /* \"#utility.yul\":3706:3766   */\n      tag_113\n      jumpi\n        /* \"#utility.yul\":3762:3763   */\n      0x00\n        /* \"#utility.yul\":3759:3760   */\n      dup1\n        /* \"#utility.yul\":3752:3764   */\n      revert\n        /* \"#utility.yul\":3706:3766   */\n    tag_113:\n        /* \"#utility.yul\":3656:3772   */\n      pop\n      jump\t// out\n        /* \"#utility.yul\":3778:3915   */\n    tag_62:\n        /* \"#utility.yul\":3832:3837   */\n      0x00\n        /* \"#utility.yul\":3863:3869   */\n      dup2\n        /* \"#utility.yul\":3857:3870   */\n      mload\n        /* \"#utility.yul\":3848:3870   */\n      swap1\n      pop\n        /* \"#utility.yul\":3879:3909   */\n      tag_115\n        /* \"#utility.yul\":3903:3908   */\n      dup2\n        /* \"#utility.yul\":3879:3909   */\n      tag_61\n      jump\t// in\n    tag_115:\n        /* \"#utility.yul\":3778:3915   */\n      swap3\n      swap2\n      pop\n      pop\n      jump\t// out\n        /* \"#utility.yul\":3921:4266   */\n    tag_31:\n        /* \"#utility.yul\":3988:3994   */\n      0x00\n        /* \"#utility.yul\":4037:4039   */\n      0x20\n        /* \"#utility.yul\":4025:4034   */\n      dup3\n        /* \"#utility.yul\":4016:4023   */\n      dup5\n        /* \"#utility.yul\":4012:4035   */\n      sub\n        /* \"#utility.yul\":4008:4040   */\n      slt\n        /* \"#utility.yul\":4005:4124   */\n      iszero\n      tag_117\n      jumpi\n        /* \"#utility.yul\":4043:4122   */\n      tag_118\n      tag_50\n      jump\t// in\n    tag_118:\n        /* \"#utility.yul\":4005:4124   */\n    tag_117:\n        /* \"#utility.yul\":4163:4164   */\n      0x00\n        /* \"#utility.yul\":4188:4249   */\n      tag_119\n        /* \"#utility.yul\":4241:4248   */\n      dup5\n        /* \"#utility.yul\":4232:4238   */\n      dup3\n        /* \"#utility.yul\":4221:4230   */\n      dup6\n        /* \"#utility.yul\":4217:4239   */\n      add\n        /* \"#utility.yul\":4188:4249   */\n      tag_62\n      jump\t// in\n    tag_119:\n        /* \"#utility.yul\":4178:4249   */\n      swap2\n      pop\n        /* \"#utility.yul\":4134:4259   */\n      pop\n        /* \"#utility.yul\":3921:4266   */\n      swap3\n      swap2\n      pop\n      pop\n      jump\t// out\n        /* \"#utility.yul\":4272:4604   */\n    tag_34:\n        /* \"#utility.yul\":4393:4397   */\n      0x00\n        /* \"#utility.yul\":4431:4433   */\n      0x40\n        /* \"#utility.yul\":4420:4429   */\n      dup3\n        /* \"#utility.yul\":4416:4434   */\n      add\n        /* \"#utility.yul\":4408:4434   */\n      swap1\n      pop\n        /* \"#utility.yul\":4444:4515   */\n      tag_121\n        /* \"#utility.yul\":4512:4513   */\n      0x00\n        /* \"#utility.yul\":4501:4510   */\n      dup4\n        /* \"#utility.yul\":4497:4514   */\n      add\n        /* \"#utility.yul\":4488:4494   */\n      dup6\n        /* \"#utility.yul\":4444:4515   */\n      tag_58\n      jump\t// in\n    tag_121:\n        /* \"#utility.yul\":4525:4597   */\n      tag_122\n        /* \"#utility.yul\":4593:4595   */\n      0x20\n        /* \"#utility.yul\":4582:4591   */\n      dup4\n        /* \"#utility.yul\":4578:4596   */\n      add\n        /* \"#utility.yul\":4569:4575   */\n      dup5\n        /* \"#utility.yul\":4525:4597   */\n      tag_58\n      jump\t// in\n    tag_122:\n        /* \"#utility.yul\":4272:4604   */\n      swap4\n      swap3\n      pop\n      pop\n      pop\n      jump\t// out\n        /* \"#utility.yul\":4610:4779   */\n    tag_63:\n        /* \"#utility.yul\":4694:4705   */\n      0x00\n        /* \"#utility.yul\":4728:4734   */\n      dup3\n        /* \"#utility.yul\":4723:4726   */\n      dup3\n        /* \"#utility.yul\":4716:4735   */\n      mstore\n        /* \"#utility.yul\":4768:4772   */\n      0x20\n        /* \"#utility.yul\":4763:4766   */\n      dup3\n        /* \"#utility.yul\":4759:4773   */\n      add\n        /* \"#utility.yul\":4744:4773   */\n      swap1\n      pop\n        /* \"#utility.yul\":4610:4779   */\n      swap3\n      swap2\n      pop\n      pop\n      jump\t// out\n        /* \"#utility.yul\":4785:4940   */\n    tag_64:\n        /* \"#utility.yul\":4925:4932   */\n      0x4572726f72000000000000000000000000000000000000000000000000000000\n        /* \"#utility.yul\":4921:4922   */\n      0x00\n        /* \"#utility.yul\":4913:4919   */\n      dup3\n        /* \"#utility.yul\":4909:4923   */\n      add\n        /* \"#utility.yul\":4902:4933   */\n      mstore\n        /* \"#utility.yul\":4785:4940   */\n      pop\n      jump\t// out\n        /* \"#utility.yul\":4946:5311   */\n    tag_65:\n        /* \"#utility.yul\":5088:5091   */\n      0x00\n        /* \"#utility.yul\":5109:5175   */\n      tag_126\n        /* \"#utility.yul\":5173:5174   */\n      0x05\n        /* \"#utility.yul\":5168:5171   */\n      dup4\n        /* \"#utility.yul\":5109:5175   */\n      tag_63\n      jump\t// in\n    tag_126:\n        /* \"#utility.yul\":5102:5175   */\n      swap2\n      pop\n        /* \"#utility.yul\":5184:5277   */\n      tag_127\n        /* \"#utility.yul\":5273:5276   */\n      dup3\n        /* \"#utility.yul\":5184:5277   */\n      tag_64\n      jump\t// in\n    tag_127:\n        /* \"#utility.yul\":5302:5304   */\n      0x20\n        /* \"#utility.yul\":5297:5300   */\n      dup3\n        /* \"#utility.yul\":5293:5305   */\n      add\n        /* \"#utility.yul\":5286:5305   */\n      swap1\n      pop\n        /* \"#utility.yul\":4946:5311   */\n      swap2\n      swap1\n      pop\n      jump\t// out\n        /* \"#utility.yul\":5317:5736   */\n    tag_40:\n        /* \"#utility.yul\":5483:5487   */\n      0x00\n        /* \"#utility.yul\":5521:5523   */\n      0x20\n        /* \"#utility.yul\":5510:5519   */\n      dup3\n        /* \"#utility.yul\":5506:5524   */\n      add\n        /* \"#utility.yul\":5498:5524   */\n      swap1\n      pop\n        /* \"#utility.yul\":5570:5579   */\n      dup2\n        /* \"#utility.yul\":5564:5568   */\n      dup2\n        /* \"#utility.yul\":5560:5580   */\n      sub\n        /* \"#utility.yul\":5556:5557   */\n      0x00\n        /* \"#utility.yul\":5545:5554   */\n      dup4\n        /* \"#utility.yul\":5541:5558   */\n      add\n        /* \"#utility.yul\":5534:5581   */\n      mstore\n        /* \"#utility.yul\":5598:5729   */\n      tag_129\n        /* \"#utility.yul\":5724:5728   */\n      dup2\n        /* \"#utility.yul\":5598:5729   */\n      tag_65\n      jump\t// in\n    tag_129:\n        /* \"#utility.yul\":5590:5729   */\n      swap1\n      pop\n        /* \"#utility.yul\":5317:5736   */\n      swap2\n      swap1\n      pop\n      jump\t// out\n        /* \"#utility.yul\":5742:6184   */\n    tag_43:\n        /* \"#utility.yul\":5891:5895   */\n      0x00\n        /* \"#utility.yul\":5929:5931   */\n      0x60\n        /* \"#utility.yul\":5918:5927   */\n      dup3\n        /* \"#utility.yul\":5914:5932   */\n      add\n        /* \"#utility.yul\":5906:5932   */\n      swap1\n      pop\n        /* \"#utility.yul\":5942:6013   */\n      tag_131\n        /* \"#utility.yul\":6010:6011   */\n      0x00\n        /* \"#utility.yul\":5999:6008   */\n      dup4\n        /* \"#utility.yul\":5995:6012   */\n      add\n        /* \"#utility.yul\":5986:5992   */\n      dup7\n        /* \"#utility.yul\":5942:6013   */\n      tag_58\n      jump\t// in\n    tag_131:\n        /* \"#utility.yul\":6023:6095   */\n      tag_132\n        /* \"#utility.yul\":6091:6093   */\n      0x20\n        /* \"#utility.yul\":6080:6089   */\n      dup4\n        /* \"#utility.yul\":6076:6094   */\n      add\n        /* \"#utility.yul\":6067:6073   */\n      dup6\n        /* \"#utility.yul\":6023:6095   */\n      tag_58\n      jump\t// in\n    tag_132:\n        /* \"#utility.yul\":6105:6177   */\n      tag_133\n        /* \"#utility.yul\":6173:6175   */\n      0x40\n        /* \"#utility.yul\":6162:6171   */\n      dup4\n        /* \"#utility.yul\":6158:6176   */\n      add\n        /* \"#utility.yul\":6149:6155   */\n      dup5\n        /* \"#utility.yul\":6105:6177   */\n      tag_48\n      jump\t// in\n    tag_133:\n        /* \"#utility.yul\":5742:6184   */\n      swap5\n      swap4\n      pop\n      pop\n      pop\n      pop\n      jump\t// out\n\n    auxdata: 0xa2646970667358221220f7feb14cb9ff9b8b2d31aa1e142ce034712c2b574d3a6198c3daf3d68dec1ba964736f6c63430008140033\n}\n",
				"bytecode": {
					"linkReferences": {},
					"object": "608060405234801561000f575f80fd5b50604051610779380380610779833981810160405281019061003191906100d4565b805f806101000a81548173ffffffffffffffffffffffffffffffffffffffff021916908373ffffffffffffffffffffffffffffffffffffffff160217905550506100ff565b5f80fd5b5f73ffffffffffffffffffffffffffffffffffffffff82169050919050565b5f6100a38261007a565b9050919050565b6100b381610099565b81146100bd575f80fd5b50565b5f815190506100ce816100aa565b92915050565b5f602082840312156100e9576100e8610076565b5b5f6100f6848285016100c0565b91505092915050565b61066d8061010c5f395ff3fe608060405234801561000f575f80fd5b506004361061003f575f3560e01c80635145cbc014610043578063adc9772e14610061578063dd49756e1461007d575b5f80fd5b61004b610099565b604051610058919061036b565b60405180910390f35b61007b6004803603810190610076919061040c565b610137565b005b6100976004803603810190610092919061044a565b6101d6565b005b5f805f9054906101000a900473ffffffffffffffffffffffffffffffffffffffff1673ffffffffffffffffffffffffffffffffffffffff166370a08231306040518263ffffffff1660e01b81526004016100f39190610484565b602060405180830381865afa15801561010e573d5f803e3d5ffd5b505050506040513d601f19601f8201168201806040525081019061013291906104b1565b905090565b5f8054906101000a900473ffffffffffffffffffffffffffffffffffffffff1673ffffffffffffffffffffffffffffffffffffffff1663a9059cbb83836040518363ffffffff1660e01b81526004016101919291906104dc565b6020604051808303815f875af11580156101ad573d5f803e3d5ffd5b505050506040513d601f19601f820116820180604052508101906101d19190610538565b505050565b80805f8054906101000a900473ffffffffffffffffffffffffffffffffffffffff1673ffffffffffffffffffffffffffffffffffffffff1663dd62ed3e33306040518363ffffffff1660e01b8152600401610232929190610563565b602060405180830381865afa15801561024d573d5f803e3d5ffd5b505050506040513d601f19601f8201168201806040525081019061027191906104b1565b10156102b2576040517f08c379a00000000000000000000000000000000000000000000000000000000081526004016102a9906105e4565b60405180910390fd5b5f8054906101000a900473ffffffffffffffffffffffffffffffffffffffff1673ffffffffffffffffffffffffffffffffffffffff166323b872dd3330856040518463ffffffff1660e01b815260040161030e93929190610602565b6020604051808303815f875af115801561032a573d5f803e3d5ffd5b505050506040513d601f19601f8201168201806040525081019061034e9190610538565b505050565b5f819050919050565b61036581610353565b82525050565b5f60208201905061037e5f83018461035c565b92915050565b5f80fd5b5f73ffffffffffffffffffffffffffffffffffffffff82169050919050565b5f6103b182610388565b9050919050565b6103c1816103a7565b81146103cb575f80fd5b50565b5f813590506103dc816103b8565b92915050565b6103eb81610353565b81146103f5575f80fd5b50565b5f81359050610406816103e2565b92915050565b5f806040838503121561042257610421610384565b5b5f61042f858286016103ce565b9250506020610440858286016103f8565b9150509250929050565b5f6020828403121561045f5761045e610384565b5b5f61046c848285016103f8565b91505092915050565b61047e816103a7565b82525050565b5f6020820190506104975f830184610475565b92915050565b5f815190506104ab816103e2565b92915050565b5f602082840312156104c6576104c5610384565b5b5f6104d38482850161049d565b91505092915050565b5f6040820190506104ef5f830185610475565b6104fc602083018461035c565b9392505050565b5f8115159050919050565b61051781610503565b8114610521575f80fd5b50565b5f815190506105328161050e565b92915050565b5f6020828403121561054d5761054c610384565b5b5f61055a84828501610524565b91505092915050565b5f6040820190506105765f830185610475565b6105836020830184610475565b9392505050565b5f82825260208201905092915050565b7f4572726f720000000000000000000000000000000000000000000000000000005f82015250565b5f6105ce60058361058a565b91506105d98261059a565b602082019050919050565b5f6020820190508181035f8301526105fb816105c2565b9050919050565b5f6060820190506106155f830186610475565b6106226020830185610475565b61062f604083018461035c565b94935050505056fea2646970667358221220f7feb14cb9ff9b8b2d31aa1e142ce034712c2b574d3a6198c3daf3d68dec1ba964736f6c63430008140033",
					"opcodes": "PUSH1 0x80 PUSH1 0x40 MSTORE CALLVALUE DUP1 ISZERO PUSH2 0xF JUMPI PUSH0 DUP1 REVERT JUMPDEST POP PUSH1 0x40 MLOAD PUSH2 0x779 CODESIZE SUB DUP1 PUSH2 0x779 DUP4 CODECOPY DUP2 DUP2 ADD PUSH1 0x40 MSTORE DUP2 ADD SWAP1 PUSH2 0x31 SWAP2 SWAP1 PUSH2 0xD4 JUMP JUMPDEST DUP1 PUSH0 DUP1 PUSH2 0x100 EXP DUP2 SLOAD DUP2 PUSH20 0xFFFFFFFFFFFFFFFFFFFFFFFFFFFFFFFFFFFFFFFF MUL NOT AND SWAP1 DUP4 PUSH20 0xFFFFFFFFFFFFFFFFFFFFFFFFFFFFFFFFFFFFFFFF AND MUL OR SWAP1 SSTORE POP POP PUSH2 0xFF JUMP JUMPDEST PUSH0 DUP1 REVERT JUMPDEST PUSH0 PUSH20 0xFFFFFFFFFFFFFFFFFFFFFFFFFFFFFFFFFFFFFFFF DUP3 AND SWAP1 POP SWAP2 SWAP1 POP JUMP JUMPDEST PUSH0 PUSH2 0xA3 DUP3 PUSH2 0x7A JUMP JUMPDEST SWAP1 POP SWAP2 SWAP1 POP JUMP JUMPDEST PUSH2 0xB3 DUP2 PUSH2 0x99 JUMP JUMPDEST DUP2 EQ PUSH2 0xBD JUMPI PUSH0 DUP1 REVERT JUMPDEST POP JUMP JUMPDEST PUSH0 DUP2 MLOAD SWAP1 POP PUSH2 0xCE DUP2 PUSH2 0xAA JUMP JUMPDEST SWAP3 SWAP2 POP POP JUMP JUMPDEST PUSH0 PUSH1 0x20 DUP3 DUP5 SUB SLT ISZERO PUSH2 0xE9 JUMPI PUSH2 0xE8 PUSH2 0x76 JUMP JUMPDEST JUMPDEST PUSH0 PUSH2 0xF6 DUP5 DUP3 DUP6 ADD PUSH2 0xC0 JUMP JUMPDEST SWAP2 POP POP SWAP3 SWAP2 POP POP JUMP JUMPDEST PUSH2 0x66D DUP1 PUSH2 0x10C PUSH0 CODECOPY PUSH0 RETURN INVALID PUSH1 0x80 PUSH1 0x40 MSTORE CALLVALUE DUP1 ISZERO PUSH2 0xF JUMPI PUSH0 DUP1 REVERT JUMPDEST POP PUSH1 0x4 CALLDATASIZE LT PUSH2 0x3F JUMPI PUSH0 CALLDATALOAD PUSH1 0xE0 SHR DUP1 PUSH4 0x5145CBC0 EQ PUSH2 0x43 JUMPI DUP1 PUSH4 0xADC9772E EQ PUSH2 0x61 JUMPI DUP1 PUSH4 0xDD49756E EQ PUSH2 0x7D JUMPI JUMPDEST PUSH0 DUP1 REVERT JUMPDEST PUSH2 0x4B PUSH2 0x99 JUMP JUMPDEST PUSH1 0x40 MLOAD PUSH2 0x58 SWAP2 SWAP1 PUSH2 0x36B JUMP JUMPDEST PUSH1 0x40 MLOAD DUP1 SWAP2 SUB SWAP1 RETURN JUMPDEST PUSH2 0x7B PUSH1 0x4 DUP1 CALLDATASIZE SUB DUP2 ADD SWAP1 PUSH2 0x76 SWAP2 SWAP1 PUSH2 0x40C JUMP JUMPDEST PUSH2 0x137 JUMP JUMPDEST STOP JUMPDEST PUSH2 0x97 PUSH1 0x4 DUP1 CALLDATASIZE SUB DUP2 ADD SWAP1 PUSH2 0x92 SWAP2 SWAP1 PUSH2 0x44A JUMP JUMPDEST PUSH2 0x1D6 JUMP JUMPDEST STOP JUMPDEST PUSH0 DUP1 PUSH0 SWAP1 SLOAD SWAP1 PUSH2 0x100 EXP SWAP1 DIV PUSH20 0xFFFFFFFFFFFFFFFFFFFFFFFFFFFFFFFFFFFFFFFF AND PUSH20 0xFFFFFFFFFFFFFFFFFFFFFFFFFFFFFFFFFFFFFFFF AND PUSH4 0x70A08231 ADDRESS PUSH1 0x40 MLOAD DUP3 PUSH4 0xFFFFFFFF AND PUSH1 0xE0 SHL DUP2 MSTORE PUSH1 0x4 ADD PUSH2 0xF3 SWAP2 SWAP1 PUSH2 0x484 JUMP JUMPDEST PUSH1 0x20 PUSH1 0x40 MLOAD DUP1 DUP4 SUB DUP2 DUP7 GAS STATICCALL ISZERO DUP1 ISZERO PUSH2 0x10E JUMPI RETURNDATASIZE PUSH0 DUP1 RETURNDATACOPY RETURNDATASIZE PUSH0 REVERT JUMPDEST POP POP POP POP PUSH1 0x40 MLOAD RETURNDATASIZE PUSH1 0x1F NOT PUSH1 0x1F DUP3 ADD AND DUP3 ADD DUP1 PUSH1 0x40 MSTORE POP DUP2 ADD SWAP1 PUSH2 0x132 SWAP2 SWAP1 PUSH2 0x4B1 JUMP JUMPDEST SWAP1 POP SWAP1 JUMP JUMPDEST PUSH0 DUP1 SLOAD SWAP1 PUSH2 0x100 EXP SWAP1 DIV PUSH20 0xFFFFFFFFFFFFFFFFFFFFFFFFFFFFFFFFFFFFFFFF AND PUSH20 0xFFFFFFFFFFFFFFFFFFFFFFFFFFFFFFFFFFFFFFFF AND PUSH4 0xA9059CBB DUP4 DUP4 PUSH1 0x40 MLOAD DUP4 PUSH4 0xFFFFFFFF AND PUSH1 0xE0 SHL DUP2 MSTORE PUSH1 0x4 ADD PUSH2 0x191 SWAP3 SWAP2 SWAP1 PUSH2 0x4DC JUMP JUMPDEST PUSH1 0x20 PUSH1 0x40 MLOAD DUP1 DUP4 SUB DUP2 PUSH0 DUP8 GAS CALL ISZERO DUP1 ISZERO PUSH2 0x1AD JUMPI RETURNDATASIZE PUSH0 DUP1 RETURNDATACOPY RETURNDATASIZE PUSH0 REVERT JUMPDEST POP POP POP POP PUSH1 0x40 MLOAD RETURNDATASIZE PUSH1 0x1F NOT PUSH1 0x1F DUP3 ADD AND DUP3 ADD DUP1 PUSH1 0x40 MSTORE POP DUP2 ADD SWAP1 PUSH2 0x1D1 SWAP2 SWAP1 PUSH2 0x538 JUMP JUMPDEST POP POP POP JUMP JUMPDEST DUP1 DUP1 PUSH0 DUP1 SLOAD SWAP1 PUSH2 0x100 EXP SWAP1 DIV PUSH20 0xFFFFFFFFFFFFFFFFFFFFFFFFFFFFFFFFFFFFFFFF AND PUSH20 0xFFFFFFFFFFFFFFFFFFFFFFFFFFFFFFFFFFFFFFFF AND PUSH4 0xDD62ED3E CALLER ADDRESS PUSH1 0x40 MLOAD DUP4 PUSH4 0xFFFFFFFF AND PUSH1 0xE0 SHL DUP2 MSTORE PUSH1 0x4 ADD PUSH2 0x232 SWAP3 SWAP2 SWAP1 PUSH2 0x563 JUMP JUMPDEST PUSH1 0x20 PUSH1 0x40 MLOAD DUP1 DUP4 SUB DUP2 DUP7 GAS STATICCALL ISZERO DUP1 ISZERO PUSH2 0x24D JUMPI RETURNDATASIZE PUSH0 DUP1 RETURNDATACOPY RETURNDATASIZE PUSH0 REVERT JUMPDEST POP POP POP POP PUSH1 0x40 MLOAD RETURNDATASIZE PUSH1 0x1F NOT PUSH1 0x1F DUP3 ADD AND DUP3 ADD DUP1 PUSH1 0x40 MSTORE POP DUP2 ADD SWAP1 PUSH2 0x271 SWAP2 SWAP1 PUSH2 0x4B1 JUMP JUMPDEST LT ISZERO PUSH2 0x2B2 JUMPI PUSH1 0x40 MLOAD PUSH32 0x8C379A000000000000000000000000000000000000000000000000000000000 DUP2 MSTORE PUSH1 0x4 ADD PUSH2 0x2A9 SWAP1 PUSH2 0x5E4 JUMP JUMPDEST PUSH1 0x40 MLOAD DUP1 SWAP2 SUB SWAP1 REVERT JUMPDEST PUSH0 DUP1 SLOAD SWAP1 PUSH2 0x100 EXP SWAP1 DIV PUSH20 0xFFFFFFFFFFFFFFFFFFFFFFFFFFFFFFFFFFFFFFFF AND PUSH20 0xFFFFFFFFFFFFFFFFFFFFFFFFFFFFFFFFFFFFFFFF AND PUSH4 0x23B872DD CALLER ADDRESS DUP6 PUSH1 0x40 MLOAD DUP5 PUSH4 0xFFFFFFFF AND PUSH1 0xE0 SHL DUP2 MSTORE PUSH1 0x4 ADD PUSH2 0x30E SWAP4 SWAP3 SWAP2 SWAP1 PUSH2 0x602 JUMP JUMPDEST PUSH1 0x20 PUSH1 0x40 MLOAD DUP1 DUP4 SUB DUP2 PUSH0 DUP8 GAS CALL ISZERO DUP1 ISZERO PUSH2 0x32A JUMPI RETURNDATASIZE PUSH0 DUP1 RETURNDATACOPY RETURNDATASIZE PUSH0 REVERT JUMPDEST POP POP POP POP PUSH1 0x40 MLOAD RETURNDATASIZE PUSH1 0x1F NOT PUSH1 0x1F DUP3 ADD AND DUP3 ADD DUP1 PUSH1 0x40 MSTORE POP DUP2 ADD SWAP1 PUSH2 0x34E SWAP2 SWAP1 PUSH2 0x538 JUMP JUMPDEST POP POP POP JUMP JUMPDEST PUSH0 DUP2 SWAP1 POP SWAP2 SWAP1 POP JUMP JUMPDEST PUSH2 0x365 DUP2 PUSH2 0x353 JUMP JUMPDEST DUP3 MSTORE POP POP JUMP JUMPDEST PUSH0 PUSH1 0x20 DUP3 ADD SWAP1 POP PUSH2 0x37E PUSH0 DUP4 ADD DUP5 PUSH2 0x35C JUMP JUMPDEST SWAP3 SWAP2 POP POP JUMP JUMPDEST PUSH0 DUP1 REVERT JUMPDEST PUSH0 PUSH20 0xFFFFFFFFFFFFFFFFFFFFFFFFFFFFFFFFFFFFFFFF DUP3 AND SWAP1 POP SWAP2 SWAP1 POP JUMP JUMPDEST PUSH0 PUSH2 0x3B1 DUP3 PUSH2 0x388 JUMP JUMPDEST SWAP1 POP SWAP2 SWAP1 POP JUMP JUMPDEST PUSH2 0x3C1 DUP2 PUSH2 0x3A7 JUMP JUMPDEST DUP2 EQ PUSH2 0x3CB JUMPI PUSH0 DUP1 REVERT JUMPDEST POP JUMP JUMPDEST PUSH0 DUP2 CALLDATALOAD SWAP1 POP PUSH2 0x3DC DUP2 PUSH2 0x3B8 JUMP JUMPDEST SWAP3 SWAP2 POP POP JUMP JUMPDEST PUSH2 0x3EB DUP2 PUSH2 0x353 JUMP JUMPDEST DUP2 EQ PUSH2 0x3F5 JUMPI PUSH0 DUP1 REVERT JUMPDEST POP JUMP JUMPDEST PUSH0 DUP2 CALLDATALOAD SWAP1 POP PUSH2 0x406 DUP2 PUSH2 0x3E2 JUMP JUMPDEST SWAP3 SWAP2 POP POP JUMP JUMPDEST PUSH0 DUP1 PUSH1 0x40 DUP4 DUP6 SUB SLT ISZERO PUSH2 0x422 JUMPI PUSH2 0x421 PUSH2 0x384 JUMP JUMPDEST JUMPDEST PUSH0 PUSH2 0x42F DUP6 DUP3 DUP7 ADD PUSH2 0x3CE JUMP JUMPDEST SWAP3 POP POP PUSH1 0x20 PUSH2 0x440 DUP6 DUP3 DUP7 ADD PUSH2 0x3F8 JUMP JUMPDEST SWAP2 POP POP SWAP3 POP SWAP3 SWAP1 POP JUMP JUMPDEST PUSH0 PUSH1 0x20 DUP3 DUP5 SUB SLT ISZERO PUSH2 0x45F JUMPI PUSH2 0x45E PUSH2 0x384 JUMP JUMPDEST JUMPDEST PUSH0 PUSH2 0x46C DUP5 DUP3 DUP6 ADD PUSH2 0x3F8 JUMP JUMPDEST SWAP2 POP POP SWAP3 SWAP2 POP POP JUMP JUMPDEST PUSH2 0x47E DUP2 PUSH2 0x3A7 JUMP JUMPDEST DUP3 MSTORE POP POP JUMP JUMPDEST PUSH0 PUSH1 0x20 DUP3 ADD SWAP1 POP PUSH2 0x497 PUSH0 DUP4 ADD DUP5 PUSH2 0x475 JUMP JUMPDEST SWAP3 SWAP2 POP POP JUMP JUMPDEST PUSH0 DUP2 MLOAD SWAP1 POP PUSH2 0x4AB DUP2 PUSH2 0x3E2 JUMP JUMPDEST SWAP3 SWAP2 POP POP JUMP JUMPDEST PUSH0 PUSH1 0x20 DUP3 DUP5 SUB SLT ISZERO PUSH2 0x4C6 JUMPI PUSH2 0x4C5 PUSH2 0x384 JUMP JUMPDEST JUMPDEST PUSH0 PUSH2 0x4D3 DUP5 DUP3 DUP6 ADD PUSH2 0x49D JUMP JUMPDEST SWAP2 POP POP SWAP3 SWAP2 POP POP JUMP JUMPDEST PUSH0 PUSH1 0x40 DUP3 ADD SWAP1 POP PUSH2 0x4EF PUSH0 DUP4 ADD DUP6 PUSH2 0x475 JUMP JUMPDEST PUSH2 0x4FC PUSH1 0x20 DUP4 ADD DUP5 PUSH2 0x35C JUMP JUMPDEST SWAP4 SWAP3 POP POP POP JUMP JUMPDEST PUSH0 DUP2 ISZERO ISZERO SWAP1 POP SWAP2 SWAP1 POP JUMP JUMPDEST PUSH2 0x517 DUP2 PUSH2 0x503 JUMP JUMPDEST DUP2 EQ PUSH2 0x521 JUMPI PUSH0 DUP1 REVERT JUMPDEST POP JUMP JUMPDEST PUSH0 DUP2 MLOAD SWAP1 POP PUSH2 0x532 DUP2 PUSH2 0x50E JUMP JUMPDEST SWAP3 SWAP2 POP POP JUMP JUMPDEST PUSH0 PUSH1 0x20 DUP3 DUP5 SUB SLT ISZERO PUSH2 0x54D JUMPI PUSH2 0x54C PUSH2 0x384 JUMP JUMPDEST JUMPDEST PUSH0 PUSH2 0x55A DUP5 DUP3 DUP6 ADD PUSH2 0x524 JUMP JUMPDEST SWAP2 POP POP SWAP3 SWAP2 POP POP JUMP JUMPDEST PUSH0 PUSH1 0x40 DUP3 ADD SWAP1 POP PUSH2 0x576 PUSH0 DUP4 ADD DUP6 PUSH2 0x475 JUMP JUMPDEST PUSH2 0x583 PUSH1 0x20 DUP4 ADD DUP5 PUSH2 0x475 JUMP JUMPDEST SWAP4 SWAP3 POP POP POP JUMP JUMPDEST PUSH0 DUP3 DUP3 MSTORE PUSH1 0x20 DUP3 ADD SWAP1 POP SWAP3 SWAP2 POP POP JUMP JUMPDEST PUSH32 0x4572726F72000000000000000000000000000000000000000000000000000000 PUSH0 DUP3 ADD MSTORE POP JUMP JUMPDEST PUSH0 PUSH2 0x5CE PUSH1 0x5 DUP4 PUSH2 0x58A JUMP JUMPDEST SWAP2 POP PUSH2 0x5D9 DUP3 PUSH2 0x59A JUMP JUMPDEST PUSH1 0x20 DUP3 ADD SWAP1 POP SWAP2 SWAP1 POP JUMP JUMPDEST PUSH0 PUSH1 0x20 DUP3 ADD SWAP1 POP DUP2 DUP2 SUB PUSH0 DUP4 ADD MSTORE PUSH2 0x5FB DUP2 PUSH2 0x5C2 JUMP JUMPDEST SWAP1 POP SWAP2 SWAP1 POP JUMP JUMPDEST PUSH0 PUSH1 0x60 DUP3 ADD SWAP1 POP PUSH2 0x615 PUSH0 DUP4 ADD DUP7 PUSH2 0x475 JUMP JUMPDEST PUSH2 0x622 PUSH1 0x20 DUP4 ADD DUP6 PUSH2 0x475 JUMP JUMPDEST PUSH2 0x62F PUSH1 0x40 DUP4 ADD DUP5 PUSH2 0x35C JUMP JUMPDEST SWAP5 SWAP4 POP POP POP POP JUMP INVALID LOG2 PUSH5 0x6970667358 0x22 SLT KECCAK256 0xF7 INVALID 0xB1 0x4C 0xB9 SELFDESTRUCT SWAP12 DUP12 0x2D BALANCE 0xAA 0x1E EQ 0x2C 0xE0 CALLVALUE PUSH18 0x2C2B574D3A6198C3DAF3D68DEC1BA964736F PUSH13 0x63430008140033000000000000 "
				},
				"gasEstimates": {
					"creation": {
						"codeDepositCost": "329000",
						"executionCost": "infinite",
						"totalCost": "infinite"
					},
					"external": {
						"depositTokens(uint256)": "infinite",
						"getSmartContractBalance()": "infinite",
						"stake(address,uint256)": "infinite"
					}
				},
				"methodIdentifiers": {
					"depositTokens(uint256)": "dd49756e",
					"getSmartContractBalance()": "5145cbc0",
					"stake(address,uint256)": "adc9772e"
				}
			},
			"storageLayout": {
				"storage": [
					{
						"astId": 6,
						"contract": "contracts/samples/transfer_to_contract.sol:TokenTransfer",
						"label": "_token",
						"offset": 0,
						"slot": "0",
						"type": "t_contract(IERC20)168"
					}
				],
				"types": {
					"t_contract(IERC20)168": {
						"encoding": "inplace",
						"label": "contract IERC20",
						"numberOfBytes": "20"
					}
				}
			},
			"userdoc": {
				"kind": "user",
				"methods": {},
				"version": 1
			}
		}
	}
}