{
	"contracts/samples/reflect_sample.sol": {
		"REFLECT": {
			"abi": [
				{
					"inputs": [],
					"stateMutability": "nonpayable",
					"type": "constructor"
				},
				{
					"anonymous": false,
					"inputs": [
						{
							"indexed": true,
							"internalType": "address",
							"name": "owner",
							"type": "address"
						},
						{
							"indexed": true,
							"internalType": "address",
							"name": "spender",
							"type": "address"
						},
						{
							"indexed": false,
							"internalType": "uint256",
							"name": "value",
							"type": "uint256"
						}
					],
					"name": "Approval",
					"type": "event"
				},
				{
					"anonymous": false,
					"inputs": [
						{
							"indexed": true,
							"internalType": "address",
							"name": "previousOwner",
							"type": "address"
						},
						{
							"indexed": true,
							"internalType": "address",
							"name": "newOwner",
							"type": "address"
						}
					],
					"name": "OwnershipTransferred",
					"type": "event"
				},
				{
					"anonymous": false,
					"inputs": [
						{
							"indexed": true,
							"internalType": "address",
							"name": "from",
							"type": "address"
						},
						{
							"indexed": true,
							"internalType": "address",
							"name": "to",
							"type": "address"
						},
						{
							"indexed": false,
							"internalType": "uint256",
							"name": "value",
							"type": "uint256"
						}
					],
					"name": "Transfer",
					"type": "event"
				},
				{
					"inputs": [
						{
							"internalType": "address",
							"name": "owner",
							"type": "address"
						},
						{
							"internalType": "address",
							"name": "spender",
							"type": "address"
						}
					],
					"name": "allowance",
					"outputs": [
						{
							"internalType": "uint256",
							"name": "",
							"type": "uint256"
						}
					],
					"stateMutability": "view",
					"type": "function"
				},
				{
					"inputs": [
						{
							"internalType": "address",
							"name": "spender",
							"type": "address"
						},
						{
							"internalType": "uint256",
							"name": "amount",
							"type": "uint256"
						}
					],
					"name": "approve",
					"outputs": [
						{
							"internalType": "bool",
							"name": "",
							"type": "bool"
						}
					],
					"stateMutability": "nonpayable",
					"type": "function"
				},
				{
					"inputs": [
						{
							"internalType": "address",
							"name": "account",
							"type": "address"
						}
					],
					"name": "balanceOf",
					"outputs": [
						{
							"internalType": "uint256",
							"name": "",
							"type": "uint256"
						}
					],
					"stateMutability": "view",
					"type": "function"
				},
				{
					"inputs": [],
					"name": "decimals",
					"outputs": [
						{
							"internalType": "uint8",
							"name": "",
							"type": "uint8"
						}
					],
					"stateMutability": "view",
					"type": "function"
				},
				{
					"inputs": [
						{
							"internalType": "address",
							"name": "spender",
							"type": "address"
						},
						{
							"internalType": "uint256",
							"name": "subtractedValue",
							"type": "uint256"
						}
					],
					"name": "decreaseAllowance",
					"outputs": [
						{
							"internalType": "bool",
							"name": "",
							"type": "bool"
						}
					],
					"stateMutability": "nonpayable",
					"type": "function"
				},
				{
					"inputs": [
						{
							"internalType": "address",
							"name": "account",
							"type": "address"
						}
					],
					"name": "excludeAccount",
					"outputs": [],
					"stateMutability": "nonpayable",
					"type": "function"
				},
				{
					"inputs": [
						{
							"internalType": "address",
							"name": "account",
							"type": "address"
						}
					],
					"name": "includeAccount",
					"outputs": [],
					"stateMutability": "nonpayable",
					"type": "function"
				},
				{
					"inputs": [
						{
							"internalType": "address",
							"name": "spender",
							"type": "address"
						},
						{
							"internalType": "uint256",
							"name": "addedValue",
							"type": "uint256"
						}
					],
					"name": "increaseAllowance",
					"outputs": [
						{
							"internalType": "bool",
							"name": "",
							"type": "bool"
						}
					],
					"stateMutability": "nonpayable",
					"type": "function"
				},
				{
					"inputs": [
						{
							"internalType": "address",
							"name": "account",
							"type": "address"
						}
					],
					"name": "isExcluded",
					"outputs": [
						{
							"internalType": "bool",
							"name": "",
							"type": "bool"
						}
					],
					"stateMutability": "view",
					"type": "function"
				},
				{
					"inputs": [],
					"name": "name",
					"outputs": [
						{
							"internalType": "string",
							"name": "",
							"type": "string"
						}
					],
					"stateMutability": "view",
					"type": "function"
				},
				{
					"inputs": [],
					"name": "owner",
					"outputs": [
						{
							"internalType": "address",
							"name": "",
							"type": "address"
						}
					],
					"stateMutability": "view",
					"type": "function"
				},
				{
					"inputs": [
						{
							"internalType": "uint256",
							"name": "tAmount",
							"type": "uint256"
						}
					],
					"name": "reflect",
					"outputs": [],
					"stateMutability": "nonpayable",
					"type": "function"
				},
				{
					"inputs": [
						{
							"internalType": "uint256",
							"name": "tAmount",
							"type": "uint256"
						},
						{
							"internalType": "bool",
							"name": "deductTransferFee",
							"type": "bool"
						}
					],
					"name": "reflectionFromToken",
					"outputs": [
						{
							"internalType": "uint256",
							"name": "",
							"type": "uint256"
						}
					],
					"stateMutability": "view",
					"type": "function"
				},
				{
					"inputs": [],
					"name": "renounceOwnership",
					"outputs": [],
					"stateMutability": "nonpayable",
					"type": "function"
				},
				{
					"inputs": [],
					"name": "symbol",
					"outputs": [
						{
							"internalType": "string",
							"name": "",
							"type": "string"
						}
					],
					"stateMutability": "view",
					"type": "function"
				},
				{
					"inputs": [
						{
							"internalType": "uint256",
							"name": "rAmount",
							"type": "uint256"
						}
					],
					"name": "tokenFromReflection",
					"outputs": [
						{
							"internalType": "uint256",
							"name": "",
							"type": "uint256"
						}
					],
					"stateMutability": "view",
					"type": "function"
				},
				{
					"inputs": [],
					"name": "totalFees",
					"outputs": [
						{
							"internalType": "uint256",
							"name": "",
							"type": "uint256"
						}
					],
					"stateMutability": "view",
					"type": "function"
				},
				{
					"inputs": [],
					"name": "totalSupply",
					"outputs": [
						{
							"internalType": "uint256",
							"name": "",
							"type": "uint256"
						}
					],
					"stateMutability": "pure",
					"type": "function"
				},
				{
					"inputs": [
						{
							"internalType": "address",
							"name": "recipient",
							"type": "address"
						},
						{
							"internalType": "uint256",
							"name": "amount",
							"type": "uint256"
						}
					],
					"name": "transfer",
					"outputs": [
						{
							"internalType": "bool",
							"name": "",
							"type": "bool"
						}
					],
					"stateMutability": "nonpayable",
					"type": "function"
				},
				{
					"inputs": [
						{
							"internalType": "address",
							"name": "sender",
							"type": "address"
						},
						{
							"internalType": "address",
							"name": "recipient",
							"type": "address"
						},
						{
							"internalType": "uint256",
							"name": "amount",
							"type": "uint256"
						}
					],
					"name": "transferFrom",
					"outputs": [
						{
							"internalType": "bool",
							"name": "",
							"type": "bool"
						}
					],
					"stateMutability": "nonpayable",
					"type": "function"
				},
				{
					"inputs": [
						{
							"internalType": "address",
							"name": "newOwner",
							"type": "address"
						}
					],
					"name": "transferOwnership",
					"outputs": [],
					"stateMutability": "nonpayable",
					"type": "function"
				}
			],
			"devdoc": {
				"events": {
					"Approval(address,address,uint256)": {
						"details": "Emitted when the allowance of a `spender` for an `owner` is set by a call to {approve}. `value` is the new allowance."
					},
					"Transfer(address,address,uint256)": {
						"details": "Emitted when `value` tokens are moved from one account (`from`) to another (`to`). Note that `value` may be zero."
					}
				},
				"kind": "dev",
				"methods": {
					"allowance(address,address)": {
						"details": "Returns the remaining number of tokens that `spender` will be allowed to spend on behalf of `owner` through {transferFrom}. This is zero by default. This value changes when {approve} or {transferFrom} are called."
					},
					"approve(address,uint256)": {
						"details": "Sets `amount` as the allowance of `spender` over the caller's tokens. Returns a boolean value indicating whether the operation succeeded. IMPORTANT: Beware that changing an allowance with this method brings the risk that someone may use both the old and the new allowance by unfortunate transaction ordering. One possible solution to mitigate this race condition is to first reduce the spender's allowance to 0 and set the desired value afterwards: https://github.com/ethereum/EIPs/issues/20#issuecomment-263524729 Emits an {Approval} event."
					},
					"balanceOf(address)": {
						"details": "Returns the amount of tokens owned by `account`."
					},
					"owner()": {
						"details": "Returns the address of the current owner."
					},
					"renounceOwnership()": {
						"details": "Leaves the contract without owner. It will not be possible to call `onlyOwner` functions. Can only be called by the current owner. NOTE: Renouncing ownership will leave the contract without an owner, thereby disabling any functionality that is only available to the owner."
					},
					"totalSupply()": {
						"details": "Returns the amount of tokens in existence."
					},
					"transferOwnership(address)": {
						"details": "Transfers ownership of the contract to a new account (`newOwner`). Can only be called by the current owner."
					}
				},
				"version": 1
			},
			"evm": {
				"assembly": "    /* \"contracts/samples/reflect_sample.sol\":626:10779  contract REFLECT is Context, IERC20, Ownable {... */\n  mstore(0x40, 0x80)\n    /* \"contracts/samples/reflect_sample.sol\":1100:1118  10 * 10**6 * 10**9 */\n  0x2386f26fc10000\n    /* \"contracts/samples/reflect_sample.sol\":1056:1057  0 */\n  0x00\n    /* \"contracts/samples/reflect_sample.sol\":1047:1058  ~uint256(0) */\n  not\n    /* \"contracts/samples/reflect_sample.sol\":1159:1172  MAX % _tTotal */\n  tag_1\n  swap2\n  swap1\n  tag_2\n  jump\t// in\ntag_1:\n    /* \"contracts/samples/reflect_sample.sol\":1056:1057  0 */\n  0x00\n    /* \"contracts/samples/reflect_sample.sol\":1047:1058  ~uint256(0) */\n  not\n    /* \"contracts/samples/reflect_sample.sol\":1152:1173  MAX - (MAX % _tTotal) */\n  tag_3\n  swap2\n  swap1\n  tag_4\n  jump\t// in\ntag_3:\n    /* \"contracts/samples/reflect_sample.sol\":1125:1174  uint256 private _rTotal = (MAX - (MAX % _tTotal)) */\n  0x06\n  sstore\n    /* \"contracts/samples/reflect_sample.sol\":1216:1256  string private _name = 'reflect.finance' */\n  mload(0x40)\n  dup1\n  0x40\n  add\n  0x40\n  mstore\n  dup1\n  0x0f\n  dup2\n  mstore\n  0x20\n  add\n  0x7265666c6563742e66696e616e63650000000000000000000000000000000000\n  dup2\n  mstore\n  pop\n  0x08\n  swap1\n  dup2\n  tag_5\n  swap2\n  swap1\n  tag_6\n  jump\t// in\ntag_5:\n  pop\n    /* \"contracts/samples/reflect_sample.sol\":1263:1293  string private _symbol = 'RFI' */\n  mload(0x40)\n  dup1\n  0x40\n  add\n  0x40\n  mstore\n  dup1\n  0x03\n  dup2\n  mstore\n  0x20\n  add\n  0x5246490000000000000000000000000000000000000000000000000000000000\n  dup2\n  mstore\n  pop\n  0x09\n  swap1\n  dup2\n  tag_7\n  swap2\n  swap1\n  tag_6\n  jump\t// in\ntag_7:\n  pop\n    /* \"contracts/samples/reflect_sample.sol\":1326:1327  9 */\n  0x09\n    /* \"contracts/samples/reflect_sample.sol\":1300:1327  uint8 private _decimals = 9 */\n  0x0a\n  exp(0x0100, 0x00)\n  dup2\n  sload\n  dup2\n  0xff\n  mul\n  not\n  and\n  swap1\n  dup4\n  0xff\n  and\n  mul\n  or\n  swap1\n  sstore\n  pop\n    /* \"contracts/samples/reflect_sample.sol\":1336:1467  constructor () public {... */\n  callvalue\n  dup1\n  iszero\n  tag_8\n  jumpi\n  0x00\n  dup1\n  revert\ntag_8:\n  pop\n    /* \"contracts/openzeppelin-contracts-release-v4.9/contracts/access/Ownable.sol\":936:968  _transferOwnership(_msgSender()) */\n  tag_12\n    /* \"contracts/openzeppelin-contracts-release-v4.9/contracts/access/Ownable.sol\":955:967  _msgSender() */\n  tag_13\n    /* \"contracts/openzeppelin-contracts-release-v4.9/contracts/access/Ownable.sol\":955:965  _msgSender */\n  shl(0x20, tag_14)\n    /* \"contracts/openzeppelin-contracts-release-v4.9/contracts/access/Ownable.sol\":955:967  _msgSender() */\n  0x20\n  shr\n  jump\t// in\ntag_13:\n    /* \"contracts/openzeppelin-contracts-release-v4.9/contracts/access/Ownable.sol\":936:954  _transferOwnership */\n  shl(0x20, tag_15)\n    /* \"contracts/openzeppelin-contracts-release-v4.9/contracts/access/Ownable.sol\":936:968  _transferOwnership(_msgSender()) */\n  0x20\n  shr\n  jump\t// in\ntag_12:\n    /* \"contracts/samples/reflect_sample.sol\":1393:1400  _rTotal */\n  sload(0x06)\n    /* \"contracts/samples/reflect_sample.sol\":1369:1376  _rOwned */\n  0x01\n    /* \"contracts/samples/reflect_sample.sol\":1369:1390  _rOwned[_msgSender()] */\n  0x00\n    /* \"contracts/samples/reflect_sample.sol\":1377:1389  _msgSender() */\n  tag_17\n    /* \"contracts/samples/reflect_sample.sol\":1377:1387  _msgSender */\n  shl(0x20, tag_14)\n    /* \"contracts/samples/reflect_sample.sol\":1377:1389  _msgSender() */\n  0x20\n  shr\n  jump\t// in\ntag_17:\n    /* \"contracts/samples/reflect_sample.sol\":1369:1390  _rOwned[_msgSender()] */\n  0xffffffffffffffffffffffffffffffffffffffff\n  and\n  0xffffffffffffffffffffffffffffffffffffffff\n  and\n  dup2\n  mstore\n  0x20\n  add\n  swap1\n  dup2\n  mstore\n  0x20\n  add\n  0x00\n  keccak256\n    /* \"contracts/samples/reflect_sample.sol\":1369:1400  _rOwned[_msgSender()] = _rTotal */\n  dup2\n  swap1\n  sstore\n  pop\n    /* \"contracts/samples/reflect_sample.sol\":1437:1449  _msgSender() */\n  tag_18\n    /* \"contracts/samples/reflect_sample.sol\":1437:1447  _msgSender */\n  shl(0x20, tag_14)\n    /* \"contracts/samples/reflect_sample.sol\":1437:1449  _msgSender() */\n  0x20\n  shr\n  jump\t// in\ntag_18:\n    /* \"contracts/samples/reflect_sample.sol\":1416:1459  Transfer(address(0), _msgSender(), _tTotal) */\n  0xffffffffffffffffffffffffffffffffffffffff\n  and\n    /* \"contracts/samples/reflect_sample.sol\":1433:1434  0 */\n  0x00\n    /* \"contracts/samples/reflect_sample.sol\":1416:1459  Transfer(address(0), _msgSender(), _tTotal) */\n  0xffffffffffffffffffffffffffffffffffffffff\n  and\n  0xddf252ad1be2c89b69c2b068fc378daa952ba7f163c4a11628f55a4df523b3ef\n    /* \"contracts/samples/reflect_sample.sol\":1100:1118  10 * 10**6 * 10**9 */\n  0x2386f26fc10000\n    /* \"contracts/samples/reflect_sample.sol\":1416:1459  Transfer(address(0), _msgSender(), _tTotal) */\n  mload(0x40)\n  tag_19\n  swap2\n  swap1\n  tag_20\n  jump\t// in\ntag_19:\n  mload(0x40)\n  dup1\n  swap2\n  sub\n  swap1\n  log3\n    /* \"contracts/samples/reflect_sample.sol\":626:10779  contract REFLECT is Context, IERC20, Ownable {... */\n  jump(tag_21)\n    /* \"contracts/openzeppelin-contracts-release-v4.9/contracts/utils/Context.sol\":640:736  function _msgSender() internal view virtual returns (address) {... */\ntag_14:\n    /* \"contracts/openzeppelin-contracts-release-v4.9/contracts/utils/Context.sol\":693:700  address */\n  0x00\n    /* \"contracts/openzeppelin-contracts-release-v4.9/contracts/utils/Context.sol\":719:729  msg.sender */\n  caller\n    /* \"contracts/openzeppelin-contracts-release-v4.9/contracts/utils/Context.sol\":712:729  return msg.sender */\n  swap1\n  pop\n    /* \"contracts/openzeppelin-contracts-release-v4.9/contracts/utils/Context.sol\":640:736  function _msgSender() internal view virtual returns (address) {... */\n  swap1\n  jump\t// out\n    /* \"contracts/openzeppelin-contracts-release-v4.9/contracts/access/Ownable.sol\":2426:2613  function _transferOwnership(address newOwner) internal virtual {... */\ntag_15:\n    /* \"contracts/openzeppelin-contracts-release-v4.9/contracts/access/Ownable.sol\":2499:2515  address oldOwner */\n  0x00\n    /* \"contracts/openzeppelin-contracts-release-v4.9/contracts/access/Ownable.sol\":2518:2524  _owner */\n  dup1\n  0x00\n  swap1\n  sload\n  swap1\n  0x0100\n  exp\n  swap1\n  div\n  0xffffffffffffffffffffffffffffffffffffffff\n  and\n    /* \"contracts/openzeppelin-contracts-release-v4.9/contracts/access/Ownable.sol\":2499:2524  address oldOwner = _owner */\n  swap1\n  pop\n    /* \"contracts/openzeppelin-contracts-release-v4.9/contracts/access/Ownable.sol\":2543:2551  newOwner */\n  dup2\n    /* \"contracts/openzeppelin-contracts-release-v4.9/contracts/access/Ownable.sol\":2534:2540  _owner */\n  0x00\n  dup1\n    /* \"contracts/openzeppelin-contracts-release-v4.9/contracts/access/Ownable.sol\":2534:2551  _owner = newOwner */\n  0x0100\n  exp\n  dup2\n  sload\n  dup2\n  0xffffffffffffffffffffffffffffffffffffffff\n  mul\n  not\n  and\n  swap1\n  dup4\n  0xffffffffffffffffffffffffffffffffffffffff\n  and\n  mul\n  or\n  swap1\n  sstore\n  pop\n    /* \"contracts/openzeppelin-contracts-release-v4.9/contracts/access/Ownable.sol\":2597:2605  newOwner */\n  dup2\n    /* \"contracts/openzeppelin-contracts-release-v4.9/contracts/access/Ownable.sol\":2566:2606  OwnershipTransferred(oldOwner, newOwner) */\n  0xffffffffffffffffffffffffffffffffffffffff\n  and\n    /* \"contracts/openzeppelin-contracts-release-v4.9/contracts/access/Ownable.sol\":2587:2595  oldOwner */\n  dup2\n    /* \"contracts/openzeppelin-contracts-release-v4.9/contracts/access/Ownable.sol\":2566:2606  OwnershipTransferred(oldOwner, newOwner) */\n  0xffffffffffffffffffffffffffffffffffffffff\n  and\n  0x8be0079c531659141344cd1fd0a4f28419497f9722a3daafe3b4186f6b6457e0\n  mload(0x40)\n  mload(0x40)\n  dup1\n  swap2\n  sub\n  swap1\n  log3\n    /* \"contracts/openzeppelin-contracts-release-v4.9/contracts/access/Ownable.sol\":2489:2613  {... */\n  pop\n    /* \"contracts/openzeppelin-contracts-release-v4.9/contracts/access/Ownable.sol\":2426:2613  function _transferOwnership(address newOwner) internal virtual {... */\n  pop\n  jump\t// out\n    /* \"#utility.yul\":7:84   */\ntag_24:\n    /* \"#utility.yul\":44:51   */\n  0x00\n    /* \"#utility.yul\":73:78   */\n  dup2\n    /* \"#utility.yul\":62:78   */\n  swap1\n  pop\n    /* \"#utility.yul\":7:84   */\n  swap2\n  swap1\n  pop\n  jump\t// out\n    /* \"#utility.yul\":90:270   */\ntag_25:\n    /* \"#utility.yul\":138:215   */\n  0x4e487b7100000000000000000000000000000000000000000000000000000000\n    /* \"#utility.yul\":135:136   */\n  0x00\n    /* \"#utility.yul\":128:216   */\n  mstore\n    /* \"#utility.yul\":235:239   */\n  0x12\n    /* \"#utility.yul\":232:233   */\n  0x04\n    /* \"#utility.yul\":225:240   */\n  mstore\n    /* \"#utility.yul\":259:263   */\n  0x24\n    /* \"#utility.yul\":256:257   */\n  0x00\n    /* \"#utility.yul\":249:264   */\n  revert\n    /* \"#utility.yul\":276:452   */\ntag_2:\n    /* \"#utility.yul\":308:309   */\n  0x00\n    /* \"#utility.yul\":325:345   */\n  tag_51\n    /* \"#utility.yul\":343:344   */\n  dup3\n    /* \"#utility.yul\":325:345   */\n  tag_24\n  jump\t// in\ntag_51:\n    /* \"#utility.yul\":320:345   */\n  swap2\n  pop\n    /* \"#utility.yul\":359:379   */\n  tag_52\n    /* \"#utility.yul\":377:378   */\n  dup4\n    /* \"#utility.yul\":359:379   */\n  tag_24\n  jump\t// in\ntag_52:\n    /* \"#utility.yul\":354:379   */\n  swap3\n  pop\n    /* \"#utility.yul\":398:399   */\n  dup3\n    /* \"#utility.yul\":388:423   */\n  tag_53\n  jumpi\n    /* \"#utility.yul\":403:421   */\n  tag_54\n  tag_25\n  jump\t// in\ntag_54:\n    /* \"#utility.yul\":388:423   */\ntag_53:\n    /* \"#utility.yul\":444:445   */\n  dup3\n    /* \"#utility.yul\":441:442   */\n  dup3\n    /* \"#utility.yul\":437:446   */\n  mod\n    /* \"#utility.yul\":432:446   */\n  swap1\n  pop\n    /* \"#utility.yul\":276:452   */\n  swap3\n  swap2\n  pop\n  pop\n  jump\t// out\n    /* \"#utility.yul\":458:638   */\ntag_26:\n    /* \"#utility.yul\":506:583   */\n  0x4e487b7100000000000000000000000000000000000000000000000000000000\n    /* \"#utility.yul\":503:504   */\n  0x00\n    /* \"#utility.yul\":496:584   */\n  mstore\n    /* \"#utility.yul\":603:607   */\n  0x11\n    /* \"#utility.yul\":600:601   */\n  0x04\n    /* \"#utility.yul\":593:608   */\n  mstore\n    /* \"#utility.yul\":627:631   */\n  0x24\n    /* \"#utility.yul\":624:625   */\n  0x00\n    /* \"#utility.yul\":617:632   */\n  revert\n    /* \"#utility.yul\":644:838   */\ntag_4:\n    /* \"#utility.yul\":684:688   */\n  0x00\n    /* \"#utility.yul\":704:724   */\n  tag_57\n    /* \"#utility.yul\":722:723   */\n  dup3\n    /* \"#utility.yul\":704:724   */\n  tag_24\n  jump\t// in\ntag_57:\n    /* \"#utility.yul\":699:724   */\n  swap2\n  pop\n    /* \"#utility.yul\":738:758   */\n  tag_58\n    /* \"#utility.yul\":756:757   */\n  dup4\n    /* \"#utility.yul\":738:758   */\n  tag_24\n  jump\t// in\ntag_58:\n    /* \"#utility.yul\":733:758   */\n  swap3\n  pop\n    /* \"#utility.yul\":782:783   */\n  dup3\n    /* \"#utility.yul\":779:780   */\n  dup3\n    /* \"#utility.yul\":775:784   */\n  sub\n    /* \"#utility.yul\":767:784   */\n  swap1\n  pop\n    /* \"#utility.yul\":806:807   */\n  dup2\n    /* \"#utility.yul\":800:804   */\n  dup2\n    /* \"#utility.yul\":797:808   */\n  gt\n    /* \"#utility.yul\":794:831   */\n  iszero\n  tag_59\n  jumpi\n    /* \"#utility.yul\":811:829   */\n  tag_60\n  tag_26\n  jump\t// in\ntag_60:\n    /* \"#utility.yul\":794:831   */\ntag_59:\n    /* \"#utility.yul\":644:838   */\n  swap3\n  swap2\n  pop\n  pop\n  jump\t// out\n    /* \"#utility.yul\":844:943   */\ntag_27:\n    /* \"#utility.yul\":896:902   */\n  0x00\n    /* \"#utility.yul\":930:935   */\n  dup2\n    /* \"#utility.yul\":924:936   */\n  mload\n    /* \"#utility.yul\":914:936   */\n  swap1\n  pop\n    /* \"#utility.yul\":844:943   */\n  swap2\n  swap1\n  pop\n  jump\t// out\n    /* \"#utility.yul\":949:1129   */\ntag_28:\n    /* \"#utility.yul\":997:1074   */\n  0x4e487b7100000000000000000000000000000000000000000000000000000000\n    /* \"#utility.yul\":994:995   */\n  0x00\n    /* \"#utility.yul\":987:1075   */\n  mstore\n    /* \"#utility.yul\":1094:1098   */\n  0x41\n    /* \"#utility.yul\":1091:1092   */\n  0x04\n    /* \"#utility.yul\":1084:1099   */\n  mstore\n    /* \"#utility.yul\":1118:1122   */\n  0x24\n    /* \"#utility.yul\":1115:1116   */\n  0x00\n    /* \"#utility.yul\":1108:1123   */\n  revert\n    /* \"#utility.yul\":1135:1315   */\ntag_29:\n    /* \"#utility.yul\":1183:1260   */\n  0x4e487b7100000000000000000000000000000000000000000000000000000000\n    /* \"#utility.yul\":1180:1181   */\n  0x00\n    /* \"#utility.yul\":1173:1261   */\n  mstore\n    /* \"#utility.yul\":1280:1284   */\n  0x22\n    /* \"#utility.yul\":1277:1278   */\n  0x04\n    /* \"#utility.yul\":1270:1285   */\n  mstore\n    /* \"#utility.yul\":1304:1308   */\n  0x24\n    /* \"#utility.yul\":1301:1302   */\n  0x00\n    /* \"#utility.yul\":1294:1309   */\n  revert\n    /* \"#utility.yul\":1321:1641   */\ntag_30:\n    /* \"#utility.yul\":1365:1371   */\n  0x00\n    /* \"#utility.yul\":1402:1403   */\n  0x02\n    /* \"#utility.yul\":1396:1400   */\n  dup3\n    /* \"#utility.yul\":1392:1404   */\n  div\n    /* \"#utility.yul\":1382:1404   */\n  swap1\n  pop\n    /* \"#utility.yul\":1449:1450   */\n  0x01\n    /* \"#utility.yul\":1443:1447   */\n  dup3\n    /* \"#utility.yul\":1439:1451   */\n  and\n    /* \"#utility.yul\":1470:1488   */\n  dup1\n    /* \"#utility.yul\":1460:1541   */\n  tag_65\n  jumpi\n    /* \"#utility.yul\":1526:1530   */\n  0x7f\n    /* \"#utility.yul\":1518:1524   */\n  dup3\n    /* \"#utility.yul\":1514:1531   */\n  and\n    /* \"#utility.yul\":1504:1531   */\n  swap2\n  pop\n    /* \"#utility.yul\":1460:1541   */\ntag_65:\n    /* \"#utility.yul\":1588:1590   */\n  0x20\n    /* \"#utility.yul\":1580:1586   */\n  dup3\n    /* \"#utility.yul\":1577:1591   */\n  lt\n    /* \"#utility.yul\":1557:1575   */\n  dup2\n    /* \"#utility.yul\":1554:1592   */\n  sub\n    /* \"#utility.yul\":1551:1635   */\n  tag_66\n  jumpi\n    /* \"#utility.yul\":1607:1625   */\n  tag_67\n  tag_29\n  jump\t// in\ntag_67:\n    /* \"#utility.yul\":1551:1635   */\ntag_66:\n    /* \"#utility.yul\":1372:1641   */\n  pop\n    /* \"#utility.yul\":1321:1641   */\n  swap2\n  swap1\n  pop\n  jump\t// out\n    /* \"#utility.yul\":1647:1788   */\ntag_31:\n    /* \"#utility.yul\":1696:1700   */\n  0x00\n    /* \"#utility.yul\":1719:1722   */\n  dup2\n    /* \"#utility.yul\":1711:1722   */\n  swap1\n  pop\n    /* \"#utility.yul\":1742:1745   */\n  dup2\n    /* \"#utility.yul\":1739:1740   */\n  0x00\n    /* \"#utility.yul\":1732:1746   */\n  mstore\n    /* \"#utility.yul\":1776:1780   */\n  0x20\n    /* \"#utility.yul\":1773:1774   */\n  0x00\n    /* \"#utility.yul\":1763:1781   */\n  keccak256\n    /* \"#utility.yul\":1755:1781   */\n  swap1\n  pop\n    /* \"#utility.yul\":1647:1788   */\n  swap2\n  swap1\n  pop\n  jump\t// out\n    /* \"#utility.yul\":1794:1887   */\ntag_32:\n    /* \"#utility.yul\":1831:1837   */\n  0x00\n    /* \"#utility.yul\":1878:1880   */\n  0x20\n    /* \"#utility.yul\":1873:1875   */\n  0x1f\n    /* \"#utility.yul\":1866:1871   */\n  dup4\n    /* \"#utility.yul\":1862:1876   */\n  add\n    /* \"#utility.yul\":1858:1881   */\n  div\n    /* \"#utility.yul\":1848:1881   */\n  swap1\n  pop\n    /* \"#utility.yul\":1794:1887   */\n  swap2\n  swap1\n  pop\n  jump\t// out\n    /* \"#utility.yul\":1893:2000   */\ntag_33:\n    /* \"#utility.yul\":1937:1945   */\n  0x00\n    /* \"#utility.yul\":1987:1992   */\n  dup3\n    /* \"#utility.yul\":1981:1985   */\n  dup3\n    /* \"#utility.yul\":1977:1993   */\n  shl\n    /* \"#utility.yul\":1956:1993   */\n  swap1\n  pop\n    /* \"#utility.yul\":1893:2000   */\n  swap3\n  swap2\n  pop\n  pop\n  jump\t// out\n    /* \"#utility.yul\":2006:2399   */\ntag_34:\n    /* \"#utility.yul\":2075:2081   */\n  0x00\n    /* \"#utility.yul\":2125:2126   */\n  0x08\n    /* \"#utility.yul\":2113:2123   */\n  dup4\n    /* \"#utility.yul\":2109:2127   */\n  mul\n    /* \"#utility.yul\":2148:2245   */\n  tag_72\n    /* \"#utility.yul\":2178:2244   */\n  0xffffffffffffffffffffffffffffffffffffffffffffffffffffffffffffffff\n    /* \"#utility.yul\":2167:2176   */\n  dup3\n    /* \"#utility.yul\":2148:2245   */\n  tag_33\n  jump\t// in\ntag_72:\n    /* \"#utility.yul\":2266:2305   */\n  tag_73\n    /* \"#utility.yul\":2296:2304   */\n  dup7\n    /* \"#utility.yul\":2285:2294   */\n  dup4\n    /* \"#utility.yul\":2266:2305   */\n  tag_33\n  jump\t// in\ntag_73:\n    /* \"#utility.yul\":2254:2305   */\n  swap6\n  pop\n    /* \"#utility.yul\":2338:2342   */\n  dup1\n    /* \"#utility.yul\":2334:2343   */\n  not\n    /* \"#utility.yul\":2327:2332   */\n  dup5\n    /* \"#utility.yul\":2323:2344   */\n  and\n    /* \"#utility.yul\":2314:2344   */\n  swap4\n  pop\n    /* \"#utility.yul\":2387:2391   */\n  dup1\n    /* \"#utility.yul\":2377:2385   */\n  dup7\n    /* \"#utility.yul\":2373:2392   */\n  and\n    /* \"#utility.yul\":2366:2371   */\n  dup5\n    /* \"#utility.yul\":2363:2393   */\n  or\n    /* \"#utility.yul\":2353:2393   */\n  swap3\n  pop\n    /* \"#utility.yul\":2082:2399   */\n  pop\n  pop\n    /* \"#utility.yul\":2006:2399   */\n  swap4\n  swap3\n  pop\n  pop\n  pop\n  jump\t// out\n    /* \"#utility.yul\":2405:2465   */\ntag_35:\n    /* \"#utility.yul\":2433:2436   */\n  0x00\n    /* \"#utility.yul\":2454:2459   */\n  dup2\n    /* \"#utility.yul\":2447:2459   */\n  swap1\n  pop\n    /* \"#utility.yul\":2405:2465   */\n  swap2\n  swap1\n  pop\n  jump\t// out\n    /* \"#utility.yul\":2471:2613   */\ntag_36:\n    /* \"#utility.yul\":2521:2530   */\n  0x00\n    /* \"#utility.yul\":2554:2607   */\n  tag_76\n    /* \"#utility.yul\":2572:2606   */\n  tag_77\n    /* \"#utility.yul\":2581:2605   */\n  tag_78\n    /* \"#utility.yul\":2599:2604   */\n  dup5\n    /* \"#utility.yul\":2581:2605   */\n  tag_24\n  jump\t// in\ntag_78:\n    /* \"#utility.yul\":2572:2606   */\n  tag_35\n  jump\t// in\ntag_77:\n    /* \"#utility.yul\":2554:2607   */\n  tag_24\n  jump\t// in\ntag_76:\n    /* \"#utility.yul\":2541:2607   */\n  swap1\n  pop\n    /* \"#utility.yul\":2471:2613   */\n  swap2\n  swap1\n  pop\n  jump\t// out\n    /* \"#utility.yul\":2619:2694   */\ntag_37:\n    /* \"#utility.yul\":2662:2665   */\n  0x00\n    /* \"#utility.yul\":2683:2688   */\n  dup2\n    /* \"#utility.yul\":2676:2688   */\n  swap1\n  pop\n    /* \"#utility.yul\":2619:2694   */\n  swap2\n  swap1\n  pop\n  jump\t// out\n    /* \"#utility.yul\":2700:2969   */\ntag_38:\n    /* \"#utility.yul\":2810:2849   */\n  tag_81\n    /* \"#utility.yul\":2841:2848   */\n  dup4\n    /* \"#utility.yul\":2810:2849   */\n  tag_36\n  jump\t// in\ntag_81:\n    /* \"#utility.yul\":2871:2962   */\n  tag_82\n    /* \"#utility.yul\":2920:2961   */\n  tag_83\n    /* \"#utility.yul\":2944:2960   */\n  dup3\n    /* \"#utility.yul\":2920:2961   */\n  tag_37\n  jump\t// in\ntag_83:\n    /* \"#utility.yul\":2912:2918   */\n  dup5\n    /* \"#utility.yul\":2905:2909   */\n  dup5\n    /* \"#utility.yul\":2899:2910   */\n  sload\n    /* \"#utility.yul\":2871:2962   */\n  tag_34\n  jump\t// in\ntag_82:\n    /* \"#utility.yul\":2865:2869   */\n  dup3\n    /* \"#utility.yul\":2858:2963   */\n  sstore\n    /* \"#utility.yul\":2776:2969   */\n  pop\n    /* \"#utility.yul\":2700:2969   */\n  pop\n  pop\n  pop\n  jump\t// out\n    /* \"#utility.yul\":2975:3048   */\ntag_39:\n    /* \"#utility.yul\":3020:3023   */\n  0x00\n    /* \"#utility.yul\":2975:3048   */\n  swap1\n  jump\t// out\n    /* \"#utility.yul\":3054:3243   */\ntag_40:\n    /* \"#utility.yul\":3131:3163   */\n  tag_86\n  tag_39\n  jump\t// in\ntag_86:\n    /* \"#utility.yul\":3172:3237   */\n  tag_87\n    /* \"#utility.yul\":3230:3236   */\n  dup2\n    /* \"#utility.yul\":3222:3228   */\n  dup5\n    /* \"#utility.yul\":3216:3220   */\n  dup5\n    /* \"#utility.yul\":3172:3237   */\n  tag_38\n  jump\t// in\ntag_87:\n    /* \"#utility.yul\":3107:3243   */\n  pop\n    /* \"#utility.yul\":3054:3243   */\n  pop\n  pop\n  jump\t// out\n    /* \"#utility.yul\":3249:3435   */\ntag_41:\n    /* \"#utility.yul\":3309:3429   */\ntag_89:\n    /* \"#utility.yul\":3326:3329   */\n  dup2\n    /* \"#utility.yul\":3319:3324   */\n  dup2\n    /* \"#utility.yul\":3316:3330   */\n  lt\n    /* \"#utility.yul\":3309:3429   */\n  iszero\n  tag_91\n  jumpi\n    /* \"#utility.yul\":3380:3419   */\n  tag_92\n    /* \"#utility.yul\":3417:3418   */\n  0x00\n    /* \"#utility.yul\":3410:3415   */\n  dup3\n    /* \"#utility.yul\":3380:3419   */\n  tag_40\n  jump\t// in\ntag_92:\n    /* \"#utility.yul\":3353:3354   */\n  0x01\n    /* \"#utility.yul\":3346:3351   */\n  dup2\n    /* \"#utility.yul\":3342:3355   */\n  add\n    /* \"#utility.yul\":3333:3355   */\n  swap1\n  pop\n    /* \"#utility.yul\":3309:3429   */\n  jump(tag_89)\ntag_91:\n    /* \"#utility.yul\":3249:3435   */\n  pop\n  pop\n  jump\t// out\n    /* \"#utility.yul\":3441:3984   */\ntag_42:\n    /* \"#utility.yul\":3542:3544   */\n  0x1f\n    /* \"#utility.yul\":3537:3540   */\n  dup3\n    /* \"#utility.yul\":3534:3545   */\n  gt\n    /* \"#utility.yul\":3531:3977   */\n  iszero\n  tag_94\n  jumpi\n    /* \"#utility.yul\":3576:3614   */\n  tag_95\n    /* \"#utility.yul\":3608:3613   */\n  dup2\n    /* \"#utility.yul\":3576:3614   */\n  tag_31\n  jump\t// in\ntag_95:\n    /* \"#utility.yul\":3660:3689   */\n  tag_96\n    /* \"#utility.yul\":3678:3688   */\n  dup5\n    /* \"#utility.yul\":3660:3689   */\n  tag_32\n  jump\t// in\ntag_96:\n    /* \"#utility.yul\":3650:3658   */\n  dup2\n    /* \"#utility.yul\":3646:3690   */\n  add\n    /* \"#utility.yul\":3843:3845   */\n  0x20\n    /* \"#utility.yul\":3831:3841   */\n  dup6\n    /* \"#utility.yul\":3828:3846   */\n  lt\n    /* \"#utility.yul\":3825:3874   */\n  iszero\n  tag_97\n  jumpi\n    /* \"#utility.yul\":3864:3872   */\n  dup2\n    /* \"#utility.yul\":3849:3872   */\n  swap1\n  pop\n    /* \"#utility.yul\":3825:3874   */\ntag_97:\n    /* \"#utility.yul\":3887:3967   */\n  tag_98\n    /* \"#utility.yul\":3943:3965   */\n  tag_99\n    /* \"#utility.yul\":3961:3964   */\n  dup6\n    /* \"#utility.yul\":3943:3965   */\n  tag_32\n  jump\t// in\ntag_99:\n    /* \"#utility.yul\":3933:3941   */\n  dup4\n    /* \"#utility.yul\":3929:3966   */\n  add\n    /* \"#utility.yul\":3916:3927   */\n  dup3\n    /* \"#utility.yul\":3887:3967   */\n  tag_41\n  jump\t// in\ntag_98:\n    /* \"#utility.yul\":3546:3977   */\n  pop\n  pop\n    /* \"#utility.yul\":3531:3977   */\ntag_94:\n    /* \"#utility.yul\":3441:3984   */\n  pop\n  pop\n  pop\n  jump\t// out\n    /* \"#utility.yul\":3990:4107   */\ntag_43:\n    /* \"#utility.yul\":4044:4052   */\n  0x00\n    /* \"#utility.yul\":4094:4099   */\n  dup3\n    /* \"#utility.yul\":4088:4092   */\n  dup3\n    /* \"#utility.yul\":4084:4100   */\n  shr\n    /* \"#utility.yul\":4063:4100   */\n  swap1\n  pop\n    /* \"#utility.yul\":3990:4107   */\n  swap3\n  swap2\n  pop\n  pop\n  jump\t// out\n    /* \"#utility.yul\":4113:4282   */\ntag_44:\n    /* \"#utility.yul\":4157:4163   */\n  0x00\n    /* \"#utility.yul\":4190:4241   */\n  tag_102\n    /* \"#utility.yul\":4238:4239   */\n  0x00\n    /* \"#utility.yul\":4234:4240   */\n  not\n    /* \"#utility.yul\":4226:4231   */\n  dup5\n    /* \"#utility.yul\":4223:4224   */\n  0x08\n    /* \"#utility.yul\":4219:4232   */\n  mul\n    /* \"#utility.yul\":4190:4241   */\n  tag_43\n  jump\t// in\ntag_102:\n    /* \"#utility.yul\":4186:4242   */\n  not\n    /* \"#utility.yul\":4271:4275   */\n  dup1\n    /* \"#utility.yul\":4265:4269   */\n  dup4\n    /* \"#utility.yul\":4261:4276   */\n  and\n    /* \"#utility.yul\":4251:4276   */\n  swap2\n  pop\n    /* \"#utility.yul\":4164:4282   */\n  pop\n    /* \"#utility.yul\":4113:4282   */\n  swap3\n  swap2\n  pop\n  pop\n  jump\t// out\n    /* \"#utility.yul\":4287:4582   */\ntag_45:\n    /* \"#utility.yul\":4363:4367   */\n  0x00\n    /* \"#utility.yul\":4509:4538   */\n  tag_104\n    /* \"#utility.yul\":4534:4537   */\n  dup4\n    /* \"#utility.yul\":4528:4532   */\n  dup4\n    /* \"#utility.yul\":4509:4538   */\n  tag_44\n  jump\t// in\ntag_104:\n    /* \"#utility.yul\":4501:4538   */\n  swap2\n  pop\n    /* \"#utility.yul\":4571:4574   */\n  dup3\n    /* \"#utility.yul\":4568:4569   */\n  0x02\n    /* \"#utility.yul\":4564:4575   */\n  mul\n    /* \"#utility.yul\":4558:4562   */\n  dup3\n    /* \"#utility.yul\":4555:4576   */\n  or\n    /* \"#utility.yul\":4547:4576   */\n  swap1\n  pop\n    /* \"#utility.yul\":4287:4582   */\n  swap3\n  swap2\n  pop\n  pop\n  jump\t// out\n    /* \"#utility.yul\":4587:5982   */\ntag_6:\n    /* \"#utility.yul\":4704:4741   */\n  tag_106\n    /* \"#utility.yul\":4737:4740   */\n  dup3\n    /* \"#utility.yul\":4704:4741   */\n  tag_27\n  jump\t// in\ntag_106:\n    /* \"#utility.yul\":4806:4824   */\n  0xffffffffffffffff\n    /* \"#utility.yul\":4798:4804   */\n  dup2\n    /* \"#utility.yul\":4795:4825   */\n  gt\n    /* \"#utility.yul\":4792:4848   */\n  iszero\n  tag_107\n  jumpi\n    /* \"#utility.yul\":4828:4846   */\n  tag_108\n  tag_28\n  jump\t// in\ntag_108:\n    /* \"#utility.yul\":4792:4848   */\ntag_107:\n    /* \"#utility.yul\":4872:4910   */\n  tag_109\n    /* \"#utility.yul\":4904:4908   */\n  dup3\n    /* \"#utility.yul\":4898:4909   */\n  sload\n    /* \"#utility.yul\":4872:4910   */\n  tag_30\n  jump\t// in\ntag_109:\n    /* \"#utility.yul\":4957:5024   */\n  tag_110\n    /* \"#utility.yul\":5017:5023   */\n  dup3\n    /* \"#utility.yul\":5009:5015   */\n  dup3\n    /* \"#utility.yul\":5003:5007   */\n  dup6\n    /* \"#utility.yul\":4957:5024   */\n  tag_42\n  jump\t// in\ntag_110:\n    /* \"#utility.yul\":5051:5052   */\n  0x00\n    /* \"#utility.yul\":5075:5079   */\n  0x20\n    /* \"#utility.yul\":5062:5079   */\n  swap1\n  pop\n    /* \"#utility.yul\":5107:5109   */\n  0x1f\n    /* \"#utility.yul\":5099:5105   */\n  dup4\n    /* \"#utility.yul\":5096:5110   */\n  gt\n    /* \"#utility.yul\":5124:5125   */\n  0x01\n    /* \"#utility.yul\":5119:5737   */\n  dup2\n  eq\n  tag_112\n  jumpi\n    /* \"#utility.yul\":5781:5782   */\n  0x00\n    /* \"#utility.yul\":5798:5804   */\n  dup5\n    /* \"#utility.yul\":5795:5872   */\n  iszero\n  tag_113\n  jumpi\n    /* \"#utility.yul\":5847:5856   */\n  dup3\n    /* \"#utility.yul\":5842:5845   */\n  dup8\n    /* \"#utility.yul\":5838:5857   */\n  add\n    /* \"#utility.yul\":5832:5858   */\n  mload\n    /* \"#utility.yul\":5823:5858   */\n  swap1\n  pop\n    /* \"#utility.yul\":5795:5872   */\ntag_113:\n    /* \"#utility.yul\":5898:5965   */\n  tag_114\n    /* \"#utility.yul\":5958:5964   */\n  dup6\n    /* \"#utility.yul\":5951:5956   */\n  dup3\n    /* \"#utility.yul\":5898:5965   */\n  tag_45\n  jump\t// in\ntag_114:\n    /* \"#utility.yul\":5892:5896   */\n  dup7\n    /* \"#utility.yul\":5885:5966   */\n  sstore\n    /* \"#utility.yul\":5754:5976   */\n  pop\n    /* \"#utility.yul\":5089:5976   */\n  jump(tag_111)\n    /* \"#utility.yul\":5119:5737   */\ntag_112:\n    /* \"#utility.yul\":5171:5175   */\n  0x1f\n    /* \"#utility.yul\":5167:5176   */\n  not\n    /* \"#utility.yul\":5159:5165   */\n  dup5\n    /* \"#utility.yul\":5155:5177   */\n  and\n    /* \"#utility.yul\":5205:5242   */\n  tag_115\n    /* \"#utility.yul\":5237:5241   */\n  dup7\n    /* \"#utility.yul\":5205:5242   */\n  tag_31\n  jump\t// in\ntag_115:\n    /* \"#utility.yul\":5264:5265   */\n  0x00\n    /* \"#utility.yul\":5278:5486   */\ntag_116:\n    /* \"#utility.yul\":5292:5299   */\n  dup3\n    /* \"#utility.yul\":5289:5290   */\n  dup2\n    /* \"#utility.yul\":5286:5300   */\n  lt\n    /* \"#utility.yul\":5278:5486   */\n  iszero\n  tag_118\n  jumpi\n    /* \"#utility.yul\":5371:5380   */\n  dup5\n    /* \"#utility.yul\":5366:5369   */\n  dup10\n    /* \"#utility.yul\":5362:5381   */\n  add\n    /* \"#utility.yul\":5356:5382   */\n  mload\n    /* \"#utility.yul\":5348:5354   */\n  dup3\n    /* \"#utility.yul\":5341:5383   */\n  sstore\n    /* \"#utility.yul\":5422:5423   */\n  0x01\n    /* \"#utility.yul\":5414:5420   */\n  dup3\n    /* \"#utility.yul\":5410:5424   */\n  add\n    /* \"#utility.yul\":5400:5424   */\n  swap2\n  pop\n    /* \"#utility.yul\":5469:5471   */\n  0x20\n    /* \"#utility.yul\":5458:5467   */\n  dup6\n    /* \"#utility.yul\":5454:5472   */\n  add\n    /* \"#utility.yul\":5441:5472   */\n  swap5\n  pop\n    /* \"#utility.yul\":5315:5319   */\n  0x20\n    /* \"#utility.yul\":5312:5313   */\n  dup2\n    /* \"#utility.yul\":5308:5320   */\n  add\n    /* \"#utility.yul\":5303:5320   */\n  swap1\n  pop\n    /* \"#utility.yul\":5278:5486   */\n  jump(tag_116)\ntag_118:\n    /* \"#utility.yul\":5514:5520   */\n  dup7\n    /* \"#utility.yul\":5505:5512   */\n  dup4\n    /* \"#utility.yul\":5502:5521   */\n  lt\n    /* \"#utility.yul\":5499:5678   */\n  iszero\n  tag_119\n  jumpi\n    /* \"#utility.yul\":5572:5581   */\n  dup5\n    /* \"#utility.yul\":5567:5570   */\n  dup10\n    /* \"#utility.yul\":5563:5582   */\n  add\n    /* \"#utility.yul\":5557:5583   */\n  mload\n    /* \"#utility.yul\":5615:5663   */\n  tag_120\n    /* \"#utility.yul\":5657:5661   */\n  0x1f\n    /* \"#utility.yul\":5649:5655   */\n  dup10\n    /* \"#utility.yul\":5645:5662   */\n  and\n    /* \"#utility.yul\":5634:5643   */\n  dup3\n    /* \"#utility.yul\":5615:5663   */\n  tag_44\n  jump\t// in\ntag_120:\n    /* \"#utility.yul\":5607:5613   */\n  dup4\n    /* \"#utility.yul\":5600:5664   */\n  sstore\n    /* \"#utility.yul\":5522:5678   */\n  pop\n    /* \"#utility.yul\":5499:5678   */\ntag_119:\n    /* \"#utility.yul\":5724:5725   */\n  0x01\n    /* \"#utility.yul\":5720:5721   */\n  0x02\n    /* \"#utility.yul\":5712:5718   */\n  dup9\n    /* \"#utility.yul\":5708:5722   */\n  mul\n    /* \"#utility.yul\":5704:5726   */\n  add\n    /* \"#utility.yul\":5698:5702   */\n  dup9\n    /* \"#utility.yul\":5691:5727   */\n  sstore\n    /* \"#utility.yul\":5126:5737   */\n  pop\n  pop\n  pop\n    /* \"#utility.yul\":5089:5976   */\ntag_111:\n  pop\n    /* \"#utility.yul\":4679:5982   */\n  pop\n  pop\n  pop\n    /* \"#utility.yul\":4587:5982   */\n  pop\n  pop\n  jump\t// out\n    /* \"#utility.yul\":5988:6106   */\ntag_46:\n    /* \"#utility.yul\":6075:6099   */\n  tag_122\n    /* \"#utility.yul\":6093:6098   */\n  dup2\n    /* \"#utility.yul\":6075:6099   */\n  tag_24\n  jump\t// in\ntag_122:\n    /* \"#utility.yul\":6070:6073   */\n  dup3\n    /* \"#utility.yul\":6063:6100   */\n  mstore\n    /* \"#utility.yul\":5988:6106   */\n  pop\n  pop\n  jump\t// out\n    /* \"#utility.yul\":6112:6334   */\ntag_20:\n    /* \"#utility.yul\":6205:6209   */\n  0x00\n    /* \"#utility.yul\":6243:6245   */\n  0x20\n    /* \"#utility.yul\":6232:6241   */\n  dup3\n    /* \"#utility.yul\":6228:6246   */\n  add\n    /* \"#utility.yul\":6220:6246   */\n  swap1\n  pop\n    /* \"#utility.yul\":6256:6327   */\n  tag_124\n    /* \"#utility.yul\":6324:6325   */\n  0x00\n    /* \"#utility.yul\":6313:6322   */\n  dup4\n    /* \"#utility.yul\":6309:6326   */\n  add\n    /* \"#utility.yul\":6300:6306   */\n  dup5\n    /* \"#utility.yul\":6256:6327   */\n  tag_46\n  jump\t// in\ntag_124:\n    /* \"#utility.yul\":6112:6334   */\n  swap3\n  swap2\n  pop\n  pop\n  jump\t// out\n    /* \"contracts/samples/reflect_sample.sol\":626:10779  contract REFLECT is Context, IERC20, Ownable {... */\ntag_21:\n  dataSize(sub_0)\n  dup1\n  dataOffset(sub_0)\n  0x00\n  codecopy\n  0x00\n  return\nstop\n\nsub_0: assembly {\n        /* \"contracts/samples/reflect_sample.sol\":626:10779  contract REFLECT is Context, IERC20, Ownable {... */\n      mstore(0x40, 0x80)\n      callvalue\n      dup1\n      iszero\n      tag_1\n      jumpi\n      0x00\n      dup1\n      revert\n    tag_1:\n      pop\n      jumpi(tag_2, lt(calldatasize, 0x04))\n      shr(0xe0, calldataload(0x00))\n      dup1\n      0x70a08231\n      gt\n      tag_24\n      jumpi\n      dup1\n      0xa9059cbb\n      gt\n      tag_25\n      jumpi\n      dup1\n      0xa9059cbb\n      eq\n      tag_18\n      jumpi\n      dup1\n      0xcba0e996\n      eq\n      tag_19\n      jumpi\n      dup1\n      0xdd62ed3e\n      eq\n      tag_20\n      jumpi\n      dup1\n      0xf2cc0c18\n      eq\n      tag_21\n      jumpi\n      dup1\n      0xf2fde38b\n      eq\n      tag_22\n      jumpi\n      dup1\n      0xf84354f1\n      eq\n      tag_23\n      jumpi\n      jump(tag_2)\n    tag_25:\n      dup1\n      0x70a08231\n      eq\n      tag_13\n      jumpi\n      dup1\n      0x715018a6\n      eq\n      tag_14\n      jumpi\n      dup1\n      0x8da5cb5b\n      eq\n      tag_15\n      jumpi\n      dup1\n      0x95d89b41\n      eq\n      tag_16\n      jumpi\n      dup1\n      0xa457c2d7\n      eq\n      tag_17\n      jumpi\n      jump(tag_2)\n    tag_24:\n      dup1\n      0x23b872dd\n      gt\n      tag_26\n      jumpi\n      dup1\n      0x23b872dd\n      eq\n      tag_8\n      jumpi\n      dup1\n      0x2d838119\n      eq\n      tag_9\n      jumpi\n      dup1\n      0x313ce567\n      eq\n      tag_10\n      jumpi\n      dup1\n      0x39509351\n      eq\n      tag_11\n      jumpi\n      dup1\n      0x4549b039\n      eq\n      tag_12\n      jumpi\n      jump(tag_2)\n    tag_26:\n      dup1\n      0x053ab182\n      eq\n      tag_3\n      jumpi\n      dup1\n      0x06fdde03\n      eq\n      tag_4\n      jumpi\n      dup1\n      0x095ea7b3\n      eq\n      tag_5\n      jumpi\n      dup1\n      0x13114a9d\n      eq\n      tag_6\n      jumpi\n      dup1\n      0x18160ddd\n      eq\n      tag_7\n      jumpi\n    tag_2:\n      0x00\n      dup1\n      revert\n        /* \"contracts/samples/reflect_sample.sol\":3593:3969  function reflect(uint256 tAmount) public {... */\n    tag_3:\n      tag_27\n      0x04\n      dup1\n      calldatasize\n      sub\n      dup2\n      add\n      swap1\n      tag_28\n      swap2\n      swap1\n      tag_29\n      jump\t// in\n    tag_28:\n      tag_30\n      jump\t// in\n    tag_27:\n      stop\n        /* \"contracts/samples/reflect_sample.sol\":1475:1558  function name() public view returns (string memory) {... */\n    tag_4:\n      tag_31\n      tag_32\n      jump\t// in\n    tag_31:\n      mload(0x40)\n      tag_33\n      swap2\n      swap1\n      tag_34\n      jump\t// in\n    tag_33:\n      mload(0x40)\n      dup1\n      swap2\n      sub\n      swap1\n      return\n        /* \"contracts/samples/reflect_sample.sol\":2387:2548  function approve(address spender, uint256 amount) public override returns (bool) {... */\n    tag_5:\n      tag_35\n      0x04\n      dup1\n      calldatasize\n      sub\n      dup2\n      add\n      swap1\n      tag_36\n      swap2\n      swap1\n      tag_37\n      jump\t// in\n    tag_36:\n      tag_38\n      jump\t// in\n    tag_35:\n      mload(0x40)\n      tag_39\n      swap2\n      swap1\n      tag_40\n      jump\t// in\n    tag_39:\n      mload(0x40)\n      dup1\n      swap2\n      sub\n      swap1\n      return\n        /* \"contracts/samples/reflect_sample.sol\":3498:3585  function totalFees() public view returns (uint256) {... */\n    tag_6:\n      tag_41\n      tag_42\n      jump\t// in\n    tag_41:\n      mload(0x40)\n      tag_43\n      swap2\n      swap1\n      tag_44\n      jump\t// in\n    tag_43:\n      mload(0x40)\n      dup1\n      swap2\n      sub\n      swap1\n      return\n        /* \"contracts/samples/reflect_sample.sol\":1752:1847  function totalSupply() public pure override returns (uint256) {... */\n    tag_7:\n      tag_45\n      tag_46\n      jump\t// in\n    tag_45:\n      mload(0x40)\n      tag_47\n      swap2\n      swap1\n      tag_44\n      jump\t// in\n    tag_47:\n      mload(0x40)\n      dup1\n      swap2\n      sub\n      swap1\n      return\n        /* \"contracts/samples/reflect_sample.sol\":2556:2869  function transferFrom(address sender, address recipient, uint256 amount) public override returns (bool) {... */\n    tag_8:\n      tag_48\n      0x04\n      dup1\n      calldatasize\n      sub\n      dup2\n      add\n      swap1\n      tag_49\n      swap2\n      swap1\n      tag_50\n      jump\t// in\n    tag_49:\n      tag_51\n      jump\t// in\n    tag_48:\n      mload(0x40)\n      tag_52\n      swap2\n      swap1\n      tag_40\n      jump\t// in\n    tag_52:\n      mload(0x40)\n      dup1\n      swap2\n      sub\n      swap1\n      return\n        /* \"contracts/samples/reflect_sample.sol\":4419:4672  function tokenFromReflection(uint256 rAmount) public view returns(uint256) {... */\n    tag_9:\n      tag_53\n      0x04\n      dup1\n      calldatasize\n      sub\n      dup2\n      add\n      swap1\n      tag_54\n      swap2\n      swap1\n      tag_29\n      jump\t// in\n    tag_54:\n      tag_55\n      jump\t// in\n    tag_53:\n      mload(0x40)\n      tag_56\n      swap2\n      swap1\n      tag_44\n      jump\t// in\n    tag_56:\n      mload(0x40)\n      dup1\n      swap2\n      sub\n      swap1\n      return\n        /* \"contracts/samples/reflect_sample.sol\":1661:1744  function decimals() public view returns (uint8) {... */\n    tag_10:\n      tag_57\n      tag_58\n      jump\t// in\n    tag_57:\n      mload(0x40)\n      tag_59\n      swap2\n      swap1\n      tag_60\n      jump\t// in\n    tag_59:\n      mload(0x40)\n      dup1\n      swap2\n      sub\n      swap1\n      return\n        /* \"contracts/samples/reflect_sample.sol\":2877:3095  function increaseAllowance(address spender, uint256 addedValue) public virtual returns (bool) {... */\n    tag_11:\n      tag_61\n      0x04\n      dup1\n      calldatasize\n      sub\n      dup2\n      add\n      swap1\n      tag_62\n      swap2\n      swap1\n      tag_37\n      jump\t// in\n    tag_62:\n      tag_63\n      jump\t// in\n    tag_61:\n      mload(0x40)\n      tag_64\n      swap2\n      swap1\n      tag_40\n      jump\t// in\n    tag_64:\n      mload(0x40)\n      dup1\n      swap2\n      sub\n      swap1\n      return\n        /* \"contracts/samples/reflect_sample.sol\":3977:4411  function reflectionFromToken(uint256 tAmount, bool deductTransferFee) public view returns(uint256) {... */\n    tag_12:\n      tag_65\n      0x04\n      dup1\n      calldatasize\n      sub\n      dup2\n      add\n      swap1\n      tag_66\n      swap2\n      swap1\n      tag_67\n      jump\t// in\n    tag_66:\n      tag_68\n      jump\t// in\n    tag_65:\n      mload(0x40)\n      tag_69\n      swap2\n      swap1\n      tag_44\n      jump\t// in\n    tag_69:\n      mload(0x40)\n      dup1\n      swap2\n      sub\n      swap1\n      return\n        /* \"contracts/samples/reflect_sample.sol\":1855:2053  function balanceOf(address account) public view override returns (uint256) {... */\n    tag_13:\n      tag_70\n      0x04\n      dup1\n      calldatasize\n      sub\n      dup2\n      add\n      swap1\n      tag_71\n      swap2\n      swap1\n      tag_72\n      jump\t// in\n    tag_71:\n      tag_73\n      jump\t// in\n    tag_70:\n      mload(0x40)\n      tag_74\n      swap2\n      swap1\n      tag_44\n      jump\t// in\n    tag_74:\n      mload(0x40)\n      dup1\n      swap2\n      sub\n      swap1\n      return\n        /* \"contracts/openzeppelin-contracts-release-v4.9/contracts/access/Ownable.sol\":1824:1925  function renounceOwnership() public virtual onlyOwner {... */\n    tag_14:\n      tag_75\n      tag_76\n      jump\t// in\n    tag_75:\n      stop\n        /* \"contracts/openzeppelin-contracts-release-v4.9/contracts/access/Ownable.sol\":1201:1286  function owner() public view virtual returns (address) {... */\n    tag_15:\n      tag_77\n      tag_78\n      jump\t// in\n    tag_77:\n      mload(0x40)\n      tag_79\n      swap2\n      swap1\n      tag_80\n      jump\t// in\n    tag_79:\n      mload(0x40)\n      dup1\n      swap2\n      sub\n      swap1\n      return\n        /* \"contracts/samples/reflect_sample.sol\":1566:1653  function symbol() public view returns (string memory) {... */\n    tag_16:\n      tag_81\n      tag_82\n      jump\t// in\n    tag_81:\n      mload(0x40)\n      tag_83\n      swap2\n      swap1\n      tag_34\n      jump\t// in\n    tag_83:\n      mload(0x40)\n      dup1\n      swap2\n      sub\n      swap1\n      return\n        /* \"contracts/samples/reflect_sample.sol\":3103:3372  function decreaseAllowance(address spender, uint256 subtractedValue) public virtual returns (bool) {... */\n    tag_17:\n      tag_84\n      0x04\n      dup1\n      calldatasize\n      sub\n      dup2\n      add\n      swap1\n      tag_85\n      swap2\n      swap1\n      tag_37\n      jump\t// in\n    tag_85:\n      tag_86\n      jump\t// in\n    tag_84:\n      mload(0x40)\n      tag_87\n      swap2\n      swap1\n      tag_40\n      jump\t// in\n    tag_87:\n      mload(0x40)\n      dup1\n      swap2\n      sub\n      swap1\n      return\n        /* \"contracts/samples/reflect_sample.sol\":2061:2228  function transfer(address recipient, uint256 amount) public override returns (bool) {... */\n    tag_18:\n      tag_88\n      0x04\n      dup1\n      calldatasize\n      sub\n      dup2\n      add\n      swap1\n      tag_89\n      swap2\n      swap1\n      tag_37\n      jump\t// in\n    tag_89:\n      tag_90\n      jump\t// in\n    tag_88:\n      mload(0x40)\n      tag_91\n      swap2\n      swap1\n      tag_40\n      jump\t// in\n    tag_91:\n      mload(0x40)\n      dup1\n      swap2\n      sub\n      swap1\n      return\n        /* \"contracts/samples/reflect_sample.sol\":3380:3490  function isExcluded(address account) public view returns (bool) {... */\n    tag_19:\n      tag_92\n      0x04\n      dup1\n      calldatasize\n      sub\n      dup2\n      add\n      swap1\n      tag_93\n      swap2\n      swap1\n      tag_72\n      jump\t// in\n    tag_93:\n      tag_94\n      jump\t// in\n    tag_92:\n      mload(0x40)\n      tag_95\n      swap2\n      swap1\n      tag_40\n      jump\t// in\n    tag_95:\n      mload(0x40)\n      dup1\n      swap2\n      sub\n      swap1\n      return\n        /* \"contracts/samples/reflect_sample.sol\":2236:2379  function allowance(address owner, address spender) public view override returns (uint256) {... */\n    tag_20:\n      tag_96\n      0x04\n      dup1\n      calldatasize\n      sub\n      dup2\n      add\n      swap1\n      tag_97\n      swap2\n      swap1\n      tag_98\n      jump\t// in\n    tag_97:\n      tag_99\n      jump\t// in\n    tag_96:\n      mload(0x40)\n      tag_100\n      swap2\n      swap1\n      tag_44\n      jump\t// in\n    tag_100:\n      mload(0x40)\n      dup1\n      swap2\n      sub\n      swap1\n      return\n        /* \"contracts/samples/reflect_sample.sol\":4680:5012  function excludeAccount(address account) external onlyOwner() {... */\n    tag_21:\n      tag_101\n      0x04\n      dup1\n      calldatasize\n      sub\n      dup2\n      add\n      swap1\n      tag_102\n      swap2\n      swap1\n      tag_72\n      jump\t// in\n    tag_102:\n      tag_103\n      jump\t// in\n    tag_101:\n      stop\n        /* \"contracts/openzeppelin-contracts-release-v4.9/contracts/access/Ownable.sol\":2074:2272  function transferOwnership(address newOwner) public virtual onlyOwner {... */\n    tag_22:\n      tag_104\n      0x04\n      dup1\n      calldatasize\n      sub\n      dup2\n      add\n      swap1\n      tag_105\n      swap2\n      swap1\n      tag_72\n      jump\t// in\n    tag_105:\n      tag_106\n      jump\t// in\n    tag_104:\n      stop\n        /* \"contracts/samples/reflect_sample.sol\":5020:5498  function includeAccount(address account) external onlyOwner() {... */\n    tag_23:\n      tag_107\n      0x04\n      dup1\n      calldatasize\n      sub\n      dup2\n      add\n      swap1\n      tag_108\n      swap2\n      swap1\n      tag_72\n      jump\t// in\n    tag_108:\n      tag_109\n      jump\t// in\n    tag_107:\n      stop\n        /* \"contracts/samples/reflect_sample.sol\":3593:3969  function reflect(uint256 tAmount) public {... */\n    tag_30:\n        /* \"contracts/samples/reflect_sample.sol\":3645:3659  address sender */\n      0x00\n        /* \"contracts/samples/reflect_sample.sol\":3662:3674  _msgSender() */\n      tag_111\n        /* \"contracts/samples/reflect_sample.sol\":3662:3672  _msgSender */\n      tag_112\n        /* \"contracts/samples/reflect_sample.sol\":3662:3674  _msgSender() */\n      jump\t// in\n    tag_111:\n        /* \"contracts/samples/reflect_sample.sol\":3645:3674  address sender = _msgSender() */\n      swap1\n      pop\n        /* \"contracts/samples/reflect_sample.sol\":3694:3705  _isExcluded */\n      0x04\n        /* \"contracts/samples/reflect_sample.sol\":3694:3713  _isExcluded[sender] */\n      0x00\n        /* \"contracts/samples/reflect_sample.sol\":3706:3712  sender */\n      dup3\n        /* \"contracts/samples/reflect_sample.sol\":3694:3713  _isExcluded[sender] */\n      0xffffffffffffffffffffffffffffffffffffffff\n      and\n      0xffffffffffffffffffffffffffffffffffffffff\n      and\n      dup2\n      mstore\n      0x20\n      add\n      swap1\n      dup2\n      mstore\n      0x20\n      add\n      0x00\n      keccak256\n      0x00\n      swap1\n      sload\n      swap1\n      0x0100\n      exp\n      swap1\n      div\n      0xff\n      and\n        /* \"contracts/samples/reflect_sample.sol\":3693:3713  !_isExcluded[sender] */\n      iszero\n        /* \"contracts/samples/reflect_sample.sol\":3685:3762  require(!_isExcluded[sender], \"Excluded addresses cannot call this function\") */\n      tag_113\n      jumpi\n      mload(0x40)\n      0x08c379a000000000000000000000000000000000000000000000000000000000\n      dup2\n      mstore\n      0x04\n      add\n      tag_114\n      swap1\n      tag_115\n      jump\t// in\n    tag_114:\n      mload(0x40)\n      dup1\n      swap2\n      sub\n      swap1\n      revert\n    tag_113:\n        /* \"contracts/samples/reflect_sample.sol\":3774:3789  uint256 rAmount */\n      0x00\n        /* \"contracts/samples/reflect_sample.sol\":3797:3816  _getValues(tAmount) */\n      tag_116\n        /* \"contracts/samples/reflect_sample.sol\":3808:3815  tAmount */\n      dup4\n        /* \"contracts/samples/reflect_sample.sol\":3797:3807  _getValues */\n      tag_117\n        /* \"contracts/samples/reflect_sample.sol\":3797:3816  _getValues(tAmount) */\n      jump\t// in\n    tag_116:\n        /* \"contracts/samples/reflect_sample.sol\":3773:3816  (uint256 rAmount,,,,) = _getValues(tAmount) */\n      pop\n      pop\n      pop\n      pop\n      swap1\n      pop\n        /* \"contracts/samples/reflect_sample.sol\":3845:3873  _rOwned[sender].sub(rAmount) */\n      tag_118\n        /* \"contracts/samples/reflect_sample.sol\":3865:3872  rAmount */\n      dup2\n        /* \"contracts/samples/reflect_sample.sol\":3845:3852  _rOwned */\n      0x01\n        /* \"contracts/samples/reflect_sample.sol\":3845:3860  _rOwned[sender] */\n      0x00\n        /* \"contracts/samples/reflect_sample.sol\":3853:3859  sender */\n      dup6\n        /* \"contracts/samples/reflect_sample.sol\":3845:3860  _rOwned[sender] */\n      0xffffffffffffffffffffffffffffffffffffffff\n      and\n      0xffffffffffffffffffffffffffffffffffffffff\n      and\n      dup2\n      mstore\n      0x20\n      add\n      swap1\n      dup2\n      mstore\n      0x20\n      add\n      0x00\n      keccak256\n      sload\n        /* \"contracts/samples/reflect_sample.sol\":3845:3864  _rOwned[sender].sub */\n      tag_119\n      swap1\n        /* \"contracts/samples/reflect_sample.sol\":3845:3873  _rOwned[sender].sub(rAmount) */\n      swap2\n      swap1\n      0xffffffff\n      and\n      jump\t// in\n    tag_118:\n        /* \"contracts/samples/reflect_sample.sol\":3827:3834  _rOwned */\n      0x01\n        /* \"contracts/samples/reflect_sample.sol\":3827:3842  _rOwned[sender] */\n      0x00\n        /* \"contracts/samples/reflect_sample.sol\":3835:3841  sender */\n      dup5\n        /* \"contracts/samples/reflect_sample.sol\":3827:3842  _rOwned[sender] */\n      0xffffffffffffffffffffffffffffffffffffffff\n      and\n      0xffffffffffffffffffffffffffffffffffffffff\n      and\n      dup2\n      mstore\n      0x20\n      add\n      swap1\n      dup2\n      mstore\n      0x20\n      add\n      0x00\n      keccak256\n        /* \"contracts/samples/reflect_sample.sol\":3827:3873  _rOwned[sender] = _rOwned[sender].sub(rAmount) */\n      dup2\n      swap1\n      sstore\n      pop\n        /* \"contracts/samples/reflect_sample.sol\":3894:3914  _rTotal.sub(rAmount) */\n      tag_120\n        /* \"contracts/samples/reflect_sample.sol\":3906:3913  rAmount */\n      dup2\n        /* \"contracts/samples/reflect_sample.sol\":3894:3901  _rTotal */\n      sload(0x06)\n        /* \"contracts/samples/reflect_sample.sol\":3894:3905  _rTotal.sub */\n      tag_119\n      swap1\n        /* \"contracts/samples/reflect_sample.sol\":3894:3914  _rTotal.sub(rAmount) */\n      swap2\n      swap1\n      0xffffffff\n      and\n      jump\t// in\n    tag_120:\n        /* \"contracts/samples/reflect_sample.sol\":3884:3891  _rTotal */\n      0x06\n        /* \"contracts/samples/reflect_sample.sol\":3884:3914  _rTotal = _rTotal.sub(rAmount) */\n      dup2\n      swap1\n      sstore\n      pop\n        /* \"contracts/samples/reflect_sample.sol\":3938:3961  _tFeeTotal.add(tAmount) */\n      tag_121\n        /* \"contracts/samples/reflect_sample.sol\":3953:3960  tAmount */\n      dup4\n        /* \"contracts/samples/reflect_sample.sol\":3938:3948  _tFeeTotal */\n      sload(0x07)\n        /* \"contracts/samples/reflect_sample.sol\":3938:3952  _tFeeTotal.add */\n      tag_122\n      swap1\n        /* \"contracts/samples/reflect_sample.sol\":3938:3961  _tFeeTotal.add(tAmount) */\n      swap2\n      swap1\n      0xffffffff\n      and\n      jump\t// in\n    tag_121:\n        /* \"contracts/samples/reflect_sample.sol\":3925:3935  _tFeeTotal */\n      0x07\n        /* \"contracts/samples/reflect_sample.sol\":3925:3961  _tFeeTotal = _tFeeTotal.add(tAmount) */\n      dup2\n      swap1\n      sstore\n      pop\n        /* \"contracts/samples/reflect_sample.sol\":3634:3969  {... */\n      pop\n      pop\n        /* \"contracts/samples/reflect_sample.sol\":3593:3969  function reflect(uint256 tAmount) public {... */\n      pop\n      jump\t// out\n        /* \"contracts/samples/reflect_sample.sol\":1475:1558  function name() public view returns (string memory) {... */\n    tag_32:\n        /* \"contracts/samples/reflect_sample.sol\":1512:1525  string memory */\n      0x60\n        /* \"contracts/samples/reflect_sample.sol\":1545:1550  _name */\n      0x08\n        /* \"contracts/samples/reflect_sample.sol\":1538:1550  return _name */\n      dup1\n      sload\n      tag_124\n      swap1\n      tag_125\n      jump\t// in\n    tag_124:\n      dup1\n      0x1f\n      add\n      0x20\n      dup1\n      swap2\n      div\n      mul\n      0x20\n      add\n      mload(0x40)\n      swap1\n      dup2\n      add\n      0x40\n      mstore\n      dup1\n      swap3\n      swap2\n      swap1\n      dup2\n      dup2\n      mstore\n      0x20\n      add\n      dup3\n      dup1\n      sload\n      tag_126\n      swap1\n      tag_125\n      jump\t// in\n    tag_126:\n      dup1\n      iszero\n      tag_127\n      jumpi\n      dup1\n      0x1f\n      lt\n      tag_128\n      jumpi\n      0x0100\n      dup1\n      dup4\n      sload\n      div\n      mul\n      dup4\n      mstore\n      swap2\n      0x20\n      add\n      swap2\n      jump(tag_127)\n    tag_128:\n      dup3\n      add\n      swap2\n      swap1\n      0x00\n      mstore\n      keccak256(0x00, 0x20)\n      swap1\n    tag_129:\n      dup2\n      sload\n      dup2\n      mstore\n      swap1\n      0x01\n      add\n      swap1\n      0x20\n      add\n      dup1\n      dup4\n      gt\n      tag_129\n      jumpi\n      dup3\n      swap1\n      sub\n      0x1f\n      and\n      dup3\n      add\n      swap2\n    tag_127:\n      pop\n      pop\n      pop\n      pop\n      pop\n      swap1\n      pop\n        /* \"contracts/samples/reflect_sample.sol\":1475:1558  function name() public view returns (string memory) {... */\n      swap1\n      jump\t// out\n        /* \"contracts/samples/reflect_sample.sol\":2387:2548  function approve(address spender, uint256 amount) public override returns (bool) {... */\n    tag_38:\n        /* \"contracts/samples/reflect_sample.sol\":2462:2466  bool */\n      0x00\n        /* \"contracts/samples/reflect_sample.sol\":2479:2518  _approve(_msgSender(), spender, amount) */\n      tag_131\n        /* \"contracts/samples/reflect_sample.sol\":2488:2500  _msgSender() */\n      tag_132\n        /* \"contracts/samples/reflect_sample.sol\":2488:2498  _msgSender */\n      tag_112\n        /* \"contracts/samples/reflect_sample.sol\":2488:2500  _msgSender() */\n      jump\t// in\n    tag_132:\n        /* \"contracts/samples/reflect_sample.sol\":2502:2509  spender */\n      dup5\n        /* \"contracts/samples/reflect_sample.sol\":2511:2517  amount */\n      dup5\n        /* \"contracts/samples/reflect_sample.sol\":2479:2487  _approve */\n      tag_133\n        /* \"contracts/samples/reflect_sample.sol\":2479:2518  _approve(_msgSender(), spender, amount) */\n      jump\t// in\n    tag_131:\n        /* \"contracts/samples/reflect_sample.sol\":2536:2540  true */\n      0x01\n        /* \"contracts/samples/reflect_sample.sol\":2529:2540  return true */\n      swap1\n      pop\n        /* \"contracts/samples/reflect_sample.sol\":2387:2548  function approve(address spender, uint256 amount) public override returns (bool) {... */\n      swap3\n      swap2\n      pop\n      pop\n      jump\t// out\n        /* \"contracts/samples/reflect_sample.sol\":3498:3585  function totalFees() public view returns (uint256) {... */\n    tag_42:\n        /* \"contracts/samples/reflect_sample.sol\":3540:3547  uint256 */\n      0x00\n        /* \"contracts/samples/reflect_sample.sol\":3567:3577  _tFeeTotal */\n      sload(0x07)\n        /* \"contracts/samples/reflect_sample.sol\":3560:3577  return _tFeeTotal */\n      swap1\n      pop\n        /* \"contracts/samples/reflect_sample.sol\":3498:3585  function totalFees() public view returns (uint256) {... */\n      swap1\n      jump\t// out\n        /* \"contracts/samples/reflect_sample.sol\":1752:1847  function totalSupply() public pure override returns (uint256) {... */\n    tag_46:\n        /* \"contracts/samples/reflect_sample.sol\":1805:1812  uint256 */\n      0x00\n        /* \"contracts/samples/reflect_sample.sol\":1100:1118  10 * 10**6 * 10**9 */\n      0x2386f26fc10000\n        /* \"contracts/samples/reflect_sample.sol\":1825:1839  return _tTotal */\n      swap1\n      pop\n        /* \"contracts/samples/reflect_sample.sol\":1752:1847  function totalSupply() public pure override returns (uint256) {... */\n      swap1\n      jump\t// out\n        /* \"contracts/samples/reflect_sample.sol\":2556:2869  function transferFrom(address sender, address recipient, uint256 amount) public override returns (bool) {... */\n    tag_51:\n        /* \"contracts/samples/reflect_sample.sol\":2654:2658  bool */\n      0x00\n        /* \"contracts/samples/reflect_sample.sol\":2671:2707  _transfer(sender, recipient, amount) */\n      tag_137\n        /* \"contracts/samples/reflect_sample.sol\":2681:2687  sender */\n      dup5\n        /* \"contracts/samples/reflect_sample.sol\":2689:2698  recipient */\n      dup5\n        /* \"contracts/samples/reflect_sample.sol\":2700:2706  amount */\n      dup5\n        /* \"contracts/samples/reflect_sample.sol\":2671:2680  _transfer */\n      tag_138\n        /* \"contracts/samples/reflect_sample.sol\":2671:2707  _transfer(sender, recipient, amount) */\n      jump\t// in\n    tag_137:\n        /* \"contracts/samples/reflect_sample.sol\":2718:2839  _approve(sender, _msgSender(), _allowances[sender][_msgSender()].sub(amount, \"ERC20: transfer amount exceeds allowance\")) */\n      tag_139\n        /* \"contracts/samples/reflect_sample.sol\":2727:2733  sender */\n      dup5\n        /* \"contracts/samples/reflect_sample.sol\":2735:2747  _msgSender() */\n      tag_140\n        /* \"contracts/samples/reflect_sample.sol\":2735:2745  _msgSender */\n      tag_112\n        /* \"contracts/samples/reflect_sample.sol\":2735:2747  _msgSender() */\n      jump\t// in\n    tag_140:\n        /* \"contracts/samples/reflect_sample.sol\":2749:2838  _allowances[sender][_msgSender()].sub(amount, \"ERC20: transfer amount exceeds allowance\") */\n      tag_141\n        /* \"contracts/samples/reflect_sample.sol\":2787:2793  amount */\n      dup6\n        /* \"contracts/samples/reflect_sample.sol\":2749:2838  _allowances[sender][_msgSender()].sub(amount, \"ERC20: transfer amount exceeds allowance\") */\n      mload(0x40)\n      dup1\n      0x60\n      add\n      0x40\n      mstore\n      dup1\n      0x28\n      dup2\n      mstore\n      0x20\n      add\n      data_974d1b4421da69cc60b481194f0dad36a5bb4e23da810da7a7fb30cdba178330\n      0x28\n      swap2\n      codecopy\n        /* \"contracts/samples/reflect_sample.sol\":2749:2760  _allowances */\n      0x03\n        /* \"contracts/samples/reflect_sample.sol\":2749:2768  _allowances[sender] */\n      0x00\n        /* \"contracts/samples/reflect_sample.sol\":2761:2767  sender */\n      dup12\n        /* \"contracts/samples/reflect_sample.sol\":2749:2768  _allowances[sender] */\n      0xffffffffffffffffffffffffffffffffffffffff\n      and\n      0xffffffffffffffffffffffffffffffffffffffff\n      and\n      dup2\n      mstore\n      0x20\n      add\n      swap1\n      dup2\n      mstore\n      0x20\n      add\n      0x00\n      keccak256\n        /* \"contracts/samples/reflect_sample.sol\":2749:2782  _allowances[sender][_msgSender()] */\n      0x00\n        /* \"contracts/samples/reflect_sample.sol\":2769:2781  _msgSender() */\n      tag_142\n        /* \"contracts/samples/reflect_sample.sol\":2769:2779  _msgSender */\n      tag_112\n        /* \"contracts/samples/reflect_sample.sol\":2769:2781  _msgSender() */\n      jump\t// in\n    tag_142:\n        /* \"contracts/samples/reflect_sample.sol\":2749:2782  _allowances[sender][_msgSender()] */\n      0xffffffffffffffffffffffffffffffffffffffff\n      and\n      0xffffffffffffffffffffffffffffffffffffffff\n      and\n      dup2\n      mstore\n      0x20\n      add\n      swap1\n      dup2\n      mstore\n      0x20\n      add\n      0x00\n      keccak256\n      sload\n        /* \"contracts/samples/reflect_sample.sol\":2749:2786  _allowances[sender][_msgSender()].sub */\n      tag_143\n      swap1\n        /* \"contracts/samples/reflect_sample.sol\":2749:2838  _allowances[sender][_msgSender()].sub(amount, \"ERC20: transfer amount exceeds allowance\") */\n      swap3\n      swap2\n      swap1\n      0xffffffff\n      and\n      jump\t// in\n    tag_141:\n        /* \"contracts/samples/reflect_sample.sol\":2718:2726  _approve */\n      tag_133\n        /* \"contracts/samples/reflect_sample.sol\":2718:2839  _approve(sender, _msgSender(), _allowances[sender][_msgSender()].sub(amount, \"ERC20: transfer amount exceeds allowance\")) */\n      jump\t// in\n    tag_139:\n        /* \"contracts/samples/reflect_sample.sol\":2857:2861  true */\n      0x01\n        /* \"contracts/samples/reflect_sample.sol\":2850:2861  return true */\n      swap1\n      pop\n        /* \"contracts/samples/reflect_sample.sol\":2556:2869  function transferFrom(address sender, address recipient, uint256 amount) public override returns (bool) {... */\n      swap4\n      swap3\n      pop\n      pop\n      pop\n      jump\t// out\n        /* \"contracts/samples/reflect_sample.sol\":4419:4672  function tokenFromReflection(uint256 rAmount) public view returns(uint256) {... */\n    tag_55:\n        /* \"contracts/samples/reflect_sample.sol\":4485:4492  uint256 */\n      0x00\n        /* \"contracts/samples/reflect_sample.sol\":4524:4531  _rTotal */\n      sload(0x06)\n        /* \"contracts/samples/reflect_sample.sol\":4513:4520  rAmount */\n      dup3\n        /* \"contracts/samples/reflect_sample.sol\":4513:4531  rAmount <= _rTotal */\n      gt\n      iszero\n        /* \"contracts/samples/reflect_sample.sol\":4505:4578  require(rAmount <= _rTotal, \"Amount must be less than total reflections\") */\n      tag_145\n      jumpi\n      mload(0x40)\n      0x08c379a000000000000000000000000000000000000000000000000000000000\n      dup2\n      mstore\n      0x04\n      add\n      tag_146\n      swap1\n      tag_147\n      jump\t// in\n    tag_146:\n      mload(0x40)\n      dup1\n      swap2\n      sub\n      swap1\n      revert\n    tag_145:\n        /* \"contracts/samples/reflect_sample.sol\":4589:4608  uint256 currentRate */\n      0x00\n        /* \"contracts/samples/reflect_sample.sol\":4612:4622  _getRate() */\n      tag_148\n        /* \"contracts/samples/reflect_sample.sol\":4612:4620  _getRate */\n      tag_149\n        /* \"contracts/samples/reflect_sample.sol\":4612:4622  _getRate() */\n      jump\t// in\n    tag_148:\n        /* \"contracts/samples/reflect_sample.sol\":4589:4622  uint256 currentRate =  _getRate() */\n      swap1\n      pop\n        /* \"contracts/samples/reflect_sample.sol\":4640:4664  rAmount.div(currentRate) */\n      tag_150\n        /* \"contracts/samples/reflect_sample.sol\":4652:4663  currentRate */\n      dup2\n        /* \"contracts/samples/reflect_sample.sol\":4640:4647  rAmount */\n      dup5\n        /* \"contracts/samples/reflect_sample.sol\":4640:4651  rAmount.div */\n      tag_151\n      swap1\n        /* \"contracts/samples/reflect_sample.sol\":4640:4664  rAmount.div(currentRate) */\n      swap2\n      swap1\n      0xffffffff\n      and\n      jump\t// in\n    tag_150:\n        /* \"contracts/samples/reflect_sample.sol\":4633:4664  return rAmount.div(currentRate) */\n      swap2\n      pop\n      pop\n        /* \"contracts/samples/reflect_sample.sol\":4419:4672  function tokenFromReflection(uint256 rAmount) public view returns(uint256) {... */\n      swap2\n      swap1\n      pop\n      jump\t// out\n        /* \"contracts/samples/reflect_sample.sol\":1661:1744  function decimals() public view returns (uint8) {... */\n    tag_58:\n        /* \"contracts/samples/reflect_sample.sol\":1702:1707  uint8 */\n      0x00\n        /* \"contracts/samples/reflect_sample.sol\":1727:1736  _decimals */\n      0x0a\n      0x00\n      swap1\n      sload\n      swap1\n      0x0100\n      exp\n      swap1\n      div\n      0xff\n      and\n        /* \"contracts/samples/reflect_sample.sol\":1720:1736  return _decimals */\n      swap1\n      pop\n        /* \"contracts/samples/reflect_sample.sol\":1661:1744  function decimals() public view returns (uint8) {... */\n      swap1\n      jump\t// out\n        /* \"contracts/samples/reflect_sample.sol\":2877:3095  function increaseAllowance(address spender, uint256 addedValue) public virtual returns (bool) {... */\n    tag_63:\n        /* \"contracts/samples/reflect_sample.sol\":2965:2969  bool */\n      0x00\n        /* \"contracts/samples/reflect_sample.sol\":2982:3065  _approve(_msgSender(), spender, _allowances[_msgSender()][spender].add(addedValue)) */\n      tag_154\n        /* \"contracts/samples/reflect_sample.sol\":2991:3003  _msgSender() */\n      tag_155\n        /* \"contracts/samples/reflect_sample.sol\":2991:3001  _msgSender */\n      tag_112\n        /* \"contracts/samples/reflect_sample.sol\":2991:3003  _msgSender() */\n      jump\t// in\n    tag_155:\n        /* \"contracts/samples/reflect_sample.sol\":3005:3012  spender */\n      dup5\n        /* \"contracts/samples/reflect_sample.sol\":3014:3064  _allowances[_msgSender()][spender].add(addedValue) */\n      tag_156\n        /* \"contracts/samples/reflect_sample.sol\":3053:3063  addedValue */\n      dup6\n        /* \"contracts/samples/reflect_sample.sol\":3014:3025  _allowances */\n      0x03\n        /* \"contracts/samples/reflect_sample.sol\":3014:3039  _allowances[_msgSender()] */\n      0x00\n        /* \"contracts/samples/reflect_sample.sol\":3026:3038  _msgSender() */\n      tag_157\n        /* \"contracts/samples/reflect_sample.sol\":3026:3036  _msgSender */\n      tag_112\n        /* \"contracts/samples/reflect_sample.sol\":3026:3038  _msgSender() */\n      jump\t// in\n    tag_157:\n        /* \"contracts/samples/reflect_sample.sol\":3014:3039  _allowances[_msgSender()] */\n      0xffffffffffffffffffffffffffffffffffffffff\n      and\n      0xffffffffffffffffffffffffffffffffffffffff\n      and\n      dup2\n      mstore\n      0x20\n      add\n      swap1\n      dup2\n      mstore\n      0x20\n      add\n      0x00\n      keccak256\n        /* \"contracts/samples/reflect_sample.sol\":3014:3048  _allowances[_msgSender()][spender] */\n      0x00\n        /* \"contracts/samples/reflect_sample.sol\":3040:3047  spender */\n      dup10\n        /* \"contracts/samples/reflect_sample.sol\":3014:3048  _allowances[_msgSender()][spender] */\n      0xffffffffffffffffffffffffffffffffffffffff\n      and\n      0xffffffffffffffffffffffffffffffffffffffff\n      and\n      dup2\n      mstore\n      0x20\n      add\n      swap1\n      dup2\n      mstore\n      0x20\n      add\n      0x00\n      keccak256\n      sload\n        /* \"contracts/samples/reflect_sample.sol\":3014:3052  _allowances[_msgSender()][spender].add */\n      tag_122\n      swap1\n        /* \"contracts/samples/reflect_sample.sol\":3014:3064  _allowances[_msgSender()][spender].add(addedValue) */\n      swap2\n      swap1\n      0xffffffff\n      and\n      jump\t// in\n    tag_156:\n        /* \"contracts/samples/reflect_sample.sol\":2982:2990  _approve */\n      tag_133\n        /* \"contracts/samples/reflect_sample.sol\":2982:3065  _approve(_msgSender(), spender, _allowances[_msgSender()][spender].add(addedValue)) */\n      jump\t// in\n    tag_154:\n        /* \"contracts/samples/reflect_sample.sol\":3083:3087  true */\n      0x01\n        /* \"contracts/samples/reflect_sample.sol\":3076:3087  return true */\n      swap1\n      pop\n        /* \"contracts/samples/reflect_sample.sol\":2877:3095  function increaseAllowance(address spender, uint256 addedValue) public virtual returns (bool) {... */\n      swap3\n      swap2\n      pop\n      pop\n      jump\t// out\n        /* \"contracts/samples/reflect_sample.sol\":3977:4411  function reflectionFromToken(uint256 tAmount, bool deductTransferFee) public view returns(uint256) {... */\n    tag_68:\n        /* \"contracts/samples/reflect_sample.sol\":4067:4074  uint256 */\n      0x00\n        /* \"contracts/samples/reflect_sample.sol\":1100:1118  10 * 10**6 * 10**9 */\n      0x2386f26fc10000\n        /* \"contracts/samples/reflect_sample.sol\":4095:4102  tAmount */\n      dup4\n        /* \"contracts/samples/reflect_sample.sol\":4095:4113  tAmount <= _tTotal */\n      gt\n      iszero\n        /* \"contracts/samples/reflect_sample.sol\":4087:4149  require(tAmount <= _tTotal, \"Amount must be less than supply\") */\n      tag_159\n      jumpi\n      mload(0x40)\n      0x08c379a000000000000000000000000000000000000000000000000000000000\n      dup2\n      mstore\n      0x04\n      add\n      tag_160\n      swap1\n      tag_161\n      jump\t// in\n    tag_160:\n      mload(0x40)\n      dup1\n      swap2\n      sub\n      swap1\n      revert\n    tag_159:\n        /* \"contracts/samples/reflect_sample.sol\":4165:4182  deductTransferFee */\n      dup2\n        /* \"contracts/samples/reflect_sample.sol\":4160:4404  if (!deductTransferFee) {... */\n      tag_162\n      jumpi\n        /* \"contracts/samples/reflect_sample.sol\":4200:4215  uint256 rAmount */\n      0x00\n        /* \"contracts/samples/reflect_sample.sol\":4223:4242  _getValues(tAmount) */\n      tag_163\n        /* \"contracts/samples/reflect_sample.sol\":4234:4241  tAmount */\n      dup5\n        /* \"contracts/samples/reflect_sample.sol\":4223:4233  _getValues */\n      tag_117\n        /* \"contracts/samples/reflect_sample.sol\":4223:4242  _getValues(tAmount) */\n      jump\t// in\n    tag_163:\n        /* \"contracts/samples/reflect_sample.sol\":4199:4242  (uint256 rAmount,,,,) = _getValues(tAmount) */\n      pop\n      pop\n      pop\n      pop\n      swap1\n      pop\n        /* \"contracts/samples/reflect_sample.sol\":4264:4271  rAmount */\n      dup1\n        /* \"contracts/samples/reflect_sample.sol\":4257:4271  return rAmount */\n      swap2\n      pop\n      pop\n      jump(tag_158)\n        /* \"contracts/samples/reflect_sample.sol\":4160:4404  if (!deductTransferFee) {... */\n    tag_162:\n        /* \"contracts/samples/reflect_sample.sol\":4306:4329  uint256 rTransferAmount */\n      0x00\n        /* \"contracts/samples/reflect_sample.sol\":4336:4355  _getValues(tAmount) */\n      tag_165\n        /* \"contracts/samples/reflect_sample.sol\":4347:4354  tAmount */\n      dup5\n        /* \"contracts/samples/reflect_sample.sol\":4336:4346  _getValues */\n      tag_117\n        /* \"contracts/samples/reflect_sample.sol\":4336:4355  _getValues(tAmount) */\n      jump\t// in\n    tag_165:\n        /* \"contracts/samples/reflect_sample.sol\":4304:4355  (,uint256 rTransferAmount,,,) = _getValues(tAmount) */\n      pop\n      pop\n      pop\n      swap2\n      pop\n      pop\n        /* \"contracts/samples/reflect_sample.sol\":4377:4392  rTransferAmount */\n      dup1\n        /* \"contracts/samples/reflect_sample.sol\":4370:4392  return rTransferAmount */\n      swap2\n      pop\n      pop\n        /* \"contracts/samples/reflect_sample.sol\":3977:4411  function reflectionFromToken(uint256 tAmount, bool deductTransferFee) public view returns(uint256) {... */\n    tag_158:\n      swap3\n      swap2\n      pop\n      pop\n      jump\t// out\n        /* \"contracts/samples/reflect_sample.sol\":1855:2053  function balanceOf(address account) public view override returns (uint256) {... */\n    tag_73:\n        /* \"contracts/samples/reflect_sample.sol\":1921:1928  uint256 */\n      0x00\n        /* \"contracts/samples/reflect_sample.sol\":1945:1956  _isExcluded */\n      0x04\n        /* \"contracts/samples/reflect_sample.sol\":1945:1965  _isExcluded[account] */\n      0x00\n        /* \"contracts/samples/reflect_sample.sol\":1957:1964  account */\n      dup4\n        /* \"contracts/samples/reflect_sample.sol\":1945:1965  _isExcluded[account] */\n      0xffffffffffffffffffffffffffffffffffffffff\n      and\n      0xffffffffffffffffffffffffffffffffffffffff\n      and\n      dup2\n      mstore\n      0x20\n      add\n      swap1\n      dup2\n      mstore\n      0x20\n      add\n      0x00\n      keccak256\n      0x00\n      swap1\n      sload\n      swap1\n      0x0100\n      exp\n      swap1\n      div\n      0xff\n      and\n        /* \"contracts/samples/reflect_sample.sol\":1941:1990  if (_isExcluded[account]) return _tOwned[account] */\n      iszero\n      tag_167\n      jumpi\n        /* \"contracts/samples/reflect_sample.sol\":1974:1981  _tOwned */\n      0x02\n        /* \"contracts/samples/reflect_sample.sol\":1974:1990  _tOwned[account] */\n      0x00\n        /* \"contracts/samples/reflect_sample.sol\":1982:1989  account */\n      dup4\n        /* \"contracts/samples/reflect_sample.sol\":1974:1990  _tOwned[account] */\n      0xffffffffffffffffffffffffffffffffffffffff\n      and\n      0xffffffffffffffffffffffffffffffffffffffff\n      and\n      dup2\n      mstore\n      0x20\n      add\n      swap1\n      dup2\n      mstore\n      0x20\n      add\n      0x00\n      keccak256\n      sload\n        /* \"contracts/samples/reflect_sample.sol\":1967:1990  return _tOwned[account] */\n      swap1\n      pop\n      jump(tag_166)\n        /* \"contracts/samples/reflect_sample.sol\":1941:1990  if (_isExcluded[account]) return _tOwned[account] */\n    tag_167:\n        /* \"contracts/samples/reflect_sample.sol\":2008:2045  tokenFromReflection(_rOwned[account]) */\n      tag_168\n        /* \"contracts/samples/reflect_sample.sol\":2028:2035  _rOwned */\n      0x01\n        /* \"contracts/samples/reflect_sample.sol\":2028:2044  _rOwned[account] */\n      0x00\n        /* \"contracts/samples/reflect_sample.sol\":2036:2043  account */\n      dup5\n        /* \"contracts/samples/reflect_sample.sol\":2028:2044  _rOwned[account] */\n      0xffffffffffffffffffffffffffffffffffffffff\n      and\n      0xffffffffffffffffffffffffffffffffffffffff\n      and\n      dup2\n      mstore\n      0x20\n      add\n      swap1\n      dup2\n      mstore\n      0x20\n      add\n      0x00\n      keccak256\n      sload\n        /* \"contracts/samples/reflect_sample.sol\":2008:2027  tokenFromReflection */\n      tag_55\n        /* \"contracts/samples/reflect_sample.sol\":2008:2045  tokenFromReflection(_rOwned[account]) */\n      jump\t// in\n    tag_168:\n        /* \"contracts/samples/reflect_sample.sol\":2001:2045  return tokenFromReflection(_rOwned[account]) */\n      swap1\n      pop\n        /* \"contracts/samples/reflect_sample.sol\":1855:2053  function balanceOf(address account) public view override returns (uint256) {... */\n    tag_166:\n      swap2\n      swap1\n      pop\n      jump\t// out\n        /* \"contracts/openzeppelin-contracts-release-v4.9/contracts/access/Ownable.sol\":1824:1925  function renounceOwnership() public virtual onlyOwner {... */\n    tag_76:\n        /* \"contracts/openzeppelin-contracts-release-v4.9/contracts/access/Ownable.sol\":1094:1107  _checkOwner() */\n      tag_170\n        /* \"contracts/openzeppelin-contracts-release-v4.9/contracts/access/Ownable.sol\":1094:1105  _checkOwner */\n      tag_171\n        /* \"contracts/openzeppelin-contracts-release-v4.9/contracts/access/Ownable.sol\":1094:1107  _checkOwner() */\n      jump\t// in\n    tag_170:\n        /* \"contracts/openzeppelin-contracts-release-v4.9/contracts/access/Ownable.sol\":1888:1918  _transferOwnership(address(0)) */\n      tag_173\n        /* \"contracts/openzeppelin-contracts-release-v4.9/contracts/access/Ownable.sol\":1915:1916  0 */\n      0x00\n        /* \"contracts/openzeppelin-contracts-release-v4.9/contracts/access/Ownable.sol\":1888:1906  _transferOwnership */\n      tag_174\n        /* \"contracts/openzeppelin-contracts-release-v4.9/contracts/access/Ownable.sol\":1888:1918  _transferOwnership(address(0)) */\n      jump\t// in\n    tag_173:\n        /* \"contracts/openzeppelin-contracts-release-v4.9/contracts/access/Ownable.sol\":1824:1925  function renounceOwnership() public virtual onlyOwner {... */\n      jump\t// out\n        /* \"contracts/openzeppelin-contracts-release-v4.9/contracts/access/Ownable.sol\":1201:1286  function owner() public view virtual returns (address) {... */\n    tag_78:\n        /* \"contracts/openzeppelin-contracts-release-v4.9/contracts/access/Ownable.sol\":1247:1254  address */\n      0x00\n        /* \"contracts/openzeppelin-contracts-release-v4.9/contracts/access/Ownable.sol\":1273:1279  _owner */\n      dup1\n      0x00\n      swap1\n      sload\n      swap1\n      0x0100\n      exp\n      swap1\n      div\n      0xffffffffffffffffffffffffffffffffffffffff\n      and\n        /* \"contracts/openzeppelin-contracts-release-v4.9/contracts/access/Ownable.sol\":1266:1279  return _owner */\n      swap1\n      pop\n        /* \"contracts/openzeppelin-contracts-release-v4.9/contracts/access/Ownable.sol\":1201:1286  function owner() public view virtual returns (address) {... */\n      swap1\n      jump\t// out\n        /* \"contracts/samples/reflect_sample.sol\":1566:1653  function symbol() public view returns (string memory) {... */\n    tag_82:\n        /* \"contracts/samples/reflect_sample.sol\":1605:1618  string memory */\n      0x60\n        /* \"contracts/samples/reflect_sample.sol\":1638:1645  _symbol */\n      0x09\n        /* \"contracts/samples/reflect_sample.sol\":1631:1645  return _symbol */\n      dup1\n      sload\n      tag_177\n      swap1\n      tag_125\n      jump\t// in\n    tag_177:\n      dup1\n      0x1f\n      add\n      0x20\n      dup1\n      swap2\n      div\n      mul\n      0x20\n      add\n      mload(0x40)\n      swap1\n      dup2\n      add\n      0x40\n      mstore\n      dup1\n      swap3\n      swap2\n      swap1\n      dup2\n      dup2\n      mstore\n      0x20\n      add\n      dup3\n      dup1\n      sload\n      tag_178\n      swap1\n      tag_125\n      jump\t// in\n    tag_178:\n      dup1\n      iszero\n      tag_179\n      jumpi\n      dup1\n      0x1f\n      lt\n      tag_180\n      jumpi\n      0x0100\n      dup1\n      dup4\n      sload\n      div\n      mul\n      dup4\n      mstore\n      swap2\n      0x20\n      add\n      swap2\n      jump(tag_179)\n    tag_180:\n      dup3\n      add\n      swap2\n      swap1\n      0x00\n      mstore\n      keccak256(0x00, 0x20)\n      swap1\n    tag_181:\n      dup2\n      sload\n      dup2\n      mstore\n      swap1\n      0x01\n      add\n      swap1\n      0x20\n      add\n      dup1\n      dup4\n      gt\n      tag_181\n      jumpi\n      dup3\n      swap1\n      sub\n      0x1f\n      and\n      dup3\n      add\n      swap2\n    tag_179:\n      pop\n      pop\n      pop\n      pop\n      pop\n      swap1\n      pop\n        /* \"contracts/samples/reflect_sample.sol\":1566:1653  function symbol() public view returns (string memory) {... */\n      swap1\n      jump\t// out\n        /* \"contracts/samples/reflect_sample.sol\":3103:3372  function decreaseAllowance(address spender, uint256 subtractedValue) public virtual returns (bool) {... */\n    tag_86:\n        /* \"contracts/samples/reflect_sample.sol\":3196:3200  bool */\n      0x00\n        /* \"contracts/samples/reflect_sample.sol\":3213:3342  _approve(_msgSender(), spender, _allowances[_msgSender()][spender].sub(subtractedValue, \"ERC20: decreased allowance below zero\")) */\n      tag_183\n        /* \"contracts/samples/reflect_sample.sol\":3222:3234  _msgSender() */\n      tag_184\n        /* \"contracts/samples/reflect_sample.sol\":3222:3232  _msgSender */\n      tag_112\n        /* \"contracts/samples/reflect_sample.sol\":3222:3234  _msgSender() */\n      jump\t// in\n    tag_184:\n        /* \"contracts/samples/reflect_sample.sol\":3236:3243  spender */\n      dup5\n        /* \"contracts/samples/reflect_sample.sol\":3245:3341  _allowances[_msgSender()][spender].sub(subtractedValue, \"ERC20: decreased allowance below zero\") */\n      tag_185\n        /* \"contracts/samples/reflect_sample.sol\":3284:3299  subtractedValue */\n      dup6\n        /* \"contracts/samples/reflect_sample.sol\":3245:3341  _allowances[_msgSender()][spender].sub(subtractedValue, \"ERC20: decreased allowance below zero\") */\n      mload(0x40)\n      dup1\n      0x60\n      add\n      0x40\n      mstore\n      dup1\n      0x25\n      dup2\n      mstore\n      0x20\n      add\n      data_f8b476f7d28209d77d4a4ac1fe36b9f8259aa1bb6bddfa6e89de7e51615cf8a8\n      0x25\n      swap2\n      codecopy\n        /* \"contracts/samples/reflect_sample.sol\":3245:3256  _allowances */\n      0x03\n        /* \"contracts/samples/reflect_sample.sol\":3245:3270  _allowances[_msgSender()] */\n      0x00\n        /* \"contracts/samples/reflect_sample.sol\":3257:3269  _msgSender() */\n      tag_186\n        /* \"contracts/samples/reflect_sample.sol\":3257:3267  _msgSender */\n      tag_112\n        /* \"contracts/samples/reflect_sample.sol\":3257:3269  _msgSender() */\n      jump\t// in\n    tag_186:\n        /* \"contracts/samples/reflect_sample.sol\":3245:3270  _allowances[_msgSender()] */\n      0xffffffffffffffffffffffffffffffffffffffff\n      and\n      0xffffffffffffffffffffffffffffffffffffffff\n      and\n      dup2\n      mstore\n      0x20\n      add\n      swap1\n      dup2\n      mstore\n      0x20\n      add\n      0x00\n      keccak256\n        /* \"contracts/samples/reflect_sample.sol\":3245:3279  _allowances[_msgSender()][spender] */\n      0x00\n        /* \"contracts/samples/reflect_sample.sol\":3271:3278  spender */\n      dup11\n        /* \"contracts/samples/reflect_sample.sol\":3245:3279  _allowances[_msgSender()][spender] */\n      0xffffffffffffffffffffffffffffffffffffffff\n      and\n      0xffffffffffffffffffffffffffffffffffffffff\n      and\n      dup2\n      mstore\n      0x20\n      add\n      swap1\n      dup2\n      mstore\n      0x20\n      add\n      0x00\n      keccak256\n      sload\n        /* \"contracts/samples/reflect_sample.sol\":3245:3283  _allowances[_msgSender()][spender].sub */\n      tag_143\n      swap1\n        /* \"contracts/samples/reflect_sample.sol\":3245:3341  _allowances[_msgSender()][spender].sub(subtractedValue, \"ERC20: decreased allowance below zero\") */\n      swap3\n      swap2\n      swap1\n      0xffffffff\n      and\n      jump\t// in\n    tag_185:\n        /* \"contracts/samples/reflect_sample.sol\":3213:3221  _approve */\n      tag_133\n        /* \"contracts/samples/reflect_sample.sol\":3213:3342  _approve(_msgSender(), spender, _allowances[_msgSender()][spender].sub(subtractedValue, \"ERC20: decreased allowance below zero\")) */\n      jump\t// in\n    tag_183:\n        /* \"contracts/samples/reflect_sample.sol\":3360:3364  true */\n      0x01\n        /* \"contracts/samples/reflect_sample.sol\":3353:3364  return true */\n      swap1\n      pop\n        /* \"contracts/samples/reflect_sample.sol\":3103:3372  function decreaseAllowance(address spender, uint256 subtractedValue) public virtual returns (bool) {... */\n      swap3\n      swap2\n      pop\n      pop\n      jump\t// out\n        /* \"contracts/samples/reflect_sample.sol\":2061:2228  function transfer(address recipient, uint256 amount) public override returns (bool) {... */\n    tag_90:\n        /* \"contracts/samples/reflect_sample.sol\":2139:2143  bool */\n      0x00\n        /* \"contracts/samples/reflect_sample.sol\":2156:2198  _transfer(_msgSender(), recipient, amount) */\n      tag_188\n        /* \"contracts/samples/reflect_sample.sol\":2166:2178  _msgSender() */\n      tag_189\n        /* \"contracts/samples/reflect_sample.sol\":2166:2176  _msgSender */\n      tag_112\n        /* \"contracts/samples/reflect_sample.sol\":2166:2178  _msgSender() */\n      jump\t// in\n    tag_189:\n        /* \"contracts/samples/reflect_sample.sol\":2180:2189  recipient */\n      dup5\n        /* \"contracts/samples/reflect_sample.sol\":2191:2197  amount */\n      dup5\n        /* \"contracts/samples/reflect_sample.sol\":2156:2165  _transfer */\n      tag_138\n        /* \"contracts/samples/reflect_sample.sol\":2156:2198  _transfer(_msgSender(), recipient, amount) */\n      jump\t// in\n    tag_188:\n        /* \"contracts/samples/reflect_sample.sol\":2216:2220  true */\n      0x01\n        /* \"contracts/samples/reflect_sample.sol\":2209:2220  return true */\n      swap1\n      pop\n        /* \"contracts/samples/reflect_sample.sol\":2061:2228  function transfer(address recipient, uint256 amount) public override returns (bool) {... */\n      swap3\n      swap2\n      pop\n      pop\n      jump\t// out\n        /* \"contracts/samples/reflect_sample.sol\":3380:3490  function isExcluded(address account) public view returns (bool) {... */\n    tag_94:\n        /* \"contracts/samples/reflect_sample.sol\":3438:3442  bool */\n      0x00\n        /* \"contracts/samples/reflect_sample.sol\":3462:3473  _isExcluded */\n      0x04\n        /* \"contracts/samples/reflect_sample.sol\":3462:3482  _isExcluded[account] */\n      0x00\n        /* \"contracts/samples/reflect_sample.sol\":3474:3481  account */\n      dup4\n        /* \"contracts/samples/reflect_sample.sol\":3462:3482  _isExcluded[account] */\n      0xffffffffffffffffffffffffffffffffffffffff\n      and\n      0xffffffffffffffffffffffffffffffffffffffff\n      and\n      dup2\n      mstore\n      0x20\n      add\n      swap1\n      dup2\n      mstore\n      0x20\n      add\n      0x00\n      keccak256\n      0x00\n      swap1\n      sload\n      swap1\n      0x0100\n      exp\n      swap1\n      div\n      0xff\n      and\n        /* \"contracts/samples/reflect_sample.sol\":3455:3482  return _isExcluded[account] */\n      swap1\n      pop\n        /* \"contracts/samples/reflect_sample.sol\":3380:3490  function isExcluded(address account) public view returns (bool) {... */\n      swap2\n      swap1\n      pop\n      jump\t// out\n        /* \"contracts/samples/reflect_sample.sol\":2236:2379  function allowance(address owner, address spender) public view override returns (uint256) {... */\n    tag_99:\n        /* \"contracts/samples/reflect_sample.sol\":2317:2324  uint256 */\n      0x00\n        /* \"contracts/samples/reflect_sample.sol\":2344:2355  _allowances */\n      0x03\n        /* \"contracts/samples/reflect_sample.sol\":2344:2362  _allowances[owner] */\n      0x00\n        /* \"contracts/samples/reflect_sample.sol\":2356:2361  owner */\n      dup5\n        /* \"contracts/samples/reflect_sample.sol\":2344:2362  _allowances[owner] */\n      0xffffffffffffffffffffffffffffffffffffffff\n      and\n      0xffffffffffffffffffffffffffffffffffffffff\n      and\n      dup2\n      mstore\n      0x20\n      add\n      swap1\n      dup2\n      mstore\n      0x20\n      add\n      0x00\n      keccak256\n        /* \"contracts/samples/reflect_sample.sol\":2344:2371  _allowances[owner][spender] */\n      0x00\n        /* \"contracts/samples/reflect_sample.sol\":2363:2370  spender */\n      dup4\n        /* \"contracts/samples/reflect_sample.sol\":2344:2371  _allowances[owner][spender] */\n      0xffffffffffffffffffffffffffffffffffffffff\n      and\n      0xffffffffffffffffffffffffffffffffffffffff\n      and\n      dup2\n      mstore\n      0x20\n      add\n      swap1\n      dup2\n      mstore\n      0x20\n      add\n      0x00\n      keccak256\n      sload\n        /* \"contracts/samples/reflect_sample.sol\":2337:2371  return _allowances[owner][spender] */\n      swap1\n      pop\n        /* \"contracts/samples/reflect_sample.sol\":2236:2379  function allowance(address owner, address spender) public view override returns (uint256) {... */\n      swap3\n      swap2\n      pop\n      pop\n      jump\t// out\n        /* \"contracts/samples/reflect_sample.sol\":4680:5012  function excludeAccount(address account) external onlyOwner() {... */\n    tag_103:\n        /* \"contracts/openzeppelin-contracts-release-v4.9/contracts/access/Ownable.sol\":1094:1107  _checkOwner() */\n      tag_193\n        /* \"contracts/openzeppelin-contracts-release-v4.9/contracts/access/Ownable.sol\":1094:1105  _checkOwner */\n      tag_171\n        /* \"contracts/openzeppelin-contracts-release-v4.9/contracts/access/Ownable.sol\":1094:1107  _checkOwner() */\n      jump\t// in\n    tag_193:\n        /* \"contracts/samples/reflect_sample.sol\":4762:4773  _isExcluded */\n      0x04\n        /* \"contracts/samples/reflect_sample.sol\":4762:4782  _isExcluded[account] */\n      0x00\n        /* \"contracts/samples/reflect_sample.sol\":4774:4781  account */\n      dup3\n        /* \"contracts/samples/reflect_sample.sol\":4762:4782  _isExcluded[account] */\n      0xffffffffffffffffffffffffffffffffffffffff\n      and\n      0xffffffffffffffffffffffffffffffffffffffff\n      and\n      dup2\n      mstore\n      0x20\n      add\n      swap1\n      dup2\n      mstore\n      0x20\n      add\n      0x00\n      keccak256\n      0x00\n      swap1\n      sload\n      swap1\n      0x0100\n      exp\n      swap1\n      div\n      0xff\n      and\n        /* \"contracts/samples/reflect_sample.sol\":4761:4782  !_isExcluded[account] */\n      iszero\n        /* \"contracts/samples/reflect_sample.sol\":4753:4814  require(!_isExcluded[account], \"Account is already excluded\") */\n      tag_195\n      jumpi\n      mload(0x40)\n      0x08c379a000000000000000000000000000000000000000000000000000000000\n      dup2\n      mstore\n      0x04\n      add\n      tag_196\n      swap1\n      tag_197\n      jump\t// in\n    tag_196:\n      mload(0x40)\n      dup1\n      swap2\n      sub\n      swap1\n      revert\n    tag_195:\n        /* \"contracts/samples/reflect_sample.sol\":4847:4848  0 */\n      0x00\n        /* \"contracts/samples/reflect_sample.sol\":4828:4835  _rOwned */\n      0x01\n        /* \"contracts/samples/reflect_sample.sol\":4828:4844  _rOwned[account] */\n      0x00\n        /* \"contracts/samples/reflect_sample.sol\":4836:4843  account */\n      dup4\n        /* \"contracts/samples/reflect_sample.sol\":4828:4844  _rOwned[account] */\n      0xffffffffffffffffffffffffffffffffffffffff\n      and\n      0xffffffffffffffffffffffffffffffffffffffff\n      and\n      dup2\n      mstore\n      0x20\n      add\n      swap1\n      dup2\n      mstore\n      0x20\n      add\n      0x00\n      keccak256\n      sload\n        /* \"contracts/samples/reflect_sample.sol\":4828:4848  _rOwned[account] > 0 */\n      gt\n        /* \"contracts/samples/reflect_sample.sol\":4825:4933  if(_rOwned[account] > 0) {... */\n      iszero\n      tag_198\n      jumpi\n        /* \"contracts/samples/reflect_sample.sol\":4884:4921  tokenFromReflection(_rOwned[account]) */\n      tag_199\n        /* \"contracts/samples/reflect_sample.sol\":4904:4911  _rOwned */\n      0x01\n        /* \"contracts/samples/reflect_sample.sol\":4904:4920  _rOwned[account] */\n      0x00\n        /* \"contracts/samples/reflect_sample.sol\":4912:4919  account */\n      dup4\n        /* \"contracts/samples/reflect_sample.sol\":4904:4920  _rOwned[account] */\n      0xffffffffffffffffffffffffffffffffffffffff\n      and\n      0xffffffffffffffffffffffffffffffffffffffff\n      and\n      dup2\n      mstore\n      0x20\n      add\n      swap1\n      dup2\n      mstore\n      0x20\n      add\n      0x00\n      keccak256\n      sload\n        /* \"contracts/samples/reflect_sample.sol\":4884:4903  tokenFromReflection */\n      tag_55\n        /* \"contracts/samples/reflect_sample.sol\":4884:4921  tokenFromReflection(_rOwned[account]) */\n      jump\t// in\n    tag_199:\n        /* \"contracts/samples/reflect_sample.sol\":4865:4872  _tOwned */\n      0x02\n        /* \"contracts/samples/reflect_sample.sol\":4865:4881  _tOwned[account] */\n      0x00\n        /* \"contracts/samples/reflect_sample.sol\":4873:4880  account */\n      dup4\n        /* \"contracts/samples/reflect_sample.sol\":4865:4881  _tOwned[account] */\n      0xffffffffffffffffffffffffffffffffffffffff\n      and\n      0xffffffffffffffffffffffffffffffffffffffff\n      and\n      dup2\n      mstore\n      0x20\n      add\n      swap1\n      dup2\n      mstore\n      0x20\n      add\n      0x00\n      keccak256\n        /* \"contracts/samples/reflect_sample.sol\":4865:4921  _tOwned[account] = tokenFromReflection(_rOwned[account]) */\n      dup2\n      swap1\n      sstore\n      pop\n        /* \"contracts/samples/reflect_sample.sol\":4825:4933  if(_rOwned[account] > 0) {... */\n    tag_198:\n        /* \"contracts/samples/reflect_sample.sol\":4966:4970  true */\n      0x01\n        /* \"contracts/samples/reflect_sample.sol\":4943:4954  _isExcluded */\n      0x04\n        /* \"contracts/samples/reflect_sample.sol\":4943:4963  _isExcluded[account] */\n      0x00\n        /* \"contracts/samples/reflect_sample.sol\":4955:4962  account */\n      dup4\n        /* \"contracts/samples/reflect_sample.sol\":4943:4963  _isExcluded[account] */\n      0xffffffffffffffffffffffffffffffffffffffff\n      and\n      0xffffffffffffffffffffffffffffffffffffffff\n      and\n      dup2\n      mstore\n      0x20\n      add\n      swap1\n      dup2\n      mstore\n      0x20\n      add\n      0x00\n      keccak256\n      0x00\n        /* \"contracts/samples/reflect_sample.sol\":4943:4970  _isExcluded[account] = true */\n      0x0100\n      exp\n      dup2\n      sload\n      dup2\n      0xff\n      mul\n      not\n      and\n      swap1\n      dup4\n      iszero\n      iszero\n      mul\n      or\n      swap1\n      sstore\n      pop\n        /* \"contracts/samples/reflect_sample.sol\":4981:4990  _excluded */\n      0x05\n        /* \"contracts/samples/reflect_sample.sol\":4996:5003  account */\n      dup2\n        /* \"contracts/samples/reflect_sample.sol\":4981:5004  _excluded.push(account) */\n      swap1\n      dup1\n      0x01\n      dup2\n      sload\n      add\n      dup1\n      dup3\n      sstore\n      dup1\n      swap2\n      pop\n      pop\n      0x01\n      swap1\n      sub\n      swap1\n      0x00\n      mstore\n      keccak256(0x00, 0x20)\n      add\n      0x00\n      swap1\n      swap2\n      swap1\n      swap2\n      swap1\n      swap2\n      0x0100\n      exp\n      dup2\n      sload\n      dup2\n      0xffffffffffffffffffffffffffffffffffffffff\n      mul\n      not\n      and\n      swap1\n      dup4\n      0xffffffffffffffffffffffffffffffffffffffff\n      and\n      mul\n      or\n      swap1\n      sstore\n      pop\n        /* \"contracts/samples/reflect_sample.sol\":4680:5012  function excludeAccount(address account) external onlyOwner() {... */\n      pop\n      jump\t// out\n        /* \"contracts/openzeppelin-contracts-release-v4.9/contracts/access/Ownable.sol\":2074:2272  function transferOwnership(address newOwner) public virtual onlyOwner {... */\n    tag_106:\n        /* \"contracts/openzeppelin-contracts-release-v4.9/contracts/access/Ownable.sol\":1094:1107  _checkOwner() */\n      tag_202\n        /* \"contracts/openzeppelin-contracts-release-v4.9/contracts/access/Ownable.sol\":1094:1105  _checkOwner */\n      tag_171\n        /* \"contracts/openzeppelin-contracts-release-v4.9/contracts/access/Ownable.sol\":1094:1107  _checkOwner() */\n      jump\t// in\n    tag_202:\n        /* \"contracts/openzeppelin-contracts-release-v4.9/contracts/access/Ownable.sol\":2182:2183  0 */\n      0x00\n        /* \"contracts/openzeppelin-contracts-release-v4.9/contracts/access/Ownable.sol\":2162:2184  newOwner != address(0) */\n      0xffffffffffffffffffffffffffffffffffffffff\n      and\n        /* \"contracts/openzeppelin-contracts-release-v4.9/contracts/access/Ownable.sol\":2162:2170  newOwner */\n      dup2\n        /* \"contracts/openzeppelin-contracts-release-v4.9/contracts/access/Ownable.sol\":2162:2184  newOwner != address(0) */\n      0xffffffffffffffffffffffffffffffffffffffff\n      and\n      sub\n        /* \"contracts/openzeppelin-contracts-release-v4.9/contracts/access/Ownable.sol\":2154:2227  require(newOwner != address(0), \"Ownable: new owner is the zero address\") */\n      tag_204\n      jumpi\n      mload(0x40)\n      0x08c379a000000000000000000000000000000000000000000000000000000000\n      dup2\n      mstore\n      0x04\n      add\n      tag_205\n      swap1\n      tag_206\n      jump\t// in\n    tag_205:\n      mload(0x40)\n      dup1\n      swap2\n      sub\n      swap1\n      revert\n    tag_204:\n        /* \"contracts/openzeppelin-contracts-release-v4.9/contracts/access/Ownable.sol\":2237:2265  _transferOwnership(newOwner) */\n      tag_207\n        /* \"contracts/openzeppelin-contracts-release-v4.9/contracts/access/Ownable.sol\":2256:2264  newOwner */\n      dup2\n        /* \"contracts/openzeppelin-contracts-release-v4.9/contracts/access/Ownable.sol\":2237:2255  _transferOwnership */\n      tag_174\n        /* \"contracts/openzeppelin-contracts-release-v4.9/contracts/access/Ownable.sol\":2237:2265  _transferOwnership(newOwner) */\n      jump\t// in\n    tag_207:\n        /* \"contracts/openzeppelin-contracts-release-v4.9/contracts/access/Ownable.sol\":2074:2272  function transferOwnership(address newOwner) public virtual onlyOwner {... */\n      pop\n      jump\t// out\n        /* \"contracts/samples/reflect_sample.sol\":5020:5498  function includeAccount(address account) external onlyOwner() {... */\n    tag_109:\n        /* \"contracts/openzeppelin-contracts-release-v4.9/contracts/access/Ownable.sol\":1094:1107  _checkOwner() */\n      tag_209\n        /* \"contracts/openzeppelin-contracts-release-v4.9/contracts/access/Ownable.sol\":1094:1105  _checkOwner */\n      tag_171\n        /* \"contracts/openzeppelin-contracts-release-v4.9/contracts/access/Ownable.sol\":1094:1107  _checkOwner() */\n      jump\t// in\n    tag_209:\n        /* \"contracts/samples/reflect_sample.sol\":5101:5112  _isExcluded */\n      0x04\n        /* \"contracts/samples/reflect_sample.sol\":5101:5121  _isExcluded[account] */\n      0x00\n        /* \"contracts/samples/reflect_sample.sol\":5113:5120  account */\n      dup3\n        /* \"contracts/samples/reflect_sample.sol\":5101:5121  _isExcluded[account] */\n      0xffffffffffffffffffffffffffffffffffffffff\n      and\n      0xffffffffffffffffffffffffffffffffffffffff\n      and\n      dup2\n      mstore\n      0x20\n      add\n      swap1\n      dup2\n      mstore\n      0x20\n      add\n      0x00\n      keccak256\n      0x00\n      swap1\n      sload\n      swap1\n      0x0100\n      exp\n      swap1\n      div\n      0xff\n      and\n        /* \"contracts/samples/reflect_sample.sol\":5093:5153  require(_isExcluded[account], \"Account is already excluded\") */\n      tag_211\n      jumpi\n      mload(0x40)\n      0x08c379a000000000000000000000000000000000000000000000000000000000\n      dup2\n      mstore\n      0x04\n      add\n      tag_212\n      swap1\n      tag_197\n      jump\t// in\n    tag_212:\n      mload(0x40)\n      dup1\n      swap2\n      sub\n      swap1\n      revert\n    tag_211:\n        /* \"contracts/samples/reflect_sample.sol\":5169:5178  uint256 i */\n      0x00\n        /* \"contracts/samples/reflect_sample.sol\":5164:5491  for (uint256 i = 0; i < _excluded.length; i++) {... */\n    tag_213:\n        /* \"contracts/samples/reflect_sample.sol\":5188:5197  _excluded */\n      0x05\n        /* \"contracts/samples/reflect_sample.sol\":5188:5204  _excluded.length */\n      dup1\n      sload\n      swap1\n      pop\n        /* \"contracts/samples/reflect_sample.sol\":5184:5185  i */\n      dup2\n        /* \"contracts/samples/reflect_sample.sol\":5184:5204  i < _excluded.length */\n      lt\n        /* \"contracts/samples/reflect_sample.sol\":5164:5491  for (uint256 i = 0; i < _excluded.length; i++) {... */\n      iszero\n      tag_214\n      jumpi\n        /* \"contracts/samples/reflect_sample.sol\":5246:5253  account */\n      dup2\n        /* \"contracts/samples/reflect_sample.sol\":5230:5253  _excluded[i] == account */\n      0xffffffffffffffffffffffffffffffffffffffff\n      and\n        /* \"contracts/samples/reflect_sample.sol\":5230:5239  _excluded */\n      0x05\n        /* \"contracts/samples/reflect_sample.sol\":5240:5241  i */\n      dup3\n        /* \"contracts/samples/reflect_sample.sol\":5230:5242  _excluded[i] */\n      dup2\n      sload\n      dup2\n      lt\n      tag_216\n      jumpi\n      tag_217\n      tag_218\n      jump\t// in\n    tag_217:\n    tag_216:\n      swap1\n      0x00\n      mstore\n      keccak256(0x00, 0x20)\n      add\n      0x00\n      swap1\n      sload\n      swap1\n      0x0100\n      exp\n      swap1\n      div\n      0xffffffffffffffffffffffffffffffffffffffff\n      and\n        /* \"contracts/samples/reflect_sample.sol\":5230:5253  _excluded[i] == account */\n      0xffffffffffffffffffffffffffffffffffffffff\n      and\n      sub\n        /* \"contracts/samples/reflect_sample.sol\":5226:5480  if (_excluded[i] == account) {... */\n      tag_220\n      jumpi\n        /* \"contracts/samples/reflect_sample.sol\":5289:5298  _excluded */\n      0x05\n        /* \"contracts/samples/reflect_sample.sol\":5318:5319  1 */\n      0x01\n        /* \"contracts/samples/reflect_sample.sol\":5299:5308  _excluded */\n      0x05\n        /* \"contracts/samples/reflect_sample.sol\":5299:5315  _excluded.length */\n      dup1\n      sload\n      swap1\n      pop\n        /* \"contracts/samples/reflect_sample.sol\":5299:5319  _excluded.length - 1 */\n      tag_221\n      swap2\n      swap1\n      tag_222\n      jump\t// in\n    tag_221:\n        /* \"contracts/samples/reflect_sample.sol\":5289:5320  _excluded[_excluded.length - 1] */\n      dup2\n      sload\n      dup2\n      lt\n      tag_223\n      jumpi\n      tag_224\n      tag_218\n      jump\t// in\n    tag_224:\n    tag_223:\n      swap1\n      0x00\n      mstore\n      keccak256(0x00, 0x20)\n      add\n      0x00\n      swap1\n      sload\n      swap1\n      0x0100\n      exp\n      swap1\n      div\n      0xffffffffffffffffffffffffffffffffffffffff\n      and\n        /* \"contracts/samples/reflect_sample.sol\":5274:5283  _excluded */\n      0x05\n        /* \"contracts/samples/reflect_sample.sol\":5284:5285  i */\n      dup3\n        /* \"contracts/samples/reflect_sample.sol\":5274:5286  _excluded[i] */\n      dup2\n      sload\n      dup2\n      lt\n      tag_226\n      jumpi\n      tag_227\n      tag_218\n      jump\t// in\n    tag_227:\n    tag_226:\n      swap1\n      0x00\n      mstore\n      keccak256(0x00, 0x20)\n      add\n      0x00\n        /* \"contracts/samples/reflect_sample.sol\":5274:5320  _excluded[i] = _excluded[_excluded.length - 1] */\n      0x0100\n      exp\n      dup2\n      sload\n      dup2\n      0xffffffffffffffffffffffffffffffffffffffff\n      mul\n      not\n      and\n      swap1\n      dup4\n      0xffffffffffffffffffffffffffffffffffffffff\n      and\n      mul\n      or\n      swap1\n      sstore\n      pop\n        /* \"contracts/samples/reflect_sample.sol\":5358:5359  0 */\n      0x00\n        /* \"contracts/samples/reflect_sample.sol\":5339:5346  _tOwned */\n      0x02\n        /* \"contracts/samples/reflect_sample.sol\":5339:5355  _tOwned[account] */\n      0x00\n        /* \"contracts/samples/reflect_sample.sol\":5347:5354  account */\n      dup5\n        /* \"contracts/samples/reflect_sample.sol\":5339:5355  _tOwned[account] */\n      0xffffffffffffffffffffffffffffffffffffffff\n      and\n      0xffffffffffffffffffffffffffffffffffffffff\n      and\n      dup2\n      mstore\n      0x20\n      add\n      swap1\n      dup2\n      mstore\n      0x20\n      add\n      0x00\n      keccak256\n        /* \"contracts/samples/reflect_sample.sol\":5339:5359  _tOwned[account] = 0 */\n      dup2\n      swap1\n      sstore\n      pop\n        /* \"contracts/samples/reflect_sample.sol\":5401:5406  false */\n      0x00\n        /* \"contracts/samples/reflect_sample.sol\":5378:5389  _isExcluded */\n      0x04\n        /* \"contracts/samples/reflect_sample.sol\":5378:5398  _isExcluded[account] */\n      0x00\n        /* \"contracts/samples/reflect_sample.sol\":5390:5397  account */\n      dup5\n        /* \"contracts/samples/reflect_sample.sol\":5378:5398  _isExcluded[account] */\n      0xffffffffffffffffffffffffffffffffffffffff\n      and\n      0xffffffffffffffffffffffffffffffffffffffff\n      and\n      dup2\n      mstore\n      0x20\n      add\n      swap1\n      dup2\n      mstore\n      0x20\n      add\n      0x00\n      keccak256\n      0x00\n        /* \"contracts/samples/reflect_sample.sol\":5378:5406  _isExcluded[account] = false */\n      0x0100\n      exp\n      dup2\n      sload\n      dup2\n      0xff\n      mul\n      not\n      and\n      swap1\n      dup4\n      iszero\n      iszero\n      mul\n      or\n      swap1\n      sstore\n      pop\n        /* \"contracts/samples/reflect_sample.sol\":5425:5434  _excluded */\n      0x05\n        /* \"contracts/samples/reflect_sample.sol\":5425:5440  _excluded.pop() */\n      dup1\n      sload\n      dup1\n      tag_229\n      jumpi\n      tag_230\n      tag_231\n      jump\t// in\n    tag_230:\n    tag_229:\n      0x01\n      swap1\n      sub\n      dup2\n      dup2\n      swap1\n      0x00\n      mstore\n      keccak256(0x00, 0x20)\n      add\n      exp(0x0100, 0x00)\n      dup2\n      sload\n      swap1\n      0xffffffffffffffffffffffffffffffffffffffff\n      mul\n      not\n      and\n      swap1\n      sstore\n      swap1\n      sstore\n        /* \"contracts/samples/reflect_sample.sol\":5459:5464  break */\n      jump(tag_214)\n        /* \"contracts/samples/reflect_sample.sol\":5226:5480  if (_excluded[i] == account) {... */\n    tag_220:\n        /* \"contracts/samples/reflect_sample.sol\":5206:5209  i++ */\n      dup1\n      dup1\n      tag_233\n      swap1\n      tag_234\n      jump\t// in\n    tag_233:\n      swap2\n      pop\n      pop\n        /* \"contracts/samples/reflect_sample.sol\":5164:5491  for (uint256 i = 0; i < _excluded.length; i++) {... */\n      jump(tag_213)\n    tag_214:\n      pop\n        /* \"contracts/samples/reflect_sample.sol\":5020:5498  function includeAccount(address account) external onlyOwner() {... */\n      pop\n      jump\t// out\n        /* \"contracts/openzeppelin-contracts-release-v4.9/contracts/utils/Context.sol\":640:736  function _msgSender() internal view virtual returns (address) {... */\n    tag_112:\n        /* \"contracts/openzeppelin-contracts-release-v4.9/contracts/utils/Context.sol\":693:700  address */\n      0x00\n        /* \"contracts/openzeppelin-contracts-release-v4.9/contracts/utils/Context.sol\":719:729  msg.sender */\n      caller\n        /* \"contracts/openzeppelin-contracts-release-v4.9/contracts/utils/Context.sol\":712:729  return msg.sender */\n      swap1\n      pop\n        /* \"contracts/openzeppelin-contracts-release-v4.9/contracts/utils/Context.sol\":640:736  function _msgSender() internal view virtual returns (address) {... */\n      swap1\n      jump\t// out\n        /* \"contracts/samples/reflect_sample.sol\":9052:9463  function _getValues(uint256 tAmount) private view returns (uint256, uint256, uint256, uint256, uint256) {... */\n    tag_117:\n        /* \"contracts/samples/reflect_sample.sol\":9111:9118  uint256 */\n      0x00\n        /* \"contracts/samples/reflect_sample.sol\":9120:9127  uint256 */\n      dup1\n        /* \"contracts/samples/reflect_sample.sol\":9129:9136  uint256 */\n      0x00\n        /* \"contracts/samples/reflect_sample.sol\":9138:9145  uint256 */\n      dup1\n        /* \"contracts/samples/reflect_sample.sol\":9147:9154  uint256 */\n      0x00\n        /* \"contracts/samples/reflect_sample.sol\":9168:9191  uint256 tTransferAmount */\n      dup1\n        /* \"contracts/samples/reflect_sample.sol\":9193:9205  uint256 tFee */\n      0x00\n        /* \"contracts/samples/reflect_sample.sol\":9209:9229  _getTValues(tAmount) */\n      tag_237\n        /* \"contracts/samples/reflect_sample.sol\":9221:9228  tAmount */\n      dup9\n        /* \"contracts/samples/reflect_sample.sol\":9209:9220  _getTValues */\n      tag_238\n        /* \"contracts/samples/reflect_sample.sol\":9209:9229  _getTValues(tAmount) */\n      jump\t// in\n    tag_237:\n        /* \"contracts/samples/reflect_sample.sol\":9167:9229  (uint256 tTransferAmount, uint256 tFee) = _getTValues(tAmount) */\n      swap2\n      pop\n      swap2\n      pop\n        /* \"contracts/samples/reflect_sample.sol\":9240:9259  uint256 currentRate */\n      0x00\n        /* \"contracts/samples/reflect_sample.sol\":9263:9273  _getRate() */\n      tag_239\n        /* \"contracts/samples/reflect_sample.sol\":9263:9271  _getRate */\n      tag_149\n        /* \"contracts/samples/reflect_sample.sol\":9263:9273  _getRate() */\n      jump\t// in\n    tag_239:\n        /* \"contracts/samples/reflect_sample.sol\":9240:9273  uint256 currentRate =  _getRate() */\n      swap1\n      pop\n        /* \"contracts/samples/reflect_sample.sol\":9285:9300  uint256 rAmount */\n      0x00\n        /* \"contracts/samples/reflect_sample.sol\":9302:9325  uint256 rTransferAmount */\n      dup1\n        /* \"contracts/samples/reflect_sample.sol\":9327:9339  uint256 rFee */\n      0x00\n        /* \"contracts/samples/reflect_sample.sol\":9343:9382  _getRValues(tAmount, tFee, currentRate) */\n      tag_240\n        /* \"contracts/samples/reflect_sample.sol\":9355:9362  tAmount */\n      dup13\n        /* \"contracts/samples/reflect_sample.sol\":9364:9368  tFee */\n      dup7\n        /* \"contracts/samples/reflect_sample.sol\":9370:9381  currentRate */\n      dup7\n        /* \"contracts/samples/reflect_sample.sol\":9343:9354  _getRValues */\n      tag_241\n        /* \"contracts/samples/reflect_sample.sol\":9343:9382  _getRValues(tAmount, tFee, currentRate) */\n      jump\t// in\n    tag_240:\n        /* \"contracts/samples/reflect_sample.sol\":9284:9382  (uint256 rAmount, uint256 rTransferAmount, uint256 rFee) = _getRValues(tAmount, tFee, currentRate) */\n      swap3\n      pop\n      swap3\n      pop\n      swap3\n      pop\n        /* \"contracts/samples/reflect_sample.sol\":9401:9408  rAmount */\n      dup3\n        /* \"contracts/samples/reflect_sample.sol\":9410:9425  rTransferAmount */\n      dup3\n        /* \"contracts/samples/reflect_sample.sol\":9427:9431  rFee */\n      dup3\n        /* \"contracts/samples/reflect_sample.sol\":9433:9448  tTransferAmount */\n      dup9\n        /* \"contracts/samples/reflect_sample.sol\":9450:9454  tFee */\n      dup9\n        /* \"contracts/samples/reflect_sample.sol\":9393:9455  return (rAmount, rTransferAmount, rFee, tTransferAmount, tFee) */\n      swap11\n      pop\n      swap11\n      pop\n      swap11\n      pop\n      swap11\n      pop\n      swap11\n      pop\n      pop\n      pop\n      pop\n      pop\n      pop\n      pop\n        /* \"contracts/samples/reflect_sample.sol\":9052:9463  function _getValues(uint256 tAmount) private view returns (uint256, uint256, uint256, uint256, uint256) {... */\n      swap2\n      swap4\n      swap6\n      swap1\n      swap3\n      swap5\n      pop\n      jump\t// out\n        /* \"contracts/openzeppelin-contracts-release-v4.9/contracts/utils/math/SafeMath.sol\":3122:3218  function sub(uint256 a, uint256 b) internal pure returns (uint256) {... */\n    tag_119:\n        /* \"contracts/openzeppelin-contracts-release-v4.9/contracts/utils/math/SafeMath.sol\":3180:3187  uint256 */\n      0x00\n        /* \"contracts/openzeppelin-contracts-release-v4.9/contracts/utils/math/SafeMath.sol\":3210:3211  b */\n      dup2\n        /* \"contracts/openzeppelin-contracts-release-v4.9/contracts/utils/math/SafeMath.sol\":3206:3207  a */\n      dup4\n        /* \"contracts/openzeppelin-contracts-release-v4.9/contracts/utils/math/SafeMath.sol\":3206:3211  a - b */\n      tag_243\n      swap2\n      swap1\n      tag_222\n      jump\t// in\n    tag_243:\n        /* \"contracts/openzeppelin-contracts-release-v4.9/contracts/utils/math/SafeMath.sol\":3199:3211  return a - b */\n      swap1\n      pop\n        /* \"contracts/openzeppelin-contracts-release-v4.9/contracts/utils/math/SafeMath.sol\":3122:3218  function sub(uint256 a, uint256 b) internal pure returns (uint256) {... */\n      swap3\n      swap2\n      pop\n      pop\n      jump\t// out\n        /* \"contracts/openzeppelin-contracts-release-v4.9/contracts/utils/math/SafeMath.sol\":2755:2851  function add(uint256 a, uint256 b) internal pure returns (uint256) {... */\n    tag_122:\n        /* \"contracts/openzeppelin-contracts-release-v4.9/contracts/utils/math/SafeMath.sol\":2813:2820  uint256 */\n      0x00\n        /* \"contracts/openzeppelin-contracts-release-v4.9/contracts/utils/math/SafeMath.sol\":2843:2844  b */\n      dup2\n        /* \"contracts/openzeppelin-contracts-release-v4.9/contracts/utils/math/SafeMath.sol\":2839:2840  a */\n      dup4\n        /* \"contracts/openzeppelin-contracts-release-v4.9/contracts/utils/math/SafeMath.sol\":2839:2844  a + b */\n      tag_245\n      swap2\n      swap1\n      tag_246\n      jump\t// in\n    tag_245:\n        /* \"contracts/openzeppelin-contracts-release-v4.9/contracts/utils/math/SafeMath.sol\":2832:2844  return a + b */\n      swap1\n      pop\n        /* \"contracts/openzeppelin-contracts-release-v4.9/contracts/utils/math/SafeMath.sol\":2755:2851  function add(uint256 a, uint256 b) internal pure returns (uint256) {... */\n      swap3\n      swap2\n      pop\n      pop\n      jump\t// out\n        /* \"contracts/samples/reflect_sample.sol\":5506:5843  function _approve(address owner, address spender, uint256 amount) private {... */\n    tag_133:\n        /* \"contracts/samples/reflect_sample.sol\":5616:5617  0 */\n      0x00\n        /* \"contracts/samples/reflect_sample.sol\":5599:5618  owner != address(0) */\n      0xffffffffffffffffffffffffffffffffffffffff\n      and\n        /* \"contracts/samples/reflect_sample.sol\":5599:5604  owner */\n      dup4\n        /* \"contracts/samples/reflect_sample.sol\":5599:5618  owner != address(0) */\n      0xffffffffffffffffffffffffffffffffffffffff\n      and\n      sub\n        /* \"contracts/samples/reflect_sample.sol\":5591:5659  require(owner != address(0), \"ERC20: approve from the zero address\") */\n      tag_248\n      jumpi\n      mload(0x40)\n      0x08c379a000000000000000000000000000000000000000000000000000000000\n      dup2\n      mstore\n      0x04\n      add\n      tag_249\n      swap1\n      tag_250\n      jump\t// in\n    tag_249:\n      mload(0x40)\n      dup1\n      swap2\n      sub\n      swap1\n      revert\n    tag_248:\n        /* \"contracts/samples/reflect_sample.sol\":5697:5698  0 */\n      0x00\n        /* \"contracts/samples/reflect_sample.sol\":5678:5699  spender != address(0) */\n      0xffffffffffffffffffffffffffffffffffffffff\n      and\n        /* \"contracts/samples/reflect_sample.sol\":5678:5685  spender */\n      dup3\n        /* \"contracts/samples/reflect_sample.sol\":5678:5699  spender != address(0) */\n      0xffffffffffffffffffffffffffffffffffffffff\n      and\n      sub\n        /* \"contracts/samples/reflect_sample.sol\":5670:5738  require(spender != address(0), \"ERC20: approve to the zero address\") */\n      tag_251\n      jumpi\n      mload(0x40)\n      0x08c379a000000000000000000000000000000000000000000000000000000000\n      dup2\n      mstore\n      0x04\n      add\n      tag_252\n      swap1\n      tag_253\n      jump\t// in\n    tag_252:\n      mload(0x40)\n      dup1\n      swap2\n      sub\n      swap1\n      revert\n    tag_251:\n        /* \"contracts/samples/reflect_sample.sol\":5781:5787  amount */\n      dup1\n        /* \"contracts/samples/reflect_sample.sol\":5751:5762  _allowances */\n      0x03\n        /* \"contracts/samples/reflect_sample.sol\":5751:5769  _allowances[owner] */\n      0x00\n        /* \"contracts/samples/reflect_sample.sol\":5763:5768  owner */\n      dup6\n        /* \"contracts/samples/reflect_sample.sol\":5751:5769  _allowances[owner] */\n      0xffffffffffffffffffffffffffffffffffffffff\n      and\n      0xffffffffffffffffffffffffffffffffffffffff\n      and\n      dup2\n      mstore\n      0x20\n      add\n      swap1\n      dup2\n      mstore\n      0x20\n      add\n      0x00\n      keccak256\n        /* \"contracts/samples/reflect_sample.sol\":5751:5778  _allowances[owner][spender] */\n      0x00\n        /* \"contracts/samples/reflect_sample.sol\":5770:5777  spender */\n      dup5\n        /* \"contracts/samples/reflect_sample.sol\":5751:5778  _allowances[owner][spender] */\n      0xffffffffffffffffffffffffffffffffffffffff\n      and\n      0xffffffffffffffffffffffffffffffffffffffff\n      and\n      dup2\n      mstore\n      0x20\n      add\n      swap1\n      dup2\n      mstore\n      0x20\n      add\n      0x00\n      keccak256\n        /* \"contracts/samples/reflect_sample.sol\":5751:5787  _allowances[owner][spender] = amount */\n      dup2\n      swap1\n      sstore\n      pop\n        /* \"contracts/samples/reflect_sample.sol\":5819:5826  spender */\n      dup2\n        /* \"contracts/samples/reflect_sample.sol\":5803:5835  Approval(owner, spender, amount) */\n      0xffffffffffffffffffffffffffffffffffffffff\n      and\n        /* \"contracts/samples/reflect_sample.sol\":5812:5817  owner */\n      dup4\n        /* \"contracts/samples/reflect_sample.sol\":5803:5835  Approval(owner, spender, amount) */\n      0xffffffffffffffffffffffffffffffffffffffff\n      and\n      0x8c5be1e5ebec7d5bd14f71427d1e84f3dd0314c0f7b2291e5b200ac8c7c3b925\n        /* \"contracts/samples/reflect_sample.sol\":5828:5834  amount */\n      dup4\n        /* \"contracts/samples/reflect_sample.sol\":5803:5835  Approval(owner, spender, amount) */\n      mload(0x40)\n      tag_254\n      swap2\n      swap1\n      tag_44\n      jump\t// in\n    tag_254:\n      mload(0x40)\n      dup1\n      swap2\n      sub\n      swap1\n      log3\n        /* \"contracts/samples/reflect_sample.sol\":5506:5843  function _approve(address owner, address spender, uint256 amount) private {... */\n      pop\n      pop\n      pop\n      jump\t// out\n        /* \"contracts/samples/reflect_sample.sol\":5851:6782  function _transfer(address sender, address recipient, uint256 amount) private {... */\n    tag_138:\n        /* \"contracts/samples/reflect_sample.sol\":5966:5967  0 */\n      0x00\n        /* \"contracts/samples/reflect_sample.sol\":5948:5968  sender != address(0) */\n      0xffffffffffffffffffffffffffffffffffffffff\n      and\n        /* \"contracts/samples/reflect_sample.sol\":5948:5954  sender */\n      dup4\n        /* \"contracts/samples/reflect_sample.sol\":5948:5968  sender != address(0) */\n      0xffffffffffffffffffffffffffffffffffffffff\n      and\n      sub\n        /* \"contracts/samples/reflect_sample.sol\":5940:6010  require(sender != address(0), \"ERC20: transfer from the zero address\") */\n      tag_256\n      jumpi\n      mload(0x40)\n      0x08c379a000000000000000000000000000000000000000000000000000000000\n      dup2\n      mstore\n      0x04\n      add\n      tag_257\n      swap1\n      tag_258\n      jump\t// in\n    tag_257:\n      mload(0x40)\n      dup1\n      swap2\n      sub\n      swap1\n      revert\n    tag_256:\n        /* \"contracts/samples/reflect_sample.sol\":6050:6051  0 */\n      0x00\n        /* \"contracts/samples/reflect_sample.sol\":6029:6052  recipient != address(0) */\n      0xffffffffffffffffffffffffffffffffffffffff\n      and\n        /* \"contracts/samples/reflect_sample.sol\":6029:6038  recipient */\n      dup3\n        /* \"contracts/samples/reflect_sample.sol\":6029:6052  recipient != address(0) */\n      0xffffffffffffffffffffffffffffffffffffffff\n      and\n      sub\n        /* \"contracts/samples/reflect_sample.sol\":6021:6092  require(recipient != address(0), \"ERC20: transfer to the zero address\") */\n      tag_259\n      jumpi\n      mload(0x40)\n      0x08c379a000000000000000000000000000000000000000000000000000000000\n      dup2\n      mstore\n      0x04\n      add\n      tag_260\n      swap1\n      tag_261\n      jump\t// in\n    tag_260:\n      mload(0x40)\n      dup1\n      swap2\n      sub\n      swap1\n      revert\n    tag_259:\n        /* \"contracts/samples/reflect_sample.sol\":6120:6121  0 */\n      0x00\n        /* \"contracts/samples/reflect_sample.sol\":6111:6117  amount */\n      dup2\n        /* \"contracts/samples/reflect_sample.sol\":6111:6121  amount > 0 */\n      gt\n        /* \"contracts/samples/reflect_sample.sol\":6103:6167  require(amount > 0, \"Transfer amount must be greater than zero\") */\n      tag_262\n      jumpi\n      mload(0x40)\n      0x08c379a000000000000000000000000000000000000000000000000000000000\n      dup2\n      mstore\n      0x04\n      add\n      tag_263\n      swap1\n      tag_264\n      jump\t// in\n    tag_263:\n      mload(0x40)\n      dup1\n      swap2\n      sub\n      swap1\n      revert\n    tag_262:\n        /* \"contracts/samples/reflect_sample.sol\":6182:6193  _isExcluded */\n      0x04\n        /* \"contracts/samples/reflect_sample.sol\":6182:6201  _isExcluded[sender] */\n      0x00\n        /* \"contracts/samples/reflect_sample.sol\":6194:6200  sender */\n      dup5\n        /* \"contracts/samples/reflect_sample.sol\":6182:6201  _isExcluded[sender] */\n      0xffffffffffffffffffffffffffffffffffffffff\n      and\n      0xffffffffffffffffffffffffffffffffffffffff\n      and\n      dup2\n      mstore\n      0x20\n      add\n      swap1\n      dup2\n      mstore\n      0x20\n      add\n      0x00\n      keccak256\n      0x00\n      swap1\n      sload\n      swap1\n      0x0100\n      exp\n      swap1\n      div\n      0xff\n      and\n        /* \"contracts/samples/reflect_sample.sol\":6182:6228  _isExcluded[sender] && !_isExcluded[recipient] */\n      dup1\n      iszero\n      tag_265\n      jumpi\n      pop\n        /* \"contracts/samples/reflect_sample.sol\":6206:6217  _isExcluded */\n      0x04\n        /* \"contracts/samples/reflect_sample.sol\":6206:6228  _isExcluded[recipient] */\n      0x00\n        /* \"contracts/samples/reflect_sample.sol\":6218:6227  recipient */\n      dup4\n        /* \"contracts/samples/reflect_sample.sol\":6206:6228  _isExcluded[recipient] */\n      0xffffffffffffffffffffffffffffffffffffffff\n      and\n      0xffffffffffffffffffffffffffffffffffffffff\n      and\n      dup2\n      mstore\n      0x20\n      add\n      swap1\n      dup2\n      mstore\n      0x20\n      add\n      0x00\n      keccak256\n      0x00\n      swap1\n      sload\n      swap1\n      0x0100\n      exp\n      swap1\n      div\n      0xff\n      and\n        /* \"contracts/samples/reflect_sample.sol\":6205:6228  !_isExcluded[recipient] */\n      iszero\n        /* \"contracts/samples/reflect_sample.sol\":6182:6228  _isExcluded[sender] && !_isExcluded[recipient] */\n    tag_265:\n        /* \"contracts/samples/reflect_sample.sol\":6178:6775  if (_isExcluded[sender] && !_isExcluded[recipient]) {... */\n      iszero\n      tag_266\n      jumpi\n        /* \"contracts/samples/reflect_sample.sol\":6245:6293  _transferFromExcluded(sender, recipient, amount) */\n      tag_267\n        /* \"contracts/samples/reflect_sample.sol\":6267:6273  sender */\n      dup4\n        /* \"contracts/samples/reflect_sample.sol\":6275:6284  recipient */\n      dup4\n        /* \"contracts/samples/reflect_sample.sol\":6286:6292  amount */\n      dup4\n        /* \"contracts/samples/reflect_sample.sol\":6245:6266  _transferFromExcluded */\n      tag_268\n        /* \"contracts/samples/reflect_sample.sol\":6245:6293  _transferFromExcluded(sender, recipient, amount) */\n      jump\t// in\n    tag_267:\n        /* \"contracts/samples/reflect_sample.sol\":6178:6775  if (_isExcluded[sender] && !_isExcluded[recipient]) {... */\n      jump(tag_269)\n    tag_266:\n        /* \"contracts/samples/reflect_sample.sol\":6316:6327  _isExcluded */\n      0x04\n        /* \"contracts/samples/reflect_sample.sol\":6316:6335  _isExcluded[sender] */\n      0x00\n        /* \"contracts/samples/reflect_sample.sol\":6328:6334  sender */\n      dup5\n        /* \"contracts/samples/reflect_sample.sol\":6316:6335  _isExcluded[sender] */\n      0xffffffffffffffffffffffffffffffffffffffff\n      and\n      0xffffffffffffffffffffffffffffffffffffffff\n      and\n      dup2\n      mstore\n      0x20\n      add\n      swap1\n      dup2\n      mstore\n      0x20\n      add\n      0x00\n      keccak256\n      0x00\n      swap1\n      sload\n      swap1\n      0x0100\n      exp\n      swap1\n      div\n      0xff\n      and\n        /* \"contracts/samples/reflect_sample.sol\":6315:6335  !_isExcluded[sender] */\n      iszero\n        /* \"contracts/samples/reflect_sample.sol\":6315:6361  !_isExcluded[sender] && _isExcluded[recipient] */\n      dup1\n      iszero\n      tag_270\n      jumpi\n      pop\n        /* \"contracts/samples/reflect_sample.sol\":6339:6350  _isExcluded */\n      0x04\n        /* \"contracts/samples/reflect_sample.sol\":6339:6361  _isExcluded[recipient] */\n      0x00\n        /* \"contracts/samples/reflect_sample.sol\":6351:6360  recipient */\n      dup4\n        /* \"contracts/samples/reflect_sample.sol\":6339:6361  _isExcluded[recipient] */\n      0xffffffffffffffffffffffffffffffffffffffff\n      and\n      0xffffffffffffffffffffffffffffffffffffffff\n      and\n      dup2\n      mstore\n      0x20\n      add\n      swap1\n      dup2\n      mstore\n      0x20\n      add\n      0x00\n      keccak256\n      0x00\n      swap1\n      sload\n      swap1\n      0x0100\n      exp\n      swap1\n      div\n      0xff\n      and\n        /* \"contracts/samples/reflect_sample.sol\":6315:6361  !_isExcluded[sender] && _isExcluded[recipient] */\n    tag_270:\n        /* \"contracts/samples/reflect_sample.sol\":6311:6775  if (!_isExcluded[sender] && _isExcluded[recipient]) {... */\n      iszero\n      tag_271\n      jumpi\n        /* \"contracts/samples/reflect_sample.sol\":6378:6424  _transferToExcluded(sender, recipient, amount) */\n      tag_272\n        /* \"contracts/samples/reflect_sample.sol\":6398:6404  sender */\n      dup4\n        /* \"contracts/samples/reflect_sample.sol\":6406:6415  recipient */\n      dup4\n        /* \"contracts/samples/reflect_sample.sol\":6417:6423  amount */\n      dup4\n        /* \"contracts/samples/reflect_sample.sol\":6378:6397  _transferToExcluded */\n      tag_273\n        /* \"contracts/samples/reflect_sample.sol\":6378:6424  _transferToExcluded(sender, recipient, amount) */\n      jump\t// in\n    tag_272:\n        /* \"contracts/samples/reflect_sample.sol\":6311:6775  if (!_isExcluded[sender] && _isExcluded[recipient]) {... */\n      jump(tag_274)\n    tag_271:\n        /* \"contracts/samples/reflect_sample.sol\":6447:6458  _isExcluded */\n      0x04\n        /* \"contracts/samples/reflect_sample.sol\":6447:6466  _isExcluded[sender] */\n      0x00\n        /* \"contracts/samples/reflect_sample.sol\":6459:6465  sender */\n      dup5\n        /* \"contracts/samples/reflect_sample.sol\":6447:6466  _isExcluded[sender] */\n      0xffffffffffffffffffffffffffffffffffffffff\n      and\n      0xffffffffffffffffffffffffffffffffffffffff\n      and\n      dup2\n      mstore\n      0x20\n      add\n      swap1\n      dup2\n      mstore\n      0x20\n      add\n      0x00\n      keccak256\n      0x00\n      swap1\n      sload\n      swap1\n      0x0100\n      exp\n      swap1\n      div\n      0xff\n      and\n        /* \"contracts/samples/reflect_sample.sol\":6446:6466  !_isExcluded[sender] */\n      iszero\n        /* \"contracts/samples/reflect_sample.sol\":6446:6493  !_isExcluded[sender] && !_isExcluded[recipient] */\n      dup1\n      iszero\n      tag_275\n      jumpi\n      pop\n        /* \"contracts/samples/reflect_sample.sol\":6471:6482  _isExcluded */\n      0x04\n        /* \"contracts/samples/reflect_sample.sol\":6471:6493  _isExcluded[recipient] */\n      0x00\n        /* \"contracts/samples/reflect_sample.sol\":6483:6492  recipient */\n      dup4\n        /* \"contracts/samples/reflect_sample.sol\":6471:6493  _isExcluded[recipient] */\n      0xffffffffffffffffffffffffffffffffffffffff\n      and\n      0xffffffffffffffffffffffffffffffffffffffff\n      and\n      dup2\n      mstore\n      0x20\n      add\n      swap1\n      dup2\n      mstore\n      0x20\n      add\n      0x00\n      keccak256\n      0x00\n      swap1\n      sload\n      swap1\n      0x0100\n      exp\n      swap1\n      div\n      0xff\n      and\n        /* \"contracts/samples/reflect_sample.sol\":6470:6493  !_isExcluded[recipient] */\n      iszero\n        /* \"contracts/samples/reflect_sample.sol\":6446:6493  !_isExcluded[sender] && !_isExcluded[recipient] */\n    tag_275:\n        /* \"contracts/samples/reflect_sample.sol\":6442:6775  if (!_isExcluded[sender] && !_isExcluded[recipient]) {... */\n      iszero\n      tag_276\n      jumpi\n        /* \"contracts/samples/reflect_sample.sol\":6510:6554  _transferStandard(sender, recipient, amount) */\n      tag_277\n        /* \"contracts/samples/reflect_sample.sol\":6528:6534  sender */\n      dup4\n        /* \"contracts/samples/reflect_sample.sol\":6536:6545  recipient */\n      dup4\n        /* \"contracts/samples/reflect_sample.sol\":6547:6553  amount */\n      dup4\n        /* \"contracts/samples/reflect_sample.sol\":6510:6527  _transferStandard */\n      tag_278\n        /* \"contracts/samples/reflect_sample.sol\":6510:6554  _transferStandard(sender, recipient, amount) */\n      jump\t// in\n    tag_277:\n        /* \"contracts/samples/reflect_sample.sol\":6442:6775  if (!_isExcluded[sender] && !_isExcluded[recipient]) {... */\n      jump(tag_279)\n    tag_276:\n        /* \"contracts/samples/reflect_sample.sol\":6576:6587  _isExcluded */\n      0x04\n        /* \"contracts/samples/reflect_sample.sol\":6576:6595  _isExcluded[sender] */\n      0x00\n        /* \"contracts/samples/reflect_sample.sol\":6588:6594  sender */\n      dup5\n        /* \"contracts/samples/reflect_sample.sol\":6576:6595  _isExcluded[sender] */\n      0xffffffffffffffffffffffffffffffffffffffff\n      and\n      0xffffffffffffffffffffffffffffffffffffffff\n      and\n      dup2\n      mstore\n      0x20\n      add\n      swap1\n      dup2\n      mstore\n      0x20\n      add\n      0x00\n      keccak256\n      0x00\n      swap1\n      sload\n      swap1\n      0x0100\n      exp\n      swap1\n      div\n      0xff\n      and\n        /* \"contracts/samples/reflect_sample.sol\":6576:6621  _isExcluded[sender] && _isExcluded[recipient] */\n      dup1\n      iszero\n      tag_280\n      jumpi\n      pop\n        /* \"contracts/samples/reflect_sample.sol\":6599:6610  _isExcluded */\n      0x04\n        /* \"contracts/samples/reflect_sample.sol\":6599:6621  _isExcluded[recipient] */\n      0x00\n        /* \"contracts/samples/reflect_sample.sol\":6611:6620  recipient */\n      dup4\n        /* \"contracts/samples/reflect_sample.sol\":6599:6621  _isExcluded[recipient] */\n      0xffffffffffffffffffffffffffffffffffffffff\n      and\n      0xffffffffffffffffffffffffffffffffffffffff\n      and\n      dup2\n      mstore\n      0x20\n      add\n      swap1\n      dup2\n      mstore\n      0x20\n      add\n      0x00\n      keccak256\n      0x00\n      swap1\n      sload\n      swap1\n      0x0100\n      exp\n      swap1\n      div\n      0xff\n      and\n        /* \"contracts/samples/reflect_sample.sol\":6576:6621  _isExcluded[sender] && _isExcluded[recipient] */\n    tag_280:\n        /* \"contracts/samples/reflect_sample.sol\":6572:6775  if (_isExcluded[sender] && _isExcluded[recipient]) {... */\n      iszero\n      tag_281\n      jumpi\n        /* \"contracts/samples/reflect_sample.sol\":6638:6686  _transferBothExcluded(sender, recipient, amount) */\n      tag_282\n        /* \"contracts/samples/reflect_sample.sol\":6660:6666  sender */\n      dup4\n        /* \"contracts/samples/reflect_sample.sol\":6668:6677  recipient */\n      dup4\n        /* \"contracts/samples/reflect_sample.sol\":6679:6685  amount */\n      dup4\n        /* \"contracts/samples/reflect_sample.sol\":6638:6659  _transferBothExcluded */\n      tag_283\n        /* \"contracts/samples/reflect_sample.sol\":6638:6686  _transferBothExcluded(sender, recipient, amount) */\n      jump\t// in\n    tag_282:\n        /* \"contracts/samples/reflect_sample.sol\":6572:6775  if (_isExcluded[sender] && _isExcluded[recipient]) {... */\n      jump(tag_284)\n    tag_281:\n        /* \"contracts/samples/reflect_sample.sol\":6719:6763  _transferStandard(sender, recipient, amount) */\n      tag_285\n        /* \"contracts/samples/reflect_sample.sol\":6737:6743  sender */\n      dup4\n        /* \"contracts/samples/reflect_sample.sol\":6745:6754  recipient */\n      dup4\n        /* \"contracts/samples/reflect_sample.sol\":6756:6762  amount */\n      dup4\n        /* \"contracts/samples/reflect_sample.sol\":6719:6736  _transferStandard */\n      tag_278\n        /* \"contracts/samples/reflect_sample.sol\":6719:6763  _transferStandard(sender, recipient, amount) */\n      jump\t// in\n    tag_285:\n        /* \"contracts/samples/reflect_sample.sol\":6572:6775  if (_isExcluded[sender] && _isExcluded[recipient]) {... */\n    tag_284:\n        /* \"contracts/samples/reflect_sample.sol\":6442:6775  if (!_isExcluded[sender] && !_isExcluded[recipient]) {... */\n    tag_279:\n        /* \"contracts/samples/reflect_sample.sol\":6311:6775  if (!_isExcluded[sender] && _isExcluded[recipient]) {... */\n    tag_274:\n        /* \"contracts/samples/reflect_sample.sol\":6178:6775  if (_isExcluded[sender] && !_isExcluded[recipient]) {... */\n    tag_269:\n        /* \"contracts/samples/reflect_sample.sol\":5851:6782  function _transfer(address sender, address recipient, uint256 amount) private {... */\n      pop\n      pop\n      pop\n      jump\t// out\n        /* \"contracts/openzeppelin-contracts-release-v4.9/contracts/utils/math/SafeMath.sol\":4959:5160  function sub(uint256 a, uint256 b, string memory errorMessage) internal pure returns (uint256) {... */\n    tag_143:\n        /* \"contracts/openzeppelin-contracts-release-v4.9/contracts/utils/math/SafeMath.sol\":5045:5052  uint256 */\n      0x00\n        /* \"contracts/openzeppelin-contracts-release-v4.9/contracts/utils/math/SafeMath.sol\":5101:5102  a */\n      dup4\n        /* \"contracts/openzeppelin-contracts-release-v4.9/contracts/utils/math/SafeMath.sol\":5096:5097  b */\n      dup4\n        /* \"contracts/openzeppelin-contracts-release-v4.9/contracts/utils/math/SafeMath.sol\":5096:5102  b <= a */\n      gt\n      iszero\n        /* \"contracts/openzeppelin-contracts-release-v4.9/contracts/utils/math/SafeMath.sol\":5104:5116  errorMessage */\n      dup3\n        /* \"contracts/openzeppelin-contracts-release-v4.9/contracts/utils/math/SafeMath.sol\":5088:5117  require(b <= a, errorMessage) */\n      swap1\n      tag_287\n      jumpi\n      mload(0x40)\n      0x08c379a000000000000000000000000000000000000000000000000000000000\n      dup2\n      mstore\n      0x04\n      add\n      tag_288\n      swap2\n      swap1\n      tag_34\n      jump\t// in\n    tag_288:\n      mload(0x40)\n      dup1\n      swap2\n      sub\n      swap1\n      revert\n    tag_287:\n      pop\n        /* \"contracts/openzeppelin-contracts-release-v4.9/contracts/utils/math/SafeMath.sol\":5142:5143  b */\n      dup3\n        /* \"contracts/openzeppelin-contracts-release-v4.9/contracts/utils/math/SafeMath.sol\":5138:5139  a */\n      dup5\n        /* \"contracts/openzeppelin-contracts-release-v4.9/contracts/utils/math/SafeMath.sol\":5138:5143  a - b */\n      sub\n        /* \"contracts/openzeppelin-contracts-release-v4.9/contracts/utils/math/SafeMath.sol\":5131:5143  return a - b */\n      swap1\n      pop\n        /* \"contracts/openzeppelin-contracts-release-v4.9/contracts/utils/math/SafeMath.sol\":4959:5160  function sub(uint256 a, uint256 b, string memory errorMessage) internal pure returns (uint256) {... */\n      swap4\n      swap3\n      pop\n      pop\n      pop\n      jump\t// out\n        /* \"contracts/samples/reflect_sample.sol\":10044:10207  function _getRate() private view returns(uint256) {... */\n    tag_149:\n        /* \"contracts/samples/reflect_sample.sol\":10085:10092  uint256 */\n      0x00\n        /* \"contracts/samples/reflect_sample.sol\":10106:10121  uint256 rSupply */\n      dup1\n        /* \"contracts/samples/reflect_sample.sol\":10123:10138  uint256 tSupply */\n      0x00\n        /* \"contracts/samples/reflect_sample.sol\":10142:10161  _getCurrentSupply() */\n      tag_290\n        /* \"contracts/samples/reflect_sample.sol\":10142:10159  _getCurrentSupply */\n      tag_291\n        /* \"contracts/samples/reflect_sample.sol\":10142:10161  _getCurrentSupply() */\n      jump\t// in\n    tag_290:\n        /* \"contracts/samples/reflect_sample.sol\":10105:10161  (uint256 rSupply, uint256 tSupply) = _getCurrentSupply() */\n      swap2\n      pop\n      swap2\n      pop\n        /* \"contracts/samples/reflect_sample.sol\":10179:10199  rSupply.div(tSupply) */\n      tag_292\n        /* \"contracts/samples/reflect_sample.sol\":10191:10198  tSupply */\n      dup2\n        /* \"contracts/samples/reflect_sample.sol\":10179:10186  rSupply */\n      dup4\n        /* \"contracts/samples/reflect_sample.sol\":10179:10190  rSupply.div */\n      tag_151\n      swap1\n        /* \"contracts/samples/reflect_sample.sol\":10179:10199  rSupply.div(tSupply) */\n      swap2\n      swap1\n      0xffffffff\n      and\n      jump\t// in\n    tag_292:\n        /* \"contracts/samples/reflect_sample.sol\":10172:10199  return rSupply.div(tSupply) */\n      swap3\n      pop\n      pop\n      pop\n        /* \"contracts/samples/reflect_sample.sol\":10044:10207  function _getRate() private view returns(uint256) {... */\n      swap1\n      jump\t// out\n        /* \"contracts/openzeppelin-contracts-release-v4.9/contracts/utils/math/SafeMath.sol\":3850:3946  function div(uint256 a, uint256 b) internal pure returns (uint256) {... */\n    tag_151:\n        /* \"contracts/openzeppelin-contracts-release-v4.9/contracts/utils/math/SafeMath.sol\":3908:3915  uint256 */\n      0x00\n        /* \"contracts/openzeppelin-contracts-release-v4.9/contracts/utils/math/SafeMath.sol\":3938:3939  b */\n      dup2\n        /* \"contracts/openzeppelin-contracts-release-v4.9/contracts/utils/math/SafeMath.sol\":3934:3935  a */\n      dup4\n        /* \"contracts/openzeppelin-contracts-release-v4.9/contracts/utils/math/SafeMath.sol\":3934:3939  a / b */\n      tag_294\n      swap2\n      swap1\n      tag_295\n      jump\t// in\n    tag_294:\n        /* \"contracts/openzeppelin-contracts-release-v4.9/contracts/utils/math/SafeMath.sol\":3927:3939  return a / b */\n      swap1\n      pop\n        /* \"contracts/openzeppelin-contracts-release-v4.9/contracts/utils/math/SafeMath.sol\":3850:3946  function div(uint256 a, uint256 b) internal pure returns (uint256) {... */\n      swap3\n      swap2\n      pop\n      pop\n      jump\t// out\n        /* \"contracts/openzeppelin-contracts-release-v4.9/contracts/access/Ownable.sol\":1359:1489  function _checkOwner() internal view virtual {... */\n    tag_171:\n        /* \"contracts/openzeppelin-contracts-release-v4.9/contracts/access/Ownable.sol\":1433:1445  _msgSender() */\n      tag_297\n        /* \"contracts/openzeppelin-contracts-release-v4.9/contracts/access/Ownable.sol\":1433:1443  _msgSender */\n      tag_112\n        /* \"contracts/openzeppelin-contracts-release-v4.9/contracts/access/Ownable.sol\":1433:1445  _msgSender() */\n      jump\t// in\n    tag_297:\n        /* \"contracts/openzeppelin-contracts-release-v4.9/contracts/access/Ownable.sol\":1422:1445  owner() == _msgSender() */\n      0xffffffffffffffffffffffffffffffffffffffff\n      and\n        /* \"contracts/openzeppelin-contracts-release-v4.9/contracts/access/Ownable.sol\":1422:1429  owner() */\n      tag_298\n        /* \"contracts/openzeppelin-contracts-release-v4.9/contracts/access/Ownable.sol\":1422:1427  owner */\n      tag_78\n        /* \"contracts/openzeppelin-contracts-release-v4.9/contracts/access/Ownable.sol\":1422:1429  owner() */\n      jump\t// in\n    tag_298:\n        /* \"contracts/openzeppelin-contracts-release-v4.9/contracts/access/Ownable.sol\":1422:1445  owner() == _msgSender() */\n      0xffffffffffffffffffffffffffffffffffffffff\n      and\n      eq\n        /* \"contracts/openzeppelin-contracts-release-v4.9/contracts/access/Ownable.sol\":1414:1482  require(owner() == _msgSender(), \"Ownable: caller is not the owner\") */\n      tag_299\n      jumpi\n      mload(0x40)\n      0x08c379a000000000000000000000000000000000000000000000000000000000\n      dup2\n      mstore\n      0x04\n      add\n      tag_300\n      swap1\n      tag_301\n      jump\t// in\n    tag_300:\n      mload(0x40)\n      dup1\n      swap2\n      sub\n      swap1\n      revert\n    tag_299:\n        /* \"contracts/openzeppelin-contracts-release-v4.9/contracts/access/Ownable.sol\":1359:1489  function _checkOwner() internal view virtual {... */\n      jump\t// out\n        /* \"contracts/openzeppelin-contracts-release-v4.9/contracts/access/Ownable.sol\":2426:2613  function _transferOwnership(address newOwner) internal virtual {... */\n    tag_174:\n        /* \"contracts/openzeppelin-contracts-release-v4.9/contracts/access/Ownable.sol\":2499:2515  address oldOwner */\n      0x00\n        /* \"contracts/openzeppelin-contracts-release-v4.9/contracts/access/Ownable.sol\":2518:2524  _owner */\n      dup1\n      0x00\n      swap1\n      sload\n      swap1\n      0x0100\n      exp\n      swap1\n      div\n      0xffffffffffffffffffffffffffffffffffffffff\n      and\n        /* \"contracts/openzeppelin-contracts-release-v4.9/contracts/access/Ownable.sol\":2499:2524  address oldOwner = _owner */\n      swap1\n      pop\n        /* \"contracts/openzeppelin-contracts-release-v4.9/contracts/access/Ownable.sol\":2543:2551  newOwner */\n      dup2\n        /* \"contracts/openzeppelin-contracts-release-v4.9/contracts/access/Ownable.sol\":2534:2540  _owner */\n      0x00\n      dup1\n        /* \"contracts/openzeppelin-contracts-release-v4.9/contracts/access/Ownable.sol\":2534:2551  _owner = newOwner */\n      0x0100\n      exp\n      dup2\n      sload\n      dup2\n      0xffffffffffffffffffffffffffffffffffffffff\n      mul\n      not\n      and\n      swap1\n      dup4\n      0xffffffffffffffffffffffffffffffffffffffff\n      and\n      mul\n      or\n      swap1\n      sstore\n      pop\n        /* \"contracts/openzeppelin-contracts-release-v4.9/contracts/access/Ownable.sol\":2597:2605  newOwner */\n      dup2\n        /* \"contracts/openzeppelin-contracts-release-v4.9/contracts/access/Ownable.sol\":2566:2606  OwnershipTransferred(oldOwner, newOwner) */\n      0xffffffffffffffffffffffffffffffffffffffff\n      and\n        /* \"contracts/openzeppelin-contracts-release-v4.9/contracts/access/Ownable.sol\":2587:2595  oldOwner */\n      dup2\n        /* \"contracts/openzeppelin-contracts-release-v4.9/contracts/access/Ownable.sol\":2566:2606  OwnershipTransferred(oldOwner, newOwner) */\n      0xffffffffffffffffffffffffffffffffffffffff\n      and\n      0x8be0079c531659141344cd1fd0a4f28419497f9722a3daafe3b4186f6b6457e0\n      mload(0x40)\n      mload(0x40)\n      dup1\n      swap2\n      sub\n      swap1\n      log3\n        /* \"contracts/openzeppelin-contracts-release-v4.9/contracts/access/Ownable.sol\":2489:2613  {... */\n      pop\n        /* \"contracts/openzeppelin-contracts-release-v4.9/contracts/access/Ownable.sol\":2426:2613  function _transferOwnership(address newOwner) internal virtual {... */\n      pop\n      jump\t// out\n        /* \"contracts/samples/reflect_sample.sol\":9471:9694  function _getTValues(uint256 tAmount) private pure returns (uint256, uint256) {... */\n    tag_238:\n        /* \"contracts/samples/reflect_sample.sol\":9531:9538  uint256 */\n      0x00\n        /* \"contracts/samples/reflect_sample.sol\":9540:9547  uint256 */\n      dup1\n        /* \"contracts/samples/reflect_sample.sol\":9560:9572  uint256 tFee */\n      0x00\n        /* \"contracts/samples/reflect_sample.sol\":9575:9591  tAmount.div(100) */\n      tag_304\n        /* \"contracts/samples/reflect_sample.sol\":9587:9590  100 */\n      0x64\n        /* \"contracts/samples/reflect_sample.sol\":9575:9582  tAmount */\n      dup6\n        /* \"contracts/samples/reflect_sample.sol\":9575:9586  tAmount.div */\n      tag_151\n      swap1\n        /* \"contracts/samples/reflect_sample.sol\":9575:9591  tAmount.div(100) */\n      swap2\n      swap1\n      0xffffffff\n      and\n      jump\t// in\n    tag_304:\n        /* \"contracts/samples/reflect_sample.sol\":9560:9591  uint256 tFee = tAmount.div(100) */\n      swap1\n      pop\n        /* \"contracts/samples/reflect_sample.sol\":9602:9625  uint256 tTransferAmount */\n      0x00\n        /* \"contracts/samples/reflect_sample.sol\":9628:9645  tAmount.sub(tFee) */\n      tag_305\n        /* \"contracts/samples/reflect_sample.sol\":9640:9644  tFee */\n      dup3\n        /* \"contracts/samples/reflect_sample.sol\":9628:9635  tAmount */\n      dup7\n        /* \"contracts/samples/reflect_sample.sol\":9628:9639  tAmount.sub */\n      tag_119\n      swap1\n        /* \"contracts/samples/reflect_sample.sol\":9628:9645  tAmount.sub(tFee) */\n      swap2\n      swap1\n      0xffffffff\n      and\n      jump\t// in\n    tag_305:\n        /* \"contracts/samples/reflect_sample.sol\":9602:9645  uint256 tTransferAmount = tAmount.sub(tFee) */\n      swap1\n      pop\n        /* \"contracts/samples/reflect_sample.sol\":9664:9679  tTransferAmount */\n      dup1\n        /* \"contracts/samples/reflect_sample.sol\":9681:9685  tFee */\n      dup3\n        /* \"contracts/samples/reflect_sample.sol\":9656:9686  return (tTransferAmount, tFee) */\n      swap4\n      pop\n      swap4\n      pop\n      pop\n      pop\n        /* \"contracts/samples/reflect_sample.sol\":9471:9694  function _getTValues(uint256 tAmount) private pure returns (uint256, uint256) {... */\n      swap2\n      pop\n      swap2\n      jump\t// out\n        /* \"contracts/samples/reflect_sample.sol\":9702:10036  function _getRValues(uint256 tAmount, uint256 tFee, uint256 currentRate) private pure returns (uint256, uint256, uint256) {... */\n    tag_241:\n        /* \"contracts/samples/reflect_sample.sol\":9797:9804  uint256 */\n      0x00\n        /* \"contracts/samples/reflect_sample.sol\":9806:9813  uint256 */\n      dup1\n        /* \"contracts/samples/reflect_sample.sol\":9815:9822  uint256 */\n      0x00\n        /* \"contracts/samples/reflect_sample.sol\":9835:9850  uint256 rAmount */\n      dup1\n        /* \"contracts/samples/reflect_sample.sol\":9853:9877  tAmount.mul(currentRate) */\n      tag_307\n        /* \"contracts/samples/reflect_sample.sol\":9865:9876  currentRate */\n      dup6\n        /* \"contracts/samples/reflect_sample.sol\":9853:9860  tAmount */\n      dup9\n        /* \"contracts/samples/reflect_sample.sol\":9853:9864  tAmount.mul */\n      tag_308\n      swap1\n        /* \"contracts/samples/reflect_sample.sol\":9853:9877  tAmount.mul(currentRate) */\n      swap2\n      swap1\n      0xffffffff\n      and\n      jump\t// in\n    tag_307:\n        /* \"contracts/samples/reflect_sample.sol\":9835:9877  uint256 rAmount = tAmount.mul(currentRate) */\n      swap1\n      pop\n        /* \"contracts/samples/reflect_sample.sol\":9888:9900  uint256 rFee */\n      0x00\n        /* \"contracts/samples/reflect_sample.sol\":9903:9924  tFee.mul(currentRate) */\n      tag_309\n        /* \"contracts/samples/reflect_sample.sol\":9912:9923  currentRate */\n      dup7\n        /* \"contracts/samples/reflect_sample.sol\":9903:9907  tFee */\n      dup9\n        /* \"contracts/samples/reflect_sample.sol\":9903:9911  tFee.mul */\n      tag_308\n      swap1\n        /* \"contracts/samples/reflect_sample.sol\":9903:9924  tFee.mul(currentRate) */\n      swap2\n      swap1\n      0xffffffff\n      and\n      jump\t// in\n    tag_309:\n        /* \"contracts/samples/reflect_sample.sol\":9888:9924  uint256 rFee = tFee.mul(currentRate) */\n      swap1\n      pop\n        /* \"contracts/samples/reflect_sample.sol\":9935:9958  uint256 rTransferAmount */\n      0x00\n        /* \"contracts/samples/reflect_sample.sol\":9961:9978  rAmount.sub(rFee) */\n      tag_310\n        /* \"contracts/samples/reflect_sample.sol\":9973:9977  rFee */\n      dup3\n        /* \"contracts/samples/reflect_sample.sol\":9961:9968  rAmount */\n      dup5\n        /* \"contracts/samples/reflect_sample.sol\":9961:9972  rAmount.sub */\n      tag_119\n      swap1\n        /* \"contracts/samples/reflect_sample.sol\":9961:9978  rAmount.sub(rFee) */\n      swap2\n      swap1\n      0xffffffff\n      and\n      jump\t// in\n    tag_310:\n        /* \"contracts/samples/reflect_sample.sol\":9935:9978  uint256 rTransferAmount = rAmount.sub(rFee) */\n      swap1\n      pop\n        /* \"contracts/samples/reflect_sample.sol\":9997:10004  rAmount */\n      dup3\n        /* \"contracts/samples/reflect_sample.sol\":10006:10021  rTransferAmount */\n      dup2\n        /* \"contracts/samples/reflect_sample.sol\":10023:10027  rFee */\n      dup4\n        /* \"contracts/samples/reflect_sample.sol\":9989:10028  return (rAmount, rTransferAmount, rFee) */\n      swap6\n      pop\n      swap6\n      pop\n      swap6\n      pop\n      pop\n      pop\n      pop\n        /* \"contracts/samples/reflect_sample.sol\":9702:10036  function _getRValues(uint256 tAmount, uint256 tFee, uint256 currentRate) private pure returns (uint256, uint256, uint256) {... */\n      swap4\n      pop\n      swap4\n      pop\n      swap4\n      swap1\n      pop\n      jump\t// out\n        /* \"contracts/samples/reflect_sample.sol\":7787:8296  function _transferFromExcluded(address sender, address recipient, uint256 tAmount) private {... */\n    tag_268:\n        /* \"contracts/samples/reflect_sample.sol\":7890:7905  uint256 rAmount */\n      0x00\n        /* \"contracts/samples/reflect_sample.sol\":7907:7930  uint256 rTransferAmount */\n      dup1\n        /* \"contracts/samples/reflect_sample.sol\":7932:7944  uint256 rFee */\n      0x00\n        /* \"contracts/samples/reflect_sample.sol\":7946:7969  uint256 tTransferAmount */\n      dup1\n        /* \"contracts/samples/reflect_sample.sol\":7971:7983  uint256 tFee */\n      0x00\n        /* \"contracts/samples/reflect_sample.sol\":7987:8006  _getValues(tAmount) */\n      tag_312\n        /* \"contracts/samples/reflect_sample.sol\":7998:8005  tAmount */\n      dup7\n        /* \"contracts/samples/reflect_sample.sol\":7987:7997  _getValues */\n      tag_117\n        /* \"contracts/samples/reflect_sample.sol\":7987:8006  _getValues(tAmount) */\n      jump\t// in\n    tag_312:\n        /* \"contracts/samples/reflect_sample.sol\":7889:8006  (uint256 rAmount, uint256 rTransferAmount, uint256 rFee, uint256 tTransferAmount, uint256 tFee) = _getValues(tAmount) */\n      swap5\n      pop\n      swap5\n      pop\n      swap5\n      pop\n      swap5\n      pop\n      swap5\n      pop\n        /* \"contracts/samples/reflect_sample.sol\":8035:8063  _tOwned[sender].sub(tAmount) */\n      tag_313\n        /* \"contracts/samples/reflect_sample.sol\":8055:8062  tAmount */\n      dup7\n        /* \"contracts/samples/reflect_sample.sol\":8035:8042  _tOwned */\n      0x02\n        /* \"contracts/samples/reflect_sample.sol\":8035:8050  _tOwned[sender] */\n      0x00\n        /* \"contracts/samples/reflect_sample.sol\":8043:8049  sender */\n      dup12\n        /* \"contracts/samples/reflect_sample.sol\":8035:8050  _tOwned[sender] */\n      0xffffffffffffffffffffffffffffffffffffffff\n      and\n      0xffffffffffffffffffffffffffffffffffffffff\n      and\n      dup2\n      mstore\n      0x20\n      add\n      swap1\n      dup2\n      mstore\n      0x20\n      add\n      0x00\n      keccak256\n      sload\n        /* \"contracts/samples/reflect_sample.sol\":8035:8054  _tOwned[sender].sub */\n      tag_119\n      swap1\n        /* \"contracts/samples/reflect_sample.sol\":8035:8063  _tOwned[sender].sub(tAmount) */\n      swap2\n      swap1\n      0xffffffff\n      and\n      jump\t// in\n    tag_313:\n        /* \"contracts/samples/reflect_sample.sol\":8017:8024  _tOwned */\n      0x02\n        /* \"contracts/samples/reflect_sample.sol\":8017:8032  _tOwned[sender] */\n      0x00\n        /* \"contracts/samples/reflect_sample.sol\":8025:8031  sender */\n      dup11\n        /* \"contracts/samples/reflect_sample.sol\":8017:8032  _tOwned[sender] */\n      0xffffffffffffffffffffffffffffffffffffffff\n      and\n      0xffffffffffffffffffffffffffffffffffffffff\n      and\n      dup2\n      mstore\n      0x20\n      add\n      swap1\n      dup2\n      mstore\n      0x20\n      add\n      0x00\n      keccak256\n        /* \"contracts/samples/reflect_sample.sol\":8017:8063  _tOwned[sender] = _tOwned[sender].sub(tAmount) */\n      dup2\n      swap1\n      sstore\n      pop\n        /* \"contracts/samples/reflect_sample.sol\":8092:8120  _rOwned[sender].sub(rAmount) */\n      tag_314\n        /* \"contracts/samples/reflect_sample.sol\":8112:8119  rAmount */\n      dup6\n        /* \"contracts/samples/reflect_sample.sol\":8092:8099  _rOwned */\n      0x01\n        /* \"contracts/samples/reflect_sample.sol\":8092:8107  _rOwned[sender] */\n      0x00\n        /* \"contracts/samples/reflect_sample.sol\":8100:8106  sender */\n      dup12\n        /* \"contracts/samples/reflect_sample.sol\":8092:8107  _rOwned[sender] */\n      0xffffffffffffffffffffffffffffffffffffffff\n      and\n      0xffffffffffffffffffffffffffffffffffffffff\n      and\n      dup2\n      mstore\n      0x20\n      add\n      swap1\n      dup2\n      mstore\n      0x20\n      add\n      0x00\n      keccak256\n      sload\n        /* \"contracts/samples/reflect_sample.sol\":8092:8111  _rOwned[sender].sub */\n      tag_119\n      swap1\n        /* \"contracts/samples/reflect_sample.sol\":8092:8120  _rOwned[sender].sub(rAmount) */\n      swap2\n      swap1\n      0xffffffff\n      and\n      jump\t// in\n    tag_314:\n        /* \"contracts/samples/reflect_sample.sol\":8074:8081  _rOwned */\n      0x01\n        /* \"contracts/samples/reflect_sample.sol\":8074:8089  _rOwned[sender] */\n      0x00\n        /* \"contracts/samples/reflect_sample.sol\":8082:8088  sender */\n      dup11\n        /* \"contracts/samples/reflect_sample.sol\":8074:8089  _rOwned[sender] */\n      0xffffffffffffffffffffffffffffffffffffffff\n      and\n      0xffffffffffffffffffffffffffffffffffffffff\n      and\n      dup2\n      mstore\n      0x20\n      add\n      swap1\n      dup2\n      mstore\n      0x20\n      add\n      0x00\n      keccak256\n        /* \"contracts/samples/reflect_sample.sol\":8074:8120  _rOwned[sender] = _rOwned[sender].sub(rAmount) */\n      dup2\n      swap1\n      sstore\n      pop\n        /* \"contracts/samples/reflect_sample.sol\":8152:8191  _rOwned[recipient].add(rTransferAmount) */\n      tag_315\n        /* \"contracts/samples/reflect_sample.sol\":8175:8190  rTransferAmount */\n      dup5\n        /* \"contracts/samples/reflect_sample.sol\":8152:8159  _rOwned */\n      0x01\n        /* \"contracts/samples/reflect_sample.sol\":8152:8170  _rOwned[recipient] */\n      0x00\n        /* \"contracts/samples/reflect_sample.sol\":8160:8169  recipient */\n      dup11\n        /* \"contracts/samples/reflect_sample.sol\":8152:8170  _rOwned[recipient] */\n      0xffffffffffffffffffffffffffffffffffffffff\n      and\n      0xffffffffffffffffffffffffffffffffffffffff\n      and\n      dup2\n      mstore\n      0x20\n      add\n      swap1\n      dup2\n      mstore\n      0x20\n      add\n      0x00\n      keccak256\n      sload\n        /* \"contracts/samples/reflect_sample.sol\":8152:8174  _rOwned[recipient].add */\n      tag_122\n      swap1\n        /* \"contracts/samples/reflect_sample.sol\":8152:8191  _rOwned[recipient].add(rTransferAmount) */\n      swap2\n      swap1\n      0xffffffff\n      and\n      jump\t// in\n    tag_315:\n        /* \"contracts/samples/reflect_sample.sol\":8131:8138  _rOwned */\n      0x01\n        /* \"contracts/samples/reflect_sample.sol\":8131:8149  _rOwned[recipient] */\n      0x00\n        /* \"contracts/samples/reflect_sample.sol\":8139:8148  recipient */\n      dup10\n        /* \"contracts/samples/reflect_sample.sol\":8131:8149  _rOwned[recipient] */\n      0xffffffffffffffffffffffffffffffffffffffff\n      and\n      0xffffffffffffffffffffffffffffffffffffffff\n      and\n      dup2\n      mstore\n      0x20\n      add\n      swap1\n      dup2\n      mstore\n      0x20\n      add\n      0x00\n      keccak256\n        /* \"contracts/samples/reflect_sample.sol\":8131:8191  _rOwned[recipient] = _rOwned[recipient].add(rTransferAmount) */\n      dup2\n      swap1\n      sstore\n      pop\n        /* \"contracts/samples/reflect_sample.sol\":8205:8228  _reflectFee(rFee, tFee) */\n      tag_316\n        /* \"contracts/samples/reflect_sample.sol\":8217:8221  rFee */\n      dup4\n        /* \"contracts/samples/reflect_sample.sol\":8223:8227  tFee */\n      dup3\n        /* \"contracts/samples/reflect_sample.sol\":8205:8216  _reflectFee */\n      tag_317\n        /* \"contracts/samples/reflect_sample.sol\":8205:8228  _reflectFee(rFee, tFee) */\n      jump\t// in\n    tag_316:\n        /* \"contracts/samples/reflect_sample.sol\":8261:8270  recipient */\n      dup7\n        /* \"contracts/samples/reflect_sample.sol\":8244:8288  Transfer(sender, recipient, tTransferAmount) */\n      0xffffffffffffffffffffffffffffffffffffffff\n      and\n        /* \"contracts/samples/reflect_sample.sol\":8253:8259  sender */\n      dup9\n        /* \"contracts/samples/reflect_sample.sol\":8244:8288  Transfer(sender, recipient, tTransferAmount) */\n      0xffffffffffffffffffffffffffffffffffffffff\n      and\n      0xddf252ad1be2c89b69c2b068fc378daa952ba7f163c4a11628f55a4df523b3ef\n        /* \"contracts/samples/reflect_sample.sol\":8272:8287  tTransferAmount */\n      dup5\n        /* \"contracts/samples/reflect_sample.sol\":8244:8288  Transfer(sender, recipient, tTransferAmount) */\n      mload(0x40)\n      tag_318\n      swap2\n      swap1\n      tag_44\n      jump\t// in\n    tag_318:\n      mload(0x40)\n      dup1\n      swap2\n      sub\n      swap1\n      log3\n        /* \"contracts/samples/reflect_sample.sol\":7878:8296  {... */\n      pop\n      pop\n      pop\n      pop\n      pop\n        /* \"contracts/samples/reflect_sample.sol\":7787:8296  function _transferFromExcluded(address sender, address recipient, uint256 tAmount) private {... */\n      pop\n      pop\n      pop\n      jump\t// out\n        /* \"contracts/samples/reflect_sample.sol\":7250:7779  function _transferToExcluded(address sender, address recipient, uint256 tAmount) private {... */\n    tag_273:\n        /* \"contracts/samples/reflect_sample.sol\":7351:7366  uint256 rAmount */\n      0x00\n        /* \"contracts/samples/reflect_sample.sol\":7368:7391  uint256 rTransferAmount */\n      dup1\n        /* \"contracts/samples/reflect_sample.sol\":7393:7405  uint256 rFee */\n      0x00\n        /* \"contracts/samples/reflect_sample.sol\":7407:7430  uint256 tTransferAmount */\n      dup1\n        /* \"contracts/samples/reflect_sample.sol\":7432:7444  uint256 tFee */\n      0x00\n        /* \"contracts/samples/reflect_sample.sol\":7448:7467  _getValues(tAmount) */\n      tag_320\n        /* \"contracts/samples/reflect_sample.sol\":7459:7466  tAmount */\n      dup7\n        /* \"contracts/samples/reflect_sample.sol\":7448:7458  _getValues */\n      tag_117\n        /* \"contracts/samples/reflect_sample.sol\":7448:7467  _getValues(tAmount) */\n      jump\t// in\n    tag_320:\n        /* \"contracts/samples/reflect_sample.sol\":7350:7467  (uint256 rAmount, uint256 rTransferAmount, uint256 rFee, uint256 tTransferAmount, uint256 tFee) = _getValues(tAmount) */\n      swap5\n      pop\n      swap5\n      pop\n      swap5\n      pop\n      swap5\n      pop\n      swap5\n      pop\n        /* \"contracts/samples/reflect_sample.sol\":7496:7524  _rOwned[sender].sub(rAmount) */\n      tag_321\n        /* \"contracts/samples/reflect_sample.sol\":7516:7523  rAmount */\n      dup6\n        /* \"contracts/samples/reflect_sample.sol\":7496:7503  _rOwned */\n      0x01\n        /* \"contracts/samples/reflect_sample.sol\":7496:7511  _rOwned[sender] */\n      0x00\n        /* \"contracts/samples/reflect_sample.sol\":7504:7510  sender */\n      dup12\n        /* \"contracts/samples/reflect_sample.sol\":7496:7511  _rOwned[sender] */\n      0xffffffffffffffffffffffffffffffffffffffff\n      and\n      0xffffffffffffffffffffffffffffffffffffffff\n      and\n      dup2\n      mstore\n      0x20\n      add\n      swap1\n      dup2\n      mstore\n      0x20\n      add\n      0x00\n      keccak256\n      sload\n        /* \"contracts/samples/reflect_sample.sol\":7496:7515  _rOwned[sender].sub */\n      tag_119\n      swap1\n        /* \"contracts/samples/reflect_sample.sol\":7496:7524  _rOwned[sender].sub(rAmount) */\n      swap2\n      swap1\n      0xffffffff\n      and\n      jump\t// in\n    tag_321:\n        /* \"contracts/samples/reflect_sample.sol\":7478:7485  _rOwned */\n      0x01\n        /* \"contracts/samples/reflect_sample.sol\":7478:7493  _rOwned[sender] */\n      0x00\n        /* \"contracts/samples/reflect_sample.sol\":7486:7492  sender */\n      dup11\n        /* \"contracts/samples/reflect_sample.sol\":7478:7493  _rOwned[sender] */\n      0xffffffffffffffffffffffffffffffffffffffff\n      and\n      0xffffffffffffffffffffffffffffffffffffffff\n      and\n      dup2\n      mstore\n      0x20\n      add\n      swap1\n      dup2\n      mstore\n      0x20\n      add\n      0x00\n      keccak256\n        /* \"contracts/samples/reflect_sample.sol\":7478:7524  _rOwned[sender] = _rOwned[sender].sub(rAmount) */\n      dup2\n      swap1\n      sstore\n      pop\n        /* \"contracts/samples/reflect_sample.sol\":7556:7595  _tOwned[recipient].add(tTransferAmount) */\n      tag_322\n        /* \"contracts/samples/reflect_sample.sol\":7579:7594  tTransferAmount */\n      dup3\n        /* \"contracts/samples/reflect_sample.sol\":7556:7563  _tOwned */\n      0x02\n        /* \"contracts/samples/reflect_sample.sol\":7556:7574  _tOwned[recipient] */\n      0x00\n        /* \"contracts/samples/reflect_sample.sol\":7564:7573  recipient */\n      dup11\n        /* \"contracts/samples/reflect_sample.sol\":7556:7574  _tOwned[recipient] */\n      0xffffffffffffffffffffffffffffffffffffffff\n      and\n      0xffffffffffffffffffffffffffffffffffffffff\n      and\n      dup2\n      mstore\n      0x20\n      add\n      swap1\n      dup2\n      mstore\n      0x20\n      add\n      0x00\n      keccak256\n      sload\n        /* \"contracts/samples/reflect_sample.sol\":7556:7578  _tOwned[recipient].add */\n      tag_122\n      swap1\n        /* \"contracts/samples/reflect_sample.sol\":7556:7595  _tOwned[recipient].add(tTransferAmount) */\n      swap2\n      swap1\n      0xffffffff\n      and\n      jump\t// in\n    tag_322:\n        /* \"contracts/samples/reflect_sample.sol\":7535:7542  _tOwned */\n      0x02\n        /* \"contracts/samples/reflect_sample.sol\":7535:7553  _tOwned[recipient] */\n      0x00\n        /* \"contracts/samples/reflect_sample.sol\":7543:7552  recipient */\n      dup10\n        /* \"contracts/samples/reflect_sample.sol\":7535:7553  _tOwned[recipient] */\n      0xffffffffffffffffffffffffffffffffffffffff\n      and\n      0xffffffffffffffffffffffffffffffffffffffff\n      and\n      dup2\n      mstore\n      0x20\n      add\n      swap1\n      dup2\n      mstore\n      0x20\n      add\n      0x00\n      keccak256\n        /* \"contracts/samples/reflect_sample.sol\":7535:7595  _tOwned[recipient] = _tOwned[recipient].add(tTransferAmount) */\n      dup2\n      swap1\n      sstore\n      pop\n        /* \"contracts/samples/reflect_sample.sol\":7627:7666  _rOwned[recipient].add(rTransferAmount) */\n      tag_323\n        /* \"contracts/samples/reflect_sample.sol\":7650:7665  rTransferAmount */\n      dup5\n        /* \"contracts/samples/reflect_sample.sol\":7627:7634  _rOwned */\n      0x01\n        /* \"contracts/samples/reflect_sample.sol\":7627:7645  _rOwned[recipient] */\n      0x00\n        /* \"contracts/samples/reflect_sample.sol\":7635:7644  recipient */\n      dup11\n        /* \"contracts/samples/reflect_sample.sol\":7627:7645  _rOwned[recipient] */\n      0xffffffffffffffffffffffffffffffffffffffff\n      and\n      0xffffffffffffffffffffffffffffffffffffffff\n      and\n      dup2\n      mstore\n      0x20\n      add\n      swap1\n      dup2\n      mstore\n      0x20\n      add\n      0x00\n      keccak256\n      sload\n        /* \"contracts/samples/reflect_sample.sol\":7627:7649  _rOwned[recipient].add */\n      tag_122\n      swap1\n        /* \"contracts/samples/reflect_sample.sol\":7627:7666  _rOwned[recipient].add(rTransferAmount) */\n      swap2\n      swap1\n      0xffffffff\n      and\n      jump\t// in\n    tag_323:\n        /* \"contracts/samples/reflect_sample.sol\":7606:7613  _rOwned */\n      0x01\n        /* \"contracts/samples/reflect_sample.sol\":7606:7624  _rOwned[recipient] */\n      0x00\n        /* \"contracts/samples/reflect_sample.sol\":7614:7623  recipient */\n      dup10\n        /* \"contracts/samples/reflect_sample.sol\":7606:7624  _rOwned[recipient] */\n      0xffffffffffffffffffffffffffffffffffffffff\n      and\n      0xffffffffffffffffffffffffffffffffffffffff\n      and\n      dup2\n      mstore\n      0x20\n      add\n      swap1\n      dup2\n      mstore\n      0x20\n      add\n      0x00\n      keccak256\n        /* \"contracts/samples/reflect_sample.sol\":7606:7666  _rOwned[recipient] = _rOwned[recipient].add(rTransferAmount) */\n      dup2\n      swap1\n      sstore\n      pop\n        /* \"contracts/samples/reflect_sample.sol\":7688:7711  _reflectFee(rFee, tFee) */\n      tag_324\n        /* \"contracts/samples/reflect_sample.sol\":7700:7704  rFee */\n      dup4\n        /* \"contracts/samples/reflect_sample.sol\":7706:7710  tFee */\n      dup3\n        /* \"contracts/samples/reflect_sample.sol\":7688:7699  _reflectFee */\n      tag_317\n        /* \"contracts/samples/reflect_sample.sol\":7688:7711  _reflectFee(rFee, tFee) */\n      jump\t// in\n    tag_324:\n        /* \"contracts/samples/reflect_sample.sol\":7744:7753  recipient */\n      dup7\n        /* \"contracts/samples/reflect_sample.sol\":7727:7771  Transfer(sender, recipient, tTransferAmount) */\n      0xffffffffffffffffffffffffffffffffffffffff\n      and\n        /* \"contracts/samples/reflect_sample.sol\":7736:7742  sender */\n      dup9\n        /* \"contracts/samples/reflect_sample.sol\":7727:7771  Transfer(sender, recipient, tTransferAmount) */\n      0xffffffffffffffffffffffffffffffffffffffff\n      and\n      0xddf252ad1be2c89b69c2b068fc378daa952ba7f163c4a11628f55a4df523b3ef\n        /* \"contracts/samples/reflect_sample.sol\":7755:7770  tTransferAmount */\n      dup5\n        /* \"contracts/samples/reflect_sample.sol\":7727:7771  Transfer(sender, recipient, tTransferAmount) */\n      mload(0x40)\n      tag_325\n      swap2\n      swap1\n      tag_44\n      jump\t// in\n    tag_325:\n      mload(0x40)\n      dup1\n      swap2\n      sub\n      swap1\n      log3\n        /* \"contracts/samples/reflect_sample.sol\":7339:7779  {... */\n      pop\n      pop\n      pop\n      pop\n      pop\n        /* \"contracts/samples/reflect_sample.sol\":7250:7779  function _transferToExcluded(address sender, address recipient, uint256 tAmount) private {... */\n      pop\n      pop\n      pop\n      jump\t// out\n        /* \"contracts/samples/reflect_sample.sol\":6790:7242  function _transferStandard(address sender, address recipient, uint256 tAmount) private {... */\n    tag_278:\n        /* \"contracts/samples/reflect_sample.sol\":6889:6904  uint256 rAmount */\n      0x00\n        /* \"contracts/samples/reflect_sample.sol\":6906:6929  uint256 rTransferAmount */\n      dup1\n        /* \"contracts/samples/reflect_sample.sol\":6931:6943  uint256 rFee */\n      0x00\n        /* \"contracts/samples/reflect_sample.sol\":6945:6968  uint256 tTransferAmount */\n      dup1\n        /* \"contracts/samples/reflect_sample.sol\":6970:6982  uint256 tFee */\n      0x00\n        /* \"contracts/samples/reflect_sample.sol\":6986:7005  _getValues(tAmount) */\n      tag_327\n        /* \"contracts/samples/reflect_sample.sol\":6997:7004  tAmount */\n      dup7\n        /* \"contracts/samples/reflect_sample.sol\":6986:6996  _getValues */\n      tag_117\n        /* \"contracts/samples/reflect_sample.sol\":6986:7005  _getValues(tAmount) */\n      jump\t// in\n    tag_327:\n        /* \"contracts/samples/reflect_sample.sol\":6888:7005  (uint256 rAmount, uint256 rTransferAmount, uint256 rFee, uint256 tTransferAmount, uint256 tFee) = _getValues(tAmount) */\n      swap5\n      pop\n      swap5\n      pop\n      swap5\n      pop\n      swap5\n      pop\n      swap5\n      pop\n        /* \"contracts/samples/reflect_sample.sol\":7034:7062  _rOwned[sender].sub(rAmount) */\n      tag_328\n        /* \"contracts/samples/reflect_sample.sol\":7054:7061  rAmount */\n      dup6\n        /* \"contracts/samples/reflect_sample.sol\":7034:7041  _rOwned */\n      0x01\n        /* \"contracts/samples/reflect_sample.sol\":7034:7049  _rOwned[sender] */\n      0x00\n        /* \"contracts/samples/reflect_sample.sol\":7042:7048  sender */\n      dup12\n        /* \"contracts/samples/reflect_sample.sol\":7034:7049  _rOwned[sender] */\n      0xffffffffffffffffffffffffffffffffffffffff\n      and\n      0xffffffffffffffffffffffffffffffffffffffff\n      and\n      dup2\n      mstore\n      0x20\n      add\n      swap1\n      dup2\n      mstore\n      0x20\n      add\n      0x00\n      keccak256\n      sload\n        /* \"contracts/samples/reflect_sample.sol\":7034:7053  _rOwned[sender].sub */\n      tag_119\n      swap1\n        /* \"contracts/samples/reflect_sample.sol\":7034:7062  _rOwned[sender].sub(rAmount) */\n      swap2\n      swap1\n      0xffffffff\n      and\n      jump\t// in\n    tag_328:\n        /* \"contracts/samples/reflect_sample.sol\":7016:7023  _rOwned */\n      0x01\n        /* \"contracts/samples/reflect_sample.sol\":7016:7031  _rOwned[sender] */\n      0x00\n        /* \"contracts/samples/reflect_sample.sol\":7024:7030  sender */\n      dup11\n        /* \"contracts/samples/reflect_sample.sol\":7016:7031  _rOwned[sender] */\n      0xffffffffffffffffffffffffffffffffffffffff\n      and\n      0xffffffffffffffffffffffffffffffffffffffff\n      and\n      dup2\n      mstore\n      0x20\n      add\n      swap1\n      dup2\n      mstore\n      0x20\n      add\n      0x00\n      keccak256\n        /* \"contracts/samples/reflect_sample.sol\":7016:7062  _rOwned[sender] = _rOwned[sender].sub(rAmount) */\n      dup2\n      swap1\n      sstore\n      pop\n        /* \"contracts/samples/reflect_sample.sol\":7094:7133  _rOwned[recipient].add(rTransferAmount) */\n      tag_329\n        /* \"contracts/samples/reflect_sample.sol\":7117:7132  rTransferAmount */\n      dup5\n        /* \"contracts/samples/reflect_sample.sol\":7094:7101  _rOwned */\n      0x01\n        /* \"contracts/samples/reflect_sample.sol\":7094:7112  _rOwned[recipient] */\n      0x00\n        /* \"contracts/samples/reflect_sample.sol\":7102:7111  recipient */\n      dup11\n        /* \"contracts/samples/reflect_sample.sol\":7094:7112  _rOwned[recipient] */\n      0xffffffffffffffffffffffffffffffffffffffff\n      and\n      0xffffffffffffffffffffffffffffffffffffffff\n      and\n      dup2\n      mstore\n      0x20\n      add\n      swap1\n      dup2\n      mstore\n      0x20\n      add\n      0x00\n      keccak256\n      sload\n        /* \"contracts/samples/reflect_sample.sol\":7094:7116  _rOwned[recipient].add */\n      tag_122\n      swap1\n        /* \"contracts/samples/reflect_sample.sol\":7094:7133  _rOwned[recipient].add(rTransferAmount) */\n      swap2\n      swap1\n      0xffffffff\n      and\n      jump\t// in\n    tag_329:\n        /* \"contracts/samples/reflect_sample.sol\":7073:7080  _rOwned */\n      0x01\n        /* \"contracts/samples/reflect_sample.sol\":7073:7091  _rOwned[recipient] */\n      0x00\n        /* \"contracts/samples/reflect_sample.sol\":7081:7090  recipient */\n      dup10\n        /* \"contracts/samples/reflect_sample.sol\":7073:7091  _rOwned[recipient] */\n      0xffffffffffffffffffffffffffffffffffffffff\n      and\n      0xffffffffffffffffffffffffffffffffffffffff\n      and\n      dup2\n      mstore\n      0x20\n      add\n      swap1\n      dup2\n      mstore\n      0x20\n      add\n      0x00\n      keccak256\n        /* \"contracts/samples/reflect_sample.sol\":7073:7133  _rOwned[recipient] = _rOwned[recipient].add(rTransferAmount) */\n      dup2\n      swap1\n      sstore\n      pop\n        /* \"contracts/samples/reflect_sample.sol\":7151:7174  _reflectFee(rFee, tFee) */\n      tag_330\n        /* \"contracts/samples/reflect_sample.sol\":7163:7167  rFee */\n      dup4\n        /* \"contracts/samples/reflect_sample.sol\":7169:7173  tFee */\n      dup3\n        /* \"contracts/samples/reflect_sample.sol\":7151:7162  _reflectFee */\n      tag_317\n        /* \"contracts/samples/reflect_sample.sol\":7151:7174  _reflectFee(rFee, tFee) */\n      jump\t// in\n    tag_330:\n        /* \"contracts/samples/reflect_sample.sol\":7207:7216  recipient */\n      dup7\n        /* \"contracts/samples/reflect_sample.sol\":7190:7234  Transfer(sender, recipient, tTransferAmount) */\n      0xffffffffffffffffffffffffffffffffffffffff\n      and\n        /* \"contracts/samples/reflect_sample.sol\":7199:7205  sender */\n      dup9\n        /* \"contracts/samples/reflect_sample.sol\":7190:7234  Transfer(sender, recipient, tTransferAmount) */\n      0xffffffffffffffffffffffffffffffffffffffff\n      and\n      0xddf252ad1be2c89b69c2b068fc378daa952ba7f163c4a11628f55a4df523b3ef\n        /* \"contracts/samples/reflect_sample.sol\":7218:7233  tTransferAmount */\n      dup5\n        /* \"contracts/samples/reflect_sample.sol\":7190:7234  Transfer(sender, recipient, tTransferAmount) */\n      mload(0x40)\n      tag_331\n      swap2\n      swap1\n      tag_44\n      jump\t// in\n    tag_331:\n      mload(0x40)\n      dup1\n      swap2\n      sub\n      swap1\n      log3\n        /* \"contracts/samples/reflect_sample.sol\":6877:7242  {... */\n      pop\n      pop\n      pop\n      pop\n      pop\n        /* \"contracts/samples/reflect_sample.sol\":6790:7242  function _transferStandard(address sender, address recipient, uint256 tAmount) private {... */\n      pop\n      pop\n      pop\n      jump\t// out\n        /* \"contracts/samples/reflect_sample.sol\":8304:8889  function _transferBothExcluded(address sender, address recipient, uint256 tAmount) private {... */\n    tag_283:\n        /* \"contracts/samples/reflect_sample.sol\":8407:8422  uint256 rAmount */\n      0x00\n        /* \"contracts/samples/reflect_sample.sol\":8424:8447  uint256 rTransferAmount */\n      dup1\n        /* \"contracts/samples/reflect_sample.sol\":8449:8461  uint256 rFee */\n      0x00\n        /* \"contracts/samples/reflect_sample.sol\":8463:8486  uint256 tTransferAmount */\n      dup1\n        /* \"contracts/samples/reflect_sample.sol\":8488:8500  uint256 tFee */\n      0x00\n        /* \"contracts/samples/reflect_sample.sol\":8504:8523  _getValues(tAmount) */\n      tag_333\n        /* \"contracts/samples/reflect_sample.sol\":8515:8522  tAmount */\n      dup7\n        /* \"contracts/samples/reflect_sample.sol\":8504:8514  _getValues */\n      tag_117\n        /* \"contracts/samples/reflect_sample.sol\":8504:8523  _getValues(tAmount) */\n      jump\t// in\n    tag_333:\n        /* \"contracts/samples/reflect_sample.sol\":8406:8523  (uint256 rAmount, uint256 rTransferAmount, uint256 rFee, uint256 tTransferAmount, uint256 tFee) = _getValues(tAmount) */\n      swap5\n      pop\n      swap5\n      pop\n      swap5\n      pop\n      swap5\n      pop\n      swap5\n      pop\n        /* \"contracts/samples/reflect_sample.sol\":8552:8580  _tOwned[sender].sub(tAmount) */\n      tag_334\n        /* \"contracts/samples/reflect_sample.sol\":8572:8579  tAmount */\n      dup7\n        /* \"contracts/samples/reflect_sample.sol\":8552:8559  _tOwned */\n      0x02\n        /* \"contracts/samples/reflect_sample.sol\":8552:8567  _tOwned[sender] */\n      0x00\n        /* \"contracts/samples/reflect_sample.sol\":8560:8566  sender */\n      dup12\n        /* \"contracts/samples/reflect_sample.sol\":8552:8567  _tOwned[sender] */\n      0xffffffffffffffffffffffffffffffffffffffff\n      and\n      0xffffffffffffffffffffffffffffffffffffffff\n      and\n      dup2\n      mstore\n      0x20\n      add\n      swap1\n      dup2\n      mstore\n      0x20\n      add\n      0x00\n      keccak256\n      sload\n        /* \"contracts/samples/reflect_sample.sol\":8552:8571  _tOwned[sender].sub */\n      tag_119\n      swap1\n        /* \"contracts/samples/reflect_sample.sol\":8552:8580  _tOwned[sender].sub(tAmount) */\n      swap2\n      swap1\n      0xffffffff\n      and\n      jump\t// in\n    tag_334:\n        /* \"contracts/samples/reflect_sample.sol\":8534:8541  _tOwned */\n      0x02\n        /* \"contracts/samples/reflect_sample.sol\":8534:8549  _tOwned[sender] */\n      0x00\n        /* \"contracts/samples/reflect_sample.sol\":8542:8548  sender */\n      dup11\n        /* \"contracts/samples/reflect_sample.sol\":8534:8549  _tOwned[sender] */\n      0xffffffffffffffffffffffffffffffffffffffff\n      and\n      0xffffffffffffffffffffffffffffffffffffffff\n      and\n      dup2\n      mstore\n      0x20\n      add\n      swap1\n      dup2\n      mstore\n      0x20\n      add\n      0x00\n      keccak256\n        /* \"contracts/samples/reflect_sample.sol\":8534:8580  _tOwned[sender] = _tOwned[sender].sub(tAmount) */\n      dup2\n      swap1\n      sstore\n      pop\n        /* \"contracts/samples/reflect_sample.sol\":8609:8637  _rOwned[sender].sub(rAmount) */\n      tag_335\n        /* \"contracts/samples/reflect_sample.sol\":8629:8636  rAmount */\n      dup6\n        /* \"contracts/samples/reflect_sample.sol\":8609:8616  _rOwned */\n      0x01\n        /* \"contracts/samples/reflect_sample.sol\":8609:8624  _rOwned[sender] */\n      0x00\n        /* \"contracts/samples/reflect_sample.sol\":8617:8623  sender */\n      dup12\n        /* \"contracts/samples/reflect_sample.sol\":8609:8624  _rOwned[sender] */\n      0xffffffffffffffffffffffffffffffffffffffff\n      and\n      0xffffffffffffffffffffffffffffffffffffffff\n      and\n      dup2\n      mstore\n      0x20\n      add\n      swap1\n      dup2\n      mstore\n      0x20\n      add\n      0x00\n      keccak256\n      sload\n        /* \"contracts/samples/reflect_sample.sol\":8609:8628  _rOwned[sender].sub */\n      tag_119\n      swap1\n        /* \"contracts/samples/reflect_sample.sol\":8609:8637  _rOwned[sender].sub(rAmount) */\n      swap2\n      swap1\n      0xffffffff\n      and\n      jump\t// in\n    tag_335:\n        /* \"contracts/samples/reflect_sample.sol\":8591:8598  _rOwned */\n      0x01\n        /* \"contracts/samples/reflect_sample.sol\":8591:8606  _rOwned[sender] */\n      0x00\n        /* \"contracts/samples/reflect_sample.sol\":8599:8605  sender */\n      dup11\n        /* \"contracts/samples/reflect_sample.sol\":8591:8606  _rOwned[sender] */\n      0xffffffffffffffffffffffffffffffffffffffff\n      and\n      0xffffffffffffffffffffffffffffffffffffffff\n      and\n      dup2\n      mstore\n      0x20\n      add\n      swap1\n      dup2\n      mstore\n      0x20\n      add\n      0x00\n      keccak256\n        /* \"contracts/samples/reflect_sample.sol\":8591:8637  _rOwned[sender] = _rOwned[sender].sub(rAmount) */\n      dup2\n      swap1\n      sstore\n      pop\n        /* \"contracts/samples/reflect_sample.sol\":8669:8708  _tOwned[recipient].add(tTransferAmount) */\n      tag_336\n        /* \"contracts/samples/reflect_sample.sol\":8692:8707  tTransferAmount */\n      dup3\n        /* \"contracts/samples/reflect_sample.sol\":8669:8676  _tOwned */\n      0x02\n        /* \"contracts/samples/reflect_sample.sol\":8669:8687  _tOwned[recipient] */\n      0x00\n        /* \"contracts/samples/reflect_sample.sol\":8677:8686  recipient */\n      dup11\n        /* \"contracts/samples/reflect_sample.sol\":8669:8687  _tOwned[recipient] */\n      0xffffffffffffffffffffffffffffffffffffffff\n      and\n      0xffffffffffffffffffffffffffffffffffffffff\n      and\n      dup2\n      mstore\n      0x20\n      add\n      swap1\n      dup2\n      mstore\n      0x20\n      add\n      0x00\n      keccak256\n      sload\n        /* \"contracts/samples/reflect_sample.sol\":8669:8691  _tOwned[recipient].add */\n      tag_122\n      swap1\n        /* \"contracts/samples/reflect_sample.sol\":8669:8708  _tOwned[recipient].add(tTransferAmount) */\n      swap2\n      swap1\n      0xffffffff\n      and\n      jump\t// in\n    tag_336:\n        /* \"contracts/samples/reflect_sample.sol\":8648:8655  _tOwned */\n      0x02\n        /* \"contracts/samples/reflect_sample.sol\":8648:8666  _tOwned[recipient] */\n      0x00\n        /* \"contracts/samples/reflect_sample.sol\":8656:8665  recipient */\n      dup10\n        /* \"contracts/samples/reflect_sample.sol\":8648:8666  _tOwned[recipient] */\n      0xffffffffffffffffffffffffffffffffffffffff\n      and\n      0xffffffffffffffffffffffffffffffffffffffff\n      and\n      dup2\n      mstore\n      0x20\n      add\n      swap1\n      dup2\n      mstore\n      0x20\n      add\n      0x00\n      keccak256\n        /* \"contracts/samples/reflect_sample.sol\":8648:8708  _tOwned[recipient] = _tOwned[recipient].add(tTransferAmount) */\n      dup2\n      swap1\n      sstore\n      pop\n        /* \"contracts/samples/reflect_sample.sol\":8740:8779  _rOwned[recipient].add(rTransferAmount) */\n      tag_337\n        /* \"contracts/samples/reflect_sample.sol\":8763:8778  rTransferAmount */\n      dup5\n        /* \"contracts/samples/reflect_sample.sol\":8740:8747  _rOwned */\n      0x01\n        /* \"contracts/samples/reflect_sample.sol\":8740:8758  _rOwned[recipient] */\n      0x00\n        /* \"contracts/samples/reflect_sample.sol\":8748:8757  recipient */\n      dup11\n        /* \"contracts/samples/reflect_sample.sol\":8740:8758  _rOwned[recipient] */\n      0xffffffffffffffffffffffffffffffffffffffff\n      and\n      0xffffffffffffffffffffffffffffffffffffffff\n      and\n      dup2\n      mstore\n      0x20\n      add\n      swap1\n      dup2\n      mstore\n      0x20\n      add\n      0x00\n      keccak256\n      sload\n        /* \"contracts/samples/reflect_sample.sol\":8740:8762  _rOwned[recipient].add */\n      tag_122\n      swap1\n        /* \"contracts/samples/reflect_sample.sol\":8740:8779  _rOwned[recipient].add(rTransferAmount) */\n      swap2\n      swap1\n      0xffffffff\n      and\n      jump\t// in\n    tag_337:\n        /* \"contracts/samples/reflect_sample.sol\":8719:8726  _rOwned */\n      0x01\n        /* \"contracts/samples/reflect_sample.sol\":8719:8737  _rOwned[recipient] */\n      0x00\n        /* \"contracts/samples/reflect_sample.sol\":8727:8736  recipient */\n      dup10\n        /* \"contracts/samples/reflect_sample.sol\":8719:8737  _rOwned[recipient] */\n      0xffffffffffffffffffffffffffffffffffffffff\n      and\n      0xffffffffffffffffffffffffffffffffffffffff\n      and\n      dup2\n      mstore\n      0x20\n      add\n      swap1\n      dup2\n      mstore\n      0x20\n      add\n      0x00\n      keccak256\n        /* \"contracts/samples/reflect_sample.sol\":8719:8779  _rOwned[recipient] = _rOwned[recipient].add(rTransferAmount) */\n      dup2\n      swap1\n      sstore\n      pop\n        /* \"contracts/samples/reflect_sample.sol\":8798:8821  _reflectFee(rFee, tFee) */\n      tag_338\n        /* \"contracts/samples/reflect_sample.sol\":8810:8814  rFee */\n      dup4\n        /* \"contracts/samples/reflect_sample.sol\":8816:8820  tFee */\n      dup3\n        /* \"contracts/samples/reflect_sample.sol\":8798:8809  _reflectFee */\n      tag_317\n        /* \"contracts/samples/reflect_sample.sol\":8798:8821  _reflectFee(rFee, tFee) */\n      jump\t// in\n    tag_338:\n        /* \"contracts/samples/reflect_sample.sol\":8854:8863  recipient */\n      dup7\n        /* \"contracts/samples/reflect_sample.sol\":8837:8881  Transfer(sender, recipient, tTransferAmount) */\n      0xffffffffffffffffffffffffffffffffffffffff\n      and\n        /* \"contracts/samples/reflect_sample.sol\":8846:8852  sender */\n      dup9\n        /* \"contracts/samples/reflect_sample.sol\":8837:8881  Transfer(sender, recipient, tTransferAmount) */\n      0xffffffffffffffffffffffffffffffffffffffff\n      and\n      0xddf252ad1be2c89b69c2b068fc378daa952ba7f163c4a11628f55a4df523b3ef\n        /* \"contracts/samples/reflect_sample.sol\":8865:8880  tTransferAmount */\n      dup5\n        /* \"contracts/samples/reflect_sample.sol\":8837:8881  Transfer(sender, recipient, tTransferAmount) */\n      mload(0x40)\n      tag_339\n      swap2\n      swap1\n      tag_44\n      jump\t// in\n    tag_339:\n      mload(0x40)\n      dup1\n      swap2\n      sub\n      swap1\n      log3\n        /* \"contracts/samples/reflect_sample.sol\":8395:8889  {... */\n      pop\n      pop\n      pop\n      pop\n      pop\n        /* \"contracts/samples/reflect_sample.sol\":8304:8889  function _transferBothExcluded(address sender, address recipient, uint256 tAmount) private {... */\n      pop\n      pop\n      pop\n      jump\t// out\n        /* \"contracts/samples/reflect_sample.sol\":10215:10776  function _getCurrentSupply() private view returns(uint256, uint256) {... */\n    tag_291:\n        /* \"contracts/samples/reflect_sample.sol\":10265:10272  uint256 */\n      0x00\n        /* \"contracts/samples/reflect_sample.sol\":10274:10281  uint256 */\n      dup1\n        /* \"contracts/samples/reflect_sample.sol\":10294:10309  uint256 rSupply */\n      0x00\n        /* \"contracts/samples/reflect_sample.sol\":10312:10319  _rTotal */\n      sload(0x06)\n        /* \"contracts/samples/reflect_sample.sol\":10294:10319  uint256 rSupply = _rTotal */\n      swap1\n      pop\n        /* \"contracts/samples/reflect_sample.sol\":10330:10345  uint256 tSupply */\n      0x00\n        /* \"contracts/samples/reflect_sample.sol\":1100:1118  10 * 10**6 * 10**9 */\n      0x2386f26fc10000\n        /* \"contracts/samples/reflect_sample.sol\":10330:10355  uint256 tSupply = _tTotal */\n      swap1\n      pop\n        /* \"contracts/samples/reflect_sample.sol\":10377:10386  uint256 i */\n      0x00\n        /* \"contracts/samples/reflect_sample.sol\":10372:10661  for (uint256 i = 0; i < _excluded.length; i++) {... */\n    tag_341:\n        /* \"contracts/samples/reflect_sample.sol\":10396:10405  _excluded */\n      0x05\n        /* \"contracts/samples/reflect_sample.sol\":10396:10412  _excluded.length */\n      dup1\n      sload\n      swap1\n      pop\n        /* \"contracts/samples/reflect_sample.sol\":10392:10393  i */\n      dup2\n        /* \"contracts/samples/reflect_sample.sol\":10392:10412  i < _excluded.length */\n      lt\n        /* \"contracts/samples/reflect_sample.sol\":10372:10661  for (uint256 i = 0; i < _excluded.length; i++) {... */\n      iszero\n      tag_342\n      jumpi\n        /* \"contracts/samples/reflect_sample.sol\":10462:10469  rSupply */\n      dup3\n        /* \"contracts/samples/reflect_sample.sol\":10438:10445  _rOwned */\n      0x01\n        /* \"contracts/samples/reflect_sample.sol\":10438:10459  _rOwned[_excluded[i]] */\n      0x00\n        /* \"contracts/samples/reflect_sample.sol\":10446:10455  _excluded */\n      0x05\n        /* \"contracts/samples/reflect_sample.sol\":10456:10457  i */\n      dup5\n        /* \"contracts/samples/reflect_sample.sol\":10446:10458  _excluded[i] */\n      dup2\n      sload\n      dup2\n      lt\n      tag_344\n      jumpi\n      tag_345\n      tag_218\n      jump\t// in\n    tag_345:\n    tag_344:\n      swap1\n      0x00\n      mstore\n      keccak256(0x00, 0x20)\n      add\n      0x00\n      swap1\n      sload\n      swap1\n      0x0100\n      exp\n      swap1\n      div\n      0xffffffffffffffffffffffffffffffffffffffff\n      and\n        /* \"contracts/samples/reflect_sample.sol\":10438:10459  _rOwned[_excluded[i]] */\n      0xffffffffffffffffffffffffffffffffffffffff\n      and\n      0xffffffffffffffffffffffffffffffffffffffff\n      and\n      dup2\n      mstore\n      0x20\n      add\n      swap1\n      dup2\n      mstore\n      0x20\n      add\n      0x00\n      keccak256\n      sload\n        /* \"contracts/samples/reflect_sample.sol\":10438:10469  _rOwned[_excluded[i]] > rSupply */\n      gt\n        /* \"contracts/samples/reflect_sample.sol\":10438:10504  _rOwned[_excluded[i]] > rSupply || _tOwned[_excluded[i]] > tSupply */\n      dup1\n      tag_347\n      jumpi\n      pop\n        /* \"contracts/samples/reflect_sample.sol\":10497:10504  tSupply */\n      dup2\n        /* \"contracts/samples/reflect_sample.sol\":10473:10480  _tOwned */\n      0x02\n        /* \"contracts/samples/reflect_sample.sol\":10473:10494  _tOwned[_excluded[i]] */\n      0x00\n        /* \"contracts/samples/reflect_sample.sol\":10481:10490  _excluded */\n      0x05\n        /* \"contracts/samples/reflect_sample.sol\":10491:10492  i */\n      dup5\n        /* \"contracts/samples/reflect_sample.sol\":10481:10493  _excluded[i] */\n      dup2\n      sload\n      dup2\n      lt\n      tag_348\n      jumpi\n      tag_349\n      tag_218\n      jump\t// in\n    tag_349:\n    tag_348:\n      swap1\n      0x00\n      mstore\n      keccak256(0x00, 0x20)\n      add\n      0x00\n      swap1\n      sload\n      swap1\n      0x0100\n      exp\n      swap1\n      div\n      0xffffffffffffffffffffffffffffffffffffffff\n      and\n        /* \"contracts/samples/reflect_sample.sol\":10473:10494  _tOwned[_excluded[i]] */\n      0xffffffffffffffffffffffffffffffffffffffff\n      and\n      0xffffffffffffffffffffffffffffffffffffffff\n      and\n      dup2\n      mstore\n      0x20\n      add\n      swap1\n      dup2\n      mstore\n      0x20\n      add\n      0x00\n      keccak256\n      sload\n        /* \"contracts/samples/reflect_sample.sol\":10473:10504  _tOwned[_excluded[i]] > tSupply */\n      gt\n        /* \"contracts/samples/reflect_sample.sol\":10438:10504  _rOwned[_excluded[i]] > rSupply || _tOwned[_excluded[i]] > tSupply */\n    tag_347:\n        /* \"contracts/samples/reflect_sample.sol\":10434:10531  if (_rOwned[_excluded[i]] > rSupply || _tOwned[_excluded[i]] > tSupply) return (_rTotal, _tTotal) */\n      iszero\n      tag_351\n      jumpi\n        /* \"contracts/samples/reflect_sample.sol\":10514:10521  _rTotal */\n      sload(0x06)\n        /* \"contracts/samples/reflect_sample.sol\":1100:1118  10 * 10**6 * 10**9 */\n      0x2386f26fc10000\n        /* \"contracts/samples/reflect_sample.sol\":10506:10531  return (_rTotal, _tTotal) */\n      swap5\n      pop\n      swap5\n      pop\n      pop\n      pop\n      pop\n      jump(tag_340)\n        /* \"contracts/samples/reflect_sample.sol\":10434:10531  if (_rOwned[_excluded[i]] > rSupply || _tOwned[_excluded[i]] > tSupply) return (_rTotal, _tTotal) */\n    tag_351:\n        /* \"contracts/samples/reflect_sample.sol\":10556:10590  rSupply.sub(_rOwned[_excluded[i]]) */\n      tag_352\n        /* \"contracts/samples/reflect_sample.sol\":10568:10575  _rOwned */\n      0x01\n        /* \"contracts/samples/reflect_sample.sol\":10568:10589  _rOwned[_excluded[i]] */\n      0x00\n        /* \"contracts/samples/reflect_sample.sol\":10576:10585  _excluded */\n      0x05\n        /* \"contracts/samples/reflect_sample.sol\":10586:10587  i */\n      dup5\n        /* \"contracts/samples/reflect_sample.sol\":10576:10588  _excluded[i] */\n      dup2\n      sload\n      dup2\n      lt\n      tag_353\n      jumpi\n      tag_354\n      tag_218\n      jump\t// in\n    tag_354:\n    tag_353:\n      swap1\n      0x00\n      mstore\n      keccak256(0x00, 0x20)\n      add\n      0x00\n      swap1\n      sload\n      swap1\n      0x0100\n      exp\n      swap1\n      div\n      0xffffffffffffffffffffffffffffffffffffffff\n      and\n        /* \"contracts/samples/reflect_sample.sol\":10568:10589  _rOwned[_excluded[i]] */\n      0xffffffffffffffffffffffffffffffffffffffff\n      and\n      0xffffffffffffffffffffffffffffffffffffffff\n      and\n      dup2\n      mstore\n      0x20\n      add\n      swap1\n      dup2\n      mstore\n      0x20\n      add\n      0x00\n      keccak256\n      sload\n        /* \"contracts/samples/reflect_sample.sol\":10556:10563  rSupply */\n      dup5\n        /* \"contracts/samples/reflect_sample.sol\":10556:10567  rSupply.sub */\n      tag_119\n      swap1\n        /* \"contracts/samples/reflect_sample.sol\":10556:10590  rSupply.sub(_rOwned[_excluded[i]]) */\n      swap2\n      swap1\n      0xffffffff\n      and\n      jump\t// in\n    tag_352:\n        /* \"contracts/samples/reflect_sample.sol\":10546:10590  rSupply = rSupply.sub(_rOwned[_excluded[i]]) */\n      swap3\n      pop\n        /* \"contracts/samples/reflect_sample.sol\":10615:10649  tSupply.sub(_tOwned[_excluded[i]]) */\n      tag_356\n        /* \"contracts/samples/reflect_sample.sol\":10627:10634  _tOwned */\n      0x02\n        /* \"contracts/samples/reflect_sample.sol\":10627:10648  _tOwned[_excluded[i]] */\n      0x00\n        /* \"contracts/samples/reflect_sample.sol\":10635:10644  _excluded */\n      0x05\n        /* \"contracts/samples/reflect_sample.sol\":10645:10646  i */\n      dup5\n        /* \"contracts/samples/reflect_sample.sol\":10635:10647  _excluded[i] */\n      dup2\n      sload\n      dup2\n      lt\n      tag_357\n      jumpi\n      tag_358\n      tag_218\n      jump\t// in\n    tag_358:\n    tag_357:\n      swap1\n      0x00\n      mstore\n      keccak256(0x00, 0x20)\n      add\n      0x00\n      swap1\n      sload\n      swap1\n      0x0100\n      exp\n      swap1\n      div\n      0xffffffffffffffffffffffffffffffffffffffff\n      and\n        /* \"contracts/samples/reflect_sample.sol\":10627:10648  _tOwned[_excluded[i]] */\n      0xffffffffffffffffffffffffffffffffffffffff\n      and\n      0xffffffffffffffffffffffffffffffffffffffff\n      and\n      dup2\n      mstore\n      0x20\n      add\n      swap1\n      dup2\n      mstore\n      0x20\n      add\n      0x00\n      keccak256\n      sload\n        /* \"contracts/samples/reflect_sample.sol\":10615:10622  tSupply */\n      dup4\n        /* \"contracts/samples/reflect_sample.sol\":10615:10626  tSupply.sub */\n      tag_119\n      swap1\n        /* \"contracts/samples/reflect_sample.sol\":10615:10649  tSupply.sub(_tOwned[_excluded[i]]) */\n      swap2\n      swap1\n      0xffffffff\n      and\n      jump\t// in\n    tag_356:\n        /* \"contracts/samples/reflect_sample.sol\":10605:10649  tSupply = tSupply.sub(_tOwned[_excluded[i]]) */\n      swap2\n      pop\n        /* \"contracts/samples/reflect_sample.sol\":10414:10417  i++ */\n      dup1\n      dup1\n      tag_360\n      swap1\n      tag_234\n      jump\t// in\n    tag_360:\n      swap2\n      pop\n      pop\n        /* \"contracts/samples/reflect_sample.sol\":10372:10661  for (uint256 i = 0; i < _excluded.length; i++) {... */\n      jump(tag_341)\n    tag_342:\n      pop\n        /* \"contracts/samples/reflect_sample.sol\":10685:10705  _rTotal.div(_tTotal) */\n      tag_361\n        /* \"contracts/samples/reflect_sample.sol\":1100:1118  10 * 10**6 * 10**9 */\n      0x2386f26fc10000\n        /* \"contracts/samples/reflect_sample.sol\":10685:10692  _rTotal */\n      sload(0x06)\n        /* \"contracts/samples/reflect_sample.sol\":10685:10696  _rTotal.div */\n      tag_151\n      swap1\n        /* \"contracts/samples/reflect_sample.sol\":10685:10705  _rTotal.div(_tTotal) */\n      swap2\n      swap1\n      0xffffffff\n      and\n      jump\t// in\n    tag_361:\n        /* \"contracts/samples/reflect_sample.sol\":10675:10682  rSupply */\n      dup3\n        /* \"contracts/samples/reflect_sample.sol\":10675:10705  rSupply < _rTotal.div(_tTotal) */\n      lt\n        /* \"contracts/samples/reflect_sample.sol\":10671:10732  if (rSupply < _rTotal.div(_tTotal)) return (_rTotal, _tTotal) */\n      iszero\n      tag_362\n      jumpi\n        /* \"contracts/samples/reflect_sample.sol\":10715:10722  _rTotal */\n      sload(0x06)\n        /* \"contracts/samples/reflect_sample.sol\":1100:1118  10 * 10**6 * 10**9 */\n      0x2386f26fc10000\n        /* \"contracts/samples/reflect_sample.sol\":10707:10732  return (_rTotal, _tTotal) */\n      swap4\n      pop\n      swap4\n      pop\n      pop\n      pop\n      jump(tag_340)\n        /* \"contracts/samples/reflect_sample.sol\":10671:10732  if (rSupply < _rTotal.div(_tTotal)) return (_rTotal, _tTotal) */\n    tag_362:\n        /* \"contracts/samples/reflect_sample.sol\":10751:10758  rSupply */\n      dup2\n        /* \"contracts/samples/reflect_sample.sol\":10760:10767  tSupply */\n      dup2\n        /* \"contracts/samples/reflect_sample.sol\":10743:10768  return (rSupply, tSupply) */\n      swap4\n      pop\n      swap4\n      pop\n      pop\n      pop\n        /* \"contracts/samples/reflect_sample.sol\":10215:10776  function _getCurrentSupply() private view returns(uint256, uint256) {... */\n    tag_340:\n      swap1\n      swap2\n      jump\t// out\n        /* \"contracts/openzeppelin-contracts-release-v4.9/contracts/utils/math/SafeMath.sol\":3465:3561  function mul(uint256 a, uint256 b) internal pure returns (uint256) {... */\n    tag_308:\n        /* \"contracts/openzeppelin-contracts-release-v4.9/contracts/utils/math/SafeMath.sol\":3523:3530  uint256 */\n      0x00\n        /* \"contracts/openzeppelin-contracts-release-v4.9/contracts/utils/math/SafeMath.sol\":3553:3554  b */\n      dup2\n        /* \"contracts/openzeppelin-contracts-release-v4.9/contracts/utils/math/SafeMath.sol\":3549:3550  a */\n      dup4\n        /* \"contracts/openzeppelin-contracts-release-v4.9/contracts/utils/math/SafeMath.sol\":3549:3554  a * b */\n      tag_364\n      swap2\n      swap1\n      tag_365\n      jump\t// in\n    tag_364:\n        /* \"contracts/openzeppelin-contracts-release-v4.9/contracts/utils/math/SafeMath.sol\":3542:3554  return a * b */\n      swap1\n      pop\n        /* \"contracts/openzeppelin-contracts-release-v4.9/contracts/utils/math/SafeMath.sol\":3465:3561  function mul(uint256 a, uint256 b) internal pure returns (uint256) {... */\n      swap3\n      swap2\n      pop\n      pop\n      jump\t// out\n        /* \"contracts/samples/reflect_sample.sol\":8897:9044  function _reflectFee(uint256 rFee, uint256 tFee) private {... */\n    tag_317:\n        /* \"contracts/samples/reflect_sample.sol\":8975:8992  _rTotal.sub(rFee) */\n      tag_367\n        /* \"contracts/samples/reflect_sample.sol\":8987:8991  rFee */\n      dup3\n        /* \"contracts/samples/reflect_sample.sol\":8975:8982  _rTotal */\n      sload(0x06)\n        /* \"contracts/samples/reflect_sample.sol\":8975:8986  _rTotal.sub */\n      tag_119\n      swap1\n        /* \"contracts/samples/reflect_sample.sol\":8975:8992  _rTotal.sub(rFee) */\n      swap2\n      swap1\n      0xffffffff\n      and\n      jump\t// in\n    tag_367:\n        /* \"contracts/samples/reflect_sample.sol\":8965:8972  _rTotal */\n      0x06\n        /* \"contracts/samples/reflect_sample.sol\":8965:8992  _rTotal = _rTotal.sub(rFee) */\n      dup2\n      swap1\n      sstore\n      pop\n        /* \"contracts/samples/reflect_sample.sol\":9016:9036  _tFeeTotal.add(tFee) */\n      tag_368\n        /* \"contracts/samples/reflect_sample.sol\":9031:9035  tFee */\n      dup2\n        /* \"contracts/samples/reflect_sample.sol\":9016:9026  _tFeeTotal */\n      sload(0x07)\n        /* \"contracts/samples/reflect_sample.sol\":9016:9030  _tFeeTotal.add */\n      tag_122\n      swap1\n        /* \"contracts/samples/reflect_sample.sol\":9016:9036  _tFeeTotal.add(tFee) */\n      swap2\n      swap1\n      0xffffffff\n      and\n      jump\t// in\n    tag_368:\n        /* \"contracts/samples/reflect_sample.sol\":9003:9013  _tFeeTotal */\n      0x07\n        /* \"contracts/samples/reflect_sample.sol\":9003:9036  _tFeeTotal = _tFeeTotal.add(tFee) */\n      dup2\n      swap1\n      sstore\n      pop\n        /* \"contracts/samples/reflect_sample.sol\":8897:9044  function _reflectFee(uint256 rFee, uint256 tFee) private {... */\n      pop\n      pop\n      jump\t// out\n        /* \"#utility.yul\":88:205   */\n    tag_370:\n        /* \"#utility.yul\":197:198   */\n      0x00\n        /* \"#utility.yul\":194:195   */\n      dup1\n        /* \"#utility.yul\":187:199   */\n      revert\n        /* \"#utility.yul\":334:411   */\n    tag_372:\n        /* \"#utility.yul\":371:378   */\n      0x00\n        /* \"#utility.yul\":400:405   */\n      dup2\n        /* \"#utility.yul\":389:405   */\n      swap1\n      pop\n        /* \"#utility.yul\":334:411   */\n      swap2\n      swap1\n      pop\n      jump\t// out\n        /* \"#utility.yul\":417:539   */\n    tag_373:\n        /* \"#utility.yul\":490:514   */\n      tag_423\n        /* \"#utility.yul\":508:513   */\n      dup2\n        /* \"#utility.yul\":490:514   */\n      tag_372\n      jump\t// in\n    tag_423:\n        /* \"#utility.yul\":483:488   */\n      dup2\n        /* \"#utility.yul\":480:515   */\n      eq\n        /* \"#utility.yul\":470:533   */\n      tag_424\n      jumpi\n        /* \"#utility.yul\":529:530   */\n      0x00\n        /* \"#utility.yul\":526:527   */\n      dup1\n        /* \"#utility.yul\":519:531   */\n      revert\n        /* \"#utility.yul\":470:533   */\n    tag_424:\n        /* \"#utility.yul\":417:539   */\n      pop\n      jump\t// out\n        /* \"#utility.yul\":545:684   */\n    tag_374:\n        /* \"#utility.yul\":591:596   */\n      0x00\n        /* \"#utility.yul\":629:635   */\n      dup2\n        /* \"#utility.yul\":616:636   */\n      calldataload\n        /* \"#utility.yul\":607:636   */\n      swap1\n      pop\n        /* \"#utility.yul\":645:678   */\n      tag_426\n        /* \"#utility.yul\":672:677   */\n      dup2\n        /* \"#utility.yul\":645:678   */\n      tag_373\n      jump\t// in\n    tag_426:\n        /* \"#utility.yul\":545:684   */\n      swap3\n      swap2\n      pop\n      pop\n      jump\t// out\n        /* \"#utility.yul\":690:1019   */\n    tag_29:\n        /* \"#utility.yul\":749:755   */\n      0x00\n        /* \"#utility.yul\":798:800   */\n      0x20\n        /* \"#utility.yul\":786:795   */\n      dup3\n        /* \"#utility.yul\":777:784   */\n      dup5\n        /* \"#utility.yul\":773:796   */\n      sub\n        /* \"#utility.yul\":769:801   */\n      slt\n        /* \"#utility.yul\":766:885   */\n      iszero\n      tag_428\n      jumpi\n        /* \"#utility.yul\":804:883   */\n      tag_429\n      tag_370\n      jump\t// in\n    tag_429:\n        /* \"#utility.yul\":766:885   */\n    tag_428:\n        /* \"#utility.yul\":924:925   */\n      0x00\n        /* \"#utility.yul\":949:1002   */\n      tag_430\n        /* \"#utility.yul\":994:1001   */\n      dup5\n        /* \"#utility.yul\":985:991   */\n      dup3\n        /* \"#utility.yul\":974:983   */\n      dup6\n        /* \"#utility.yul\":970:992   */\n      add\n        /* \"#utility.yul\":949:1002   */\n      tag_374\n      jump\t// in\n    tag_430:\n        /* \"#utility.yul\":939:1002   */\n      swap2\n      pop\n        /* \"#utility.yul\":895:1012   */\n      pop\n        /* \"#utility.yul\":690:1019   */\n      swap3\n      swap2\n      pop\n      pop\n      jump\t// out\n        /* \"#utility.yul\":1025:1124   */\n    tag_375:\n        /* \"#utility.yul\":1077:1083   */\n      0x00\n        /* \"#utility.yul\":1111:1116   */\n      dup2\n        /* \"#utility.yul\":1105:1117   */\n      mload\n        /* \"#utility.yul\":1095:1117   */\n      swap1\n      pop\n        /* \"#utility.yul\":1025:1124   */\n      swap2\n      swap1\n      pop\n      jump\t// out\n        /* \"#utility.yul\":1130:1299   */\n    tag_376:\n        /* \"#utility.yul\":1214:1225   */\n      0x00\n        /* \"#utility.yul\":1248:1254   */\n      dup3\n        /* \"#utility.yul\":1243:1246   */\n      dup3\n        /* \"#utility.yul\":1236:1255   */\n      mstore\n        /* \"#utility.yul\":1288:1292   */\n      0x20\n        /* \"#utility.yul\":1283:1286   */\n      dup3\n        /* \"#utility.yul\":1279:1293   */\n      add\n        /* \"#utility.yul\":1264:1293   */\n      swap1\n      pop\n        /* \"#utility.yul\":1130:1299   */\n      swap3\n      swap2\n      pop\n      pop\n      jump\t// out\n        /* \"#utility.yul\":1305:1551   */\n    tag_377:\n        /* \"#utility.yul\":1386:1387   */\n      0x00\n        /* \"#utility.yul\":1396:1509   */\n    tag_434:\n        /* \"#utility.yul\":1410:1416   */\n      dup4\n        /* \"#utility.yul\":1407:1408   */\n      dup2\n        /* \"#utility.yul\":1404:1417   */\n      lt\n        /* \"#utility.yul\":1396:1509   */\n      iszero\n      tag_436\n      jumpi\n        /* \"#utility.yul\":1495:1496   */\n      dup1\n        /* \"#utility.yul\":1490:1493   */\n      dup3\n        /* \"#utility.yul\":1486:1497   */\n      add\n        /* \"#utility.yul\":1480:1498   */\n      mload\n        /* \"#utility.yul\":1476:1477   */\n      dup2\n        /* \"#utility.yul\":1471:1474   */\n      dup5\n        /* \"#utility.yul\":1467:1478   */\n      add\n        /* \"#utility.yul\":1460:1499   */\n      mstore\n        /* \"#utility.yul\":1432:1434   */\n      0x20\n        /* \"#utility.yul\":1429:1430   */\n      dup2\n        /* \"#utility.yul\":1425:1435   */\n      add\n        /* \"#utility.yul\":1420:1435   */\n      swap1\n      pop\n        /* \"#utility.yul\":1396:1509   */\n      jump(tag_434)\n    tag_436:\n        /* \"#utility.yul\":1543:1544   */\n      0x00\n        /* \"#utility.yul\":1534:1540   */\n      dup5\n        /* \"#utility.yul\":1529:1532   */\n      dup5\n        /* \"#utility.yul\":1525:1541   */\n      add\n        /* \"#utility.yul\":1518:1545   */\n      mstore\n        /* \"#utility.yul\":1367:1551   */\n      pop\n        /* \"#utility.yul\":1305:1551   */\n      pop\n      pop\n      pop\n      jump\t// out\n        /* \"#utility.yul\":1557:1659   */\n    tag_378:\n        /* \"#utility.yul\":1598:1604   */\n      0x00\n        /* \"#utility.yul\":1649:1651   */\n      0x1f\n        /* \"#utility.yul\":1645:1652   */\n      not\n        /* \"#utility.yul\":1640:1642   */\n      0x1f\n        /* \"#utility.yul\":1633:1638   */\n      dup4\n        /* \"#utility.yul\":1629:1643   */\n      add\n        /* \"#utility.yul\":1625:1653   */\n      and\n        /* \"#utility.yul\":1615:1653   */\n      swap1\n      pop\n        /* \"#utility.yul\":1557:1659   */\n      swap2\n      swap1\n      pop\n      jump\t// out\n        /* \"#utility.yul\":1665:2042   */\n    tag_379:\n        /* \"#utility.yul\":1753:1756   */\n      0x00\n        /* \"#utility.yul\":1781:1820   */\n      tag_439\n        /* \"#utility.yul\":1814:1819   */\n      dup3\n        /* \"#utility.yul\":1781:1820   */\n      tag_375\n      jump\t// in\n    tag_439:\n        /* \"#utility.yul\":1836:1907   */\n      tag_440\n        /* \"#utility.yul\":1900:1906   */\n      dup2\n        /* \"#utility.yul\":1895:1898   */\n      dup6\n        /* \"#utility.yul\":1836:1907   */\n      tag_376\n      jump\t// in\n    tag_440:\n        /* \"#utility.yul\":1829:1907   */\n      swap4\n      pop\n        /* \"#utility.yul\":1916:1981   */\n      tag_441\n        /* \"#utility.yul\":1974:1980   */\n      dup2\n        /* \"#utility.yul\":1969:1972   */\n      dup6\n        /* \"#utility.yul\":1962:1966   */\n      0x20\n        /* \"#utility.yul\":1955:1960   */\n      dup7\n        /* \"#utility.yul\":1951:1967   */\n      add\n        /* \"#utility.yul\":1916:1981   */\n      tag_377\n      jump\t// in\n    tag_441:\n        /* \"#utility.yul\":2006:2035   */\n      tag_442\n        /* \"#utility.yul\":2028:2034   */\n      dup2\n        /* \"#utility.yul\":2006:2035   */\n      tag_378\n      jump\t// in\n    tag_442:\n        /* \"#utility.yul\":2001:2004   */\n      dup5\n        /* \"#utility.yul\":1997:2036   */\n      add\n        /* \"#utility.yul\":1990:2036   */\n      swap2\n      pop\n        /* \"#utility.yul\":1757:2042   */\n      pop\n        /* \"#utility.yul\":1665:2042   */\n      swap3\n      swap2\n      pop\n      pop\n      jump\t// out\n        /* \"#utility.yul\":2048:2361   */\n    tag_34:\n        /* \"#utility.yul\":2161:2165   */\n      0x00\n        /* \"#utility.yul\":2199:2201   */\n      0x20\n        /* \"#utility.yul\":2188:2197   */\n      dup3\n        /* \"#utility.yul\":2184:2202   */\n      add\n        /* \"#utility.yul\":2176:2202   */\n      swap1\n      pop\n        /* \"#utility.yul\":2248:2257   */\n      dup2\n        /* \"#utility.yul\":2242:2246   */\n      dup2\n        /* \"#utility.yul\":2238:2258   */\n      sub\n        /* \"#utility.yul\":2234:2235   */\n      0x00\n        /* \"#utility.yul\":2223:2232   */\n      dup4\n        /* \"#utility.yul\":2219:2236   */\n      add\n        /* \"#utility.yul\":2212:2259   */\n      mstore\n        /* \"#utility.yul\":2276:2354   */\n      tag_444\n        /* \"#utility.yul\":2349:2353   */\n      dup2\n        /* \"#utility.yul\":2340:2346   */\n      dup5\n        /* \"#utility.yul\":2276:2354   */\n      tag_379\n      jump\t// in\n    tag_444:\n        /* \"#utility.yul\":2268:2354   */\n      swap1\n      pop\n        /* \"#utility.yul\":2048:2361   */\n      swap3\n      swap2\n      pop\n      pop\n      jump\t// out\n        /* \"#utility.yul\":2367:2493   */\n    tag_380:\n        /* \"#utility.yul\":2404:2411   */\n      0x00\n        /* \"#utility.yul\":2444:2486   */\n      0xffffffffffffffffffffffffffffffffffffffff\n        /* \"#utility.yul\":2437:2442   */\n      dup3\n        /* \"#utility.yul\":2433:2487   */\n      and\n        /* \"#utility.yul\":2422:2487   */\n      swap1\n      pop\n        /* \"#utility.yul\":2367:2493   */\n      swap2\n      swap1\n      pop\n      jump\t// out\n        /* \"#utility.yul\":2499:2595   */\n    tag_381:\n        /* \"#utility.yul\":2536:2543   */\n      0x00\n        /* \"#utility.yul\":2565:2589   */\n      tag_447\n        /* \"#utility.yul\":2583:2588   */\n      dup3\n        /* \"#utility.yul\":2565:2589   */\n      tag_380\n      jump\t// in\n    tag_447:\n        /* \"#utility.yul\":2554:2589   */\n      swap1\n      pop\n        /* \"#utility.yul\":2499:2595   */\n      swap2\n      swap1\n      pop\n      jump\t// out\n        /* \"#utility.yul\":2601:2723   */\n    tag_382:\n        /* \"#utility.yul\":2674:2698   */\n      tag_449\n        /* \"#utility.yul\":2692:2697   */\n      dup2\n        /* \"#utility.yul\":2674:2698   */\n      tag_381\n      jump\t// in\n    tag_449:\n        /* \"#utility.yul\":2667:2672   */\n      dup2\n        /* \"#utility.yul\":2664:2699   */\n      eq\n        /* \"#utility.yul\":2654:2717   */\n      tag_450\n      jumpi\n        /* \"#utility.yul\":2713:2714   */\n      0x00\n        /* \"#utility.yul\":2710:2711   */\n      dup1\n        /* \"#utility.yul\":2703:2715   */\n      revert\n        /* \"#utility.yul\":2654:2717   */\n    tag_450:\n        /* \"#utility.yul\":2601:2723   */\n      pop\n      jump\t// out\n        /* \"#utility.yul\":2729:2868   */\n    tag_383:\n        /* \"#utility.yul\":2775:2780   */\n      0x00\n        /* \"#utility.yul\":2813:2819   */\n      dup2\n        /* \"#utility.yul\":2800:2820   */\n      calldataload\n        /* \"#utility.yul\":2791:2820   */\n      swap1\n      pop\n        /* \"#utility.yul\":2829:2862   */\n      tag_452\n        /* \"#utility.yul\":2856:2861   */\n      dup2\n        /* \"#utility.yul\":2829:2862   */\n      tag_382\n      jump\t// in\n    tag_452:\n        /* \"#utility.yul\":2729:2868   */\n      swap3\n      swap2\n      pop\n      pop\n      jump\t// out\n        /* \"#utility.yul\":2874:3348   */\n    tag_37:\n        /* \"#utility.yul\":2942:2948   */\n      0x00\n        /* \"#utility.yul\":2950:2956   */\n      dup1\n        /* \"#utility.yul\":2999:3001   */\n      0x40\n        /* \"#utility.yul\":2987:2996   */\n      dup4\n        /* \"#utility.yul\":2978:2985   */\n      dup6\n        /* \"#utility.yul\":2974:2997   */\n      sub\n        /* \"#utility.yul\":2970:3002   */\n      slt\n        /* \"#utility.yul\":2967:3086   */\n      iszero\n      tag_454\n      jumpi\n        /* \"#utility.yul\":3005:3084   */\n      tag_455\n      tag_370\n      jump\t// in\n    tag_455:\n        /* \"#utility.yul\":2967:3086   */\n    tag_454:\n        /* \"#utility.yul\":3125:3126   */\n      0x00\n        /* \"#utility.yul\":3150:3203   */\n      tag_456\n        /* \"#utility.yul\":3195:3202   */\n      dup6\n        /* \"#utility.yul\":3186:3192   */\n      dup3\n        /* \"#utility.yul\":3175:3184   */\n      dup7\n        /* \"#utility.yul\":3171:3193   */\n      add\n        /* \"#utility.yul\":3150:3203   */\n      tag_383\n      jump\t// in\n    tag_456:\n        /* \"#utility.yul\":3140:3203   */\n      swap3\n      pop\n        /* \"#utility.yul\":3096:3213   */\n      pop\n        /* \"#utility.yul\":3252:3254   */\n      0x20\n        /* \"#utility.yul\":3278:3331   */\n      tag_457\n        /* \"#utility.yul\":3323:3330   */\n      dup6\n        /* \"#utility.yul\":3314:3320   */\n      dup3\n        /* \"#utility.yul\":3303:3312   */\n      dup7\n        /* \"#utility.yul\":3299:3321   */\n      add\n        /* \"#utility.yul\":3278:3331   */\n      tag_374\n      jump\t// in\n    tag_457:\n        /* \"#utility.yul\":3268:3331   */\n      swap2\n      pop\n        /* \"#utility.yul\":3223:3341   */\n      pop\n        /* \"#utility.yul\":2874:3348   */\n      swap3\n      pop\n      swap3\n      swap1\n      pop\n      jump\t// out\n        /* \"#utility.yul\":3354:3444   */\n    tag_384:\n        /* \"#utility.yul\":3388:3395   */\n      0x00\n        /* \"#utility.yul\":3431:3436   */\n      dup2\n        /* \"#utility.yul\":3424:3437   */\n      iszero\n        /* \"#utility.yul\":3417:3438   */\n      iszero\n        /* \"#utility.yul\":3406:3438   */\n      swap1\n      pop\n        /* \"#utility.yul\":3354:3444   */\n      swap2\n      swap1\n      pop\n      jump\t// out\n        /* \"#utility.yul\":3450:3559   */\n    tag_385:\n        /* \"#utility.yul\":3531:3552   */\n      tag_460\n        /* \"#utility.yul\":3546:3551   */\n      dup2\n        /* \"#utility.yul\":3531:3552   */\n      tag_384\n      jump\t// in\n    tag_460:\n        /* \"#utility.yul\":3526:3529   */\n      dup3\n        /* \"#utility.yul\":3519:3553   */\n      mstore\n        /* \"#utility.yul\":3450:3559   */\n      pop\n      pop\n      jump\t// out\n        /* \"#utility.yul\":3565:3775   */\n    tag_40:\n        /* \"#utility.yul\":3652:3656   */\n      0x00\n        /* \"#utility.yul\":3690:3692   */\n      0x20\n        /* \"#utility.yul\":3679:3688   */\n      dup3\n        /* \"#utility.yul\":3675:3693   */\n      add\n        /* \"#utility.yul\":3667:3693   */\n      swap1\n      pop\n        /* \"#utility.yul\":3703:3768   */\n      tag_462\n        /* \"#utility.yul\":3765:3766   */\n      0x00\n        /* \"#utility.yul\":3754:3763   */\n      dup4\n        /* \"#utility.yul\":3750:3767   */\n      add\n        /* \"#utility.yul\":3741:3747   */\n      dup5\n        /* \"#utility.yul\":3703:3768   */\n      tag_385\n      jump\t// in\n    tag_462:\n        /* \"#utility.yul\":3565:3775   */\n      swap3\n      swap2\n      pop\n      pop\n      jump\t// out\n        /* \"#utility.yul\":3781:3899   */\n    tag_386:\n        /* \"#utility.yul\":3868:3892   */\n      tag_464\n        /* \"#utility.yul\":3886:3891   */\n      dup2\n        /* \"#utility.yul\":3868:3892   */\n      tag_372\n      jump\t// in\n    tag_464:\n        /* \"#utility.yul\":3863:3866   */\n      dup3\n        /* \"#utility.yul\":3856:3893   */\n      mstore\n        /* \"#utility.yul\":3781:3899   */\n      pop\n      pop\n      jump\t// out\n        /* \"#utility.yul\":3905:4127   */\n    tag_44:\n        /* \"#utility.yul\":3998:4002   */\n      0x00\n        /* \"#utility.yul\":4036:4038   */\n      0x20\n        /* \"#utility.yul\":4025:4034   */\n      dup3\n        /* \"#utility.yul\":4021:4039   */\n      add\n        /* \"#utility.yul\":4013:4039   */\n      swap1\n      pop\n        /* \"#utility.yul\":4049:4120   */\n      tag_466\n        /* \"#utility.yul\":4117:4118   */\n      0x00\n        /* \"#utility.yul\":4106:4115   */\n      dup4\n        /* \"#utility.yul\":4102:4119   */\n      add\n        /* \"#utility.yul\":4093:4099   */\n      dup5\n        /* \"#utility.yul\":4049:4120   */\n      tag_386\n      jump\t// in\n    tag_466:\n        /* \"#utility.yul\":3905:4127   */\n      swap3\n      swap2\n      pop\n      pop\n      jump\t// out\n        /* \"#utility.yul\":4133:4752   */\n    tag_50:\n        /* \"#utility.yul\":4210:4216   */\n      0x00\n        /* \"#utility.yul\":4218:4224   */\n      dup1\n        /* \"#utility.yul\":4226:4232   */\n      0x00\n        /* \"#utility.yul\":4275:4277   */\n      0x60\n        /* \"#utility.yul\":4263:4272   */\n      dup5\n        /* \"#utility.yul\":4254:4261   */\n      dup7\n        /* \"#utility.yul\":4250:4273   */\n      sub\n        /* \"#utility.yul\":4246:4278   */\n      slt\n        /* \"#utility.yul\":4243:4362   */\n      iszero\n      tag_468\n      jumpi\n        /* \"#utility.yul\":4281:4360   */\n      tag_469\n      tag_370\n      jump\t// in\n    tag_469:\n        /* \"#utility.yul\":4243:4362   */\n    tag_468:\n        /* \"#utility.yul\":4401:4402   */\n      0x00\n        /* \"#utility.yul\":4426:4479   */\n      tag_470\n        /* \"#utility.yul\":4471:4478   */\n      dup7\n        /* \"#utility.yul\":4462:4468   */\n      dup3\n        /* \"#utility.yul\":4451:4460   */\n      dup8\n        /* \"#utility.yul\":4447:4469   */\n      add\n        /* \"#utility.yul\":4426:4479   */\n      tag_383\n      jump\t// in\n    tag_470:\n        /* \"#utility.yul\":4416:4479   */\n      swap4\n      pop\n        /* \"#utility.yul\":4372:4489   */\n      pop\n        /* \"#utility.yul\":4528:4530   */\n      0x20\n        /* \"#utility.yul\":4554:4607   */\n      tag_471\n        /* \"#utility.yul\":4599:4606   */\n      dup7\n        /* \"#utility.yul\":4590:4596   */\n      dup3\n        /* \"#utility.yul\":4579:4588   */\n      dup8\n        /* \"#utility.yul\":4575:4597   */\n      add\n        /* \"#utility.yul\":4554:4607   */\n      tag_383\n      jump\t// in\n    tag_471:\n        /* \"#utility.yul\":4544:4607   */\n      swap3\n      pop\n        /* \"#utility.yul\":4499:4617   */\n      pop\n        /* \"#utility.yul\":4656:4658   */\n      0x40\n        /* \"#utility.yul\":4682:4735   */\n      tag_472\n        /* \"#utility.yul\":4727:4734   */\n      dup7\n        /* \"#utility.yul\":4718:4724   */\n      dup3\n        /* \"#utility.yul\":4707:4716   */\n      dup8\n        /* \"#utility.yul\":4703:4725   */\n      add\n        /* \"#utility.yul\":4682:4735   */\n      tag_374\n      jump\t// in\n    tag_472:\n        /* \"#utility.yul\":4672:4735   */\n      swap2\n      pop\n        /* \"#utility.yul\":4627:4745   */\n      pop\n        /* \"#utility.yul\":4133:4752   */\n      swap3\n      pop\n      swap3\n      pop\n      swap3\n      jump\t// out\n        /* \"#utility.yul\":4758:4844   */\n    tag_387:\n        /* \"#utility.yul\":4793:4800   */\n      0x00\n        /* \"#utility.yul\":4833:4837   */\n      0xff\n        /* \"#utility.yul\":4826:4831   */\n      dup3\n        /* \"#utility.yul\":4822:4838   */\n      and\n        /* \"#utility.yul\":4811:4838   */\n      swap1\n      pop\n        /* \"#utility.yul\":4758:4844   */\n      swap2\n      swap1\n      pop\n      jump\t// out\n        /* \"#utility.yul\":4850:4962   */\n    tag_388:\n        /* \"#utility.yul\":4933:4955   */\n      tag_475\n        /* \"#utility.yul\":4949:4954   */\n      dup2\n        /* \"#utility.yul\":4933:4955   */\n      tag_387\n      jump\t// in\n    tag_475:\n        /* \"#utility.yul\":4928:4931   */\n      dup3\n        /* \"#utility.yul\":4921:4956   */\n      mstore\n        /* \"#utility.yul\":4850:4962   */\n      pop\n      pop\n      jump\t// out\n        /* \"#utility.yul\":4968:5182   */\n    tag_60:\n        /* \"#utility.yul\":5057:5061   */\n      0x00\n        /* \"#utility.yul\":5095:5097   */\n      0x20\n        /* \"#utility.yul\":5084:5093   */\n      dup3\n        /* \"#utility.yul\":5080:5098   */\n      add\n        /* \"#utility.yul\":5072:5098   */\n      swap1\n      pop\n        /* \"#utility.yul\":5108:5175   */\n      tag_477\n        /* \"#utility.yul\":5172:5173   */\n      0x00\n        /* \"#utility.yul\":5161:5170   */\n      dup4\n        /* \"#utility.yul\":5157:5174   */\n      add\n        /* \"#utility.yul\":5148:5154   */\n      dup5\n        /* \"#utility.yul\":5108:5175   */\n      tag_388\n      jump\t// in\n    tag_477:\n        /* \"#utility.yul\":4968:5182   */\n      swap3\n      swap2\n      pop\n      pop\n      jump\t// out\n        /* \"#utility.yul\":5188:5304   */\n    tag_389:\n        /* \"#utility.yul\":5258:5279   */\n      tag_479\n        /* \"#utility.yul\":5273:5278   */\n      dup2\n        /* \"#utility.yul\":5258:5279   */\n      tag_384\n      jump\t// in\n    tag_479:\n        /* \"#utility.yul\":5251:5256   */\n      dup2\n        /* \"#utility.yul\":5248:5280   */\n      eq\n        /* \"#utility.yul\":5238:5298   */\n      tag_480\n      jumpi\n        /* \"#utility.yul\":5294:5295   */\n      0x00\n        /* \"#utility.yul\":5291:5292   */\n      dup1\n        /* \"#utility.yul\":5284:5296   */\n      revert\n        /* \"#utility.yul\":5238:5298   */\n    tag_480:\n        /* \"#utility.yul\":5188:5304   */\n      pop\n      jump\t// out\n        /* \"#utility.yul\":5310:5443   */\n    tag_390:\n        /* \"#utility.yul\":5353:5358   */\n      0x00\n        /* \"#utility.yul\":5391:5397   */\n      dup2\n        /* \"#utility.yul\":5378:5398   */\n      calldataload\n        /* \"#utility.yul\":5369:5398   */\n      swap1\n      pop\n        /* \"#utility.yul\":5407:5437   */\n      tag_482\n        /* \"#utility.yul\":5431:5436   */\n      dup2\n        /* \"#utility.yul\":5407:5437   */\n      tag_389\n      jump\t// in\n    tag_482:\n        /* \"#utility.yul\":5310:5443   */\n      swap3\n      swap2\n      pop\n      pop\n      jump\t// out\n        /* \"#utility.yul\":5449:5917   */\n    tag_67:\n        /* \"#utility.yul\":5514:5520   */\n      0x00\n        /* \"#utility.yul\":5522:5528   */\n      dup1\n        /* \"#utility.yul\":5571:5573   */\n      0x40\n        /* \"#utility.yul\":5559:5568   */\n      dup4\n        /* \"#utility.yul\":5550:5557   */\n      dup6\n        /* \"#utility.yul\":5546:5569   */\n      sub\n        /* \"#utility.yul\":5542:5574   */\n      slt\n        /* \"#utility.yul\":5539:5658   */\n      iszero\n      tag_484\n      jumpi\n        /* \"#utility.yul\":5577:5656   */\n      tag_485\n      tag_370\n      jump\t// in\n    tag_485:\n        /* \"#utility.yul\":5539:5658   */\n    tag_484:\n        /* \"#utility.yul\":5697:5698   */\n      0x00\n        /* \"#utility.yul\":5722:5775   */\n      tag_486\n        /* \"#utility.yul\":5767:5774   */\n      dup6\n        /* \"#utility.yul\":5758:5764   */\n      dup3\n        /* \"#utility.yul\":5747:5756   */\n      dup7\n        /* \"#utility.yul\":5743:5765   */\n      add\n        /* \"#utility.yul\":5722:5775   */\n      tag_374\n      jump\t// in\n    tag_486:\n        /* \"#utility.yul\":5712:5775   */\n      swap3\n      pop\n        /* \"#utility.yul\":5668:5785   */\n      pop\n        /* \"#utility.yul\":5824:5826   */\n      0x20\n        /* \"#utility.yul\":5850:5900   */\n      tag_487\n        /* \"#utility.yul\":5892:5899   */\n      dup6\n        /* \"#utility.yul\":5883:5889   */\n      dup3\n        /* \"#utility.yul\":5872:5881   */\n      dup7\n        /* \"#utility.yul\":5868:5890   */\n      add\n        /* \"#utility.yul\":5850:5900   */\n      tag_390\n      jump\t// in\n    tag_487:\n        /* \"#utility.yul\":5840:5900   */\n      swap2\n      pop\n        /* \"#utility.yul\":5795:5910   */\n      pop\n        /* \"#utility.yul\":5449:5917   */\n      swap3\n      pop\n      swap3\n      swap1\n      pop\n      jump\t// out\n        /* \"#utility.yul\":5923:6252   */\n    tag_72:\n        /* \"#utility.yul\":5982:5988   */\n      0x00\n        /* \"#utility.yul\":6031:6033   */\n      0x20\n        /* \"#utility.yul\":6019:6028   */\n      dup3\n        /* \"#utility.yul\":6010:6017   */\n      dup5\n        /* \"#utility.yul\":6006:6029   */\n      sub\n        /* \"#utility.yul\":6002:6034   */\n      slt\n        /* \"#utility.yul\":5999:6118   */\n      iszero\n      tag_489\n      jumpi\n        /* \"#utility.yul\":6037:6116   */\n      tag_490\n      tag_370\n      jump\t// in\n    tag_490:\n        /* \"#utility.yul\":5999:6118   */\n    tag_489:\n        /* \"#utility.yul\":6157:6158   */\n      0x00\n        /* \"#utility.yul\":6182:6235   */\n      tag_491\n        /* \"#utility.yul\":6227:6234   */\n      dup5\n        /* \"#utility.yul\":6218:6224   */\n      dup3\n        /* \"#utility.yul\":6207:6216   */\n      dup6\n        /* \"#utility.yul\":6203:6225   */\n      add\n        /* \"#utility.yul\":6182:6235   */\n      tag_383\n      jump\t// in\n    tag_491:\n        /* \"#utility.yul\":6172:6235   */\n      swap2\n      pop\n        /* \"#utility.yul\":6128:6245   */\n      pop\n        /* \"#utility.yul\":5923:6252   */\n      swap3\n      swap2\n      pop\n      pop\n      jump\t// out\n        /* \"#utility.yul\":6258:6376   */\n    tag_391:\n        /* \"#utility.yul\":6345:6369   */\n      tag_493\n        /* \"#utility.yul\":6363:6368   */\n      dup2\n        /* \"#utility.yul\":6345:6369   */\n      tag_381\n      jump\t// in\n    tag_493:\n        /* \"#utility.yul\":6340:6343   */\n      dup3\n        /* \"#utility.yul\":6333:6370   */\n      mstore\n        /* \"#utility.yul\":6258:6376   */\n      pop\n      pop\n      jump\t// out\n        /* \"#utility.yul\":6382:6604   */\n    tag_80:\n        /* \"#utility.yul\":6475:6479   */\n      0x00\n        /* \"#utility.yul\":6513:6515   */\n      0x20\n        /* \"#utility.yul\":6502:6511   */\n      dup3\n        /* \"#utility.yul\":6498:6516   */\n      add\n        /* \"#utility.yul\":6490:6516   */\n      swap1\n      pop\n        /* \"#utility.yul\":6526:6597   */\n      tag_495\n        /* \"#utility.yul\":6594:6595   */\n      0x00\n        /* \"#utility.yul\":6583:6592   */\n      dup4\n        /* \"#utility.yul\":6579:6596   */\n      add\n        /* \"#utility.yul\":6570:6576   */\n      dup5\n        /* \"#utility.yul\":6526:6597   */\n      tag_391\n      jump\t// in\n    tag_495:\n        /* \"#utility.yul\":6382:6604   */\n      swap3\n      swap2\n      pop\n      pop\n      jump\t// out\n        /* \"#utility.yul\":6610:7084   */\n    tag_98:\n        /* \"#utility.yul\":6678:6684   */\n      0x00\n        /* \"#utility.yul\":6686:6692   */\n      dup1\n        /* \"#utility.yul\":6735:6737   */\n      0x40\n        /* \"#utility.yul\":6723:6732   */\n      dup4\n        /* \"#utility.yul\":6714:6721   */\n      dup6\n        /* \"#utility.yul\":6710:6733   */\n      sub\n        /* \"#utility.yul\":6706:6738   */\n      slt\n        /* \"#utility.yul\":6703:6822   */\n      iszero\n      tag_497\n      jumpi\n        /* \"#utility.yul\":6741:6820   */\n      tag_498\n      tag_370\n      jump\t// in\n    tag_498:\n        /* \"#utility.yul\":6703:6822   */\n    tag_497:\n        /* \"#utility.yul\":6861:6862   */\n      0x00\n        /* \"#utility.yul\":6886:6939   */\n      tag_499\n        /* \"#utility.yul\":6931:6938   */\n      dup6\n        /* \"#utility.yul\":6922:6928   */\n      dup3\n        /* \"#utility.yul\":6911:6920   */\n      dup7\n        /* \"#utility.yul\":6907:6929   */\n      add\n        /* \"#utility.yul\":6886:6939   */\n      tag_383\n      jump\t// in\n    tag_499:\n        /* \"#utility.yul\":6876:6939   */\n      swap3\n      pop\n        /* \"#utility.yul\":6832:6949   */\n      pop\n        /* \"#utility.yul\":6988:6990   */\n      0x20\n        /* \"#utility.yul\":7014:7067   */\n      tag_500\n        /* \"#utility.yul\":7059:7066   */\n      dup6\n        /* \"#utility.yul\":7050:7056   */\n      dup3\n        /* \"#utility.yul\":7039:7048   */\n      dup7\n        /* \"#utility.yul\":7035:7057   */\n      add\n        /* \"#utility.yul\":7014:7067   */\n      tag_383\n      jump\t// in\n    tag_500:\n        /* \"#utility.yul\":7004:7067   */\n      swap2\n      pop\n        /* \"#utility.yul\":6959:7077   */\n      pop\n        /* \"#utility.yul\":6610:7084   */\n      swap3\n      pop\n      swap3\n      swap1\n      pop\n      jump\t// out\n        /* \"#utility.yul\":7090:7321   */\n    tag_392:\n        /* \"#utility.yul\":7230:7264   */\n      0x4578636c75646564206164647265737365732063616e6e6f742063616c6c2074\n        /* \"#utility.yul\":7226:7227   */\n      0x00\n        /* \"#utility.yul\":7218:7224   */\n      dup3\n        /* \"#utility.yul\":7214:7228   */\n      add\n        /* \"#utility.yul\":7207:7265   */\n      mstore\n        /* \"#utility.yul\":7299:7313   */\n      0x6869732066756e6374696f6e0000000000000000000000000000000000000000\n        /* \"#utility.yul\":7294:7296   */\n      0x20\n        /* \"#utility.yul\":7286:7292   */\n      dup3\n        /* \"#utility.yul\":7282:7297   */\n      add\n        /* \"#utility.yul\":7275:7314   */\n      mstore\n        /* \"#utility.yul\":7090:7321   */\n      pop\n      jump\t// out\n        /* \"#utility.yul\":7327:7693   */\n    tag_393:\n        /* \"#utility.yul\":7469:7472   */\n      0x00\n        /* \"#utility.yul\":7490:7557   */\n      tag_503\n        /* \"#utility.yul\":7554:7556   */\n      0x2c\n        /* \"#utility.yul\":7549:7552   */\n      dup4\n        /* \"#utility.yul\":7490:7557   */\n      tag_376\n      jump\t// in\n    tag_503:\n        /* \"#utility.yul\":7483:7557   */\n      swap2\n      pop\n        /* \"#utility.yul\":7566:7659   */\n      tag_504\n        /* \"#utility.yul\":7655:7658   */\n      dup3\n        /* \"#utility.yul\":7566:7659   */\n      tag_392\n      jump\t// in\n    tag_504:\n        /* \"#utility.yul\":7684:7686   */\n      0x40\n        /* \"#utility.yul\":7679:7682   */\n      dup3\n        /* \"#utility.yul\":7675:7687   */\n      add\n        /* \"#utility.yul\":7668:7687   */\n      swap1\n      pop\n        /* \"#utility.yul\":7327:7693   */\n      swap2\n      swap1\n      pop\n      jump\t// out\n        /* \"#utility.yul\":7699:8118   */\n    tag_115:\n        /* \"#utility.yul\":7865:7869   */\n      0x00\n        /* \"#utility.yul\":7903:7905   */\n      0x20\n        /* \"#utility.yul\":7892:7901   */\n      dup3\n        /* \"#utility.yul\":7888:7906   */\n      add\n        /* \"#utility.yul\":7880:7906   */\n      swap1\n      pop\n        /* \"#utility.yul\":7952:7961   */\n      dup2\n        /* \"#utility.yul\":7946:7950   */\n      dup2\n        /* \"#utility.yul\":7942:7962   */\n      sub\n        /* \"#utility.yul\":7938:7939   */\n      0x00\n        /* \"#utility.yul\":7927:7936   */\n      dup4\n        /* \"#utility.yul\":7923:7940   */\n      add\n        /* \"#utility.yul\":7916:7963   */\n      mstore\n        /* \"#utility.yul\":7980:8111   */\n      tag_506\n        /* \"#utility.yul\":8106:8110   */\n      dup2\n        /* \"#utility.yul\":7980:8111   */\n      tag_393\n      jump\t// in\n    tag_506:\n        /* \"#utility.yul\":7972:8111   */\n      swap1\n      pop\n        /* \"#utility.yul\":7699:8118   */\n      swap2\n      swap1\n      pop\n      jump\t// out\n        /* \"#utility.yul\":8124:8304   */\n    tag_394:\n        /* \"#utility.yul\":8172:8249   */\n      0x4e487b7100000000000000000000000000000000000000000000000000000000\n        /* \"#utility.yul\":8169:8170   */\n      0x00\n        /* \"#utility.yul\":8162:8250   */\n      mstore\n        /* \"#utility.yul\":8269:8273   */\n      0x22\n        /* \"#utility.yul\":8266:8267   */\n      0x04\n        /* \"#utility.yul\":8259:8274   */\n      mstore\n        /* \"#utility.yul\":8293:8297   */\n      0x24\n        /* \"#utility.yul\":8290:8291   */\n      0x00\n        /* \"#utility.yul\":8283:8298   */\n      revert\n        /* \"#utility.yul\":8310:8630   */\n    tag_125:\n        /* \"#utility.yul\":8354:8360   */\n      0x00\n        /* \"#utility.yul\":8391:8392   */\n      0x02\n        /* \"#utility.yul\":8385:8389   */\n      dup3\n        /* \"#utility.yul\":8381:8393   */\n      div\n        /* \"#utility.yul\":8371:8393   */\n      swap1\n      pop\n        /* \"#utility.yul\":8438:8439   */\n      0x01\n        /* \"#utility.yul\":8432:8436   */\n      dup3\n        /* \"#utility.yul\":8428:8440   */\n      and\n        /* \"#utility.yul\":8459:8477   */\n      dup1\n        /* \"#utility.yul\":8449:8530   */\n      tag_509\n      jumpi\n        /* \"#utility.yul\":8515:8519   */\n      0x7f\n        /* \"#utility.yul\":8507:8513   */\n      dup3\n        /* \"#utility.yul\":8503:8520   */\n      and\n        /* \"#utility.yul\":8493:8520   */\n      swap2\n      pop\n        /* \"#utility.yul\":8449:8530   */\n    tag_509:\n        /* \"#utility.yul\":8577:8579   */\n      0x20\n        /* \"#utility.yul\":8569:8575   */\n      dup3\n        /* \"#utility.yul\":8566:8580   */\n      lt\n        /* \"#utility.yul\":8546:8564   */\n      dup2\n        /* \"#utility.yul\":8543:8581   */\n      sub\n        /* \"#utility.yul\":8540:8624   */\n      tag_510\n      jumpi\n        /* \"#utility.yul\":8596:8614   */\n      tag_511\n      tag_394\n      jump\t// in\n    tag_511:\n        /* \"#utility.yul\":8540:8624   */\n    tag_510:\n        /* \"#utility.yul\":8361:8630   */\n      pop\n        /* \"#utility.yul\":8310:8630   */\n      swap2\n      swap1\n      pop\n      jump\t// out\n        /* \"#utility.yul\":8636:8865   */\n    tag_395:\n        /* \"#utility.yul\":8776:8810   */\n      0x416d6f756e74206d757374206265206c657373207468616e20746f74616c2072\n        /* \"#utility.yul\":8772:8773   */\n      0x00\n        /* \"#utility.yul\":8764:8770   */\n      dup3\n        /* \"#utility.yul\":8760:8774   */\n      add\n        /* \"#utility.yul\":8753:8811   */\n      mstore\n        /* \"#utility.yul\":8845:8857   */\n      0x65666c656374696f6e7300000000000000000000000000000000000000000000\n        /* \"#utility.yul\":8840:8842   */\n      0x20\n        /* \"#utility.yul\":8832:8838   */\n      dup3\n        /* \"#utility.yul\":8828:8843   */\n      add\n        /* \"#utility.yul\":8821:8858   */\n      mstore\n        /* \"#utility.yul\":8636:8865   */\n      pop\n      jump\t// out\n        /* \"#utility.yul\":8871:9237   */\n    tag_396:\n        /* \"#utility.yul\":9013:9016   */\n      0x00\n        /* \"#utility.yul\":9034:9101   */\n      tag_514\n        /* \"#utility.yul\":9098:9100   */\n      0x2a\n        /* \"#utility.yul\":9093:9096   */\n      dup4\n        /* \"#utility.yul\":9034:9101   */\n      tag_376\n      jump\t// in\n    tag_514:\n        /* \"#utility.yul\":9027:9101   */\n      swap2\n      pop\n        /* \"#utility.yul\":9110:9203   */\n      tag_515\n        /* \"#utility.yul\":9199:9202   */\n      dup3\n        /* \"#utility.yul\":9110:9203   */\n      tag_395\n      jump\t// in\n    tag_515:\n        /* \"#utility.yul\":9228:9230   */\n      0x40\n        /* \"#utility.yul\":9223:9226   */\n      dup3\n        /* \"#utility.yul\":9219:9231   */\n      add\n        /* \"#utility.yul\":9212:9231   */\n      swap1\n      pop\n        /* \"#utility.yul\":8871:9237   */\n      swap2\n      swap1\n      pop\n      jump\t// out\n        /* \"#utility.yul\":9243:9662   */\n    tag_147:\n        /* \"#utility.yul\":9409:9413   */\n      0x00\n        /* \"#utility.yul\":9447:9449   */\n      0x20\n        /* \"#utility.yul\":9436:9445   */\n      dup3\n        /* \"#utility.yul\":9432:9450   */\n      add\n        /* \"#utility.yul\":9424:9450   */\n      swap1\n      pop\n        /* \"#utility.yul\":9496:9505   */\n      dup2\n        /* \"#utility.yul\":9490:9494   */\n      dup2\n        /* \"#utility.yul\":9486:9506   */\n      sub\n        /* \"#utility.yul\":9482:9483   */\n      0x00\n        /* \"#utility.yul\":9471:9480   */\n      dup4\n        /* \"#utility.yul\":9467:9484   */\n      add\n        /* \"#utility.yul\":9460:9507   */\n      mstore\n        /* \"#utility.yul\":9524:9655   */\n      tag_517\n        /* \"#utility.yul\":9650:9654   */\n      dup2\n        /* \"#utility.yul\":9524:9655   */\n      tag_396\n      jump\t// in\n    tag_517:\n        /* \"#utility.yul\":9516:9655   */\n      swap1\n      pop\n        /* \"#utility.yul\":9243:9662   */\n      swap2\n      swap1\n      pop\n      jump\t// out\n        /* \"#utility.yul\":9668:9849   */\n    tag_397:\n        /* \"#utility.yul\":9808:9841   */\n      0x416d6f756e74206d757374206265206c657373207468616e20737570706c7900\n        /* \"#utility.yul\":9804:9805   */\n      0x00\n        /* \"#utility.yul\":9796:9802   */\n      dup3\n        /* \"#utility.yul\":9792:9806   */\n      add\n        /* \"#utility.yul\":9785:9842   */\n      mstore\n        /* \"#utility.yul\":9668:9849   */\n      pop\n      jump\t// out\n        /* \"#utility.yul\":9855:10221   */\n    tag_398:\n        /* \"#utility.yul\":9997:10000   */\n      0x00\n        /* \"#utility.yul\":10018:10085   */\n      tag_520\n        /* \"#utility.yul\":10082:10084   */\n      0x1f\n        /* \"#utility.yul\":10077:10080   */\n      dup4\n        /* \"#utility.yul\":10018:10085   */\n      tag_376\n      jump\t// in\n    tag_520:\n        /* \"#utility.yul\":10011:10085   */\n      swap2\n      pop\n        /* \"#utility.yul\":10094:10187   */\n      tag_521\n        /* \"#utility.yul\":10183:10186   */\n      dup3\n        /* \"#utility.yul\":10094:10187   */\n      tag_397\n      jump\t// in\n    tag_521:\n        /* \"#utility.yul\":10212:10214   */\n      0x20\n        /* \"#utility.yul\":10207:10210   */\n      dup3\n        /* \"#utility.yul\":10203:10215   */\n      add\n        /* \"#utility.yul\":10196:10215   */\n      swap1\n      pop\n        /* \"#utility.yul\":9855:10221   */\n      swap2\n      swap1\n      pop\n      jump\t// out\n        /* \"#utility.yul\":10227:10646   */\n    tag_161:\n        /* \"#utility.yul\":10393:10397   */\n      0x00\n        /* \"#utility.yul\":10431:10433   */\n      0x20\n        /* \"#utility.yul\":10420:10429   */\n      dup3\n        /* \"#utility.yul\":10416:10434   */\n      add\n        /* \"#utility.yul\":10408:10434   */\n      swap1\n      pop\n        /* \"#utility.yul\":10480:10489   */\n      dup2\n        /* \"#utility.yul\":10474:10478   */\n      dup2\n        /* \"#utility.yul\":10470:10490   */\n      sub\n        /* \"#utility.yul\":10466:10467   */\n      0x00\n        /* \"#utility.yul\":10455:10464   */\n      dup4\n        /* \"#utility.yul\":10451:10468   */\n      add\n        /* \"#utility.yul\":10444:10491   */\n      mstore\n        /* \"#utility.yul\":10508:10639   */\n      tag_523\n        /* \"#utility.yul\":10634:10638   */\n      dup2\n        /* \"#utility.yul\":10508:10639   */\n      tag_398\n      jump\t// in\n    tag_523:\n        /* \"#utility.yul\":10500:10639   */\n      swap1\n      pop\n        /* \"#utility.yul\":10227:10646   */\n      swap2\n      swap1\n      pop\n      jump\t// out\n        /* \"#utility.yul\":10652:10829   */\n    tag_399:\n        /* \"#utility.yul\":10792:10821   */\n      0x4163636f756e7420697320616c7265616479206578636c756465640000000000\n        /* \"#utility.yul\":10788:10789   */\n      0x00\n        /* \"#utility.yul\":10780:10786   */\n      dup3\n        /* \"#utility.yul\":10776:10790   */\n      add\n        /* \"#utility.yul\":10769:10822   */\n      mstore\n        /* \"#utility.yul\":10652:10829   */\n      pop\n      jump\t// out\n        /* \"#utility.yul\":10835:11201   */\n    tag_400:\n        /* \"#utility.yul\":10977:10980   */\n      0x00\n        /* \"#utility.yul\":10998:11065   */\n      tag_526\n        /* \"#utility.yul\":11062:11064   */\n      0x1b\n        /* \"#utility.yul\":11057:11060   */\n      dup4\n        /* \"#utility.yul\":10998:11065   */\n      tag_376\n      jump\t// in\n    tag_526:\n        /* \"#utility.yul\":10991:11065   */\n      swap2\n      pop\n        /* \"#utility.yul\":11074:11167   */\n      tag_527\n        /* \"#utility.yul\":11163:11166   */\n      dup3\n        /* \"#utility.yul\":11074:11167   */\n      tag_399\n      jump\t// in\n    tag_527:\n        /* \"#utility.yul\":11192:11194   */\n      0x20\n        /* \"#utility.yul\":11187:11190   */\n      dup3\n        /* \"#utility.yul\":11183:11195   */\n      add\n        /* \"#utility.yul\":11176:11195   */\n      swap1\n      pop\n        /* \"#utility.yul\":10835:11201   */\n      swap2\n      swap1\n      pop\n      jump\t// out\n        /* \"#utility.yul\":11207:11626   */\n    tag_197:\n        /* \"#utility.yul\":11373:11377   */\n      0x00\n        /* \"#utility.yul\":11411:11413   */\n      0x20\n        /* \"#utility.yul\":11400:11409   */\n      dup3\n        /* \"#utility.yul\":11396:11414   */\n      add\n        /* \"#utility.yul\":11388:11414   */\n      swap1\n      pop\n        /* \"#utility.yul\":11460:11469   */\n      dup2\n        /* \"#utility.yul\":11454:11458   */\n      dup2\n        /* \"#utility.yul\":11450:11470   */\n      sub\n        /* \"#utility.yul\":11446:11447   */\n      0x00\n        /* \"#utility.yul\":11435:11444   */\n      dup4\n        /* \"#utility.yul\":11431:11448   */\n      add\n        /* \"#utility.yul\":11424:11471   */\n      mstore\n        /* \"#utility.yul\":11488:11619   */\n      tag_529\n        /* \"#utility.yul\":11614:11618   */\n      dup2\n        /* \"#utility.yul\":11488:11619   */\n      tag_400\n      jump\t// in\n    tag_529:\n        /* \"#utility.yul\":11480:11619   */\n      swap1\n      pop\n        /* \"#utility.yul\":11207:11626   */\n      swap2\n      swap1\n      pop\n      jump\t// out\n        /* \"#utility.yul\":11632:11857   */\n    tag_401:\n        /* \"#utility.yul\":11772:11806   */\n      0x4f776e61626c653a206e6577206f776e657220697320746865207a65726f2061\n        /* \"#utility.yul\":11768:11769   */\n      0x00\n        /* \"#utility.yul\":11760:11766   */\n      dup3\n        /* \"#utility.yul\":11756:11770   */\n      add\n        /* \"#utility.yul\":11749:11807   */\n      mstore\n        /* \"#utility.yul\":11841:11849   */\n      0x6464726573730000000000000000000000000000000000000000000000000000\n        /* \"#utility.yul\":11836:11838   */\n      0x20\n        /* \"#utility.yul\":11828:11834   */\n      dup3\n        /* \"#utility.yul\":11824:11839   */\n      add\n        /* \"#utility.yul\":11817:11850   */\n      mstore\n        /* \"#utility.yul\":11632:11857   */\n      pop\n      jump\t// out\n        /* \"#utility.yul\":11863:12229   */\n    tag_402:\n        /* \"#utility.yul\":12005:12008   */\n      0x00\n        /* \"#utility.yul\":12026:12093   */\n      tag_532\n        /* \"#utility.yul\":12090:12092   */\n      0x26\n        /* \"#utility.yul\":12085:12088   */\n      dup4\n        /* \"#utility.yul\":12026:12093   */\n      tag_376\n      jump\t// in\n    tag_532:\n        /* \"#utility.yul\":12019:12093   */\n      swap2\n      pop\n        /* \"#utility.yul\":12102:12195   */\n      tag_533\n        /* \"#utility.yul\":12191:12194   */\n      dup3\n        /* \"#utility.yul\":12102:12195   */\n      tag_401\n      jump\t// in\n    tag_533:\n        /* \"#utility.yul\":12220:12222   */\n      0x40\n        /* \"#utility.yul\":12215:12218   */\n      dup3\n        /* \"#utility.yul\":12211:12223   */\n      add\n        /* \"#utility.yul\":12204:12223   */\n      swap1\n      pop\n        /* \"#utility.yul\":11863:12229   */\n      swap2\n      swap1\n      pop\n      jump\t// out\n        /* \"#utility.yul\":12235:12654   */\n    tag_206:\n        /* \"#utility.yul\":12401:12405   */\n      0x00\n        /* \"#utility.yul\":12439:12441   */\n      0x20\n        /* \"#utility.yul\":12428:12437   */\n      dup3\n        /* \"#utility.yul\":12424:12442   */\n      add\n        /* \"#utility.yul\":12416:12442   */\n      swap1\n      pop\n        /* \"#utility.yul\":12488:12497   */\n      dup2\n        /* \"#utility.yul\":12482:12486   */\n      dup2\n        /* \"#utility.yul\":12478:12498   */\n      sub\n        /* \"#utility.yul\":12474:12475   */\n      0x00\n        /* \"#utility.yul\":12463:12472   */\n      dup4\n        /* \"#utility.yul\":12459:12476   */\n      add\n        /* \"#utility.yul\":12452:12499   */\n      mstore\n        /* \"#utility.yul\":12516:12647   */\n      tag_535\n        /* \"#utility.yul\":12642:12646   */\n      dup2\n        /* \"#utility.yul\":12516:12647   */\n      tag_402\n      jump\t// in\n    tag_535:\n        /* \"#utility.yul\":12508:12647   */\n      swap1\n      pop\n        /* \"#utility.yul\":12235:12654   */\n      swap2\n      swap1\n      pop\n      jump\t// out\n        /* \"#utility.yul\":12660:12840   */\n    tag_218:\n        /* \"#utility.yul\":12708:12785   */\n      0x4e487b7100000000000000000000000000000000000000000000000000000000\n        /* \"#utility.yul\":12705:12706   */\n      0x00\n        /* \"#utility.yul\":12698:12786   */\n      mstore\n        /* \"#utility.yul\":12805:12809   */\n      0x32\n        /* \"#utility.yul\":12802:12803   */\n      0x04\n        /* \"#utility.yul\":12795:12810   */\n      mstore\n        /* \"#utility.yul\":12829:12833   */\n      0x24\n        /* \"#utility.yul\":12826:12827   */\n      0x00\n        /* \"#utility.yul\":12819:12834   */\n      revert\n        /* \"#utility.yul\":12846:13026   */\n    tag_403:\n        /* \"#utility.yul\":12894:12971   */\n      0x4e487b7100000000000000000000000000000000000000000000000000000000\n        /* \"#utility.yul\":12891:12892   */\n      0x00\n        /* \"#utility.yul\":12884:12972   */\n      mstore\n        /* \"#utility.yul\":12991:12995   */\n      0x11\n        /* \"#utility.yul\":12988:12989   */\n      0x04\n        /* \"#utility.yul\":12981:12996   */\n      mstore\n        /* \"#utility.yul\":13015:13019   */\n      0x24\n        /* \"#utility.yul\":13012:13013   */\n      0x00\n        /* \"#utility.yul\":13005:13020   */\n      revert\n        /* \"#utility.yul\":13032:13226   */\n    tag_222:\n        /* \"#utility.yul\":13072:13076   */\n      0x00\n        /* \"#utility.yul\":13092:13112   */\n      tag_539\n        /* \"#utility.yul\":13110:13111   */\n      dup3\n        /* \"#utility.yul\":13092:13112   */\n      tag_372\n      jump\t// in\n    tag_539:\n        /* \"#utility.yul\":13087:13112   */\n      swap2\n      pop\n        /* \"#utility.yul\":13126:13146   */\n      tag_540\n        /* \"#utility.yul\":13144:13145   */\n      dup4\n        /* \"#utility.yul\":13126:13146   */\n      tag_372\n      jump\t// in\n    tag_540:\n        /* \"#utility.yul\":13121:13146   */\n      swap3\n      pop\n        /* \"#utility.yul\":13170:13171   */\n      dup3\n        /* \"#utility.yul\":13167:13168   */\n      dup3\n        /* \"#utility.yul\":13163:13172   */\n      sub\n        /* \"#utility.yul\":13155:13172   */\n      swap1\n      pop\n        /* \"#utility.yul\":13194:13195   */\n      dup2\n        /* \"#utility.yul\":13188:13192   */\n      dup2\n        /* \"#utility.yul\":13185:13196   */\n      gt\n        /* \"#utility.yul\":13182:13219   */\n      iszero\n      tag_541\n      jumpi\n        /* \"#utility.yul\":13199:13217   */\n      tag_542\n      tag_403\n      jump\t// in\n    tag_542:\n        /* \"#utility.yul\":13182:13219   */\n    tag_541:\n        /* \"#utility.yul\":13032:13226   */\n      swap3\n      swap2\n      pop\n      pop\n      jump\t// out\n        /* \"#utility.yul\":13232:13412   */\n    tag_231:\n        /* \"#utility.yul\":13280:13357   */\n      0x4e487b7100000000000000000000000000000000000000000000000000000000\n        /* \"#utility.yul\":13277:13278   */\n      0x00\n        /* \"#utility.yul\":13270:13358   */\n      mstore\n        /* \"#utility.yul\":13377:13381   */\n      0x31\n        /* \"#utility.yul\":13374:13375   */\n      0x04\n        /* \"#utility.yul\":13367:13382   */\n      mstore\n        /* \"#utility.yul\":13401:13405   */\n      0x24\n        /* \"#utility.yul\":13398:13399   */\n      0x00\n        /* \"#utility.yul\":13391:13406   */\n      revert\n        /* \"#utility.yul\":13418:13651   */\n    tag_234:\n        /* \"#utility.yul\":13457:13460   */\n      0x00\n        /* \"#utility.yul\":13480:13504   */\n      tag_545\n        /* \"#utility.yul\":13498:13503   */\n      dup3\n        /* \"#utility.yul\":13480:13504   */\n      tag_372\n      jump\t// in\n    tag_545:\n        /* \"#utility.yul\":13471:13504   */\n      swap2\n      pop\n        /* \"#utility.yul\":13526:13592   */\n      0xffffffffffffffffffffffffffffffffffffffffffffffffffffffffffffffff\n        /* \"#utility.yul\":13519:13524   */\n      dup3\n        /* \"#utility.yul\":13516:13593   */\n      sub\n        /* \"#utility.yul\":13513:13616   */\n      tag_546\n      jumpi\n        /* \"#utility.yul\":13596:13614   */\n      tag_547\n      tag_403\n      jump\t// in\n    tag_547:\n        /* \"#utility.yul\":13513:13616   */\n    tag_546:\n        /* \"#utility.yul\":13643:13644   */\n      0x01\n        /* \"#utility.yul\":13636:13641   */\n      dup3\n        /* \"#utility.yul\":13632:13645   */\n      add\n        /* \"#utility.yul\":13625:13645   */\n      swap1\n      pop\n        /* \"#utility.yul\":13418:13651   */\n      swap2\n      swap1\n      pop\n      jump\t// out\n        /* \"#utility.yul\":13657:13848   */\n    tag_246:\n        /* \"#utility.yul\":13697:13700   */\n      0x00\n        /* \"#utility.yul\":13716:13736   */\n      tag_549\n        /* \"#utility.yul\":13734:13735   */\n      dup3\n        /* \"#utility.yul\":13716:13736   */\n      tag_372\n      jump\t// in\n    tag_549:\n        /* \"#utility.yul\":13711:13736   */\n      swap2\n      pop\n        /* \"#utility.yul\":13750:13770   */\n      tag_550\n        /* \"#utility.yul\":13768:13769   */\n      dup4\n        /* \"#utility.yul\":13750:13770   */\n      tag_372\n      jump\t// in\n    tag_550:\n        /* \"#utility.yul\":13745:13770   */\n      swap3\n      pop\n        /* \"#utility.yul\":13793:13794   */\n      dup3\n        /* \"#utility.yul\":13790:13791   */\n      dup3\n        /* \"#utility.yul\":13786:13795   */\n      add\n        /* \"#utility.yul\":13779:13795   */\n      swap1\n      pop\n        /* \"#utility.yul\":13814:13817   */\n      dup1\n        /* \"#utility.yul\":13811:13812   */\n      dup3\n        /* \"#utility.yul\":13808:13818   */\n      gt\n        /* \"#utility.yul\":13805:13841   */\n      iszero\n      tag_551\n      jumpi\n        /* \"#utility.yul\":13821:13839   */\n      tag_552\n      tag_403\n      jump\t// in\n    tag_552:\n        /* \"#utility.yul\":13805:13841   */\n    tag_551:\n        /* \"#utility.yul\":13657:13848   */\n      swap3\n      swap2\n      pop\n      pop\n      jump\t// out\n        /* \"#utility.yul\":13854:14077   */\n    tag_404:\n        /* \"#utility.yul\":13994:14028   */\n      0x45524332303a20617070726f76652066726f6d20746865207a65726f20616464\n        /* \"#utility.yul\":13990:13991   */\n      0x00\n        /* \"#utility.yul\":13982:13988   */\n      dup3\n        /* \"#utility.yul\":13978:13992   */\n      add\n        /* \"#utility.yul\":13971:14029   */\n      mstore\n        /* \"#utility.yul\":14063:14069   */\n      0x7265737300000000000000000000000000000000000000000000000000000000\n        /* \"#utility.yul\":14058:14060   */\n      0x20\n        /* \"#utility.yul\":14050:14056   */\n      dup3\n        /* \"#utility.yul\":14046:14061   */\n      add\n        /* \"#utility.yul\":14039:14070   */\n      mstore\n        /* \"#utility.yul\":13854:14077   */\n      pop\n      jump\t// out\n        /* \"#utility.yul\":14083:14449   */\n    tag_405:\n        /* \"#utility.yul\":14225:14228   */\n      0x00\n        /* \"#utility.yul\":14246:14313   */\n      tag_555\n        /* \"#utility.yul\":14310:14312   */\n      0x24\n        /* \"#utility.yul\":14305:14308   */\n      dup4\n        /* \"#utility.yul\":14246:14313   */\n      tag_376\n      jump\t// in\n    tag_555:\n        /* \"#utility.yul\":14239:14313   */\n      swap2\n      pop\n        /* \"#utility.yul\":14322:14415   */\n      tag_556\n        /* \"#utility.yul\":14411:14414   */\n      dup3\n        /* \"#utility.yul\":14322:14415   */\n      tag_404\n      jump\t// in\n    tag_556:\n        /* \"#utility.yul\":14440:14442   */\n      0x40\n        /* \"#utility.yul\":14435:14438   */\n      dup3\n        /* \"#utility.yul\":14431:14443   */\n      add\n        /* \"#utility.yul\":14424:14443   */\n      swap1\n      pop\n        /* \"#utility.yul\":14083:14449   */\n      swap2\n      swap1\n      pop\n      jump\t// out\n        /* \"#utility.yul\":14455:14874   */\n    tag_250:\n        /* \"#utility.yul\":14621:14625   */\n      0x00\n        /* \"#utility.yul\":14659:14661   */\n      0x20\n        /* \"#utility.yul\":14648:14657   */\n      dup3\n        /* \"#utility.yul\":14644:14662   */\n      add\n        /* \"#utility.yul\":14636:14662   */\n      swap1\n      pop\n        /* \"#utility.yul\":14708:14717   */\n      dup2\n        /* \"#utility.yul\":14702:14706   */\n      dup2\n        /* \"#utility.yul\":14698:14718   */\n      sub\n        /* \"#utility.yul\":14694:14695   */\n      0x00\n        /* \"#utility.yul\":14683:14692   */\n      dup4\n        /* \"#utility.yul\":14679:14696   */\n      add\n        /* \"#utility.yul\":14672:14719   */\n      mstore\n        /* \"#utility.yul\":14736:14867   */\n      tag_558\n        /* \"#utility.yul\":14862:14866   */\n      dup2\n        /* \"#utility.yul\":14736:14867   */\n      tag_405\n      jump\t// in\n    tag_558:\n        /* \"#utility.yul\":14728:14867   */\n      swap1\n      pop\n        /* \"#utility.yul\":14455:14874   */\n      swap2\n      swap1\n      pop\n      jump\t// out\n        /* \"#utility.yul\":14880:15101   */\n    tag_406:\n        /* \"#utility.yul\":15020:15054   */\n      0x45524332303a20617070726f766520746f20746865207a65726f206164647265\n        /* \"#utility.yul\":15016:15017   */\n      0x00\n        /* \"#utility.yul\":15008:15014   */\n      dup3\n        /* \"#utility.yul\":15004:15018   */\n      add\n        /* \"#utility.yul\":14997:15055   */\n      mstore\n        /* \"#utility.yul\":15089:15093   */\n      0x7373000000000000000000000000000000000000000000000000000000000000\n        /* \"#utility.yul\":15084:15086   */\n      0x20\n        /* \"#utility.yul\":15076:15082   */\n      dup3\n        /* \"#utility.yul\":15072:15087   */\n      add\n        /* \"#utility.yul\":15065:15094   */\n      mstore\n        /* \"#utility.yul\":14880:15101   */\n      pop\n      jump\t// out\n        /* \"#utility.yul\":15107:15473   */\n    tag_407:\n        /* \"#utility.yul\":15249:15252   */\n      0x00\n        /* \"#utility.yul\":15270:15337   */\n      tag_561\n        /* \"#utility.yul\":15334:15336   */\n      0x22\n        /* \"#utility.yul\":15329:15332   */\n      dup4\n        /* \"#utility.yul\":15270:15337   */\n      tag_376\n      jump\t// in\n    tag_561:\n        /* \"#utility.yul\":15263:15337   */\n      swap2\n      pop\n        /* \"#utility.yul\":15346:15439   */\n      tag_562\n        /* \"#utility.yul\":15435:15438   */\n      dup3\n        /* \"#utility.yul\":15346:15439   */\n      tag_406\n      jump\t// in\n    tag_562:\n        /* \"#utility.yul\":15464:15466   */\n      0x40\n        /* \"#utility.yul\":15459:15462   */\n      dup3\n        /* \"#utility.yul\":15455:15467   */\n      add\n        /* \"#utility.yul\":15448:15467   */\n      swap1\n      pop\n        /* \"#utility.yul\":15107:15473   */\n      swap2\n      swap1\n      pop\n      jump\t// out\n        /* \"#utility.yul\":15479:15898   */\n    tag_253:\n        /* \"#utility.yul\":15645:15649   */\n      0x00\n        /* \"#utility.yul\":15683:15685   */\n      0x20\n        /* \"#utility.yul\":15672:15681   */\n      dup3\n        /* \"#utility.yul\":15668:15686   */\n      add\n        /* \"#utility.yul\":15660:15686   */\n      swap1\n      pop\n        /* \"#utility.yul\":15732:15741   */\n      dup2\n        /* \"#utility.yul\":15726:15730   */\n      dup2\n        /* \"#utility.yul\":15722:15742   */\n      sub\n        /* \"#utility.yul\":15718:15719   */\n      0x00\n        /* \"#utility.yul\":15707:15716   */\n      dup4\n        /* \"#utility.yul\":15703:15720   */\n      add\n        /* \"#utility.yul\":15696:15743   */\n      mstore\n        /* \"#utility.yul\":15760:15891   */\n      tag_564\n        /* \"#utility.yul\":15886:15890   */\n      dup2\n        /* \"#utility.yul\":15760:15891   */\n      tag_407\n      jump\t// in\n    tag_564:\n        /* \"#utility.yul\":15752:15891   */\n      swap1\n      pop\n        /* \"#utility.yul\":15479:15898   */\n      swap2\n      swap1\n      pop\n      jump\t// out\n        /* \"#utility.yul\":15904:16128   */\n    tag_408:\n        /* \"#utility.yul\":16044:16078   */\n      0x45524332303a207472616e736665722066726f6d20746865207a65726f206164\n        /* \"#utility.yul\":16040:16041   */\n      0x00\n        /* \"#utility.yul\":16032:16038   */\n      dup3\n        /* \"#utility.yul\":16028:16042   */\n      add\n        /* \"#utility.yul\":16021:16079   */\n      mstore\n        /* \"#utility.yul\":16113:16120   */\n      0x6472657373000000000000000000000000000000000000000000000000000000\n        /* \"#utility.yul\":16108:16110   */\n      0x20\n        /* \"#utility.yul\":16100:16106   */\n      dup3\n        /* \"#utility.yul\":16096:16111   */\n      add\n        /* \"#utility.yul\":16089:16121   */\n      mstore\n        /* \"#utility.yul\":15904:16128   */\n      pop\n      jump\t// out\n        /* \"#utility.yul\":16134:16500   */\n    tag_409:\n        /* \"#utility.yul\":16276:16279   */\n      0x00\n        /* \"#utility.yul\":16297:16364   */\n      tag_567\n        /* \"#utility.yul\":16361:16363   */\n      0x25\n        /* \"#utility.yul\":16356:16359   */\n      dup4\n        /* \"#utility.yul\":16297:16364   */\n      tag_376\n      jump\t// in\n    tag_567:\n        /* \"#utility.yul\":16290:16364   */\n      swap2\n      pop\n        /* \"#utility.yul\":16373:16466   */\n      tag_568\n        /* \"#utility.yul\":16462:16465   */\n      dup3\n        /* \"#utility.yul\":16373:16466   */\n      tag_408\n      jump\t// in\n    tag_568:\n        /* \"#utility.yul\":16491:16493   */\n      0x40\n        /* \"#utility.yul\":16486:16489   */\n      dup3\n        /* \"#utility.yul\":16482:16494   */\n      add\n        /* \"#utility.yul\":16475:16494   */\n      swap1\n      pop\n        /* \"#utility.yul\":16134:16500   */\n      swap2\n      swap1\n      pop\n      jump\t// out\n        /* \"#utility.yul\":16506:16925   */\n    tag_258:\n        /* \"#utility.yul\":16672:16676   */\n      0x00\n        /* \"#utility.yul\":16710:16712   */\n      0x20\n        /* \"#utility.yul\":16699:16708   */\n      dup3\n        /* \"#utility.yul\":16695:16713   */\n      add\n        /* \"#utility.yul\":16687:16713   */\n      swap1\n      pop\n        /* \"#utility.yul\":16759:16768   */\n      dup2\n        /* \"#utility.yul\":16753:16757   */\n      dup2\n        /* \"#utility.yul\":16749:16769   */\n      sub\n        /* \"#utility.yul\":16745:16746   */\n      0x00\n        /* \"#utility.yul\":16734:16743   */\n      dup4\n        /* \"#utility.yul\":16730:16747   */\n      add\n        /* \"#utility.yul\":16723:16770   */\n      mstore\n        /* \"#utility.yul\":16787:16918   */\n      tag_570\n        /* \"#utility.yul\":16913:16917   */\n      dup2\n        /* \"#utility.yul\":16787:16918   */\n      tag_409\n      jump\t// in\n    tag_570:\n        /* \"#utility.yul\":16779:16918   */\n      swap1\n      pop\n        /* \"#utility.yul\":16506:16925   */\n      swap2\n      swap1\n      pop\n      jump\t// out\n        /* \"#utility.yul\":16931:17153   */\n    tag_410:\n        /* \"#utility.yul\":17071:17105   */\n      0x45524332303a207472616e7366657220746f20746865207a65726f2061646472\n        /* \"#utility.yul\":17067:17068   */\n      0x00\n        /* \"#utility.yul\":17059:17065   */\n      dup3\n        /* \"#utility.yul\":17055:17069   */\n      add\n        /* \"#utility.yul\":17048:17106   */\n      mstore\n        /* \"#utility.yul\":17140:17145   */\n      0x6573730000000000000000000000000000000000000000000000000000000000\n        /* \"#utility.yul\":17135:17137   */\n      0x20\n        /* \"#utility.yul\":17127:17133   */\n      dup3\n        /* \"#utility.yul\":17123:17138   */\n      add\n        /* \"#utility.yul\":17116:17146   */\n      mstore\n        /* \"#utility.yul\":16931:17153   */\n      pop\n      jump\t// out\n        /* \"#utility.yul\":17159:17525   */\n    tag_411:\n        /* \"#utility.yul\":17301:17304   */\n      0x00\n        /* \"#utility.yul\":17322:17389   */\n      tag_573\n        /* \"#utility.yul\":17386:17388   */\n      0x23\n        /* \"#utility.yul\":17381:17384   */\n      dup4\n        /* \"#utility.yul\":17322:17389   */\n      tag_376\n      jump\t// in\n    tag_573:\n        /* \"#utility.yul\":17315:17389   */\n      swap2\n      pop\n        /* \"#utility.yul\":17398:17491   */\n      tag_574\n        /* \"#utility.yul\":17487:17490   */\n      dup3\n        /* \"#utility.yul\":17398:17491   */\n      tag_410\n      jump\t// in\n    tag_574:\n        /* \"#utility.yul\":17516:17518   */\n      0x40\n        /* \"#utility.yul\":17511:17514   */\n      dup3\n        /* \"#utility.yul\":17507:17519   */\n      add\n        /* \"#utility.yul\":17500:17519   */\n      swap1\n      pop\n        /* \"#utility.yul\":17159:17525   */\n      swap2\n      swap1\n      pop\n      jump\t// out\n        /* \"#utility.yul\":17531:17950   */\n    tag_261:\n        /* \"#utility.yul\":17697:17701   */\n      0x00\n        /* \"#utility.yul\":17735:17737   */\n      0x20\n        /* \"#utility.yul\":17724:17733   */\n      dup3\n        /* \"#utility.yul\":17720:17738   */\n      add\n        /* \"#utility.yul\":17712:17738   */\n      swap1\n      pop\n        /* \"#utility.yul\":17784:17793   */\n      dup2\n        /* \"#utility.yul\":17778:17782   */\n      dup2\n        /* \"#utility.yul\":17774:17794   */\n      sub\n        /* \"#utility.yul\":17770:17771   */\n      0x00\n        /* \"#utility.yul\":17759:17768   */\n      dup4\n        /* \"#utility.yul\":17755:17772   */\n      add\n        /* \"#utility.yul\":17748:17795   */\n      mstore\n        /* \"#utility.yul\":17812:17943   */\n      tag_576\n        /* \"#utility.yul\":17938:17942   */\n      dup2\n        /* \"#utility.yul\":17812:17943   */\n      tag_411\n      jump\t// in\n    tag_576:\n        /* \"#utility.yul\":17804:17943   */\n      swap1\n      pop\n        /* \"#utility.yul\":17531:17950   */\n      swap2\n      swap1\n      pop\n      jump\t// out\n        /* \"#utility.yul\":17956:18184   */\n    tag_412:\n        /* \"#utility.yul\":18096:18130   */\n      0x5472616e7366657220616d6f756e74206d757374206265206772656174657220\n        /* \"#utility.yul\":18092:18093   */\n      0x00\n        /* \"#utility.yul\":18084:18090   */\n      dup3\n        /* \"#utility.yul\":18080:18094   */\n      add\n        /* \"#utility.yul\":18073:18131   */\n      mstore\n        /* \"#utility.yul\":18165:18176   */\n      0x7468616e207a65726f0000000000000000000000000000000000000000000000\n        /* \"#utility.yul\":18160:18162   */\n      0x20\n        /* \"#utility.yul\":18152:18158   */\n      dup3\n        /* \"#utility.yul\":18148:18163   */\n      add\n        /* \"#utility.yul\":18141:18177   */\n      mstore\n        /* \"#utility.yul\":17956:18184   */\n      pop\n      jump\t// out\n        /* \"#utility.yul\":18190:18556   */\n    tag_413:\n        /* \"#utility.yul\":18332:18335   */\n      0x00\n        /* \"#utility.yul\":18353:18420   */\n      tag_579\n        /* \"#utility.yul\":18417:18419   */\n      0x29\n        /* \"#utility.yul\":18412:18415   */\n      dup4\n        /* \"#utility.yul\":18353:18420   */\n      tag_376\n      jump\t// in\n    tag_579:\n        /* \"#utility.yul\":18346:18420   */\n      swap2\n      pop\n        /* \"#utility.yul\":18429:18522   */\n      tag_580\n        /* \"#utility.yul\":18518:18521   */\n      dup3\n        /* \"#utility.yul\":18429:18522   */\n      tag_412\n      jump\t// in\n    tag_580:\n        /* \"#utility.yul\":18547:18549   */\n      0x40\n        /* \"#utility.yul\":18542:18545   */\n      dup3\n        /* \"#utility.yul\":18538:18550   */\n      add\n        /* \"#utility.yul\":18531:18550   */\n      swap1\n      pop\n        /* \"#utility.yul\":18190:18556   */\n      swap2\n      swap1\n      pop\n      jump\t// out\n        /* \"#utility.yul\":18562:18981   */\n    tag_264:\n        /* \"#utility.yul\":18728:18732   */\n      0x00\n        /* \"#utility.yul\":18766:18768   */\n      0x20\n        /* \"#utility.yul\":18755:18764   */\n      dup3\n        /* \"#utility.yul\":18751:18769   */\n      add\n        /* \"#utility.yul\":18743:18769   */\n      swap1\n      pop\n        /* \"#utility.yul\":18815:18824   */\n      dup2\n        /* \"#utility.yul\":18809:18813   */\n      dup2\n        /* \"#utility.yul\":18805:18825   */\n      sub\n        /* \"#utility.yul\":18801:18802   */\n      0x00\n        /* \"#utility.yul\":18790:18799   */\n      dup4\n        /* \"#utility.yul\":18786:18803   */\n      add\n        /* \"#utility.yul\":18779:18826   */\n      mstore\n        /* \"#utility.yul\":18843:18974   */\n      tag_582\n        /* \"#utility.yul\":18969:18973   */\n      dup2\n        /* \"#utility.yul\":18843:18974   */\n      tag_413\n      jump\t// in\n    tag_582:\n        /* \"#utility.yul\":18835:18974   */\n      swap1\n      pop\n        /* \"#utility.yul\":18562:18981   */\n      swap2\n      swap1\n      pop\n      jump\t// out\n        /* \"#utility.yul\":18987:19167   */\n    tag_414:\n        /* \"#utility.yul\":19035:19112   */\n      0x4e487b7100000000000000000000000000000000000000000000000000000000\n        /* \"#utility.yul\":19032:19033   */\n      0x00\n        /* \"#utility.yul\":19025:19113   */\n      mstore\n        /* \"#utility.yul\":19132:19136   */\n      0x12\n        /* \"#utility.yul\":19129:19130   */\n      0x04\n        /* \"#utility.yul\":19122:19137   */\n      mstore\n        /* \"#utility.yul\":19156:19160   */\n      0x24\n        /* \"#utility.yul\":19153:19154   */\n      0x00\n        /* \"#utility.yul\":19146:19161   */\n      revert\n        /* \"#utility.yul\":19173:19358   */\n    tag_295:\n        /* \"#utility.yul\":19213:19214   */\n      0x00\n        /* \"#utility.yul\":19230:19250   */\n      tag_585\n        /* \"#utility.yul\":19248:19249   */\n      dup3\n        /* \"#utility.yul\":19230:19250   */\n      tag_372\n      jump\t// in\n    tag_585:\n        /* \"#utility.yul\":19225:19250   */\n      swap2\n      pop\n        /* \"#utility.yul\":19264:19284   */\n      tag_586\n        /* \"#utility.yul\":19282:19283   */\n      dup4\n        /* \"#utility.yul\":19264:19284   */\n      tag_372\n      jump\t// in\n    tag_586:\n        /* \"#utility.yul\":19259:19284   */\n      swap3\n      pop\n        /* \"#utility.yul\":19303:19304   */\n      dup3\n        /* \"#utility.yul\":19293:19328   */\n      tag_587\n      jumpi\n        /* \"#utility.yul\":19308:19326   */\n      tag_588\n      tag_414\n      jump\t// in\n    tag_588:\n        /* \"#utility.yul\":19293:19328   */\n    tag_587:\n        /* \"#utility.yul\":19350:19351   */\n      dup3\n        /* \"#utility.yul\":19347:19348   */\n      dup3\n        /* \"#utility.yul\":19343:19352   */\n      div\n        /* \"#utility.yul\":19338:19352   */\n      swap1\n      pop\n        /* \"#utility.yul\":19173:19358   */\n      swap3\n      swap2\n      pop\n      pop\n      jump\t// out\n        /* \"#utility.yul\":19364:19546   */\n    tag_415:\n        /* \"#utility.yul\":19504:19538   */\n      0x4f776e61626c653a2063616c6c6572206973206e6f7420746865206f776e6572\n        /* \"#utility.yul\":19500:19501   */\n      0x00\n        /* \"#utility.yul\":19492:19498   */\n      dup3\n        /* \"#utility.yul\":19488:19502   */\n      add\n        /* \"#utility.yul\":19481:19539   */\n      mstore\n        /* \"#utility.yul\":19364:19546   */\n      pop\n      jump\t// out\n        /* \"#utility.yul\":19552:19918   */\n    tag_416:\n        /* \"#utility.yul\":19694:19697   */\n      0x00\n        /* \"#utility.yul\":19715:19782   */\n      tag_591\n        /* \"#utility.yul\":19779:19781   */\n      0x20\n        /* \"#utility.yul\":19774:19777   */\n      dup4\n        /* \"#utility.yul\":19715:19782   */\n      tag_376\n      jump\t// in\n    tag_591:\n        /* \"#utility.yul\":19708:19782   */\n      swap2\n      pop\n        /* \"#utility.yul\":19791:19884   */\n      tag_592\n        /* \"#utility.yul\":19880:19883   */\n      dup3\n        /* \"#utility.yul\":19791:19884   */\n      tag_415\n      jump\t// in\n    tag_592:\n        /* \"#utility.yul\":19909:19911   */\n      0x20\n        /* \"#utility.yul\":19904:19907   */\n      dup3\n        /* \"#utility.yul\":19900:19912   */\n      add\n        /* \"#utility.yul\":19893:19912   */\n      swap1\n      pop\n        /* \"#utility.yul\":19552:19918   */\n      swap2\n      swap1\n      pop\n      jump\t// out\n        /* \"#utility.yul\":19924:20343   */\n    tag_301:\n        /* \"#utility.yul\":20090:20094   */\n      0x00\n        /* \"#utility.yul\":20128:20130   */\n      0x20\n        /* \"#utility.yul\":20117:20126   */\n      dup3\n        /* \"#utility.yul\":20113:20131   */\n      add\n        /* \"#utility.yul\":20105:20131   */\n      swap1\n      pop\n        /* \"#utility.yul\":20177:20186   */\n      dup2\n        /* \"#utility.yul\":20171:20175   */\n      dup2\n        /* \"#utility.yul\":20167:20187   */\n      sub\n        /* \"#utility.yul\":20163:20164   */\n      0x00\n        /* \"#utility.yul\":20152:20161   */\n      dup4\n        /* \"#utility.yul\":20148:20165   */\n      add\n        /* \"#utility.yul\":20141:20188   */\n      mstore\n        /* \"#utility.yul\":20205:20336   */\n      tag_594\n        /* \"#utility.yul\":20331:20335   */\n      dup2\n        /* \"#utility.yul\":20205:20336   */\n      tag_416\n      jump\t// in\n    tag_594:\n        /* \"#utility.yul\":20197:20336   */\n      swap1\n      pop\n        /* \"#utility.yul\":19924:20343   */\n      swap2\n      swap1\n      pop\n      jump\t// out\n        /* \"#utility.yul\":20349:20759   */\n    tag_365:\n        /* \"#utility.yul\":20389:20396   */\n      0x00\n        /* \"#utility.yul\":20412:20432   */\n      tag_596\n        /* \"#utility.yul\":20430:20431   */\n      dup3\n        /* \"#utility.yul\":20412:20432   */\n      tag_372\n      jump\t// in\n    tag_596:\n        /* \"#utility.yul\":20407:20432   */\n      swap2\n      pop\n        /* \"#utility.yul\":20446:20466   */\n      tag_597\n        /* \"#utility.yul\":20464:20465   */\n      dup4\n        /* \"#utility.yul\":20446:20466   */\n      tag_372\n      jump\t// in\n    tag_597:\n        /* \"#utility.yul\":20441:20466   */\n      swap3\n      pop\n        /* \"#utility.yul\":20501:20502   */\n      dup3\n        /* \"#utility.yul\":20498:20499   */\n      dup3\n        /* \"#utility.yul\":20494:20503   */\n      mul\n        /* \"#utility.yul\":20523:20553   */\n      tag_598\n        /* \"#utility.yul\":20541:20552   */\n      dup2\n        /* \"#utility.yul\":20523:20553   */\n      tag_372\n      jump\t// in\n    tag_598:\n        /* \"#utility.yul\":20512:20553   */\n      swap2\n      pop\n        /* \"#utility.yul\":20702:20703   */\n      dup3\n        /* \"#utility.yul\":20693:20700   */\n      dup3\n        /* \"#utility.yul\":20689:20704   */\n      div\n        /* \"#utility.yul\":20686:20687   */\n      dup5\n        /* \"#utility.yul\":20683:20705   */\n      eq\n        /* \"#utility.yul\":20663:20664   */\n      dup4\n        /* \"#utility.yul\":20656:20665   */\n      iszero\n        /* \"#utility.yul\":20636:20719   */\n      or\n        /* \"#utility.yul\":20613:20752   */\n      tag_599\n      jumpi\n        /* \"#utility.yul\":20732:20750   */\n      tag_600\n      tag_403\n      jump\t// in\n    tag_600:\n        /* \"#utility.yul\":20613:20752   */\n    tag_599:\n        /* \"#utility.yul\":20397:20759   */\n      pop\n        /* \"#utility.yul\":20349:20759   */\n      swap3\n      swap2\n      pop\n      pop\n      jump\t// out\n    stop\n    data_974d1b4421da69cc60b481194f0dad36a5bb4e23da810da7a7fb30cdba178330 45524332303a207472616e7366657220616d6f756e74206578636565647320616c6c6f77616e6365\n    data_f8b476f7d28209d77d4a4ac1fe36b9f8259aa1bb6bddfa6e89de7e51615cf8a8 45524332303a2064656372656173656420616c6c6f77616e63652062656c6f77207a65726f\n\n    auxdata: 0xa2646970667358221220092a2501f8accd28275b3d6c7741ea78e8976fb1004ae88723e4516996bcb0ba64736f6c63430008120033\n}\n",
				"bytecode": {
					"linkReferences": {},
					"object": "6080604052662386f26fc100006000196200001b9190620002e3565b6000196200002a91906200034a565b6006556040518060400160405280600f81526020017f7265666c6563742e66696e616e6365000000000000000000000000000000000081525060089081620000739190620005f5565b506040518060400160405280600381526020017f524649000000000000000000000000000000000000000000000000000000000081525060099081620000ba9190620005f5565b506009600a60006101000a81548160ff021916908360ff160217905550348015620000e457600080fd5b5062000105620000f9620001de60201b60201c565b620001e660201b60201c565b600654600160006200011c620001de60201b60201c565b73ffffffffffffffffffffffffffffffffffffffff1673ffffffffffffffffffffffffffffffffffffffff168152602001908152602001600020819055506200016a620001de60201b60201c565b73ffffffffffffffffffffffffffffffffffffffff16600073ffffffffffffffffffffffffffffffffffffffff167fddf252ad1be2c89b69c2b068fc378daa952ba7f163c4a11628f55a4df523b3ef662386f26fc10000604051620001d09190620006ed565b60405180910390a36200070a565b600033905090565b60008060009054906101000a900473ffffffffffffffffffffffffffffffffffffffff169050816000806101000a81548173ffffffffffffffffffffffffffffffffffffffff021916908373ffffffffffffffffffffffffffffffffffffffff1602179055508173ffffffffffffffffffffffffffffffffffffffff168173ffffffffffffffffffffffffffffffffffffffff167f8be0079c531659141344cd1fd0a4f28419497f9722a3daafe3b4186f6b6457e060405160405180910390a35050565b6000819050919050565b7f4e487b7100000000000000000000000000000000000000000000000000000000600052601260045260246000fd5b6000620002f082620002aa565b9150620002fd83620002aa565b92508262000310576200030f620002b4565b5b828206905092915050565b7f4e487b7100000000000000000000000000000000000000000000000000000000600052601160045260246000fd5b60006200035782620002aa565b91506200036483620002aa565b92508282039050818111156200037f576200037e6200031b565b5b92915050565b600081519050919050565b7f4e487b7100000000000000000000000000000000000000000000000000000000600052604160045260246000fd5b7f4e487b7100000000000000000000000000000000000000000000000000000000600052602260045260246000fd5b600060028204905060018216806200040757607f821691505b6020821081036200041d576200041c620003bf565b5b50919050565b60008190508160005260206000209050919050565b60006020601f8301049050919050565b600082821b905092915050565b600060088302620004877fffffffffffffffffffffffffffffffffffffffffffffffffffffffffffffffff8262000448565b62000493868362000448565b95508019841693508086168417925050509392505050565b6000819050919050565b6000620004d6620004d0620004ca84620002aa565b620004ab565b620002aa565b9050919050565b6000819050919050565b620004f283620004b5565b6200050a6200050182620004dd565b84845462000455565b825550505050565b600090565b6200052162000512565b6200052e818484620004e7565b505050565b5b8181101562000556576200054a60008262000517565b60018101905062000534565b5050565b601f821115620005a5576200056f8162000423565b6200057a8462000438565b810160208510156200058a578190505b620005a2620005998562000438565b83018262000533565b50505b505050565b600082821c905092915050565b6000620005ca60001984600802620005aa565b1980831691505092915050565b6000620005e58383620005b7565b9150826002028217905092915050565b620006008262000385565b67ffffffffffffffff8111156200061c576200061b62000390565b5b620006288254620003ee565b620006358282856200055a565b600060209050601f8311600181146200066d576000841562000658578287015190505b620006648582620005d7565b865550620006d4565b601f1984166200067d8662000423565b60005b82811015620006a75784890151825560018201915060208501945060208101905062000680565b86831015620006c75784890151620006c3601f891682620005b7565b8355505b6001600288020188555050505b505050505050565b620006e781620002aa565b82525050565b6000602082019050620007046000830184620006dc565b92915050565b61338f806200071a6000396000f3fe608060405234801561001057600080fd5b50600436106101375760003560e01c806370a08231116100b8578063a9059cbb1161007c578063a9059cbb14610366578063cba0e99614610396578063dd62ed3e146103c6578063f2cc0c18146103f6578063f2fde38b14610412578063f84354f11461042e57610137565b806370a08231146102c0578063715018a6146102f05780638da5cb5b146102fa57806395d89b4114610318578063a457c2d71461033657610137565b806323b872dd116100ff57806323b872dd146101e25780632d83811914610212578063313ce5671461024257806339509351146102605780634549b0391461029057610137565b8063053ab1821461013c57806306fdde0314610158578063095ea7b31461017657806313114a9d146101a657806318160ddd146101c4575b600080fd5b6101566004803603810190610151919061278f565b61044a565b005b6101606105c4565b60405161016d919061284c565b60405180910390f35b610190600480360381019061018b91906128cc565b610656565b60405161019d9190612927565b60405180910390f35b6101ae610674565b6040516101bb9190612951565b60405180910390f35b6101cc61067e565b6040516101d99190612951565b60405180910390f35b6101fc60048036038101906101f7919061296c565b61068d565b6040516102099190612927565b60405180910390f35b61022c6004803603810190610227919061278f565b610766565b6040516102399190612951565b60405180910390f35b61024a6107d4565b60405161025791906129db565b60405180910390f35b61027a600480360381019061027591906128cc565b6107eb565b6040516102879190612927565b60405180910390f35b6102aa60048036038101906102a59190612a22565b61089e565b6040516102b79190612951565b60405180910390f35b6102da60048036038101906102d59190612a62565b610925565b6040516102e79190612951565b60405180910390f35b6102f8610a10565b005b610302610a24565b60405161030f9190612a9e565b60405180910390f35b610320610a4d565b60405161032d919061284c565b60405180910390f35b610350600480360381019061034b91906128cc565b610adf565b60405161035d9190612927565b60405180910390f35b610380600480360381019061037b91906128cc565b610bac565b60405161038d9190612927565b60405180910390f35b6103b060048036038101906103ab9190612a62565b610bca565b6040516103bd9190612927565b60405180910390f35b6103e060048036038101906103db9190612ab9565b610c20565b6040516103ed9190612951565b60405180910390f35b610410600480360381019061040b9190612a62565b610ca7565b005b61042c60048036038101906104279190612a62565b610ece565b005b61044860048036038101906104439190612a62565b610f51565b005b6000610454611212565b9050600460008273ffffffffffffffffffffffffffffffffffffffff1673ffffffffffffffffffffffffffffffffffffffff16815260200190815260200160002060009054906101000a900460ff16156104e3576040517f08c379a00000000000000000000000000000000000000000000000000000000081526004016104da90612b6b565b60405180910390fd5b60006104ee8361121a565b50505050905061054681600160008573ffffffffffffffffffffffffffffffffffffffff1673ffffffffffffffffffffffffffffffffffffffff1681526020019081526020016000205461127290919063ffffffff16565b600160008473ffffffffffffffffffffffffffffffffffffffff1673ffffffffffffffffffffffffffffffffffffffff1681526020019081526020016000208190555061059e8160065461127290919063ffffffff16565b6006819055506105b98360075461128890919063ffffffff16565b600781905550505050565b6060600880546105d390612bba565b80601f01602080910402602001604051908101604052809291908181526020018280546105ff90612bba565b801561064c5780601f106106215761010080835404028352916020019161064c565b820191906000526020600020905b81548152906001019060200180831161062f57829003601f168201915b5050505050905090565b600061066a610663611212565b848461129e565b6001905092915050565b6000600754905090565b6000662386f26fc10000905090565b600061069a848484611467565b61075b846106a6611212565b6107568560405180606001604052806028815260200161330d60289139600360008b73ffffffffffffffffffffffffffffffffffffffff1673ffffffffffffffffffffffffffffffffffffffff168152602001908152602001600020600061070c611212565b73ffffffffffffffffffffffffffffffffffffffff1673ffffffffffffffffffffffffffffffffffffffff1681526020019081526020016000205461187c9092919063ffffffff16565b61129e565b600190509392505050565b60006006548211156107ad576040517f08c379a00000000000000000000000000000000000000000000000000000000081526004016107a490612c5d565b60405180910390fd5b60006107b76118d1565b90506107cc81846118fc90919063ffffffff16565b915050919050565b6000600a60009054906101000a900460ff16905090565b60006108946107f8611212565b8461088f8560036000610809611212565b73ffffffffffffffffffffffffffffffffffffffff1673ffffffffffffffffffffffffffffffffffffffff16815260200190815260200160002060008973ffffffffffffffffffffffffffffffffffffffff1673ffffffffffffffffffffffffffffffffffffffff1681526020019081526020016000205461128890919063ffffffff16565b61129e565b6001905092915050565b6000662386f26fc100008311156108ea576040517f08c379a00000000000000000000000000000000000000000000000000000000081526004016108e190612cc9565b60405180910390fd5b816109095760006108fa8461121a565b5050505090508091505061091f565b60006109148461121a565b505050915050809150505b92915050565b6000600460008373ffffffffffffffffffffffffffffffffffffffff1673ffffffffffffffffffffffffffffffffffffffff16815260200190815260200160002060009054906101000a900460ff16156109c057600260008373ffffffffffffffffffffffffffffffffffffffff1673ffffffffffffffffffffffffffffffffffffffff168152602001908152602001600020549050610a0b565b610a08600160008473ffffffffffffffffffffffffffffffffffffffff1673ffffffffffffffffffffffffffffffffffffffff16815260200190815260200160002054610766565b90505b919050565b610a18611912565b610a226000611990565b565b60008060009054906101000a900473ffffffffffffffffffffffffffffffffffffffff16905090565b606060098054610a5c90612bba565b80601f0160208091040260200160405190810160405280929190818152602001828054610a8890612bba565b8015610ad55780601f10610aaa57610100808354040283529160200191610ad5565b820191906000526020600020905b815481529060010190602001808311610ab857829003601f168201915b5050505050905090565b6000610ba2610aec611212565b84610b9d856040518060600160405280602581526020016133356025913960036000610b16611212565b73ffffffffffffffffffffffffffffffffffffffff1673ffffffffffffffffffffffffffffffffffffffff16815260200190815260200160002060008a73ffffffffffffffffffffffffffffffffffffffff1673ffffffffffffffffffffffffffffffffffffffff1681526020019081526020016000205461187c9092919063ffffffff16565b61129e565b6001905092915050565b6000610bc0610bb9611212565b8484611467565b6001905092915050565b6000600460008373ffffffffffffffffffffffffffffffffffffffff1673ffffffffffffffffffffffffffffffffffffffff16815260200190815260200160002060009054906101000a900460ff169050919050565b6000600360008473ffffffffffffffffffffffffffffffffffffffff1673ffffffffffffffffffffffffffffffffffffffff16815260200190815260200160002060008373ffffffffffffffffffffffffffffffffffffffff1673ffffffffffffffffffffffffffffffffffffffff16815260200190815260200160002054905092915050565b610caf611912565b600460008273ffffffffffffffffffffffffffffffffffffffff1673ffffffffffffffffffffffffffffffffffffffff16815260200190815260200160002060009054906101000a900460ff1615610d3c576040517f08c379a0000000000000000000000000000000000000000000000000000000008152600401610d3390612d35565b60405180910390fd5b6000600160008373ffffffffffffffffffffffffffffffffffffffff1673ffffffffffffffffffffffffffffffffffffffff168152602001908152602001600020541115610e1057610dcc600160008373ffffffffffffffffffffffffffffffffffffffff1673ffffffffffffffffffffffffffffffffffffffff16815260200190815260200160002054610766565b600260008373ffffffffffffffffffffffffffffffffffffffff1673ffffffffffffffffffffffffffffffffffffffff168152602001908152602001600020819055505b6001600460008373ffffffffffffffffffffffffffffffffffffffff1673ffffffffffffffffffffffffffffffffffffffff16815260200190815260200160002060006101000a81548160ff0219169083151502179055506005819080600181540180825580915050600190039060005260206000200160009091909190916101000a81548173ffffffffffffffffffffffffffffffffffffffff021916908373ffffffffffffffffffffffffffffffffffffffff16021790555050565b610ed6611912565b600073ffffffffffffffffffffffffffffffffffffffff168173ffffffffffffffffffffffffffffffffffffffff1603610f45576040517f08c379a0000000000000000000000000000000000000000000000000000000008152600401610f3c90612dc7565b60405180910390fd5b610f4e81611990565b50565b610f59611912565b600460008273ffffffffffffffffffffffffffffffffffffffff1673ffffffffffffffffffffffffffffffffffffffff16815260200190815260200160002060009054906101000a900460ff16610fe5576040517f08c379a0000000000000000000000000000000000000000000000000000000008152600401610fdc90612d35565b60405180910390fd5b60005b60058054905081101561120e578173ffffffffffffffffffffffffffffffffffffffff16600582815481106110205761101f612de7565b5b9060005260206000200160009054906101000a900473ffffffffffffffffffffffffffffffffffffffff1673ffffffffffffffffffffffffffffffffffffffff16036111fb576005600160058054905061107a9190612e45565b8154811061108b5761108a612de7565b5b9060005260206000200160009054906101000a900473ffffffffffffffffffffffffffffffffffffffff16600582815481106110ca576110c9612de7565b5b9060005260206000200160006101000a81548173ffffffffffffffffffffffffffffffffffffffff021916908373ffffffffffffffffffffffffffffffffffffffff1602179055506000600260008473ffffffffffffffffffffffffffffffffffffffff1673ffffffffffffffffffffffffffffffffffffffff168152602001908152602001600020819055506000600460008473ffffffffffffffffffffffffffffffffffffffff1673ffffffffffffffffffffffffffffffffffffffff16815260200190815260200160002060006101000a81548160ff02191690831515021790555060058054806111c1576111c0612e79565b5b6001900381819060005260206000200160006101000a81549073ffffffffffffffffffffffffffffffffffffffff0219169055905561120e565b808061120690612ea8565b915050610fe8565b5050565b600033905090565b600080600080600080600061122e88611a54565b91509150600061123c6118d1565b9050600080600061124e8c8686611a93565b92509250925082828288889a509a509a509a509a5050505050505091939590929450565b600081836112809190612e45565b905092915050565b600081836112969190612ef0565b905092915050565b600073ffffffffffffffffffffffffffffffffffffffff168373ffffffffffffffffffffffffffffffffffffffff160361130d576040517f08c379a000000000000000000000000000000000000000000000000000000000815260040161130490612f96565b60405180910390fd5b600073ffffffffffffffffffffffffffffffffffffffff168273ffffffffffffffffffffffffffffffffffffffff160361137c576040517f08c379a000000000000000000000000000000000000000000000000000000000815260040161137390613028565b60405180910390fd5b80600360008573ffffffffffffffffffffffffffffffffffffffff1673ffffffffffffffffffffffffffffffffffffffff16815260200190815260200160002060008473ffffffffffffffffffffffffffffffffffffffff1673ffffffffffffffffffffffffffffffffffffffff168152602001908152602001600020819055508173ffffffffffffffffffffffffffffffffffffffff168373ffffffffffffffffffffffffffffffffffffffff167f8c5be1e5ebec7d5bd14f71427d1e84f3dd0314c0f7b2291e5b200ac8c7c3b9258360405161145a9190612951565b60405180910390a3505050565b600073ffffffffffffffffffffffffffffffffffffffff168373ffffffffffffffffffffffffffffffffffffffff16036114d6576040517f08c379a00000000000000000000000000000000000000000000000000000000081526004016114cd906130ba565b60405180910390fd5b600073ffffffffffffffffffffffffffffffffffffffff168273ffffffffffffffffffffffffffffffffffffffff1603611545576040517f08c379a000000000000000000000000000000000000000000000000000000000815260040161153c9061314c565b60405180910390fd5b60008111611588576040517f08c379a000000000000000000000000000000000000000000000000000000000815260040161157f906131de565b60405180910390fd5b600460008473ffffffffffffffffffffffffffffffffffffffff1673ffffffffffffffffffffffffffffffffffffffff16815260200190815260200160002060009054906101000a900460ff16801561162b5750600460008373ffffffffffffffffffffffffffffffffffffffff1673ffffffffffffffffffffffffffffffffffffffff16815260200190815260200160002060009054906101000a900460ff16155b156116405761163b838383611af1565b611877565b600460008473ffffffffffffffffffffffffffffffffffffffff1673ffffffffffffffffffffffffffffffffffffffff16815260200190815260200160002060009054906101000a900460ff161580156116e35750600460008373ffffffffffffffffffffffffffffffffffffffff1673ffffffffffffffffffffffffffffffffffffffff16815260200190815260200160002060009054906101000a900460ff165b156116f8576116f3838383611d44565b611876565b600460008473ffffffffffffffffffffffffffffffffffffffff1673ffffffffffffffffffffffffffffffffffffffff16815260200190815260200160002060009054906101000a900460ff1615801561179c5750600460008373ffffffffffffffffffffffffffffffffffffffff1673ffffffffffffffffffffffffffffffffffffffff16815260200190815260200160002060009054906101000a900460ff16155b156117b1576117ac838383611f97565b611875565b600460008473ffffffffffffffffffffffffffffffffffffffff1673ffffffffffffffffffffffffffffffffffffffff16815260200190815260200160002060009054906101000a900460ff1680156118535750600460008373ffffffffffffffffffffffffffffffffffffffff1673ffffffffffffffffffffffffffffffffffffffff16815260200190815260200160002060009054906101000a900460ff165b1561186857611863838383612155565b611874565b611873838383611f97565b5b5b5b5b505050565b60008383111582906118c4576040517f08c379a00000000000000000000000000000000000000000000000000000000081526004016118bb919061284c565b60405180910390fd5b5082840390509392505050565b60008060006118de61243d565b915091506118f581836118fc90919063ffffffff16565b9250505090565b6000818361190a919061322d565b905092915050565b61191a611212565b73ffffffffffffffffffffffffffffffffffffffff16611938610a24565b73ffffffffffffffffffffffffffffffffffffffff161461198e576040517f08c379a0000000000000000000000000000000000000000000000000000000008152600401611985906132aa565b60405180910390fd5b565b60008060009054906101000a900473ffffffffffffffffffffffffffffffffffffffff169050816000806101000a81548173ffffffffffffffffffffffffffffffffffffffff021916908373ffffffffffffffffffffffffffffffffffffffff1602179055508173ffffffffffffffffffffffffffffffffffffffff168173ffffffffffffffffffffffffffffffffffffffff167f8be0079c531659141344cd1fd0a4f28419497f9722a3daafe3b4186f6b6457e060405160405180910390a35050565b6000806000611a6d6064856118fc90919063ffffffff16565b90506000611a84828661127290919063ffffffff16565b90508082935093505050915091565b600080600080611aac858861270490919063ffffffff16565b90506000611ac3868861270490919063ffffffff16565b90506000611ada828461127290919063ffffffff16565b905082818395509550955050505093509350939050565b6000806000806000611b028661121a565b94509450945094509450611b5e86600260008b73ffffffffffffffffffffffffffffffffffffffff1673ffffffffffffffffffffffffffffffffffffffff1681526020019081526020016000205461127290919063ffffffff16565b600260008a73ffffffffffffffffffffffffffffffffffffffff1673ffffffffffffffffffffffffffffffffffffffff16815260200190815260200160002081905550611bf385600160008b73ffffffffffffffffffffffffffffffffffffffff1673ffffffffffffffffffffffffffffffffffffffff1681526020019081526020016000205461127290919063ffffffff16565b600160008a73ffffffffffffffffffffffffffffffffffffffff1673ffffffffffffffffffffffffffffffffffffffff16815260200190815260200160002081905550611c8884600160008a73ffffffffffffffffffffffffffffffffffffffff1673ffffffffffffffffffffffffffffffffffffffff1681526020019081526020016000205461128890919063ffffffff16565b600160008973ffffffffffffffffffffffffffffffffffffffff1673ffffffffffffffffffffffffffffffffffffffff16815260200190815260200160002081905550611cd5838261271a565b8673ffffffffffffffffffffffffffffffffffffffff168873ffffffffffffffffffffffffffffffffffffffff167fddf252ad1be2c89b69c2b068fc378daa952ba7f163c4a11628f55a4df523b3ef84604051611d329190612951565b60405180910390a35050505050505050565b6000806000806000611d558661121a565b94509450945094509450611db185600160008b73ffffffffffffffffffffffffffffffffffffffff1673ffffffffffffffffffffffffffffffffffffffff1681526020019081526020016000205461127290919063ffffffff16565b600160008a73ffffffffffffffffffffffffffffffffffffffff1673ffffffffffffffffffffffffffffffffffffffff16815260200190815260200160002081905550611e4682600260008a73ffffffffffffffffffffffffffffffffffffffff1673ffffffffffffffffffffffffffffffffffffffff1681526020019081526020016000205461128890919063ffffffff16565b600260008973ffffffffffffffffffffffffffffffffffffffff1673ffffffffffffffffffffffffffffffffffffffff16815260200190815260200160002081905550611edb84600160008a73ffffffffffffffffffffffffffffffffffffffff1673ffffffffffffffffffffffffffffffffffffffff1681526020019081526020016000205461128890919063ffffffff16565b600160008973ffffffffffffffffffffffffffffffffffffffff1673ffffffffffffffffffffffffffffffffffffffff16815260200190815260200160002081905550611f28838261271a565b8673ffffffffffffffffffffffffffffffffffffffff168873ffffffffffffffffffffffffffffffffffffffff167fddf252ad1be2c89b69c2b068fc378daa952ba7f163c4a11628f55a4df523b3ef84604051611f859190612951565b60405180910390a35050505050505050565b6000806000806000611fa88661121a565b9450945094509450945061200485600160008b73ffffffffffffffffffffffffffffffffffffffff1673ffffffffffffffffffffffffffffffffffffffff1681526020019081526020016000205461127290919063ffffffff16565b600160008a73ffffffffffffffffffffffffffffffffffffffff1673ffffffffffffffffffffffffffffffffffffffff1681526020019081526020016000208190555061209984600160008a73ffffffffffffffffffffffffffffffffffffffff1673ffffffffffffffffffffffffffffffffffffffff1681526020019081526020016000205461128890919063ffffffff16565b600160008973ffffffffffffffffffffffffffffffffffffffff1673ffffffffffffffffffffffffffffffffffffffff168152602001908152602001600020819055506120e6838261271a565b8673ffffffffffffffffffffffffffffffffffffffff168873ffffffffffffffffffffffffffffffffffffffff167fddf252ad1be2c89b69c2b068fc378daa952ba7f163c4a11628f55a4df523b3ef846040516121439190612951565b60405180910390a35050505050505050565b60008060008060006121668661121a565b945094509450945094506121c286600260008b73ffffffffffffffffffffffffffffffffffffffff1673ffffffffffffffffffffffffffffffffffffffff1681526020019081526020016000205461127290919063ffffffff16565b600260008a73ffffffffffffffffffffffffffffffffffffffff1673ffffffffffffffffffffffffffffffffffffffff1681526020019081526020016000208190555061225785600160008b73ffffffffffffffffffffffffffffffffffffffff1673ffffffffffffffffffffffffffffffffffffffff1681526020019081526020016000205461127290919063ffffffff16565b600160008a73ffffffffffffffffffffffffffffffffffffffff1673ffffffffffffffffffffffffffffffffffffffff168152602001908152602001600020819055506122ec82600260008a73ffffffffffffffffffffffffffffffffffffffff1673ffffffffffffffffffffffffffffffffffffffff1681526020019081526020016000205461128890919063ffffffff16565b600260008973ffffffffffffffffffffffffffffffffffffffff1673ffffffffffffffffffffffffffffffffffffffff1681526020019081526020016000208190555061238184600160008a73ffffffffffffffffffffffffffffffffffffffff1673ffffffffffffffffffffffffffffffffffffffff1681526020019081526020016000205461128890919063ffffffff16565b600160008973ffffffffffffffffffffffffffffffffffffffff1673ffffffffffffffffffffffffffffffffffffffff168152602001908152602001600020819055506123ce838261271a565b8673ffffffffffffffffffffffffffffffffffffffff168873ffffffffffffffffffffffffffffffffffffffff167fddf252ad1be2c89b69c2b068fc378daa952ba7f163c4a11628f55a4df523b3ef8460405161242b9190612951565b60405180910390a35050505050505050565b600080600060065490506000662386f26fc10000905060005b6005805490508110156126bd5782600160006005848154811061247c5761247b612de7565b5b9060005260206000200160009054906101000a900473ffffffffffffffffffffffffffffffffffffffff1673ffffffffffffffffffffffffffffffffffffffff1673ffffffffffffffffffffffffffffffffffffffff16815260200190815260200160002054118061256a575081600260006005848154811061250257612501612de7565b5b9060005260206000200160009054906101000a900473ffffffffffffffffffffffffffffffffffffffff1673ffffffffffffffffffffffffffffffffffffffff1673ffffffffffffffffffffffffffffffffffffffff16815260200190815260200160002054115b1561258657600654662386f26fc1000094509450505050612700565b61261660016000600584815481106125a1576125a0612de7565b5b9060005260206000200160009054906101000a900473ffffffffffffffffffffffffffffffffffffffff1673ffffffffffffffffffffffffffffffffffffffff1673ffffffffffffffffffffffffffffffffffffffff168152602001908152602001600020548461127290919063ffffffff16565b92506126a8600260006005848154811061263357612632612de7565b5b9060005260206000200160009054906101000a900473ffffffffffffffffffffffffffffffffffffffff1673ffffffffffffffffffffffffffffffffffffffff1673ffffffffffffffffffffffffffffffffffffffff168152602001908152602001600020548361127290919063ffffffff16565b915080806126b590612ea8565b915050612456565b506126da662386f26fc100006006546118fc90919063ffffffff16565b8210156126f757600654662386f26fc10000935093505050612700565b81819350935050505b9091565b6000818361271291906132ca565b905092915050565b61272f8260065461127290919063ffffffff16565b60068190555061274a8160075461128890919063ffffffff16565b6007819055505050565b600080fd5b6000819050919050565b61276c81612759565b811461277757600080fd5b50565b60008135905061278981612763565b92915050565b6000602082840312156127a5576127a4612754565b5b60006127b38482850161277a565b91505092915050565b600081519050919050565b600082825260208201905092915050565b60005b838110156127f65780820151818401526020810190506127db565b60008484015250505050565b6000601f19601f8301169050919050565b600061281e826127bc565b61282881856127c7565b93506128388185602086016127d8565b61284181612802565b840191505092915050565b600060208201905081810360008301526128668184612813565b905092915050565b600073ffffffffffffffffffffffffffffffffffffffff82169050919050565b60006128998261286e565b9050919050565b6128a98161288e565b81146128b457600080fd5b50565b6000813590506128c6816128a0565b92915050565b600080604083850312156128e3576128e2612754565b5b60006128f1858286016128b7565b92505060206129028582860161277a565b9150509250929050565b60008115159050919050565b6129218161290c565b82525050565b600060208201905061293c6000830184612918565b92915050565b61294b81612759565b82525050565b60006020820190506129666000830184612942565b92915050565b60008060006060848603121561298557612984612754565b5b6000612993868287016128b7565b93505060206129a4868287016128b7565b92505060406129b58682870161277a565b9150509250925092565b600060ff82169050919050565b6129d5816129bf565b82525050565b60006020820190506129f060008301846129cc565b92915050565b6129ff8161290c565b8114612a0a57600080fd5b50565b600081359050612a1c816129f6565b92915050565b60008060408385031215612a3957612a38612754565b5b6000612a478582860161277a565b9250506020612a5885828601612a0d565b9150509250929050565b600060208284031215612a7857612a77612754565b5b6000612a86848285016128b7565b91505092915050565b612a988161288e565b82525050565b6000602082019050612ab36000830184612a8f565b92915050565b60008060408385031215612ad057612acf612754565b5b6000612ade858286016128b7565b9250506020612aef858286016128b7565b9150509250929050565b7f4578636c75646564206164647265737365732063616e6e6f742063616c6c207460008201527f6869732066756e6374696f6e0000000000000000000000000000000000000000602082015250565b6000612b55602c836127c7565b9150612b6082612af9565b604082019050919050565b60006020820190508181036000830152612b8481612b48565b9050919050565b7f4e487b7100000000000000000000000000000000000000000000000000000000600052602260045260246000fd5b60006002820490506001821680612bd257607f821691505b602082108103612be557612be4612b8b565b5b50919050565b7f416d6f756e74206d757374206265206c657373207468616e20746f74616c207260008201527f65666c656374696f6e7300000000000000000000000000000000000000000000602082015250565b6000612c47602a836127c7565b9150612c5282612beb565b604082019050919050565b60006020820190508181036000830152612c7681612c3a565b9050919050565b7f416d6f756e74206d757374206265206c657373207468616e20737570706c7900600082015250565b6000612cb3601f836127c7565b9150612cbe82612c7d565b602082019050919050565b60006020820190508181036000830152612ce281612ca6565b9050919050565b7f4163636f756e7420697320616c7265616479206578636c756465640000000000600082015250565b6000612d1f601b836127c7565b9150612d2a82612ce9565b602082019050919050565b60006020820190508181036000830152612d4e81612d12565b9050919050565b7f4f776e61626c653a206e6577206f776e657220697320746865207a65726f206160008201527f6464726573730000000000000000000000000000000000000000000000000000602082015250565b6000612db16026836127c7565b9150612dbc82612d55565b604082019050919050565b60006020820190508181036000830152612de081612da4565b9050919050565b7f4e487b7100000000000000000000000000000000000000000000000000000000600052603260045260246000fd5b7f4e487b7100000000000000000000000000000000000000000000000000000000600052601160045260246000fd5b6000612e5082612759565b9150612e5b83612759565b9250828203905081811115612e7357612e72612e16565b5b92915050565b7f4e487b7100000000000000000000000000000000000000000000000000000000600052603160045260246000fd5b6000612eb382612759565b91507fffffffffffffffffffffffffffffffffffffffffffffffffffffffffffffffff8203612ee557612ee4612e16565b5b600182019050919050565b6000612efb82612759565b9150612f0683612759565b9250828201905080821115612f1e57612f1d612e16565b5b92915050565b7f45524332303a20617070726f76652066726f6d20746865207a65726f2061646460008201527f7265737300000000000000000000000000000000000000000000000000000000602082015250565b6000612f806024836127c7565b9150612f8b82612f24565b604082019050919050565b60006020820190508181036000830152612faf81612f73565b9050919050565b7f45524332303a20617070726f766520746f20746865207a65726f20616464726560008201527f7373000000000000000000000000000000000000000000000000000000000000602082015250565b60006130126022836127c7565b915061301d82612fb6565b604082019050919050565b6000602082019050818103600083015261304181613005565b9050919050565b7f45524332303a207472616e736665722066726f6d20746865207a65726f20616460008201527f6472657373000000000000000000000000000000000000000000000000000000602082015250565b60006130a46025836127c7565b91506130af82613048565b604082019050919050565b600060208201905081810360008301526130d381613097565b9050919050565b7f45524332303a207472616e7366657220746f20746865207a65726f206164647260008201527f6573730000000000000000000000000000000000000000000000000000000000602082015250565b60006131366023836127c7565b9150613141826130da565b604082019050919050565b6000602082019050818103600083015261316581613129565b9050919050565b7f5472616e7366657220616d6f756e74206d75737420626520677265617465722060008201527f7468616e207a65726f0000000000000000000000000000000000000000000000602082015250565b60006131c86029836127c7565b91506131d38261316c565b604082019050919050565b600060208201905081810360008301526131f7816131bb565b9050919050565b7f4e487b7100000000000000000000000000000000000000000000000000000000600052601260045260246000fd5b600061323882612759565b915061324383612759565b925082613253576132526131fe565b5b828204905092915050565b7f4f776e61626c653a2063616c6c6572206973206e6f7420746865206f776e6572600082015250565b60006132946020836127c7565b915061329f8261325e565b602082019050919050565b600060208201905081810360008301526132c381613287565b9050919050565b60006132d582612759565b91506132e083612759565b92508282026132ee81612759565b9150828204841483151761330557613304612e16565b5b509291505056fe45524332303a207472616e7366657220616d6f756e74206578636565647320616c6c6f77616e636545524332303a2064656372656173656420616c6c6f77616e63652062656c6f77207a65726fa2646970667358221220092a2501f8accd28275b3d6c7741ea78e8976fb1004ae88723e4516996bcb0ba64736f6c63430008120033",
					"opcodes": "PUSH1 0x80 PUSH1 0x40 MSTORE PUSH7 0x2386F26FC10000 PUSH1 0x0 NOT PUSH3 0x1B SWAP2 SWAP1 PUSH3 0x2E3 JUMP JUMPDEST PUSH1 0x0 NOT PUSH3 0x2A SWAP2 SWAP1 PUSH3 0x34A JUMP JUMPDEST PUSH1 0x6 SSTORE PUSH1 0x40 MLOAD DUP1 PUSH1 0x40 ADD PUSH1 0x40 MSTORE DUP1 PUSH1 0xF DUP2 MSTORE PUSH1 0x20 ADD PUSH32 0x7265666C6563742E66696E616E63650000000000000000000000000000000000 DUP2 MSTORE POP PUSH1 0x8 SWAP1 DUP2 PUSH3 0x73 SWAP2 SWAP1 PUSH3 0x5F5 JUMP JUMPDEST POP PUSH1 0x40 MLOAD DUP1 PUSH1 0x40 ADD PUSH1 0x40 MSTORE DUP1 PUSH1 0x3 DUP2 MSTORE PUSH1 0x20 ADD PUSH32 0x5246490000000000000000000000000000000000000000000000000000000000 DUP2 MSTORE POP PUSH1 0x9 SWAP1 DUP2 PUSH3 0xBA SWAP2 SWAP1 PUSH3 0x5F5 JUMP JUMPDEST POP PUSH1 0x9 PUSH1 0xA PUSH1 0x0 PUSH2 0x100 EXP DUP2 SLOAD DUP2 PUSH1 0xFF MUL NOT AND SWAP1 DUP4 PUSH1 0xFF AND MUL OR SWAP1 SSTORE POP CALLVALUE DUP1 ISZERO PUSH3 0xE4 JUMPI PUSH1 0x0 DUP1 REVERT JUMPDEST POP PUSH3 0x105 PUSH3 0xF9 PUSH3 0x1DE PUSH1 0x20 SHL PUSH1 0x20 SHR JUMP JUMPDEST PUSH3 0x1E6 PUSH1 0x20 SHL PUSH1 0x20 SHR JUMP JUMPDEST PUSH1 0x6 SLOAD PUSH1 0x1 PUSH1 0x0 PUSH3 0x11C PUSH3 0x1DE PUSH1 0x20 SHL PUSH1 0x20 SHR JUMP JUMPDEST PUSH20 0xFFFFFFFFFFFFFFFFFFFFFFFFFFFFFFFFFFFFFFFF AND PUSH20 0xFFFFFFFFFFFFFFFFFFFFFFFFFFFFFFFFFFFFFFFF AND DUP2 MSTORE PUSH1 0x20 ADD SWAP1 DUP2 MSTORE PUSH1 0x20 ADD PUSH1 0x0 KECCAK256 DUP2 SWAP1 SSTORE POP PUSH3 0x16A PUSH3 0x1DE PUSH1 0x20 SHL PUSH1 0x20 SHR JUMP JUMPDEST PUSH20 0xFFFFFFFFFFFFFFFFFFFFFFFFFFFFFFFFFFFFFFFF AND PUSH1 0x0 PUSH20 0xFFFFFFFFFFFFFFFFFFFFFFFFFFFFFFFFFFFFFFFF AND PUSH32 0xDDF252AD1BE2C89B69C2B068FC378DAA952BA7F163C4A11628F55A4DF523B3EF PUSH7 0x2386F26FC10000 PUSH1 0x40 MLOAD PUSH3 0x1D0 SWAP2 SWAP1 PUSH3 0x6ED JUMP JUMPDEST PUSH1 0x40 MLOAD DUP1 SWAP2 SUB SWAP1 LOG3 PUSH3 0x70A JUMP JUMPDEST PUSH1 0x0 CALLER SWAP1 POP SWAP1 JUMP JUMPDEST PUSH1 0x0 DUP1 PUSH1 0x0 SWAP1 SLOAD SWAP1 PUSH2 0x100 EXP SWAP1 DIV PUSH20 0xFFFFFFFFFFFFFFFFFFFFFFFFFFFFFFFFFFFFFFFF AND SWAP1 POP DUP2 PUSH1 0x0 DUP1 PUSH2 0x100 EXP DUP2 SLOAD DUP2 PUSH20 0xFFFFFFFFFFFFFFFFFFFFFFFFFFFFFFFFFFFFFFFF MUL NOT AND SWAP1 DUP4 PUSH20 0xFFFFFFFFFFFFFFFFFFFFFFFFFFFFFFFFFFFFFFFF AND MUL OR SWAP1 SSTORE POP DUP2 PUSH20 0xFFFFFFFFFFFFFFFFFFFFFFFFFFFFFFFFFFFFFFFF AND DUP2 PUSH20 0xFFFFFFFFFFFFFFFFFFFFFFFFFFFFFFFFFFFFFFFF AND PUSH32 0x8BE0079C531659141344CD1FD0A4F28419497F9722A3DAAFE3B4186F6B6457E0 PUSH1 0x40 MLOAD PUSH1 0x40 MLOAD DUP1 SWAP2 SUB SWAP1 LOG3 POP POP JUMP JUMPDEST PUSH1 0x0 DUP2 SWAP1 POP SWAP2 SWAP1 POP JUMP JUMPDEST PUSH32 0x4E487B7100000000000000000000000000000000000000000000000000000000 PUSH1 0x0 MSTORE PUSH1 0x12 PUSH1 0x4 MSTORE PUSH1 0x24 PUSH1 0x0 REVERT JUMPDEST PUSH1 0x0 PUSH3 0x2F0 DUP3 PUSH3 0x2AA JUMP JUMPDEST SWAP2 POP PUSH3 0x2FD DUP4 PUSH3 0x2AA JUMP JUMPDEST SWAP3 POP DUP3 PUSH3 0x310 JUMPI PUSH3 0x30F PUSH3 0x2B4 JUMP JUMPDEST JUMPDEST DUP3 DUP3 MOD SWAP1 POP SWAP3 SWAP2 POP POP JUMP JUMPDEST PUSH32 0x4E487B7100000000000000000000000000000000000000000000000000000000 PUSH1 0x0 MSTORE PUSH1 0x11 PUSH1 0x4 MSTORE PUSH1 0x24 PUSH1 0x0 REVERT JUMPDEST PUSH1 0x0 PUSH3 0x357 DUP3 PUSH3 0x2AA JUMP JUMPDEST SWAP2 POP PUSH3 0x364 DUP4 PUSH3 0x2AA JUMP JUMPDEST SWAP3 POP DUP3 DUP3 SUB SWAP1 POP DUP2 DUP2 GT ISZERO PUSH3 0x37F JUMPI PUSH3 0x37E PUSH3 0x31B JUMP JUMPDEST JUMPDEST SWAP3 SWAP2 POP POP JUMP JUMPDEST PUSH1 0x0 DUP2 MLOAD SWAP1 POP SWAP2 SWAP1 POP JUMP JUMPDEST PUSH32 0x4E487B7100000000000000000000000000000000000000000000000000000000 PUSH1 0x0 MSTORE PUSH1 0x41 PUSH1 0x4 MSTORE PUSH1 0x24 PUSH1 0x0 REVERT JUMPDEST PUSH32 0x4E487B7100000000000000000000000000000000000000000000000000000000 PUSH1 0x0 MSTORE PUSH1 0x22 PUSH1 0x4 MSTORE PUSH1 0x24 PUSH1 0x0 REVERT JUMPDEST PUSH1 0x0 PUSH1 0x2 DUP3 DIV SWAP1 POP PUSH1 0x1 DUP3 AND DUP1 PUSH3 0x407 JUMPI PUSH1 0x7F DUP3 AND SWAP2 POP JUMPDEST PUSH1 0x20 DUP3 LT DUP2 SUB PUSH3 0x41D JUMPI PUSH3 0x41C PUSH3 0x3BF JUMP JUMPDEST JUMPDEST POP SWAP2 SWAP1 POP JUMP JUMPDEST PUSH1 0x0 DUP2 SWAP1 POP DUP2 PUSH1 0x0 MSTORE PUSH1 0x20 PUSH1 0x0 KECCAK256 SWAP1 POP SWAP2 SWAP1 POP JUMP JUMPDEST PUSH1 0x0 PUSH1 0x20 PUSH1 0x1F DUP4 ADD DIV SWAP1 POP SWAP2 SWAP1 POP JUMP JUMPDEST PUSH1 0x0 DUP3 DUP3 SHL SWAP1 POP SWAP3 SWAP2 POP POP JUMP JUMPDEST PUSH1 0x0 PUSH1 0x8 DUP4 MUL PUSH3 0x487 PUSH32 0xFFFFFFFFFFFFFFFFFFFFFFFFFFFFFFFFFFFFFFFFFFFFFFFFFFFFFFFFFFFFFFFF DUP3 PUSH3 0x448 JUMP JUMPDEST PUSH3 0x493 DUP7 DUP4 PUSH3 0x448 JUMP JUMPDEST SWAP6 POP DUP1 NOT DUP5 AND SWAP4 POP DUP1 DUP7 AND DUP5 OR SWAP3 POP POP POP SWAP4 SWAP3 POP POP POP JUMP JUMPDEST PUSH1 0x0 DUP2 SWAP1 POP SWAP2 SWAP1 POP JUMP JUMPDEST PUSH1 0x0 PUSH3 0x4D6 PUSH3 0x4D0 PUSH3 0x4CA DUP5 PUSH3 0x2AA JUMP JUMPDEST PUSH3 0x4AB JUMP JUMPDEST PUSH3 0x2AA JUMP JUMPDEST SWAP1 POP SWAP2 SWAP1 POP JUMP JUMPDEST PUSH1 0x0 DUP2 SWAP1 POP SWAP2 SWAP1 POP JUMP JUMPDEST PUSH3 0x4F2 DUP4 PUSH3 0x4B5 JUMP JUMPDEST PUSH3 0x50A PUSH3 0x501 DUP3 PUSH3 0x4DD JUMP JUMPDEST DUP5 DUP5 SLOAD PUSH3 0x455 JUMP JUMPDEST DUP3 SSTORE POP POP POP POP JUMP JUMPDEST PUSH1 0x0 SWAP1 JUMP JUMPDEST PUSH3 0x521 PUSH3 0x512 JUMP JUMPDEST PUSH3 0x52E DUP2 DUP5 DUP5 PUSH3 0x4E7 JUMP JUMPDEST POP POP POP JUMP JUMPDEST JUMPDEST DUP2 DUP2 LT ISZERO PUSH3 0x556 JUMPI PUSH3 0x54A PUSH1 0x0 DUP3 PUSH3 0x517 JUMP JUMPDEST PUSH1 0x1 DUP2 ADD SWAP1 POP PUSH3 0x534 JUMP JUMPDEST POP POP JUMP JUMPDEST PUSH1 0x1F DUP3 GT ISZERO PUSH3 0x5A5 JUMPI PUSH3 0x56F DUP2 PUSH3 0x423 JUMP JUMPDEST PUSH3 0x57A DUP5 PUSH3 0x438 JUMP JUMPDEST DUP2 ADD PUSH1 0x20 DUP6 LT ISZERO PUSH3 0x58A JUMPI DUP2 SWAP1 POP JUMPDEST PUSH3 0x5A2 PUSH3 0x599 DUP6 PUSH3 0x438 JUMP JUMPDEST DUP4 ADD DUP3 PUSH3 0x533 JUMP JUMPDEST POP POP JUMPDEST POP POP POP JUMP JUMPDEST PUSH1 0x0 DUP3 DUP3 SHR SWAP1 POP SWAP3 SWAP2 POP POP JUMP JUMPDEST PUSH1 0x0 PUSH3 0x5CA PUSH1 0x0 NOT DUP5 PUSH1 0x8 MUL PUSH3 0x5AA JUMP JUMPDEST NOT DUP1 DUP4 AND SWAP2 POP POP SWAP3 SWAP2 POP POP JUMP JUMPDEST PUSH1 0x0 PUSH3 0x5E5 DUP4 DUP4 PUSH3 0x5B7 JUMP JUMPDEST SWAP2 POP DUP3 PUSH1 0x2 MUL DUP3 OR SWAP1 POP SWAP3 SWAP2 POP POP JUMP JUMPDEST PUSH3 0x600 DUP3 PUSH3 0x385 JUMP JUMPDEST PUSH8 0xFFFFFFFFFFFFFFFF DUP2 GT ISZERO PUSH3 0x61C JUMPI PUSH3 0x61B PUSH3 0x390 JUMP JUMPDEST JUMPDEST PUSH3 0x628 DUP3 SLOAD PUSH3 0x3EE JUMP JUMPDEST PUSH3 0x635 DUP3 DUP3 DUP6 PUSH3 0x55A JUMP JUMPDEST PUSH1 0x0 PUSH1 0x20 SWAP1 POP PUSH1 0x1F DUP4 GT PUSH1 0x1 DUP2 EQ PUSH3 0x66D JUMPI PUSH1 0x0 DUP5 ISZERO PUSH3 0x658 JUMPI DUP3 DUP8 ADD MLOAD SWAP1 POP JUMPDEST PUSH3 0x664 DUP6 DUP3 PUSH3 0x5D7 JUMP JUMPDEST DUP7 SSTORE POP PUSH3 0x6D4 JUMP JUMPDEST PUSH1 0x1F NOT DUP5 AND PUSH3 0x67D DUP7 PUSH3 0x423 JUMP JUMPDEST PUSH1 0x0 JUMPDEST DUP3 DUP2 LT ISZERO PUSH3 0x6A7 JUMPI DUP5 DUP10 ADD MLOAD DUP3 SSTORE PUSH1 0x1 DUP3 ADD SWAP2 POP PUSH1 0x20 DUP6 ADD SWAP5 POP PUSH1 0x20 DUP2 ADD SWAP1 POP PUSH3 0x680 JUMP JUMPDEST DUP7 DUP4 LT ISZERO PUSH3 0x6C7 JUMPI DUP5 DUP10 ADD MLOAD PUSH3 0x6C3 PUSH1 0x1F DUP10 AND DUP3 PUSH3 0x5B7 JUMP JUMPDEST DUP4 SSTORE POP JUMPDEST PUSH1 0x1 PUSH1 0x2 DUP9 MUL ADD DUP9 SSTORE POP POP POP JUMPDEST POP POP POP POP POP POP JUMP JUMPDEST PUSH3 0x6E7 DUP2 PUSH3 0x2AA JUMP JUMPDEST DUP3 MSTORE POP POP JUMP JUMPDEST PUSH1 0x0 PUSH1 0x20 DUP3 ADD SWAP1 POP PUSH3 0x704 PUSH1 0x0 DUP4 ADD DUP5 PUSH3 0x6DC JUMP JUMPDEST SWAP3 SWAP2 POP POP JUMP JUMPDEST PUSH2 0x338F DUP1 PUSH3 0x71A PUSH1 0x0 CODECOPY PUSH1 0x0 RETURN INVALID PUSH1 0x80 PUSH1 0x40 MSTORE CALLVALUE DUP1 ISZERO PUSH2 0x10 JUMPI PUSH1 0x0 DUP1 REVERT JUMPDEST POP PUSH1 0x4 CALLDATASIZE LT PUSH2 0x137 JUMPI PUSH1 0x0 CALLDATALOAD PUSH1 0xE0 SHR DUP1 PUSH4 0x70A08231 GT PUSH2 0xB8 JUMPI DUP1 PUSH4 0xA9059CBB GT PUSH2 0x7C JUMPI DUP1 PUSH4 0xA9059CBB EQ PUSH2 0x366 JUMPI DUP1 PUSH4 0xCBA0E996 EQ PUSH2 0x396 JUMPI DUP1 PUSH4 0xDD62ED3E EQ PUSH2 0x3C6 JUMPI DUP1 PUSH4 0xF2CC0C18 EQ PUSH2 0x3F6 JUMPI DUP1 PUSH4 0xF2FDE38B EQ PUSH2 0x412 JUMPI DUP1 PUSH4 0xF84354F1 EQ PUSH2 0x42E JUMPI PUSH2 0x137 JUMP JUMPDEST DUP1 PUSH4 0x70A08231 EQ PUSH2 0x2C0 JUMPI DUP1 PUSH4 0x715018A6 EQ PUSH2 0x2F0 JUMPI DUP1 PUSH4 0x8DA5CB5B EQ PUSH2 0x2FA JUMPI DUP1 PUSH4 0x95D89B41 EQ PUSH2 0x318 JUMPI DUP1 PUSH4 0xA457C2D7 EQ PUSH2 0x336 JUMPI PUSH2 0x137 JUMP JUMPDEST DUP1 PUSH4 0x23B872DD GT PUSH2 0xFF JUMPI DUP1 PUSH4 0x23B872DD EQ PUSH2 0x1E2 JUMPI DUP1 PUSH4 0x2D838119 EQ PUSH2 0x212 JUMPI DUP1 PUSH4 0x313CE567 EQ PUSH2 0x242 JUMPI DUP1 PUSH4 0x39509351 EQ PUSH2 0x260 JUMPI DUP1 PUSH4 0x4549B039 EQ PUSH2 0x290 JUMPI PUSH2 0x137 JUMP JUMPDEST DUP1 PUSH4 0x53AB182 EQ PUSH2 0x13C JUMPI DUP1 PUSH4 0x6FDDE03 EQ PUSH2 0x158 JUMPI DUP1 PUSH4 0x95EA7B3 EQ PUSH2 0x176 JUMPI DUP1 PUSH4 0x13114A9D EQ PUSH2 0x1A6 JUMPI DUP1 PUSH4 0x18160DDD EQ PUSH2 0x1C4 JUMPI JUMPDEST PUSH1 0x0 DUP1 REVERT JUMPDEST PUSH2 0x156 PUSH1 0x4 DUP1 CALLDATASIZE SUB DUP2 ADD SWAP1 PUSH2 0x151 SWAP2 SWAP1 PUSH2 0x278F JUMP JUMPDEST PUSH2 0x44A JUMP JUMPDEST STOP JUMPDEST PUSH2 0x160 PUSH2 0x5C4 JUMP JUMPDEST PUSH1 0x40 MLOAD PUSH2 0x16D SWAP2 SWAP1 PUSH2 0x284C JUMP JUMPDEST PUSH1 0x40 MLOAD DUP1 SWAP2 SUB SWAP1 RETURN JUMPDEST PUSH2 0x190 PUSH1 0x4 DUP1 CALLDATASIZE SUB DUP2 ADD SWAP1 PUSH2 0x18B SWAP2 SWAP1 PUSH2 0x28CC JUMP JUMPDEST PUSH2 0x656 JUMP JUMPDEST PUSH1 0x40 MLOAD PUSH2 0x19D SWAP2 SWAP1 PUSH2 0x2927 JUMP JUMPDEST PUSH1 0x40 MLOAD DUP1 SWAP2 SUB SWAP1 RETURN JUMPDEST PUSH2 0x1AE PUSH2 0x674 JUMP JUMPDEST PUSH1 0x40 MLOAD PUSH2 0x1BB SWAP2 SWAP1 PUSH2 0x2951 JUMP JUMPDEST PUSH1 0x40 MLOAD DUP1 SWAP2 SUB SWAP1 RETURN JUMPDEST PUSH2 0x1CC PUSH2 0x67E JUMP JUMPDEST PUSH1 0x40 MLOAD PUSH2 0x1D9 SWAP2 SWAP1 PUSH2 0x2951 JUMP JUMPDEST PUSH1 0x40 MLOAD DUP1 SWAP2 SUB SWAP1 RETURN JUMPDEST PUSH2 0x1FC PUSH1 0x4 DUP1 CALLDATASIZE SUB DUP2 ADD SWAP1 PUSH2 0x1F7 SWAP2 SWAP1 PUSH2 0x296C JUMP JUMPDEST PUSH2 0x68D JUMP JUMPDEST PUSH1 0x40 MLOAD PUSH2 0x209 SWAP2 SWAP1 PUSH2 0x2927 JUMP JUMPDEST PUSH1 0x40 MLOAD DUP1 SWAP2 SUB SWAP1 RETURN JUMPDEST PUSH2 0x22C PUSH1 0x4 DUP1 CALLDATASIZE SUB DUP2 ADD SWAP1 PUSH2 0x227 SWAP2 SWAP1 PUSH2 0x278F JUMP JUMPDEST PUSH2 0x766 JUMP JUMPDEST PUSH1 0x40 MLOAD PUSH2 0x239 SWAP2 SWAP1 PUSH2 0x2951 JUMP JUMPDEST PUSH1 0x40 MLOAD DUP1 SWAP2 SUB SWAP1 RETURN JUMPDEST PUSH2 0x24A PUSH2 0x7D4 JUMP JUMPDEST PUSH1 0x40 MLOAD PUSH2 0x257 SWAP2 SWAP1 PUSH2 0x29DB JUMP JUMPDEST PUSH1 0x40 MLOAD DUP1 SWAP2 SUB SWAP1 RETURN JUMPDEST PUSH2 0x27A PUSH1 0x4 DUP1 CALLDATASIZE SUB DUP2 ADD SWAP1 PUSH2 0x275 SWAP2 SWAP1 PUSH2 0x28CC JUMP JUMPDEST PUSH2 0x7EB JUMP JUMPDEST PUSH1 0x40 MLOAD PUSH2 0x287 SWAP2 SWAP1 PUSH2 0x2927 JUMP JUMPDEST PUSH1 0x40 MLOAD DUP1 SWAP2 SUB SWAP1 RETURN JUMPDEST PUSH2 0x2AA PUSH1 0x4 DUP1 CALLDATASIZE SUB DUP2 ADD SWAP1 PUSH2 0x2A5 SWAP2 SWAP1 PUSH2 0x2A22 JUMP JUMPDEST PUSH2 0x89E JUMP JUMPDEST PUSH1 0x40 MLOAD PUSH2 0x2B7 SWAP2 SWAP1 PUSH2 0x2951 JUMP JUMPDEST PUSH1 0x40 MLOAD DUP1 SWAP2 SUB SWAP1 RETURN JUMPDEST PUSH2 0x2DA PUSH1 0x4 DUP1 CALLDATASIZE SUB DUP2 ADD SWAP1 PUSH2 0x2D5 SWAP2 SWAP1 PUSH2 0x2A62 JUMP JUMPDEST PUSH2 0x925 JUMP JUMPDEST PUSH1 0x40 MLOAD PUSH2 0x2E7 SWAP2 SWAP1 PUSH2 0x2951 JUMP JUMPDEST PUSH1 0x40 MLOAD DUP1 SWAP2 SUB SWAP1 RETURN JUMPDEST PUSH2 0x2F8 PUSH2 0xA10 JUMP JUMPDEST STOP JUMPDEST PUSH2 0x302 PUSH2 0xA24 JUMP JUMPDEST PUSH1 0x40 MLOAD PUSH2 0x30F SWAP2 SWAP1 PUSH2 0x2A9E JUMP JUMPDEST PUSH1 0x40 MLOAD DUP1 SWAP2 SUB SWAP1 RETURN JUMPDEST PUSH2 0x320 PUSH2 0xA4D JUMP JUMPDEST PUSH1 0x40 MLOAD PUSH2 0x32D SWAP2 SWAP1 PUSH2 0x284C JUMP JUMPDEST PUSH1 0x40 MLOAD DUP1 SWAP2 SUB SWAP1 RETURN JUMPDEST PUSH2 0x350 PUSH1 0x4 DUP1 CALLDATASIZE SUB DUP2 ADD SWAP1 PUSH2 0x34B SWAP2 SWAP1 PUSH2 0x28CC JUMP JUMPDEST PUSH2 0xADF JUMP JUMPDEST PUSH1 0x40 MLOAD PUSH2 0x35D SWAP2 SWAP1 PUSH2 0x2927 JUMP JUMPDEST PUSH1 0x40 MLOAD DUP1 SWAP2 SUB SWAP1 RETURN JUMPDEST PUSH2 0x380 PUSH1 0x4 DUP1 CALLDATASIZE SUB DUP2 ADD SWAP1 PUSH2 0x37B SWAP2 SWAP1 PUSH2 0x28CC JUMP JUMPDEST PUSH2 0xBAC JUMP JUMPDEST PUSH1 0x40 MLOAD PUSH2 0x38D SWAP2 SWAP1 PUSH2 0x2927 JUMP JUMPDEST PUSH1 0x40 MLOAD DUP1 SWAP2 SUB SWAP1 RETURN JUMPDEST PUSH2 0x3B0 PUSH1 0x4 DUP1 CALLDATASIZE SUB DUP2 ADD SWAP1 PUSH2 0x3AB SWAP2 SWAP1 PUSH2 0x2A62 JUMP JUMPDEST PUSH2 0xBCA JUMP JUMPDEST PUSH1 0x40 MLOAD PUSH2 0x3BD SWAP2 SWAP1 PUSH2 0x2927 JUMP JUMPDEST PUSH1 0x40 MLOAD DUP1 SWAP2 SUB SWAP1 RETURN JUMPDEST PUSH2 0x3E0 PUSH1 0x4 DUP1 CALLDATASIZE SUB DUP2 ADD SWAP1 PUSH2 0x3DB SWAP2 SWAP1 PUSH2 0x2AB9 JUMP JUMPDEST PUSH2 0xC20 JUMP JUMPDEST PUSH1 0x40 MLOAD PUSH2 0x3ED SWAP2 SWAP1 PUSH2 0x2951 JUMP JUMPDEST PUSH1 0x40 MLOAD DUP1 SWAP2 SUB SWAP1 RETURN JUMPDEST PUSH2 0x410 PUSH1 0x4 DUP1 CALLDATASIZE SUB DUP2 ADD SWAP1 PUSH2 0x40B SWAP2 SWAP1 PUSH2 0x2A62 JUMP JUMPDEST PUSH2 0xCA7 JUMP JUMPDEST STOP JUMPDEST PUSH2 0x42C PUSH1 0x4 DUP1 CALLDATASIZE SUB DUP2 ADD SWAP1 PUSH2 0x427 SWAP2 SWAP1 PUSH2 0x2A62 JUMP JUMPDEST PUSH2 0xECE JUMP JUMPDEST STOP JUMPDEST PUSH2 0x448 PUSH1 0x4 DUP1 CALLDATASIZE SUB DUP2 ADD SWAP1 PUSH2 0x443 SWAP2 SWAP1 PUSH2 0x2A62 JUMP JUMPDEST PUSH2 0xF51 JUMP JUMPDEST STOP JUMPDEST PUSH1 0x0 PUSH2 0x454 PUSH2 0x1212 JUMP JUMPDEST SWAP1 POP PUSH1 0x4 PUSH1 0x0 DUP3 PUSH20 0xFFFFFFFFFFFFFFFFFFFFFFFFFFFFFFFFFFFFFFFF AND PUSH20 0xFFFFFFFFFFFFFFFFFFFFFFFFFFFFFFFFFFFFFFFF AND DUP2 MSTORE PUSH1 0x20 ADD SWAP1 DUP2 MSTORE PUSH1 0x20 ADD PUSH1 0x0 KECCAK256 PUSH1 0x0 SWAP1 SLOAD SWAP1 PUSH2 0x100 EXP SWAP1 DIV PUSH1 0xFF AND ISZERO PUSH2 0x4E3 JUMPI PUSH1 0x40 MLOAD PUSH32 0x8C379A000000000000000000000000000000000000000000000000000000000 DUP2 MSTORE PUSH1 0x4 ADD PUSH2 0x4DA SWAP1 PUSH2 0x2B6B JUMP JUMPDEST PUSH1 0x40 MLOAD DUP1 SWAP2 SUB SWAP1 REVERT JUMPDEST PUSH1 0x0 PUSH2 0x4EE DUP4 PUSH2 0x121A JUMP JUMPDEST POP POP POP POP SWAP1 POP PUSH2 0x546 DUP2 PUSH1 0x1 PUSH1 0x0 DUP6 PUSH20 0xFFFFFFFFFFFFFFFFFFFFFFFFFFFFFFFFFFFFFFFF AND PUSH20 0xFFFFFFFFFFFFFFFFFFFFFFFFFFFFFFFFFFFFFFFF AND DUP2 MSTORE PUSH1 0x20 ADD SWAP1 DUP2 MSTORE PUSH1 0x20 ADD PUSH1 0x0 KECCAK256 SLOAD PUSH2 0x1272 SWAP1 SWAP2 SWAP1 PUSH4 0xFFFFFFFF AND JUMP JUMPDEST PUSH1 0x1 PUSH1 0x0 DUP5 PUSH20 0xFFFFFFFFFFFFFFFFFFFFFFFFFFFFFFFFFFFFFFFF AND PUSH20 0xFFFFFFFFFFFFFFFFFFFFFFFFFFFFFFFFFFFFFFFF AND DUP2 MSTORE PUSH1 0x20 ADD SWAP1 DUP2 MSTORE PUSH1 0x20 ADD PUSH1 0x0 KECCAK256 DUP2 SWAP1 SSTORE POP PUSH2 0x59E DUP2 PUSH1 0x6 SLOAD PUSH2 0x1272 SWAP1 SWAP2 SWAP1 PUSH4 0xFFFFFFFF AND JUMP JUMPDEST PUSH1 0x6 DUP2 SWAP1 SSTORE POP PUSH2 0x5B9 DUP4 PUSH1 0x7 SLOAD PUSH2 0x1288 SWAP1 SWAP2 SWAP1 PUSH4 0xFFFFFFFF AND JUMP JUMPDEST PUSH1 0x7 DUP2 SWAP1 SSTORE POP POP POP POP JUMP JUMPDEST PUSH1 0x60 PUSH1 0x8 DUP1 SLOAD PUSH2 0x5D3 SWAP1 PUSH2 0x2BBA JUMP JUMPDEST DUP1 PUSH1 0x1F ADD PUSH1 0x20 DUP1 SWAP2 DIV MUL PUSH1 0x20 ADD PUSH1 0x40 MLOAD SWAP1 DUP2 ADD PUSH1 0x40 MSTORE DUP1 SWAP3 SWAP2 SWAP1 DUP2 DUP2 MSTORE PUSH1 0x20 ADD DUP3 DUP1 SLOAD PUSH2 0x5FF SWAP1 PUSH2 0x2BBA JUMP JUMPDEST DUP1 ISZERO PUSH2 0x64C JUMPI DUP1 PUSH1 0x1F LT PUSH2 0x621 JUMPI PUSH2 0x100 DUP1 DUP4 SLOAD DIV MUL DUP4 MSTORE SWAP2 PUSH1 0x20 ADD SWAP2 PUSH2 0x64C JUMP JUMPDEST DUP3 ADD SWAP2 SWAP1 PUSH1 0x0 MSTORE PUSH1 0x20 PUSH1 0x0 KECCAK256 SWAP1 JUMPDEST DUP2 SLOAD DUP2 MSTORE SWAP1 PUSH1 0x1 ADD SWAP1 PUSH1 0x20 ADD DUP1 DUP4 GT PUSH2 0x62F JUMPI DUP3 SWAP1 SUB PUSH1 0x1F AND DUP3 ADD SWAP2 JUMPDEST POP POP POP POP POP SWAP1 POP SWAP1 JUMP JUMPDEST PUSH1 0x0 PUSH2 0x66A PUSH2 0x663 PUSH2 0x1212 JUMP JUMPDEST DUP5 DUP5 PUSH2 0x129E JUMP JUMPDEST PUSH1 0x1 SWAP1 POP SWAP3 SWAP2 POP POP JUMP JUMPDEST PUSH1 0x0 PUSH1 0x7 SLOAD SWAP1 POP SWAP1 JUMP JUMPDEST PUSH1 0x0 PUSH7 0x2386F26FC10000 SWAP1 POP SWAP1 JUMP JUMPDEST PUSH1 0x0 PUSH2 0x69A DUP5 DUP5 DUP5 PUSH2 0x1467 JUMP JUMPDEST PUSH2 0x75B DUP5 PUSH2 0x6A6 PUSH2 0x1212 JUMP JUMPDEST PUSH2 0x756 DUP6 PUSH1 0x40 MLOAD DUP1 PUSH1 0x60 ADD PUSH1 0x40 MSTORE DUP1 PUSH1 0x28 DUP2 MSTORE PUSH1 0x20 ADD PUSH2 0x330D PUSH1 0x28 SWAP2 CODECOPY PUSH1 0x3 PUSH1 0x0 DUP12 PUSH20 0xFFFFFFFFFFFFFFFFFFFFFFFFFFFFFFFFFFFFFFFF AND PUSH20 0xFFFFFFFFFFFFFFFFFFFFFFFFFFFFFFFFFFFFFFFF AND DUP2 MSTORE PUSH1 0x20 ADD SWAP1 DUP2 MSTORE PUSH1 0x20 ADD PUSH1 0x0 KECCAK256 PUSH1 0x0 PUSH2 0x70C PUSH2 0x1212 JUMP JUMPDEST PUSH20 0xFFFFFFFFFFFFFFFFFFFFFFFFFFFFFFFFFFFFFFFF AND PUSH20 0xFFFFFFFFFFFFFFFFFFFFFFFFFFFFFFFFFFFFFFFF AND DUP2 MSTORE PUSH1 0x20 ADD SWAP1 DUP2 MSTORE PUSH1 0x20 ADD PUSH1 0x0 KECCAK256 SLOAD PUSH2 0x187C SWAP1 SWAP3 SWAP2 SWAP1 PUSH4 0xFFFFFFFF AND JUMP JUMPDEST PUSH2 0x129E JUMP JUMPDEST PUSH1 0x1 SWAP1 POP SWAP4 SWAP3 POP POP POP JUMP JUMPDEST PUSH1 0x0 PUSH1 0x6 SLOAD DUP3 GT ISZERO PUSH2 0x7AD JUMPI PUSH1 0x40 MLOAD PUSH32 0x8C379A000000000000000000000000000000000000000000000000000000000 DUP2 MSTORE PUSH1 0x4 ADD PUSH2 0x7A4 SWAP1 PUSH2 0x2C5D JUMP JUMPDEST PUSH1 0x40 MLOAD DUP1 SWAP2 SUB SWAP1 REVERT JUMPDEST PUSH1 0x0 PUSH2 0x7B7 PUSH2 0x18D1 JUMP JUMPDEST SWAP1 POP PUSH2 0x7CC DUP2 DUP5 PUSH2 0x18FC SWAP1 SWAP2 SWAP1 PUSH4 0xFFFFFFFF AND JUMP JUMPDEST SWAP2 POP POP SWAP2 SWAP1 POP JUMP JUMPDEST PUSH1 0x0 PUSH1 0xA PUSH1 0x0 SWAP1 SLOAD SWAP1 PUSH2 0x100 EXP SWAP1 DIV PUSH1 0xFF AND SWAP1 POP SWAP1 JUMP JUMPDEST PUSH1 0x0 PUSH2 0x894 PUSH2 0x7F8 PUSH2 0x1212 JUMP JUMPDEST DUP5 PUSH2 0x88F DUP6 PUSH1 0x3 PUSH1 0x0 PUSH2 0x809 PUSH2 0x1212 JUMP JUMPDEST PUSH20 0xFFFFFFFFFFFFFFFFFFFFFFFFFFFFFFFFFFFFFFFF AND PUSH20 0xFFFFFFFFFFFFFFFFFFFFFFFFFFFFFFFFFFFFFFFF AND DUP2 MSTORE PUSH1 0x20 ADD SWAP1 DUP2 MSTORE PUSH1 0x20 ADD PUSH1 0x0 KECCAK256 PUSH1 0x0 DUP10 PUSH20 0xFFFFFFFFFFFFFFFFFFFFFFFFFFFFFFFFFFFFFFFF AND PUSH20 0xFFFFFFFFFFFFFFFFFFFFFFFFFFFFFFFFFFFFFFFF AND DUP2 MSTORE PUSH1 0x20 ADD SWAP1 DUP2 MSTORE PUSH1 0x20 ADD PUSH1 0x0 KECCAK256 SLOAD PUSH2 0x1288 SWAP1 SWAP2 SWAP1 PUSH4 0xFFFFFFFF AND JUMP JUMPDEST PUSH2 0x129E JUMP JUMPDEST PUSH1 0x1 SWAP1 POP SWAP3 SWAP2 POP POP JUMP JUMPDEST PUSH1 0x0 PUSH7 0x2386F26FC10000 DUP4 GT ISZERO PUSH2 0x8EA JUMPI PUSH1 0x40 MLOAD PUSH32 0x8C379A000000000000000000000000000000000000000000000000000000000 DUP2 MSTORE PUSH1 0x4 ADD PUSH2 0x8E1 SWAP1 PUSH2 0x2CC9 JUMP JUMPDEST PUSH1 0x40 MLOAD DUP1 SWAP2 SUB SWAP1 REVERT JUMPDEST DUP2 PUSH2 0x909 JUMPI PUSH1 0x0 PUSH2 0x8FA DUP5 PUSH2 0x121A JUMP JUMPDEST POP POP POP POP SWAP1 POP DUP1 SWAP2 POP POP PUSH2 0x91F JUMP JUMPDEST PUSH1 0x0 PUSH2 0x914 DUP5 PUSH2 0x121A JUMP JUMPDEST POP POP POP SWAP2 POP POP DUP1 SWAP2 POP POP JUMPDEST SWAP3 SWAP2 POP POP JUMP JUMPDEST PUSH1 0x0 PUSH1 0x4 PUSH1 0x0 DUP4 PUSH20 0xFFFFFFFFFFFFFFFFFFFFFFFFFFFFFFFFFFFFFFFF AND PUSH20 0xFFFFFFFFFFFFFFFFFFFFFFFFFFFFFFFFFFFFFFFF AND DUP2 MSTORE PUSH1 0x20 ADD SWAP1 DUP2 MSTORE PUSH1 0x20 ADD PUSH1 0x0 KECCAK256 PUSH1 0x0 SWAP1 SLOAD SWAP1 PUSH2 0x100 EXP SWAP1 DIV PUSH1 0xFF AND ISZERO PUSH2 0x9C0 JUMPI PUSH1 0x2 PUSH1 0x0 DUP4 PUSH20 0xFFFFFFFFFFFFFFFFFFFFFFFFFFFFFFFFFFFFFFFF AND PUSH20 0xFFFFFFFFFFFFFFFFFFFFFFFFFFFFFFFFFFFFFFFF AND DUP2 MSTORE PUSH1 0x20 ADD SWAP1 DUP2 MSTORE PUSH1 0x20 ADD PUSH1 0x0 KECCAK256 SLOAD SWAP1 POP PUSH2 0xA0B JUMP JUMPDEST PUSH2 0xA08 PUSH1 0x1 PUSH1 0x0 DUP5 PUSH20 0xFFFFFFFFFFFFFFFFFFFFFFFFFFFFFFFFFFFFFFFF AND PUSH20 0xFFFFFFFFFFFFFFFFFFFFFFFFFFFFFFFFFFFFFFFF AND DUP2 MSTORE PUSH1 0x20 ADD SWAP1 DUP2 MSTORE PUSH1 0x20 ADD PUSH1 0x0 KECCAK256 SLOAD PUSH2 0x766 JUMP JUMPDEST SWAP1 POP JUMPDEST SWAP2 SWAP1 POP JUMP JUMPDEST PUSH2 0xA18 PUSH2 0x1912 JUMP JUMPDEST PUSH2 0xA22 PUSH1 0x0 PUSH2 0x1990 JUMP JUMPDEST JUMP JUMPDEST PUSH1 0x0 DUP1 PUSH1 0x0 SWAP1 SLOAD SWAP1 PUSH2 0x100 EXP SWAP1 DIV PUSH20 0xFFFFFFFFFFFFFFFFFFFFFFFFFFFFFFFFFFFFFFFF AND SWAP1 POP SWAP1 JUMP JUMPDEST PUSH1 0x60 PUSH1 0x9 DUP1 SLOAD PUSH2 0xA5C SWAP1 PUSH2 0x2BBA JUMP JUMPDEST DUP1 PUSH1 0x1F ADD PUSH1 0x20 DUP1 SWAP2 DIV MUL PUSH1 0x20 ADD PUSH1 0x40 MLOAD SWAP1 DUP2 ADD PUSH1 0x40 MSTORE DUP1 SWAP3 SWAP2 SWAP1 DUP2 DUP2 MSTORE PUSH1 0x20 ADD DUP3 DUP1 SLOAD PUSH2 0xA88 SWAP1 PUSH2 0x2BBA JUMP JUMPDEST DUP1 ISZERO PUSH2 0xAD5 JUMPI DUP1 PUSH1 0x1F LT PUSH2 0xAAA JUMPI PUSH2 0x100 DUP1 DUP4 SLOAD DIV MUL DUP4 MSTORE SWAP2 PUSH1 0x20 ADD SWAP2 PUSH2 0xAD5 JUMP JUMPDEST DUP3 ADD SWAP2 SWAP1 PUSH1 0x0 MSTORE PUSH1 0x20 PUSH1 0x0 KECCAK256 SWAP1 JUMPDEST DUP2 SLOAD DUP2 MSTORE SWAP1 PUSH1 0x1 ADD SWAP1 PUSH1 0x20 ADD DUP1 DUP4 GT PUSH2 0xAB8 JUMPI DUP3 SWAP1 SUB PUSH1 0x1F AND DUP3 ADD SWAP2 JUMPDEST POP POP POP POP POP SWAP1 POP SWAP1 JUMP JUMPDEST PUSH1 0x0 PUSH2 0xBA2 PUSH2 0xAEC PUSH2 0x1212 JUMP JUMPDEST DUP5 PUSH2 0xB9D DUP6 PUSH1 0x40 MLOAD DUP1 PUSH1 0x60 ADD PUSH1 0x40 MSTORE DUP1 PUSH1 0x25 DUP2 MSTORE PUSH1 0x20 ADD PUSH2 0x3335 PUSH1 0x25 SWAP2 CODECOPY PUSH1 0x3 PUSH1 0x0 PUSH2 0xB16 PUSH2 0x1212 JUMP JUMPDEST PUSH20 0xFFFFFFFFFFFFFFFFFFFFFFFFFFFFFFFFFFFFFFFF AND PUSH20 0xFFFFFFFFFFFFFFFFFFFFFFFFFFFFFFFFFFFFFFFF AND DUP2 MSTORE PUSH1 0x20 ADD SWAP1 DUP2 MSTORE PUSH1 0x20 ADD PUSH1 0x0 KECCAK256 PUSH1 0x0 DUP11 PUSH20 0xFFFFFFFFFFFFFFFFFFFFFFFFFFFFFFFFFFFFFFFF AND PUSH20 0xFFFFFFFFFFFFFFFFFFFFFFFFFFFFFFFFFFFFFFFF AND DUP2 MSTORE PUSH1 0x20 ADD SWAP1 DUP2 MSTORE PUSH1 0x20 ADD PUSH1 0x0 KECCAK256 SLOAD PUSH2 0x187C SWAP1 SWAP3 SWAP2 SWAP1 PUSH4 0xFFFFFFFF AND JUMP JUMPDEST PUSH2 0x129E JUMP JUMPDEST PUSH1 0x1 SWAP1 POP SWAP3 SWAP2 POP POP JUMP JUMPDEST PUSH1 0x0 PUSH2 0xBC0 PUSH2 0xBB9 PUSH2 0x1212 JUMP JUMPDEST DUP5 DUP5 PUSH2 0x1467 JUMP JUMPDEST PUSH1 0x1 SWAP1 POP SWAP3 SWAP2 POP POP JUMP JUMPDEST PUSH1 0x0 PUSH1 0x4 PUSH1 0x0 DUP4 PUSH20 0xFFFFFFFFFFFFFFFFFFFFFFFFFFFFFFFFFFFFFFFF AND PUSH20 0xFFFFFFFFFFFFFFFFFFFFFFFFFFFFFFFFFFFFFFFF AND DUP2 MSTORE PUSH1 0x20 ADD SWAP1 DUP2 MSTORE PUSH1 0x20 ADD PUSH1 0x0 KECCAK256 PUSH1 0x0 SWAP1 SLOAD SWAP1 PUSH2 0x100 EXP SWAP1 DIV PUSH1 0xFF AND SWAP1 POP SWAP2 SWAP1 POP JUMP JUMPDEST PUSH1 0x0 PUSH1 0x3 PUSH1 0x0 DUP5 PUSH20 0xFFFFFFFFFFFFFFFFFFFFFFFFFFFFFFFFFFFFFFFF AND PUSH20 0xFFFFFFFFFFFFFFFFFFFFFFFFFFFFFFFFFFFFFFFF AND DUP2 MSTORE PUSH1 0x20 ADD SWAP1 DUP2 MSTORE PUSH1 0x20 ADD PUSH1 0x0 KECCAK256 PUSH1 0x0 DUP4 PUSH20 0xFFFFFFFFFFFFFFFFFFFFFFFFFFFFFFFFFFFFFFFF AND PUSH20 0xFFFFFFFFFFFFFFFFFFFFFFFFFFFFFFFFFFFFFFFF AND DUP2 MSTORE PUSH1 0x20 ADD SWAP1 DUP2 MSTORE PUSH1 0x20 ADD PUSH1 0x0 KECCAK256 SLOAD SWAP1 POP SWAP3 SWAP2 POP POP JUMP JUMPDEST PUSH2 0xCAF PUSH2 0x1912 JUMP JUMPDEST PUSH1 0x4 PUSH1 0x0 DUP3 PUSH20 0xFFFFFFFFFFFFFFFFFFFFFFFFFFFFFFFFFFFFFFFF AND PUSH20 0xFFFFFFFFFFFFFFFFFFFFFFFFFFFFFFFFFFFFFFFF AND DUP2 MSTORE PUSH1 0x20 ADD SWAP1 DUP2 MSTORE PUSH1 0x20 ADD PUSH1 0x0 KECCAK256 PUSH1 0x0 SWAP1 SLOAD SWAP1 PUSH2 0x100 EXP SWAP1 DIV PUSH1 0xFF AND ISZERO PUSH2 0xD3C JUMPI PUSH1 0x40 MLOAD PUSH32 0x8C379A000000000000000000000000000000000000000000000000000000000 DUP2 MSTORE PUSH1 0x4 ADD PUSH2 0xD33 SWAP1 PUSH2 0x2D35 JUMP JUMPDEST PUSH1 0x40 MLOAD DUP1 SWAP2 SUB SWAP1 REVERT JUMPDEST PUSH1 0x0 PUSH1 0x1 PUSH1 0x0 DUP4 PUSH20 0xFFFFFFFFFFFFFFFFFFFFFFFFFFFFFFFFFFFFFFFF AND PUSH20 0xFFFFFFFFFFFFFFFFFFFFFFFFFFFFFFFFFFFFFFFF AND DUP2 MSTORE PUSH1 0x20 ADD SWAP1 DUP2 MSTORE PUSH1 0x20 ADD PUSH1 0x0 KECCAK256 SLOAD GT ISZERO PUSH2 0xE10 JUMPI PUSH2 0xDCC PUSH1 0x1 PUSH1 0x0 DUP4 PUSH20 0xFFFFFFFFFFFFFFFFFFFFFFFFFFFFFFFFFFFFFFFF AND PUSH20 0xFFFFFFFFFFFFFFFFFFFFFFFFFFFFFFFFFFFFFFFF AND DUP2 MSTORE PUSH1 0x20 ADD SWAP1 DUP2 MSTORE PUSH1 0x20 ADD PUSH1 0x0 KECCAK256 SLOAD PUSH2 0x766 JUMP JUMPDEST PUSH1 0x2 PUSH1 0x0 DUP4 PUSH20 0xFFFFFFFFFFFFFFFFFFFFFFFFFFFFFFFFFFFFFFFF AND PUSH20 0xFFFFFFFFFFFFFFFFFFFFFFFFFFFFFFFFFFFFFFFF AND DUP2 MSTORE PUSH1 0x20 ADD SWAP1 DUP2 MSTORE PUSH1 0x20 ADD PUSH1 0x0 KECCAK256 DUP2 SWAP1 SSTORE POP JUMPDEST PUSH1 0x1 PUSH1 0x4 PUSH1 0x0 DUP4 PUSH20 0xFFFFFFFFFFFFFFFFFFFFFFFFFFFFFFFFFFFFFFFF AND PUSH20 0xFFFFFFFFFFFFFFFFFFFFFFFFFFFFFFFFFFFFFFFF AND DUP2 MSTORE PUSH1 0x20 ADD SWAP1 DUP2 MSTORE PUSH1 0x20 ADD PUSH1 0x0 KECCAK256 PUSH1 0x0 PUSH2 0x100 EXP DUP2 SLOAD DUP2 PUSH1 0xFF MUL NOT AND SWAP1 DUP4 ISZERO ISZERO MUL OR SWAP1 SSTORE POP PUSH1 0x5 DUP2 SWAP1 DUP1 PUSH1 0x1 DUP2 SLOAD ADD DUP1 DUP3 SSTORE DUP1 SWAP2 POP POP PUSH1 0x1 SWAP1 SUB SWAP1 PUSH1 0x0 MSTORE PUSH1 0x20 PUSH1 0x0 KECCAK256 ADD PUSH1 0x0 SWAP1 SWAP2 SWAP1 SWAP2 SWAP1 SWAP2 PUSH2 0x100 EXP DUP2 SLOAD DUP2 PUSH20 0xFFFFFFFFFFFFFFFFFFFFFFFFFFFFFFFFFFFFFFFF MUL NOT AND SWAP1 DUP4 PUSH20 0xFFFFFFFFFFFFFFFFFFFFFFFFFFFFFFFFFFFFFFFF AND MUL OR SWAP1 SSTORE POP POP JUMP JUMPDEST PUSH2 0xED6 PUSH2 0x1912 JUMP JUMPDEST PUSH1 0x0 PUSH20 0xFFFFFFFFFFFFFFFFFFFFFFFFFFFFFFFFFFFFFFFF AND DUP2 PUSH20 0xFFFFFFFFFFFFFFFFFFFFFFFFFFFFFFFFFFFFFFFF AND SUB PUSH2 0xF45 JUMPI PUSH1 0x40 MLOAD PUSH32 0x8C379A000000000000000000000000000000000000000000000000000000000 DUP2 MSTORE PUSH1 0x4 ADD PUSH2 0xF3C SWAP1 PUSH2 0x2DC7 JUMP JUMPDEST PUSH1 0x40 MLOAD DUP1 SWAP2 SUB SWAP1 REVERT JUMPDEST PUSH2 0xF4E DUP2 PUSH2 0x1990 JUMP JUMPDEST POP JUMP JUMPDEST PUSH2 0xF59 PUSH2 0x1912 JUMP JUMPDEST PUSH1 0x4 PUSH1 0x0 DUP3 PUSH20 0xFFFFFFFFFFFFFFFFFFFFFFFFFFFFFFFFFFFFFFFF AND PUSH20 0xFFFFFFFFFFFFFFFFFFFFFFFFFFFFFFFFFFFFFFFF AND DUP2 MSTORE PUSH1 0x20 ADD SWAP1 DUP2 MSTORE PUSH1 0x20 ADD PUSH1 0x0 KECCAK256 PUSH1 0x0 SWAP1 SLOAD SWAP1 PUSH2 0x100 EXP SWAP1 DIV PUSH1 0xFF AND PUSH2 0xFE5 JUMPI PUSH1 0x40 MLOAD PUSH32 0x8C379A000000000000000000000000000000000000000000000000000000000 DUP2 MSTORE PUSH1 0x4 ADD PUSH2 0xFDC SWAP1 PUSH2 0x2D35 JUMP JUMPDEST PUSH1 0x40 MLOAD DUP1 SWAP2 SUB SWAP1 REVERT JUMPDEST PUSH1 0x0 JUMPDEST PUSH1 0x5 DUP1 SLOAD SWAP1 POP DUP2 LT ISZERO PUSH2 0x120E JUMPI DUP2 PUSH20 0xFFFFFFFFFFFFFFFFFFFFFFFFFFFFFFFFFFFFFFFF AND PUSH1 0x5 DUP3 DUP2 SLOAD DUP2 LT PUSH2 0x1020 JUMPI PUSH2 0x101F PUSH2 0x2DE7 JUMP JUMPDEST JUMPDEST SWAP1 PUSH1 0x0 MSTORE PUSH1 0x20 PUSH1 0x0 KECCAK256 ADD PUSH1 0x0 SWAP1 SLOAD SWAP1 PUSH2 0x100 EXP SWAP1 DIV PUSH20 0xFFFFFFFFFFFFFFFFFFFFFFFFFFFFFFFFFFFFFFFF AND PUSH20 0xFFFFFFFFFFFFFFFFFFFFFFFFFFFFFFFFFFFFFFFF AND SUB PUSH2 0x11FB JUMPI PUSH1 0x5 PUSH1 0x1 PUSH1 0x5 DUP1 SLOAD SWAP1 POP PUSH2 0x107A SWAP2 SWAP1 PUSH2 0x2E45 JUMP JUMPDEST DUP2 SLOAD DUP2 LT PUSH2 0x108B JUMPI PUSH2 0x108A PUSH2 0x2DE7 JUMP JUMPDEST JUMPDEST SWAP1 PUSH1 0x0 MSTORE PUSH1 0x20 PUSH1 0x0 KECCAK256 ADD PUSH1 0x0 SWAP1 SLOAD SWAP1 PUSH2 0x100 EXP SWAP1 DIV PUSH20 0xFFFFFFFFFFFFFFFFFFFFFFFFFFFFFFFFFFFFFFFF AND PUSH1 0x5 DUP3 DUP2 SLOAD DUP2 LT PUSH2 0x10CA JUMPI PUSH2 0x10C9 PUSH2 0x2DE7 JUMP JUMPDEST JUMPDEST SWAP1 PUSH1 0x0 MSTORE PUSH1 0x20 PUSH1 0x0 KECCAK256 ADD PUSH1 0x0 PUSH2 0x100 EXP DUP2 SLOAD DUP2 PUSH20 0xFFFFFFFFFFFFFFFFFFFFFFFFFFFFFFFFFFFFFFFF MUL NOT AND SWAP1 DUP4 PUSH20 0xFFFFFFFFFFFFFFFFFFFFFFFFFFFFFFFFFFFFFFFF AND MUL OR SWAP1 SSTORE POP PUSH1 0x0 PUSH1 0x2 PUSH1 0x0 DUP5 PUSH20 0xFFFFFFFFFFFFFFFFFFFFFFFFFFFFFFFFFFFFFFFF AND PUSH20 0xFFFFFFFFFFFFFFFFFFFFFFFFFFFFFFFFFFFFFFFF AND DUP2 MSTORE PUSH1 0x20 ADD SWAP1 DUP2 MSTORE PUSH1 0x20 ADD PUSH1 0x0 KECCAK256 DUP2 SWAP1 SSTORE POP PUSH1 0x0 PUSH1 0x4 PUSH1 0x0 DUP5 PUSH20 0xFFFFFFFFFFFFFFFFFFFFFFFFFFFFFFFFFFFFFFFF AND PUSH20 0xFFFFFFFFFFFFFFFFFFFFFFFFFFFFFFFFFFFFFFFF AND DUP2 MSTORE PUSH1 0x20 ADD SWAP1 DUP2 MSTORE PUSH1 0x20 ADD PUSH1 0x0 KECCAK256 PUSH1 0x0 PUSH2 0x100 EXP DUP2 SLOAD DUP2 PUSH1 0xFF MUL NOT AND SWAP1 DUP4 ISZERO ISZERO MUL OR SWAP1 SSTORE POP PUSH1 0x5 DUP1 SLOAD DUP1 PUSH2 0x11C1 JUMPI PUSH2 0x11C0 PUSH2 0x2E79 JUMP JUMPDEST JUMPDEST PUSH1 0x1 SWAP1 SUB DUP2 DUP2 SWAP1 PUSH1 0x0 MSTORE PUSH1 0x20 PUSH1 0x0 KECCAK256 ADD PUSH1 0x0 PUSH2 0x100 EXP DUP2 SLOAD SWAP1 PUSH20 0xFFFFFFFFFFFFFFFFFFFFFFFFFFFFFFFFFFFFFFFF MUL NOT AND SWAP1 SSTORE SWAP1 SSTORE PUSH2 0x120E JUMP JUMPDEST DUP1 DUP1 PUSH2 0x1206 SWAP1 PUSH2 0x2EA8 JUMP JUMPDEST SWAP2 POP POP PUSH2 0xFE8 JUMP JUMPDEST POP POP JUMP JUMPDEST PUSH1 0x0 CALLER SWAP1 POP SWAP1 JUMP JUMPDEST PUSH1 0x0 DUP1 PUSH1 0x0 DUP1 PUSH1 0x0 DUP1 PUSH1 0x0 PUSH2 0x122E DUP9 PUSH2 0x1A54 JUMP JUMPDEST SWAP2 POP SWAP2 POP PUSH1 0x0 PUSH2 0x123C PUSH2 0x18D1 JUMP JUMPDEST SWAP1 POP PUSH1 0x0 DUP1 PUSH1 0x0 PUSH2 0x124E DUP13 DUP7 DUP7 PUSH2 0x1A93 JUMP JUMPDEST SWAP3 POP SWAP3 POP SWAP3 POP DUP3 DUP3 DUP3 DUP9 DUP9 SWAP11 POP SWAP11 POP SWAP11 POP SWAP11 POP SWAP11 POP POP POP POP POP POP POP SWAP2 SWAP4 SWAP6 SWAP1 SWAP3 SWAP5 POP JUMP JUMPDEST PUSH1 0x0 DUP2 DUP4 PUSH2 0x1280 SWAP2 SWAP1 PUSH2 0x2E45 JUMP JUMPDEST SWAP1 POP SWAP3 SWAP2 POP POP JUMP JUMPDEST PUSH1 0x0 DUP2 DUP4 PUSH2 0x1296 SWAP2 SWAP1 PUSH2 0x2EF0 JUMP JUMPDEST SWAP1 POP SWAP3 SWAP2 POP POP JUMP JUMPDEST PUSH1 0x0 PUSH20 0xFFFFFFFFFFFFFFFFFFFFFFFFFFFFFFFFFFFFFFFF AND DUP4 PUSH20 0xFFFFFFFFFFFFFFFFFFFFFFFFFFFFFFFFFFFFFFFF AND SUB PUSH2 0x130D JUMPI PUSH1 0x40 MLOAD PUSH32 0x8C379A000000000000000000000000000000000000000000000000000000000 DUP2 MSTORE PUSH1 0x4 ADD PUSH2 0x1304 SWAP1 PUSH2 0x2F96 JUMP JUMPDEST PUSH1 0x40 MLOAD DUP1 SWAP2 SUB SWAP1 REVERT JUMPDEST PUSH1 0x0 PUSH20 0xFFFFFFFFFFFFFFFFFFFFFFFFFFFFFFFFFFFFFFFF AND DUP3 PUSH20 0xFFFFFFFFFFFFFFFFFFFFFFFFFFFFFFFFFFFFFFFF AND SUB PUSH2 0x137C JUMPI PUSH1 0x40 MLOAD PUSH32 0x8C379A000000000000000000000000000000000000000000000000000000000 DUP2 MSTORE PUSH1 0x4 ADD PUSH2 0x1373 SWAP1 PUSH2 0x3028 JUMP JUMPDEST PUSH1 0x40 MLOAD DUP1 SWAP2 SUB SWAP1 REVERT JUMPDEST DUP1 PUSH1 0x3 PUSH1 0x0 DUP6 PUSH20 0xFFFFFFFFFFFFFFFFFFFFFFFFFFFFFFFFFFFFFFFF AND PUSH20 0xFFFFFFFFFFFFFFFFFFFFFFFFFFFFFFFFFFFFFFFF AND DUP2 MSTORE PUSH1 0x20 ADD SWAP1 DUP2 MSTORE PUSH1 0x20 ADD PUSH1 0x0 KECCAK256 PUSH1 0x0 DUP5 PUSH20 0xFFFFFFFFFFFFFFFFFFFFFFFFFFFFFFFFFFFFFFFF AND PUSH20 0xFFFFFFFFFFFFFFFFFFFFFFFFFFFFFFFFFFFFFFFF AND DUP2 MSTORE PUSH1 0x20 ADD SWAP1 DUP2 MSTORE PUSH1 0x20 ADD PUSH1 0x0 KECCAK256 DUP2 SWAP1 SSTORE POP DUP2 PUSH20 0xFFFFFFFFFFFFFFFFFFFFFFFFFFFFFFFFFFFFFFFF AND DUP4 PUSH20 0xFFFFFFFFFFFFFFFFFFFFFFFFFFFFFFFFFFFFFFFF AND PUSH32 0x8C5BE1E5EBEC7D5BD14F71427D1E84F3DD0314C0F7B2291E5B200AC8C7C3B925 DUP4 PUSH1 0x40 MLOAD PUSH2 0x145A SWAP2 SWAP1 PUSH2 0x2951 JUMP JUMPDEST PUSH1 0x40 MLOAD DUP1 SWAP2 SUB SWAP1 LOG3 POP POP POP JUMP JUMPDEST PUSH1 0x0 PUSH20 0xFFFFFFFFFFFFFFFFFFFFFFFFFFFFFFFFFFFFFFFF AND DUP4 PUSH20 0xFFFFFFFFFFFFFFFFFFFFFFFFFFFFFFFFFFFFFFFF AND SUB PUSH2 0x14D6 JUMPI PUSH1 0x40 MLOAD PUSH32 0x8C379A000000000000000000000000000000000000000000000000000000000 DUP2 MSTORE PUSH1 0x4 ADD PUSH2 0x14CD SWAP1 PUSH2 0x30BA JUMP JUMPDEST PUSH1 0x40 MLOAD DUP1 SWAP2 SUB SWAP1 REVERT JUMPDEST PUSH1 0x0 PUSH20 0xFFFFFFFFFFFFFFFFFFFFFFFFFFFFFFFFFFFFFFFF AND DUP3 PUSH20 0xFFFFFFFFFFFFFFFFFFFFFFFFFFFFFFFFFFFFFFFF AND SUB PUSH2 0x1545 JUMPI PUSH1 0x40 MLOAD PUSH32 0x8C379A000000000000000000000000000000000000000000000000000000000 DUP2 MSTORE PUSH1 0x4 ADD PUSH2 0x153C SWAP1 PUSH2 0x314C JUMP JUMPDEST PUSH1 0x40 MLOAD DUP1 SWAP2 SUB SWAP1 REVERT JUMPDEST PUSH1 0x0 DUP2 GT PUSH2 0x1588 JUMPI PUSH1 0x40 MLOAD PUSH32 0x8C379A000000000000000000000000000000000000000000000000000000000 DUP2 MSTORE PUSH1 0x4 ADD PUSH2 0x157F SWAP1 PUSH2 0x31DE JUMP JUMPDEST PUSH1 0x40 MLOAD DUP1 SWAP2 SUB SWAP1 REVERT JUMPDEST PUSH1 0x4 PUSH1 0x0 DUP5 PUSH20 0xFFFFFFFFFFFFFFFFFFFFFFFFFFFFFFFFFFFFFFFF AND PUSH20 0xFFFFFFFFFFFFFFFFFFFFFFFFFFFFFFFFFFFFFFFF AND DUP2 MSTORE PUSH1 0x20 ADD SWAP1 DUP2 MSTORE PUSH1 0x20 ADD PUSH1 0x0 KECCAK256 PUSH1 0x0 SWAP1 SLOAD SWAP1 PUSH2 0x100 EXP SWAP1 DIV PUSH1 0xFF AND DUP1 ISZERO PUSH2 0x162B JUMPI POP PUSH1 0x4 PUSH1 0x0 DUP4 PUSH20 0xFFFFFFFFFFFFFFFFFFFFFFFFFFFFFFFFFFFFFFFF AND PUSH20 0xFFFFFFFFFFFFFFFFFFFFFFFFFFFFFFFFFFFFFFFF AND DUP2 MSTORE PUSH1 0x20 ADD SWAP1 DUP2 MSTORE PUSH1 0x20 ADD PUSH1 0x0 KECCAK256 PUSH1 0x0 SWAP1 SLOAD SWAP1 PUSH2 0x100 EXP SWAP1 DIV PUSH1 0xFF AND ISZERO JUMPDEST ISZERO PUSH2 0x1640 JUMPI PUSH2 0x163B DUP4 DUP4 DUP4 PUSH2 0x1AF1 JUMP JUMPDEST PUSH2 0x1877 JUMP JUMPDEST PUSH1 0x4 PUSH1 0x0 DUP5 PUSH20 0xFFFFFFFFFFFFFFFFFFFFFFFFFFFFFFFFFFFFFFFF AND PUSH20 0xFFFFFFFFFFFFFFFFFFFFFFFFFFFFFFFFFFFFFFFF AND DUP2 MSTORE PUSH1 0x20 ADD SWAP1 DUP2 MSTORE PUSH1 0x20 ADD PUSH1 0x0 KECCAK256 PUSH1 0x0 SWAP1 SLOAD SWAP1 PUSH2 0x100 EXP SWAP1 DIV PUSH1 0xFF AND ISZERO DUP1 ISZERO PUSH2 0x16E3 JUMPI POP PUSH1 0x4 PUSH1 0x0 DUP4 PUSH20 0xFFFFFFFFFFFFFFFFFFFFFFFFFFFFFFFFFFFFFFFF AND PUSH20 0xFFFFFFFFFFFFFFFFFFFFFFFFFFFFFFFFFFFFFFFF AND DUP2 MSTORE PUSH1 0x20 ADD SWAP1 DUP2 MSTORE PUSH1 0x20 ADD PUSH1 0x0 KECCAK256 PUSH1 0x0 SWAP1 SLOAD SWAP1 PUSH2 0x100 EXP SWAP1 DIV PUSH1 0xFF AND JUMPDEST ISZERO PUSH2 0x16F8 JUMPI PUSH2 0x16F3 DUP4 DUP4 DUP4 PUSH2 0x1D44 JUMP JUMPDEST PUSH2 0x1876 JUMP JUMPDEST PUSH1 0x4 PUSH1 0x0 DUP5 PUSH20 0xFFFFFFFFFFFFFFFFFFFFFFFFFFFFFFFFFFFFFFFF AND PUSH20 0xFFFFFFFFFFFFFFFFFFFFFFFFFFFFFFFFFFFFFFFF AND DUP2 MSTORE PUSH1 0x20 ADD SWAP1 DUP2 MSTORE PUSH1 0x20 ADD PUSH1 0x0 KECCAK256 PUSH1 0x0 SWAP1 SLOAD SWAP1 PUSH2 0x100 EXP SWAP1 DIV PUSH1 0xFF AND ISZERO DUP1 ISZERO PUSH2 0x179C JUMPI POP PUSH1 0x4 PUSH1 0x0 DUP4 PUSH20 0xFFFFFFFFFFFFFFFFFFFFFFFFFFFFFFFFFFFFFFFF AND PUSH20 0xFFFFFFFFFFFFFFFFFFFFFFFFFFFFFFFFFFFFFFFF AND DUP2 MSTORE PUSH1 0x20 ADD SWAP1 DUP2 MSTORE PUSH1 0x20 ADD PUSH1 0x0 KECCAK256 PUSH1 0x0 SWAP1 SLOAD SWAP1 PUSH2 0x100 EXP SWAP1 DIV PUSH1 0xFF AND ISZERO JUMPDEST ISZERO PUSH2 0x17B1 JUMPI PUSH2 0x17AC DUP4 DUP4 DUP4 PUSH2 0x1F97 JUMP JUMPDEST PUSH2 0x1875 JUMP JUMPDEST PUSH1 0x4 PUSH1 0x0 DUP5 PUSH20 0xFFFFFFFFFFFFFFFFFFFFFFFFFFFFFFFFFFFFFFFF AND PUSH20 0xFFFFFFFFFFFFFFFFFFFFFFFFFFFFFFFFFFFFFFFF AND DUP2 MSTORE PUSH1 0x20 ADD SWAP1 DUP2 MSTORE PUSH1 0x20 ADD PUSH1 0x0 KECCAK256 PUSH1 0x0 SWAP1 SLOAD SWAP1 PUSH2 0x100 EXP SWAP1 DIV PUSH1 0xFF AND DUP1 ISZERO PUSH2 0x1853 JUMPI POP PUSH1 0x4 PUSH1 0x0 DUP4 PUSH20 0xFFFFFFFFFFFFFFFFFFFFFFFFFFFFFFFFFFFFFFFF AND PUSH20 0xFFFFFFFFFFFFFFFFFFFFFFFFFFFFFFFFFFFFFFFF AND DUP2 MSTORE PUSH1 0x20 ADD SWAP1 DUP2 MSTORE PUSH1 0x20 ADD PUSH1 0x0 KECCAK256 PUSH1 0x0 SWAP1 SLOAD SWAP1 PUSH2 0x100 EXP SWAP1 DIV PUSH1 0xFF AND JUMPDEST ISZERO PUSH2 0x1868 JUMPI PUSH2 0x1863 DUP4 DUP4 DUP4 PUSH2 0x2155 JUMP JUMPDEST PUSH2 0x1874 JUMP JUMPDEST PUSH2 0x1873 DUP4 DUP4 DUP4 PUSH2 0x1F97 JUMP JUMPDEST JUMPDEST JUMPDEST JUMPDEST JUMPDEST POP POP POP JUMP JUMPDEST PUSH1 0x0 DUP4 DUP4 GT ISZERO DUP3 SWAP1 PUSH2 0x18C4 JUMPI PUSH1 0x40 MLOAD PUSH32 0x8C379A000000000000000000000000000000000000000000000000000000000 DUP2 MSTORE PUSH1 0x4 ADD PUSH2 0x18BB SWAP2 SWAP1 PUSH2 0x284C JUMP JUMPDEST PUSH1 0x40 MLOAD DUP1 SWAP2 SUB SWAP1 REVERT JUMPDEST POP DUP3 DUP5 SUB SWAP1 POP SWAP4 SWAP3 POP POP POP JUMP JUMPDEST PUSH1 0x0 DUP1 PUSH1 0x0 PUSH2 0x18DE PUSH2 0x243D JUMP JUMPDEST SWAP2 POP SWAP2 POP PUSH2 0x18F5 DUP2 DUP4 PUSH2 0x18FC SWAP1 SWAP2 SWAP1 PUSH4 0xFFFFFFFF AND JUMP JUMPDEST SWAP3 POP POP POP SWAP1 JUMP JUMPDEST PUSH1 0x0 DUP2 DUP4 PUSH2 0x190A SWAP2 SWAP1 PUSH2 0x322D JUMP JUMPDEST SWAP1 POP SWAP3 SWAP2 POP POP JUMP JUMPDEST PUSH2 0x191A PUSH2 0x1212 JUMP JUMPDEST PUSH20 0xFFFFFFFFFFFFFFFFFFFFFFFFFFFFFFFFFFFFFFFF AND PUSH2 0x1938 PUSH2 0xA24 JUMP JUMPDEST PUSH20 0xFFFFFFFFFFFFFFFFFFFFFFFFFFFFFFFFFFFFFFFF AND EQ PUSH2 0x198E JUMPI PUSH1 0x40 MLOAD PUSH32 0x8C379A000000000000000000000000000000000000000000000000000000000 DUP2 MSTORE PUSH1 0x4 ADD PUSH2 0x1985 SWAP1 PUSH2 0x32AA JUMP JUMPDEST PUSH1 0x40 MLOAD DUP1 SWAP2 SUB SWAP1 REVERT JUMPDEST JUMP JUMPDEST PUSH1 0x0 DUP1 PUSH1 0x0 SWAP1 SLOAD SWAP1 PUSH2 0x100 EXP SWAP1 DIV PUSH20 0xFFFFFFFFFFFFFFFFFFFFFFFFFFFFFFFFFFFFFFFF AND SWAP1 POP DUP2 PUSH1 0x0 DUP1 PUSH2 0x100 EXP DUP2 SLOAD DUP2 PUSH20 0xFFFFFFFFFFFFFFFFFFFFFFFFFFFFFFFFFFFFFFFF MUL NOT AND SWAP1 DUP4 PUSH20 0xFFFFFFFFFFFFFFFFFFFFFFFFFFFFFFFFFFFFFFFF AND MUL OR SWAP1 SSTORE POP DUP2 PUSH20 0xFFFFFFFFFFFFFFFFFFFFFFFFFFFFFFFFFFFFFFFF AND DUP2 PUSH20 0xFFFFFFFFFFFFFFFFFFFFFFFFFFFFFFFFFFFFFFFF AND PUSH32 0x8BE0079C531659141344CD1FD0A4F28419497F9722A3DAAFE3B4186F6B6457E0 PUSH1 0x40 MLOAD PUSH1 0x40 MLOAD DUP1 SWAP2 SUB SWAP1 LOG3 POP POP JUMP JUMPDEST PUSH1 0x0 DUP1 PUSH1 0x0 PUSH2 0x1A6D PUSH1 0x64 DUP6 PUSH2 0x18FC SWAP1 SWAP2 SWAP1 PUSH4 0xFFFFFFFF AND JUMP JUMPDEST SWAP1 POP PUSH1 0x0 PUSH2 0x1A84 DUP3 DUP7 PUSH2 0x1272 SWAP1 SWAP2 SWAP1 PUSH4 0xFFFFFFFF AND JUMP JUMPDEST SWAP1 POP DUP1 DUP3 SWAP4 POP SWAP4 POP POP POP SWAP2 POP SWAP2 JUMP JUMPDEST PUSH1 0x0 DUP1 PUSH1 0x0 DUP1 PUSH2 0x1AAC DUP6 DUP9 PUSH2 0x2704 SWAP1 SWAP2 SWAP1 PUSH4 0xFFFFFFFF AND JUMP JUMPDEST SWAP1 POP PUSH1 0x0 PUSH2 0x1AC3 DUP7 DUP9 PUSH2 0x2704 SWAP1 SWAP2 SWAP1 PUSH4 0xFFFFFFFF AND JUMP JUMPDEST SWAP1 POP PUSH1 0x0 PUSH2 0x1ADA DUP3 DUP5 PUSH2 0x1272 SWAP1 SWAP2 SWAP1 PUSH4 0xFFFFFFFF AND JUMP JUMPDEST SWAP1 POP DUP3 DUP2 DUP4 SWAP6 POP SWAP6 POP SWAP6 POP POP POP POP SWAP4 POP SWAP4 POP SWAP4 SWAP1 POP JUMP JUMPDEST PUSH1 0x0 DUP1 PUSH1 0x0 DUP1 PUSH1 0x0 PUSH2 0x1B02 DUP7 PUSH2 0x121A JUMP JUMPDEST SWAP5 POP SWAP5 POP SWAP5 POP SWAP5 POP SWAP5 POP PUSH2 0x1B5E DUP7 PUSH1 0x2 PUSH1 0x0 DUP12 PUSH20 0xFFFFFFFFFFFFFFFFFFFFFFFFFFFFFFFFFFFFFFFF AND PUSH20 0xFFFFFFFFFFFFFFFFFFFFFFFFFFFFFFFFFFFFFFFF AND DUP2 MSTORE PUSH1 0x20 ADD SWAP1 DUP2 MSTORE PUSH1 0x20 ADD PUSH1 0x0 KECCAK256 SLOAD PUSH2 0x1272 SWAP1 SWAP2 SWAP1 PUSH4 0xFFFFFFFF AND JUMP JUMPDEST PUSH1 0x2 PUSH1 0x0 DUP11 PUSH20 0xFFFFFFFFFFFFFFFFFFFFFFFFFFFFFFFFFFFFFFFF AND PUSH20 0xFFFFFFFFFFFFFFFFFFFFFFFFFFFFFFFFFFFFFFFF AND DUP2 MSTORE PUSH1 0x20 ADD SWAP1 DUP2 MSTORE PUSH1 0x20 ADD PUSH1 0x0 KECCAK256 DUP2 SWAP1 SSTORE POP PUSH2 0x1BF3 DUP6 PUSH1 0x1 PUSH1 0x0 DUP12 PUSH20 0xFFFFFFFFFFFFFFFFFFFFFFFFFFFFFFFFFFFFFFFF AND PUSH20 0xFFFFFFFFFFFFFFFFFFFFFFFFFFFFFFFFFFFFFFFF AND DUP2 MSTORE PUSH1 0x20 ADD SWAP1 DUP2 MSTORE PUSH1 0x20 ADD PUSH1 0x0 KECCAK256 SLOAD PUSH2 0x1272 SWAP1 SWAP2 SWAP1 PUSH4 0xFFFFFFFF AND JUMP JUMPDEST PUSH1 0x1 PUSH1 0x0 DUP11 PUSH20 0xFFFFFFFFFFFFFFFFFFFFFFFFFFFFFFFFFFFFFFFF AND PUSH20 0xFFFFFFFFFFFFFFFFFFFFFFFFFFFFFFFFFFFFFFFF AND DUP2 MSTORE PUSH1 0x20 ADD SWAP1 DUP2 MSTORE PUSH1 0x20 ADD PUSH1 0x0 KECCAK256 DUP2 SWAP1 SSTORE POP PUSH2 0x1C88 DUP5 PUSH1 0x1 PUSH1 0x0 DUP11 PUSH20 0xFFFFFFFFFFFFFFFFFFFFFFFFFFFFFFFFFFFFFFFF AND PUSH20 0xFFFFFFFFFFFFFFFFFFFFFFFFFFFFFFFFFFFFFFFF AND DUP2 MSTORE PUSH1 0x20 ADD SWAP1 DUP2 MSTORE PUSH1 0x20 ADD PUSH1 0x0 KECCAK256 SLOAD PUSH2 0x1288 SWAP1 SWAP2 SWAP1 PUSH4 0xFFFFFFFF AND JUMP JUMPDEST PUSH1 0x1 PUSH1 0x0 DUP10 PUSH20 0xFFFFFFFFFFFFFFFFFFFFFFFFFFFFFFFFFFFFFFFF AND PUSH20 0xFFFFFFFFFFFFFFFFFFFFFFFFFFFFFFFFFFFFFFFF AND DUP2 MSTORE PUSH1 0x20 ADD SWAP1 DUP2 MSTORE PUSH1 0x20 ADD PUSH1 0x0 KECCAK256 DUP2 SWAP1 SSTORE POP PUSH2 0x1CD5 DUP4 DUP3 PUSH2 0x271A JUMP JUMPDEST DUP7 PUSH20 0xFFFFFFFFFFFFFFFFFFFFFFFFFFFFFFFFFFFFFFFF AND DUP9 PUSH20 0xFFFFFFFFFFFFFFFFFFFFFFFFFFFFFFFFFFFFFFFF AND PUSH32 0xDDF252AD1BE2C89B69C2B068FC378DAA952BA7F163C4A11628F55A4DF523B3EF DUP5 PUSH1 0x40 MLOAD PUSH2 0x1D32 SWAP2 SWAP1 PUSH2 0x2951 JUMP JUMPDEST PUSH1 0x40 MLOAD DUP1 SWAP2 SUB SWAP1 LOG3 POP POP POP POP POP POP POP POP JUMP JUMPDEST PUSH1 0x0 DUP1 PUSH1 0x0 DUP1 PUSH1 0x0 PUSH2 0x1D55 DUP7 PUSH2 0x121A JUMP JUMPDEST SWAP5 POP SWAP5 POP SWAP5 POP SWAP5 POP SWAP5 POP PUSH2 0x1DB1 DUP6 PUSH1 0x1 PUSH1 0x0 DUP12 PUSH20 0xFFFFFFFFFFFFFFFFFFFFFFFFFFFFFFFFFFFFFFFF AND PUSH20 0xFFFFFFFFFFFFFFFFFFFFFFFFFFFFFFFFFFFFFFFF AND DUP2 MSTORE PUSH1 0x20 ADD SWAP1 DUP2 MSTORE PUSH1 0x20 ADD PUSH1 0x0 KECCAK256 SLOAD PUSH2 0x1272 SWAP1 SWAP2 SWAP1 PUSH4 0xFFFFFFFF AND JUMP JUMPDEST PUSH1 0x1 PUSH1 0x0 DUP11 PUSH20 0xFFFFFFFFFFFFFFFFFFFFFFFFFFFFFFFFFFFFFFFF AND PUSH20 0xFFFFFFFFFFFFFFFFFFFFFFFFFFFFFFFFFFFFFFFF AND DUP2 MSTORE PUSH1 0x20 ADD SWAP1 DUP2 MSTORE PUSH1 0x20 ADD PUSH1 0x0 KECCAK256 DUP2 SWAP1 SSTORE POP PUSH2 0x1E46 DUP3 PUSH1 0x2 PUSH1 0x0 DUP11 PUSH20 0xFFFFFFFFFFFFFFFFFFFFFFFFFFFFFFFFFFFFFFFF AND PUSH20 0xFFFFFFFFFFFFFFFFFFFFFFFFFFFFFFFFFFFFFFFF AND DUP2 MSTORE PUSH1 0x20 ADD SWAP1 DUP2 MSTORE PUSH1 0x20 ADD PUSH1 0x0 KECCAK256 SLOAD PUSH2 0x1288 SWAP1 SWAP2 SWAP1 PUSH4 0xFFFFFFFF AND JUMP JUMPDEST PUSH1 0x2 PUSH1 0x0 DUP10 PUSH20 0xFFFFFFFFFFFFFFFFFFFFFFFFFFFFFFFFFFFFFFFF AND PUSH20 0xFFFFFFFFFFFFFFFFFFFFFFFFFFFFFFFFFFFFFFFF AND DUP2 MSTORE PUSH1 0x20 ADD SWAP1 DUP2 MSTORE PUSH1 0x20 ADD PUSH1 0x0 KECCAK256 DUP2 SWAP1 SSTORE POP PUSH2 0x1EDB DUP5 PUSH1 0x1 PUSH1 0x0 DUP11 PUSH20 0xFFFFFFFFFFFFFFFFFFFFFFFFFFFFFFFFFFFFFFFF AND PUSH20 0xFFFFFFFFFFFFFFFFFFFFFFFFFFFFFFFFFFFFFFFF AND DUP2 MSTORE PUSH1 0x20 ADD SWAP1 DUP2 MSTORE PUSH1 0x20 ADD PUSH1 0x0 KECCAK256 SLOAD PUSH2 0x1288 SWAP1 SWAP2 SWAP1 PUSH4 0xFFFFFFFF AND JUMP JUMPDEST PUSH1 0x1 PUSH1 0x0 DUP10 PUSH20 0xFFFFFFFFFFFFFFFFFFFFFFFFFFFFFFFFFFFFFFFF AND PUSH20 0xFFFFFFFFFFFFFFFFFFFFFFFFFFFFFFFFFFFFFFFF AND DUP2 MSTORE PUSH1 0x20 ADD SWAP1 DUP2 MSTORE PUSH1 0x20 ADD PUSH1 0x0 KECCAK256 DUP2 SWAP1 SSTORE POP PUSH2 0x1F28 DUP4 DUP3 PUSH2 0x271A JUMP JUMPDEST DUP7 PUSH20 0xFFFFFFFFFFFFFFFFFFFFFFFFFFFFFFFFFFFFFFFF AND DUP9 PUSH20 0xFFFFFFFFFFFFFFFFFFFFFFFFFFFFFFFFFFFFFFFF AND PUSH32 0xDDF252AD1BE2C89B69C2B068FC378DAA952BA7F163C4A11628F55A4DF523B3EF DUP5 PUSH1 0x40 MLOAD PUSH2 0x1F85 SWAP2 SWAP1 PUSH2 0x2951 JUMP JUMPDEST PUSH1 0x40 MLOAD DUP1 SWAP2 SUB SWAP1 LOG3 POP POP POP POP POP POP POP POP JUMP JUMPDEST PUSH1 0x0 DUP1 PUSH1 0x0 DUP1 PUSH1 0x0 PUSH2 0x1FA8 DUP7 PUSH2 0x121A JUMP JUMPDEST SWAP5 POP SWAP5 POP SWAP5 POP SWAP5 POP SWAP5 POP PUSH2 0x2004 DUP6 PUSH1 0x1 PUSH1 0x0 DUP12 PUSH20 0xFFFFFFFFFFFFFFFFFFFFFFFFFFFFFFFFFFFFFFFF AND PUSH20 0xFFFFFFFFFFFFFFFFFFFFFFFFFFFFFFFFFFFFFFFF AND DUP2 MSTORE PUSH1 0x20 ADD SWAP1 DUP2 MSTORE PUSH1 0x20 ADD PUSH1 0x0 KECCAK256 SLOAD PUSH2 0x1272 SWAP1 SWAP2 SWAP1 PUSH4 0xFFFFFFFF AND JUMP JUMPDEST PUSH1 0x1 PUSH1 0x0 DUP11 PUSH20 0xFFFFFFFFFFFFFFFFFFFFFFFFFFFFFFFFFFFFFFFF AND PUSH20 0xFFFFFFFFFFFFFFFFFFFFFFFFFFFFFFFFFFFFFFFF AND DUP2 MSTORE PUSH1 0x20 ADD SWAP1 DUP2 MSTORE PUSH1 0x20 ADD PUSH1 0x0 KECCAK256 DUP2 SWAP1 SSTORE POP PUSH2 0x2099 DUP5 PUSH1 0x1 PUSH1 0x0 DUP11 PUSH20 0xFFFFFFFFFFFFFFFFFFFFFFFFFFFFFFFFFFFFFFFF AND PUSH20 0xFFFFFFFFFFFFFFFFFFFFFFFFFFFFFFFFFFFFFFFF AND DUP2 MSTORE PUSH1 0x20 ADD SWAP1 DUP2 MSTORE PUSH1 0x20 ADD PUSH1 0x0 KECCAK256 SLOAD PUSH2 0x1288 SWAP1 SWAP2 SWAP1 PUSH4 0xFFFFFFFF AND JUMP JUMPDEST PUSH1 0x1 PUSH1 0x0 DUP10 PUSH20 0xFFFFFFFFFFFFFFFFFFFFFFFFFFFFFFFFFFFFFFFF AND PUSH20 0xFFFFFFFFFFFFFFFFFFFFFFFFFFFFFFFFFFFFFFFF AND DUP2 MSTORE PUSH1 0x20 ADD SWAP1 DUP2 MSTORE PUSH1 0x20 ADD PUSH1 0x0 KECCAK256 DUP2 SWAP1 SSTORE POP PUSH2 0x20E6 DUP4 DUP3 PUSH2 0x271A JUMP JUMPDEST DUP7 PUSH20 0xFFFFFFFFFFFFFFFFFFFFFFFFFFFFFFFFFFFFFFFF AND DUP9 PUSH20 0xFFFFFFFFFFFFFFFFFFFFFFFFFFFFFFFFFFFFFFFF AND PUSH32 0xDDF252AD1BE2C89B69C2B068FC378DAA952BA7F163C4A11628F55A4DF523B3EF DUP5 PUSH1 0x40 MLOAD PUSH2 0x2143 SWAP2 SWAP1 PUSH2 0x2951 JUMP JUMPDEST PUSH1 0x40 MLOAD DUP1 SWAP2 SUB SWAP1 LOG3 POP POP POP POP POP POP POP POP JUMP JUMPDEST PUSH1 0x0 DUP1 PUSH1 0x0 DUP1 PUSH1 0x0 PUSH2 0x2166 DUP7 PUSH2 0x121A JUMP JUMPDEST SWAP5 POP SWAP5 POP SWAP5 POP SWAP5 POP SWAP5 POP PUSH2 0x21C2 DUP7 PUSH1 0x2 PUSH1 0x0 DUP12 PUSH20 0xFFFFFFFFFFFFFFFFFFFFFFFFFFFFFFFFFFFFFFFF AND PUSH20 0xFFFFFFFFFFFFFFFFFFFFFFFFFFFFFFFFFFFFFFFF AND DUP2 MSTORE PUSH1 0x20 ADD SWAP1 DUP2 MSTORE PUSH1 0x20 ADD PUSH1 0x0 KECCAK256 SLOAD PUSH2 0x1272 SWAP1 SWAP2 SWAP1 PUSH4 0xFFFFFFFF AND JUMP JUMPDEST PUSH1 0x2 PUSH1 0x0 DUP11 PUSH20 0xFFFFFFFFFFFFFFFFFFFFFFFFFFFFFFFFFFFFFFFF AND PUSH20 0xFFFFFFFFFFFFFFFFFFFFFFFFFFFFFFFFFFFFFFFF AND DUP2 MSTORE PUSH1 0x20 ADD SWAP1 DUP2 MSTORE PUSH1 0x20 ADD PUSH1 0x0 KECCAK256 DUP2 SWAP1 SSTORE POP PUSH2 0x2257 DUP6 PUSH1 0x1 PUSH1 0x0 DUP12 PUSH20 0xFFFFFFFFFFFFFFFFFFFFFFFFFFFFFFFFFFFFFFFF AND PUSH20 0xFFFFFFFFFFFFFFFFFFFFFFFFFFFFFFFFFFFFFFFF AND DUP2 MSTORE PUSH1 0x20 ADD SWAP1 DUP2 MSTORE PUSH1 0x20 ADD PUSH1 0x0 KECCAK256 SLOAD PUSH2 0x1272 SWAP1 SWAP2 SWAP1 PUSH4 0xFFFFFFFF AND JUMP JUMPDEST PUSH1 0x1 PUSH1 0x0 DUP11 PUSH20 0xFFFFFFFFFFFFFFFFFFFFFFFFFFFFFFFFFFFFFFFF AND PUSH20 0xFFFFFFFFFFFFFFFFFFFFFFFFFFFFFFFFFFFFFFFF AND DUP2 MSTORE PUSH1 0x20 ADD SWAP1 DUP2 MSTORE PUSH1 0x20 ADD PUSH1 0x0 KECCAK256 DUP2 SWAP1 SSTORE POP PUSH2 0x22EC DUP3 PUSH1 0x2 PUSH1 0x0 DUP11 PUSH20 0xFFFFFFFFFFFFFFFFFFFFFFFFFFFFFFFFFFFFFFFF AND PUSH20 0xFFFFFFFFFFFFFFFFFFFFFFFFFFFFFFFFFFFFFFFF AND DUP2 MSTORE PUSH1 0x20 ADD SWAP1 DUP2 MSTORE PUSH1 0x20 ADD PUSH1 0x0 KECCAK256 SLOAD PUSH2 0x1288 SWAP1 SWAP2 SWAP1 PUSH4 0xFFFFFFFF AND JUMP JUMPDEST PUSH1 0x2 PUSH1 0x0 DUP10 PUSH20 0xFFFFFFFFFFFFFFFFFFFFFFFFFFFFFFFFFFFFFFFF AND PUSH20 0xFFFFFFFFFFFFFFFFFFFFFFFFFFFFFFFFFFFFFFFF AND DUP2 MSTORE PUSH1 0x20 ADD SWAP1 DUP2 MSTORE PUSH1 0x20 ADD PUSH1 0x0 KECCAK256 DUP2 SWAP1 SSTORE POP PUSH2 0x2381 DUP5 PUSH1 0x1 PUSH1 0x0 DUP11 PUSH20 0xFFFFFFFFFFFFFFFFFFFFFFFFFFFFFFFFFFFFFFFF AND PUSH20 0xFFFFFFFFFFFFFFFFFFFFFFFFFFFFFFFFFFFFFFFF AND DUP2 MSTORE PUSH1 0x20 ADD SWAP1 DUP2 MSTORE PUSH1 0x20 ADD PUSH1 0x0 KECCAK256 SLOAD PUSH2 0x1288 SWAP1 SWAP2 SWAP1 PUSH4 0xFFFFFFFF AND JUMP JUMPDEST PUSH1 0x1 PUSH1 0x0 DUP10 PUSH20 0xFFFFFFFFFFFFFFFFFFFFFFFFFFFFFFFFFFFFFFFF AND PUSH20 0xFFFFFFFFFFFFFFFFFFFFFFFFFFFFFFFFFFFFFFFF AND DUP2 MSTORE PUSH1 0x20 ADD SWAP1 DUP2 MSTORE PUSH1 0x20 ADD PUSH1 0x0 KECCAK256 DUP2 SWAP1 SSTORE POP PUSH2 0x23CE DUP4 DUP3 PUSH2 0x271A JUMP JUMPDEST DUP7 PUSH20 0xFFFFFFFFFFFFFFFFFFFFFFFFFFFFFFFFFFFFFFFF AND DUP9 PUSH20 0xFFFFFFFFFFFFFFFFFFFFFFFFFFFFFFFFFFFFFFFF AND PUSH32 0xDDF252AD1BE2C89B69C2B068FC378DAA952BA7F163C4A11628F55A4DF523B3EF DUP5 PUSH1 0x40 MLOAD PUSH2 0x242B SWAP2 SWAP1 PUSH2 0x2951 JUMP JUMPDEST PUSH1 0x40 MLOAD DUP1 SWAP2 SUB SWAP1 LOG3 POP POP POP POP POP POP POP POP JUMP JUMPDEST PUSH1 0x0 DUP1 PUSH1 0x0 PUSH1 0x6 SLOAD SWAP1 POP PUSH1 0x0 PUSH7 0x2386F26FC10000 SWAP1 POP PUSH1 0x0 JUMPDEST PUSH1 0x5 DUP1 SLOAD SWAP1 POP DUP2 LT ISZERO PUSH2 0x26BD JUMPI DUP3 PUSH1 0x1 PUSH1 0x0 PUSH1 0x5 DUP5 DUP2 SLOAD DUP2 LT PUSH2 0x247C JUMPI PUSH2 0x247B PUSH2 0x2DE7 JUMP JUMPDEST JUMPDEST SWAP1 PUSH1 0x0 MSTORE PUSH1 0x20 PUSH1 0x0 KECCAK256 ADD PUSH1 0x0 SWAP1 SLOAD SWAP1 PUSH2 0x100 EXP SWAP1 DIV PUSH20 0xFFFFFFFFFFFFFFFFFFFFFFFFFFFFFFFFFFFFFFFF AND PUSH20 0xFFFFFFFFFFFFFFFFFFFFFFFFFFFFFFFFFFFFFFFF AND PUSH20 0xFFFFFFFFFFFFFFFFFFFFFFFFFFFFFFFFFFFFFFFF AND DUP2 MSTORE PUSH1 0x20 ADD SWAP1 DUP2 MSTORE PUSH1 0x20 ADD PUSH1 0x0 KECCAK256 SLOAD GT DUP1 PUSH2 0x256A JUMPI POP DUP2 PUSH1 0x2 PUSH1 0x0 PUSH1 0x5 DUP5 DUP2 SLOAD DUP2 LT PUSH2 0x2502 JUMPI PUSH2 0x2501 PUSH2 0x2DE7 JUMP JUMPDEST JUMPDEST SWAP1 PUSH1 0x0 MSTORE PUSH1 0x20 PUSH1 0x0 KECCAK256 ADD PUSH1 0x0 SWAP1 SLOAD SWAP1 PUSH2 0x100 EXP SWAP1 DIV PUSH20 0xFFFFFFFFFFFFFFFFFFFFFFFFFFFFFFFFFFFFFFFF AND PUSH20 0xFFFFFFFFFFFFFFFFFFFFFFFFFFFFFFFFFFFFFFFF AND PUSH20 0xFFFFFFFFFFFFFFFFFFFFFFFFFFFFFFFFFFFFFFFF AND DUP2 MSTORE PUSH1 0x20 ADD SWAP1 DUP2 MSTORE PUSH1 0x20 ADD PUSH1 0x0 KECCAK256 SLOAD GT JUMPDEST ISZERO PUSH2 0x2586 JUMPI PUSH1 0x6 SLOAD PUSH7 0x2386F26FC10000 SWAP5 POP SWAP5 POP POP POP POP PUSH2 0x2700 JUMP JUMPDEST PUSH2 0x2616 PUSH1 0x1 PUSH1 0x0 PUSH1 0x5 DUP5 DUP2 SLOAD DUP2 LT PUSH2 0x25A1 JUMPI PUSH2 0x25A0 PUSH2 0x2DE7 JUMP JUMPDEST JUMPDEST SWAP1 PUSH1 0x0 MSTORE PUSH1 0x20 PUSH1 0x0 KECCAK256 ADD PUSH1 0x0 SWAP1 SLOAD SWAP1 PUSH2 0x100 EXP SWAP1 DIV PUSH20 0xFFFFFFFFFFFFFFFFFFFFFFFFFFFFFFFFFFFFFFFF AND PUSH20 0xFFFFFFFFFFFFFFFFFFFFFFFFFFFFFFFFFFFFFFFF AND PUSH20 0xFFFFFFFFFFFFFFFFFFFFFFFFFFFFFFFFFFFFFFFF AND DUP2 MSTORE PUSH1 0x20 ADD SWAP1 DUP2 MSTORE PUSH1 0x20 ADD PUSH1 0x0 KECCAK256 SLOAD DUP5 PUSH2 0x1272 SWAP1 SWAP2 SWAP1 PUSH4 0xFFFFFFFF AND JUMP JUMPDEST SWAP3 POP PUSH2 0x26A8 PUSH1 0x2 PUSH1 0x0 PUSH1 0x5 DUP5 DUP2 SLOAD DUP2 LT PUSH2 0x2633 JUMPI PUSH2 0x2632 PUSH2 0x2DE7 JUMP JUMPDEST JUMPDEST SWAP1 PUSH1 0x0 MSTORE PUSH1 0x20 PUSH1 0x0 KECCAK256 ADD PUSH1 0x0 SWAP1 SLOAD SWAP1 PUSH2 0x100 EXP SWAP1 DIV PUSH20 0xFFFFFFFFFFFFFFFFFFFFFFFFFFFFFFFFFFFFFFFF AND PUSH20 0xFFFFFFFFFFFFFFFFFFFFFFFFFFFFFFFFFFFFFFFF AND PUSH20 0xFFFFFFFFFFFFFFFFFFFFFFFFFFFFFFFFFFFFFFFF AND DUP2 MSTORE PUSH1 0x20 ADD SWAP1 DUP2 MSTORE PUSH1 0x20 ADD PUSH1 0x0 KECCAK256 SLOAD DUP4 PUSH2 0x1272 SWAP1 SWAP2 SWAP1 PUSH4 0xFFFFFFFF AND JUMP JUMPDEST SWAP2 POP DUP1 DUP1 PUSH2 0x26B5 SWAP1 PUSH2 0x2EA8 JUMP JUMPDEST SWAP2 POP POP PUSH2 0x2456 JUMP JUMPDEST POP PUSH2 0x26DA PUSH7 0x2386F26FC10000 PUSH1 0x6 SLOAD PUSH2 0x18FC SWAP1 SWAP2 SWAP1 PUSH4 0xFFFFFFFF AND JUMP JUMPDEST DUP3 LT ISZERO PUSH2 0x26F7 JUMPI PUSH1 0x6 SLOAD PUSH7 0x2386F26FC10000 SWAP4 POP SWAP4 POP POP POP PUSH2 0x2700 JUMP JUMPDEST DUP2 DUP2 SWAP4 POP SWAP4 POP POP POP JUMPDEST SWAP1 SWAP2 JUMP JUMPDEST PUSH1 0x0 DUP2 DUP4 PUSH2 0x2712 SWAP2 SWAP1 PUSH2 0x32CA JUMP JUMPDEST SWAP1 POP SWAP3 SWAP2 POP POP JUMP JUMPDEST PUSH2 0x272F DUP3 PUSH1 0x6 SLOAD PUSH2 0x1272 SWAP1 SWAP2 SWAP1 PUSH4 0xFFFFFFFF AND JUMP JUMPDEST PUSH1 0x6 DUP2 SWAP1 SSTORE POP PUSH2 0x274A DUP2 PUSH1 0x7 SLOAD PUSH2 0x1288 SWAP1 SWAP2 SWAP1 PUSH4 0xFFFFFFFF AND JUMP JUMPDEST PUSH1 0x7 DUP2 SWAP1 SSTORE POP POP POP JUMP JUMPDEST PUSH1 0x0 DUP1 REVERT JUMPDEST PUSH1 0x0 DUP2 SWAP1 POP SWAP2 SWAP1 POP JUMP JUMPDEST PUSH2 0x276C DUP2 PUSH2 0x2759 JUMP JUMPDEST DUP2 EQ PUSH2 0x2777 JUMPI PUSH1 0x0 DUP1 REVERT JUMPDEST POP JUMP JUMPDEST PUSH1 0x0 DUP2 CALLDATALOAD SWAP1 POP PUSH2 0x2789 DUP2 PUSH2 0x2763 JUMP JUMPDEST SWAP3 SWAP2 POP POP JUMP JUMPDEST PUSH1 0x0 PUSH1 0x20 DUP3 DUP5 SUB SLT ISZERO PUSH2 0x27A5 JUMPI PUSH2 0x27A4 PUSH2 0x2754 JUMP JUMPDEST JUMPDEST PUSH1 0x0 PUSH2 0x27B3 DUP5 DUP3 DUP6 ADD PUSH2 0x277A JUMP JUMPDEST SWAP2 POP POP SWAP3 SWAP2 POP POP JUMP JUMPDEST PUSH1 0x0 DUP2 MLOAD SWAP1 POP SWAP2 SWAP1 POP JUMP JUMPDEST PUSH1 0x0 DUP3 DUP3 MSTORE PUSH1 0x20 DUP3 ADD SWAP1 POP SWAP3 SWAP2 POP POP JUMP JUMPDEST PUSH1 0x0 JUMPDEST DUP4 DUP2 LT ISZERO PUSH2 0x27F6 JUMPI DUP1 DUP3 ADD MLOAD DUP2 DUP5 ADD MSTORE PUSH1 0x20 DUP2 ADD SWAP1 POP PUSH2 0x27DB JUMP JUMPDEST PUSH1 0x0 DUP5 DUP5 ADD MSTORE POP POP POP POP JUMP JUMPDEST PUSH1 0x0 PUSH1 0x1F NOT PUSH1 0x1F DUP4 ADD AND SWAP1 POP SWAP2 SWAP1 POP JUMP JUMPDEST PUSH1 0x0 PUSH2 0x281E DUP3 PUSH2 0x27BC JUMP JUMPDEST PUSH2 0x2828 DUP2 DUP6 PUSH2 0x27C7 JUMP JUMPDEST SWAP4 POP PUSH2 0x2838 DUP2 DUP6 PUSH1 0x20 DUP7 ADD PUSH2 0x27D8 JUMP JUMPDEST PUSH2 0x2841 DUP2 PUSH2 0x2802 JUMP JUMPDEST DUP5 ADD SWAP2 POP POP SWAP3 SWAP2 POP POP JUMP JUMPDEST PUSH1 0x0 PUSH1 0x20 DUP3 ADD SWAP1 POP DUP2 DUP2 SUB PUSH1 0x0 DUP4 ADD MSTORE PUSH2 0x2866 DUP2 DUP5 PUSH2 0x2813 JUMP JUMPDEST SWAP1 POP SWAP3 SWAP2 POP POP JUMP JUMPDEST PUSH1 0x0 PUSH20 0xFFFFFFFFFFFFFFFFFFFFFFFFFFFFFFFFFFFFFFFF DUP3 AND SWAP1 POP SWAP2 SWAP1 POP JUMP JUMPDEST PUSH1 0x0 PUSH2 0x2899 DUP3 PUSH2 0x286E JUMP JUMPDEST SWAP1 POP SWAP2 SWAP1 POP JUMP JUMPDEST PUSH2 0x28A9 DUP2 PUSH2 0x288E JUMP JUMPDEST DUP2 EQ PUSH2 0x28B4 JUMPI PUSH1 0x0 DUP1 REVERT JUMPDEST POP JUMP JUMPDEST PUSH1 0x0 DUP2 CALLDATALOAD SWAP1 POP PUSH2 0x28C6 DUP2 PUSH2 0x28A0 JUMP JUMPDEST SWAP3 SWAP2 POP POP JUMP JUMPDEST PUSH1 0x0 DUP1 PUSH1 0x40 DUP4 DUP6 SUB SLT ISZERO PUSH2 0x28E3 JUMPI PUSH2 0x28E2 PUSH2 0x2754 JUMP JUMPDEST JUMPDEST PUSH1 0x0 PUSH2 0x28F1 DUP6 DUP3 DUP7 ADD PUSH2 0x28B7 JUMP JUMPDEST SWAP3 POP POP PUSH1 0x20 PUSH2 0x2902 DUP6 DUP3 DUP7 ADD PUSH2 0x277A JUMP JUMPDEST SWAP2 POP POP SWAP3 POP SWAP3 SWAP1 POP JUMP JUMPDEST PUSH1 0x0 DUP2 ISZERO ISZERO SWAP1 POP SWAP2 SWAP1 POP JUMP JUMPDEST PUSH2 0x2921 DUP2 PUSH2 0x290C JUMP JUMPDEST DUP3 MSTORE POP POP JUMP JUMPDEST PUSH1 0x0 PUSH1 0x20 DUP3 ADD SWAP1 POP PUSH2 0x293C PUSH1 0x0 DUP4 ADD DUP5 PUSH2 0x2918 JUMP JUMPDEST SWAP3 SWAP2 POP POP JUMP JUMPDEST PUSH2 0x294B DUP2 PUSH2 0x2759 JUMP JUMPDEST DUP3 MSTORE POP POP JUMP JUMPDEST PUSH1 0x0 PUSH1 0x20 DUP3 ADD SWAP1 POP PUSH2 0x2966 PUSH1 0x0 DUP4 ADD DUP5 PUSH2 0x2942 JUMP JUMPDEST SWAP3 SWAP2 POP POP JUMP JUMPDEST PUSH1 0x0 DUP1 PUSH1 0x0 PUSH1 0x60 DUP5 DUP7 SUB SLT ISZERO PUSH2 0x2985 JUMPI PUSH2 0x2984 PUSH2 0x2754 JUMP JUMPDEST JUMPDEST PUSH1 0x0 PUSH2 0x2993 DUP7 DUP3 DUP8 ADD PUSH2 0x28B7 JUMP JUMPDEST SWAP4 POP POP PUSH1 0x20 PUSH2 0x29A4 DUP7 DUP3 DUP8 ADD PUSH2 0x28B7 JUMP JUMPDEST SWAP3 POP POP PUSH1 0x40 PUSH2 0x29B5 DUP7 DUP3 DUP8 ADD PUSH2 0x277A JUMP JUMPDEST SWAP2 POP POP SWAP3 POP SWAP3 POP SWAP3 JUMP JUMPDEST PUSH1 0x0 PUSH1 0xFF DUP3 AND SWAP1 POP SWAP2 SWAP1 POP JUMP JUMPDEST PUSH2 0x29D5 DUP2 PUSH2 0x29BF JUMP JUMPDEST DUP3 MSTORE POP POP JUMP JUMPDEST PUSH1 0x0 PUSH1 0x20 DUP3 ADD SWAP1 POP PUSH2 0x29F0 PUSH1 0x0 DUP4 ADD DUP5 PUSH2 0x29CC JUMP JUMPDEST SWAP3 SWAP2 POP POP JUMP JUMPDEST PUSH2 0x29FF DUP2 PUSH2 0x290C JUMP JUMPDEST DUP2 EQ PUSH2 0x2A0A JUMPI PUSH1 0x0 DUP1 REVERT JUMPDEST POP JUMP JUMPDEST PUSH1 0x0 DUP2 CALLDATALOAD SWAP1 POP PUSH2 0x2A1C DUP2 PUSH2 0x29F6 JUMP JUMPDEST SWAP3 SWAP2 POP POP JUMP JUMPDEST PUSH1 0x0 DUP1 PUSH1 0x40 DUP4 DUP6 SUB SLT ISZERO PUSH2 0x2A39 JUMPI PUSH2 0x2A38 PUSH2 0x2754 JUMP JUMPDEST JUMPDEST PUSH1 0x0 PUSH2 0x2A47 DUP6 DUP3 DUP7 ADD PUSH2 0x277A JUMP JUMPDEST SWAP3 POP POP PUSH1 0x20 PUSH2 0x2A58 DUP6 DUP3 DUP7 ADD PUSH2 0x2A0D JUMP JUMPDEST SWAP2 POP POP SWAP3 POP SWAP3 SWAP1 POP JUMP JUMPDEST PUSH1 0x0 PUSH1 0x20 DUP3 DUP5 SUB SLT ISZERO PUSH2 0x2A78 JUMPI PUSH2 0x2A77 PUSH2 0x2754 JUMP JUMPDEST JUMPDEST PUSH1 0x0 PUSH2 0x2A86 DUP5 DUP3 DUP6 ADD PUSH2 0x28B7 JUMP JUMPDEST SWAP2 POP POP SWAP3 SWAP2 POP POP JUMP JUMPDEST PUSH2 0x2A98 DUP2 PUSH2 0x288E JUMP JUMPDEST DUP3 MSTORE POP POP JUMP JUMPDEST PUSH1 0x0 PUSH1 0x20 DUP3 ADD SWAP1 POP PUSH2 0x2AB3 PUSH1 0x0 DUP4 ADD DUP5 PUSH2 0x2A8F JUMP JUMPDEST SWAP3 SWAP2 POP POP JUMP JUMPDEST PUSH1 0x0 DUP1 PUSH1 0x40 DUP4 DUP6 SUB SLT ISZERO PUSH2 0x2AD0 JUMPI PUSH2 0x2ACF PUSH2 0x2754 JUMP JUMPDEST JUMPDEST PUSH1 0x0 PUSH2 0x2ADE DUP6 DUP3 DUP7 ADD PUSH2 0x28B7 JUMP JUMPDEST SWAP3 POP POP PUSH1 0x20 PUSH2 0x2AEF DUP6 DUP3 DUP7 ADD PUSH2 0x28B7 JUMP JUMPDEST SWAP2 POP POP SWAP3 POP SWAP3 SWAP1 POP JUMP JUMPDEST PUSH32 0x4578636C75646564206164647265737365732063616E6E6F742063616C6C2074 PUSH1 0x0 DUP3 ADD MSTORE PUSH32 0x6869732066756E6374696F6E0000000000000000000000000000000000000000 PUSH1 0x20 DUP3 ADD MSTORE POP JUMP JUMPDEST PUSH1 0x0 PUSH2 0x2B55 PUSH1 0x2C DUP4 PUSH2 0x27C7 JUMP JUMPDEST SWAP2 POP PUSH2 0x2B60 DUP3 PUSH2 0x2AF9 JUMP JUMPDEST PUSH1 0x40 DUP3 ADD SWAP1 POP SWAP2 SWAP1 POP JUMP JUMPDEST PUSH1 0x0 PUSH1 0x20 DUP3 ADD SWAP1 POP DUP2 DUP2 SUB PUSH1 0x0 DUP4 ADD MSTORE PUSH2 0x2B84 DUP2 PUSH2 0x2B48 JUMP JUMPDEST SWAP1 POP SWAP2 SWAP1 POP JUMP JUMPDEST PUSH32 0x4E487B7100000000000000000000000000000000000000000000000000000000 PUSH1 0x0 MSTORE PUSH1 0x22 PUSH1 0x4 MSTORE PUSH1 0x24 PUSH1 0x0 REVERT JUMPDEST PUSH1 0x0 PUSH1 0x2 DUP3 DIV SWAP1 POP PUSH1 0x1 DUP3 AND DUP1 PUSH2 0x2BD2 JUMPI PUSH1 0x7F DUP3 AND SWAP2 POP JUMPDEST PUSH1 0x20 DUP3 LT DUP2 SUB PUSH2 0x2BE5 JUMPI PUSH2 0x2BE4 PUSH2 0x2B8B JUMP JUMPDEST JUMPDEST POP SWAP2 SWAP1 POP JUMP JUMPDEST PUSH32 0x416D6F756E74206D757374206265206C657373207468616E20746F74616C2072 PUSH1 0x0 DUP3 ADD MSTORE PUSH32 0x65666C656374696F6E7300000000000000000000000000000000000000000000 PUSH1 0x20 DUP3 ADD MSTORE POP JUMP JUMPDEST PUSH1 0x0 PUSH2 0x2C47 PUSH1 0x2A DUP4 PUSH2 0x27C7 JUMP JUMPDEST SWAP2 POP PUSH2 0x2C52 DUP3 PUSH2 0x2BEB JUMP JUMPDEST PUSH1 0x40 DUP3 ADD SWAP1 POP SWAP2 SWAP1 POP JUMP JUMPDEST PUSH1 0x0 PUSH1 0x20 DUP3 ADD SWAP1 POP DUP2 DUP2 SUB PUSH1 0x0 DUP4 ADD MSTORE PUSH2 0x2C76 DUP2 PUSH2 0x2C3A JUMP JUMPDEST SWAP1 POP SWAP2 SWAP1 POP JUMP JUMPDEST PUSH32 0x416D6F756E74206D757374206265206C657373207468616E20737570706C7900 PUSH1 0x0 DUP3 ADD MSTORE POP JUMP JUMPDEST PUSH1 0x0 PUSH2 0x2CB3 PUSH1 0x1F DUP4 PUSH2 0x27C7 JUMP JUMPDEST SWAP2 POP PUSH2 0x2CBE DUP3 PUSH2 0x2C7D JUMP JUMPDEST PUSH1 0x20 DUP3 ADD SWAP1 POP SWAP2 SWAP1 POP JUMP JUMPDEST PUSH1 0x0 PUSH1 0x20 DUP3 ADD SWAP1 POP DUP2 DUP2 SUB PUSH1 0x0 DUP4 ADD MSTORE PUSH2 0x2CE2 DUP2 PUSH2 0x2CA6 JUMP JUMPDEST SWAP1 POP SWAP2 SWAP1 POP JUMP JUMPDEST PUSH32 0x4163636F756E7420697320616C7265616479206578636C756465640000000000 PUSH1 0x0 DUP3 ADD MSTORE POP JUMP JUMPDEST PUSH1 0x0 PUSH2 0x2D1F PUSH1 0x1B DUP4 PUSH2 0x27C7 JUMP JUMPDEST SWAP2 POP PUSH2 0x2D2A DUP3 PUSH2 0x2CE9 JUMP JUMPDEST PUSH1 0x20 DUP3 ADD SWAP1 POP SWAP2 SWAP1 POP JUMP JUMPDEST PUSH1 0x0 PUSH1 0x20 DUP3 ADD SWAP1 POP DUP2 DUP2 SUB PUSH1 0x0 DUP4 ADD MSTORE PUSH2 0x2D4E DUP2 PUSH2 0x2D12 JUMP JUMPDEST SWAP1 POP SWAP2 SWAP1 POP JUMP JUMPDEST PUSH32 0x4F776E61626C653A206E6577206F776E657220697320746865207A65726F2061 PUSH1 0x0 DUP3 ADD MSTORE PUSH32 0x6464726573730000000000000000000000000000000000000000000000000000 PUSH1 0x20 DUP3 ADD MSTORE POP JUMP JUMPDEST PUSH1 0x0 PUSH2 0x2DB1 PUSH1 0x26 DUP4 PUSH2 0x27C7 JUMP JUMPDEST SWAP2 POP PUSH2 0x2DBC DUP3 PUSH2 0x2D55 JUMP JUMPDEST PUSH1 0x40 DUP3 ADD SWAP1 POP SWAP2 SWAP1 POP JUMP JUMPDEST PUSH1 0x0 PUSH1 0x20 DUP3 ADD SWAP1 POP DUP2 DUP2 SUB PUSH1 0x0 DUP4 ADD MSTORE PUSH2 0x2DE0 DUP2 PUSH2 0x2DA4 JUMP JUMPDEST SWAP1 POP SWAP2 SWAP1 POP JUMP JUMPDEST PUSH32 0x4E487B7100000000000000000000000000000000000000000000000000000000 PUSH1 0x0 MSTORE PUSH1 0x32 PUSH1 0x4 MSTORE PUSH1 0x24 PUSH1 0x0 REVERT JUMPDEST PUSH32 0x4E487B7100000000000000000000000000000000000000000000000000000000 PUSH1 0x0 MSTORE PUSH1 0x11 PUSH1 0x4 MSTORE PUSH1 0x24 PUSH1 0x0 REVERT JUMPDEST PUSH1 0x0 PUSH2 0x2E50 DUP3 PUSH2 0x2759 JUMP JUMPDEST SWAP2 POP PUSH2 0x2E5B DUP4 PUSH2 0x2759 JUMP JUMPDEST SWAP3 POP DUP3 DUP3 SUB SWAP1 POP DUP2 DUP2 GT ISZERO PUSH2 0x2E73 JUMPI PUSH2 0x2E72 PUSH2 0x2E16 JUMP JUMPDEST JUMPDEST SWAP3 SWAP2 POP POP JUMP JUMPDEST PUSH32 0x4E487B7100000000000000000000000000000000000000000000000000000000 PUSH1 0x0 MSTORE PUSH1 0x31 PUSH1 0x4 MSTORE PUSH1 0x24 PUSH1 0x0 REVERT JUMPDEST PUSH1 0x0 PUSH2 0x2EB3 DUP3 PUSH2 0x2759 JUMP JUMPDEST SWAP2 POP PUSH32 0xFFFFFFFFFFFFFFFFFFFFFFFFFFFFFFFFFFFFFFFFFFFFFFFFFFFFFFFFFFFFFFFF DUP3 SUB PUSH2 0x2EE5 JUMPI PUSH2 0x2EE4 PUSH2 0x2E16 JUMP JUMPDEST JUMPDEST PUSH1 0x1 DUP3 ADD SWAP1 POP SWAP2 SWAP1 POP JUMP JUMPDEST PUSH1 0x0 PUSH2 0x2EFB DUP3 PUSH2 0x2759 JUMP JUMPDEST SWAP2 POP PUSH2 0x2F06 DUP4 PUSH2 0x2759 JUMP JUMPDEST SWAP3 POP DUP3 DUP3 ADD SWAP1 POP DUP1 DUP3 GT ISZERO PUSH2 0x2F1E JUMPI PUSH2 0x2F1D PUSH2 0x2E16 JUMP JUMPDEST JUMPDEST SWAP3 SWAP2 POP POP JUMP JUMPDEST PUSH32 0x45524332303A20617070726F76652066726F6D20746865207A65726F20616464 PUSH1 0x0 DUP3 ADD MSTORE PUSH32 0x7265737300000000000000000000000000000000000000000000000000000000 PUSH1 0x20 DUP3 ADD MSTORE POP JUMP JUMPDEST PUSH1 0x0 PUSH2 0x2F80 PUSH1 0x24 DUP4 PUSH2 0x27C7 JUMP JUMPDEST SWAP2 POP PUSH2 0x2F8B DUP3 PUSH2 0x2F24 JUMP JUMPDEST PUSH1 0x40 DUP3 ADD SWAP1 POP SWAP2 SWAP1 POP JUMP JUMPDEST PUSH1 0x0 PUSH1 0x20 DUP3 ADD SWAP1 POP DUP2 DUP2 SUB PUSH1 0x0 DUP4 ADD MSTORE PUSH2 0x2FAF DUP2 PUSH2 0x2F73 JUMP JUMPDEST SWAP1 POP SWAP2 SWAP1 POP JUMP JUMPDEST PUSH32 0x45524332303A20617070726F766520746F20746865207A65726F206164647265 PUSH1 0x0 DUP3 ADD MSTORE PUSH32 0x7373000000000000000000000000000000000000000000000000000000000000 PUSH1 0x20 DUP3 ADD MSTORE POP JUMP JUMPDEST PUSH1 0x0 PUSH2 0x3012 PUSH1 0x22 DUP4 PUSH2 0x27C7 JUMP JUMPDEST SWAP2 POP PUSH2 0x301D DUP3 PUSH2 0x2FB6 JUMP JUMPDEST PUSH1 0x40 DUP3 ADD SWAP1 POP SWAP2 SWAP1 POP JUMP JUMPDEST PUSH1 0x0 PUSH1 0x20 DUP3 ADD SWAP1 POP DUP2 DUP2 SUB PUSH1 0x0 DUP4 ADD MSTORE PUSH2 0x3041 DUP2 PUSH2 0x3005 JUMP JUMPDEST SWAP1 POP SWAP2 SWAP1 POP JUMP JUMPDEST PUSH32 0x45524332303A207472616E736665722066726F6D20746865207A65726F206164 PUSH1 0x0 DUP3 ADD MSTORE PUSH32 0x6472657373000000000000000000000000000000000000000000000000000000 PUSH1 0x20 DUP3 ADD MSTORE POP JUMP JUMPDEST PUSH1 0x0 PUSH2 0x30A4 PUSH1 0x25 DUP4 PUSH2 0x27C7 JUMP JUMPDEST SWAP2 POP PUSH2 0x30AF DUP3 PUSH2 0x3048 JUMP JUMPDEST PUSH1 0x40 DUP3 ADD SWAP1 POP SWAP2 SWAP1 POP JUMP JUMPDEST PUSH1 0x0 PUSH1 0x20 DUP3 ADD SWAP1 POP DUP2 DUP2 SUB PUSH1 0x0 DUP4 ADD MSTORE PUSH2 0x30D3 DUP2 PUSH2 0x3097 JUMP JUMPDEST SWAP1 POP SWAP2 SWAP1 POP JUMP JUMPDEST PUSH32 0x45524332303A207472616E7366657220746F20746865207A65726F2061646472 PUSH1 0x0 DUP3 ADD MSTORE PUSH32 0x6573730000000000000000000000000000000000000000000000000000000000 PUSH1 0x20 DUP3 ADD MSTORE POP JUMP JUMPDEST PUSH1 0x0 PUSH2 0x3136 PUSH1 0x23 DUP4 PUSH2 0x27C7 JUMP JUMPDEST SWAP2 POP PUSH2 0x3141 DUP3 PUSH2 0x30DA JUMP JUMPDEST PUSH1 0x40 DUP3 ADD SWAP1 POP SWAP2 SWAP1 POP JUMP JUMPDEST PUSH1 0x0 PUSH1 0x20 DUP3 ADD SWAP1 POP DUP2 DUP2 SUB PUSH1 0x0 DUP4 ADD MSTORE PUSH2 0x3165 DUP2 PUSH2 0x3129 JUMP JUMPDEST SWAP1 POP SWAP2 SWAP1 POP JUMP JUMPDEST PUSH32 0x5472616E7366657220616D6F756E74206D757374206265206772656174657220 PUSH1 0x0 DUP3 ADD MSTORE PUSH32 0x7468616E207A65726F0000000000000000000000000000000000000000000000 PUSH1 0x20 DUP3 ADD MSTORE POP JUMP JUMPDEST PUSH1 0x0 PUSH2 0x31C8 PUSH1 0x29 DUP4 PUSH2 0x27C7 JUMP JUMPDEST SWAP2 POP PUSH2 0x31D3 DUP3 PUSH2 0x316C JUMP JUMPDEST PUSH1 0x40 DUP3 ADD SWAP1 POP SWAP2 SWAP1 POP JUMP JUMPDEST PUSH1 0x0 PUSH1 0x20 DUP3 ADD SWAP1 POP DUP2 DUP2 SUB PUSH1 0x0 DUP4 ADD MSTORE PUSH2 0x31F7 DUP2 PUSH2 0x31BB JUMP JUMPDEST SWAP1 POP SWAP2 SWAP1 POP JUMP JUMPDEST PUSH32 0x4E487B7100000000000000000000000000000000000000000000000000000000 PUSH1 0x0 MSTORE PUSH1 0x12 PUSH1 0x4 MSTORE PUSH1 0x24 PUSH1 0x0 REVERT JUMPDEST PUSH1 0x0 PUSH2 0x3238 DUP3 PUSH2 0x2759 JUMP JUMPDEST SWAP2 POP PUSH2 0x3243 DUP4 PUSH2 0x2759 JUMP JUMPDEST SWAP3 POP DUP3 PUSH2 0x3253 JUMPI PUSH2 0x3252 PUSH2 0x31FE JUMP JUMPDEST JUMPDEST DUP3 DUP3 DIV SWAP1 POP SWAP3 SWAP2 POP POP JUMP JUMPDEST PUSH32 0x4F776E61626C653A2063616C6C6572206973206E6F7420746865206F776E6572 PUSH1 0x0 DUP3 ADD MSTORE POP JUMP JUMPDEST PUSH1 0x0 PUSH2 0x3294 PUSH1 0x20 DUP4 PUSH2 0x27C7 JUMP JUMPDEST SWAP2 POP PUSH2 0x329F DUP3 PUSH2 0x325E JUMP JUMPDEST PUSH1 0x20 DUP3 ADD SWAP1 POP SWAP2 SWAP1 POP JUMP JUMPDEST PUSH1 0x0 PUSH1 0x20 DUP3 ADD SWAP1 POP DUP2 DUP2 SUB PUSH1 0x0 DUP4 ADD MSTORE PUSH2 0x32C3 DUP2 PUSH2 0x3287 JUMP JUMPDEST SWAP1 POP SWAP2 SWAP1 POP JUMP JUMPDEST PUSH1 0x0 PUSH2 0x32D5 DUP3 PUSH2 0x2759 JUMP JUMPDEST SWAP2 POP PUSH2 0x32E0 DUP4 PUSH2 0x2759 JUMP JUMPDEST SWAP3 POP DUP3 DUP3 MUL PUSH2 0x32EE DUP2 PUSH2 0x2759 JUMP JUMPDEST SWAP2 POP DUP3 DUP3 DIV DUP5 EQ DUP4 ISZERO OR PUSH2 0x3305 JUMPI PUSH2 0x3304 PUSH2 0x2E16 JUMP JUMPDEST JUMPDEST POP SWAP3 SWAP2 POP POP JUMP INVALID GASLIMIT MSTORE NUMBER ORIGIN ADDRESS GASPRICE KECCAK256 PUSH21 0x72616E7366657220616D6F756E7420657863656564 PUSH20 0x20616C6C6F77616E636545524332303A20646563 PUSH19 0x656173656420616C6C6F77616E63652062656C PUSH16 0x77207A65726FA2646970667358221220 MULMOD 0x2A 0x25 ADD 0xF8 0xAC 0xCD 0x28 0x27 JUMPDEST RETURNDATASIZE PUSH13 0x7741EA78E8976FB1004AE88723 0xE4 MLOAD PUSH10 0x96BCB0BA64736F6C6343 STOP ADDMOD SLT STOP CALLER "
				},
				"gasEstimates": {
					"creation": {
						"codeDepositCost": "2639800",
						"executionCost": "infinite",
						"totalCost": "infinite"
					},
					"external": {
						"allowance(address,address)": "infinite",
						"approve(address,uint256)": "infinite",
						"balanceOf(address)": "infinite",
						"decimals()": "2546",
						"decreaseAllowance(address,uint256)": "infinite",
						"excludeAccount(address)": "infinite",
						"includeAccount(address)": "infinite",
						"increaseAllowance(address,uint256)": "infinite",
						"isExcluded(address)": "2927",
						"name()": "infinite",
						"owner()": "2589",
						"reflect(uint256)": "infinite",
						"reflectionFromToken(uint256,bool)": "infinite",
						"renounceOwnership()": "30443",
						"symbol()": "infinite",
						"tokenFromReflection(uint256)": "infinite",
						"totalFees()": "2527",
						"totalSupply()": "449",
						"transfer(address,uint256)": "infinite",
						"transferFrom(address,address,uint256)": "infinite",
						"transferOwnership(address)": "30854"
					},
					"internal": {
						"_approve(address,address,uint256)": "infinite",
						"_getCurrentSupply()": "infinite",
						"_getRValues(uint256,uint256,uint256)": "infinite",
						"_getRate()": "infinite",
						"_getTValues(uint256)": "infinite",
						"_getValues(uint256)": "infinite",
						"_reflectFee(uint256,uint256)": "infinite",
						"_transfer(address,address,uint256)": "infinite",
						"_transferBothExcluded(address,address,uint256)": "infinite",
						"_transferFromExcluded(address,address,uint256)": "infinite",
						"_transferStandard(address,address,uint256)": "infinite",
						"_transferToExcluded(address,address,uint256)": "infinite"
					}
				},
				"methodIdentifiers": {
					"allowance(address,address)": "dd62ed3e",
					"approve(address,uint256)": "095ea7b3",
					"balanceOf(address)": "70a08231",
					"decimals()": "313ce567",
					"decreaseAllowance(address,uint256)": "a457c2d7",
					"excludeAccount(address)": "f2cc0c18",
					"includeAccount(address)": "f84354f1",
					"increaseAllowance(address,uint256)": "39509351",
					"isExcluded(address)": "cba0e996",
					"name()": "06fdde03",
					"owner()": "8da5cb5b",
					"reflect(uint256)": "053ab182",
					"reflectionFromToken(uint256,bool)": "4549b039",
					"renounceOwnership()": "715018a6",
					"symbol()": "95d89b41",
					"tokenFromReflection(uint256)": "2d838119",
					"totalFees()": "13114a9d",
					"totalSupply()": "18160ddd",
					"transfer(address,uint256)": "a9059cbb",
					"transferFrom(address,address,uint256)": "23b872dd",
					"transferOwnership(address)": "f2fde38b"
				}
			},
			"storageLayout": {
				"storage": [
					{
						"astId": 7,
						"contract": "contracts/samples/reflect_sample.sol:REFLECT",
						"label": "_owner",
						"offset": 0,
						"slot": "0",
						"type": "t_address"
					},
					{
						"astId": 877,
						"contract": "contracts/samples/reflect_sample.sol:REFLECT",
						"label": "_rOwned",
						"offset": 0,
						"slot": "1",
						"type": "t_mapping(t_address,t_uint256)"
					},
					{
						"astId": 881,
						"contract": "contracts/samples/reflect_sample.sol:REFLECT",
						"label": "_tOwned",
						"offset": 0,
						"slot": "2",
						"type": "t_mapping(t_address,t_uint256)"
					},
					{
						"astId": 887,
						"contract": "contracts/samples/reflect_sample.sol:REFLECT",
						"label": "_allowances",
						"offset": 0,
						"slot": "3",
						"type": "t_mapping(t_address,t_mapping(t_address,t_uint256))"
					},
					{
						"astId": 891,
						"contract": "contracts/samples/reflect_sample.sol:REFLECT",
						"label": "_isExcluded",
						"offset": 0,
						"slot": "4",
						"type": "t_mapping(t_address,t_bool)"
					},
					{
						"astId": 894,
						"contract": "contracts/samples/reflect_sample.sol:REFLECT",
						"label": "_excluded",
						"offset": 0,
						"slot": "5",
						"type": "t_array(t_address)dyn_storage"
					},
					{
						"astId": 921,
						"contract": "contracts/samples/reflect_sample.sol:REFLECT",
						"label": "_rTotal",
						"offset": 0,
						"slot": "6",
						"type": "t_uint256"
					},
					{
						"astId": 923,
						"contract": "contracts/samples/reflect_sample.sol:REFLECT",
						"label": "_tFeeTotal",
						"offset": 0,
						"slot": "7",
						"type": "t_uint256"
					},
					{
						"astId": 926,
						"contract": "contracts/samples/reflect_sample.sol:REFLECT",
						"label": "_name",
						"offset": 0,
						"slot": "8",
						"type": "t_string_storage"
					},
					{
						"astId": 929,
						"contract": "contracts/samples/reflect_sample.sol:REFLECT",
						"label": "_symbol",
						"offset": 0,
						"slot": "9",
						"type": "t_string_storage"
					},
					{
						"astId": 932,
						"contract": "contracts/samples/reflect_sample.sol:REFLECT",
						"label": "_decimals",
						"offset": 0,
						"slot": "10",
						"type": "t_uint8"
					}
				],
				"types": {
					"t_address": {
						"encoding": "inplace",
						"label": "address",
						"numberOfBytes": "20"
					},
					"t_array(t_address)dyn_storage": {
						"base": "t_address",
						"encoding": "dynamic_array",
						"label": "address[]",
						"numberOfBytes": "32"
					},
					"t_bool": {
						"encoding": "inplace",
						"label": "bool",
						"numberOfBytes": "1"
					},
					"t_mapping(t_address,t_bool)": {
						"encoding": "mapping",
						"key": "t_address",
						"label": "mapping(address => bool)",
						"numberOfBytes": "32",
						"value": "t_bool"
					},
					"t_mapping(t_address,t_mapping(t_address,t_uint256))": {
						"encoding": "mapping",
						"key": "t_address",
						"label": "mapping(address => mapping(address => uint256))",
						"numberOfBytes": "32",
						"value": "t_mapping(t_address,t_uint256)"
					},
					"t_mapping(t_address,t_uint256)": {
						"encoding": "mapping",
						"key": "t_address",
						"label": "mapping(address => uint256)",
						"numberOfBytes": "32",
						"value": "t_uint256"
					},
					"t_string_storage": {
						"encoding": "bytes",
						"label": "string",
						"numberOfBytes": "32"
					},
					"t_uint256": {
						"encoding": "inplace",
						"label": "uint256",
						"numberOfBytes": "32"
					},
					"t_uint8": {
						"encoding": "inplace",
						"label": "uint8",
						"numberOfBytes": "1"
					}
				}
			},
			"userdoc": {
				"kind": "user",
				"methods": {},
				"version": 1
			}
		}
	}
}