{
	"contracts/payment/SimplePaymentChannel.sol": {
		"SimplePaymentChannel": {
			"abi": [
				{
					"inputs": [
						{
							"internalType": "address payable",
							"name": "recipientAddress",
							"type": "address"
						},
						{
							"internalType": "uint256",
							"name": "duration",
							"type": "uint256"
						}
					],
					"stateMutability": "payable",
					"type": "constructor"
				},
				{
					"inputs": [],
					"name": "claimTimeout",
					"outputs": [],
					"stateMutability": "nonpayable",
					"type": "function"
				},
				{
					"inputs": [
						{
							"internalType": "uint256",
							"name": "amount",
							"type": "uint256"
						},
						{
							"internalType": "bytes",
							"name": "signature",
							"type": "bytes"
						}
					],
					"name": "close",
					"outputs": [],
					"stateMutability": "nonpayable",
					"type": "function"
				},
				{
					"inputs": [],
					"name": "expiration",
					"outputs": [
						{
							"internalType": "uint256",
							"name": "",
							"type": "uint256"
						}
					],
					"stateMutability": "view",
					"type": "function"
				},
				{
					"inputs": [
						{
							"internalType": "uint256",
							"name": "newExpiration",
							"type": "uint256"
						}
					],
					"name": "extend",
					"outputs": [],
					"stateMutability": "nonpayable",
					"type": "function"
				},
				{
					"inputs": [],
					"name": "recipient",
					"outputs": [
						{
							"internalType": "address payable",
							"name": "",
							"type": "address"
						}
					],
					"stateMutability": "view",
					"type": "function"
				},
				{
					"inputs": [],
					"name": "sender",
					"outputs": [
						{
							"internalType": "address payable",
							"name": "",
							"type": "address"
						}
					],
					"stateMutability": "view",
					"type": "function"
				}
			],
			"devdoc": {
				"details": "A payment channel enables repeated transfers without transactions. The transfers are instantaneous and free. The nonce is not used in this contract because it only enables a single message. scripts/payment/create_payment_channel_signature.js is the JS interface to this contract. The payment channel can be closed by the recipient which destroys it and sends the funds, also the remaining funds are sent to the owner. Another feature of this contract is that only the recipient can close it, so the sender can not cheat the recipient out of what it is it. The sender can still reclaim its funds with the expiration feature.",
				"kind": "dev",
				"methods": {},
				"version": 1
			},
			"evm": {
				"assembly": "    /* \"contracts/payment/SimplePaymentChannel.sol\":813:3746  contract SimplePaymentChannel {... */\n  mstore(0x40, 0x80)\n    /* \"contracts/payment/SimplePaymentChannel.sol\":1086:1309  constructor (address payable recipientAddress, uint256 duration)... */\n  mload(0x40)\n  sub(codesize, bytecodeSize)\n  dup1\n  bytecodeSize\n  dup4\n  codecopy\n  dup2\n  dup2\n  add\n  0x40\n  mstore\n  dup2\n  add\n  swap1\n  tag_1\n  swap2\n  swap1\n  tag_2\n  jump\t// in\ntag_1:\n    /* \"contracts/payment/SimplePaymentChannel.sol\":1201:1211  msg.sender */\n  caller\n    /* \"contracts/payment/SimplePaymentChannel.sol\":1184:1190  sender */\n  0x00\n  dup1\n    /* \"contracts/payment/SimplePaymentChannel.sol\":1184:1212  sender = payable(msg.sender) */\n  0x0100\n  exp\n  dup2\n  sload\n  dup2\n  0xffffffffffffffffffffffffffffffffffffffff\n  mul\n  not\n  and\n  swap1\n  dup4\n  0xffffffffffffffffffffffffffffffffffffffff\n  and\n  mul\n  or\n  swap1\n  sstore\n  pop\n    /* \"contracts/payment/SimplePaymentChannel.sol\":1235:1251  recipientAddress */\n  dup2\n    /* \"contracts/payment/SimplePaymentChannel.sol\":1223:1232  recipient */\n  0x01\n  0x00\n    /* \"contracts/payment/SimplePaymentChannel.sol\":1223:1251  recipient = recipientAddress */\n  0x0100\n  exp\n  dup2\n  sload\n  dup2\n  0xffffffffffffffffffffffffffffffffffffffff\n  mul\n  not\n  and\n  swap1\n  dup4\n  0xffffffffffffffffffffffffffffffffffffffff\n  and\n  mul\n  or\n  swap1\n  sstore\n  pop\n    /* \"contracts/payment/SimplePaymentChannel.sol\":1293:1301  duration */\n  dup1\n    /* \"contracts/payment/SimplePaymentChannel.sol\":1275:1290  block.timestamp */\n  timestamp\n    /* \"contracts/payment/SimplePaymentChannel.sol\":1275:1301  block.timestamp + duration */\n  tag_5\n  swap2\n  swap1\n  tag_6\n  jump\t// in\ntag_5:\n    /* \"contracts/payment/SimplePaymentChannel.sol\":1262:1272  expiration */\n  0x02\n    /* \"contracts/payment/SimplePaymentChannel.sol\":1262:1301  expiration = block.timestamp + duration */\n  dup2\n  swap1\n  sstore\n  pop\n    /* \"contracts/payment/SimplePaymentChannel.sol\":1086:1309  constructor (address payable recipientAddress, uint256 duration)... */\n  pop\n  pop\n    /* \"contracts/payment/SimplePaymentChannel.sol\":813:3746  contract SimplePaymentChannel {... */\n  jump(tag_7)\n    /* \"#utility.yul\":88:205   */\ntag_9:\n    /* \"#utility.yul\":197:198   */\n  0x00\n    /* \"#utility.yul\":194:195   */\n  dup1\n    /* \"#utility.yul\":187:199   */\n  revert\n    /* \"#utility.yul\":334:460   */\ntag_11:\n    /* \"#utility.yul\":371:378   */\n  0x00\n    /* \"#utility.yul\":411:453   */\n  0xffffffffffffffffffffffffffffffffffffffff\n    /* \"#utility.yul\":404:409   */\n  dup3\n    /* \"#utility.yul\":400:454   */\n  and\n    /* \"#utility.yul\":389:454   */\n  swap1\n  pop\n    /* \"#utility.yul\":334:460   */\n  swap2\n  swap1\n  pop\n  jump\t// out\n    /* \"#utility.yul\":466:570   */\ntag_12:\n    /* \"#utility.yul\":511:518   */\n  0x00\n    /* \"#utility.yul\":540:564   */\n  tag_25\n    /* \"#utility.yul\":558:563   */\n  dup3\n    /* \"#utility.yul\":540:564   */\n  tag_11\n  jump\t// in\ntag_25:\n    /* \"#utility.yul\":529:564   */\n  swap1\n  pop\n    /* \"#utility.yul\":466:570   */\n  swap2\n  swap1\n  pop\n  jump\t// out\n    /* \"#utility.yul\":576:714   */\ntag_13:\n    /* \"#utility.yul\":657:689   */\n  tag_27\n    /* \"#utility.yul\":683:688   */\n  dup2\n    /* \"#utility.yul\":657:689   */\n  tag_12\n  jump\t// in\ntag_27:\n    /* \"#utility.yul\":650:655   */\n  dup2\n    /* \"#utility.yul\":647:690   */\n  eq\n    /* \"#utility.yul\":637:708   */\n  tag_28\n  jumpi\n    /* \"#utility.yul\":704:705   */\n  0x00\n    /* \"#utility.yul\":701:702   */\n  dup1\n    /* \"#utility.yul\":694:706   */\n  revert\n    /* \"#utility.yul\":637:708   */\ntag_28:\n    /* \"#utility.yul\":576:714   */\n  pop\n  jump\t// out\n    /* \"#utility.yul\":720:879   */\ntag_14:\n    /* \"#utility.yul\":785:790   */\n  0x00\n    /* \"#utility.yul\":816:822   */\n  dup2\n    /* \"#utility.yul\":810:823   */\n  mload\n    /* \"#utility.yul\":801:823   */\n  swap1\n  pop\n    /* \"#utility.yul\":832:873   */\n  tag_30\n    /* \"#utility.yul\":867:872   */\n  dup2\n    /* \"#utility.yul\":832:873   */\n  tag_13\n  jump\t// in\ntag_30:\n    /* \"#utility.yul\":720:879   */\n  swap3\n  swap2\n  pop\n  pop\n  jump\t// out\n    /* \"#utility.yul\":885:962   */\ntag_15:\n    /* \"#utility.yul\":922:929   */\n  0x00\n    /* \"#utility.yul\":951:956   */\n  dup2\n    /* \"#utility.yul\":940:956   */\n  swap1\n  pop\n    /* \"#utility.yul\":885:962   */\n  swap2\n  swap1\n  pop\n  jump\t// out\n    /* \"#utility.yul\":968:1090   */\ntag_16:\n    /* \"#utility.yul\":1041:1065   */\n  tag_33\n    /* \"#utility.yul\":1059:1064   */\n  dup2\n    /* \"#utility.yul\":1041:1065   */\n  tag_15\n  jump\t// in\ntag_33:\n    /* \"#utility.yul\":1034:1039   */\n  dup2\n    /* \"#utility.yul\":1031:1066   */\n  eq\n    /* \"#utility.yul\":1021:1084   */\n  tag_34\n  jumpi\n    /* \"#utility.yul\":1080:1081   */\n  0x00\n    /* \"#utility.yul\":1077:1078   */\n  dup1\n    /* \"#utility.yul\":1070:1082   */\n  revert\n    /* \"#utility.yul\":1021:1084   */\ntag_34:\n    /* \"#utility.yul\":968:1090   */\n  pop\n  jump\t// out\n    /* \"#utility.yul\":1096:1239   */\ntag_17:\n    /* \"#utility.yul\":1153:1158   */\n  0x00\n    /* \"#utility.yul\":1184:1190   */\n  dup2\n    /* \"#utility.yul\":1178:1191   */\n  mload\n    /* \"#utility.yul\":1169:1191   */\n  swap1\n  pop\n    /* \"#utility.yul\":1200:1233   */\n  tag_36\n    /* \"#utility.yul\":1227:1232   */\n  dup2\n    /* \"#utility.yul\":1200:1233   */\n  tag_16\n  jump\t// in\ntag_36:\n    /* \"#utility.yul\":1096:1239   */\n  swap3\n  swap2\n  pop\n  pop\n  jump\t// out\n    /* \"#utility.yul\":1245:1768   */\ntag_2:\n    /* \"#utility.yul\":1332:1338   */\n  0x00\n    /* \"#utility.yul\":1340:1346   */\n  dup1\n    /* \"#utility.yul\":1389:1391   */\n  0x40\n    /* \"#utility.yul\":1377:1386   */\n  dup4\n    /* \"#utility.yul\":1368:1375   */\n  dup6\n    /* \"#utility.yul\":1364:1387   */\n  sub\n    /* \"#utility.yul\":1360:1392   */\n  slt\n    /* \"#utility.yul\":1357:1476   */\n  iszero\n  tag_38\n  jumpi\n    /* \"#utility.yul\":1395:1474   */\n  tag_39\n  tag_9\n  jump\t// in\ntag_39:\n    /* \"#utility.yul\":1357:1476   */\ntag_38:\n    /* \"#utility.yul\":1515:1516   */\n  0x00\n    /* \"#utility.yul\":1540:1612   */\n  tag_40\n    /* \"#utility.yul\":1604:1611   */\n  dup6\n    /* \"#utility.yul\":1595:1601   */\n  dup3\n    /* \"#utility.yul\":1584:1593   */\n  dup7\n    /* \"#utility.yul\":1580:1602   */\n  add\n    /* \"#utility.yul\":1540:1612   */\n  tag_14\n  jump\t// in\ntag_40:\n    /* \"#utility.yul\":1530:1612   */\n  swap3\n  pop\n    /* \"#utility.yul\":1486:1622   */\n  pop\n    /* \"#utility.yul\":1661:1663   */\n  0x20\n    /* \"#utility.yul\":1687:1751   */\n  tag_41\n    /* \"#utility.yul\":1743:1750   */\n  dup6\n    /* \"#utility.yul\":1734:1740   */\n  dup3\n    /* \"#utility.yul\":1723:1732   */\n  dup7\n    /* \"#utility.yul\":1719:1741   */\n  add\n    /* \"#utility.yul\":1687:1751   */\n  tag_17\n  jump\t// in\ntag_41:\n    /* \"#utility.yul\":1677:1751   */\n  swap2\n  pop\n    /* \"#utility.yul\":1632:1761   */\n  pop\n    /* \"#utility.yul\":1245:1768   */\n  swap3\n  pop\n  swap3\n  swap1\n  pop\n  jump\t// out\n    /* \"#utility.yul\":1774:1954   */\ntag_18:\n    /* \"#utility.yul\":1822:1899   */\n  0x4e487b7100000000000000000000000000000000000000000000000000000000\n    /* \"#utility.yul\":1819:1820   */\n  0x00\n    /* \"#utility.yul\":1812:1900   */\n  mstore\n    /* \"#utility.yul\":1919:1923   */\n  0x11\n    /* \"#utility.yul\":1916:1917   */\n  0x04\n    /* \"#utility.yul\":1909:1924   */\n  mstore\n    /* \"#utility.yul\":1943:1947   */\n  0x24\n    /* \"#utility.yul\":1940:1941   */\n  0x00\n    /* \"#utility.yul\":1933:1948   */\n  revert\n    /* \"#utility.yul\":1960:2151   */\ntag_6:\n    /* \"#utility.yul\":2000:2003   */\n  0x00\n    /* \"#utility.yul\":2019:2039   */\n  tag_44\n    /* \"#utility.yul\":2037:2038   */\n  dup3\n    /* \"#utility.yul\":2019:2039   */\n  tag_15\n  jump\t// in\ntag_44:\n    /* \"#utility.yul\":2014:2039   */\n  swap2\n  pop\n    /* \"#utility.yul\":2053:2073   */\n  tag_45\n    /* \"#utility.yul\":2071:2072   */\n  dup4\n    /* \"#utility.yul\":2053:2073   */\n  tag_15\n  jump\t// in\ntag_45:\n    /* \"#utility.yul\":2048:2073   */\n  swap3\n  pop\n    /* \"#utility.yul\":2096:2097   */\n  dup3\n    /* \"#utility.yul\":2093:2094   */\n  dup3\n    /* \"#utility.yul\":2089:2098   */\n  add\n    /* \"#utility.yul\":2082:2098   */\n  swap1\n  pop\n    /* \"#utility.yul\":2117:2120   */\n  dup1\n    /* \"#utility.yul\":2114:2115   */\n  dup3\n    /* \"#utility.yul\":2111:2121   */\n  gt\n    /* \"#utility.yul\":2108:2144   */\n  iszero\n  tag_46\n  jumpi\n    /* \"#utility.yul\":2124:2142   */\n  tag_47\n  tag_18\n  jump\t// in\ntag_47:\n    /* \"#utility.yul\":2108:2144   */\ntag_46:\n    /* \"#utility.yul\":1960:2151   */\n  swap3\n  swap2\n  pop\n  pop\n  jump\t// out\n    /* \"contracts/payment/SimplePaymentChannel.sol\":813:3746  contract SimplePaymentChannel {... */\ntag_7:\n  dataSize(sub_0)\n  dup1\n  dataOffset(sub_0)\n  0x00\n  codecopy\n  0x00\n  return\nstop\n\nsub_0: assembly {\n        /* \"contracts/payment/SimplePaymentChannel.sol\":813:3746  contract SimplePaymentChannel {... */\n      mstore(0x40, 0x80)\n      callvalue\n      dup1\n      iszero\n      tag_1\n      jumpi\n      0x00\n      dup1\n      revert\n    tag_1:\n      pop\n      jumpi(tag_2, lt(calldatasize, 0x04))\n      shr(0xe0, calldataload(0x00))\n      dup1\n      0x0e1da6c3\n      eq\n      tag_3\n      jumpi\n      dup1\n      0x415ffba7\n      eq\n      tag_4\n      jumpi\n      dup1\n      0x4665096d\n      eq\n      tag_5\n      jumpi\n      dup1\n      0x66d003ac\n      eq\n      tag_6\n      jumpi\n      dup1\n      0x67e404ce\n      eq\n      tag_7\n      jumpi\n      dup1\n      0x9714378c\n      eq\n      tag_8\n      jumpi\n    tag_2:\n      0x00\n      dup1\n      revert\n        /* \"contracts/payment/SimplePaymentChannel.sol\":2153:2274  function claimTimeout() external {... */\n    tag_3:\n      tag_9\n      tag_10\n      jump\t// in\n    tag_9:\n      stop\n        /* \"contracts/payment/SimplePaymentChannel.sol\":1524:1764  function close(uint256 amount, bytes memory signature) external {... */\n    tag_4:\n      tag_11\n      0x04\n      dup1\n      calldatasize\n      sub\n      dup2\n      add\n      swap1\n      tag_12\n      swap2\n      swap1\n      tag_13\n      jump\t// in\n    tag_12:\n      tag_14\n      jump\t// in\n    tag_11:\n      stop\n        /* \"contracts/payment/SimplePaymentChannel.sol\":1004:1029  uint256 public expiration */\n    tag_5:\n      tag_15\n      tag_16\n      jump\t// in\n    tag_15:\n      mload(0x40)\n      tag_17\n      swap2\n      swap1\n      tag_18\n      jump\t// in\n    tag_17:\n      mload(0x40)\n      dup1\n      swap2\n      sub\n      swap1\n      return\n        /* \"contracts/payment/SimplePaymentChannel.sol\":924:956  address payable public recipient */\n    tag_6:\n      tag_19\n      tag_20\n      jump\t// in\n    tag_19:\n      mload(0x40)\n      tag_21\n      swap2\n      swap1\n      tag_22\n      jump\t// in\n    tag_21:\n      mload(0x40)\n      dup1\n      swap2\n      sub\n      swap1\n      return\n        /* \"contracts/payment/SimplePaymentChannel.sol\":850:879  address payable public sender */\n    tag_7:\n      tag_23\n      tag_24\n      jump\t// in\n    tag_23:\n      mload(0x40)\n      tag_25\n      swap2\n      swap1\n      tag_22\n      jump\t// in\n    tag_25:\n      mload(0x40)\n      dup1\n      swap2\n      sub\n      swap1\n      return\n        /* \"contracts/payment/SimplePaymentChannel.sol\":1830:2011  function extend(uint256 newExpiration) external {... */\n    tag_8:\n      tag_26\n      0x04\n      dup1\n      calldatasize\n      sub\n      dup2\n      add\n      swap1\n      tag_27\n      swap2\n      swap1\n      tag_28\n      jump\t// in\n    tag_27:\n      tag_29\n      jump\t// in\n    tag_26:\n      stop\n        /* \"contracts/payment/SimplePaymentChannel.sol\":2153:2274  function claimTimeout() external {... */\n    tag_10:\n        /* \"contracts/payment/SimplePaymentChannel.sol\":2224:2234  expiration */\n      sload(0x02)\n        /* \"contracts/payment/SimplePaymentChannel.sol\":2205:2220  block.timestamp */\n      timestamp\n        /* \"contracts/payment/SimplePaymentChannel.sol\":2205:2234  block.timestamp >= expiration */\n      lt\n      iszero\n        /* \"contracts/payment/SimplePaymentChannel.sol\":2197:2235  require(block.timestamp >= expiration) */\n      tag_31\n      jumpi\n      0x00\n      dup1\n      revert\n    tag_31:\n        /* \"contracts/payment/SimplePaymentChannel.sol\":2259:2265  sender */\n      0x00\n      dup1\n      sload\n      swap1\n      0x0100\n      exp\n      swap1\n      div\n      0xffffffffffffffffffffffffffffffffffffffff\n      and\n        /* \"contracts/payment/SimplePaymentChannel.sol\":2246:2266  selfdestruct(sender) */\n      0xffffffffffffffffffffffffffffffffffffffff\n      and\n      selfdestruct\n        /* \"contracts/payment/SimplePaymentChannel.sol\":1524:1764  function close(uint256 amount, bytes memory signature) external {... */\n    tag_14:\n        /* \"contracts/payment/SimplePaymentChannel.sol\":1621:1630  recipient */\n      0x01\n      0x00\n      swap1\n      sload\n      swap1\n      0x0100\n      exp\n      swap1\n      div\n      0xffffffffffffffffffffffffffffffffffffffff\n      and\n        /* \"contracts/payment/SimplePaymentChannel.sol\":1607:1630  msg.sender == recipient */\n      0xffffffffffffffffffffffffffffffffffffffff\n      and\n        /* \"contracts/payment/SimplePaymentChannel.sol\":1607:1617  msg.sender */\n      caller\n        /* \"contracts/payment/SimplePaymentChannel.sol\":1607:1630  msg.sender == recipient */\n      0xffffffffffffffffffffffffffffffffffffffff\n      and\n      eq\n        /* \"contracts/payment/SimplePaymentChannel.sol\":1599:1631  require(msg.sender == recipient) */\n      tag_33\n      jumpi\n      0x00\n      dup1\n      revert\n    tag_33:\n        /* \"contracts/payment/SimplePaymentChannel.sol\":1650:1685  isValidSignature(amount, signature) */\n      tag_34\n        /* \"contracts/payment/SimplePaymentChannel.sol\":1667:1673  amount */\n      dup3\n        /* \"contracts/payment/SimplePaymentChannel.sol\":1675:1684  signature */\n      dup3\n        /* \"contracts/payment/SimplePaymentChannel.sol\":1650:1666  isValidSignature */\n      tag_35\n        /* \"contracts/payment/SimplePaymentChannel.sol\":1650:1685  isValidSignature(amount, signature) */\n      jump\t// in\n    tag_34:\n        /* \"contracts/payment/SimplePaymentChannel.sol\":1642:1686  require(isValidSignature(amount, signature)) */\n      tag_36\n      jumpi\n      0x00\n      dup1\n      revert\n    tag_36:\n        /* \"contracts/payment/SimplePaymentChannel.sol\":1699:1708  recipient */\n      0x01\n      0x00\n      swap1\n      sload\n      swap1\n      0x0100\n      exp\n      swap1\n      div\n      0xffffffffffffffffffffffffffffffffffffffff\n      and\n        /* \"contracts/payment/SimplePaymentChannel.sol\":1699:1717  recipient.transfer */\n      0xffffffffffffffffffffffffffffffffffffffff\n      and\n        /* \"contracts/payment/SimplePaymentChannel.sol\":1699:1725  recipient.transfer(amount) */\n      0x08fc\n        /* \"contracts/payment/SimplePaymentChannel.sol\":1718:1724  amount */\n      dup4\n        /* \"contracts/payment/SimplePaymentChannel.sol\":1699:1725  recipient.transfer(amount) */\n      swap1\n      dup2\n      iszero\n      mul\n      swap1\n      mload(0x40)\n      0x00\n      mload(0x40)\n      dup1\n      dup4\n      sub\n      dup2\n      dup6\n      dup9\n      dup9\n      call\n      swap4\n      pop\n      pop\n      pop\n      pop\n      iszero\n      dup1\n      iszero\n      tag_38\n      jumpi\n      returndatasize\n      0x00\n      dup1\n      returndatacopy\n      revert(0x00, returndatasize)\n    tag_38:\n      pop\n        /* \"contracts/payment/SimplePaymentChannel.sol\":1749:1755  sender */\n      0x00\n      dup1\n      sload\n      swap1\n      0x0100\n      exp\n      swap1\n      div\n      0xffffffffffffffffffffffffffffffffffffffff\n      and\n        /* \"contracts/payment/SimplePaymentChannel.sol\":1736:1756  selfdestruct(sender) */\n      0xffffffffffffffffffffffffffffffffffffffff\n      and\n      selfdestruct\n        /* \"contracts/payment/SimplePaymentChannel.sol\":1004:1029  uint256 public expiration */\n    tag_16:\n      sload(0x02)\n      dup2\n      jump\t// out\n        /* \"contracts/payment/SimplePaymentChannel.sol\":924:956  address payable public recipient */\n    tag_20:\n      0x01\n      0x00\n      swap1\n      sload\n      swap1\n      0x0100\n      exp\n      swap1\n      div\n      0xffffffffffffffffffffffffffffffffffffffff\n      and\n      dup2\n      jump\t// out\n        /* \"contracts/payment/SimplePaymentChannel.sol\":850:879  address payable public sender */\n    tag_24:\n      0x00\n      dup1\n      sload\n      swap1\n      0x0100\n      exp\n      swap1\n      div\n      0xffffffffffffffffffffffffffffffffffffffff\n      and\n      dup2\n      jump\t// out\n        /* \"contracts/payment/SimplePaymentChannel.sol\":1830:2011  function extend(uint256 newExpiration) external {... */\n    tag_29:\n        /* \"contracts/payment/SimplePaymentChannel.sol\":1911:1917  sender */\n      0x00\n      dup1\n      sload\n      swap1\n      0x0100\n      exp\n      swap1\n      div\n      0xffffffffffffffffffffffffffffffffffffffff\n      and\n        /* \"contracts/payment/SimplePaymentChannel.sol\":1897:1917  msg.sender == sender */\n      0xffffffffffffffffffffffffffffffffffffffff\n      and\n        /* \"contracts/payment/SimplePaymentChannel.sol\":1897:1907  msg.sender */\n      caller\n        /* \"contracts/payment/SimplePaymentChannel.sol\":1897:1917  msg.sender == sender */\n      0xffffffffffffffffffffffffffffffffffffffff\n      and\n      eq\n        /* \"contracts/payment/SimplePaymentChannel.sol\":1889:1918  require(msg.sender == sender) */\n      tag_40\n      jumpi\n      0x00\n      dup1\n      revert\n    tag_40:\n        /* \"contracts/payment/SimplePaymentChannel.sol\":1953:1963  expiration */\n      sload(0x02)\n        /* \"contracts/payment/SimplePaymentChannel.sol\":1937:1950  newExpiration */\n      dup2\n        /* \"contracts/payment/SimplePaymentChannel.sol\":1937:1963  newExpiration > expiration */\n      gt\n        /* \"contracts/payment/SimplePaymentChannel.sol\":1929:1964  require(newExpiration > expiration) */\n      tag_41\n      jumpi\n      0x00\n      dup1\n      revert\n    tag_41:\n        /* \"contracts/payment/SimplePaymentChannel.sol\":1990:2003  newExpiration */\n      dup1\n        /* \"contracts/payment/SimplePaymentChannel.sol\":1977:1987  expiration */\n      0x02\n        /* \"contracts/payment/SimplePaymentChannel.sol\":1977:2003  expiration = newExpiration */\n      dup2\n      swap1\n      sstore\n      pop\n        /* \"contracts/payment/SimplePaymentChannel.sol\":1830:2011  function extend(uint256 newExpiration) external {... */\n      pop\n      jump\t// out\n        /* \"contracts/payment/SimplePaymentChannel.sol\":2282:2624  function isValidSignature(uint256 amount, bytes memory signature)... */\n    tag_35:\n        /* \"contracts/payment/SimplePaymentChannel.sol\":2398:2402  bool */\n      0x00\n        /* \"contracts/payment/SimplePaymentChannel.sol\":2420:2435  bytes32 message */\n      dup1\n        /* \"contracts/payment/SimplePaymentChannel.sol\":2438:2489  prefixed(keccak256(abi.encodePacked(this, amount))) */\n      tag_43\n        /* \"contracts/payment/SimplePaymentChannel.sol\":2474:2478  this */\n      address\n        /* \"contracts/payment/SimplePaymentChannel.sol\":2480:2486  amount */\n      dup6\n        /* \"contracts/payment/SimplePaymentChannel.sol\":2457:2487  abi.encodePacked(this, amount) */\n      add(0x20, mload(0x40))\n      tag_44\n      swap3\n      swap2\n      swap1\n      tag_45\n      jump\t// in\n    tag_44:\n      mload(0x40)\n      0x20\n      dup2\n      dup4\n      sub\n      sub\n      dup2\n      mstore\n      swap1\n      0x40\n      mstore\n        /* \"contracts/payment/SimplePaymentChannel.sol\":2447:2488  keccak256(abi.encodePacked(this, amount)) */\n      dup1\n      mload\n      swap1\n      0x20\n      add\n      keccak256\n        /* \"contracts/payment/SimplePaymentChannel.sol\":2438:2446  prefixed */\n      tag_46\n        /* \"contracts/payment/SimplePaymentChannel.sol\":2438:2489  prefixed(keccak256(abi.encodePacked(this, amount))) */\n      jump\t// in\n    tag_43:\n        /* \"contracts/payment/SimplePaymentChannel.sol\":2420:2489  bytes32 message = prefixed(keccak256(abi.encodePacked(this, amount))) */\n      swap1\n      pop\n        /* \"contracts/payment/SimplePaymentChannel.sol\":2610:2616  sender */\n      0x00\n      dup1\n      sload\n      swap1\n      0x0100\n      exp\n      swap1\n      div\n      0xffffffffffffffffffffffffffffffffffffffff\n      and\n        /* \"contracts/payment/SimplePaymentChannel.sol\":2573:2616  recoverSigner(message, signature) == sender */\n      0xffffffffffffffffffffffffffffffffffffffff\n      and\n        /* \"contracts/payment/SimplePaymentChannel.sol\":2573:2606  recoverSigner(message, signature) */\n      tag_47\n        /* \"contracts/payment/SimplePaymentChannel.sol\":2587:2594  message */\n      dup3\n        /* \"contracts/payment/SimplePaymentChannel.sol\":2596:2605  signature */\n      dup6\n        /* \"contracts/payment/SimplePaymentChannel.sol\":2573:2586  recoverSigner */\n      tag_48\n        /* \"contracts/payment/SimplePaymentChannel.sol\":2573:2606  recoverSigner(message, signature) */\n      jump\t// in\n    tag_47:\n        /* \"contracts/payment/SimplePaymentChannel.sol\":2573:2616  recoverSigner(message, signature) == sender */\n      0xffffffffffffffffffffffffffffffffffffffff\n      and\n      eq\n        /* \"contracts/payment/SimplePaymentChannel.sol\":2566:2616  return recoverSigner(message, signature) == sender */\n      swap2\n      pop\n      pop\n        /* \"contracts/payment/SimplePaymentChannel.sol\":2282:2624  function isValidSignature(uint256 amount, bytes memory signature)... */\n      swap3\n      swap2\n      pop\n      pop\n      jump\t// out\n        /* \"contracts/payment/SimplePaymentChannel.sol\":3584:3743  function prefixed(bytes32 hash) internal pure returns (bytes32) {... */\n    tag_46:\n        /* \"contracts/payment/SimplePaymentChannel.sol\":3639:3646  bytes32 */\n      0x00\n        /* \"contracts/payment/SimplePaymentChannel.sol\":3729:3733  hash */\n      dup2\n        /* \"contracts/payment/SimplePaymentChannel.sol\":3676:3734  abi.encodePacked(\"\\x19Ethereum Signed Message:\\n32\", hash) */\n      add(0x20, mload(0x40))\n      tag_50\n      swap2\n      swap1\n      tag_51\n      jump\t// in\n    tag_50:\n      mload(0x40)\n      0x20\n      dup2\n      dup4\n      sub\n      sub\n      dup2\n      mstore\n      swap1\n      0x40\n      mstore\n        /* \"contracts/payment/SimplePaymentChannel.sol\":3666:3735  keccak256(abi.encodePacked(\"\\x19Ethereum Signed Message:\\n32\", hash)) */\n      dup1\n      mload\n      swap1\n      0x20\n      add\n      keccak256\n        /* \"contracts/payment/SimplePaymentChannel.sol\":3659:3735  return keccak256(abi.encodePacked(\"\\x19Ethereum Signed Message:\\n32\", hash)) */\n      swap1\n      pop\n        /* \"contracts/payment/SimplePaymentChannel.sol\":3584:3743  function prefixed(bytes32 hash) internal pure returns (bytes32) {... */\n      swap2\n      swap1\n      pop\n      jump\t// out\n        /* \"contracts/payment/SimplePaymentChannel.sol\":3268:3509  function recoverSigner(bytes32 message, bytes memory sig)... */\n    tag_48:\n        /* \"contracts/payment/SimplePaymentChannel.sol\":3376:3383  address */\n      0x00\n        /* \"contracts/payment/SimplePaymentChannel.sol\":3402:3409  uint8 v */\n      dup1\n        /* \"contracts/payment/SimplePaymentChannel.sol\":3411:3420  bytes32 r */\n      0x00\n        /* \"contracts/payment/SimplePaymentChannel.sol\":3422:3431  bytes32 s */\n      dup1\n        /* \"contracts/payment/SimplePaymentChannel.sol\":3435:3454  splitSignature(sig) */\n      tag_53\n        /* \"contracts/payment/SimplePaymentChannel.sol\":3450:3453  sig */\n      dup6\n        /* \"contracts/payment/SimplePaymentChannel.sol\":3435:3449  splitSignature */\n      tag_54\n        /* \"contracts/payment/SimplePaymentChannel.sol\":3435:3454  splitSignature(sig) */\n      jump\t// in\n    tag_53:\n        /* \"contracts/payment/SimplePaymentChannel.sol\":3401:3454  (uint8 v, bytes32 r, bytes32 s) = splitSignature(sig) */\n      swap3\n      pop\n      swap3\n      pop\n      swap3\n      pop\n        /* \"contracts/payment/SimplePaymentChannel.sol\":3474:3501  ecrecover(message, v, r, s) */\n      0x01\n        /* \"contracts/payment/SimplePaymentChannel.sol\":3484:3491  message */\n      dup7\n        /* \"contracts/payment/SimplePaymentChannel.sol\":3493:3494  v */\n      dup5\n        /* \"contracts/payment/SimplePaymentChannel.sol\":3496:3497  r */\n      dup5\n        /* \"contracts/payment/SimplePaymentChannel.sol\":3499:3500  s */\n      dup5\n        /* \"contracts/payment/SimplePaymentChannel.sol\":3474:3501  ecrecover(message, v, r, s) */\n      mload(0x40)\n      0x00\n      dup2\n      mstore\n      0x20\n      add\n      0x40\n      mstore\n      mload(0x40)\n      tag_55\n      swap5\n      swap4\n      swap3\n      swap2\n      swap1\n      tag_56\n      jump\t// in\n    tag_55:\n      0x20\n      mload(0x40)\n      0x20\n      dup2\n      sub\n      swap1\n      dup1\n      dup5\n      sub\n      swap1\n      dup6\n      gas\n      staticcall\n      iszero\n      dup1\n      iszero\n      tag_58\n      jumpi\n      returndatasize\n      0x00\n      dup1\n      returndatacopy\n      revert(0x00, returndatasize)\n    tag_58:\n      pop\n      pop\n      pop\n      mload(sub(mload(0x40), 0x20))\n        /* \"contracts/payment/SimplePaymentChannel.sol\":3467:3501  return ecrecover(message, v, r, s) */\n      swap4\n      pop\n      pop\n      pop\n      pop\n        /* \"contracts/payment/SimplePaymentChannel.sol\":3268:3509  function recoverSigner(bytes32 message, bytes memory sig)... */\n      swap3\n      swap2\n      pop\n      pop\n      jump\t// out\n        /* \"contracts/payment/SimplePaymentChannel.sol\":2754:3260  function splitSignature(bytes memory sig)... */\n    tag_54:\n        /* \"contracts/payment/SimplePaymentChannel.sol\":2846:2853  uint8 v */\n      0x00\n        /* \"contracts/payment/SimplePaymentChannel.sol\":2855:2864  bytes32 r */\n      dup1\n        /* \"contracts/payment/SimplePaymentChannel.sol\":2866:2875  bytes32 s */\n      0x00\n        /* \"contracts/payment/SimplePaymentChannel.sol\":2915:2917  65 */\n      0x41\n        /* \"contracts/payment/SimplePaymentChannel.sol\":2901:2904  sig */\n      dup5\n        /* \"contracts/payment/SimplePaymentChannel.sol\":2901:2911  sig.length */\n      mload\n        /* \"contracts/payment/SimplePaymentChannel.sol\":2901:2917  sig.length == 65 */\n      eq\n        /* \"contracts/payment/SimplePaymentChannel.sol\":2893:2918  require(sig.length == 65) */\n      tag_60\n      jumpi\n      0x00\n      dup1\n      revert\n    tag_60:\n        /* \"contracts/payment/SimplePaymentChannel.sol\":3031:3033  32 */\n      0x20\n        /* \"contracts/payment/SimplePaymentChannel.sol\":3026:3029  sig */\n      dup5\n        /* \"contracts/payment/SimplePaymentChannel.sol\":3022:3034  add(sig, 32) */\n      add\n        /* \"contracts/payment/SimplePaymentChannel.sol\":3016:3035  mload(add(sig, 32)) */\n      mload\n        /* \"contracts/payment/SimplePaymentChannel.sol\":3011:3035  r := mload(add(sig, 32)) */\n      swap2\n      pop\n        /* \"contracts/payment/SimplePaymentChannel.sol\":3101:3103  64 */\n      0x40\n        /* \"contracts/payment/SimplePaymentChannel.sol\":3096:3099  sig */\n      dup5\n        /* \"contracts/payment/SimplePaymentChannel.sol\":3092:3104  add(sig, 64) */\n      add\n        /* \"contracts/payment/SimplePaymentChannel.sol\":3086:3105  mload(add(sig, 64)) */\n      mload\n        /* \"contracts/payment/SimplePaymentChannel.sol\":3081:3105  s := mload(add(sig, 64)) */\n      swap1\n      pop\n        /* \"contracts/payment/SimplePaymentChannel.sol\":3208:3210  96 */\n      0x60\n        /* \"contracts/payment/SimplePaymentChannel.sol\":3203:3206  sig */\n      dup5\n        /* \"contracts/payment/SimplePaymentChannel.sol\":3199:3211  add(sig, 96) */\n      add\n        /* \"contracts/payment/SimplePaymentChannel.sol\":3193:3212  mload(add(sig, 96)) */\n      mload\n        /* \"contracts/payment/SimplePaymentChannel.sol\":3190:3191  0 */\n      0x00\n        /* \"contracts/payment/SimplePaymentChannel.sol\":3185:3213  byte(0, mload(add(sig, 96))) */\n      byte\n        /* \"contracts/payment/SimplePaymentChannel.sol\":3180:3213  v := byte(0, mload(add(sig, 96))) */\n      swap3\n      pop\n        /* \"contracts/payment/SimplePaymentChannel.sol\":2754:3260  function splitSignature(bytes memory sig)... */\n      swap2\n      swap4\n      swap1\n      swap3\n      pop\n      jump\t// out\n        /* \"#utility.yul\":7:82   */\n    tag_61:\n        /* \"#utility.yul\":40:46   */\n      0x00\n        /* \"#utility.yul\":73:75   */\n      0x40\n        /* \"#utility.yul\":67:76   */\n      mload\n        /* \"#utility.yul\":57:76   */\n      swap1\n      pop\n        /* \"#utility.yul\":7:82   */\n      swap1\n      jump\t// out\n        /* \"#utility.yul\":88:205   */\n    tag_62:\n        /* \"#utility.yul\":197:198   */\n      0x00\n        /* \"#utility.yul\":194:195   */\n      dup1\n        /* \"#utility.yul\":187:199   */\n      revert\n        /* \"#utility.yul\":211:328   */\n    tag_63:\n        /* \"#utility.yul\":320:321   */\n      0x00\n        /* \"#utility.yul\":317:318   */\n      dup1\n        /* \"#utility.yul\":310:322   */\n      revert\n        /* \"#utility.yul\":334:411   */\n    tag_64:\n        /* \"#utility.yul\":371:378   */\n      0x00\n        /* \"#utility.yul\":400:405   */\n      dup2\n        /* \"#utility.yul\":389:405   */\n      swap1\n      pop\n        /* \"#utility.yul\":334:411   */\n      swap2\n      swap1\n      pop\n      jump\t// out\n        /* \"#utility.yul\":417:539   */\n    tag_65:\n        /* \"#utility.yul\":490:514   */\n      tag_106\n        /* \"#utility.yul\":508:513   */\n      dup2\n        /* \"#utility.yul\":490:514   */\n      tag_64\n      jump\t// in\n    tag_106:\n        /* \"#utility.yul\":483:488   */\n      dup2\n        /* \"#utility.yul\":480:515   */\n      eq\n        /* \"#utility.yul\":470:533   */\n      tag_107\n      jumpi\n        /* \"#utility.yul\":529:530   */\n      0x00\n        /* \"#utility.yul\":526:527   */\n      dup1\n        /* \"#utility.yul\":519:531   */\n      revert\n        /* \"#utility.yul\":470:533   */\n    tag_107:\n        /* \"#utility.yul\":417:539   */\n      pop\n      jump\t// out\n        /* \"#utility.yul\":545:684   */\n    tag_66:\n        /* \"#utility.yul\":591:596   */\n      0x00\n        /* \"#utility.yul\":629:635   */\n      dup2\n        /* \"#utility.yul\":616:636   */\n      calldataload\n        /* \"#utility.yul\":607:636   */\n      swap1\n      pop\n        /* \"#utility.yul\":645:678   */\n      tag_109\n        /* \"#utility.yul\":672:677   */\n      dup2\n        /* \"#utility.yul\":645:678   */\n      tag_65\n      jump\t// in\n    tag_109:\n        /* \"#utility.yul\":545:684   */\n      swap3\n      swap2\n      pop\n      pop\n      jump\t// out\n        /* \"#utility.yul\":690:807   */\n    tag_67:\n        /* \"#utility.yul\":799:800   */\n      0x00\n        /* \"#utility.yul\":796:797   */\n      dup1\n        /* \"#utility.yul\":789:801   */\n      revert\n        /* \"#utility.yul\":813:930   */\n    tag_68:\n        /* \"#utility.yul\":922:923   */\n      0x00\n        /* \"#utility.yul\":919:920   */\n      dup1\n        /* \"#utility.yul\":912:924   */\n      revert\n        /* \"#utility.yul\":936:1038   */\n    tag_69:\n        /* \"#utility.yul\":977:983   */\n      0x00\n        /* \"#utility.yul\":1028:1030   */\n      0x1f\n        /* \"#utility.yul\":1024:1031   */\n      not\n        /* \"#utility.yul\":1019:1021   */\n      0x1f\n        /* \"#utility.yul\":1012:1017   */\n      dup4\n        /* \"#utility.yul\":1008:1022   */\n      add\n        /* \"#utility.yul\":1004:1032   */\n      and\n        /* \"#utility.yul\":994:1032   */\n      swap1\n      pop\n        /* \"#utility.yul\":936:1038   */\n      swap2\n      swap1\n      pop\n      jump\t// out\n        /* \"#utility.yul\":1044:1224   */\n    tag_70:\n        /* \"#utility.yul\":1092:1169   */\n      0x4e487b7100000000000000000000000000000000000000000000000000000000\n        /* \"#utility.yul\":1089:1090   */\n      0x00\n        /* \"#utility.yul\":1082:1170   */\n      mstore\n        /* \"#utility.yul\":1189:1193   */\n      0x41\n        /* \"#utility.yul\":1186:1187   */\n      0x04\n        /* \"#utility.yul\":1179:1194   */\n      mstore\n        /* \"#utility.yul\":1213:1217   */\n      0x24\n        /* \"#utility.yul\":1210:1211   */\n      0x00\n        /* \"#utility.yul\":1203:1218   */\n      revert\n        /* \"#utility.yul\":1230:1511   */\n    tag_71:\n        /* \"#utility.yul\":1313:1340   */\n      tag_115\n        /* \"#utility.yul\":1335:1339   */\n      dup3\n        /* \"#utility.yul\":1313:1340   */\n      tag_69\n      jump\t// in\n    tag_115:\n        /* \"#utility.yul\":1305:1311   */\n      dup2\n        /* \"#utility.yul\":1301:1341   */\n      add\n        /* \"#utility.yul\":1443:1449   */\n      dup2\n        /* \"#utility.yul\":1431:1441   */\n      dup2\n        /* \"#utility.yul\":1428:1450   */\n      lt\n        /* \"#utility.yul\":1407:1425   */\n      0xffffffffffffffff\n        /* \"#utility.yul\":1395:1405   */\n      dup3\n        /* \"#utility.yul\":1392:1426   */\n      gt\n        /* \"#utility.yul\":1389:1451   */\n      or\n        /* \"#utility.yul\":1386:1474   */\n      iszero\n      tag_116\n      jumpi\n        /* \"#utility.yul\":1454:1472   */\n      tag_117\n      tag_70\n      jump\t// in\n    tag_117:\n        /* \"#utility.yul\":1386:1474   */\n    tag_116:\n        /* \"#utility.yul\":1494:1504   */\n      dup1\n        /* \"#utility.yul\":1490:1492   */\n      0x40\n        /* \"#utility.yul\":1483:1505   */\n      mstore\n        /* \"#utility.yul\":1273:1511   */\n      pop\n        /* \"#utility.yul\":1230:1511   */\n      pop\n      pop\n      jump\t// out\n        /* \"#utility.yul\":1517:1646   */\n    tag_72:\n        /* \"#utility.yul\":1551:1557   */\n      0x00\n        /* \"#utility.yul\":1578:1598   */\n      tag_119\n      tag_61\n      jump\t// in\n    tag_119:\n        /* \"#utility.yul\":1568:1598   */\n      swap1\n      pop\n        /* \"#utility.yul\":1607:1640   */\n      tag_120\n        /* \"#utility.yul\":1635:1639   */\n      dup3\n        /* \"#utility.yul\":1627:1633   */\n      dup3\n        /* \"#utility.yul\":1607:1640   */\n      tag_71\n      jump\t// in\n    tag_120:\n        /* \"#utility.yul\":1517:1646   */\n      swap2\n      swap1\n      pop\n      jump\t// out\n        /* \"#utility.yul\":1652:1959   */\n    tag_73:\n        /* \"#utility.yul\":1713:1717   */\n      0x00\n        /* \"#utility.yul\":1803:1821   */\n      0xffffffffffffffff\n        /* \"#utility.yul\":1795:1801   */\n      dup3\n        /* \"#utility.yul\":1792:1822   */\n      gt\n        /* \"#utility.yul\":1789:1845   */\n      iszero\n      tag_122\n      jumpi\n        /* \"#utility.yul\":1825:1843   */\n      tag_123\n      tag_70\n      jump\t// in\n    tag_123:\n        /* \"#utility.yul\":1789:1845   */\n    tag_122:\n        /* \"#utility.yul\":1863:1892   */\n      tag_124\n        /* \"#utility.yul\":1885:1891   */\n      dup3\n        /* \"#utility.yul\":1863:1892   */\n      tag_69\n      jump\t// in\n    tag_124:\n        /* \"#utility.yul\":1855:1892   */\n      swap1\n      pop\n        /* \"#utility.yul\":1947:1951   */\n      0x20\n        /* \"#utility.yul\":1941:1945   */\n      dup2\n        /* \"#utility.yul\":1937:1952   */\n      add\n        /* \"#utility.yul\":1929:1952   */\n      swap1\n      pop\n        /* \"#utility.yul\":1652:1959   */\n      swap2\n      swap1\n      pop\n      jump\t// out\n        /* \"#utility.yul\":1965:2111   */\n    tag_74:\n        /* \"#utility.yul\":2062:2068   */\n      dup3\n        /* \"#utility.yul\":2057:2060   */\n      dup2\n        /* \"#utility.yul\":2052:2055   */\n      dup4\n        /* \"#utility.yul\":2039:2069   */\n      calldatacopy\n        /* \"#utility.yul\":2103:2104   */\n      0x00\n        /* \"#utility.yul\":2094:2100   */\n      dup4\n        /* \"#utility.yul\":2089:2092   */\n      dup4\n        /* \"#utility.yul\":2085:2101   */\n      add\n        /* \"#utility.yul\":2078:2105   */\n      mstore\n        /* \"#utility.yul\":1965:2111   */\n      pop\n      pop\n      pop\n      jump\t// out\n        /* \"#utility.yul\":2117:2540   */\n    tag_75:\n        /* \"#utility.yul\":2194:2199   */\n      0x00\n        /* \"#utility.yul\":2219:2284   */\n      tag_127\n        /* \"#utility.yul\":2235:2283   */\n      tag_128\n        /* \"#utility.yul\":2276:2282   */\n      dup5\n        /* \"#utility.yul\":2235:2283   */\n      tag_73\n      jump\t// in\n    tag_128:\n        /* \"#utility.yul\":2219:2284   */\n      tag_72\n      jump\t// in\n    tag_127:\n        /* \"#utility.yul\":2210:2284   */\n      swap1\n      pop\n        /* \"#utility.yul\":2307:2313   */\n      dup3\n        /* \"#utility.yul\":2300:2305   */\n      dup2\n        /* \"#utility.yul\":2293:2314   */\n      mstore\n        /* \"#utility.yul\":2345:2349   */\n      0x20\n        /* \"#utility.yul\":2338:2343   */\n      dup2\n        /* \"#utility.yul\":2334:2350   */\n      add\n        /* \"#utility.yul\":2383:2386   */\n      dup5\n        /* \"#utility.yul\":2374:2380   */\n      dup5\n        /* \"#utility.yul\":2369:2372   */\n      dup5\n        /* \"#utility.yul\":2365:2381   */\n      add\n        /* \"#utility.yul\":2362:2387   */\n      gt\n        /* \"#utility.yul\":2359:2471   */\n      iszero\n      tag_129\n      jumpi\n        /* \"#utility.yul\":2390:2469   */\n      tag_130\n      tag_68\n      jump\t// in\n    tag_130:\n        /* \"#utility.yul\":2359:2471   */\n    tag_129:\n        /* \"#utility.yul\":2480:2534   */\n      tag_131\n        /* \"#utility.yul\":2527:2533   */\n      dup5\n        /* \"#utility.yul\":2522:2525   */\n      dup3\n        /* \"#utility.yul\":2517:2520   */\n      dup6\n        /* \"#utility.yul\":2480:2534   */\n      tag_74\n      jump\t// in\n    tag_131:\n        /* \"#utility.yul\":2200:2540   */\n      pop\n        /* \"#utility.yul\":2117:2540   */\n      swap4\n      swap3\n      pop\n      pop\n      pop\n      jump\t// out\n        /* \"#utility.yul\":2559:2897   */\n    tag_76:\n        /* \"#utility.yul\":2614:2619   */\n      0x00\n        /* \"#utility.yul\":2663:2666   */\n      dup3\n        /* \"#utility.yul\":2656:2660   */\n      0x1f\n        /* \"#utility.yul\":2648:2654   */\n      dup4\n        /* \"#utility.yul\":2644:2661   */\n      add\n        /* \"#utility.yul\":2640:2667   */\n      slt\n        /* \"#utility.yul\":2630:2752   */\n      tag_133\n      jumpi\n        /* \"#utility.yul\":2671:2750   */\n      tag_134\n      tag_67\n      jump\t// in\n    tag_134:\n        /* \"#utility.yul\":2630:2752   */\n    tag_133:\n        /* \"#utility.yul\":2788:2794   */\n      dup2\n        /* \"#utility.yul\":2775:2795   */\n      calldataload\n        /* \"#utility.yul\":2813:2891   */\n      tag_135\n        /* \"#utility.yul\":2887:2890   */\n      dup5\n        /* \"#utility.yul\":2879:2885   */\n      dup3\n        /* \"#utility.yul\":2872:2876   */\n      0x20\n        /* \"#utility.yul\":2864:2870   */\n      dup7\n        /* \"#utility.yul\":2860:2877   */\n      add\n        /* \"#utility.yul\":2813:2891   */\n      tag_75\n      jump\t// in\n    tag_135:\n        /* \"#utility.yul\":2804:2891   */\n      swap2\n      pop\n        /* \"#utility.yul\":2620:2897   */\n      pop\n        /* \"#utility.yul\":2559:2897   */\n      swap3\n      swap2\n      pop\n      pop\n      jump\t// out\n        /* \"#utility.yul\":2903:3555   */\n    tag_13:\n        /* \"#utility.yul\":2980:2986   */\n      0x00\n        /* \"#utility.yul\":2988:2994   */\n      dup1\n        /* \"#utility.yul\":3037:3039   */\n      0x40\n        /* \"#utility.yul\":3025:3034   */\n      dup4\n        /* \"#utility.yul\":3016:3023   */\n      dup6\n        /* \"#utility.yul\":3012:3035   */\n      sub\n        /* \"#utility.yul\":3008:3040   */\n      slt\n        /* \"#utility.yul\":3005:3124   */\n      iszero\n      tag_137\n      jumpi\n        /* \"#utility.yul\":3043:3122   */\n      tag_138\n      tag_62\n      jump\t// in\n    tag_138:\n        /* \"#utility.yul\":3005:3124   */\n    tag_137:\n        /* \"#utility.yul\":3163:3164   */\n      0x00\n        /* \"#utility.yul\":3188:3241   */\n      tag_139\n        /* \"#utility.yul\":3233:3240   */\n      dup6\n        /* \"#utility.yul\":3224:3230   */\n      dup3\n        /* \"#utility.yul\":3213:3222   */\n      dup7\n        /* \"#utility.yul\":3209:3231   */\n      add\n        /* \"#utility.yul\":3188:3241   */\n      tag_66\n      jump\t// in\n    tag_139:\n        /* \"#utility.yul\":3178:3241   */\n      swap3\n      pop\n        /* \"#utility.yul\":3134:3251   */\n      pop\n        /* \"#utility.yul\":3318:3320   */\n      0x20\n        /* \"#utility.yul\":3307:3316   */\n      dup4\n        /* \"#utility.yul\":3303:3321   */\n      add\n        /* \"#utility.yul\":3290:3322   */\n      calldataload\n        /* \"#utility.yul\":3349:3367   */\n      0xffffffffffffffff\n        /* \"#utility.yul\":3341:3347   */\n      dup2\n        /* \"#utility.yul\":3338:3368   */\n      gt\n        /* \"#utility.yul\":3335:3452   */\n      iszero\n      tag_140\n      jumpi\n        /* \"#utility.yul\":3371:3450   */\n      tag_141\n      tag_63\n      jump\t// in\n    tag_141:\n        /* \"#utility.yul\":3335:3452   */\n    tag_140:\n        /* \"#utility.yul\":3476:3538   */\n      tag_142\n        /* \"#utility.yul\":3530:3537   */\n      dup6\n        /* \"#utility.yul\":3521:3527   */\n      dup3\n        /* \"#utility.yul\":3510:3519   */\n      dup7\n        /* \"#utility.yul\":3506:3528   */\n      add\n        /* \"#utility.yul\":3476:3538   */\n      tag_76\n      jump\t// in\n    tag_142:\n        /* \"#utility.yul\":3466:3538   */\n      swap2\n      pop\n        /* \"#utility.yul\":3261:3548   */\n      pop\n        /* \"#utility.yul\":2903:3555   */\n      swap3\n      pop\n      swap3\n      swap1\n      pop\n      jump\t// out\n        /* \"#utility.yul\":3561:3679   */\n    tag_77:\n        /* \"#utility.yul\":3648:3672   */\n      tag_144\n        /* \"#utility.yul\":3666:3671   */\n      dup2\n        /* \"#utility.yul\":3648:3672   */\n      tag_64\n      jump\t// in\n    tag_144:\n        /* \"#utility.yul\":3643:3646   */\n      dup3\n        /* \"#utility.yul\":3636:3673   */\n      mstore\n        /* \"#utility.yul\":3561:3679   */\n      pop\n      pop\n      jump\t// out\n        /* \"#utility.yul\":3685:3907   */\n    tag_18:\n        /* \"#utility.yul\":3778:3782   */\n      0x00\n        /* \"#utility.yul\":3816:3818   */\n      0x20\n        /* \"#utility.yul\":3805:3814   */\n      dup3\n        /* \"#utility.yul\":3801:3819   */\n      add\n        /* \"#utility.yul\":3793:3819   */\n      swap1\n      pop\n        /* \"#utility.yul\":3829:3900   */\n      tag_146\n        /* \"#utility.yul\":3897:3898   */\n      0x00\n        /* \"#utility.yul\":3886:3895   */\n      dup4\n        /* \"#utility.yul\":3882:3899   */\n      add\n        /* \"#utility.yul\":3873:3879   */\n      dup5\n        /* \"#utility.yul\":3829:3900   */\n      tag_77\n      jump\t// in\n    tag_146:\n        /* \"#utility.yul\":3685:3907   */\n      swap3\n      swap2\n      pop\n      pop\n      jump\t// out\n        /* \"#utility.yul\":3913:4039   */\n    tag_78:\n        /* \"#utility.yul\":3950:3957   */\n      0x00\n        /* \"#utility.yul\":3990:4032   */\n      0xffffffffffffffffffffffffffffffffffffffff\n        /* \"#utility.yul\":3983:3988   */\n      dup3\n        /* \"#utility.yul\":3979:4033   */\n      and\n        /* \"#utility.yul\":3968:4033   */\n      swap1\n      pop\n        /* \"#utility.yul\":3913:4039   */\n      swap2\n      swap1\n      pop\n      jump\t// out\n        /* \"#utility.yul\":4045:4149   */\n    tag_79:\n        /* \"#utility.yul\":4090:4097   */\n      0x00\n        /* \"#utility.yul\":4119:4143   */\n      tag_149\n        /* \"#utility.yul\":4137:4142   */\n      dup3\n        /* \"#utility.yul\":4119:4143   */\n      tag_78\n      jump\t// in\n    tag_149:\n        /* \"#utility.yul\":4108:4143   */\n      swap1\n      pop\n        /* \"#utility.yul\":4045:4149   */\n      swap2\n      swap1\n      pop\n      jump\t// out\n        /* \"#utility.yul\":4155:4297   */\n    tag_80:\n        /* \"#utility.yul\":4258:4290   */\n      tag_151\n        /* \"#utility.yul\":4284:4289   */\n      dup2\n        /* \"#utility.yul\":4258:4290   */\n      tag_79\n      jump\t// in\n    tag_151:\n        /* \"#utility.yul\":4253:4256   */\n      dup3\n        /* \"#utility.yul\":4246:4291   */\n      mstore\n        /* \"#utility.yul\":4155:4297   */\n      pop\n      pop\n      jump\t// out\n        /* \"#utility.yul\":4303:4557   */\n    tag_22:\n        /* \"#utility.yul\":4412:4416   */\n      0x00\n        /* \"#utility.yul\":4450:4452   */\n      0x20\n        /* \"#utility.yul\":4439:4448   */\n      dup3\n        /* \"#utility.yul\":4435:4453   */\n      add\n        /* \"#utility.yul\":4427:4453   */\n      swap1\n      pop\n        /* \"#utility.yul\":4463:4550   */\n      tag_153\n        /* \"#utility.yul\":4547:4548   */\n      0x00\n        /* \"#utility.yul\":4536:4545   */\n      dup4\n        /* \"#utility.yul\":4532:4549   */\n      add\n        /* \"#utility.yul\":4523:4529   */\n      dup5\n        /* \"#utility.yul\":4463:4550   */\n      tag_80\n      jump\t// in\n    tag_153:\n        /* \"#utility.yul\":4303:4557   */\n      swap3\n      swap2\n      pop\n      pop\n      jump\t// out\n        /* \"#utility.yul\":4563:4892   */\n    tag_28:\n        /* \"#utility.yul\":4622:4628   */\n      0x00\n        /* \"#utility.yul\":4671:4673   */\n      0x20\n        /* \"#utility.yul\":4659:4668   */\n      dup3\n        /* \"#utility.yul\":4650:4657   */\n      dup5\n        /* \"#utility.yul\":4646:4669   */\n      sub\n        /* \"#utility.yul\":4642:4674   */\n      slt\n        /* \"#utility.yul\":4639:4758   */\n      iszero\n      tag_155\n      jumpi\n        /* \"#utility.yul\":4677:4756   */\n      tag_156\n      tag_62\n      jump\t// in\n    tag_156:\n        /* \"#utility.yul\":4639:4758   */\n    tag_155:\n        /* \"#utility.yul\":4797:4798   */\n      0x00\n        /* \"#utility.yul\":4822:4875   */\n      tag_157\n        /* \"#utility.yul\":4867:4874   */\n      dup5\n        /* \"#utility.yul\":4858:4864   */\n      dup3\n        /* \"#utility.yul\":4847:4856   */\n      dup6\n        /* \"#utility.yul\":4843:4865   */\n      add\n        /* \"#utility.yul\":4822:4875   */\n      tag_66\n      jump\t// in\n    tag_157:\n        /* \"#utility.yul\":4812:4875   */\n      swap2\n      pop\n        /* \"#utility.yul\":4768:4885   */\n      pop\n        /* \"#utility.yul\":4563:4892   */\n      swap3\n      swap2\n      pop\n      pop\n      jump\t// out\n        /* \"#utility.yul\":4898:4958   */\n    tag_81:\n        /* \"#utility.yul\":4926:4929   */\n      0x00\n        /* \"#utility.yul\":4947:4952   */\n      dup2\n        /* \"#utility.yul\":4940:4952   */\n      swap1\n      pop\n        /* \"#utility.yul\":4898:4958   */\n      swap2\n      swap1\n      pop\n      jump\t// out\n        /* \"#utility.yul\":4964:5106   */\n    tag_82:\n        /* \"#utility.yul\":5014:5023   */\n      0x00\n        /* \"#utility.yul\":5047:5100   */\n      tag_160\n        /* \"#utility.yul\":5065:5099   */\n      tag_161\n        /* \"#utility.yul\":5074:5098   */\n      tag_162\n        /* \"#utility.yul\":5092:5097   */\n      dup5\n        /* \"#utility.yul\":5074:5098   */\n      tag_78\n      jump\t// in\n    tag_162:\n        /* \"#utility.yul\":5065:5099   */\n      tag_81\n      jump\t// in\n    tag_161:\n        /* \"#utility.yul\":5047:5100   */\n      tag_78\n      jump\t// in\n    tag_160:\n        /* \"#utility.yul\":5034:5100   */\n      swap1\n      pop\n        /* \"#utility.yul\":4964:5106   */\n      swap2\n      swap1\n      pop\n      jump\t// out\n        /* \"#utility.yul\":5112:5238   */\n    tag_83:\n        /* \"#utility.yul\":5162:5171   */\n      0x00\n        /* \"#utility.yul\":5195:5232   */\n      tag_164\n        /* \"#utility.yul\":5226:5231   */\n      dup3\n        /* \"#utility.yul\":5195:5232   */\n      tag_82\n      jump\t// in\n    tag_164:\n        /* \"#utility.yul\":5182:5232   */\n      swap1\n      pop\n        /* \"#utility.yul\":5112:5238   */\n      swap2\n      swap1\n      pop\n      jump\t// out\n        /* \"#utility.yul\":5244:5398   */\n    tag_84:\n        /* \"#utility.yul\":5322:5331   */\n      0x00\n        /* \"#utility.yul\":5355:5392   */\n      tag_166\n        /* \"#utility.yul\":5386:5391   */\n      dup3\n        /* \"#utility.yul\":5355:5392   */\n      tag_83\n      jump\t// in\n    tag_166:\n        /* \"#utility.yul\":5342:5392   */\n      swap1\n      pop\n        /* \"#utility.yul\":5244:5398   */\n      swap2\n      swap1\n      pop\n      jump\t// out\n        /* \"#utility.yul\":5404:5498   */\n    tag_85:\n        /* \"#utility.yul\":5437:5445   */\n      0x00\n        /* \"#utility.yul\":5485:5490   */\n      dup2\n        /* \"#utility.yul\":5481:5483   */\n      0x60\n        /* \"#utility.yul\":5477:5491   */\n      shl\n        /* \"#utility.yul\":5456:5491   */\n      swap1\n      pop\n        /* \"#utility.yul\":5404:5498   */\n      swap2\n      swap1\n      pop\n      jump\t// out\n        /* \"#utility.yul\":5504:5598   */\n    tag_86:\n        /* \"#utility.yul\":5543:5550   */\n      0x00\n        /* \"#utility.yul\":5572:5592   */\n      tag_169\n        /* \"#utility.yul\":5586:5591   */\n      dup3\n        /* \"#utility.yul\":5572:5592   */\n      tag_85\n      jump\t// in\n    tag_169:\n        /* \"#utility.yul\":5561:5592   */\n      swap1\n      pop\n        /* \"#utility.yul\":5504:5598   */\n      swap2\n      swap1\n      pop\n      jump\t// out\n        /* \"#utility.yul\":5604:5704   */\n    tag_87:\n        /* \"#utility.yul\":5643:5650   */\n      0x00\n        /* \"#utility.yul\":5672:5698   */\n      tag_171\n        /* \"#utility.yul\":5692:5697   */\n      dup3\n        /* \"#utility.yul\":5672:5698   */\n      tag_86\n      jump\t// in\n    tag_171:\n        /* \"#utility.yul\":5661:5698   */\n      swap1\n      pop\n        /* \"#utility.yul\":5604:5704   */\n      swap2\n      swap1\n      pop\n      jump\t// out\n        /* \"#utility.yul\":5710:5936   */\n    tag_88:\n        /* \"#utility.yul\":5843:5929   */\n      tag_173\n        /* \"#utility.yul\":5863:5928   */\n      tag_174\n        /* \"#utility.yul\":5922:5927   */\n      dup3\n        /* \"#utility.yul\":5863:5928   */\n      tag_84\n      jump\t// in\n    tag_174:\n        /* \"#utility.yul\":5843:5929   */\n      tag_87\n      jump\t// in\n    tag_173:\n        /* \"#utility.yul\":5838:5841   */\n      dup3\n        /* \"#utility.yul\":5831:5930   */\n      mstore\n        /* \"#utility.yul\":5710:5936   */\n      pop\n      pop\n      jump\t// out\n        /* \"#utility.yul\":5942:6021   */\n    tag_89:\n        /* \"#utility.yul\":5981:5988   */\n      0x00\n        /* \"#utility.yul\":6010:6015   */\n      dup2\n        /* \"#utility.yul\":5999:6015   */\n      swap1\n      pop\n        /* \"#utility.yul\":5942:6021   */\n      swap2\n      swap1\n      pop\n      jump\t// out\n        /* \"#utility.yul\":6027:6184   */\n    tag_90:\n        /* \"#utility.yul\":6132:6177   */\n      tag_177\n        /* \"#utility.yul\":6152:6176   */\n      tag_178\n        /* \"#utility.yul\":6170:6175   */\n      dup3\n        /* \"#utility.yul\":6152:6176   */\n      tag_64\n      jump\t// in\n    tag_178:\n        /* \"#utility.yul\":6132:6177   */\n      tag_89\n      jump\t// in\n    tag_177:\n        /* \"#utility.yul\":6127:6130   */\n      dup3\n        /* \"#utility.yul\":6120:6178   */\n      mstore\n        /* \"#utility.yul\":6027:6184   */\n      pop\n      pop\n      jump\t// out\n        /* \"#utility.yul\":6190:6643   */\n    tag_45:\n        /* \"#utility.yul\":6358:6361   */\n      0x00\n        /* \"#utility.yul\":6373:6476   */\n      tag_180\n        /* \"#utility.yul\":6472:6475   */\n      dup3\n        /* \"#utility.yul\":6463:6469   */\n      dup6\n        /* \"#utility.yul\":6373:6476   */\n      tag_88\n      jump\t// in\n    tag_180:\n        /* \"#utility.yul\":6501:6503   */\n      0x14\n        /* \"#utility.yul\":6496:6499   */\n      dup3\n        /* \"#utility.yul\":6492:6504   */\n      add\n        /* \"#utility.yul\":6485:6504   */\n      swap2\n      pop\n        /* \"#utility.yul\":6514:6589   */\n      tag_181\n        /* \"#utility.yul\":6585:6588   */\n      dup3\n        /* \"#utility.yul\":6576:6582   */\n      dup5\n        /* \"#utility.yul\":6514:6589   */\n      tag_90\n      jump\t// in\n    tag_181:\n        /* \"#utility.yul\":6614:6616   */\n      0x20\n        /* \"#utility.yul\":6609:6612   */\n      dup3\n        /* \"#utility.yul\":6605:6617   */\n      add\n        /* \"#utility.yul\":6598:6617   */\n      swap2\n      pop\n        /* \"#utility.yul\":6634:6637   */\n      dup2\n        /* \"#utility.yul\":6627:6637   */\n      swap1\n      pop\n        /* \"#utility.yul\":6190:6643   */\n      swap4\n      swap3\n      pop\n      pop\n      pop\n      jump\t// out\n        /* \"#utility.yul\":6649:6797   */\n    tag_91:\n        /* \"#utility.yul\":6751:6762   */\n      0x00\n        /* \"#utility.yul\":6788:6791   */\n      dup2\n        /* \"#utility.yul\":6773:6791   */\n      swap1\n      pop\n        /* \"#utility.yul\":6649:6797   */\n      swap3\n      swap2\n      pop\n      pop\n      jump\t// out\n        /* \"#utility.yul\":6803:7017   */\n    tag_92:\n        /* \"#utility.yul\":6943:7009   */\n      0x19457468657265756d205369676e6564204d6573736167653a0a333200000000\n        /* \"#utility.yul\":6939:6940   */\n      0x00\n        /* \"#utility.yul\":6931:6937   */\n      dup3\n        /* \"#utility.yul\":6927:6941   */\n      add\n        /* \"#utility.yul\":6920:7010   */\n      mstore\n        /* \"#utility.yul\":6803:7017   */\n      pop\n      jump\t// out\n        /* \"#utility.yul\":7023:7425   */\n    tag_93:\n        /* \"#utility.yul\":7183:7186   */\n      0x00\n        /* \"#utility.yul\":7204:7289   */\n      tag_185\n        /* \"#utility.yul\":7286:7288   */\n      0x1c\n        /* \"#utility.yul\":7281:7284   */\n      dup4\n        /* \"#utility.yul\":7204:7289   */\n      tag_91\n      jump\t// in\n    tag_185:\n        /* \"#utility.yul\":7197:7289   */\n      swap2\n      pop\n        /* \"#utility.yul\":7298:7391   */\n      tag_186\n        /* \"#utility.yul\":7387:7390   */\n      dup3\n        /* \"#utility.yul\":7298:7391   */\n      tag_92\n      jump\t// in\n    tag_186:\n        /* \"#utility.yul\":7416:7418   */\n      0x1c\n        /* \"#utility.yul\":7411:7414   */\n      dup3\n        /* \"#utility.yul\":7407:7419   */\n      add\n        /* \"#utility.yul\":7400:7419   */\n      swap1\n      pop\n        /* \"#utility.yul\":7023:7425   */\n      swap2\n      swap1\n      pop\n      jump\t// out\n        /* \"#utility.yul\":7431:7508   */\n    tag_94:\n        /* \"#utility.yul\":7468:7475   */\n      0x00\n        /* \"#utility.yul\":7497:7502   */\n      dup2\n        /* \"#utility.yul\":7486:7502   */\n      swap1\n      pop\n        /* \"#utility.yul\":7431:7508   */\n      swap2\n      swap1\n      pop\n      jump\t// out\n        /* \"#utility.yul\":7514:7593   */\n    tag_95:\n        /* \"#utility.yul\":7553:7560   */\n      0x00\n        /* \"#utility.yul\":7582:7587   */\n      dup2\n        /* \"#utility.yul\":7571:7587   */\n      swap1\n      pop\n        /* \"#utility.yul\":7514:7593   */\n      swap2\n      swap1\n      pop\n      jump\t// out\n        /* \"#utility.yul\":7599:7756   */\n    tag_96:\n        /* \"#utility.yul\":7704:7749   */\n      tag_190\n        /* \"#utility.yul\":7724:7748   */\n      tag_191\n        /* \"#utility.yul\":7742:7747   */\n      dup3\n        /* \"#utility.yul\":7724:7748   */\n      tag_94\n      jump\t// in\n    tag_191:\n        /* \"#utility.yul\":7704:7749   */\n      tag_95\n      jump\t// in\n    tag_190:\n        /* \"#utility.yul\":7699:7702   */\n      dup3\n        /* \"#utility.yul\":7692:7750   */\n      mstore\n        /* \"#utility.yul\":7599:7756   */\n      pop\n      pop\n      jump\t// out\n        /* \"#utility.yul\":7762:8284   */\n    tag_51:\n        /* \"#utility.yul\":7975:7978   */\n      0x00\n        /* \"#utility.yul\":7997:8145   */\n      tag_193\n        /* \"#utility.yul\":8141:8144   */\n      dup3\n        /* \"#utility.yul\":7997:8145   */\n      tag_93\n      jump\t// in\n    tag_193:\n        /* \"#utility.yul\":7990:8145   */\n      swap2\n      pop\n        /* \"#utility.yul\":8155:8230   */\n      tag_194\n        /* \"#utility.yul\":8226:8229   */\n      dup3\n        /* \"#utility.yul\":8217:8223   */\n      dup5\n        /* \"#utility.yul\":8155:8230   */\n      tag_96\n      jump\t// in\n    tag_194:\n        /* \"#utility.yul\":8255:8257   */\n      0x20\n        /* \"#utility.yul\":8250:8253   */\n      dup3\n        /* \"#utility.yul\":8246:8258   */\n      add\n        /* \"#utility.yul\":8239:8258   */\n      swap2\n      pop\n        /* \"#utility.yul\":8275:8278   */\n      dup2\n        /* \"#utility.yul\":8268:8278   */\n      swap1\n      pop\n        /* \"#utility.yul\":7762:8284   */\n      swap3\n      swap2\n      pop\n      pop\n      jump\t// out\n        /* \"#utility.yul\":8290:8408   */\n    tag_97:\n        /* \"#utility.yul\":8377:8401   */\n      tag_196\n        /* \"#utility.yul\":8395:8400   */\n      dup2\n        /* \"#utility.yul\":8377:8401   */\n      tag_94\n      jump\t// in\n    tag_196:\n        /* \"#utility.yul\":8372:8375   */\n      dup3\n        /* \"#utility.yul\":8365:8402   */\n      mstore\n        /* \"#utility.yul\":8290:8408   */\n      pop\n      pop\n      jump\t// out\n        /* \"#utility.yul\":8414:8500   */\n    tag_98:\n        /* \"#utility.yul\":8449:8456   */\n      0x00\n        /* \"#utility.yul\":8489:8493   */\n      0xff\n        /* \"#utility.yul\":8482:8487   */\n      dup3\n        /* \"#utility.yul\":8478:8494   */\n      and\n        /* \"#utility.yul\":8467:8494   */\n      swap1\n      pop\n        /* \"#utility.yul\":8414:8500   */\n      swap2\n      swap1\n      pop\n      jump\t// out\n        /* \"#utility.yul\":8506:8618   */\n    tag_99:\n        /* \"#utility.yul\":8589:8611   */\n      tag_199\n        /* \"#utility.yul\":8605:8610   */\n      dup2\n        /* \"#utility.yul\":8589:8611   */\n      tag_98\n      jump\t// in\n    tag_199:\n        /* \"#utility.yul\":8584:8587   */\n      dup3\n        /* \"#utility.yul\":8577:8612   */\n      mstore\n        /* \"#utility.yul\":8506:8618   */\n      pop\n      pop\n      jump\t// out\n        /* \"#utility.yul\":8624:9169   */\n    tag_56:\n        /* \"#utility.yul\":8797:8801   */\n      0x00\n        /* \"#utility.yul\":8835:8838   */\n      0x80\n        /* \"#utility.yul\":8824:8833   */\n      dup3\n        /* \"#utility.yul\":8820:8839   */\n      add\n        /* \"#utility.yul\":8812:8839   */\n      swap1\n      pop\n        /* \"#utility.yul\":8849:8920   */\n      tag_201\n        /* \"#utility.yul\":8917:8918   */\n      0x00\n        /* \"#utility.yul\":8906:8915   */\n      dup4\n        /* \"#utility.yul\":8902:8919   */\n      add\n        /* \"#utility.yul\":8893:8899   */\n      dup8\n        /* \"#utility.yul\":8849:8920   */\n      tag_97\n      jump\t// in\n    tag_201:\n        /* \"#utility.yul\":8930:8998   */\n      tag_202\n        /* \"#utility.yul\":8994:8996   */\n      0x20\n        /* \"#utility.yul\":8983:8992   */\n      dup4\n        /* \"#utility.yul\":8979:8997   */\n      add\n        /* \"#utility.yul\":8970:8976   */\n      dup7\n        /* \"#utility.yul\":8930:8998   */\n      tag_99\n      jump\t// in\n    tag_202:\n        /* \"#utility.yul\":9008:9080   */\n      tag_203\n        /* \"#utility.yul\":9076:9078   */\n      0x40\n        /* \"#utility.yul\":9065:9074   */\n      dup4\n        /* \"#utility.yul\":9061:9079   */\n      add\n        /* \"#utility.yul\":9052:9058   */\n      dup6\n        /* \"#utility.yul\":9008:9080   */\n      tag_97\n      jump\t// in\n    tag_203:\n        /* \"#utility.yul\":9090:9162   */\n      tag_204\n        /* \"#utility.yul\":9158:9160   */\n      0x60\n        /* \"#utility.yul\":9147:9156   */\n      dup4\n        /* \"#utility.yul\":9143:9161   */\n      add\n        /* \"#utility.yul\":9134:9140   */\n      dup5\n        /* \"#utility.yul\":9090:9162   */\n      tag_97\n      jump\t// in\n    tag_204:\n        /* \"#utility.yul\":8624:9169   */\n      swap6\n      swap5\n      pop\n      pop\n      pop\n      pop\n      pop\n      jump\t// out\n\n    auxdata: 0xa2646970667358221220b7f2c74c41395d54c465c68ea69fe52604e93cf151d4540aa4024f7c5673164464736f6c63430008120033\n}\n",
				"bytecode": {
					"linkReferences": {},
					"object": "608060405260405162000b8038038062000b8083398181016040528101906200002991906200016b565b336000806101000a81548173ffffffffffffffffffffffffffffffffffffffff021916908373ffffffffffffffffffffffffffffffffffffffff16021790555081600160006101000a81548173ffffffffffffffffffffffffffffffffffffffff021916908373ffffffffffffffffffffffffffffffffffffffff1602179055508042620000b89190620001e1565b60028190555050506200021c565b600080fd5b600073ffffffffffffffffffffffffffffffffffffffff82169050919050565b6000620000f882620000cb565b9050919050565b6200010a81620000eb565b81146200011657600080fd5b50565b6000815190506200012a81620000ff565b92915050565b6000819050919050565b620001458162000130565b81146200015157600080fd5b50565b60008151905062000165816200013a565b92915050565b60008060408385031215620001855762000184620000c6565b5b6000620001958582860162000119565b9250506020620001a88582860162000154565b9150509250929050565b7f4e487b7100000000000000000000000000000000000000000000000000000000600052601160045260246000fd5b6000620001ee8262000130565b9150620001fb8362000130565b9250828201905080821115620002165762000215620001b2565b5b92915050565b610954806200022c6000396000f3fe608060405234801561001057600080fd5b50600436106100625760003560e01c80630e1da6c314610067578063415ffba7146100715780634665096d1461008d57806366d003ac146100ab57806367e404ce146100c95780639714378c146100e7575b600080fd5b61006f610103565b005b61008b60048036038101906100869190610612565b61014b565b005b61009561025a565b6040516100a2919061067d565b60405180910390f35b6100b3610260565b6040516100c091906106d9565b60405180910390f35b6100d1610286565b6040516100de91906106d9565b60405180910390f35b61010160048036038101906100fc91906106f4565b6102aa565b005b60025442101561011257600080fd5b60008054906101000a900473ffffffffffffffffffffffffffffffffffffffff1673ffffffffffffffffffffffffffffffffffffffff16ff5b600160009054906101000a900473ffffffffffffffffffffffffffffffffffffffff1673ffffffffffffffffffffffffffffffffffffffff163373ffffffffffffffffffffffffffffffffffffffff16146101a557600080fd5b6101af828261031a565b6101b857600080fd5b600160009054906101000a900473ffffffffffffffffffffffffffffffffffffffff1673ffffffffffffffffffffffffffffffffffffffff166108fc839081150290604051600060405180830381858888f19350505050158015610220573d6000803e3d6000fd5b5060008054906101000a900473ffffffffffffffffffffffffffffffffffffffff1673ffffffffffffffffffffffffffffffffffffffff16ff5b60025481565b600160009054906101000a900473ffffffffffffffffffffffffffffffffffffffff1681565b60008054906101000a900473ffffffffffffffffffffffffffffffffffffffff1681565b60008054906101000a900473ffffffffffffffffffffffffffffffffffffffff1673ffffffffffffffffffffffffffffffffffffffff163373ffffffffffffffffffffffffffffffffffffffff161461030257600080fd5b600254811161031057600080fd5b8060028190555050565b60008061034e30856040516020016103339291906107da565b604051602081830303815290604052805190602001206103b1565b905060008054906101000a900473ffffffffffffffffffffffffffffffffffffffff1673ffffffffffffffffffffffffffffffffffffffff1661039182856103e1565b73ffffffffffffffffffffffffffffffffffffffff161491505092915050565b6000816040516020016103c49190610888565b604051602081830303815290604052805190602001209050919050565b6000806000806103f085610450565b9250925092506001868484846040516000815260200160405260405161041994939291906108d9565b6020604051602081039080840390855afa15801561043b573d6000803e3d6000fd5b50505060206040510351935050505092915050565b6000806000604184511461046357600080fd5b6020840151915060408401519050606084015160001a92509193909250565b6000604051905090565b600080fd5b600080fd5b6000819050919050565b6104a981610496565b81146104b457600080fd5b50565b6000813590506104c6816104a0565b92915050565b600080fd5b600080fd5b6000601f19601f8301169050919050565b7f4e487b7100000000000000000000000000000000000000000000000000000000600052604160045260246000fd5b61051f826104d6565b810181811067ffffffffffffffff8211171561053e5761053d6104e7565b5b80604052505050565b6000610551610482565b905061055d8282610516565b919050565b600067ffffffffffffffff82111561057d5761057c6104e7565b5b610586826104d6565b9050602081019050919050565b82818337600083830152505050565b60006105b56105b084610562565b610547565b9050828152602081018484840111156105d1576105d06104d1565b5b6105dc848285610593565b509392505050565b600082601f8301126105f9576105f86104cc565b5b81356106098482602086016105a2565b91505092915050565b600080604083850312156106295761062861048c565b5b6000610637858286016104b7565b925050602083013567ffffffffffffffff81111561065857610657610491565b5b610664858286016105e4565b9150509250929050565b61067781610496565b82525050565b6000602082019050610692600083018461066e565b92915050565b600073ffffffffffffffffffffffffffffffffffffffff82169050919050565b60006106c382610698565b9050919050565b6106d3816106b8565b82525050565b60006020820190506106ee60008301846106ca565b92915050565b60006020828403121561070a5761070961048c565b5b6000610718848285016104b7565b91505092915050565b6000819050919050565b600061074661074161073c84610698565b610721565b610698565b9050919050565b60006107588261072b565b9050919050565b600061076a8261074d565b9050919050565b60008160601b9050919050565b600061078982610771565b9050919050565b600061079b8261077e565b9050919050565b6107b36107ae8261075f565b610790565b82525050565b6000819050919050565b6107d46107cf82610496565b6107b9565b82525050565b60006107e682856107a2565b6014820191506107f682846107c3565b6020820191508190509392505050565b600081905092915050565b7f19457468657265756d205369676e6564204d6573736167653a0a333200000000600082015250565b6000610847601c83610806565b915061085282610811565b601c82019050919050565b6000819050919050565b6000819050919050565b61088261087d8261085d565b610867565b82525050565b60006108938261083a565b915061089f8284610871565b60208201915081905092915050565b6108b78161085d565b82525050565b600060ff82169050919050565b6108d3816108bd565b82525050565b60006080820190506108ee60008301876108ae565b6108fb60208301866108ca565b61090860408301856108ae565b61091560608301846108ae565b9594505050505056fea2646970667358221220b7f2c74c41395d54c465c68ea69fe52604e93cf151d4540aa4024f7c5673164464736f6c63430008120033",
					"opcodes": "PUSH1 0x80 PUSH1 0x40 MSTORE PUSH1 0x40 MLOAD PUSH3 0xB80 CODESIZE SUB DUP1 PUSH3 0xB80 DUP4 CODECOPY DUP2 DUP2 ADD PUSH1 0x40 MSTORE DUP2 ADD SWAP1 PUSH3 0x29 SWAP2 SWAP1 PUSH3 0x16B JUMP JUMPDEST CALLER PUSH1 0x0 DUP1 PUSH2 0x100 EXP DUP2 SLOAD DUP2 PUSH20 0xFFFFFFFFFFFFFFFFFFFFFFFFFFFFFFFFFFFFFFFF MUL NOT AND SWAP1 DUP4 PUSH20 0xFFFFFFFFFFFFFFFFFFFFFFFFFFFFFFFFFFFFFFFF AND MUL OR SWAP1 SSTORE POP DUP2 PUSH1 0x1 PUSH1 0x0 PUSH2 0x100 EXP DUP2 SLOAD DUP2 PUSH20 0xFFFFFFFFFFFFFFFFFFFFFFFFFFFFFFFFFFFFFFFF MUL NOT AND SWAP1 DUP4 PUSH20 0xFFFFFFFFFFFFFFFFFFFFFFFFFFFFFFFFFFFFFFFF AND MUL OR SWAP1 SSTORE POP DUP1 TIMESTAMP PUSH3 0xB8 SWAP2 SWAP1 PUSH3 0x1E1 JUMP JUMPDEST PUSH1 0x2 DUP2 SWAP1 SSTORE POP POP POP PUSH3 0x21C JUMP JUMPDEST PUSH1 0x0 DUP1 REVERT JUMPDEST PUSH1 0x0 PUSH20 0xFFFFFFFFFFFFFFFFFFFFFFFFFFFFFFFFFFFFFFFF DUP3 AND SWAP1 POP SWAP2 SWAP1 POP JUMP JUMPDEST PUSH1 0x0 PUSH3 0xF8 DUP3 PUSH3 0xCB JUMP JUMPDEST SWAP1 POP SWAP2 SWAP1 POP JUMP JUMPDEST PUSH3 0x10A DUP2 PUSH3 0xEB JUMP JUMPDEST DUP2 EQ PUSH3 0x116 JUMPI PUSH1 0x0 DUP1 REVERT JUMPDEST POP JUMP JUMPDEST PUSH1 0x0 DUP2 MLOAD SWAP1 POP PUSH3 0x12A DUP2 PUSH3 0xFF JUMP JUMPDEST SWAP3 SWAP2 POP POP JUMP JUMPDEST PUSH1 0x0 DUP2 SWAP1 POP SWAP2 SWAP1 POP JUMP JUMPDEST PUSH3 0x145 DUP2 PUSH3 0x130 JUMP JUMPDEST DUP2 EQ PUSH3 0x151 JUMPI PUSH1 0x0 DUP1 REVERT JUMPDEST POP JUMP JUMPDEST PUSH1 0x0 DUP2 MLOAD SWAP1 POP PUSH3 0x165 DUP2 PUSH3 0x13A JUMP JUMPDEST SWAP3 SWAP2 POP POP JUMP JUMPDEST PUSH1 0x0 DUP1 PUSH1 0x40 DUP4 DUP6 SUB SLT ISZERO PUSH3 0x185 JUMPI PUSH3 0x184 PUSH3 0xC6 JUMP JUMPDEST JUMPDEST PUSH1 0x0 PUSH3 0x195 DUP6 DUP3 DUP7 ADD PUSH3 0x119 JUMP JUMPDEST SWAP3 POP POP PUSH1 0x20 PUSH3 0x1A8 DUP6 DUP3 DUP7 ADD PUSH3 0x154 JUMP JUMPDEST SWAP2 POP POP SWAP3 POP SWAP3 SWAP1 POP JUMP JUMPDEST PUSH32 0x4E487B7100000000000000000000000000000000000000000000000000000000 PUSH1 0x0 MSTORE PUSH1 0x11 PUSH1 0x4 MSTORE PUSH1 0x24 PUSH1 0x0 REVERT JUMPDEST PUSH1 0x0 PUSH3 0x1EE DUP3 PUSH3 0x130 JUMP JUMPDEST SWAP2 POP PUSH3 0x1FB DUP4 PUSH3 0x130 JUMP JUMPDEST SWAP3 POP DUP3 DUP3 ADD SWAP1 POP DUP1 DUP3 GT ISZERO PUSH3 0x216 JUMPI PUSH3 0x215 PUSH3 0x1B2 JUMP JUMPDEST JUMPDEST SWAP3 SWAP2 POP POP JUMP JUMPDEST PUSH2 0x954 DUP1 PUSH3 0x22C PUSH1 0x0 CODECOPY PUSH1 0x0 RETURN INVALID PUSH1 0x80 PUSH1 0x40 MSTORE CALLVALUE DUP1 ISZERO PUSH2 0x10 JUMPI PUSH1 0x0 DUP1 REVERT JUMPDEST POP PUSH1 0x4 CALLDATASIZE LT PUSH2 0x62 JUMPI PUSH1 0x0 CALLDATALOAD PUSH1 0xE0 SHR DUP1 PUSH4 0xE1DA6C3 EQ PUSH2 0x67 JUMPI DUP1 PUSH4 0x415FFBA7 EQ PUSH2 0x71 JUMPI DUP1 PUSH4 0x4665096D EQ PUSH2 0x8D JUMPI DUP1 PUSH4 0x66D003AC EQ PUSH2 0xAB JUMPI DUP1 PUSH4 0x67E404CE EQ PUSH2 0xC9 JUMPI DUP1 PUSH4 0x9714378C EQ PUSH2 0xE7 JUMPI JUMPDEST PUSH1 0x0 DUP1 REVERT JUMPDEST PUSH2 0x6F PUSH2 0x103 JUMP JUMPDEST STOP JUMPDEST PUSH2 0x8B PUSH1 0x4 DUP1 CALLDATASIZE SUB DUP2 ADD SWAP1 PUSH2 0x86 SWAP2 SWAP1 PUSH2 0x612 JUMP JUMPDEST PUSH2 0x14B JUMP JUMPDEST STOP JUMPDEST PUSH2 0x95 PUSH2 0x25A JUMP JUMPDEST PUSH1 0x40 MLOAD PUSH2 0xA2 SWAP2 SWAP1 PUSH2 0x67D JUMP JUMPDEST PUSH1 0x40 MLOAD DUP1 SWAP2 SUB SWAP1 RETURN JUMPDEST PUSH2 0xB3 PUSH2 0x260 JUMP JUMPDEST PUSH1 0x40 MLOAD PUSH2 0xC0 SWAP2 SWAP1 PUSH2 0x6D9 JUMP JUMPDEST PUSH1 0x40 MLOAD DUP1 SWAP2 SUB SWAP1 RETURN JUMPDEST PUSH2 0xD1 PUSH2 0x286 JUMP JUMPDEST PUSH1 0x40 MLOAD PUSH2 0xDE SWAP2 SWAP1 PUSH2 0x6D9 JUMP JUMPDEST PUSH1 0x40 MLOAD DUP1 SWAP2 SUB SWAP1 RETURN JUMPDEST PUSH2 0x101 PUSH1 0x4 DUP1 CALLDATASIZE SUB DUP2 ADD SWAP1 PUSH2 0xFC SWAP2 SWAP1 PUSH2 0x6F4 JUMP JUMPDEST PUSH2 0x2AA JUMP JUMPDEST STOP JUMPDEST PUSH1 0x2 SLOAD TIMESTAMP LT ISZERO PUSH2 0x112 JUMPI PUSH1 0x0 DUP1 REVERT JUMPDEST PUSH1 0x0 DUP1 SLOAD SWAP1 PUSH2 0x100 EXP SWAP1 DIV PUSH20 0xFFFFFFFFFFFFFFFFFFFFFFFFFFFFFFFFFFFFFFFF AND PUSH20 0xFFFFFFFFFFFFFFFFFFFFFFFFFFFFFFFFFFFFFFFF AND SELFDESTRUCT JUMPDEST PUSH1 0x1 PUSH1 0x0 SWAP1 SLOAD SWAP1 PUSH2 0x100 EXP SWAP1 DIV PUSH20 0xFFFFFFFFFFFFFFFFFFFFFFFFFFFFFFFFFFFFFFFF AND PUSH20 0xFFFFFFFFFFFFFFFFFFFFFFFFFFFFFFFFFFFFFFFF AND CALLER PUSH20 0xFFFFFFFFFFFFFFFFFFFFFFFFFFFFFFFFFFFFFFFF AND EQ PUSH2 0x1A5 JUMPI PUSH1 0x0 DUP1 REVERT JUMPDEST PUSH2 0x1AF DUP3 DUP3 PUSH2 0x31A JUMP JUMPDEST PUSH2 0x1B8 JUMPI PUSH1 0x0 DUP1 REVERT JUMPDEST PUSH1 0x1 PUSH1 0x0 SWAP1 SLOAD SWAP1 PUSH2 0x100 EXP SWAP1 DIV PUSH20 0xFFFFFFFFFFFFFFFFFFFFFFFFFFFFFFFFFFFFFFFF AND PUSH20 0xFFFFFFFFFFFFFFFFFFFFFFFFFFFFFFFFFFFFFFFF AND PUSH2 0x8FC DUP4 SWAP1 DUP2 ISZERO MUL SWAP1 PUSH1 0x40 MLOAD PUSH1 0x0 PUSH1 0x40 MLOAD DUP1 DUP4 SUB DUP2 DUP6 DUP9 DUP9 CALL SWAP4 POP POP POP POP ISZERO DUP1 ISZERO PUSH2 0x220 JUMPI RETURNDATASIZE PUSH1 0x0 DUP1 RETURNDATACOPY RETURNDATASIZE PUSH1 0x0 REVERT JUMPDEST POP PUSH1 0x0 DUP1 SLOAD SWAP1 PUSH2 0x100 EXP SWAP1 DIV PUSH20 0xFFFFFFFFFFFFFFFFFFFFFFFFFFFFFFFFFFFFFFFF AND PUSH20 0xFFFFFFFFFFFFFFFFFFFFFFFFFFFFFFFFFFFFFFFF AND SELFDESTRUCT JUMPDEST PUSH1 0x2 SLOAD DUP2 JUMP JUMPDEST PUSH1 0x1 PUSH1 0x0 SWAP1 SLOAD SWAP1 PUSH2 0x100 EXP SWAP1 DIV PUSH20 0xFFFFFFFFFFFFFFFFFFFFFFFFFFFFFFFFFFFFFFFF AND DUP2 JUMP JUMPDEST PUSH1 0x0 DUP1 SLOAD SWAP1 PUSH2 0x100 EXP SWAP1 DIV PUSH20 0xFFFFFFFFFFFFFFFFFFFFFFFFFFFFFFFFFFFFFFFF AND DUP2 JUMP JUMPDEST PUSH1 0x0 DUP1 SLOAD SWAP1 PUSH2 0x100 EXP SWAP1 DIV PUSH20 0xFFFFFFFFFFFFFFFFFFFFFFFFFFFFFFFFFFFFFFFF AND PUSH20 0xFFFFFFFFFFFFFFFFFFFFFFFFFFFFFFFFFFFFFFFF AND CALLER PUSH20 0xFFFFFFFFFFFFFFFFFFFFFFFFFFFFFFFFFFFFFFFF AND EQ PUSH2 0x302 JUMPI PUSH1 0x0 DUP1 REVERT JUMPDEST PUSH1 0x2 SLOAD DUP2 GT PUSH2 0x310 JUMPI PUSH1 0x0 DUP1 REVERT JUMPDEST DUP1 PUSH1 0x2 DUP2 SWAP1 SSTORE POP POP JUMP JUMPDEST PUSH1 0x0 DUP1 PUSH2 0x34E ADDRESS DUP6 PUSH1 0x40 MLOAD PUSH1 0x20 ADD PUSH2 0x333 SWAP3 SWAP2 SWAP1 PUSH2 0x7DA JUMP JUMPDEST PUSH1 0x40 MLOAD PUSH1 0x20 DUP2 DUP4 SUB SUB DUP2 MSTORE SWAP1 PUSH1 0x40 MSTORE DUP1 MLOAD SWAP1 PUSH1 0x20 ADD KECCAK256 PUSH2 0x3B1 JUMP JUMPDEST SWAP1 POP PUSH1 0x0 DUP1 SLOAD SWAP1 PUSH2 0x100 EXP SWAP1 DIV PUSH20 0xFFFFFFFFFFFFFFFFFFFFFFFFFFFFFFFFFFFFFFFF AND PUSH20 0xFFFFFFFFFFFFFFFFFFFFFFFFFFFFFFFFFFFFFFFF AND PUSH2 0x391 DUP3 DUP6 PUSH2 0x3E1 JUMP JUMPDEST PUSH20 0xFFFFFFFFFFFFFFFFFFFFFFFFFFFFFFFFFFFFFFFF AND EQ SWAP2 POP POP SWAP3 SWAP2 POP POP JUMP JUMPDEST PUSH1 0x0 DUP2 PUSH1 0x40 MLOAD PUSH1 0x20 ADD PUSH2 0x3C4 SWAP2 SWAP1 PUSH2 0x888 JUMP JUMPDEST PUSH1 0x40 MLOAD PUSH1 0x20 DUP2 DUP4 SUB SUB DUP2 MSTORE SWAP1 PUSH1 0x40 MSTORE DUP1 MLOAD SWAP1 PUSH1 0x20 ADD KECCAK256 SWAP1 POP SWAP2 SWAP1 POP JUMP JUMPDEST PUSH1 0x0 DUP1 PUSH1 0x0 DUP1 PUSH2 0x3F0 DUP6 PUSH2 0x450 JUMP JUMPDEST SWAP3 POP SWAP3 POP SWAP3 POP PUSH1 0x1 DUP7 DUP5 DUP5 DUP5 PUSH1 0x40 MLOAD PUSH1 0x0 DUP2 MSTORE PUSH1 0x20 ADD PUSH1 0x40 MSTORE PUSH1 0x40 MLOAD PUSH2 0x419 SWAP5 SWAP4 SWAP3 SWAP2 SWAP1 PUSH2 0x8D9 JUMP JUMPDEST PUSH1 0x20 PUSH1 0x40 MLOAD PUSH1 0x20 DUP2 SUB SWAP1 DUP1 DUP5 SUB SWAP1 DUP6 GAS STATICCALL ISZERO DUP1 ISZERO PUSH2 0x43B JUMPI RETURNDATASIZE PUSH1 0x0 DUP1 RETURNDATACOPY RETURNDATASIZE PUSH1 0x0 REVERT JUMPDEST POP POP POP PUSH1 0x20 PUSH1 0x40 MLOAD SUB MLOAD SWAP4 POP POP POP POP SWAP3 SWAP2 POP POP JUMP JUMPDEST PUSH1 0x0 DUP1 PUSH1 0x0 PUSH1 0x41 DUP5 MLOAD EQ PUSH2 0x463 JUMPI PUSH1 0x0 DUP1 REVERT JUMPDEST PUSH1 0x20 DUP5 ADD MLOAD SWAP2 POP PUSH1 0x40 DUP5 ADD MLOAD SWAP1 POP PUSH1 0x60 DUP5 ADD MLOAD PUSH1 0x0 BYTE SWAP3 POP SWAP2 SWAP4 SWAP1 SWAP3 POP JUMP JUMPDEST PUSH1 0x0 PUSH1 0x40 MLOAD SWAP1 POP SWAP1 JUMP JUMPDEST PUSH1 0x0 DUP1 REVERT JUMPDEST PUSH1 0x0 DUP1 REVERT JUMPDEST PUSH1 0x0 DUP2 SWAP1 POP SWAP2 SWAP1 POP JUMP JUMPDEST PUSH2 0x4A9 DUP2 PUSH2 0x496 JUMP JUMPDEST DUP2 EQ PUSH2 0x4B4 JUMPI PUSH1 0x0 DUP1 REVERT JUMPDEST POP JUMP JUMPDEST PUSH1 0x0 DUP2 CALLDATALOAD SWAP1 POP PUSH2 0x4C6 DUP2 PUSH2 0x4A0 JUMP JUMPDEST SWAP3 SWAP2 POP POP JUMP JUMPDEST PUSH1 0x0 DUP1 REVERT JUMPDEST PUSH1 0x0 DUP1 REVERT JUMPDEST PUSH1 0x0 PUSH1 0x1F NOT PUSH1 0x1F DUP4 ADD AND SWAP1 POP SWAP2 SWAP1 POP JUMP JUMPDEST PUSH32 0x4E487B7100000000000000000000000000000000000000000000000000000000 PUSH1 0x0 MSTORE PUSH1 0x41 PUSH1 0x4 MSTORE PUSH1 0x24 PUSH1 0x0 REVERT JUMPDEST PUSH2 0x51F DUP3 PUSH2 0x4D6 JUMP JUMPDEST DUP2 ADD DUP2 DUP2 LT PUSH8 0xFFFFFFFFFFFFFFFF DUP3 GT OR ISZERO PUSH2 0x53E JUMPI PUSH2 0x53D PUSH2 0x4E7 JUMP JUMPDEST JUMPDEST DUP1 PUSH1 0x40 MSTORE POP POP POP JUMP JUMPDEST PUSH1 0x0 PUSH2 0x551 PUSH2 0x482 JUMP JUMPDEST SWAP1 POP PUSH2 0x55D DUP3 DUP3 PUSH2 0x516 JUMP JUMPDEST SWAP2 SWAP1 POP JUMP JUMPDEST PUSH1 0x0 PUSH8 0xFFFFFFFFFFFFFFFF DUP3 GT ISZERO PUSH2 0x57D JUMPI PUSH2 0x57C PUSH2 0x4E7 JUMP JUMPDEST JUMPDEST PUSH2 0x586 DUP3 PUSH2 0x4D6 JUMP JUMPDEST SWAP1 POP PUSH1 0x20 DUP2 ADD SWAP1 POP SWAP2 SWAP1 POP JUMP JUMPDEST DUP3 DUP2 DUP4 CALLDATACOPY PUSH1 0x0 DUP4 DUP4 ADD MSTORE POP POP POP JUMP JUMPDEST PUSH1 0x0 PUSH2 0x5B5 PUSH2 0x5B0 DUP5 PUSH2 0x562 JUMP JUMPDEST PUSH2 0x547 JUMP JUMPDEST SWAP1 POP DUP3 DUP2 MSTORE PUSH1 0x20 DUP2 ADD DUP5 DUP5 DUP5 ADD GT ISZERO PUSH2 0x5D1 JUMPI PUSH2 0x5D0 PUSH2 0x4D1 JUMP JUMPDEST JUMPDEST PUSH2 0x5DC DUP5 DUP3 DUP6 PUSH2 0x593 JUMP JUMPDEST POP SWAP4 SWAP3 POP POP POP JUMP JUMPDEST PUSH1 0x0 DUP3 PUSH1 0x1F DUP4 ADD SLT PUSH2 0x5F9 JUMPI PUSH2 0x5F8 PUSH2 0x4CC JUMP JUMPDEST JUMPDEST DUP2 CALLDATALOAD PUSH2 0x609 DUP5 DUP3 PUSH1 0x20 DUP7 ADD PUSH2 0x5A2 JUMP JUMPDEST SWAP2 POP POP SWAP3 SWAP2 POP POP JUMP JUMPDEST PUSH1 0x0 DUP1 PUSH1 0x40 DUP4 DUP6 SUB SLT ISZERO PUSH2 0x629 JUMPI PUSH2 0x628 PUSH2 0x48C JUMP JUMPDEST JUMPDEST PUSH1 0x0 PUSH2 0x637 DUP6 DUP3 DUP7 ADD PUSH2 0x4B7 JUMP JUMPDEST SWAP3 POP POP PUSH1 0x20 DUP4 ADD CALLDATALOAD PUSH8 0xFFFFFFFFFFFFFFFF DUP2 GT ISZERO PUSH2 0x658 JUMPI PUSH2 0x657 PUSH2 0x491 JUMP JUMPDEST JUMPDEST PUSH2 0x664 DUP6 DUP3 DUP7 ADD PUSH2 0x5E4 JUMP JUMPDEST SWAP2 POP POP SWAP3 POP SWAP3 SWAP1 POP JUMP JUMPDEST PUSH2 0x677 DUP2 PUSH2 0x496 JUMP JUMPDEST DUP3 MSTORE POP POP JUMP JUMPDEST PUSH1 0x0 PUSH1 0x20 DUP3 ADD SWAP1 POP PUSH2 0x692 PUSH1 0x0 DUP4 ADD DUP5 PUSH2 0x66E JUMP JUMPDEST SWAP3 SWAP2 POP POP JUMP JUMPDEST PUSH1 0x0 PUSH20 0xFFFFFFFFFFFFFFFFFFFFFFFFFFFFFFFFFFFFFFFF DUP3 AND SWAP1 POP SWAP2 SWAP1 POP JUMP JUMPDEST PUSH1 0x0 PUSH2 0x6C3 DUP3 PUSH2 0x698 JUMP JUMPDEST SWAP1 POP SWAP2 SWAP1 POP JUMP JUMPDEST PUSH2 0x6D3 DUP2 PUSH2 0x6B8 JUMP JUMPDEST DUP3 MSTORE POP POP JUMP JUMPDEST PUSH1 0x0 PUSH1 0x20 DUP3 ADD SWAP1 POP PUSH2 0x6EE PUSH1 0x0 DUP4 ADD DUP5 PUSH2 0x6CA JUMP JUMPDEST SWAP3 SWAP2 POP POP JUMP JUMPDEST PUSH1 0x0 PUSH1 0x20 DUP3 DUP5 SUB SLT ISZERO PUSH2 0x70A JUMPI PUSH2 0x709 PUSH2 0x48C JUMP JUMPDEST JUMPDEST PUSH1 0x0 PUSH2 0x718 DUP5 DUP3 DUP6 ADD PUSH2 0x4B7 JUMP JUMPDEST SWAP2 POP POP SWAP3 SWAP2 POP POP JUMP JUMPDEST PUSH1 0x0 DUP2 SWAP1 POP SWAP2 SWAP1 POP JUMP JUMPDEST PUSH1 0x0 PUSH2 0x746 PUSH2 0x741 PUSH2 0x73C DUP5 PUSH2 0x698 JUMP JUMPDEST PUSH2 0x721 JUMP JUMPDEST PUSH2 0x698 JUMP JUMPDEST SWAP1 POP SWAP2 SWAP1 POP JUMP JUMPDEST PUSH1 0x0 PUSH2 0x758 DUP3 PUSH2 0x72B JUMP JUMPDEST SWAP1 POP SWAP2 SWAP1 POP JUMP JUMPDEST PUSH1 0x0 PUSH2 0x76A DUP3 PUSH2 0x74D JUMP JUMPDEST SWAP1 POP SWAP2 SWAP1 POP JUMP JUMPDEST PUSH1 0x0 DUP2 PUSH1 0x60 SHL SWAP1 POP SWAP2 SWAP1 POP JUMP JUMPDEST PUSH1 0x0 PUSH2 0x789 DUP3 PUSH2 0x771 JUMP JUMPDEST SWAP1 POP SWAP2 SWAP1 POP JUMP JUMPDEST PUSH1 0x0 PUSH2 0x79B DUP3 PUSH2 0x77E JUMP JUMPDEST SWAP1 POP SWAP2 SWAP1 POP JUMP JUMPDEST PUSH2 0x7B3 PUSH2 0x7AE DUP3 PUSH2 0x75F JUMP JUMPDEST PUSH2 0x790 JUMP JUMPDEST DUP3 MSTORE POP POP JUMP JUMPDEST PUSH1 0x0 DUP2 SWAP1 POP SWAP2 SWAP1 POP JUMP JUMPDEST PUSH2 0x7D4 PUSH2 0x7CF DUP3 PUSH2 0x496 JUMP JUMPDEST PUSH2 0x7B9 JUMP JUMPDEST DUP3 MSTORE POP POP JUMP JUMPDEST PUSH1 0x0 PUSH2 0x7E6 DUP3 DUP6 PUSH2 0x7A2 JUMP JUMPDEST PUSH1 0x14 DUP3 ADD SWAP2 POP PUSH2 0x7F6 DUP3 DUP5 PUSH2 0x7C3 JUMP JUMPDEST PUSH1 0x20 DUP3 ADD SWAP2 POP DUP2 SWAP1 POP SWAP4 SWAP3 POP POP POP JUMP JUMPDEST PUSH1 0x0 DUP2 SWAP1 POP SWAP3 SWAP2 POP POP JUMP JUMPDEST PUSH32 0x19457468657265756D205369676E6564204D6573736167653A0A333200000000 PUSH1 0x0 DUP3 ADD MSTORE POP JUMP JUMPDEST PUSH1 0x0 PUSH2 0x847 PUSH1 0x1C DUP4 PUSH2 0x806 JUMP JUMPDEST SWAP2 POP PUSH2 0x852 DUP3 PUSH2 0x811 JUMP JUMPDEST PUSH1 0x1C DUP3 ADD SWAP1 POP SWAP2 SWAP1 POP JUMP JUMPDEST PUSH1 0x0 DUP2 SWAP1 POP SWAP2 SWAP1 POP JUMP JUMPDEST PUSH1 0x0 DUP2 SWAP1 POP SWAP2 SWAP1 POP JUMP JUMPDEST PUSH2 0x882 PUSH2 0x87D DUP3 PUSH2 0x85D JUMP JUMPDEST PUSH2 0x867 JUMP JUMPDEST DUP3 MSTORE POP POP JUMP JUMPDEST PUSH1 0x0 PUSH2 0x893 DUP3 PUSH2 0x83A JUMP JUMPDEST SWAP2 POP PUSH2 0x89F DUP3 DUP5 PUSH2 0x871 JUMP JUMPDEST PUSH1 0x20 DUP3 ADD SWAP2 POP DUP2 SWAP1 POP SWAP3 SWAP2 POP POP JUMP JUMPDEST PUSH2 0x8B7 DUP2 PUSH2 0x85D JUMP JUMPDEST DUP3 MSTORE POP POP JUMP JUMPDEST PUSH1 0x0 PUSH1 0xFF DUP3 AND SWAP1 POP SWAP2 SWAP1 POP JUMP JUMPDEST PUSH2 0x8D3 DUP2 PUSH2 0x8BD JUMP JUMPDEST DUP3 MSTORE POP POP JUMP JUMPDEST PUSH1 0x0 PUSH1 0x80 DUP3 ADD SWAP1 POP PUSH2 0x8EE PUSH1 0x0 DUP4 ADD DUP8 PUSH2 0x8AE JUMP JUMPDEST PUSH2 0x8FB PUSH1 0x20 DUP4 ADD DUP7 PUSH2 0x8CA JUMP JUMPDEST PUSH2 0x908 PUSH1 0x40 DUP4 ADD DUP6 PUSH2 0x8AE JUMP JUMPDEST PUSH2 0x915 PUSH1 0x60 DUP4 ADD DUP5 PUSH2 0x8AE JUMP JUMPDEST SWAP6 SWAP5 POP POP POP POP POP JUMP INVALID LOG2 PUSH5 0x6970667358 0x22 SLT KECCAK256 0xB7 CALLCODE 0xC7 0x4C COINBASE CODECOPY 0x5D SLOAD 0xC4 PUSH6 0xC68EA69FE526 DIV 0xE9 EXTCODECOPY CALL MLOAD 0xD4 SLOAD EXP LOG4 MUL 0x4F PUSH29 0x5673164464736F6C634300081200330000000000000000000000000000 "
				},
				"gasEstimates": {
					"creation": {
						"codeDepositCost": "477600",
						"executionCost": "infinite",
						"totalCost": "infinite"
					},
					"external": {
						"claimTimeout()": "31980",
						"close(uint256,bytes)": "infinite",
						"expiration()": "2451",
						"extend(uint256)": "26898",
						"recipient()": "2558",
						"sender()": "2577"
					},
					"internal": {
						"isValidSignature(uint256,bytes memory)": "infinite",
						"prefixed(bytes32)": "infinite",
						"recoverSigner(bytes32,bytes memory)": "infinite",
						"splitSignature(bytes memory)": "infinite"
					}
				},
				"methodIdentifiers": {
					"claimTimeout()": "0e1da6c3",
					"close(uint256,bytes)": "415ffba7",
					"expiration()": "4665096d",
					"extend(uint256)": "9714378c",
					"recipient()": "66d003ac",
					"sender()": "67e404ce"
				}
			},
			"storageLayout": {
				"storage": [
					{
						"astId": 4,
						"contract": "contracts/payment/SimplePaymentChannel.sol:SimplePaymentChannel",
						"label": "sender",
						"offset": 0,
						"slot": "0",
						"type": "t_address_payable"
					},
					{
						"astId": 6,
						"contract": "contracts/payment/SimplePaymentChannel.sol:SimplePaymentChannel",
						"label": "recipient",
						"offset": 0,
						"slot": "1",
						"type": "t_address_payable"
					},
					{
						"astId": 8,
						"contract": "contracts/payment/SimplePaymentChannel.sol:SimplePaymentChannel",
						"label": "expiration",
						"offset": 0,
						"slot": "2",
						"type": "t_uint256"
					}
				],
				"types": {
					"t_address_payable": {
						"encoding": "inplace",
						"label": "address payable",
						"numberOfBytes": "20"
					},
					"t_uint256": {
						"encoding": "inplace",
						"label": "uint256",
						"numberOfBytes": "32"
					}
				}
			},
			"userdoc": {
				"kind": "user",
				"methods": {
					"claimTimeout()": {
						"notice": "if the timeout is reached without the recipient closing the channel, then the Ether is released back to the sender."
					},
					"close(uint256,bytes)": {
						"notice": "the recipient can close the channel at any time by presenting a signed amount from the sender. the recipient will be sent that amount, and the remainder will go back to the sender"
					},
					"extend(uint256)": {
						"notice": "the sender can extend the expiration at any time"
					}
				},
				"version": 1
			}
		}
	}
}